{
  "contractName": "CurveStrategy",
  "abi": [
    {
      "inputs": [
        {
          "internalType": "contract Erc20[3]",
          "name": "coins",
          "type": "address[3]"
        },
        {
          "internalType": "address",
          "name": "_crvpool",
          "type": "address"
        },
        {
          "internalType": "address",
          "name": "_pooltoken",
          "type": "address"
        },
        {
          "internalType": "address",
          "name": "_royaleaddress",
          "type": "address"
        },
        {
          "internalType": "address",
          "name": "_gauge",
          "type": "address"
        },
        {
          "internalType": "address",
          "name": "_minter",
          "type": "address"
        },
        {
          "internalType": "address",
          "name": "_multiSig",
          "type": "address"
        }
      ],
      "stateMutability": "nonpayable",
      "type": "constructor"
    },
    {
      "inputs": [],
      "name": "BASE_DECIMAL",
      "outputs": [
        {
          "internalType": "uint256",
          "name": "",
          "type": "uint256"
        }
      ],
      "stateMutability": "view",
      "type": "function"
    },
    {
      "inputs": [],
      "name": "Pool",
      "outputs": [
        {
          "internalType": "contract curvePool",
          "name": "",
          "type": "address"
        }
      ],
      "stateMutability": "view",
      "type": "function"
    },
    {
      "inputs": [],
      "name": "TEST",
      "outputs": [
        {
          "internalType": "bool",
          "name": "",
          "type": "bool"
        }
      ],
      "stateMutability": "view",
      "type": "function"
    },
    {
      "inputs": [],
      "name": "_perc",
      "outputs": [
        {
          "internalType": "uint8",
          "name": "",
          "type": "uint8"
        }
      ],
      "stateMutability": "view",
      "type": "function"
    },
    {
      "inputs": [],
      "name": "crvAddr",
      "outputs": [
        {
          "internalType": "address",
          "name": "",
          "type": "address"
        }
      ],
      "stateMutability": "view",
      "type": "function"
    },
    {
      "inputs": [
        {
          "internalType": "uint256",
          "name": "",
          "type": "uint256"
        }
      ],
      "name": "depositBal",
      "outputs": [
        {
          "internalType": "uint256",
          "name": "",
          "type": "uint256"
        }
      ],
      "stateMutability": "view",
      "type": "function"
    },
    {
      "inputs": [],
      "name": "foundationProfit",
      "outputs": [
        {
          "internalType": "uint256",
          "name": "",
          "type": "uint256"
        }
      ],
      "stateMutability": "view",
      "type": "function"
    },
    {
      "inputs": [],
      "name": "gauge",
      "outputs": [
        {
          "internalType": "contract PoolGauge",
          "name": "",
          "type": "address"
        }
      ],
      "stateMutability": "view",
      "type": "function"
    },
    {
      "inputs": [],
      "name": "minter",
      "outputs": [
        {
          "internalType": "contract Minter",
          "name": "",
          "type": "address"
        }
      ],
      "stateMutability": "view",
      "type": "function"
    },
    {
      "inputs": [],
      "name": "stakedAmt",
      "outputs": [
        {
          "internalType": "uint256",
          "name": "",
          "type": "uint256"
        }
      ],
      "stateMutability": "view",
      "type": "function"
    },
    {
      "inputs": [],
      "name": "uniAddr",
      "outputs": [
        {
          "internalType": "address",
          "name": "",
          "type": "address"
        }
      ],
      "stateMutability": "view",
      "type": "function"
    },
    {
      "inputs": [],
      "name": "wethAddr",
      "outputs": [
        {
          "internalType": "address",
          "name": "",
          "type": "address"
        }
      ],
      "stateMutability": "view",
      "type": "function"
    },
    {
      "inputs": [
        {
          "internalType": "uint8",
          "name": "_profitBreak",
          "type": "uint8"
        }
      ],
      "name": "setProfitBreak",
      "outputs": [],
      "stateMutability": "nonpayable",
      "type": "function"
    },
    {
      "inputs": [
        {
          "internalType": "address",
          "name": "_royale",
          "type": "address"
        }
      ],
      "name": "updateRoyalePool",
      "outputs": [],
      "stateMutability": "nonpayable",
      "type": "function"
    },
    {
      "inputs": [
        {
          "internalType": "uint8",
          "name": "_percentage3CRV",
          "type": "uint8"
        }
      ],
      "name": "set3CRVPercentage",
      "outputs": [],
      "stateMutability": "nonpayable",
      "type": "function"
    },
    {
      "inputs": [
        {
          "internalType": "uint256[3]",
          "name": "amounts",
          "type": "uint256[3]"
        }
      ],
      "name": "deposit",
      "outputs": [],
      "stateMutability": "nonpayable",
      "type": "function"
    },
    {
      "inputs": [
        {
          "internalType": "uint256[3]",
          "name": "amounts",
          "type": "uint256[3]"
        }
      ],
      "name": "withdraw",
      "outputs": [],
      "stateMutability": "nonpayable",
      "type": "function"
    },
    {
      "inputs": [],
      "name": "withdrawAll",
      "outputs": [],
      "stateMutability": "nonpayable",
      "type": "function"
    },
    {
      "inputs": [],
      "name": "stakeLP",
      "outputs": [],
      "stateMutability": "nonpayable",
      "type": "function"
    },
    {
      "inputs": [
        {
          "internalType": "uint256",
          "name": "_amount",
          "type": "uint256"
        }
      ],
      "name": "unstakeLP",
      "outputs": [],
      "stateMutability": "nonpayable",
      "type": "function"
    },
    {
      "inputs": [],
      "name": "unstakeAll",
      "outputs": [],
      "stateMutability": "nonpayable",
      "type": "function"
    },
    {
      "inputs": [],
      "name": "checkClaimableToken",
      "outputs": [
        {
          "internalType": "uint256",
          "name": "",
          "type": "uint256"
        }
      ],
      "stateMutability": "nonpayable",
      "type": "function"
    },
    {
      "inputs": [
        {
          "internalType": "uint8",
          "name": "_index",
          "type": "uint8"
        }
      ],
      "name": "sellCRV",
      "outputs": [
        {
          "internalType": "uint256",
          "name": "",
          "type": "uint256"
        }
      ],
      "stateMutability": "nonpayable",
      "type": "function"
    },
    {
      "inputs": [
        {
          "internalType": "uint8",
          "name": "_index",
          "type": "uint8"
        }
      ],
      "name": "getTotalProfit",
      "outputs": [
        {
          "internalType": "uint256[3]",
          "name": "",
          "type": "uint256[3]"
        }
      ],
      "stateMutability": "nonpayable",
      "type": "function"
    },
    {
      "inputs": [],
      "name": "calculateProfit",
      "outputs": [
        {
          "internalType": "uint256",
          "name": "",
          "type": "uint256"
        }
      ],
      "stateMutability": "view",
      "type": "function"
    },
    {
      "inputs": [
        {
          "internalType": "address",
          "name": "_address",
          "type": "address"
        }
      ],
      "name": "transferCRV",
      "outputs": [],
      "stateMutability": "nonpayable",
      "type": "function"
    }
  ],
  "bytecode": "0x6080604052604b600b556001601160006101000a81548160ff021916908315150217905550604b601160016101000a81548160ff021916908360ff160217905550737a250d5630b4cf539739df2c5dacb4c659f2488d601360006101000a81548173ffffffffffffffffffffffffffffffffffffffff021916908373ffffffffffffffffffffffffffffffffffffffff160217905550735ddbdbb1d1e691d2994d4a44470eb07dfcbd57c3601460006101000a81548173ffffffffffffffffffffffffffffffffffffffff021916908373ffffffffffffffffffffffffffffffffffffffff16021790555073c02aaa39b223fe8d0a0e5c4f27ead9083c756cc2601560006101000a81548173ffffffffffffffffffffffffffffffffffffffff021916908373ffffffffffffffffffffffffffffffffffffffff1602179055503480156200014c57600080fd5b50604051620044723803806200447283398181016040526101208110156200017357600080fd5b8101908091908260600180519060200190929190805190602001909291908051906020019092919080519060200190929190805190602001909291908051906020019092919050505085600660006101000a81548173ffffffffffffffffffffffffffffffffffffffff021916908373ffffffffffffffffffffffffffffffffffffffff16021790555084600260006101000a81548173ffffffffffffffffffffffffffffffffffffffff021916908373ffffffffffffffffffffffffffffffffffffffff16021790555082600760006101000a81548173ffffffffffffffffffffffffffffffffffffffff021916908373ffffffffffffffffffffffffffffffffffffffff16021790555081600860006101000a81548173ffffffffffffffffffffffffffffffffffffffff021916908373ffffffffffffffffffffffffffffffffffffffff16021790555080600160006101000a81548173ffffffffffffffffffffffffffffffffffffffff021916908373ffffffffffffffffffffffffffffffffffffffff160217905550836000806101000a81548173ffffffffffffffffffffffffffffffffffffffff021916908373ffffffffffffffffffffffffffffffffffffffff16021790555060005b60038160ff161015620003c457878160ff16600381106200036157fe5b602002015160038260ff16600381106200037757fe5b0160006101000a81548173ffffffffffffffffffffffffffffffffffffffff021916908373ffffffffffffffffffffffffffffffffffffffff160217905550808060010191505062000344565b505050505050505061409680620003dc6000396000f3fe608060405234801561001057600080fd5b506004361061018e5760003560e01c806387db237c116100de578063b1b8f1be11610097578063d4e20b0111610071578063d4e20b011461052b578063dad9127414610559578063f001a7171461059d578063f87bf3ca1461060a5761018e565b8063b1b8f1be146104b1578063c4778998146104df578063d3639ae31461050d5761018e565b806387db237c1461039a5780638af81478146103bb578063928ecfae146103d9578063956e90631461040a578063a3c0cd671461043b578063a6f19c841461047d5761018e565b806351d977a61161014b5780637b158f38116101255780637b158f38146102e45780637d5aa5f414610318578063853828b61461034c5780638608aeac146103565761018e565b806351d977a61461024b5780636b9449981461026b57806374b21fbe146102b05761018e565b8063075461721461019357806307f3b8bb146101c757806310ff582d146101fb57806335322f371461020557806345dc7a931461020f57806345ef91ce1461022d575b600080fd5b61019b610628565b604051808273ffffffffffffffffffffffffffffffffffffffff16815260200191505060405180910390f35b6101cf61064e565b604051808273ffffffffffffffffffffffffffffffffffffffff16815260200191505060405180910390f35b610203610674565b005b61020d610a98565b005b610217610cbf565b6040518082815260200191505060405180910390f35b610235610cc5565b6040518082815260200191505060405180910390f35b610253610ccb565b60405180821515815260200191505060405180910390f35b61029a6004803603602081101561028157600080fd5b81019080803560ff169060200190929190505050610cde565b6040518082815260200191505060405180910390f35b6102b8611743565b604051808273ffffffffffffffffffffffffffffffffffffffff16815260200191505060405180910390f35b6102ec611769565b604051808273ffffffffffffffffffffffffffffffffffffffff16815260200191505060405180910390f35b61032061178f565b604051808273ffffffffffffffffffffffffffffffffffffffff16815260200191505060405180910390f35b6103546117b5565b005b6103986004803603602081101561036c57600080fd5b81019080803573ffffffffffffffffffffffffffffffffffffffff169060200190929190505050611c2a565b005b6103a2611f4d565b604051808260ff16815260200191505060405180910390f35b6103c3611f60565b6040518082815260200191505060405180910390f35b610408600480360360208110156103ef57600080fd5b81019080803560ff169060200190929190505050611f6c565b005b6104396004803603602081101561042057600080fd5b81019080803560ff169060200190929190505050612107565b005b6104676004803603602081101561045157600080fd5b81019080803590602001909291905050506122b3565b6040518082815260200191505060405180910390f35b6104856122cb565b604051808273ffffffffffffffffffffffffffffffffffffffff16815260200191505060405180910390f35b6104dd600480360360608110156104c757600080fd5b81019080806060019091929192905050506122f1565b005b61050b600480360360208110156104f557600080fd5b8101908080359060200190929190505050612890565b005b610515612b36565b6040518082815260200191505060405180910390f35b6105576004803603606081101561054157600080fd5b8101908080606001909192919290505050612d97565b005b61059b6004803603602081101561056f57600080fd5b81019080803573ffffffffffffffffffffffffffffffffffffffff1690602001909291905050506133e9565b005b6105cc600480360360208110156105b357600080fd5b81019080803560ff1690602001909291905050506135ba565b6040518082600360200280838360005b838110156105f75780820151818401526020810190506105dc565b5050505090500191505060405180910390f35b610612613828565b6040518082815260200191505060405180910390f35b600860009054906101000a900473ffffffffffffffffffffffffffffffffffffffff1681565b600660009054906101000a900473ffffffffffffffffffffffffffffffffffffffff1681565b33600160009054906101000a900473ffffffffffffffffffffffffffffffffffffffff1673ffffffffffffffffffffffffffffffffffffffff1663e0e3671c826040518263ffffffff1660e01b8152600401808273ffffffffffffffffffffffffffffffffffffffff16815260200191505060206040518083038186803b1580156106fe57600080fd5b505afa158015610712573d6000803e3d6000fd5b505050506040513d602081101561072857600080fd5b81019080805190602001909291905050508061078f575060008054906101000a900473ffffffffffffffffffffffffffffffffffffffff1673ffffffffffffffffffffffffffffffffffffffff168173ffffffffffffffffffffffffffffffffffffffff16145b610801576040517f08c379a000000000000000000000000000000000000000000000000000000000815260040180806020018281038252600e8152602001807f6e6f7420617574686f72697a656400000000000000000000000000000000000081525060200191505060405180910390fd5b60006064601160019054906101000a900460ff1660ff16601254600260009054906101000a900473ffffffffffffffffffffffffffffffffffffffff1673ffffffffffffffffffffffffffffffffffffffff166370a08231306040518263ffffffff1660e01b8152600401808273ffffffffffffffffffffffffffffffffffffffff16815260200191505060206040518083038186803b1580156108a457600080fd5b505afa1580156108b8573d6000803e3d6000fd5b505050506040513d60208110156108ce57600080fd5b81019080805190602001909291905050500102816108e857fe5b049050601254811115610a94576012548103905060008114610a9357600260009054906101000a900473ffffffffffffffffffffffffffffffffffffffff1673ffffffffffffffffffffffffffffffffffffffff1663095ea7b3600760009054906101000a900473ffffffffffffffffffffffffffffffffffffffff16836040518363ffffffff1660e01b8152600401808373ffffffffffffffffffffffffffffffffffffffff16815260200182815260200192505050602060405180830381600087803b1580156109b957600080fd5b505af11580156109cd573d6000803e3d6000fd5b505050506040513d60208110156109e357600080fd5b810190808051906020019092919050505050600760009054906101000a900473ffffffffffffffffffffffffffffffffffffffff1673ffffffffffffffffffffffffffffffffffffffff1663b6b55f25826040518263ffffffff1660e01b815260040180828152602001915050600060405180830381600087803b158015610a6a57600080fd5b505af1158015610a7e573d6000803e3d6000fd5b50505050806012600082825401925050819055505b5b5050565b33600160009054906101000a900473ffffffffffffffffffffffffffffffffffffffff1673ffffffffffffffffffffffffffffffffffffffff1663e0e3671c826040518263ffffffff1660e01b8152600401808273ffffffffffffffffffffffffffffffffffffffff16815260200191505060206040518083038186803b158015610b2257600080fd5b505afa158015610b36573d6000803e3d6000fd5b505050506040513d6020811015610b4c57600080fd5b810190808051906020019092919050505080610bb3575060008054906101000a900473ffffffffffffffffffffffffffffffffffffffff1673ffffffffffffffffffffffffffffffffffffffff168173ffffffffffffffffffffffffffffffffffffffff16145b610c25576040517f08c379a000000000000000000000000000000000000000000000000000000000815260040180806020018281038252600e8152602001807f6e6f7420617574686f72697a656400000000000000000000000000000000000081525060200191505060405180910390fd5b600760009054906101000a900473ffffffffffffffffffffffffffffffffffffffff1673ffffffffffffffffffffffffffffffffffffffff16632e1a7d4d6012546040518263ffffffff1660e01b815260040180828152602001915050600060405180830381600087803b158015610c9c57600080fd5b505af1158015610cb0573d6000803e3d6000fd5b50505050600060128190555050565b600a5481565b60125481565b601160009054906101000a900460ff1681565b600033600160009054906101000a900473ffffffffffffffffffffffffffffffffffffffff1673ffffffffffffffffffffffffffffffffffffffff1663e0e3671c826040518263ffffffff1660e01b8152600401808273ffffffffffffffffffffffffffffffffffffffff16815260200191505060206040518083038186803b158015610d6a57600080fd5b505afa158015610d7e573d6000803e3d6000fd5b505050506040513d6020811015610d9457600080fd5b810190808051906020019092919050505080610dfb575060008054906101000a900473ffffffffffffffffffffffffffffffffffffffff1673ffffffffffffffffffffffffffffffffffffffff168173ffffffffffffffffffffffffffffffffffffffff16145b610e6d576040517f08c379a000000000000000000000000000000000000000000000000000000000815260040180806020018281038252600e8152602001807f6e6f7420617574686f72697a656400000000000000000000000000000000000081525060200191505060405180910390fd5b6000601460009054906101000a900473ffffffffffffffffffffffffffffffffffffffff1673ffffffffffffffffffffffffffffffffffffffff166370a08231306040518263ffffffff1660e01b8152600401808273ffffffffffffffffffffffffffffffffffffffff16815260200191505060206040518083038186803b158015610ef857600080fd5b505afa158015610f0c573d6000803e3d6000fd5b505050506040513d6020811015610f2257600080fd5b81019080805190602001909291905050509050600060038560ff1660038110610f4757fe5b0160009054906101000a900473ffffffffffffffffffffffffffffffffffffffff1673ffffffffffffffffffffffffffffffffffffffff166370a08231306040518263ffffffff1660e01b8152600401808273ffffffffffffffffffffffffffffffffffffffff16815260200191505060206040518083038186803b158015610fcf57600080fd5b505afa158015610fe3573d6000803e3d6000fd5b505050506040513d6020811015610ff957600080fd5b8101908080519060200190929190505050905060008211611082576040517f08c379a00000000000000000000000000000000000000000000000000000000081526004018080602001828103825260108152602001807f696e73756666696369656e74204352560000000000000000000000000000000081525060200191505060405180910390fd5b601460009054906101000a900473ffffffffffffffffffffffffffffffffffffffff1673ffffffffffffffffffffffffffffffffffffffff1663095ea7b3601360009054906101000a900473ffffffffffffffffffffffffffffffffffffffff16846040518363ffffffff1660e01b8152600401808373ffffffffffffffffffffffffffffffffffffffff16815260200182815260200192505050602060405180830381600087803b15801561113757600080fd5b505af115801561114b573d6000803e3d6000fd5b505050506040513d602081101561116157600080fd5b8101908080519060200190929190505050506060601160009054906101000a900460ff16156112bc57600267ffffffffffffffff811180156111a257600080fd5b506040519080825280602002602001820160405280156111d15781602001602082028036833780820191505090505b509050601460009054906101000a900473ffffffffffffffffffffffffffffffffffffffff168160008151811061120457fe5b602002602001019073ffffffffffffffffffffffffffffffffffffffff16908173ffffffffffffffffffffffffffffffffffffffff168152505060038660ff166003811061124e57fe5b0160009054906101000a900473ffffffffffffffffffffffffffffffffffffffff168160018151811061127d57fe5b602002602001019073ffffffffffffffffffffffffffffffffffffffff16908173ffffffffffffffffffffffffffffffffffffffff1681525050611454565b600367ffffffffffffffff811180156112d457600080fd5b506040519080825280602002602001820160405280156113035781602001602082028036833780820191505090505b509050601460009054906101000a900473ffffffffffffffffffffffffffffffffffffffff168160008151811061133657fe5b602002602001019073ffffffffffffffffffffffffffffffffffffffff16908173ffffffffffffffffffffffffffffffffffffffff1681525050601560009054906101000a900473ffffffffffffffffffffffffffffffffffffffff16816001815181106113a057fe5b602002602001019073ffffffffffffffffffffffffffffffffffffffff16908173ffffffffffffffffffffffffffffffffffffffff168152505060038660ff16600381106113ea57fe5b0160009054906101000a900473ffffffffffffffffffffffffffffffffffffffff168160028151811061141957fe5b602002602001019073ffffffffffffffffffffffffffffffffffffffff16908173ffffffffffffffffffffffffffffffffffffffff16815250505b601360009054906101000a900473ffffffffffffffffffffffffffffffffffffffff1673ffffffffffffffffffffffffffffffffffffffff166338ed1739846000843061070842016040518663ffffffff1660e01b815260040180868152602001858152602001806020018473ffffffffffffffffffffffffffffffffffffffff168152602001838152602001828103825285818151815260200191508051906020019060200280838360005b8381101561151c578082015181840152602081019050611501565b505050509050019650505050505050600060405180830381600087803b15801561154557600080fd5b505af1158015611559573d6000803e3d6000fd5b50505050600060038760ff166003811061156f57fe5b0160009054906101000a900473ffffffffffffffffffffffffffffffffffffffff1673ffffffffffffffffffffffffffffffffffffffff166370a08231306040518263ffffffff1660e01b8152600401808273ffffffffffffffffffffffffffffffffffffffff16815260200191505060206040518083038186803b1580156115f757600080fd5b505afa15801561160b573d6000803e3d6000fd5b505050506040513d602081101561162157600080fd5b8101908080519060200190929190505050905060038760ff166003811061164457fe5b0160009054906101000a900473ffffffffffffffffffffffffffffffffffffffff1673ffffffffffffffffffffffffffffffffffffffff1663a9059cbb60008054906101000a900473ffffffffffffffffffffffffffffffffffffffff168584036040518363ffffffff1660e01b8152600401808373ffffffffffffffffffffffffffffffffffffffff16815260200182815260200192505050602060405180830381600087803b1580156116f857600080fd5b505af115801561170c573d6000803e3d6000fd5b505050506040513d602081101561172257600080fd5b81019080805190602001909291905050505082810395505050505050919050565b601460009054906101000a900473ffffffffffffffffffffffffffffffffffffffff1681565b601360009054906101000a900473ffffffffffffffffffffffffffffffffffffffff1681565b601560009054906101000a900473ffffffffffffffffffffffffffffffffffffffff1681565b3360008054906101000a900473ffffffffffffffffffffffffffffffffffffffff1673ffffffffffffffffffffffffffffffffffffffff168173ffffffffffffffffffffffffffffffffffffffff1614611877576040517f08c379a000000000000000000000000000000000000000000000000000000000815260040180806020018281038252600e8152602001807f6e6f7420617574686f72697a656400000000000000000000000000000000000081525060200191505060405180910390fd5b61187f61403e565b6000600660009054906101000a900473ffffffffffffffffffffffffffffffffffffffff1673ffffffffffffffffffffffffffffffffffffffff1663ecb586a582846040518363ffffffff1660e01b81526004018083815260200182600360200280838360005b838110156119015780820151818401526020810190506118e6565b5050505090500192505050600060405180830381600087803b15801561192657600080fd5b505af115801561193a573d6000803e3d6000fd5b5050505060005b60038160ff161015611c1c57600060038260ff166003811061195f57fe5b0160009054906101000a900473ffffffffffffffffffffffffffffffffffffffff1673ffffffffffffffffffffffffffffffffffffffff166370a08231306040518263ffffffff1660e01b8152600401808273ffffffffffffffffffffffffffffffffffffffff16815260200191505060206040518083038186803b1580156119e757600080fd5b505afa1580156119fb573d6000803e3d6000fd5b505050506040513d6020811015611a1157600080fd5b810190808051906020019092919050505014611c0f576000600c8260ff1660038110611a3957fe5b018190555060038160ff1660038110611a4e57fe5b0160009054906101000a900473ffffffffffffffffffffffffffffffffffffffff1673ffffffffffffffffffffffffffffffffffffffff1663a9059cbb60008054906101000a900473ffffffffffffffffffffffffffffffffffffffff1660038460ff1660038110611abc57fe5b0160009054906101000a900473ffffffffffffffffffffffffffffffffffffffff1673ffffffffffffffffffffffffffffffffffffffff166370a08231306040518263ffffffff1660e01b8152600401808273ffffffffffffffffffffffffffffffffffffffff16815260200191505060206040518083038186803b158015611b4457600080fd5b505afa158015611b58573d6000803e3d6000fd5b505050506040513d6020811015611b6e57600080fd5b81019080805190602001909291905050506040518363ffffffff1660e01b8152600401808373ffffffffffffffffffffffffffffffffffffffff16815260200182815260200192505050602060405180830381600087803b158015611bd257600080fd5b505af1158015611be6573d6000803e3d6000fd5b505050506040513d6020811015611bfc57600080fd5b8101908080519060200190929190505050505b8080600101915050611941565b506000600f81905550505050565b33600160009054906101000a900473ffffffffffffffffffffffffffffffffffffffff1673ffffffffffffffffffffffffffffffffffffffff1663e0e3671c826040518263ffffffff1660e01b8152600401808273ffffffffffffffffffffffffffffffffffffffff16815260200191505060206040518083038186803b158015611cb457600080fd5b505afa158015611cc8573d6000803e3d6000fd5b505050506040513d6020811015611cde57600080fd5b810190808051906020019092919050505080611d45575060008054906101000a900473ffffffffffffffffffffffffffffffffffffffff1673ffffffffffffffffffffffffffffffffffffffff168173ffffffffffffffffffffffffffffffffffffffff16145b611db7576040517f08c379a000000000000000000000000000000000000000000000000000000000815260040180806020018281038252600e8152602001807f6e6f7420617574686f72697a656400000000000000000000000000000000000081525060200191505060405180910390fd5b601460009054906101000a900473ffffffffffffffffffffffffffffffffffffffff1673ffffffffffffffffffffffffffffffffffffffff1663a9059cbb83601460009054906101000a900473ffffffffffffffffffffffffffffffffffffffff1673ffffffffffffffffffffffffffffffffffffffff166370a08231306040518263ffffffff1660e01b8152600401808273ffffffffffffffffffffffffffffffffffffffff16815260200191505060206040518083038186803b158015611e7f57600080fd5b505afa158015611e93573d6000803e3d6000fd5b505050506040513d6020811015611ea957600080fd5b81019080805190602001909291905050506040518363ffffffff1660e01b8152600401808373ffffffffffffffffffffffffffffffffffffffff16815260200182815260200192505050602060405180830381600087803b158015611f0d57600080fd5b505af1158015611f21573d6000803e3d6000fd5b505050506040513d6020811015611f3757600080fd5b8101908080519060200190929190505050505050565b601160019054906101000a900460ff1681565b670de0b6b3a764000081565b33600160009054906101000a900473ffffffffffffffffffffffffffffffffffffffff1673ffffffffffffffffffffffffffffffffffffffff1663e0e3671c826040518263ffffffff1660e01b8152600401808273ffffffffffffffffffffffffffffffffffffffff16815260200191505060206040518083038186803b158015611ff657600080fd5b505afa15801561200a573d6000803e3d6000fd5b505050506040513d602081101561202057600080fd5b810190808051906020019092919050505080612087575060008054906101000a900473ffffffffffffffffffffffffffffffffffffffff1673ffffffffffffffffffffffffffffffffffffffff168173ffffffffffffffffffffffffffffffffffffffff16145b6120f9576040517f08c379a000000000000000000000000000000000000000000000000000000000815260040180806020018281038252600e8152602001807f6e6f7420617574686f72697a656400000000000000000000000000000000000081525060200191505060405180910390fd5b8160ff16600b819055505050565b33600160009054906101000a900473ffffffffffffffffffffffffffffffffffffffff1673ffffffffffffffffffffffffffffffffffffffff1663e0e3671c826040518263ffffffff1660e01b8152600401808273ffffffffffffffffffffffffffffffffffffffff16815260200191505060206040518083038186803b15801561219157600080fd5b505afa1580156121a5573d6000803e3d6000fd5b505050506040513d60208110156121bb57600080fd5b810190808051906020019092919050505080612222575060008054906101000a900473ffffffffffffffffffffffffffffffffffffffff1673ffffffffffffffffffffffffffffffffffffffff168173ffffffffffffffffffffffffffffffffffffffff16145b612294576040517f08c379a000000000000000000000000000000000000000000000000000000000815260040180806020018281038252600e8152602001807f6e6f7420617574686f72697a656400000000000000000000000000000000000081525060200191505060405180910390fd5b81601160016101000a81548160ff021916908360ff1602179055505050565b600c81600381106122c057fe5b016000915090505481565b600760009054906101000a900473ffffffffffffffffffffffffffffffffffffffff1681565b3360008054906101000a900473ffffffffffffffffffffffffffffffffffffffff1673ffffffffffffffffffffffffffffffffffffffff168173ffffffffffffffffffffffffffffffffffffffff16146123b3576040517f08c379a000000000000000000000000000000000000000000000000000000000815260040180806020018281038252600e8152602001807f6e6f7420617574686f72697a656400000000000000000000000000000000000081525060200191505060405180910390fd5b60008060005b60038160ff16101561250e5760038160ff16600381106123d557fe5b0160009054906101000a900473ffffffffffffffffffffffffffffffffffffffff1673ffffffffffffffffffffffffffffffffffffffff1663313ce5676040518163ffffffff1660e01b815260040160206040518083038186803b15801561243c57600080fd5b505afa158015612450573d6000803e3d6000fd5b505050506040513d602081101561246657600080fd5b810190808051906020019092919050505060ff16915081600a0a858260ff166003811061248f57fe5b60200201358161249b57fe5b0483019250848160ff16600381106124af57fe5b6020020135600c8260ff16600381106124c457fe5b01600082825403925050819055506124f2858260ff16600381106124e457fe5b602002013583600a0a613b39565b600f6000828254039250508190555080806001019150506123b9565b506064600283028161251c57fe5b0482019150600260009054906101000a900473ffffffffffffffffffffffffffffffffffffffff1673ffffffffffffffffffffffffffffffffffffffff1663313ce5676040518163ffffffff1660e01b815260040160206040518083038186803b15801561258957600080fd5b505afa15801561259d573d6000803e3d6000fd5b505050506040513d60208110156125b357600080fd5b810190808051906020019092919050505060ff16905080600a0a82029150600660009054906101000a900473ffffffffffffffffffffffffffffffffffffffff1673ffffffffffffffffffffffffffffffffffffffff16639fdaea0c85846040518363ffffffff1660e01b81526004018083600360200280828437600081840152601f19601f82011690508083019250505082815260200192505050600060405180830381600087803b15801561266957600080fd5b505af115801561267d573d6000803e3d6000fd5b5050505060005b60038160ff161015612889576000858260ff16600381106126a157fe5b60200201351461287c5760038160ff16600381106126bb57fe5b0160009054906101000a900473ffffffffffffffffffffffffffffffffffffffff1673ffffffffffffffffffffffffffffffffffffffff1663a9059cbb60008054906101000a900473ffffffffffffffffffffffffffffffffffffffff1660038460ff166003811061272957fe5b0160009054906101000a900473ffffffffffffffffffffffffffffffffffffffff1673ffffffffffffffffffffffffffffffffffffffff166370a08231306040518263ffffffff1660e01b8152600401808273ffffffffffffffffffffffffffffffffffffffff16815260200191505060206040518083038186803b1580156127b157600080fd5b505afa1580156127c5573d6000803e3d6000fd5b505050506040513d60208110156127db57600080fd5b81019080805190602001909291905050506040518363ffffffff1660e01b8152600401808373ffffffffffffffffffffffffffffffffffffffff16815260200182815260200192505050602060405180830381600087803b15801561283f57600080fd5b505af1158015612853573d6000803e3d6000fd5b505050506040513d602081101561286957600080fd5b8101908080519060200190929190505050505b8080600101915050612684565b5050505050565b33600160009054906101000a900473ffffffffffffffffffffffffffffffffffffffff1673ffffffffffffffffffffffffffffffffffffffff1663e0e3671c826040518263ffffffff1660e01b8152600401808273ffffffffffffffffffffffffffffffffffffffff16815260200191505060206040518083038186803b15801561291a57600080fd5b505afa15801561292e573d6000803e3d6000fd5b505050506040513d602081101561294457600080fd5b8101908080519060200190929190505050806129ab575060008054906101000a900473ffffffffffffffffffffffffffffffffffffffff1673ffffffffffffffffffffffffffffffffffffffff168173ffffffffffffffffffffffffffffffffffffffff16145b612a1d576040517f08c379a000000000000000000000000000000000000000000000000000000000815260040180806020018281038252600e8152602001807f6e6f7420617574686f72697a656400000000000000000000000000000000000081525060200191505060405180910390fd5b816012541015612a95576040517f08c379a000000000000000000000000000000000000000000000000000000000815260040180806020018281038252601f8152602001807f596f752068617665206e6f74207374616b6564207468617420616d6f756e740081525060200191505060405180910390fd5b600760009054906101000a900473ffffffffffffffffffffffffffffffffffffffff1673ffffffffffffffffffffffffffffffffffffffff16632e1a7d4d836040518263ffffffff1660e01b815260040180828152602001915050600060405180830381600087803b158015612b0a57600080fd5b505af1158015612b1e573d6000803e3d6000fd5b50505050816012600082825403925050819055505050565b600033600160009054906101000a900473ffffffffffffffffffffffffffffffffffffffff1673ffffffffffffffffffffffffffffffffffffffff1663e0e3671c826040518263ffffffff1660e01b8152600401808273ffffffffffffffffffffffffffffffffffffffff16815260200191505060206040518083038186803b158015612bc257600080fd5b505afa158015612bd6573d6000803e3d6000fd5b505050506040513d6020811015612bec57600080fd5b810190808051906020019092919050505080612c53575060008054906101000a900473ffffffffffffffffffffffffffffffffffffffff1673ffffffffffffffffffffffffffffffffffffffff168173ffffffffffffffffffffffffffffffffffffffff16145b612cc5576040517f08c379a000000000000000000000000000000000000000000000000000000000815260040180806020018281038252600e8152602001807f6e6f7420617574686f72697a656400000000000000000000000000000000000081525060200191505060405180910390fd5b6000600760009054906101000a900473ffffffffffffffffffffffffffffffffffffffff1673ffffffffffffffffffffffffffffffffffffffff166333134583306040518263ffffffff1660e01b8152600401808273ffffffffffffffffffffffffffffffffffffffff168152602001915050602060405180830381600087803b158015612d5257600080fd5b505af1158015612d66573d6000803e3d6000fd5b505050506040513d6020811015612d7c57600080fd5b81019080805190602001909291905050509050809250505090565b33600160009054906101000a900473ffffffffffffffffffffffffffffffffffffffff1673ffffffffffffffffffffffffffffffffffffffff1663e0e3671c826040518263ffffffff1660e01b8152600401808273ffffffffffffffffffffffffffffffffffffffff16815260200191505060206040518083038186803b158015612e2157600080fd5b505afa158015612e35573d6000803e3d6000fd5b505050506040513d6020811015612e4b57600080fd5b810190808051906020019092919050505080612eb2575060008054906101000a900473ffffffffffffffffffffffffffffffffffffffff1673ffffffffffffffffffffffffffffffffffffffff168173ffffffffffffffffffffffffffffffffffffffff16145b612f24576040517f08c379a000000000000000000000000000000000000000000000000000000000815260040180806020018281038252600e8152602001807f6e6f7420617574686f72697a656400000000000000000000000000000000000081525060200191505060405180910390fd5b60005b60038160ff16101561318b576000838260ff1660038110612f4457fe5b6020020135111561317e57600060038260ff1660038110612f6157fe5b0160009054906101000a900473ffffffffffffffffffffffffffffffffffffffff1673ffffffffffffffffffffffffffffffffffffffff1663313ce5676040518163ffffffff1660e01b815260040160206040518083038186803b158015612fc857600080fd5b505afa158015612fdc573d6000803e3d6000fd5b505050506040513d6020811015612ff257600080fd5b810190808051906020019092919050505060ff16905060038260ff166003811061301857fe5b0160009054906101000a900473ffffffffffffffffffffffffffffffffffffffff1673ffffffffffffffffffffffffffffffffffffffff1663095ea7b3600660009054906101000a900473ffffffffffffffffffffffffffffffffffffffff16868560ff166003811061308757fe5b60200201356040518363ffffffff1660e01b8152600401808373ffffffffffffffffffffffffffffffffffffffff16815260200182815260200192505050602060405180830381600087803b1580156130df57600080fd5b505af11580156130f3573d6000803e3d6000fd5b505050506040513d602081101561310957600080fd5b810190808051906020019092919050505050838260ff166003811061312a57fe5b6020020135600c8360ff166003811061313f57fe5b016000828254019250508190555061316d848360ff166003811061315f57fe5b602002013582600a0a613b39565b600f60008282540192505081905550505b8080600101915050612f27565b50613194613828565b6009600082825401925050819055506000600660009054906101000a900473ffffffffffffffffffffffffffffffffffffffff1673ffffffffffffffffffffffffffffffffffffffff16633883e1198460016040518363ffffffff1660e01b81526004018083600360200280828437600081840152601f19601f82011690508083019250505082151581526020019250505060206040518083038186803b15801561323e57600080fd5b505afa158015613252573d6000803e3d6000fd5b505050506040513d602081101561326857600080fd5b810190808051906020019092919050505090506064816063028161328857fe5b049050600660009054906101000a900473ffffffffffffffffffffffffffffffffffffffff1673ffffffffffffffffffffffffffffffffffffffff16634515cef384836040518363ffffffff1660e01b81526004018083600360200280828437600081840152601f19601f82011690508083019250505082815260200192505050600060405180830381600087803b15801561332357600080fd5b505af1158015613337573d6000803e3d6000fd5b50505050600660009054906101000a900473ffffffffffffffffffffffffffffffffffffffff1673ffffffffffffffffffffffffffffffffffffffff1663bb7b8b806040518163ffffffff1660e01b815260040160206040518083038186803b1580156133a357600080fd5b505afa1580156133b7573d6000803e3d6000fd5b505050506040513d60208110156133cd57600080fd5b8101908080519060200190929190505050601081905550505050565b33600160009054906101000a900473ffffffffffffffffffffffffffffffffffffffff1673ffffffffffffffffffffffffffffffffffffffff1663e0e3671c826040518263ffffffff1660e01b8152600401808273ffffffffffffffffffffffffffffffffffffffff16815260200191505060206040518083038186803b15801561347357600080fd5b505afa158015613487573d6000803e3d6000fd5b505050506040513d602081101561349d57600080fd5b810190808051906020019092919050505080613504575060008054906101000a900473ffffffffffffffffffffffffffffffffffffffff1673ffffffffffffffffffffffffffffffffffffffff168173ffffffffffffffffffffffffffffffffffffffff16145b613576576040517f08c379a000000000000000000000000000000000000000000000000000000000815260040180806020018281038252600e8152602001807f6e6f7420617574686f72697a656400000000000000000000000000000000000081525060200191505060405180910390fd5b816000806101000a81548173ffffffffffffffffffffffffffffffffffffffff021916908373ffffffffffffffffffffffffffffffffffffffff1602179055505050565b6135c261403e565b3360008054906101000a900473ffffffffffffffffffffffffffffffffffffffff1673ffffffffffffffffffffffffffffffffffffffff168173ffffffffffffffffffffffffffffffffffffffff1614613684576040517f08c379a000000000000000000000000000000000000000000000000000000000815260040180806020018281038252600e8152602001807f6e6f7420617574686f72697a656400000000000000000000000000000000000081525060200191505060405180910390fd5b61368c613cf2565b600061369784610cde565b9050600060038560ff16600381106136ab57fe5b0160009054906101000a900473ffffffffffffffffffffffffffffffffffffffff1673ffffffffffffffffffffffffffffffffffffffff1663313ce5676040518163ffffffff1660e01b815260040160206040518083038186803b15801561371257600080fd5b505afa158015613726573d6000803e3d6000fd5b505050506040513d602081101561373c57600080fd5b810190808051906020019092919050505060ff16905061375f8282600a0a613b39565b60096000828254019250508190555061377661403e565b6000613790613789600954600b54613db9565b6064613b39565b905061379e60095482613efb565b6009819055506137b2600a54600954613f8d565b600a81905550600060098190555060005b60038160ff16101561381a576137f56137ed83600c8460ff16600381106137e657fe5b0154613db9565b600f54613b39565b838260ff166003811061380457fe5b60200201818152505080806001019150506137c3565b508195505050505050919050565b600033600160009054906101000a900473ffffffffffffffffffffffffffffffffffffffff1673ffffffffffffffffffffffffffffffffffffffff1663e0e3671c826040518263ffffffff1660e01b8152600401808273ffffffffffffffffffffffffffffffffffffffff16815260200191505060206040518083038186803b1580156138b457600080fd5b505afa1580156138c8573d6000803e3d6000fd5b505050506040513d60208110156138de57600080fd5b810190808051906020019092919050505080613945575060008054906101000a900473ffffffffffffffffffffffffffffffffffffffff1673ffffffffffffffffffffffffffffffffffffffff168173ffffffffffffffffffffffffffffffffffffffff16145b6139b7576040517f08c379a000000000000000000000000000000000000000000000000000000000815260040180806020018281038252600e8152602001807f6e6f7420617574686f72697a656400000000000000000000000000000000000081525060200191505060405180910390fd5b6000600660009054906101000a900473ffffffffffffffffffffffffffffffffffffffff1673ffffffffffffffffffffffffffffffffffffffff1663bb7b8b806040518163ffffffff1660e01b815260040160206040518083038186803b158015613a2157600080fd5b505afa158015613a35573d6000803e3d6000fd5b505050506040513d6020811015613a4b57600080fd5b8101908080519060200190929190505050905060006010548203601254600260009054906101000a900473ffffffffffffffffffffffffffffffffffffffff1673ffffffffffffffffffffffffffffffffffffffff166370a08231306040518263ffffffff1660e01b8152600401808273ffffffffffffffffffffffffffffffffffffffff16815260200191505060206040518083038186803b158015613af157600080fd5b505afa158015613b05573d6000803e3d6000fd5b505050506040513d6020811015613b1b57600080fd5b81019080805190602001909291905050500102905080935050505090565b600080821415613bb1576040517f08c379a000000000000000000000000000000000000000000000000000000000815260040180806020018281038252600c8152602001807f4552525f4449565f5a45524f000000000000000000000000000000000000000081525060200191505060405180910390fd5b6000670de0b6b3a7640000840290506000841480613bdf5750670de0b6b3a7640000848281613bdc57fe5b04145b613c51576040517f08c379a00000000000000000000000000000000000000000000000000000000081526004018080602001828103825260108152602001807f4552525f4449565f494e5445524e414c0000000000000000000000000000000081525060200191505060405180910390fd5b600060028481613c5d57fe5b048201905081811015613cd8576040517f08c379a00000000000000000000000000000000000000000000000000000000081526004018080602001828103825260108152602001807f4552525f4449565f494e5445524e414c0000000000000000000000000000000081525060200191505060405180910390fd5b6000848281613ce357fe5b04905080935050505092915050565b600860009054906101000a900473ffffffffffffffffffffffffffffffffffffffff1673ffffffffffffffffffffffffffffffffffffffff16636a627842600760009054906101000a900473ffffffffffffffffffffffffffffffffffffffff166040518263ffffffff1660e01b8152600401808273ffffffffffffffffffffffffffffffffffffffff168152602001915050600060405180830381600087803b158015613d9f57600080fd5b505af1158015613db3573d6000803e3d6000fd5b50505050565b60008082840290506000841480613dd8575082848281613dd557fe5b04145b613e4a576040517f08c379a00000000000000000000000000000000000000000000000000000000081526004018080602001828103825260108152602001807f4552525f4d554c5f4f564552464c4f570000000000000000000000000000000081525060200191505060405180910390fd5b60006002670de0b6b3a764000081613e5e57fe5b048201905081811015613ed9576040517f08c379a00000000000000000000000000000000000000000000000000000000081526004018080602001828103825260108152602001807f4552525f4d554c5f4f564552464c4f570000000000000000000000000000000081525060200191505060405180910390fd5b6000670de0b6b3a76400008281613eec57fe5b04905080935050505092915050565b6000806000613f0a8585614015565b915091508015613f82576040517f08c379a00000000000000000000000000000000000000000000000000000000081526004018080602001828103825260118152602001807f4552525f5355425f554e444552464c4f5700000000000000000000000000000081525060200191505060405180910390fd5b819250505092915050565b60008082840190508381101561400b576040517f08c379a00000000000000000000000000000000000000000000000000000000081526004018080602001828103825260108152602001807f4552525f4144445f4f564552464c4f570000000000000000000000000000000081525060200191505060405180910390fd5b8091505092915050565b60008082841061402d57828403600091509150614037565b8383036001915091505b9250929050565b604051806060016040528060039060208202803683378082019150509050509056fea2646970667358221220bc0f06e548a6c39783de1279681c455dfb34925a123dd91f3fc031f14e01a8dd64736f6c634300060c0033",
  "immutableReferences": {},
  "source": "// SPDX-License-Identifier: UNLICENSED\r\npragma solidity ^0.6.0;\r\n\r\nimport '../../Interfaces/ERC20Interface.sol';\r\nimport '../../Interfaces/MultisigInterface.sol';\r\nimport '../../Interfaces/CurveInterface.sol';\r\nimport '../../Interfaces/UniswapInterface.sol';\r\nimport '../MathLib.sol';\r\n\r\ncontract CurveStrategy is rNum{\r\n\r\n    address royaleAddress;\r\n    \r\n    MultiSignatureInterface multiSig;\r\n    Erc20 PoolToken;\r\n    Erc20[3] Coins;\r\n    curvePool public Pool;\r\n    PoolGauge public gauge;\r\n    Minter public minter;\r\n    \r\n    uint256 totalProfit;\r\n    \r\n    uint256 public foundationProfit;\r\n    \r\n    uint256 profitBreak=75;\r\n    \r\n    uint256[3] public depositBal;\r\n\r\n    uint256 totalDeposited;\r\n\r\n    uint256 virtual_price;\r\n\r\n    bool public TEST = true;\r\n\r\n    uint8 public _perc=75;\r\n\r\n    uint256 public stakedAmt;\r\n\r\n    address public uniAddr  = address(0x7a250d5630B4cF539739dF2C5dAcb4c659F2488D);\r\n    address public crvAddr  = address(0x5dDBDBB1D1e691d2994d4A44470EB07dFCbd57C3);\r\n    address public wethAddr = address(0xC02aaA39b223FE8D0A0e5C4F27eAD9083C756Cc2);\r\n\r\n\r\n     modifier onlyAuthorized(address _caller) {\r\n        require(\r\n             multiSig.checkOwner(_caller) || _caller == royaleAddress, \r\n            \"not authorized\"\r\n        );\r\n        _;\r\n    }\r\n\r\n    modifier onlyRoyaleLP(address _caller) {\r\n        require(\r\n              _caller == royaleAddress, \r\n            \"not authorized\"\r\n        );\r\n        _;\r\n    }\r\n\r\n     constructor(\r\n        Erc20[3] memory coins, \r\n        address _crvpool,\r\n        address _pooltoken,\r\n        address _royaleaddress,\r\n        address _gauge,\r\n        address _minter,\r\n        address _multiSig) public {\r\n    \r\n        Pool = curvePool(_crvpool);\r\n        PoolToken = Erc20(_pooltoken);\r\n        gauge = PoolGauge(_gauge);\r\n        minter=Minter(_minter);\r\n        multiSig= MultiSignatureInterface(_multiSig);\r\n        royaleAddress =_royaleaddress;\r\n        for(uint8 i=0; i<3; i++) {\r\n            Coins[i] = coins[i];\r\n        }\r\n    }\r\n\r\n    function setProfitBreak(uint8 _profitBreak) public onlyAuthorized(msg.sender) {\r\n        profitBreak = _profitBreak;\r\n    }\r\n\r\n    function updateRoyalePool(address _royale) public onlyAuthorized(msg.sender){\r\n       royaleAddress = _royale;\r\n    }\r\n\r\n    function set3CRVPercentage(uint8 _percentage3CRV)external onlyAuthorized(msg.sender){\r\n        _perc=_percentage3CRV;\r\n    }\r\n\r\n    function deposit(uint[3] calldata amounts) external onlyAuthorized(msg.sender) {\r\n        for(uint8 i=0; i<3; i++) {\r\n            if(amounts[i] > 0) {\r\n                uint decimal;\r\n                decimal=Coins[i].decimals();\r\n               Coins[i].approve(address(Pool), amounts[i]); \r\n               depositBal[i] += amounts[i];\r\n               totalDeposited+=bdiv(amounts[i],10**decimal);\r\n            }\r\n        }\r\n        totalProfit +=calculateProfit();\r\n        uint mintAmount = Pool.calc_token_amount(amounts, true);\r\n        mintAmount = (99 * mintAmount) / 100;\r\n        Pool.add_liquidity(amounts, mintAmount);\r\n        virtual_price=Pool.get_virtual_price();   \r\n    }\r\n\r\n    function withdraw(uint[3] calldata amounts) external onlyRoyaleLP(msg.sender) {\r\n       uint256 max_burn = 0;\r\n        uint256 decimal = 0;\r\n        for(uint8 i=0;i<3;i++){\r\n            decimal = Coins[i].decimals();\r\n            max_burn+=amounts[i]/10**decimal;\r\n            depositBal[i] -= amounts[i];\r\n            totalDeposited-=bdiv(amounts[i],10**decimal);\r\n        }\r\n        max_burn = max_burn + (max_burn * 2) / 100;\r\n        decimal = PoolToken.decimals();\r\n        max_burn = max_burn * 10**decimal;\r\n        Pool.remove_liquidity_imbalance(amounts, max_burn);\r\n        for(uint8 i=0;i<3;i++){\r\n            if(amounts[i]!=0){\r\n               Coins[i].transfer(royaleAddress, Coins[i].balanceOf(address(this)));\r\n            }\r\n        }\r\n        \r\n        \r\n    }\r\n\r\n    function withdrawAll() external onlyRoyaleLP(msg.sender){\r\n        uint256[3] memory amounts;\r\n        uint256 poolTokenBalance=0;\r\n        Pool.remove_liquidity(poolTokenBalance,amounts);\r\n         for(uint8 i=0;i<3;i++){\r\n            if(Coins[i].balanceOf(address(this))!=0){\r\n                depositBal[i] =0;\r\n                 Coins[i].transfer(royaleAddress, Coins[i].balanceOf(address(this)));\r\n            }\r\n        }\r\n        totalDeposited=0; \r\n    }\r\n\r\n    function stakeLP() external onlyAuthorized(msg.sender) {\r\n       uint depositAmt = ((PoolToken.balanceOf(address(this)) + stakedAmt) * _perc) / 100;\r\n        if(depositAmt>stakedAmt){\r\n            depositAmt-=stakedAmt;\r\n            if(depositAmt!=0){\r\n                 PoolToken.approve(address(gauge), depositAmt);\r\n                 gauge.deposit(depositAmt);\r\n                 stakedAmt += depositAmt;\r\n            }\r\n        }\r\n    }\r\n\r\n    function unstakeLP(uint _amount) external onlyAuthorized(msg.sender) {\r\n        require(stakedAmt >= _amount,\"You have not staked that amount\");\r\n        gauge.withdraw(_amount);\r\n        stakedAmt -=_amount;\r\n    }\r\n\r\n    function unstakeAll()public onlyAuthorized(msg.sender){\r\n        gauge.withdraw(stakedAmt);\r\n        stakedAmt=0;\r\n    }\r\n\r\n    function checkClaimableToken()public onlyAuthorized(msg.sender) returns(uint256){\r\n        uint256 a=gauge.claimable_tokens(address(this));\r\n        return a;\r\n    }\r\n\r\n    function _claimCRV() internal  {\r\n        minter.mint(address(gauge));\r\n    }\r\n\r\n    function sellCRV(uint8 _index) public onlyAuthorized(msg.sender) returns(uint256) {  //here index=0 means convert crv into DAI , index=1 means crv into USDC , index=2 means crv into USDT\r\n        uint256 crvAmt = Erc20(crvAddr).balanceOf(address(this));\r\n        uint256 prevCoin = Coins[_index].balanceOf(address(this));\r\n        require(crvAmt > 0, \"insufficient CRV\");\r\n        Erc20(crvAddr).approve(uniAddr, crvAmt);\r\n\r\n        address[] memory path; \r\n\r\n        if(TEST) {\r\n            path = new address[](2);\r\n\r\n            path[0] = crvAddr;\r\n            path[1] = address(Coins[_index]);\r\n\r\n        } else {\r\n            path = new address[](3);\r\n            path[0] = crvAddr;\r\n            path[1] = wethAddr;\r\n            path[2] = address(Coins[_index]);\r\n        }\r\n\r\n\r\n        UniswapI(uniAddr).swapExactTokensForTokens(\r\n            crvAmt, \r\n            uint256(0), \r\n            path, \r\n            address(this), \r\n            now + 1800\r\n        );\r\n        uint256 postCoin=Coins[_index].balanceOf(address(this));\r\n        Coins[_index].transfer(royaleAddress, (postCoin-prevCoin));\r\n        return (postCoin-prevCoin);\r\n    }\r\n\r\n    function getTotalProfit(uint8 _index) external onlyRoyaleLP(msg.sender) returns(uint256[3] memory) {\r\n        _claimCRV();\r\n        uint256 crvProfit;\r\n        crvProfit = sellCRV(_index);\r\n        uint decimal;\r\n        decimal=Coins[_index].decimals();\r\n        totalProfit+=bdiv(crvProfit,10**(decimal));\r\n        uint256[3] memory tokenProfit;\r\n        uint256 royaleLPProfit;\r\n        royaleLPProfit = bdiv(bmul(totalProfit,profitBreak),100);\r\n        totalProfit = bsub(totalProfit,royaleLPProfit);\r\n        foundationProfit =badd(foundationProfit,totalProfit);\r\n        totalProfit=0;\r\n        for(uint8 i=0;i<3;i++){\r\n            tokenProfit[i]=bdiv(bmul(royaleLPProfit,depositBal[i]),totalDeposited);\r\n            \r\n        }\r\n        return tokenProfit;\r\n    }\r\n\r\n\r\n    function calculateProfit() public view onlyAuthorized(msg.sender) returns(uint256) {\r\n         uint current_virtual_price=Pool.get_virtual_price();\r\n         uint profit=(PoolToken.balanceOf(address(this))+stakedAmt)*(current_virtual_price-virtual_price);\r\n         return profit;\r\n    }\r\n\r\n    function transferCRV(address _address)external onlyAuthorized(msg.sender){\r\n         Erc20(crvAddr).transfer(_address ,Erc20(crvAddr).balanceOf(address(this)));\r\n    }\r\n}",
  "sourcePath": "C:/Users/MayankVats/Desktop/WORK/blockchain/Royale/rlp/contracts/rStrategies/rCurveStrategy.sol",
  "compiler": {
    "name": "solc",
    "version": "0.6.12+commit.27d51765.Emscripten.clang"
  },
  "schemaVersion": "3.3.2",
  "updatedAt": "2021-01-08T12:34:37.805Z",
  "devdoc": {
    "kind": "dev",
    "methods": {},
    "version": 1
  },
  "userdoc": {
    "kind": "user",
    "methods": {},
    "version": 1
  }
}