{
  "contractName": "MRoyaFarm",
  "abi": [
    {
      "inputs": [
        {
          "internalType": "contract RPToken",
          "name": "_rpToken",
          "type": "address"
        },
        {
          "internalType": "contract MRoya",
          "name": "_mRoya",
          "type": "address"
        }
      ],
      "stateMutability": "nonpayable",
      "type": "constructor"
    },
    {
      "inputs": [],
      "name": "mRoya",
      "outputs": [
        {
          "internalType": "contract MRoya",
          "name": "",
          "type": "address"
        }
      ],
      "stateMutability": "view",
      "type": "function"
    },
    {
      "inputs": [],
      "name": "owner",
      "outputs": [
        {
          "internalType": "address",
          "name": "",
          "type": "address"
        }
      ],
      "stateMutability": "view",
      "type": "function"
    },
    {
      "inputs": [],
      "name": "rpToken",
      "outputs": [
        {
          "internalType": "contract RPToken",
          "name": "",
          "type": "address"
        }
      ],
      "stateMutability": "view",
      "type": "function"
    },
    {
      "inputs": [
        {
          "internalType": "address",
          "name": "",
          "type": "address"
        }
      ],
      "name": "staker",
      "outputs": [
        {
          "internalType": "uint256",
          "name": "stakedRPT",
          "type": "uint256"
        },
        {
          "internalType": "uint256",
          "name": "startTimestamp",
          "type": "uint256"
        },
        {
          "internalType": "uint256",
          "name": "blockNumber",
          "type": "uint256"
        }
      ],
      "stateMutability": "view",
      "type": "function"
    },
    {
      "inputs": [
        {
          "internalType": "uint256",
          "name": "",
          "type": "uint256"
        }
      ],
      "name": "stakers",
      "outputs": [
        {
          "internalType": "address",
          "name": "",
          "type": "address"
        }
      ],
      "stateMutability": "view",
      "type": "function"
    },
    {
      "inputs": [
        {
          "internalType": "address",
          "name": "recipient",
          "type": "address"
        }
      ],
      "name": "calculateMRoya",
      "outputs": [
        {
          "internalType": "uint256",
          "name": "",
          "type": "uint256"
        }
      ],
      "stateMutability": "view",
      "type": "function"
    },
    {
      "inputs": [
        {
          "internalType": "uint256",
          "name": "_amount",
          "type": "uint256"
        }
      ],
      "name": "stakeTokens",
      "outputs": [],
      "stateMutability": "nonpayable",
      "type": "function"
    },
    {
      "inputs": [],
      "name": "issueTokens",
      "outputs": [],
      "stateMutability": "nonpayable",
      "type": "function"
    },
    {
      "inputs": [],
      "name": "claimRewards",
      "outputs": [
        {
          "internalType": "bool",
          "name": "",
          "type": "bool"
        }
      ],
      "stateMutability": "nonpayable",
      "type": "function"
    },
    {
      "inputs": [
        {
          "internalType": "uint256",
          "name": "amount",
          "type": "uint256"
        }
      ],
      "name": "unstakeTokens",
      "outputs": [],
      "stateMutability": "nonpayable",
      "type": "function"
    },
    {
      "inputs": [
        {
          "internalType": "uint256",
          "name": "_mRoyaPerBlock",
          "type": "uint256"
        }
      ],
      "name": "updateMRoyaPerBlock",
      "outputs": [],
      "stateMutability": "nonpayable",
      "type": "function"
    },
    {
      "inputs": [
        {
          "internalType": "contract MRoya",
          "name": "_mRoya",
          "type": "address"
        }
      ],
      "name": "updateMRoyaAddress",
      "outputs": [
        {
          "internalType": "bool",
          "name": "",
          "type": "bool"
        }
      ],
      "stateMutability": "nonpayable",
      "type": "function"
    },
    {
      "inputs": [
        {
          "internalType": "contract RPToken",
          "name": "_rpToken",
          "type": "address"
        }
      ],
      "name": "updateRPTAddress",
      "outputs": [
        {
          "internalType": "bool",
          "name": "",
          "type": "bool"
        }
      ],
      "stateMutability": "nonpayable",
      "type": "function"
    }
  ],
  "bytecode": "0x6080604052670de0b6b3a764000060065534801561001c57600080fd5b506040516118ae3803806118ae8339818101604052604081101561003f57600080fd5b81019080805190602001909291908051906020019092919050505081600260006101000a81548173ffffffffffffffffffffffffffffffffffffffff021916908373ffffffffffffffffffffffffffffffffffffffff16021790555080600160006101000a81548173ffffffffffffffffffffffffffffffffffffffff021916908373ffffffffffffffffffffffffffffffffffffffff160217905550336000806101000a81548173ffffffffffffffffffffffffffffffffffffffff021916908373ffffffffffffffffffffffffffffffffffffffff16021790555050506117818061012d6000396000f3fe608060405234801561001057600080fd5b50600436106100cf5760003560e01c806377942ef61161008c578063b76dfe6e11610066578063b76dfe6e146102b6578063d65ed9b0146102e4578063f508f2471461033c578063fd5e6dd114610396576100cf565b806377942ef6146101e857806382e4eda41461021c5780638da5cb5b14610282576100cf565b8063372500ab146100d457806342f1bd5d146100f4578063608e4dd01461012857806360ab58521461015657806373afdc08146101605780637547c7a3146101ba575b600080fd5b6100dc6103ee565b60405180821515815260200191505060405180910390f35b6100fc610610565b604051808273ffffffffffffffffffffffffffffffffffffffff16815260200191505060405180910390f35b6101546004803603602081101561013e57600080fd5b8101908080359060200190929190505050610636565b005b61015e610ae2565b005b6101a26004803603602081101561017657600080fd5b81019080803573ffffffffffffffffffffffffffffffffffffffff169060200190929190505050610d34565b60405180821515815260200191505060405180910390f35b6101e6600480360360208110156101d057600080fd5b8101908080359060200190929190505050610e25565b005b6101f06111ce565b604051808273ffffffffffffffffffffffffffffffffffffffff16815260200191505060405180910390f35b61025e6004803603602081101561023257600080fd5b81019080803573ffffffffffffffffffffffffffffffffffffffff1690602001909291905050506111f4565b60405180848152602001838152602001828152602001935050505060405180910390f35b61028a61121e565b604051808273ffffffffffffffffffffffffffffffffffffffff16815260200191505060405180910390f35b6102e2600480360360208110156102cc57600080fd5b8101908080359060200190929190505050611242565b005b610326600480360360208110156102fa57600080fd5b81019080803573ffffffffffffffffffffffffffffffffffffffff1690602001909291905050506112fa565b6040518082815260200191505060405180910390f35b61037e6004803603602081101561035257600080fd5b81019080803573ffffffffffffffffffffffffffffffffffffffff1690602001909291905050506114f3565b60405180821515815260200191505060405180910390f35b6103c2600480360360208110156103ac57600080fd5b81019080803590602001909291905050506115e4565b604051808273ffffffffffffffffffffffffffffffffffffffff16815260200191505060405180910390f35b600080600760003373ffffffffffffffffffffffffffffffffffffffff1673ffffffffffffffffffffffffffffffffffffffff168152602001908152602001600020600001549050600081116104ac576040517f08c379a000000000000000000000000000000000000000000000000000000000815260040180806020018281038252601b8152602001807f5374616b696e672062616c616e63652063616e6e6f742062652030000000000081525060200191505060405180910390fd5b60006104b7336112fa565b9050600081111561060657600160009054906101000a900473ffffffffffffffffffffffffffffffffffffffff1673ffffffffffffffffffffffffffffffffffffffff166340c10f1933836040518363ffffffff1660e01b8152600401808373ffffffffffffffffffffffffffffffffffffffff16815260200182815260200192505050600060405180830381600087803b15801561055557600080fd5b505af1158015610569573d6000803e3d6000fd5b5050505042600760003373ffffffffffffffffffffffffffffffffffffffff1673ffffffffffffffffffffffffffffffffffffffff1681526020019081526020016000206001018190555043600760003373ffffffffffffffffffffffffffffffffffffffff1673ffffffffffffffffffffffffffffffffffffffff1681526020019081526020016000206002018190555060019250505061060d565b6000925050505b90565b600260009054906101000a900473ffffffffffffffffffffffffffffffffffffffff1681565b6000600760003373ffffffffffffffffffffffffffffffffffffffff1673ffffffffffffffffffffffffffffffffffffffff1681526020019081526020016000206000015490508181116106f2576040517f08c379a000000000000000000000000000000000000000000000000000000000815260040180806020018281038252601e8152602001807f7374616b696e672062616c616e63652063616e6e6f74206265206c657373000081525060200191505060405180910390fd5b600260009054906101000a900473ffffffffffffffffffffffffffffffffffffffff1673ffffffffffffffffffffffffffffffffffffffff1663a9059cbb33846040518363ffffffff1660e01b8152600401808373ffffffffffffffffffffffffffffffffffffffff16815260200182815260200192505050602060405180830381600087803b15801561078557600080fd5b505af1158015610799573d6000803e3d6000fd5b505050506040513d60208110156107af57600080fd5b81019080805190602001909291905050505060006107cc336112fa565b905082600760003373ffffffffffffffffffffffffffffffffffffffff1673ffffffffffffffffffffffffffffffffffffffff16815260200190815260200160002060000160008282540392505081905550600081111561096157600160009054906101000a900473ffffffffffffffffffffffffffffffffffffffff1673ffffffffffffffffffffffffffffffffffffffff166340c10f1933836040518363ffffffff1660e01b8152600401808373ffffffffffffffffffffffffffffffffffffffff16815260200182815260200192505050600060405180830381600087803b1580156108ba57600080fd5b505af11580156108ce573d6000803e3d6000fd5b5050505042600760003373ffffffffffffffffffffffffffffffffffffffff1673ffffffffffffffffffffffffffffffffffffffff1681526020019081526020016000206001018190555043600760003373ffffffffffffffffffffffffffffffffffffffff1673ffffffffffffffffffffffffffffffffffffffff168152602001908152602001600020600201819055505b6000600760003373ffffffffffffffffffffffffffffffffffffffff1673ffffffffffffffffffffffffffffffffffffffff168152602001908152602001600020600001541415610add576000600760003373ffffffffffffffffffffffffffffffffffffffff1673ffffffffffffffffffffffffffffffffffffffff168152602001908152602001600020600001819055506000600760003373ffffffffffffffffffffffffffffffffffffffff1673ffffffffffffffffffffffffffffffffffffffff168152602001908152602001600020600101819055506000600760003373ffffffffffffffffffffffffffffffffffffffff1673ffffffffffffffffffffffffffffffffffffffff168152602001908152602001600020600201819055506000600560003373ffffffffffffffffffffffffffffffffffffffff1673ffffffffffffffffffffffffffffffffffffffff16815260200190815260200160002060006101000a81548160ff0219169083151502179055505b505050565b60008054906101000a900473ffffffffffffffffffffffffffffffffffffffff1673ffffffffffffffffffffffffffffffffffffffff163373ffffffffffffffffffffffffffffffffffffffff1614610b86576040517f08c379a000000000000000000000000000000000000000000000000000000000815260040180806020018281038252602181526020018061172b6021913960400191505060405180910390fd5b60005b600380549050811015610d3157600060038281548110610ba557fe5b9060005260206000200160009054906101000a900473ffffffffffffffffffffffffffffffffffffffff1690506000610bdd826112fa565b90506000811115610d2257600160009054906101000a900473ffffffffffffffffffffffffffffffffffffffff1673ffffffffffffffffffffffffffffffffffffffff166340c10f1983836040518363ffffffff1660e01b8152600401808373ffffffffffffffffffffffffffffffffffffffff16815260200182815260200192505050600060405180830381600087803b158015610c7b57600080fd5b505af1158015610c8f573d6000803e3d6000fd5b5050505042600760008473ffffffffffffffffffffffffffffffffffffffff1673ffffffffffffffffffffffffffffffffffffffff1681526020019081526020016000206001018190555043600760008473ffffffffffffffffffffffffffffffffffffffff1673ffffffffffffffffffffffffffffffffffffffff168152602001908152602001600020600201819055505b50508080600101915050610b89565b50565b60008060009054906101000a900473ffffffffffffffffffffffffffffffffffffffff1673ffffffffffffffffffffffffffffffffffffffff163373ffffffffffffffffffffffffffffffffffffffff1614610ddb576040517f08c379a000000000000000000000000000000000000000000000000000000000815260040180806020018281038252602181526020018061172b6021913960400191505060405180910390fd5b81600160006101000a81548173ffffffffffffffffffffffffffffffffffffffff021916908373ffffffffffffffffffffffffffffffffffffffff16021790555060019050919050565b60008111610e9b576040517f08c379a00000000000000000000000000000000000000000000000000000000081526004018080602001828103825260138152602001807f616d6f756e742063616e206e6f7420626520300000000000000000000000000081525060200191505060405180910390fd5b600260009054906101000a900473ffffffffffffffffffffffffffffffffffffffff1673ffffffffffffffffffffffffffffffffffffffff166323b872dd3330846040518463ffffffff1660e01b8152600401808473ffffffffffffffffffffffffffffffffffffffff1681526020018373ffffffffffffffffffffffffffffffffffffffff1681526020018281526020019350505050602060405180830381600087803b158015610f4c57600080fd5b505af1158015610f60573d6000803e3d6000fd5b505050506040513d6020811015610f7657600080fd5b81019080805190602001909291905050505080600760003373ffffffffffffffffffffffffffffffffffffffff1673ffffffffffffffffffffffffffffffffffffffff1681526020019081526020016000206000016000828254019250508190555042600760003373ffffffffffffffffffffffffffffffffffffffff1673ffffffffffffffffffffffffffffffffffffffff1681526020019081526020016000206001018190555043600760003373ffffffffffffffffffffffffffffffffffffffff1673ffffffffffffffffffffffffffffffffffffffff16815260200190815260200160002060020181905550600460003373ffffffffffffffffffffffffffffffffffffffff1673ffffffffffffffffffffffffffffffffffffffff16815260200190815260200160002060009054906101000a900460ff1661111b576003339080600181540180825580915050600190039060005260206000200160009091909190916101000a81548173ffffffffffffffffffffffffffffffffffffffff021916908373ffffffffffffffffffffffffffffffffffffffff1602179055505b6001600460003373ffffffffffffffffffffffffffffffffffffffff1673ffffffffffffffffffffffffffffffffffffffff16815260200190815260200160002060006101000a81548160ff0219169083151502179055506001600560003373ffffffffffffffffffffffffffffffffffffffff1673ffffffffffffffffffffffffffffffffffffffff16815260200190815260200160002060006101000a81548160ff02191690831515021790555050565b600160009054906101000a900473ffffffffffffffffffffffffffffffffffffffff1681565b60076020528060005260406000206000915090508060000154908060010154908060020154905083565b60008054906101000a900473ffffffffffffffffffffffffffffffffffffffff1681565b60008054906101000a900473ffffffffffffffffffffffffffffffffffffffff1673ffffffffffffffffffffffffffffffffffffffff163373ffffffffffffffffffffffffffffffffffffffff16146112e6576040517f08c379a000000000000000000000000000000000000000000000000000000000815260040180806020018281038252602181526020018061172b6021913960400191505060405180910390fd5b670de0b6b3a7640000810260068190555050565b600080600760008473ffffffffffffffffffffffffffffffffffffffff1673ffffffffffffffffffffffffffffffffffffffff1681526020019081526020016000206000015490506000611399600760008673ffffffffffffffffffffffffffffffffffffffff1673ffffffffffffffffffffffffffffffffffffffff168152602001908152602001600020600201544361162090919063ffffffff16565b90506000600260009054906101000a900473ffffffffffffffffffffffffffffffffffffffff1673ffffffffffffffffffffffffffffffffffffffff166318160ddd6040518163ffffffff1660e01b815260040160206040518083038186803b15801561140557600080fd5b505afa158015611419573d6000803e3d6000fd5b505050506040513d602081101561142f57600080fd5b81019080805190602001909291905050509050600081116114b8576040517f08c379a00000000000000000000000000000000000000000000000000000000081526004018080602001828103825260108152602001807f4e6f2052505420617661696c61626c650000000000000000000000000000000081525060200191505060405180910390fd5b600081670de0b6b3a764000085850202816114cf57fe5b049050670de0b6b3a76400006006548202816114e757fe5b04945050505050919050565b60008060009054906101000a900473ffffffffffffffffffffffffffffffffffffffff1673ffffffffffffffffffffffffffffffffffffffff163373ffffffffffffffffffffffffffffffffffffffff161461159a576040517f08c379a000000000000000000000000000000000000000000000000000000000815260040180806020018281038252602181526020018061172b6021913960400191505060405180910390fd5b81600260006101000a81548173ffffffffffffffffffffffffffffffffffffffff021916908373ffffffffffffffffffffffffffffffffffffffff16021790555060019050919050565b600381815481106115f157fe5b906000526020600020016000915054906101000a900473ffffffffffffffffffffffffffffffffffffffff1681565b600061166283836040518060400160405280601e81526020017f536166654d6174683a207375627472616374696f6e206f766572666c6f77000081525061166a565b905092915050565b6000838311158290611717576040517f08c379a00000000000000000000000000000000000000000000000000000000081526004018080602001828103825283818151815260200191508051906020019080838360005b838110156116dc5780820151818401526020810190506116c1565b50505050905090810190601f1680156117095780820380516001836020036101000a031916815260200191505b509250505060405180910390fd5b506000838503905080915050939250505056fe6f6e6c79206f776e65722063616e2063616c6c20746869732066756e6374696f6ea2646970667358221220849f93ba9e1d6786099071326c2cbf448b91194726b82c9c14c7c0d1e0e8fe9a64736f6c634300060c0033",
  "immutableReferences": {},
  "source": "// SPDX-License-Identifier: UNLICENSED\r\npragma solidity ^0.6.0;\r\n\r\nimport '@openzeppelin/contracts/math/SafeMath.sol';\r\n\r\ninterface MRoya {\r\n\r\n    function totalSupply() external view  returns (uint256);\r\n    \r\n    function balanceOf(address tokenOwner) external view returns (uint);\r\n\r\n    function transfer(address receiver, uint numTokens) external returns (bool);\r\n\r\n    function approve(address delegate, uint numTokens) external returns (bool);\r\n\r\n    function allowance(address owner, address delegate) external view returns (uint);\r\n    \r\n    function transferFrom(address owner, address buyer, uint numTokens) external returns (bool);\r\n    \r\n    function mint(address account, uint256 amount) external;\r\n    \r\n    function _burn(address account, uint256 amount) external;\r\n    \r\n    function burn(uint256 amount) external;\r\n}\r\n\r\ninterface RPToken {\r\n\r\n    function totalSupply() external view returns (uint256);\r\n    \r\n    function balanceOf(address tokenOwner) external view returns (uint);\r\n\r\n    function transfer(address receiver, uint numTokens) external returns (bool);\r\n\r\n    function approve(address delegate, uint numTokens) external returns (bool);\r\n\r\n    function allowance(address owner, address delegate) external view returns (uint);\r\n    \r\n    function transferFrom(address owner, address buyer, uint numTokens) external returns (bool);\r\n}\r\n\r\n\r\ncontract MRoyaFarm {\r\n    address public owner;\r\n\r\n    MRoya public mRoya;\r\n    RPToken public rpToken;\r\n\r\n    address[] public stakers;\r\n    mapping(address => bool) hasStaked;\r\n    mapping(address => bool) isStaking;\r\n    uint256 mRoyaPerBlock = 1*10**18;\r\n    \r\n    struct stakerData {\r\n        uint256 stakedRPT;\r\n        uint256 startTimestamp;\r\n        uint256 blockNumber;\r\n    }\r\n    \r\n    mapping(address => stakerData) public staker;\r\n\r\n    using SafeMath for uint256;\r\n\r\n    constructor(RPToken _rpToken, MRoya _mRoya) public {\r\n        rpToken = _rpToken;\r\n        mRoya = _mRoya;\r\n        owner = msg.sender;\r\n    }\r\n    \r\n    modifier onlyOwner() {\r\n        require(msg.sender == owner, \"only owner can call this function\");\r\n        _;\r\n    }\r\n    \r\n    // function to get the mRoya of the staker\r\n    function calculateMRoya(address recipient) public view returns (uint){\r\n        uint256 stakedRPTAmount = staker[recipient].stakedRPT;\r\n        uint256 duration = block.number.sub(staker[recipient].blockNumber);\r\n        uint256 totalRPT = rpToken.totalSupply();\r\n        \r\n        require(totalRPT > 0, 'No RPT available');\r\n    \r\n        uint256 mRoyaAmount = duration * stakedRPTAmount * 10**18 / totalRPT;\r\n        return (mRoyaAmount * mRoyaPerBlock) / 10 ** 18;\r\n    }\r\n    \r\n    // function to stake tokens\r\n    function stakeTokens(uint _amount) public {\r\n        require(_amount > 0, \"amount can not be 0\");\r\n\r\n        rpToken.transferFrom(msg.sender, address(this), _amount);\r\n\r\n        staker[msg.sender].stakedRPT += _amount;\r\n        staker[msg.sender].startTimestamp = now;\r\n        staker[msg.sender].blockNumber = block.number;\r\n\r\n        if(!hasStaked[msg.sender]) {\r\n            stakers.push(msg.sender);\r\n        }\r\n\r\n        hasStaked[msg.sender] = true;\r\n        isStaking[msg.sender] = true;\r\n    }\r\n\r\n    // function to distribute mRoya\r\n    function issueTokens() public onlyOwner {\r\n        for(uint i=0; i<stakers.length; i++) {\r\n            address recipient = stakers[i];\r\n            uint256 balance = calculateMRoya(recipient);\r\n            \r\n\r\n            if(balance > 0) {\r\n                mRoya.mint(recipient, balance);\r\n                staker[recipient].startTimestamp = now;\r\n                staker[recipient].blockNumber = block.number;\r\n            }\r\n        }\r\n    }\r\n\r\n    // function to clain rewards\r\n    function claimRewards() public returns (bool) {\r\n        uint256 balance = staker[msg.sender].stakedRPT;\r\n        \r\n        require(balance > 0, 'Staking balance cannot be 0');\r\n\r\n        uint256 rewards = calculateMRoya(msg.sender);\r\n            \r\n\r\n        if(rewards > 0) {\r\n\r\n                mRoya.mint(msg.sender, rewards);\r\n\r\n                //staker[msg.sender].stakedRPT = balance;\r\n                staker[msg.sender].startTimestamp = now;\r\n                staker[msg.sender].blockNumber = block.number;\r\n                return true;\r\n            }\r\n        \r\n        return false;\r\n\r\n    }\r\n\r\n    // function to unstake tokens\r\n    function unstakeTokens(uint amount) public {\r\n        uint256 balance = staker[msg.sender].stakedRPT;\r\n        require(balance > amount, 'staking balance cannot be less');\r\n\r\n        rpToken.transfer(msg.sender, amount);\r\n        \r\n        uint256 rewards = calculateMRoya(msg.sender);\r\n\r\n        staker[msg.sender].stakedRPT -= amount;    \r\n        \r\n        if(rewards > 0) {\r\n            mRoya.mint(msg.sender, rewards);\r\n\r\n            staker[msg.sender].startTimestamp = now;\r\n            staker[msg.sender].blockNumber = block.number;\r\n        }\r\n\r\n        if(staker[msg.sender].stakedRPT == 0) {\r\n            staker[msg.sender].stakedRPT = 0;\r\n            staker[msg.sender].startTimestamp = 0;\r\n            staker[msg.sender].blockNumber = 0;\r\n            isStaking[msg.sender] = false;\r\n        }\r\n    }\r\n\r\n    /* Admin Functions */\r\n\r\n    function updateMRoyaPerBlock(uint256 _mRoyaPerBlock) public onlyOwner {\r\n        mRoyaPerBlock = _mRoyaPerBlock*10**18;\r\n    }\r\n\r\n    function updateMRoyaAddress(MRoya _mRoya) public onlyOwner returns (bool){\r\n        mRoya = _mRoya;\r\n        return true;\r\n    }\r\n      \r\n    function updateRPTAddress(RPToken _rpToken) public onlyOwner returns (bool){\r\n        rpToken = _rpToken;\r\n        return true;\r\n    }\r\n\r\n}",
  "sourcePath": "C:/Users/MayankVats/Desktop/WORK/blockchain/Royale/rlp/contracts/mRoyaFarm.sol",
  "compiler": {
    "name": "solc",
    "version": "0.6.12+commit.27d51765.Emscripten.clang"
  },
  "schemaVersion": "3.3.2",
  "updatedAt": "2020-12-31T07:08:53.372Z",
  "devdoc": {
    "kind": "dev",
    "methods": {},
    "version": 1
  },
  "userdoc": {
    "kind": "user",
    "methods": {},
    "version": 1
  }
}