{
  "contractName": "MRoyaFarm",
  "abi": [
    {
      "inputs": [
        {
          "internalType": "contract RPToken",
          "name": "_rpToken",
          "type": "address"
        },
        {
          "internalType": "contract MRoya",
          "name": "_mRoya",
          "type": "address"
        }
      ],
      "stateMutability": "nonpayable",
      "type": "constructor"
    },
    {
      "inputs": [],
      "name": "mRoya",
      "outputs": [
        {
          "internalType": "contract MRoya",
          "name": "",
          "type": "address"
        }
      ],
      "stateMutability": "view",
      "type": "function"
    },
    {
      "inputs": [],
      "name": "owner",
      "outputs": [
        {
          "internalType": "address",
          "name": "",
          "type": "address"
        }
      ],
      "stateMutability": "view",
      "type": "function"
    },
    {
      "inputs": [],
      "name": "rpToken",
      "outputs": [
        {
          "internalType": "contract RPToken",
          "name": "",
          "type": "address"
        }
      ],
      "stateMutability": "view",
      "type": "function"
    },
    {
      "inputs": [
        {
          "internalType": "address",
          "name": "",
          "type": "address"
        }
      ],
      "name": "staker",
      "outputs": [
        {
          "internalType": "uint256",
          "name": "stakedRPT",
          "type": "uint256"
        },
        {
          "internalType": "uint256",
          "name": "startTimestamp",
          "type": "uint256"
        },
        {
          "internalType": "uint256",
          "name": "blockNumber",
          "type": "uint256"
        }
      ],
      "stateMutability": "view",
      "type": "function"
    },
    {
      "inputs": [
        {
          "internalType": "uint256",
          "name": "",
          "type": "uint256"
        }
      ],
      "name": "stakers",
      "outputs": [
        {
          "internalType": "address",
          "name": "",
          "type": "address"
        }
      ],
      "stateMutability": "view",
      "type": "function"
    },
    {
      "inputs": [
        {
          "internalType": "address",
          "name": "recipient",
          "type": "address"
        }
      ],
      "name": "calculateMRoya",
      "outputs": [
        {
          "internalType": "uint256",
          "name": "",
          "type": "uint256"
        }
      ],
      "stateMutability": "view",
      "type": "function"
    },
    {
      "inputs": [
        {
          "internalType": "uint256",
          "name": "_amount",
          "type": "uint256"
        }
      ],
      "name": "stakeTokens",
      "outputs": [],
      "stateMutability": "nonpayable",
      "type": "function"
    },
    {
      "inputs": [],
      "name": "issueTokens",
      "outputs": [],
      "stateMutability": "nonpayable",
      "type": "function"
    },
    {
      "inputs": [],
      "name": "claimRewards",
      "outputs": [
        {
          "internalType": "bool",
          "name": "",
          "type": "bool"
        }
      ],
      "stateMutability": "nonpayable",
      "type": "function"
    },
    {
      "inputs": [],
      "name": "unstakeTokens",
      "outputs": [],
      "stateMutability": "nonpayable",
      "type": "function"
    },
    {
      "inputs": [
        {
          "internalType": "uint256",
          "name": "_mRoyaPerBlock",
          "type": "uint256"
        }
      ],
      "name": "updateMRoyaPerBlock",
      "outputs": [],
      "stateMutability": "nonpayable",
      "type": "function"
    },
    {
      "inputs": [
        {
          "internalType": "contract MRoya",
          "name": "_mRoya",
          "type": "address"
        }
      ],
      "name": "updateMRoyaAddress",
      "outputs": [
        {
          "internalType": "bool",
          "name": "",
          "type": "bool"
        }
      ],
      "stateMutability": "nonpayable",
      "type": "function"
    },
    {
      "inputs": [
        {
          "internalType": "contract RPToken",
          "name": "_rpToken",
          "type": "address"
        }
      ],
      "name": "updateRPTAddress",
      "outputs": [
        {
          "internalType": "bool",
          "name": "",
          "type": "bool"
        }
      ],
      "stateMutability": "nonpayable",
      "type": "function"
    }
  ],
  "bytecode": "0x6080604052670de0b6b3a764000060065534801561001c57600080fd5b506040516117603803806117608339818101604052604081101561003f57600080fd5b81019080805190602001909291908051906020019092919050505081600260006101000a81548173ffffffffffffffffffffffffffffffffffffffff021916908373ffffffffffffffffffffffffffffffffffffffff16021790555080600160006101000a81548173ffffffffffffffffffffffffffffffffffffffff021916908373ffffffffffffffffffffffffffffffffffffffff160217905550336000806101000a81548173ffffffffffffffffffffffffffffffffffffffff021916908373ffffffffffffffffffffffffffffffffffffffff16021790555050506116338061012d6000396000f3fe608060405234801561001057600080fd5b50600436106100cf5760003560e01c806382e4eda41161008c578063b76dfe6e11610066578063b76dfe6e14610292578063d65ed9b0146102c0578063f508f24714610318578063fd5e6dd114610372576100cf565b806382e4eda4146101ee5780638da5cb5b14610254578063a5ce413b14610288576100cf565b8063372500ab146100d457806342f1bd5d146100f457806360ab58521461012857806373afdc08146101325780637547c7a31461018c57806377942ef6146101ba575b600080fd5b6100dc6103ca565b60405180821515815260200191505060405180910390f35b6100fc6105ec565b604051808273ffffffffffffffffffffffffffffffffffffffff16815260200191505060405180910390f35b610130610612565b005b6101746004803603602081101561014857600080fd5b81019080803573ffffffffffffffffffffffffffffffffffffffff169060200190929190505050610864565b60405180821515815260200191505060405180910390f35b6101b8600480360360208110156101a257600080fd5b8101908080359060200190929190505050610955565b005b6101c2610cfe565b604051808273ffffffffffffffffffffffffffffffffffffffff16815260200191505060405180910390f35b6102306004803603602081101561020457600080fd5b81019080803573ffffffffffffffffffffffffffffffffffffffff169060200190929190505050610d24565b60405180848152602001838152602001828152602001935050505060405180910390f35b61025c610d4e565b604051808273ffffffffffffffffffffffffffffffffffffffff16815260200191505060405180910390f35b610290610d72565b005b6102be600480360360208110156102a857600080fd5b81019080803590602001909291905050506110f4565b005b610302600480360360208110156102d657600080fd5b81019080803573ffffffffffffffffffffffffffffffffffffffff1690602001909291905050506111ac565b6040518082815260200191505060405180910390f35b61035a6004803603602081101561032e57600080fd5b81019080803573ffffffffffffffffffffffffffffffffffffffff1690602001909291905050506113a5565b60405180821515815260200191505060405180910390f35b61039e6004803603602081101561038857600080fd5b8101908080359060200190929190505050611496565b604051808273ffffffffffffffffffffffffffffffffffffffff16815260200191505060405180910390f35b600080600760003373ffffffffffffffffffffffffffffffffffffffff1673ffffffffffffffffffffffffffffffffffffffff16815260200190815260200160002060000154905060008111610488576040517f08c379a000000000000000000000000000000000000000000000000000000000815260040180806020018281038252601b8152602001807f5374616b696e672062616c616e63652063616e6e6f742062652030000000000081525060200191505060405180910390fd5b6000610493336111ac565b905060008111156105e257600160009054906101000a900473ffffffffffffffffffffffffffffffffffffffff1673ffffffffffffffffffffffffffffffffffffffff166340c10f1933836040518363ffffffff1660e01b8152600401808373ffffffffffffffffffffffffffffffffffffffff16815260200182815260200192505050600060405180830381600087803b15801561053157600080fd5b505af1158015610545573d6000803e3d6000fd5b5050505042600760003373ffffffffffffffffffffffffffffffffffffffff1673ffffffffffffffffffffffffffffffffffffffff1681526020019081526020016000206001018190555043600760003373ffffffffffffffffffffffffffffffffffffffff1673ffffffffffffffffffffffffffffffffffffffff168152602001908152602001600020600201819055506001925050506105e9565b6000925050505b90565b600260009054906101000a900473ffffffffffffffffffffffffffffffffffffffff1681565b60008054906101000a900473ffffffffffffffffffffffffffffffffffffffff1673ffffffffffffffffffffffffffffffffffffffff163373ffffffffffffffffffffffffffffffffffffffff16146106b6576040517f08c379a00000000000000000000000000000000000000000000000000000000081526004018080602001828103825260218152602001806115dd6021913960400191505060405180910390fd5b60005b600380549050811015610861576000600382815481106106d557fe5b9060005260206000200160009054906101000a900473ffffffffffffffffffffffffffffffffffffffff169050600061070d826111ac565b9050600081111561085257600160009054906101000a900473ffffffffffffffffffffffffffffffffffffffff1673ffffffffffffffffffffffffffffffffffffffff166340c10f1983836040518363ffffffff1660e01b8152600401808373ffffffffffffffffffffffffffffffffffffffff16815260200182815260200192505050600060405180830381600087803b1580156107ab57600080fd5b505af11580156107bf573d6000803e3d6000fd5b5050505042600760008473ffffffffffffffffffffffffffffffffffffffff1673ffffffffffffffffffffffffffffffffffffffff1681526020019081526020016000206001018190555043600760008473ffffffffffffffffffffffffffffffffffffffff1673ffffffffffffffffffffffffffffffffffffffff168152602001908152602001600020600201819055505b505080806001019150506106b9565b50565b60008060009054906101000a900473ffffffffffffffffffffffffffffffffffffffff1673ffffffffffffffffffffffffffffffffffffffff163373ffffffffffffffffffffffffffffffffffffffff161461090b576040517f08c379a00000000000000000000000000000000000000000000000000000000081526004018080602001828103825260218152602001806115dd6021913960400191505060405180910390fd5b81600160006101000a81548173ffffffffffffffffffffffffffffffffffffffff021916908373ffffffffffffffffffffffffffffffffffffffff16021790555060019050919050565b600081116109cb576040517f08c379a00000000000000000000000000000000000000000000000000000000081526004018080602001828103825260138152602001807f616d6f756e742063616e206e6f7420626520300000000000000000000000000081525060200191505060405180910390fd5b600260009054906101000a900473ffffffffffffffffffffffffffffffffffffffff1673ffffffffffffffffffffffffffffffffffffffff166323b872dd3330846040518463ffffffff1660e01b8152600401808473ffffffffffffffffffffffffffffffffffffffff1681526020018373ffffffffffffffffffffffffffffffffffffffff1681526020018281526020019350505050602060405180830381600087803b158015610a7c57600080fd5b505af1158015610a90573d6000803e3d6000fd5b505050506040513d6020811015610aa657600080fd5b81019080805190602001909291905050505080600760003373ffffffffffffffffffffffffffffffffffffffff1673ffffffffffffffffffffffffffffffffffffffff1681526020019081526020016000206000016000828254019250508190555042600760003373ffffffffffffffffffffffffffffffffffffffff1673ffffffffffffffffffffffffffffffffffffffff1681526020019081526020016000206001018190555043600760003373ffffffffffffffffffffffffffffffffffffffff1673ffffffffffffffffffffffffffffffffffffffff16815260200190815260200160002060020181905550600460003373ffffffffffffffffffffffffffffffffffffffff1673ffffffffffffffffffffffffffffffffffffffff16815260200190815260200160002060009054906101000a900460ff16610c4b576003339080600181540180825580915050600190039060005260206000200160009091909190916101000a81548173ffffffffffffffffffffffffffffffffffffffff021916908373ffffffffffffffffffffffffffffffffffffffff1602179055505b6001600460003373ffffffffffffffffffffffffffffffffffffffff1673ffffffffffffffffffffffffffffffffffffffff16815260200190815260200160002060006101000a81548160ff0219169083151502179055506001600560003373ffffffffffffffffffffffffffffffffffffffff1673ffffffffffffffffffffffffffffffffffffffff16815260200190815260200160002060006101000a81548160ff02191690831515021790555050565b600160009054906101000a900473ffffffffffffffffffffffffffffffffffffffff1681565b60076020528060005260406000206000915090508060000154908060010154908060020154905083565b60008054906101000a900473ffffffffffffffffffffffffffffffffffffffff1681565b6000600760003373ffffffffffffffffffffffffffffffffffffffff1673ffffffffffffffffffffffffffffffffffffffff16815260200190815260200160002060000154905060008111610e2f576040517f08c379a000000000000000000000000000000000000000000000000000000000815260040180806020018281038252601b8152602001807f5374616b696e672062616c616e63652063616e6e6f742062652030000000000081525060200191505060405180910390fd5b600260009054906101000a900473ffffffffffffffffffffffffffffffffffffffff1673ffffffffffffffffffffffffffffffffffffffff1663a9059cbb33836040518363ffffffff1660e01b8152600401808373ffffffffffffffffffffffffffffffffffffffff16815260200182815260200192505050602060405180830381600087803b158015610ec257600080fd5b505af1158015610ed6573d6000803e3d6000fd5b505050506040513d6020811015610eec57600080fd5b8101908080519060200190929190505050506000610f09336111ac565b90506000811115610fc057600160009054906101000a900473ffffffffffffffffffffffffffffffffffffffff1673ffffffffffffffffffffffffffffffffffffffff166340c10f1933836040518363ffffffff1660e01b8152600401808373ffffffffffffffffffffffffffffffffffffffff16815260200182815260200192505050600060405180830381600087803b158015610fa757600080fd5b505af1158015610fbb573d6000803e3d6000fd5b505050505b6000600760003373ffffffffffffffffffffffffffffffffffffffff1673ffffffffffffffffffffffffffffffffffffffff168152602001908152602001600020600001819055506000600760003373ffffffffffffffffffffffffffffffffffffffff1673ffffffffffffffffffffffffffffffffffffffff168152602001908152602001600020600101819055506000600760003373ffffffffffffffffffffffffffffffffffffffff1673ffffffffffffffffffffffffffffffffffffffff168152602001908152602001600020600201819055506000600560003373ffffffffffffffffffffffffffffffffffffffff1673ffffffffffffffffffffffffffffffffffffffff16815260200190815260200160002060006101000a81548160ff0219169083151502179055505050565b60008054906101000a900473ffffffffffffffffffffffffffffffffffffffff1673ffffffffffffffffffffffffffffffffffffffff163373ffffffffffffffffffffffffffffffffffffffff1614611198576040517f08c379a00000000000000000000000000000000000000000000000000000000081526004018080602001828103825260218152602001806115dd6021913960400191505060405180910390fd5b670de0b6b3a7640000810260068190555050565b600080600760008473ffffffffffffffffffffffffffffffffffffffff1673ffffffffffffffffffffffffffffffffffffffff168152602001908152602001600020600001549050600061124b600760008673ffffffffffffffffffffffffffffffffffffffff1673ffffffffffffffffffffffffffffffffffffffff16815260200190815260200160002060020154436114d290919063ffffffff16565b90506000600260009054906101000a900473ffffffffffffffffffffffffffffffffffffffff1673ffffffffffffffffffffffffffffffffffffffff166318160ddd6040518163ffffffff1660e01b815260040160206040518083038186803b1580156112b757600080fd5b505afa1580156112cb573d6000803e3d6000fd5b505050506040513d60208110156112e157600080fd5b810190808051906020019092919050505090506000811161136a576040517f08c379a00000000000000000000000000000000000000000000000000000000081526004018080602001828103825260108152602001807f4e6f2052505420617661696c61626c650000000000000000000000000000000081525060200191505060405180910390fd5b600081670de0b6b3a7640000858502028161138157fe5b049050670de0b6b3a764000060065482028161139957fe5b04945050505050919050565b60008060009054906101000a900473ffffffffffffffffffffffffffffffffffffffff1673ffffffffffffffffffffffffffffffffffffffff163373ffffffffffffffffffffffffffffffffffffffff161461144c576040517f08c379a00000000000000000000000000000000000000000000000000000000081526004018080602001828103825260218152602001806115dd6021913960400191505060405180910390fd5b81600260006101000a81548173ffffffffffffffffffffffffffffffffffffffff021916908373ffffffffffffffffffffffffffffffffffffffff16021790555060019050919050565b600381815481106114a357fe5b906000526020600020016000915054906101000a900473ffffffffffffffffffffffffffffffffffffffff1681565b600061151483836040518060400160405280601e81526020017f536166654d6174683a207375627472616374696f6e206f766572666c6f77000081525061151c565b905092915050565b60008383111582906115c9576040517f08c379a00000000000000000000000000000000000000000000000000000000081526004018080602001828103825283818151815260200191508051906020019080838360005b8381101561158e578082015181840152602081019050611573565b50505050905090810190601f1680156115bb5780820380516001836020036101000a031916815260200191505b509250505060405180910390fd5b506000838503905080915050939250505056fe6f6e6c79206f776e65722063616e2063616c6c20746869732066756e6374696f6ea26469706673582212203eed61e759e8faa5853a495f685f5ebf199c7833294454402d50c276e6072d3f64736f6c634300060c0033",
  "immutableReferences": {},
  "source": "// SPDX-License-Identifier: UNLICENSED\r\npragma solidity ^0.6.0;\r\n\r\nimport '@openzeppelin/contracts/math/SafeMath.sol';\r\n\r\ninterface MRoya {\r\n\r\n    function totalSupply() external view  returns (uint256);\r\n    \r\n    function balanceOf(address tokenOwner) external view returns (uint);\r\n\r\n    function transfer(address receiver, uint numTokens) external returns (bool);\r\n\r\n    function approve(address delegate, uint numTokens) external returns (bool);\r\n\r\n    function allowance(address owner, address delegate) external view returns (uint);\r\n    \r\n    function transferFrom(address owner, address buyer, uint numTokens) external returns (bool);\r\n    \r\n    function mint(address account, uint256 amount) external;\r\n    \r\n    function _burn(address account, uint256 amount) external;\r\n    \r\n    function burn(uint256 amount) external;\r\n}\r\n\r\ninterface RPToken {\r\n\r\n    function totalSupply() external view returns (uint256);\r\n    \r\n    function balanceOf(address tokenOwner) external view returns (uint);\r\n\r\n    function transfer(address receiver, uint numTokens) external returns (bool);\r\n\r\n    function approve(address delegate, uint numTokens) external returns (bool);\r\n\r\n    function allowance(address owner, address delegate) external view returns (uint);\r\n    \r\n    function transferFrom(address owner, address buyer, uint numTokens) external returns (bool);\r\n}\r\n\r\n\r\ncontract MRoyaFarm {\r\n    address public owner;\r\n\r\n    MRoya public mRoya;\r\n    RPToken public rpToken;\r\n\r\n    address[] public stakers;\r\n    mapping(address => bool) hasStaked;\r\n    mapping(address => bool) isStaking;\r\n    uint256 mRoyaPerBlock = 1*10**18;\r\n    \r\n    struct stakerData {\r\n        uint256 stakedRPT;\r\n        uint256 startTimestamp;\r\n        uint256 blockNumber;\r\n    }\r\n    \r\n    mapping(address => stakerData) public staker;\r\n\r\n    using SafeMath for uint256;\r\n\r\n    constructor(RPToken _rpToken, MRoya _mRoya) public {\r\n        rpToken = _rpToken;\r\n        mRoya = _mRoya;\r\n        owner = msg.sender;\r\n    }\r\n    \r\n    modifier onlyOwner() {\r\n        require(msg.sender == owner, \"only owner can call this function\");\r\n        _;\r\n    }\r\n    \r\n    // function to get the mRoya of the staker\r\n    function calculateMRoya(address recipient) public view returns (uint){\r\n        uint256 stakedRPTAmount = staker[recipient].stakedRPT;\r\n        uint256 duration = block.number.sub(staker[recipient].blockNumber);\r\n        uint256 totalRPT = rpToken.totalSupply();\r\n        \r\n        require(totalRPT > 0, 'No RPT available');\r\n    \r\n        uint256 mRoyaAmount = duration * stakedRPTAmount * 10**18 / totalRPT;\r\n        return (mRoyaAmount * mRoyaPerBlock) / 10 ** 18;\r\n    }\r\n    \r\n    // function to stake tokens\r\n    function stakeTokens(uint _amount) public {\r\n        require(_amount > 0, \"amount can not be 0\");\r\n\r\n        rpToken.transferFrom(msg.sender, address(this), _amount);\r\n\r\n        staker[msg.sender].stakedRPT += _amount;\r\n        staker[msg.sender].startTimestamp = now;\r\n        staker[msg.sender].blockNumber = block.number;\r\n\r\n        if(!hasStaked[msg.sender]) {\r\n            stakers.push(msg.sender);\r\n        }\r\n\r\n        hasStaked[msg.sender] = true;\r\n        isStaking[msg.sender] = true;\r\n    }\r\n\r\n    // function to distribute mRoya\r\n    function issueTokens() public onlyOwner {\r\n        for(uint i=0; i<stakers.length; i++) {\r\n            address recipient = stakers[i];\r\n            uint256 balance = calculateMRoya(recipient);\r\n            \r\n\r\n            if(balance > 0) {\r\n                mRoya.mint(recipient, balance);\r\n                staker[recipient].startTimestamp = now;\r\n                staker[recipient].blockNumber = block.number;\r\n            }\r\n        }\r\n    }\r\n\r\n    // function to clain rewards\r\n    function claimRewards() public returns (bool) {\r\n        uint256 balance = staker[msg.sender].stakedRPT;\r\n        \r\n        require(balance > 0, 'Staking balance cannot be 0');\r\n\r\n        uint256 rewards = calculateMRoya(msg.sender);\r\n            \r\n\r\n        if(rewards > 0) {\r\n\r\n                mRoya.mint(msg.sender, rewards);\r\n\r\n                //staker[msg.sender].stakedRPT = balance;\r\n                staker[msg.sender].startTimestamp = now;\r\n                staker[msg.sender].blockNumber = block.number;\r\n                return true;\r\n            }\r\n        \r\n        return false;\r\n\r\n    }\r\n\r\n    // function to unstake tokens\r\n    function unstakeTokens() public {\r\n        uint256 balance = staker[msg.sender].stakedRPT;\r\n        \r\n        //require (isStaking[msg.sender],'Not staking any RPT');\r\n\r\n        require(balance > 0, 'Staking balance cannot be 0');\r\n\r\n        rpToken.transfer(msg.sender, balance);\r\n        \r\n        uint256 rewards = calculateMRoya(msg.sender);\r\n            \r\n\r\n        if(rewards > 0) {\r\n                mRoya.mint(msg.sender, rewards);\r\n            }\r\n\r\n        staker[msg.sender].stakedRPT = 0;\r\n        staker[msg.sender].startTimestamp = 0;\r\n        staker[msg.sender].blockNumber = 0;\r\n\r\n        isStaking[msg.sender] = false;\r\n    }\r\n\r\n    /* Admin Functions */\r\n\r\n    function updateMRoyaPerBlock(uint256 _mRoyaPerBlock) public onlyOwner {\r\n        mRoyaPerBlock = _mRoyaPerBlock*10**18;\r\n    }\r\n\r\n    function updateMRoyaAddress(MRoya _mRoya) public onlyOwner returns (bool){\r\n        mRoya = _mRoya;\r\n        return true;\r\n    }\r\n      \r\n    function updateRPTAddress(RPToken _rpToken) public onlyOwner returns (bool){\r\n        rpToken = _rpToken;\r\n        return true;\r\n    }\r\n\r\n}",
  "sourcePath": "C:/Users/MayankVats/Desktop/WORK/blockchain/Royale/rlp/contracts/mRoyaFarm.sol",
  "compiler": {
    "name": "solc",
    "version": "0.6.12+commit.27d51765.Emscripten.clang"
  },
  "schemaVersion": "3.3.2",
  "updatedAt": "2020-12-29T07:54:56.729Z",
  "devdoc": {
    "kind": "dev",
    "methods": {},
    "version": 1
  },
  "userdoc": {
    "kind": "user",
    "methods": {},
    "version": 1
  }
}