{
  "contractName": "multiSig",
  "abi": [
    {
      "inputs": [
        {
          "internalType": "address[3]",
          "name": "_tokens",
          "type": "address[3]"
        },
        {
          "internalType": "address",
          "name": "_royale",
          "type": "address"
        }
      ],
      "stateMutability": "nonpayable",
      "type": "constructor"
    },
    {
      "anonymous": false,
      "inputs": [
        {
          "indexed": false,
          "internalType": "address",
          "name": "adder",
          "type": "address"
        },
        {
          "indexed": false,
          "internalType": "uint256",
          "name": "numberOfSignees",
          "type": "uint256"
        }
      ],
      "name": "addedRequiredSignee",
      "type": "event"
    },
    {
      "anonymous": false,
      "inputs": [
        {
          "indexed": false,
          "internalType": "uint256",
          "name": "loanID",
          "type": "uint256"
        }
      ],
      "name": "approved",
      "type": "event"
    },
    {
      "anonymous": false,
      "inputs": [
        {
          "indexed": false,
          "internalType": "address",
          "name": "by",
          "type": "address"
        },
        {
          "indexed": false,
          "internalType": "uint256[3]",
          "name": "amounts",
          "type": "uint256[3]"
        },
        {
          "indexed": false,
          "internalType": "uint256",
          "name": "loanID",
          "type": "uint256"
        }
      ],
      "name": "loanRequested",
      "type": "event"
    },
    {
      "anonymous": false,
      "inputs": [
        {
          "indexed": false,
          "internalType": "address",
          "name": "signee",
          "type": "address"
        },
        {
          "indexed": false,
          "internalType": "uint256",
          "name": "loanID",
          "type": "uint256"
        }
      ],
      "name": "signed",
      "type": "event"
    },
    {
      "anonymous": false,
      "inputs": [
        {
          "indexed": false,
          "internalType": "address",
          "name": "signee",
          "type": "address"
        }
      ],
      "name": "signeeAdded",
      "type": "event"
    },
    {
      "anonymous": false,
      "inputs": [
        {
          "indexed": false,
          "internalType": "address",
          "name": "signee",
          "type": "address"
        }
      ],
      "name": "signeeRemoved",
      "type": "event"
    },
    {
      "inputs": [],
      "name": "MAX_SIGNEE_COUNT",
      "outputs": [
        {
          "internalType": "uint256",
          "name": "",
          "type": "uint256"
        }
      ],
      "stateMutability": "view",
      "type": "function"
    },
    {
      "inputs": [
        {
          "internalType": "address",
          "name": "",
          "type": "address"
        },
        {
          "internalType": "uint256",
          "name": "",
          "type": "uint256"
        }
      ],
      "name": "confirmations",
      "outputs": [
        {
          "internalType": "bool",
          "name": "",
          "type": "bool"
        }
      ],
      "stateMutability": "view",
      "type": "function"
    },
    {
      "inputs": [
        {
          "internalType": "address",
          "name": "",
          "type": "address"
        }
      ],
      "name": "isSignee",
      "outputs": [
        {
          "internalType": "bool",
          "name": "",
          "type": "bool"
        }
      ],
      "stateMutability": "view",
      "type": "function"
    },
    {
      "inputs": [],
      "name": "ownerAddress",
      "outputs": [
        {
          "internalType": "address",
          "name": "",
          "type": "address"
        }
      ],
      "stateMutability": "view",
      "type": "function"
    },
    {
      "inputs": [],
      "name": "required",
      "outputs": [
        {
          "internalType": "uint256",
          "name": "",
          "type": "uint256"
        }
      ],
      "stateMutability": "view",
      "type": "function"
    },
    {
      "inputs": [],
      "name": "royale",
      "outputs": [
        {
          "internalType": "contract RoyaleInterface",
          "name": "",
          "type": "address"
        }
      ],
      "stateMutability": "view",
      "type": "function"
    },
    {
      "inputs": [
        {
          "internalType": "uint256",
          "name": "",
          "type": "uint256"
        }
      ],
      "name": "signees",
      "outputs": [
        {
          "internalType": "address",
          "name": "",
          "type": "address"
        }
      ],
      "stateMutability": "view",
      "type": "function"
    },
    {
      "inputs": [
        {
          "internalType": "uint256",
          "name": "",
          "type": "uint256"
        }
      ],
      "name": "totalApprovedLoan",
      "outputs": [
        {
          "internalType": "uint256",
          "name": "",
          "type": "uint256"
        }
      ],
      "stateMutability": "view",
      "type": "function"
    },
    {
      "inputs": [
        {
          "internalType": "uint256",
          "name": "",
          "type": "uint256"
        }
      ],
      "name": "totalLoanTaken",
      "outputs": [
        {
          "internalType": "uint256",
          "name": "",
          "type": "uint256"
        }
      ],
      "stateMutability": "view",
      "type": "function"
    },
    {
      "inputs": [],
      "name": "transactionCount",
      "outputs": [
        {
          "internalType": "uint256",
          "name": "",
          "type": "uint256"
        }
      ],
      "stateMutability": "view",
      "type": "function"
    },
    {
      "inputs": [
        {
          "internalType": "uint256",
          "name": "",
          "type": "uint256"
        }
      ],
      "name": "transactions",
      "outputs": [
        {
          "internalType": "uint256",
          "name": "transactionId",
          "type": "uint256"
        },
        {
          "internalType": "address",
          "name": "iGamingCompany",
          "type": "address"
        },
        {
          "internalType": "bool",
          "name": "isGamingCompanySigned",
          "type": "bool"
        },
        {
          "internalType": "bool",
          "name": "approved",
          "type": "bool"
        },
        {
          "internalType": "bool",
          "name": "executed",
          "type": "bool"
        }
      ],
      "stateMutability": "view",
      "type": "function"
    },
    {
      "inputs": [
        {
          "internalType": "uint256[3]",
          "name": "amounts",
          "type": "uint256[3]"
        }
      ],
      "name": "requestLoan",
      "outputs": [
        {
          "internalType": "uint256",
          "name": "",
          "type": "uint256"
        }
      ],
      "stateMutability": "nonpayable",
      "type": "function"
    },
    {
      "inputs": [
        {
          "internalType": "uint256",
          "name": "_loanID",
          "type": "uint256"
        }
      ],
      "name": "signTransaction",
      "outputs": [],
      "stateMutability": "nonpayable",
      "type": "function"
    },
    {
      "inputs": [
        {
          "internalType": "uint256",
          "name": "_loanID",
          "type": "uint256"
        }
      ],
      "name": "confirmLoan",
      "outputs": [],
      "stateMutability": "nonpayable",
      "type": "function"
    },
    {
      "inputs": [
        {
          "internalType": "uint256",
          "name": "_loanID",
          "type": "uint256"
        }
      ],
      "name": "getTransactionDetail",
      "outputs": [
        {
          "components": [
            {
              "internalType": "uint256",
              "name": "transactionId",
              "type": "uint256"
            },
            {
              "internalType": "address",
              "name": "iGamingCompany",
              "type": "address"
            },
            {
              "internalType": "bool",
              "name": "isGamingCompanySigned",
              "type": "bool"
            },
            {
              "internalType": "uint256[3]",
              "name": "tokenAmounts",
              "type": "uint256[3]"
            },
            {
              "internalType": "uint256[3]",
              "name": "remAmt",
              "type": "uint256[3]"
            },
            {
              "internalType": "bool",
              "name": "approved",
              "type": "bool"
            },
            {
              "internalType": "bool",
              "name": "executed",
              "type": "bool"
            }
          ],
          "internalType": "struct multiSig.Transaction",
          "name": "",
          "type": "tuple"
        }
      ],
      "stateMutability": "view",
      "type": "function"
    },
    {
      "inputs": [
        {
          "internalType": "uint256",
          "name": "_loanID",
          "type": "uint256"
        }
      ],
      "name": "checkLoanApproved",
      "outputs": [
        {
          "internalType": "bool",
          "name": "",
          "type": "bool"
        }
      ],
      "stateMutability": "view",
      "type": "function"
    },
    {
      "inputs": [
        {
          "internalType": "uint256",
          "name": "_required",
          "type": "uint256"
        }
      ],
      "name": "setRequiredSignee",
      "outputs": [],
      "stateMutability": "nonpayable",
      "type": "function"
    },
    {
      "inputs": [
        {
          "internalType": "address",
          "name": "signee",
          "type": "address"
        }
      ],
      "name": "addSignee",
      "outputs": [],
      "stateMutability": "nonpayable",
      "type": "function"
    },
    {
      "inputs": [
        {
          "internalType": "address",
          "name": "signee",
          "type": "address"
        }
      ],
      "name": "removeSignee",
      "outputs": [],
      "stateMutability": "nonpayable",
      "type": "function"
    },
    {
      "inputs": [
        {
          "internalType": "uint256[3]",
          "name": "amounts",
          "type": "uint256[3]"
        },
        {
          "internalType": "uint256",
          "name": "_loanID",
          "type": "uint256"
        }
      ],
      "name": "withdrawLoan",
      "outputs": [],
      "stateMutability": "nonpayable",
      "type": "function"
    },
    {
      "inputs": [
        {
          "internalType": "uint256",
          "name": "_loanId",
          "type": "uint256"
        },
        {
          "internalType": "uint256[3]",
          "name": "_amounts",
          "type": "uint256[3]"
        }
      ],
      "name": "repaymentOfLoan",
      "outputs": [],
      "stateMutability": "nonpayable",
      "type": "function"
    },
    {
      "inputs": [
        {
          "internalType": "uint8",
          "name": "_number",
          "type": "uint8"
        }
      ],
      "name": "getTotalTakenLoan",
      "outputs": [
        {
          "internalType": "uint256",
          "name": "",
          "type": "uint256"
        }
      ],
      "stateMutability": "view",
      "type": "function"
    },
    {
      "inputs": [
        {
          "internalType": "uint8",
          "name": "_number",
          "type": "uint8"
        }
      ],
      "name": "getTotalApprovedLoan",
      "outputs": [
        {
          "internalType": "uint256",
          "name": "",
          "type": "uint256"
        }
      ],
      "stateMutability": "view",
      "type": "function"
    }
  ],
  "bytecode": "0x608060405260006009553480156200001657600080fd5b5060405162002da138038062002da183398181016040528101906200003c9190620001e2565b33600c60006101000a81548173ffffffffffffffffffffffffffffffffffffffff021916908373ffffffffffffffffffffffffffffffffffffffff16021790555060005b600360ff168160ff1610156200014457828160ff1660038110620000a057fe5b602002015160008260ff1660038110620000b657fe5b0160006101000a81548173ffffffffffffffffffffffffffffffffffffffff021916908373ffffffffffffffffffffffffffffffffffffffff16021790555081600b60006101000a81548173ffffffffffffffffffffffffffffffffffffffff021916908373ffffffffffffffffffffffffffffffffffffffff160217905550808060010191505062000080565b505050620002c2565b6000815190506200015e81620002a8565b92915050565b600082601f8301126200017657600080fd5b60036200018d620001878262000251565b62000223565b91508183856020840282011115620001a457600080fd5b60005b83811015620001d85781620001bd88826200014d565b845260208401935060208301925050600181019050620001a7565b5050505092915050565b60008060808385031215620001f657600080fd5b6000620002068582860162000164565b925050606062000219858286016200014d565b9150509250929050565b6000604051905081810181811067ffffffffffffffff821117156200024757600080fd5b8060405250919050565b600067ffffffffffffffff8211156200026957600080fd5b602082029050919050565b6000620002818262000288565b9050919050565b600073ffffffffffffffffffffffffffffffffffffffff82169050919050565b620002b38162000274565b8114620002bf57600080fd5b50565b612acf80620002d26000396000f3fe608060405234801561001057600080fd5b506004361061014d5760003560e01c80638f84aa09116100c3578063b0580ce91161007c578063b0580ce9146103d8578063b77bf600146103f4578063cbd249f414610412578063d80a93d614610442578063dc8452cd14610472578063f84fd9ef146104905761014d565b80638f84aa09146102da5780639ace38c2146102f85780639b3641621461032c5780639ff512fa14610348578063aa37dca214610378578063ae8df6a6146103a85761014d565b80631880432a116101155780631880432a14610206578063277514e0146102245780632f094632146102405780635d9ec2101461025e57806362a945d11461027a5780637a325e56146102aa5761014d565b80630385b5811461015257806304971367146101825780630f8cdd881461019e57806310266c1c146101ba57806316903ba2146101ea575b600080fd5b61016c60048036038101906101679190612076565b6104c0565b60405161017991906126f2565b60405180910390f35b61019c60048036038101906101979190612192565b6104e0565b005b6101b860048036038101906101b39190612076565b6106b5565b005b6101d460048036038101906101cf9190612192565b610804565b6040516101e19190612884565b60405180910390f35b61020460048036038101906101ff91906121bb565b61081c565b005b61020e610bd4565b60405161021b9190612884565b60405180910390f35b61023e60048036038101906102399190612104565b610bd9565b005b61024861109a565b604051610255919061270d565b60405180910390f35b61027860048036038101906102739190612192565b6110c0565b005b610294600480360381019061028f91906120db565b6111e8565b6040516102a19190612884565b60405180910390f35b6102c460048036038101906102bf91906121f7565b6112b6565b6040516102d19190612884565b60405180910390f35b6102e26112d1565b6040516102ef919061264e565b60405180910390f35b610312600480360381019061030d9190612192565b6112f7565b60405161032395949392919061289f565b60405180910390f35b61034660048036038101906103419190612076565b611374565b005b610362600480360381019061035d9190612192565b611601565b60405161036f9190612868565b60405180910390f35b610392600480360381019061038d9190612192565b611769565b60405161039f9190612884565b60405180910390f35b6103c260048036038101906103bd9190612192565b611781565b6040516103cf91906126f2565b60405180910390f35b6103f260048036038101906103ed9190612192565b6117ae565b005b6103fc61188a565b6040516104099190612884565b60405180910390f35b61042c600480360381019061042791906121f7565b611890565b6040516104399190612884565b60405180910390f35b61045c60048036038101906104579190612192565b6118ab565b604051610469919061264e565b60405180910390f35b61047a6118e7565b6040516104879190612884565b60405180910390f35b6104aa60048036038101906104a5919061209f565b6118ed565b6040516104b791906126f2565b60405180910390f35b60066020528060005260406000206000915054906101000a900460ff1681565b33600660008273ffffffffffffffffffffffffffffffffffffffff1673ffffffffffffffffffffffffffffffffffffffff16815260200190815260200160002060009054906101000a900460ff1661053757600080fd5b8160008111801561054a57506009548111155b61055357600080fd5b3383600460008373ffffffffffffffffffffffffffffffffffffffff1673ffffffffffffffffffffffffffffffffffffffff168152602001908152602001600020600082815260200190815260200160002060009054906101000a900460ff16156105bd57600080fd5b6001600460003373ffffffffffffffffffffffffffffffffffffffff1673ffffffffffffffffffffffffffffffffffffffff168152602001908152602001600020600087815260200190815260200160002060006101000a81548160ff0219169083151502179055507f24e5bfa739656f6dd56210dbd8ccbfdabcae46f85752164562c69dffd61a320b33866040516106579291906126a0565b60405180910390a16106688561191c565b156106ae5761067685611a2a565b7f7d4061e68fab364906497bb959d95ad3f052a3978fed6ce9942a2b8f737aae54856040516106a59190612884565b60405180910390a15b5050505050565b600c60009054906101000a900473ffffffffffffffffffffffffffffffffffffffff1673ffffffffffffffffffffffffffffffffffffffff163373ffffffffffffffffffffffffffffffffffffffff161461070f57600080fd5b6001600660008373ffffffffffffffffffffffffffffffffffffffff1673ffffffffffffffffffffffffffffffffffffffff16815260200190815260200160002060006101000a81548160ff0219169083151502179055506008819080600181540180825580915050600190039060005260206000200160009091909190916101000a81548173ffffffffffffffffffffffffffffffffffffffff021916908373ffffffffffffffffffffffffffffffffffffffff1602179055507fa0aa61ae85a95577b5775982299a5bfc418ef90f41d6bb03a7f2d5a6f7738eaf816040516107f9919061264e565b60405180910390a150565b600d816003811061081157fe5b016000915090505481565b600954821115610861576040517f08c379a000000000000000000000000000000000000000000000000000000000815260040161085890612848565b60405180910390fd5b3373ffffffffffffffffffffffffffffffffffffffff166003600084815260200190815260200160002060010160009054906101000a900473ffffffffffffffffffffffffffffffffffffffff1673ffffffffffffffffffffffffffffffffffffffff1614610905576040517f08c379a00000000000000000000000000000000000000000000000000000000081526004016108fc906127e8565b60405180910390fd5b6005600083815260200190815260200160002060010160009054906101000a900460ff1615610969576040517f08c379a000000000000000000000000000000000000000000000000000000000815260040161096090612808565b60405180910390fd5b6000600b60009054906101000a900473ffffffffffffffffffffffffffffffffffffffff1673ffffffffffffffffffffffffffffffffffffffff166380001288836003600087815260200190815260200160002060010160009054906101000a900473ffffffffffffffffffffffffffffffffffffffff166040518363ffffffff1660e01b81526004016109fe9291906126c9565b602060405180830381600087803b158015610a1857600080fd5b505af1158015610a2c573d6000803e3d6000fd5b505050506040513d601f19601f82011682018060405250810190610a509190612169565b905080610a92576040517f08c379a0000000000000000000000000000000000000000000000000000000008152600401610a8990612748565b60405180910390fd5b6000805b600360ff16811015610b94576000848260038110610ab057fe5b602002013514610b8757838160038110610ac657fe5b6020020135600d8260038110610ad857fe5b0160008282540392505081905550838160038110610af257fe5b602002013560108260038110610b0457fe5b0160008282540392505081905550838160038110610b1e57fe5b6020020135600560008781526020019081526020016000206002018260038110610b4457fe5b01600082825403925050819055506000600560008781526020019081526020016000206002018260038110610b7557fe5b01541415610b865781806001019250505b5b8080600101915050610a96565b506003811415610bce5760016005600086815260200190815260200160002060010160006101000a81548160ff0219169083151502179055505b50505050565b603281565b3373ffffffffffffffffffffffffffffffffffffffff166003600083815260200190815260200160002060010160009054906101000a900473ffffffffffffffffffffffffffffffffffffffff1673ffffffffffffffffffffffffffffffffffffffff1614610c7d576040517f08c379a0000000000000000000000000000000000000000000000000000000008152600401610c7490612788565b60405180910390fd5b6003600082815260200190815260200160002060080160009054906101000a900460ff16610ce0576040517f08c379a0000000000000000000000000000000000000000000000000000000008152600401610cd7906127c8565b60405180910390fd5b60005b600360ff168160ff161015610d7a57828160ff1660038110610d0157fe5b6020020135600360008481526020019081526020016000206005018260ff1660038110610d2a57fe5b01541015610d6d576040517f08c379a0000000000000000000000000000000000000000000000000000000008152600401610d6490612828565b60405180910390fd5b8080600101915050610ce3565b506000600b60009054906101000a900473ffffffffffffffffffffffffffffffffffffffff1673ffffffffffffffffffffffffffffffffffffffff1663eacd7afc846003600086815260200190815260200160002060010160009054906101000a900473ffffffffffffffffffffffffffffffffffffffff166040518363ffffffff1660e01b8152600401610e109291906126c9565b602060405180830381600087803b158015610e2a57600080fd5b505af1158015610e3e573d6000803e3d6000fd5b505050506040513d601f19601f82011682018060405250810190610e629190612169565b905080610ea4576040517f08c379a0000000000000000000000000000000000000000000000000000000008152600401610e9b90612768565b60405180910390fd5b6000805b600360ff168160ff161015610f90576000858260ff1660038110610ec857fe5b60200201351115610f4c57848160ff1660038110610ee257fe5b6020020135600d8260ff1660038110610ef757fe5b0160008282540192505081905550848160ff1660038110610f1457fe5b6020020135600360008681526020019081526020016000206005018260ff1660038110610f3d57fe5b01600082825403925050819055505b6000600360008681526020019081526020016000206005018260ff1660038110610f7257fe5b01541415610f835781806001019250505b8080600101915050610ea8565b5060038160ff1614156110945760016003600085815260200190815260200160002060080160016101000a81548160ff021916908315150217905550604051806060016040528084815260200160001515815260200160036000868152602001908152602001600020600201600380602002604051908101604052809291908260038015611033576020028201915b81548152602001906001019080831161101f575b5050505050815250600560008581526020019081526020016000206000820151816000015560208201518160010160006101000a81548160ff02191690831515021790555060408201518160020190600361108f929190611e5a565b509050505b50505050565b600b60009054906101000a900473ffffffffffffffffffffffffffffffffffffffff1681565b3373ffffffffffffffffffffffffffffffffffffffff166003600083815260200190815260200160002060010160009054906101000a900473ffffffffffffffffffffffffffffffffffffffff1673ffffffffffffffffffffffffffffffffffffffff161461112e57600080fd5b60016003600083815260200190815260200160002060010160146101000a81548160ff0219169083151502179055507f24e5bfa739656f6dd56210dbd8ccbfdabcae46f85752164562c69dffd61a320b338260405161118e9291906126a0565b60405180910390a161119f8161191c565b156111e5576111ad81611a2a565b7f7d4061e68fab364906497bb959d95ad3f052a3978fed6ce9942a2b8f737aae54816040516111dc9190612884565b60405180910390a15b50565b6000600a546008805490501015611234576040517f08c379a000000000000000000000000000000000000000000000000000000000815260040161122b906127a8565b60405180910390fd5b611274826003806020026040519081016040528092919082600360200280828437600081840152601f19601f820116905080830192505050505050611cef565b7f6825b4653b0626e0268f9c124dce0ea5cc6f826ccb2cf314459bd1c62cf011f733836009546040516112a993929190612669565b60405180910390a1919050565b6000600d8260ff16600381106112c857fe5b01549050919050565b600c60009054906101000a900473ffffffffffffffffffffffffffffffffffffffff1681565b60036020528060005260406000206000915090508060000154908060010160009054906101000a900473ffffffffffffffffffffffffffffffffffffffff16908060010160149054906101000a900460ff16908060080160009054906101000a900460ff16908060080160019054906101000a900460ff16905085565b600c60009054906101000a900473ffffffffffffffffffffffffffffffffffffffff1673ffffffffffffffffffffffffffffffffffffffff163373ffffffffffffffffffffffffffffffffffffffff16146113ce57600080fd5b80600660008273ffffffffffffffffffffffffffffffffffffffff1673ffffffffffffffffffffffffffffffffffffffff16815260200190815260200160002060009054906101000a900460ff1661142557600080fd5b6000600660008473ffffffffffffffffffffffffffffffffffffffff1673ffffffffffffffffffffffffffffffffffffffff16815260200190815260200160002060006101000a81548160ff02191690831515021790555060005b6001600880549050038110156115a2578273ffffffffffffffffffffffffffffffffffffffff16600882815481106114b457fe5b9060005260206000200160009054906101000a900473ffffffffffffffffffffffffffffffffffffffff1673ffffffffffffffffffffffffffffffffffffffff1614156115955760086001600880549050038154811061151057fe5b9060005260206000200160009054906101000a900473ffffffffffffffffffffffffffffffffffffffff166008828154811061154857fe5b9060005260206000200160006101000a81548173ffffffffffffffffffffffffffffffffffffffff021916908373ffffffffffffffffffffffffffffffffffffffff1602179055506115a2565b8080600101915050611480565b50600880549050600a5411156115c657600a60008154809291906001900391905055505b7f95cd0920c0aa5e5da987ebe563a4f26fc5143a4c65e89cc8b1b3a23e2d7fa5ff826040516115f5919061264e565b60405180910390a15050565b611609611e9a565b600360008381526020019081526020016000206040518060e0016040529081600082015481526020016001820160009054906101000a900473ffffffffffffffffffffffffffffffffffffffff1673ffffffffffffffffffffffffffffffffffffffff1673ffffffffffffffffffffffffffffffffffffffff1681526020016001820160149054906101000a900460ff16151515158152602001600282016003806020026040519081016040528092919082600380156116de576020028201915b8154815260200190600101908083116116ca575b5050505050815260200160058201600380602002604051908101604052809291908260038015611723576020028201915b81548152602001906001019080831161170f575b505050505081526020016008820160009054906101000a900460ff161515151581526020016008820160019054906101000a900460ff1615151515815250509050919050565b6010816003811061177657fe5b016000915090505481565b60006003600083815260200190815260200160002060080160009054906101000a900460ff169050919050565b600c60009054906101000a900473ffffffffffffffffffffffffffffffffffffffff1673ffffffffffffffffffffffffffffffffffffffff163373ffffffffffffffffffffffffffffffffffffffff161461180857600080fd5b60088054905081603282111580156118205750818111155b801561182d575060008114155b801561183a575060008214155b61184357600080fd5b82600a819055507f3eeb9a927605685a0c44838616e4c196655b47d4019656c814bbf5743d1e25cc33600a5460405161187d9291906126a0565b60405180910390a1505050565b60095481565b600060108260ff16600381106118a257fe5b01549050919050565b600881815481106118b857fe5b906000526020600020016000915054906101000a900473ffffffffffffffffffffffffffffffffffffffff1681565b600a5481565b60046020528160005260406000206020528060005260406000206000915091509054906101000a900460ff1681565b6000806000905060005b600880549050811015611a2257600460006008838154811061194457fe5b9060005260206000200160009054906101000a900473ffffffffffffffffffffffffffffffffffffffff1673ffffffffffffffffffffffffffffffffffffffff1673ffffffffffffffffffffffffffffffffffffffff168152602001908152602001600020600085815260200190815260200160002060009054906101000a900460ff16156119d4576001820191505b600a5482148015611a0557506003600085815260200190815260200160002060010160149054906101000a900460ff165b15611a1557600192505050611a25565b8080600101915050611926565b50505b919050565b611a32611eff565b600b60009054906101000a900473ffffffffffffffffffffffffffffffffffffffff1673ffffffffffffffffffffffffffffffffffffffff166311e871886040518163ffffffff1660e01b815260040160606040518083038186803b158015611a9a57600080fd5b505afa158015611aae573d6000803e3d6000fd5b505050506040513d601f19601f82011682018060405250810190611ad29190612140565b905060005b600360ff168160ff161015611b8057818160ff1660038110611af557fe5b6020020151600360008581526020019081526020016000206002018260ff1660038110611b1e57fe5b015460108360ff1660038110611b3057fe5b01540110611b73576040517f08c379a0000000000000000000000000000000000000000000000000000000008152600401611b6a90612728565b60405180910390fd5b8080600101915050611ad7565b5060016003600084815260200190815260200160002060080160006101000a81548160ff0219169083151502179055506003600083815260200190815260200160002060020160036000848152602001908152602001600020600501906003611bea929190611f21565b5060005b600360ff168160ff161015611c4e57600360008481526020019081526020016000206002018160ff1660038110611c2157fe5b015460108260ff1660038110611c3357fe5b01600082825401925050819055508080600101915050611bee565b50600760006003600085815260200190815260200160002060010160009054906101000a900473ffffffffffffffffffffffffffffffffffffffff1673ffffffffffffffffffffffffffffffffffffffff1673ffffffffffffffffffffffffffffffffffffffff1681526020019081526020016000208290806001815401808255809150506001900390600052602060002001600090919091909150555050565b611cf7611eff565b6009600081548092919060010191905055506040518060e0016040528060095481526020013373ffffffffffffffffffffffffffffffffffffffff168152602001600015158152602001838152602001828152602001600015158152602001600015158152506003600060095481526020019081526020016000206000820151816000015560208201518160010160006101000a81548173ffffffffffffffffffffffffffffffffffffffff021916908373ffffffffffffffffffffffffffffffffffffffff16021790555060408201518160010160146101000a81548160ff021916908315150217905550606082015181600201906003611dfa929190611e5a565b50608082015181600501906003611e12929190611e5a565b5060a08201518160080160006101000a81548160ff02191690831515021790555060c08201518160080160016101000a81548160ff0219169083151502179055509050505050565b8260038101928215611e89579160200282015b82811115611e88578251825591602001919060010190611e6d565b5b509050611e969190611f5e565b5090565b6040518060e0016040528060008152602001600073ffffffffffffffffffffffffffffffffffffffff168152602001600015158152602001611eda611eff565b8152602001611ee7611eff565b81526020016000151581526020016000151581525090565b6040518060600160405280600390602082028036833780820191505090505090565b8260038101928215611f4d579182015b82811115611f4c578254825591600101919060010190611f31565b5b509050611f5a9190611f5e565b5090565b5b80821115611f77576000816000905550600101611f5f565b5090565b600081359050611f8a81612a3d565b92915050565b600081905082602060030282011115611fa857600080fd5b92915050565b600082601f830112611fbf57600080fd5b6003611fd2611fcd8261291f565b6128f2565b91508183856020840282011115611fe857600080fd5b60005b838110156120185781611ffe888261204c565b845260208401935060208301925050600181019050611feb565b5050505092915050565b60008151905061203181612a54565b92915050565b60008135905061204681612a6b565b92915050565b60008151905061205b81612a6b565b92915050565b60008135905061207081612a82565b92915050565b60006020828403121561208857600080fd5b600061209684828501611f7b565b91505092915050565b600080604083850312156120b257600080fd5b60006120c085828601611f7b565b92505060206120d185828601612037565b9150509250929050565b6000606082840312156120ed57600080fd5b60006120fb84828501611f90565b91505092915050565b6000806080838503121561211757600080fd5b600061212585828601611f90565b925050606061213685828601612037565b9150509250929050565b60006060828403121561215257600080fd5b600061216084828501611fae565b91505092915050565b60006020828403121561217b57600080fd5b600061218984828501612022565b91505092915050565b6000602082840312156121a457600080fd5b60006121b284828501612037565b91505092915050565b600080608083850312156121ce57600080fd5b60006121dc85828601612037565b92505060206121ed85828601611f90565b9150509250929050565b60006020828403121561220957600080fd5b600061221784828501612061565b91505092915050565b600061222c8383612630565b60208301905092915050565b612241816129d4565b82525050565b6122508161297f565b82525050565b61225f8161297f565b82525050565b61227160608383612a2e565b5050565b61227e8161294b565b6122888184612963565b925061229382612941565b8060005b838110156122c45781516122ab8782612220565b96506122b683612956565b925050600181019050612297565b505050505050565b6122d581612991565b82525050565b6122e481612991565b82525050565b6122f3816129e6565b82525050565b600061230660208361296e565b91507f43616e206e6f7420617070726f76652074686174206d75636820616d6f756e746000830152602082019050919050565b6000612346601b8361296e565b91507f4c6f616e205061796d656e74206e6f742073756363657366756c6c00000000006000830152602082019050919050565b6000612386601c8361296e565b91507f4c6f616e205769746864726177206e6f742073756363657366756c6c000000006000830152602082019050919050565b60006123c660118361296e565b91507f636f6d70616e79206e6f742d65786973740000000000000000000000000000006000830152602082019050919050565b600061240660148361296e565b91507f696e73756666696369656e74207369676e6565730000000000000000000000006000830152602082019050919050565b600061244660158361296e565b91507f6e6f7420617070726f76656420666f72206c6f616e00000000000000000000006000830152602082019050919050565b6000612486601c8361296e565b91507f796f752068617665206e6f742074616b656e2074686973206c6f616e000000006000830152602082019050919050565b60006124c660168361296e565b91507f416c72656164792052657061796d656e7420646f6e65000000000000000000006000830152602082019050919050565b600061250660288361296e565b91507f616d6f756e7420726571756573746564206578636565647320616d6f756e742060008301527f617070726f7665640000000000000000000000000000000000000000000000006020830152604082019050919050565b600061256c600e8361296e565b91507f456e7465722056616c69642049440000000000000000000000000000000000006000830152602082019050919050565b610160820160008201516125b66000850182612630565b5060208201516125c96020850182612247565b5060408201516125dc60408501826122cc565b5060608201516125ef6060850182612275565b50608082015161260260c0850182612275565b5060a08201516126166101208501826122cc565b5060c082015161262a6101408501826122cc565b50505050565b612639816129bd565b82525050565b612648816129bd565b82525050565b60006020820190506126636000830184612256565b92915050565b600060a08201905061267e6000830186612238565b61268b6020830185612265565b612698608083018461263f565b949350505050565b60006040820190506126b56000830185612238565b6126c2602083018461263f565b9392505050565b60006080820190506126de6000830185612265565b6126eb6060830184612256565b9392505050565b600060208201905061270760008301846122db565b92915050565b600060208201905061272260008301846122ea565b92915050565b60006020820190508181036000830152612741816122f9565b9050919050565b6000602082019050818103600083015261276181612339565b9050919050565b6000602082019050818103600083015261278181612379565b9050919050565b600060208201905081810360008301526127a1816123b9565b9050919050565b600060208201905081810360008301526127c1816123f9565b9050919050565b600060208201905081810360008301526127e181612439565b9050919050565b6000602082019050818103600083015261280181612479565b9050919050565b60006020820190508181036000830152612821816124b9565b9050919050565b60006020820190508181036000830152612841816124f9565b9050919050565b600060208201905081810360008301526128618161255f565b9050919050565b60006101608201905061287e600083018461259f565b92915050565b6000602082019050612899600083018461263f565b92915050565b600060a0820190506128b4600083018861263f565b6128c16020830187612256565b6128ce60408301866122db565b6128db60608301856122db565b6128e860808301846122db565b9695505050505050565b6000604051905081810181811067ffffffffffffffff8211171561291557600080fd5b8060405250919050565b600067ffffffffffffffff82111561293657600080fd5b602082029050919050565b6000819050919050565b600060039050919050565b6000602082019050919050565b600081905092915050565b600082825260208201905092915050565b600061298a8261299d565b9050919050565b60008115159050919050565b600073ffffffffffffffffffffffffffffffffffffffff82169050919050565b6000819050919050565b600060ff82169050919050565b60006129df82612a0a565b9050919050565b60006129f1826129f8565b9050919050565b6000612a038261299d565b9050919050565b6000612a1582612a1c565b9050919050565b6000612a278261299d565b9050919050565b82818337600083830152505050565b612a468161297f565b8114612a5157600080fd5b50565b612a5d81612991565b8114612a6857600080fd5b50565b612a74816129bd565b8114612a7f57600080fd5b50565b612a8b816129c7565b8114612a9657600080fd5b5056fea26469706673582212208b78554bf3f969ea45ba49693eadaebb37ed2260aa87fabc256ec67a57b72e0364736f6c634300060c0033",
  "immutableReferences": {},
  "source": "// SPDX-License-Identifier: UNLICENSED\r\npragma solidity ^0.6.0;\r\npragma experimental ABIEncoderV2;\r\n\r\nimport './Interfaces/Erc20Interface.sol';\r\nimport './Interfaces/RoyaleInterface.sol';\r\n\r\n\r\ncontract multiSig {\r\n    uint8 constant N_COINS = 3;\r\n    \r\n    Erc20[N_COINS] tokens;\r\n\r\n    uint constant public MAX_SIGNEE_COUNT = 50;\r\n    \r\n    mapping(uint256 => Transaction) public transactions;\r\n    mapping(address => mapping (uint256 => bool)) public confirmations;\r\n    mapping(uint256 => Repayment) gamingCompanyRepayment;\r\n    mapping(address => bool) public isSignee;\r\n  \r\n    mapping(address => uint[]) takenLoan;\r\n    address[] public signees;\r\n    uint256 public transactionCount = 0;\r\n   \r\n    uint256 public required;\r\n\r\n    RoyaleInterface public royale;\r\n\r\n    address public ownerAddress;\r\n\r\n    uint256[N_COINS] public totalLoanTaken;\r\n    uint256[N_COINS] public totalApprovedLoan;\r\n    \r\n \r\n    \r\n    struct Transaction {\r\n        uint256 transactionId;\r\n        address iGamingCompany;\r\n        bool isGamingCompanySigned;\r\n        uint256[N_COINS] tokenAmounts;\r\n        uint256[N_COINS] remAmt;\r\n        bool approved;\r\n        bool executed;\r\n    }\r\n\r\n    struct Repayment {\r\n        uint256 transactionID;\r\n        bool isRepaymentDone;\r\n        uint256[N_COINS] remainingTokenAmounts;\r\n    }\r\n\r\n\r\n    /* Events */\r\n\r\n    event loanRequested(\r\n        address by,\r\n        uint[N_COINS] amounts,\r\n        uint loanID\r\n    );\r\n\r\n    event signed(\r\n        address signee,\r\n        uint loanID\r\n    );\r\n\r\n    event approved(\r\n        uint loanID\r\n    );\r\n\r\n    event addedRequiredSignee(\r\n        address adder,\r\n        uint numberOfSignees\r\n    );\r\n\r\n    event signeeAdded(\r\n        address signee\r\n    );\r\n\r\n    event signeeRemoved(\r\n        address signee\r\n    );\r\n\r\n    /* Modifiers */\r\n\r\n    modifier onlyOwner {\r\n        require(msg.sender == ownerAddress);\r\n        _;\r\n    }\r\n\r\n    modifier signeeExists(address signee) {\r\n        require(isSignee[signee]);\r\n        _;\r\n    }\r\n\r\n    modifier transactionExists(uint _loanID) {\r\n        require(_loanID > 0 && _loanID <= transactionCount);\r\n        _;\r\n    }\r\n\r\n    modifier notConfirmed(address addr,uint _loanID) {\r\n        require(!confirmations[addr][_loanID]);\r\n        _;\r\n    }\r\n\r\n    modifier validRequirement(uint signeeCount, uint _required) {\r\n        require(signeeCount <= MAX_SIGNEE_COUNT\r\n            && _required <= signeeCount\r\n            && _required != 0\r\n            && signeeCount != 0);\r\n        _;\r\n    }\r\n\r\n\r\nconstructor( address[N_COINS] memory _tokens , address _royale)public{\r\n        ownerAddress=msg.sender;\r\n        // Set Tokens supported by Pool\r\n        for(uint8 i=0; i<N_COINS; i++) {\r\n            tokens[i] = Erc20(_tokens[i]);\r\n            royale=RoyaleInterface(_royale);\r\n        }\r\n    }\r\n\r\n\r\n\r\n\r\n    /* Internal Functions */\r\n\r\n    function _addTransaction(\r\n       uint256[N_COINS] memory amounts\r\n    ) internal {\r\n        uint256[N_COINS] memory zero;\r\n\r\n        transactionCount++;\r\n        transactions[transactionCount] = Transaction({\r\n            transactionId: transactionCount,\r\n            iGamingCompany: msg.sender,\r\n            tokenAmounts: amounts,\r\n            remAmt: zero,\r\n            isGamingCompanySigned: false,\r\n            approved: false,\r\n            executed: false\r\n        });\r\n        \r\n    }\r\n\r\n   \r\n\r\n    function _approveLoan(uint _loanID) internal {\r\n        uint256[N_COINS] memory am=royale.getCurrentPoolBalance();\r\n         for(uint8 i=0;i<N_COINS;i++){\r\n            require(totalApprovedLoan[i]+transactions[_loanID].tokenAmounts[i]<am[i],\"Can not approve that much amount\");\r\n        }\r\n        transactions[_loanID].approved = true;\r\n        transactions[_loanID].remAmt = transactions[_loanID].tokenAmounts;\r\n        for(uint8 i=0;i<N_COINS;i++){\r\n            totalApprovedLoan[i] +=transactions[_loanID].tokenAmounts[i];\r\n        }\r\n        takenLoan[transactions[_loanID].iGamingCompany].push(_loanID);\r\n    }\r\n    \r\n\r\n\r\n\r\n    function _isConfirmed(\r\n        uint _loanID\r\n    ) internal view returns (bool) {\r\n        uint count = 0;\r\n        for (uint i=0; i<signees.length; i++) {\r\n            if (confirmations[signees[i]][_loanID])\r\n                count += 1;\r\n            if (count == required && transactions[_loanID].isGamingCompanySigned)\r\n                return true;\r\n        }\r\n    }\r\n\r\n  \r\n\r\n    /* USER FUNCTIONS (exposed to frontend) */\r\n\r\n    // Gaming platforms withdraw using this\r\n    function requestLoan(\r\n        uint256[N_COINS] calldata amounts\r\n    ) external returns(uint256) {\r\n       require(signees.length >= required, \"insufficient signees\");\r\n       _addTransaction(amounts);\r\n\r\n       emit loanRequested(msg.sender, amounts, transactionCount);\r\n    }\r\n\r\n  \r\n    \r\n    \r\n    // Gaming Platforms signs using this\r\n    function signTransaction(uint _loanID) public {\r\n        require(transactions[_loanID].iGamingCompany == msg.sender);\r\n        transactions[_loanID].isGamingCompanySigned = true;\r\n\r\n        emit signed(msg.sender, _loanID);\r\n\r\n        if(_isConfirmed(_loanID)) {\r\n           _approveLoan(_loanID);\r\n           emit approved(_loanID);\r\n        }\r\n    }\r\n    \r\n    // Signee signs using this\r\n    function confirmLoan(uint _loanID) public\r\n        signeeExists(msg.sender)\r\n        transactionExists(_loanID)\r\n        notConfirmed( msg.sender,_loanID) \r\n    {\r\n        confirmations[msg.sender][_loanID] = true;\r\n        \r\n        emit signed(msg.sender, _loanID);\r\n\r\n        if(_isConfirmed(_loanID)) {\r\n           _approveLoan(_loanID);\r\n           emit approved(_loanID);\r\n        }\r\n    }\r\n\r\n    \r\n\r\n    function getTransactionDetail(\r\n        uint _loanID\r\n    ) public view returns(Transaction memory){\r\n        return transactions[_loanID];\r\n    }\r\n\r\n    function checkLoanApproved(uint _loanID) external view returns(bool) {\r\n        return transactions[_loanID].approved;\r\n    }\r\n\r\n    /* Admin Function */\r\n    \r\n    function setRequiredSignee(\r\n        uint _required\r\n    ) public onlyOwner validRequirement(signees.length, _required) {\r\n        required = _required;\r\n\r\n        emit addedRequiredSignee(msg.sender, required);\r\n    }\r\n\r\n    function addSignee(address signee) public onlyOwner {\r\n        isSignee[signee] = true;\r\n        signees.push(signee);\r\n\r\n        emit signeeAdded(signee);\r\n    }\r\n    \r\n    function removeSignee(address signee) public onlyOwner signeeExists(signee) {\r\n        isSignee[signee] = false;\r\n        for (uint i=0; i<signees.length - 1; i++) {\r\n            if (signees[i] == signee) {\r\n                signees[i] = signees[signees.length - 1];\r\n                break;\r\n            }\r\n        }\r\n        \r\n        if (required > signees.length) {\r\n            required--;\r\n        }\r\n\r\n        emit signeeRemoved(signee);\r\n    } \r\n   function withdrawLoan( \r\n        uint256[N_COINS] calldata amounts,\r\n        uint _loanID\r\n    ) external {\r\n\r\n        require(transactions[_loanID].iGamingCompany == msg.sender, \"company not-exist\");\r\n        require(transactions[_loanID].approved, \"not approved for loan\");\r\n        \r\n        for(uint8 i=0; i<N_COINS; i++) {\r\n            require(\r\n                transactions[_loanID].remAmt[i] >= amounts[i], \r\n                \"amount requested exceeds amount approved\"\r\n            );\r\n        }\r\n        bool b= royale._loanWithdraw(amounts,transactions[_loanID].iGamingCompany);\r\n        require(b,\"Loan Withdraw not succesfull\");\r\n        uint8 check = 0;\r\n        for(uint8 i=0; i<N_COINS; i++) {\r\n            if(amounts[i] > 0) {\r\n            totalLoanTaken[i] +=amounts[i];\r\n             transactions[_loanID].remAmt[i] -= amounts[i];\r\n               \r\n            }\r\n            if(transactions[_loanID].remAmt[i] == 0) {\r\n                check++;\r\n            }\r\n        }\r\n\r\n        if(check == 3) {\r\n            // Loan fulfilled, company used all its loan\r\n            transactions[_loanID].executed = true;\r\n            gamingCompanyRepayment[_loanID] = Repayment({\r\n                  transactionID: _loanID,\r\n                  isRepaymentDone: false,\r\n                  remainingTokenAmounts: transactions[_loanID].tokenAmounts\r\n            });\r\n        }\r\n    } \r\n    \r\n    \r\n    function repaymentOfLoan(uint _loanId,uint256[N_COINS] calldata _amounts) external {\r\n            require(_loanId<=transactionCount, \"Enter Valid ID\");\r\n            require(transactions[_loanId].iGamingCompany==msg.sender, \"you have not taken this loan\");\r\n            require(!gamingCompanyRepayment[_loanId].isRepaymentDone, \"Already Repayment done\");\r\n            \r\n\r\n            bool b= royale._loanRepayment(_amounts,transactions[_loanId].iGamingCompany);\r\n            require(b,\"Loan Payment not succesfull\");\r\n            uint counter=0;\r\n            for(uint i=0;i<N_COINS;i++) {\r\n                if(_amounts[i]!=0) {\r\n                    totalLoanTaken[i] -=_amounts[i];\r\n                    totalApprovedLoan[i]-=_amounts[i];\r\n                    gamingCompanyRepayment[_loanId].remainingTokenAmounts[i] -= _amounts[i];\r\n                    if(gamingCompanyRepayment[_loanId].remainingTokenAmounts[i] == 0) {\r\n                        counter++;\r\n                    }\r\n                }\r\n            }\r\n\r\n            if(counter==3){\r\n                gamingCompanyRepayment[_loanId].isRepaymentDone=true;\r\n            }       \r\n    }\r\n    \r\n   \r\n\r\n   /* functions for UI */\r\n\r\n    function getTotalTakenLoan(uint8 _number)public view returns(uint){\r\n        return totalLoanTaken[_number];\r\n    }\r\n\r\n    function getTotalApprovedLoan(uint8 _number)public view returns(uint){\r\n        return totalApprovedLoan[_number];\r\n    }\r\n}",
  "sourcePath": "C:/Users/vishn/OneDrive/Desktop/TempRoyakle/rlp/contracts/MultiSig.sol",
  "compiler": {
    "name": "solc",
    "version": "0.6.12+commit.27d51765.Emscripten.clang"
  },
  "schemaVersion": "3.3.2",
  "updatedAt": "2020-12-14T06:50:09.566Z",
  "devdoc": {
    "kind": "dev",
    "methods": {},
    "version": 1
  },
  "userdoc": {
    "kind": "user",
    "methods": {},
    "version": 1
  }
}