{
  "contractName": "MultiSignature",
  "abi": [
    {
      "inputs": [],
      "stateMutability": "nonpayable",
      "type": "constructor"
    },
    {
      "anonymous": false,
      "inputs": [
        {
          "indexed": false,
          "internalType": "address",
          "name": "adder",
          "type": "address"
        },
        {
          "indexed": false,
          "internalType": "uint256",
          "name": "numberOfowners",
          "type": "uint256"
        }
      ],
      "name": "addedRequiredowner",
      "type": "event"
    },
    {
      "anonymous": false,
      "inputs": [
        {
          "indexed": false,
          "internalType": "address",
          "name": "owner",
          "type": "address"
        }
      ],
      "name": "ownerAdded",
      "type": "event"
    },
    {
      "anonymous": false,
      "inputs": [
        {
          "indexed": false,
          "internalType": "address",
          "name": "owner",
          "type": "address"
        }
      ],
      "name": "ownerRemoved",
      "type": "event"
    },
    {
      "inputs": [],
      "name": "MAX_OWNER_COUNT",
      "outputs": [
        {
          "internalType": "uint8",
          "name": "",
          "type": "uint8"
        }
      ],
      "stateMutability": "view",
      "type": "function"
    },
    {
      "inputs": [
        {
          "internalType": "uint8",
          "name": "_required",
          "type": "uint8"
        }
      ],
      "name": "setRequiredOwner",
      "outputs": [],
      "stateMutability": "nonpayable",
      "type": "function"
    },
    {
      "inputs": [
        {
          "internalType": "address",
          "name": "owner",
          "type": "address"
        }
      ],
      "name": "addOwner",
      "outputs": [],
      "stateMutability": "nonpayable",
      "type": "function"
    },
    {
      "inputs": [
        {
          "internalType": "address",
          "name": "owner",
          "type": "address"
        }
      ],
      "name": "removeOwner",
      "outputs": [],
      "stateMutability": "nonpayable",
      "type": "function"
    },
    {
      "inputs": [
        {
          "internalType": "address",
          "name": "owner",
          "type": "address"
        }
      ],
      "name": "checkOwner",
      "outputs": [
        {
          "internalType": "bool",
          "name": "",
          "type": "bool"
        }
      ],
      "stateMutability": "view",
      "type": "function"
    },
    {
      "inputs": [],
      "name": "getRequired",
      "outputs": [
        {
          "internalType": "uint8",
          "name": "",
          "type": "uint8"
        }
      ],
      "stateMutability": "view",
      "type": "function"
    },
    {
      "inputs": [],
      "name": "getNumberOfOwner",
      "outputs": [
        {
          "internalType": "uint256",
          "name": "",
          "type": "uint256"
        }
      ],
      "stateMutability": "view",
      "type": "function"
    },
    {
      "inputs": [
        {
          "internalType": "uint256",
          "name": "_index",
          "type": "uint256"
        }
      ],
      "name": "getOwner",
      "outputs": [
        {
          "internalType": "address",
          "name": "",
          "type": "address"
        }
      ],
      "stateMutability": "view",
      "type": "function"
    }
  ],
  "bytecode": "0x608060405234801561001057600080fd5b5060016000803373ffffffffffffffffffffffffffffffffffffffff1673ffffffffffffffffffffffffffffffffffffffff16815260200190815260200160002060006101000a81548160ff0219169083151502179055506001339080600181540180825580915050600190039060005260206000200160009091909190916101000a81548173ffffffffffffffffffffffffffffffffffffffff021916908373ffffffffffffffffffffffffffffffffffffffff160217905550610f2a806100da6000396000f3fe608060405234801561001057600080fd5b50600436106100885760003560e01c8063c41a360a1161005b578063c41a360a14610101578063d74f8edd14610131578063dd90ab751461014f578063e0e3671c1461016b57610088565b80631398a5f61461008d578063173825d9146100ab57806332601e7f146100c75780637065cb48146100e5575b600080fd5b61009561019b565b6040516100a29190610de6565b60405180910390f35b6100c560048036038101906100c09190610ab7565b6101b2565b005b6100cf610560565b6040516100dc9190610dcb565b60405180910390f35b6100ff60048036038101906100fa9190610ab7565b61056d565b005b61011b60048036038101906101169190610ae0565b610835565b6040516101289190610ccc565b60405180910390f35b610139610876565b6040516101469190610de6565b60405180910390f35b61016960048036038101906101649190610b09565b61087b565b005b61018560048036038101906101809190610ab7565b610a23565b6040516101929190610d10565b60405180910390f35b6000600260009054906101000a900460ff16905090565b336000808273ffffffffffffffffffffffffffffffffffffffff1673ffffffffffffffffffffffffffffffffffffffff16815260200190815260200160002060009054906101000a900460ff1661023e576040517f08c379a000000000000000000000000000000000000000000000000000000000815260040161023590610d2b565b60405180910390fd5b816000808273ffffffffffffffffffffffffffffffffffffffff1673ffffffffffffffffffffffffffffffffffffffff16815260200190815260200160002060009054906101000a900460ff166102ca576040517f08c379a00000000000000000000000000000000000000000000000000000000081526004016102c190610d2b565b60405180910390fd5b60018080549050036000811415610316576040517f08c379a000000000000000000000000000000000000000000000000000000000815260040161030d90610d8b565b60405180910390fd5b60008060008673ffffffffffffffffffffffffffffffffffffffff1673ffffffffffffffffffffffffffffffffffffffff16815260200190815260200160002060006101000a81548160ff02191690831515021790555060005b600180805490500381101561048f578473ffffffffffffffffffffffffffffffffffffffff16600182815481106103a357fe5b9060005260206000200160009054906101000a900473ffffffffffffffffffffffffffffffffffffffff1673ffffffffffffffffffffffffffffffffffffffff16141561048257600180808054905003815481106103fd57fe5b9060005260206000200160009054906101000a900473ffffffffffffffffffffffffffffffffffffffff166001828154811061043557fe5b9060005260206000200160006101000a81548173ffffffffffffffffffffffffffffffffffffffff021916908373ffffffffffffffffffffffffffffffffffffffff16021790555061048f565b8080600101915050610370565b50600180548061049b57fe5b6001900381819060005260206000200160006101000a81549073ffffffffffffffffffffffffffffffffffffffff02191690559055600180549050600260009054906101000a900460ff1660ff161115610523576002600081819054906101000a900460ff16809291906001900391906101000a81548160ff021916908360ff160217905550505b7f839c3949c3979499299683cc9d04485ea754bc389b14e057e2af661178985b02846040516105529190610ccc565b60405180910390a150505050565b6000600180549050905090565b806000808273ffffffffffffffffffffffffffffffffffffffff1673ffffffffffffffffffffffffffffffffffffffff16815260200190815260200160002060009054906101000a900460ff16156105fa576040517f08c379a00000000000000000000000000000000000000000000000000000000081526004016105f190610dab565b60405180910390fd5b336000808273ffffffffffffffffffffffffffffffffffffffff1673ffffffffffffffffffffffffffffffffffffffff16815260200190815260200160002060009054906101000a900460ff16610686576040517f08c379a000000000000000000000000000000000000000000000000000000000815260040161067d90610d2b565b60405180910390fd5b6001808054905001600260009054906101000a900460ff16603260ff1682111580156106b55750818160ff1611155b80156106c2575060008214155b610701576040517f08c379a00000000000000000000000000000000000000000000000000000000081526004016106f890610d4b565b60405180910390fd5b84600073ffffffffffffffffffffffffffffffffffffffff168173ffffffffffffffffffffffffffffffffffffffff16141561073c57600080fd5b60016000808873ffffffffffffffffffffffffffffffffffffffff1673ffffffffffffffffffffffffffffffffffffffff16815260200190815260200160002060006101000a81548160ff0219169083151502179055506001869080600181540180825580915050600190039060005260206000200160009091909190916101000a81548173ffffffffffffffffffffffffffffffffffffffff021916908373ffffffffffffffffffffffffffffffffffffffff1602179055507ff384ffe7ff07c73bc1e2feccdbd24caca828c137bb17e89da2a3b7186cd5f63f866040516108259190610ccc565b60405180910390a1505050505050565b60006001828154811061084457fe5b9060005260206000200160009054906101000a900473ffffffffffffffffffffffffffffffffffffffff169050919050565b603281565b336000808273ffffffffffffffffffffffffffffffffffffffff1673ffffffffffffffffffffffffffffffffffffffff16815260200190815260200160002060009054906101000a900460ff16610907576040517f08c379a00000000000000000000000000000000000000000000000000000000081526004016108fe90610d2b565b60405180910390fd5b8160008160ff16141561094f576040517f08c379a000000000000000000000000000000000000000000000000000000000815260040161094690610d6b565b60405180910390fd5b60018054905083603260ff16821115801561096d5750818160ff1611155b801561097a575060008214155b6109b9576040517f08c379a00000000000000000000000000000000000000000000000000000000081526004016109b090610d4b565b60405180910390fd5b84600260006101000a81548160ff021916908360ff1602179055507fc2bbb97c0aa280118d3f630e812254425dbb662c019b00fae567e58096ce3bf033600260009054906101000a900460ff16604051610a14929190610ce7565b60405180910390a15050505050565b60008060008373ffffffffffffffffffffffffffffffffffffffff1673ffffffffffffffffffffffffffffffffffffffff16815260200190815260200160002060009054906101000a900460ff169050919050565b600081359050610a8781610eaf565b92915050565b600081359050610a9c81610ec6565b92915050565b600081359050610ab181610edd565b92915050565b600060208284031215610ac957600080fd5b6000610ad784828501610a78565b91505092915050565b600060208284031215610af257600080fd5b6000610b0084828501610a8d565b91505092915050565b600060208284031215610b1b57600080fd5b6000610b2984828501610aa2565b91505092915050565b610b3b81610e67565b82525050565b610b4a81610e12565b82525050565b610b5981610e24565b82525050565b6000610b6c600f83610e01565b91507f6f776e6572206e6f7420657869737400000000000000000000000000000000006000830152602082019050919050565b6000610bac601583610e01565b91507f4e6f742073756666696369656e74206f776e65727300000000000000000000006000830152602082019050919050565b6000610bec601b83610e01565b91507f726571756972656d656e742063616e206e6f74206265207a65726f00000000006000830152602082019050919050565b6000610c2c601583610e01565b91507f6f776e65722063616e206e6f74206265207a65726f00000000000000000000006000830152602082019050919050565b6000610c6c601383610e01565b91507f6f776e657220616c7265616479206164646564000000000000000000000000006000830152602082019050919050565b610ca881610e50565b82525050565b610cb781610e9d565b82525050565b610cc681610e5a565b82525050565b6000602082019050610ce16000830184610b41565b92915050565b6000604082019050610cfc6000830185610b32565b610d096020830184610cae565b9392505050565b6000602082019050610d256000830184610b50565b92915050565b60006020820190508181036000830152610d4481610b5f565b9050919050565b60006020820190508181036000830152610d6481610b9f565b9050919050565b60006020820190508181036000830152610d8481610bdf565b9050919050565b60006020820190508181036000830152610da481610c1f565b9050919050565b60006020820190508181036000830152610dc481610c5f565b9050919050565b6000602082019050610de06000830184610c9f565b92915050565b6000602082019050610dfb6000830184610cbd565b92915050565b600082825260208201905092915050565b6000610e1d82610e30565b9050919050565b60008115159050919050565b600073ffffffffffffffffffffffffffffffffffffffff82169050919050565b6000819050919050565b600060ff82169050919050565b6000610e7282610e79565b9050919050565b6000610e8482610e8b565b9050919050565b6000610e9682610e30565b9050919050565b6000610ea882610e5a565b9050919050565b610eb881610e12565b8114610ec357600080fd5b50565b610ecf81610e50565b8114610eda57600080fd5b50565b610ee681610e5a565b8114610ef157600080fd5b5056fea264697066735822122058f0fd595e47479e95dface55f2bc32bf98060e6a82e63b2d45a32649cc1087964736f6c634300060c0033",
  "immutableReferences": {},
  "source": "// SPDX-License-Identifier: UNLICENSED\r\npragma solidity ^0.6.0;\r\npragma experimental ABIEncoderV2;\r\n\r\ncontract MultiSignature{\r\n    uint8 constant public MAX_OWNER_COUNT = 50;\r\n\r\n    mapping(address => bool) isOwner;\r\n    address[]  owners;\r\n    uint8  required;\r\n\r\n    event ownerAdded(\r\n        address owner\r\n    );\r\n\r\n    event ownerRemoved(\r\n        address owner\r\n    );\r\n\r\n    event addedRequiredowner(\r\n        address adder,\r\n        uint numberOfowners\r\n    );\r\n\r\n    modifier ownerExists(address owner) {\r\n        require(isOwner[owner],\"owner not exist\");\r\n        _;\r\n    }\r\n    \r\n    modifier ownerDoesNotExist(address owner) {\r\n        require(!isOwner[owner],\"owner already added\");\r\n        _;\r\n    }\r\n    \r\n     modifier notNull(address _address) {\r\n        require(_address != address(0));\r\n        _;\r\n    }\r\n\r\n     modifier validRequirement(uint ownerCount, uint8 _required) {\r\n        require(ownerCount <=MAX_OWNER_COUNT\r\n            && _required <= ownerCount\r\n            && ownerCount != 0,\"Not sufficient owners\");\r\n        _;\r\n    }\r\n\r\n    modifier ZeroOwner(uint ownerCount){\r\n        require(ownerCount!=0,\"owner can not be zero\");\r\n        _;\r\n    }\r\n\r\n      modifier ZeroRequired(uint8 _required){\r\n        require(_required!=0,\"requirement can not be zero\");\r\n        _;\r\n    }\r\n\r\n    constructor() public{\r\n        isOwner[msg.sender] = true;\r\n        owners.push(msg.sender);\r\n    }\r\n\r\n    function setRequiredOwner(\r\n        uint8 _required\r\n    ) public ownerExists(msg.sender) ZeroRequired(_required) validRequirement(owners.length, _required) {\r\n        required = _required;\r\n\r\n        emit addedRequiredowner(msg.sender, required);\r\n    }\r\n\r\n   \r\n    function addOwner(address owner)\r\n    public\r\n    ownerDoesNotExist(owner) \r\n    ownerExists(msg.sender)\r\n    validRequirement(owners.length + 1, required)\r\n    notNull(owner)\r\n    {\r\n    \r\n        isOwner[owner] = true;\r\n        owners.push(owner);\r\n        emit ownerAdded(owner);\r\n    }\r\n    \r\n    function removeOwner(address owner) \r\n    public \r\n    ownerExists(msg.sender) \r\n    ownerExists(owner) \r\n    ZeroOwner(owners.length - 1)\r\n    {\r\n        \r\n        isOwner[owner] = false;\r\n        for (uint i=0; i<owners.length - 1; i++) {\r\n            if (owners[i] == owner) {\r\n                owners[i] = owners[owners.length - 1];\r\n                break;\r\n            }\r\n        }\r\n        owners.pop();\r\n        \r\n        if (required > owners.length) {\r\n            required--;\r\n        }\r\n\r\n        emit ownerRemoved(owner);\r\n    } \r\n    \r\n    function checkOwner(address owner)public view returns(bool){\r\n        return isOwner[owner];\r\n    }\r\n    \r\n    function getRequired()public view returns(uint8){\r\n        return required;\r\n    }\r\n    \r\n    function getNumberOfOwner()public view returns(uint){\r\n        return owners.length;\r\n    }\r\n    \r\n    function getOwner(uint _index)public view returns(address){\r\n        return owners[_index];\r\n    }\r\n}",
  "sourcePath": "C:/Users/MayankVats/Desktop/WORK/blockchain/Royale/rlp/contracts/MultiSignature.sol",
  "compiler": {
    "name": "solc",
    "version": "0.6.12+commit.27d51765.Emscripten.clang"
  },
  "schemaVersion": "3.3.2",
  "updatedAt": "2021-01-06T10:05:20.845Z",
  "devdoc": {
    "kind": "dev",
    "methods": {},
    "version": 1
  },
  "userdoc": {
    "kind": "user",
    "methods": {},
    "version": 1
  }
}