{
  "contractName": "multiSig",
  "abi": [
    {
      "anonymous": false,
      "inputs": [
        {
          "indexed": false,
          "internalType": "address",
          "name": "adder",
          "type": "address"
        },
        {
          "indexed": false,
          "internalType": "uint256",
          "name": "numberOfSignees",
          "type": "uint256"
        }
      ],
      "name": "addedRequiredSignee",
      "type": "event"
    },
    {
      "anonymous": false,
      "inputs": [
        {
          "indexed": false,
          "internalType": "uint256",
          "name": "loanID",
          "type": "uint256"
        }
      ],
      "name": "approved",
      "type": "event"
    },
    {
      "anonymous": false,
      "inputs": [
        {
          "indexed": false,
          "internalType": "address",
          "name": "by",
          "type": "address"
        },
        {
          "indexed": false,
          "internalType": "uint256[3]",
          "name": "amounts",
          "type": "uint256[3]"
        },
        {
          "indexed": false,
          "internalType": "uint256",
          "name": "loanID",
          "type": "uint256"
        }
      ],
      "name": "loanRequested",
      "type": "event"
    },
    {
      "anonymous": false,
      "inputs": [
        {
          "indexed": false,
          "internalType": "address",
          "name": "signee",
          "type": "address"
        },
        {
          "indexed": false,
          "internalType": "uint256",
          "name": "loanID",
          "type": "uint256"
        }
      ],
      "name": "signed",
      "type": "event"
    },
    {
      "anonymous": false,
      "inputs": [
        {
          "indexed": false,
          "internalType": "address",
          "name": "signee",
          "type": "address"
        }
      ],
      "name": "signeeAdded",
      "type": "event"
    },
    {
      "anonymous": false,
      "inputs": [
        {
          "indexed": false,
          "internalType": "address",
          "name": "signee",
          "type": "address"
        }
      ],
      "name": "signeeRemoved",
      "type": "event"
    },
    {
      "inputs": [],
      "name": "MAX_SIGNEE_COUNT",
      "outputs": [
        {
          "internalType": "uint256",
          "name": "",
          "type": "uint256"
        }
      ],
      "stateMutability": "view",
      "type": "function"
    },
    {
      "inputs": [
        {
          "internalType": "uint256",
          "name": "",
          "type": "uint256"
        }
      ],
      "name": "YieldPoolBalance",
      "outputs": [
        {
          "internalType": "uint256",
          "name": "",
          "type": "uint256"
        }
      ],
      "stateMutability": "view",
      "type": "function"
    },
    {
      "inputs": [
        {
          "internalType": "address",
          "name": "",
          "type": "address"
        },
        {
          "internalType": "uint256",
          "name": "",
          "type": "uint256"
        }
      ],
      "name": "confirmations",
      "outputs": [
        {
          "internalType": "bool",
          "name": "",
          "type": "bool"
        }
      ],
      "stateMutability": "view",
      "type": "function"
    },
    {
      "inputs": [],
      "name": "fees",
      "outputs": [
        {
          "internalType": "uint128",
          "name": "",
          "type": "uint128"
        }
      ],
      "stateMutability": "view",
      "type": "function"
    },
    {
      "inputs": [
        {
          "internalType": "address",
          "name": "",
          "type": "address"
        }
      ],
      "name": "isInQ",
      "outputs": [
        {
          "internalType": "bool",
          "name": "",
          "type": "bool"
        }
      ],
      "stateMutability": "view",
      "type": "function"
    },
    {
      "inputs": [
        {
          "internalType": "address",
          "name": "",
          "type": "address"
        }
      ],
      "name": "isSignee",
      "outputs": [
        {
          "internalType": "bool",
          "name": "",
          "type": "bool"
        }
      ],
      "stateMutability": "view",
      "type": "function"
    },
    {
      "inputs": [],
      "name": "lock_period",
      "outputs": [
        {
          "internalType": "uint128",
          "name": "",
          "type": "uint128"
        }
      ],
      "stateMutability": "view",
      "type": "function"
    },
    {
      "inputs": [],
      "name": "owner",
      "outputs": [
        {
          "internalType": "address",
          "name": "",
          "type": "address"
        }
      ],
      "stateMutability": "view",
      "type": "function"
    },
    {
      "inputs": [],
      "name": "poolPart",
      "outputs": [
        {
          "internalType": "uint128",
          "name": "",
          "type": "uint128"
        }
      ],
      "stateMutability": "view",
      "type": "function"
    },
    {
      "inputs": [],
      "name": "required",
      "outputs": [
        {
          "internalType": "uint256",
          "name": "",
          "type": "uint256"
        }
      ],
      "stateMutability": "view",
      "type": "function"
    },
    {
      "inputs": [
        {
          "internalType": "uint256",
          "name": "",
          "type": "uint256"
        }
      ],
      "name": "selfBalance",
      "outputs": [
        {
          "internalType": "uint256",
          "name": "",
          "type": "uint256"
        }
      ],
      "stateMutability": "view",
      "type": "function"
    },
    {
      "inputs": [
        {
          "internalType": "uint256",
          "name": "",
          "type": "uint256"
        }
      ],
      "name": "signees",
      "outputs": [
        {
          "internalType": "address",
          "name": "",
          "type": "address"
        }
      ],
      "stateMutability": "view",
      "type": "function"
    },
    {
      "inputs": [],
      "name": "thresholdTokenAmount",
      "outputs": [
        {
          "internalType": "uint256",
          "name": "",
          "type": "uint256"
        }
      ],
      "stateMutability": "view",
      "type": "function"
    },
    {
      "inputs": [
        {
          "internalType": "uint256",
          "name": "",
          "type": "uint256"
        }
      ],
      "name": "totalWithdraw",
      "outputs": [
        {
          "internalType": "uint256",
          "name": "",
          "type": "uint256"
        }
      ],
      "stateMutability": "view",
      "type": "function"
    },
    {
      "inputs": [],
      "name": "transactionCount",
      "outputs": [
        {
          "internalType": "uint256",
          "name": "",
          "type": "uint256"
        }
      ],
      "stateMutability": "view",
      "type": "function"
    },
    {
      "inputs": [
        {
          "internalType": "uint256",
          "name": "",
          "type": "uint256"
        }
      ],
      "name": "transactions",
      "outputs": [
        {
          "internalType": "uint256",
          "name": "transactionId",
          "type": "uint256"
        },
        {
          "internalType": "address",
          "name": "iGamingCompany",
          "type": "address"
        },
        {
          "internalType": "bool",
          "name": "isGamingCompanySigned",
          "type": "bool"
        },
        {
          "internalType": "bool",
          "name": "approved",
          "type": "bool"
        },
        {
          "internalType": "bool",
          "name": "executed",
          "type": "bool"
        }
      ],
      "stateMutability": "view",
      "type": "function"
    },
    {
      "inputs": [
        {
          "internalType": "uint256[3]",
          "name": "amounts",
          "type": "uint256[3]"
        }
      ],
      "name": "requestLoan",
      "outputs": [
        {
          "internalType": "uint256",
          "name": "",
          "type": "uint256"
        }
      ],
      "stateMutability": "nonpayable",
      "type": "function"
    },
    {
      "inputs": [
        {
          "internalType": "uint256",
          "name": "_loanID",
          "type": "uint256"
        }
      ],
      "name": "signTransaction",
      "outputs": [],
      "stateMutability": "nonpayable",
      "type": "function"
    },
    {
      "inputs": [
        {
          "internalType": "uint256",
          "name": "_loanID",
          "type": "uint256"
        }
      ],
      "name": "confirmLoan",
      "outputs": [],
      "stateMutability": "nonpayable",
      "type": "function"
    },
    {
      "inputs": [
        {
          "internalType": "uint256",
          "name": "_loanID",
          "type": "uint256"
        }
      ],
      "name": "getTransactionDetail",
      "outputs": [
        {
          "components": [
            {
              "internalType": "uint256",
              "name": "transactionId",
              "type": "uint256"
            },
            {
              "internalType": "address",
              "name": "iGamingCompany",
              "type": "address"
            },
            {
              "internalType": "bool",
              "name": "isGamingCompanySigned",
              "type": "bool"
            },
            {
              "internalType": "uint256[3]",
              "name": "tokenAmounts",
              "type": "uint256[3]"
            },
            {
              "internalType": "uint256[3]",
              "name": "remAmt",
              "type": "uint256[3]"
            },
            {
              "internalType": "bool",
              "name": "approved",
              "type": "bool"
            },
            {
              "internalType": "bool",
              "name": "executed",
              "type": "bool"
            }
          ],
          "internalType": "struct RoyaleLPstorage.Transaction",
          "name": "",
          "type": "tuple"
        }
      ],
      "stateMutability": "view",
      "type": "function"
    },
    {
      "inputs": [
        {
          "internalType": "uint256",
          "name": "_loanID",
          "type": "uint256"
        }
      ],
      "name": "checkLoanApproved",
      "outputs": [
        {
          "internalType": "bool",
          "name": "",
          "type": "bool"
        }
      ],
      "stateMutability": "view",
      "type": "function"
    },
    {
      "inputs": [
        {
          "internalType": "uint256",
          "name": "_required",
          "type": "uint256"
        }
      ],
      "name": "setRequiredSignee",
      "outputs": [],
      "stateMutability": "nonpayable",
      "type": "function"
    },
    {
      "inputs": [
        {
          "internalType": "address",
          "name": "signee",
          "type": "address"
        }
      ],
      "name": "addSignee",
      "outputs": [],
      "stateMutability": "nonpayable",
      "type": "function"
    },
    {
      "inputs": [
        {
          "internalType": "address",
          "name": "signee",
          "type": "address"
        }
      ],
      "name": "removeSignee",
      "outputs": [],
      "stateMutability": "nonpayable",
      "type": "function"
    }
  ],
  "bytecode": "0x60806040526001805560006002556019600460006101000a8154816fffffffffffffffffffffffffffffffff02191690836fffffffffffffffffffffffffffffffff160217905550605f600460106101000a8154816fffffffffffffffffffffffffffffffff02191690836fffffffffffffffffffffffffffffffff1602179055506101f4601155600060215534801561009857600080fd5b50611b23806100a86000396000f3fe608060405234801561001057600080fd5b50600436106101585760003560e01c80639af1d35a116100c3578063c89eb0361161007c578063c89eb03614610403578063d80a93d614610421578063db28bfd014610451578063dc8452cd14610481578063f83e9a201461049f578063f84fd9ef146104bd57610158565b80639af1d35a1461032f5780639b3641621461034d5780639ff512fa14610369578063ae8df6a614610399578063b0580ce9146103c9578063b77bf600146103e557610158565b806362a945d11161011557806362a945d11461022f578063698504241461025f5780638da5cb5b1461028f5780638e9b0326146102ad578063905f692e146102cb5780639ace38c2146102fb57610158565b80630385b5811461015d578063049713671461018d5780630f8cdd88146101a95780631880432a146101c557806331805a2b146101e35780635d9ec21014610213575b600080fd5b610177600480360381019061017291906115fe565b6104ed565b60405161018491906118f8565b60405180910390f35b6101a760048036038101906101a2919061168c565b61050d565b005b6101c360048036038101906101be91906115fe565b6106e2565b005b6101cd610831565b6040516101da919061196a565b60405180910390f35b6101fd60048036038101906101f8919061168c565b610836565b60405161020a919061196a565b60405180910390f35b61022d6004803603810190610228919061168c565b61084e565b005b61024960048036038101906102449190611663565b610976565b604051610256919061196a565b60405180910390f35b6102796004803603810190610274919061168c565b610a44565b604051610286919061196a565b60405180910390f35b610297610a5c565b6040516102a4919061187d565b60405180910390f35b6102b5610a82565b6040516102c2919061194f565b60405180910390f35b6102e560048036038101906102e091906115fe565b610aa4565b6040516102f291906118f8565b60405180910390f35b6103156004803603810190610310919061168c565b610ac4565b604051610326959493929190611985565b60405180910390f35b610337610b41565b604051610344919061194f565b60405180910390f35b610367600480360381019061036291906115fe565b610b63565b005b610383600480360381019061037e919061168c565b610deb565b6040516103909190611933565b60405180910390f35b6103b360048036038101906103ae919061168c565b610f53565b6040516103c091906118f8565b60405180910390f35b6103e360048036038101906103de919061168c565b610f80565b005b6103ed61105c565b6040516103fa919061196a565b60405180910390f35b61040b611062565b604051610418919061196a565b60405180910390f35b61043b6004803603810190610436919061168c565b611068565b604051610448919061187d565b60405180910390f35b61046b6004803603810190610466919061168c565b6110a4565b604051610478919061196a565b60405180910390f35b6104896110bc565b604051610496919061196a565b60405180910390f35b6104a76110c2565b6040516104b4919061194f565b60405180910390f35b6104d760048036038101906104d29190611627565b6110e4565b6040516104e491906118f8565b60405180910390f35b601e6020528060005260406000206000915054906101000a900460ff1681565b33601e60008273ffffffffffffffffffffffffffffffffffffffff1673ffffffffffffffffffffffffffffffffffffffff16815260200190815260200160002060009054906101000a900460ff1661056457600080fd5b8160008111801561057757506021548111155b61058057600080fd5b3383601c60008373ffffffffffffffffffffffffffffffffffffffff1673ffffffffffffffffffffffffffffffffffffffff168152602001908152602001600020600082815260200190815260200160002060009054906101000a900460ff16156105ea57600080fd5b6001601c60003373ffffffffffffffffffffffffffffffffffffffff1673ffffffffffffffffffffffffffffffffffffffff168152602001908152602001600020600087815260200190815260200160002060006101000a81548160ff0219169083151502179055507f24e5bfa739656f6dd56210dbd8ccbfdabcae46f85752164562c69dffd61a320b33866040516106849291906118cf565b60405180910390a161069585611113565b156106db576106a385611221565b7f7d4061e68fab364906497bb959d95ad3f052a3978fed6ce9942a2b8f737aae54856040516106d2919061196a565b60405180910390a15b5050505050565b600960009054906101000a900473ffffffffffffffffffffffffffffffffffffffff1673ffffffffffffffffffffffffffffffffffffffff163373ffffffffffffffffffffffffffffffffffffffff161461073c57600080fd5b6001601e60008373ffffffffffffffffffffffffffffffffffffffff1673ffffffffffffffffffffffffffffffffffffffff16815260200190815260200160002060006101000a81548160ff0219169083151502179055506020819080600181540180825580915050600190039060005260206000200160009091909190916101000a81548173ffffffffffffffffffffffffffffffffffffffff021916908373ffffffffffffffffffffffffffffffffffffffff1602179055507fa0aa61ae85a95577b5775982299a5bfc418ef90f41d6bb03a7f2d5a6f7738eaf81604051610826919061187d565b60405180910390a150565b603281565b600e816003811061084357fe5b016000915090505481565b3373ffffffffffffffffffffffffffffffffffffffff16601b600083815260200190815260200160002060010160009054906101000a900473ffffffffffffffffffffffffffffffffffffffff1673ffffffffffffffffffffffffffffffffffffffff16146108bc57600080fd5b6001601b600083815260200190815260200160002060010160146101000a81548160ff0219169083151502179055507f24e5bfa739656f6dd56210dbd8ccbfdabcae46f85752164562c69dffd61a320b338260405161091c9291906118cf565b60405180910390a161092d81611113565b156109735761093b81611221565b7f7d4061e68fab364906497bb959d95ad3f052a3978fed6ce9942a2b8f737aae548160405161096a919061196a565b60405180910390a15b50565b600060225460208054905010156109c2576040517f08c379a00000000000000000000000000000000000000000000000000000000081526004016109b990611913565b60405180910390fd5b610a02826003806020026040519081016040528092919082600360200280828437600081840152601f19601f82011690508083019250505050505061132a565b7f6825b4653b0626e0268f9c124dce0ea5cc6f826ccb2cf314459bd1c62cf011f73383602154604051610a3793929190611898565b60405180910390a1919050565b60058160038110610a5157fe5b016000915090505481565b600960009054906101000a900473ffffffffffffffffffffffffffffffffffffffff1681565b600460109054906101000a90046fffffffffffffffffffffffffffffffff1681565b60166020528060005260406000206000915054906101000a900460ff1681565b601b6020528060005260406000206000915090508060000154908060010160009054906101000a900473ffffffffffffffffffffffffffffffffffffffff16908060010160149054906101000a900460ff16908060080160009054906101000a900460ff16908060080160019054906101000a900460ff16905085565b600460009054906101000a90046fffffffffffffffffffffffffffffffff1681565b600960009054906101000a900473ffffffffffffffffffffffffffffffffffffffff1673ffffffffffffffffffffffffffffffffffffffff163373ffffffffffffffffffffffffffffffffffffffff1614610bbd57600080fd5b80601e60008273ffffffffffffffffffffffffffffffffffffffff1673ffffffffffffffffffffffffffffffffffffffff16815260200190815260200160002060009054906101000a900460ff16610c1457600080fd5b6000601e60008473ffffffffffffffffffffffffffffffffffffffff1673ffffffffffffffffffffffffffffffffffffffff16815260200190815260200160002060006101000a81548160ff02191690831515021790555060005b600160208054905003811015610d91578273ffffffffffffffffffffffffffffffffffffffff1660208281548110610ca357fe5b9060005260206000200160009054906101000a900473ffffffffffffffffffffffffffffffffffffffff1673ffffffffffffffffffffffffffffffffffffffff161415610d8457602060016020805490500381548110610cff57fe5b9060005260206000200160009054906101000a900473ffffffffffffffffffffffffffffffffffffffff1660208281548110610d3757fe5b9060005260206000200160006101000a81548173ffffffffffffffffffffffffffffffffffffffff021916908373ffffffffffffffffffffffffffffffffffffffff160217905550610d91565b8080600101915050610c6f565b506020805490506022541115610db057610daf602080549050610f80565b5b7f95cd0920c0aa5e5da987ebe563a4f26fc5143a4c65e89cc8b1b3a23e2d7fa5ff82604051610ddf919061187d565b60405180910390a15050565b610df3611495565b601b60008381526020019081526020016000206040518060e0016040529081600082015481526020016001820160009054906101000a900473ffffffffffffffffffffffffffffffffffffffff1673ffffffffffffffffffffffffffffffffffffffff1673ffffffffffffffffffffffffffffffffffffffff1681526020016001820160149054906101000a900460ff1615151515815260200160028201600380602002604051908101604052809291908260038015610ec8576020028201915b815481526020019060010190808311610eb4575b5050505050815260200160058201600380602002604051908101604052809291908260038015610f0d576020028201915b815481526020019060010190808311610ef9575b505050505081526020016008820160009054906101000a900460ff161515151581526020016008820160019054906101000a900460ff1615151515815250509050919050565b6000601b600083815260200190815260200160002060080160009054906101000a900460ff169050919050565b600960009054906101000a900473ffffffffffffffffffffffffffffffffffffffff1673ffffffffffffffffffffffffffffffffffffffff163373ffffffffffffffffffffffffffffffffffffffff1614610fda57600080fd5b6020805490508160328211158015610ff25750818111155b8015610fff575060008114155b801561100c575060008214155b61101557600080fd5b826022819055507f3eeb9a927605685a0c44838616e4c196655b47d4019656c814bbf5743d1e25cc3360225460405161104f9291906118cf565b60405180910390a1505050565b60215481565b60115481565b6020818154811061107557fe5b906000526020600020016000915054906101000a900473ffffffffffffffffffffffffffffffffffffffff1681565b601881600381106110b157fe5b016000915090505481565b60225481565b601260009054906101000a90046fffffffffffffffffffffffffffffffff1681565b601c6020528160005260406000206020528060005260406000206000915091509054906101000a900460ff1681565b6000806000905060005b60208054905081101561121957601c60006020838154811061113b57fe5b9060005260206000200160009054906101000a900473ffffffffffffffffffffffffffffffffffffffff1673ffffffffffffffffffffffffffffffffffffffff1673ffffffffffffffffffffffffffffffffffffffff168152602001908152602001600020600085815260200190815260200160002060009054906101000a900460ff16156111cb576001820191505b602254821480156111fc5750601b600085815260200190815260200160002060010160149054906101000a900460ff165b1561120c5760019250505061121c565b808060010191505061111d565b50505b919050565b6001601b600083815260200190815260200160002060080160006101000a81548160ff021916908315150217905550601b6000828152602001908152602001600020600201601b600083815260200190815260200160002060050190600361128a9291906114fa565b50601f6000601b600084815260200190815260200160002060010160009054906101000a900473ffffffffffffffffffffffffffffffffffffffff1673ffffffffffffffffffffffffffffffffffffffff1673ffffffffffffffffffffffffffffffffffffffff16815260200190815260200160002081908060018154018082558091505060019003906000526020600020016000909190919091505550565b611332611537565b6021600081548092919060010191905055506040518060e0016040528060215481526020013373ffffffffffffffffffffffffffffffffffffffff16815260200160001515815260200183815260200182815260200160001515815260200160001515815250601b600060215481526020019081526020016000206000820151816000015560208201518160010160006101000a81548173ffffffffffffffffffffffffffffffffffffffff021916908373ffffffffffffffffffffffffffffffffffffffff16021790555060408201518160010160146101000a81548160ff021916908315150217905550606082015181600201906003611435929190611559565b5060808201518160050190600361144d929190611559565b5060a08201518160080160006101000a81548160ff02191690831515021790555060c08201518160080160016101000a81548160ff0219169083151502179055509050505050565b6040518060e0016040528060008152602001600073ffffffffffffffffffffffffffffffffffffffff1681526020016000151581526020016114d5611537565b81526020016114e2611537565b81526020016000151581526020016000151581525090565b8260038101928215611526579182015b8281111561152557825482559160010191906001019061150a565b5b5090506115339190611599565b5090565b6040518060600160405280600390602082028036833780820191505090505090565b8260038101928215611588579160200282015b8281111561158757825182559160200191906001019061156c565b5b5090506115959190611599565b5090565b5b808211156115b257600081600090555060010161159a565b5090565b6000813590506115c581611abf565b92915050565b6000819050826020600302820111156115e357600080fd5b92915050565b6000813590506115f881611ad6565b92915050565b60006020828403121561161057600080fd5b600061161e848285016115b6565b91505092915050565b6000806040838503121561163a57600080fd5b6000611648858286016115b6565b9250506020611659858286016115e9565b9150509250929050565b60006060828403121561167557600080fd5b6000611683848285016115cb565b91505092915050565b60006020828403121561169e57600080fd5b60006116ac848285016115e9565b91505092915050565b60006116c1838361185f565b60208301905092915050565b6116d681611a7a565b82525050565b6116e581611a16565b82525050565b6116f481611a16565b82525050565b61170660608383611ab0565b5050565b611713816119e2565b61171d81846119fa565b9250611728826119d8565b8060005b8381101561175957815161174087826116b5565b965061174b836119ed565b92505060018101905061172c565b505050505050565b61176a81611a28565b82525050565b61177981611a28565b82525050565b600061178c601483611a05565b91507f696e73756666696369656e74207369676e6565730000000000000000000000006000830152602082019050919050565b610160820160008201516117d6600085018261185f565b5060208201516117e960208501826116dc565b5060408201516117fc6040850182611761565b50606082015161180f606085018261170a565b50608082015161182260c085018261170a565b5060a0820151611836610120850182611761565b5060c082015161184a610140850182611761565b50505050565b61185981611a34565b82525050565b61186881611a70565b82525050565b61187781611a70565b82525050565b600060208201905061189260008301846116eb565b92915050565b600060a0820190506118ad60008301866116cd565b6118ba60208301856116fa565b6118c7608083018461186e565b949350505050565b60006040820190506118e460008301856116cd565b6118f1602083018461186e565b9392505050565b600060208201905061190d6000830184611770565b92915050565b6000602082019050818103600083015261192c8161177f565b9050919050565b60006101608201905061194960008301846117bf565b92915050565b60006020820190506119646000830184611850565b92915050565b600060208201905061197f600083018461186e565b92915050565b600060a08201905061199a600083018861186e565b6119a760208301876116eb565b6119b46040830186611770565b6119c16060830185611770565b6119ce6080830184611770565b9695505050505050565b6000819050919050565b600060039050919050565b6000602082019050919050565b600081905092915050565b600082825260208201905092915050565b6000611a2182611a50565b9050919050565b60008115159050919050565b60006fffffffffffffffffffffffffffffffff82169050919050565b600073ffffffffffffffffffffffffffffffffffffffff82169050919050565b6000819050919050565b6000611a8582611a8c565b9050919050565b6000611a9782611a9e565b9050919050565b6000611aa982611a50565b9050919050565b82818337600083830152505050565b611ac881611a16565b8114611ad357600080fd5b50565b611adf81611a70565b8114611aea57600080fd5b5056fea2646970667358221220735fa745b0b1a7712e50359403f321cfc10dca3cff71c0ef65ad2216fbd4bfc664736f6c634300060c0033",
  "immutableReferences": {},
  "source": "// SPDX-License-Identifier: UNLICENSED\r\npragma solidity ^0.6.0;\r\npragma experimental ABIEncoderV2;\r\n\r\nimport './Interfaces/Erc20Interface.sol';\r\nimport './RoyaleLPstorage.sol';\r\n\r\ncontract multiSig is RoyaleLPstorage {\r\n\r\n    /* Events */\r\n\r\n    event loanRequested(\r\n        address by,\r\n        uint[N_COINS] amounts,\r\n        uint loanID\r\n    );\r\n\r\n    event signed(\r\n        address signee,\r\n        uint loanID\r\n    );\r\n\r\n    event approved(\r\n        uint loanID\r\n    );\r\n\r\n    event addedRequiredSignee(\r\n        address adder,\r\n        uint numberOfSignees\r\n    );\r\n\r\n    event signeeAdded(\r\n        address signee\r\n    );\r\n\r\n    event signeeRemoved(\r\n        address signee\r\n    );\r\n\r\n    /* Modifiers */\r\n\r\n    modifier onlyOwner {\r\n        require(msg.sender == owner);\r\n        _;\r\n    }\r\n\r\n    modifier signeeExists(address signee) {\r\n        require(isSignee[signee]);\r\n        _;\r\n    }\r\n\r\n    modifier transactionExists(uint _loanID) {\r\n        require(_loanID > 0 && _loanID <= transactionCount);\r\n        _;\r\n    }\r\n\r\n    modifier notConfirmed(address addr,uint _loanID) {\r\n        require(!confirmations[addr][_loanID]);\r\n        _;\r\n    }\r\n\r\n    modifier validRequirement(uint signeeCount, uint _required) {\r\n        require(signeeCount <= MAX_SIGNEE_COUNT\r\n            && _required <= signeeCount\r\n            && _required != 0\r\n            && signeeCount != 0);\r\n        _;\r\n    }\r\n\r\n    /* Internal Functions */\r\n\r\n    function _addTransaction(\r\n       uint256[N_COINS] memory amounts\r\n    ) internal {\r\n        uint256[N_COINS] memory zero;\r\n\r\n        transactionCount++;\r\n        transactions[transactionCount] = Transaction({\r\n            transactionId: transactionCount,\r\n            iGamingCompany: msg.sender,\r\n            tokenAmounts: amounts,\r\n            remAmt: zero,\r\n            isGamingCompanySigned: false,\r\n            approved: false,\r\n            executed: false\r\n        });\r\n        \r\n    }\r\n\r\n    function _approveLoan(uint _loanID) internal {\r\n        transactions[_loanID].approved = true;\r\n        transactions[_loanID].remAmt = transactions[_loanID].tokenAmounts;\r\n        takenLoan[transactions[_loanID].iGamingCompany].push(_loanID);\r\n    }\r\n    \r\n    function _isConfirmed(\r\n        uint _loanID\r\n    ) internal view returns (bool) {\r\n        uint count = 0;\r\n        for (uint i=0; i<signees.length; i++) {\r\n            if (confirmations[signees[i]][_loanID])\r\n                count += 1;\r\n            if (count == required && transactions[_loanID].isGamingCompanySigned)\r\n                return true;\r\n        }\r\n    }\r\n\r\n    /* USER FUNCTIONS (exposed to frontend) */\r\n\r\n    // Gaming platforms withdraw using this\r\n    function requestLoan(\r\n        uint256[N_COINS] calldata amounts\r\n    ) external returns(uint256) {\r\n       require(signees.length >= required, \"insufficient signees\");\r\n       _addTransaction(amounts);\r\n\r\n       emit loanRequested(msg.sender, amounts, transactionCount);\r\n    }\r\n    \r\n    // Gaming Platforms signs using this\r\n    function signTransaction(uint _loanID) public {\r\n        require(transactions[_loanID].iGamingCompany == msg.sender);\r\n        transactions[_loanID].isGamingCompanySigned = true;\r\n\r\n        emit signed(msg.sender, _loanID);\r\n\r\n        if(_isConfirmed(_loanID)) {\r\n           _approveLoan(_loanID);\r\n           emit approved(_loanID);\r\n        }\r\n    }\r\n    \r\n    // Signee signs using this\r\n    function confirmLoan(uint _loanID) public\r\n        signeeExists(msg.sender)\r\n        transactionExists(_loanID)\r\n        notConfirmed( msg.sender,_loanID) \r\n    {\r\n        confirmations[msg.sender][_loanID] = true;\r\n        \r\n        emit signed(msg.sender, _loanID);\r\n\r\n        if(_isConfirmed(_loanID)) {\r\n           _approveLoan(_loanID);\r\n           emit approved(_loanID);\r\n        }\r\n    }\r\n\r\n    function getTransactionDetail(\r\n        uint _loanID\r\n    ) public view returns(Transaction memory){\r\n        return transactions[_loanID];\r\n    }\r\n\r\n    function checkLoanApproved(uint _loanID) external view returns(bool) {\r\n        return transactions[_loanID].approved;\r\n    }\r\n\r\n    /* Admin Function */\r\n    \r\n    function setRequiredSignee(\r\n        uint _required\r\n    ) public onlyOwner validRequirement(signees.length, _required) {\r\n        required = _required;\r\n\r\n        emit addedRequiredSignee(msg.sender, required);\r\n    }\r\n\r\n    function addSignee(address signee) public onlyOwner {\r\n        isSignee[signee] = true;\r\n        signees.push(signee);\r\n\r\n        emit signeeAdded(signee);\r\n    }\r\n    \r\n    function removeSignee(address signee) public onlyOwner signeeExists(signee) {\r\n        isSignee[signee] = false;\r\n        for (uint i=0; i<signees.length - 1; i++) {\r\n            if (signees[i] == signee) {\r\n                signees[i] = signees[signees.length - 1];\r\n                break;\r\n            }\r\n        }\r\n        \r\n        if (required > signees.length) {\r\n            setRequiredSignee(signees.length);\r\n        }\r\n\r\n        emit signeeRemoved(signee);\r\n    } \r\n}",
  "sourcePath": "C:\\Users\\MayankVats\\Desktop\\WORK\\blockchain\\Royale\\royale-contracts\\contracts\\MultiSig.sol",
  "compiler": {
    "name": "solc",
    "version": "0.6.12+commit.27d51765.Emscripten.clang"
  },
  "schemaVersion": "3.3.2",
  "updatedAt": "2020-12-14T04:40:16.337Z",
  "devdoc": {
    "kind": "dev",
    "methods": {},
    "version": 1
  },
  "userdoc": {
    "kind": "user",
    "methods": {},
    "version": 1
  }
}