{
  "contractName": "multiSig",
  "abi": [
    {
      "inputs": [],
      "name": "MAX_SIGNEE_COUNT",
      "outputs": [
        {
          "internalType": "uint256",
          "name": "",
          "type": "uint256"
        }
      ],
      "stateMutability": "view",
      "type": "function"
    },
    {
      "inputs": [
        {
          "internalType": "uint256",
          "name": "",
          "type": "uint256"
        }
      ],
      "name": "YieldPoolBalance",
      "outputs": [
        {
          "internalType": "uint256",
          "name": "",
          "type": "uint256"
        }
      ],
      "stateMutability": "view",
      "type": "function"
    },
    {
      "inputs": [
        {
          "internalType": "address",
          "name": "",
          "type": "address"
        },
        {
          "internalType": "uint256",
          "name": "",
          "type": "uint256"
        }
      ],
      "name": "confirmations",
      "outputs": [
        {
          "internalType": "bool",
          "name": "",
          "type": "bool"
        }
      ],
      "stateMutability": "view",
      "type": "function"
    },
    {
      "inputs": [],
      "name": "fees",
      "outputs": [
        {
          "internalType": "uint128",
          "name": "",
          "type": "uint128"
        }
      ],
      "stateMutability": "view",
      "type": "function"
    },
    {
      "inputs": [
        {
          "internalType": "address",
          "name": "",
          "type": "address"
        }
      ],
      "name": "isInQ",
      "outputs": [
        {
          "internalType": "bool",
          "name": "",
          "type": "bool"
        }
      ],
      "stateMutability": "view",
      "type": "function"
    },
    {
      "inputs": [
        {
          "internalType": "address",
          "name": "",
          "type": "address"
        }
      ],
      "name": "isSignee",
      "outputs": [
        {
          "internalType": "bool",
          "name": "",
          "type": "bool"
        }
      ],
      "stateMutability": "view",
      "type": "function"
    },
    {
      "inputs": [],
      "name": "owner",
      "outputs": [
        {
          "internalType": "address",
          "name": "",
          "type": "address"
        }
      ],
      "stateMutability": "view",
      "type": "function"
    },
    {
      "inputs": [],
      "name": "poolPart",
      "outputs": [
        {
          "internalType": "uint128",
          "name": "",
          "type": "uint128"
        }
      ],
      "stateMutability": "view",
      "type": "function"
    },
    {
      "inputs": [],
      "name": "required",
      "outputs": [
        {
          "internalType": "uint256",
          "name": "",
          "type": "uint256"
        }
      ],
      "stateMutability": "view",
      "type": "function"
    },
    {
      "inputs": [
        {
          "internalType": "uint256",
          "name": "",
          "type": "uint256"
        }
      ],
      "name": "selfBalance",
      "outputs": [
        {
          "internalType": "uint256",
          "name": "",
          "type": "uint256"
        }
      ],
      "stateMutability": "view",
      "type": "function"
    },
    {
      "inputs": [
        {
          "internalType": "uint256",
          "name": "",
          "type": "uint256"
        }
      ],
      "name": "signees",
      "outputs": [
        {
          "internalType": "address",
          "name": "",
          "type": "address"
        }
      ],
      "stateMutability": "view",
      "type": "function"
    },
    {
      "inputs": [],
      "name": "thresholdTokenAmount",
      "outputs": [
        {
          "internalType": "uint256",
          "name": "",
          "type": "uint256"
        }
      ],
      "stateMutability": "view",
      "type": "function"
    },
    {
      "inputs": [
        {
          "internalType": "uint256",
          "name": "",
          "type": "uint256"
        }
      ],
      "name": "totalWithdraw",
      "outputs": [
        {
          "internalType": "uint256",
          "name": "",
          "type": "uint256"
        }
      ],
      "stateMutability": "view",
      "type": "function"
    },
    {
      "inputs": [],
      "name": "transactionCount",
      "outputs": [
        {
          "internalType": "uint256",
          "name": "",
          "type": "uint256"
        }
      ],
      "stateMutability": "view",
      "type": "function"
    },
    {
      "inputs": [
        {
          "internalType": "uint256",
          "name": "",
          "type": "uint256"
        }
      ],
      "name": "transactions",
      "outputs": [
        {
          "internalType": "uint256",
          "name": "transactionId",
          "type": "uint256"
        },
        {
          "internalType": "address",
          "name": "iGamingCompany",
          "type": "address"
        },
        {
          "internalType": "bool",
          "name": "isGamingCompanySigned",
          "type": "bool"
        },
        {
          "internalType": "bool",
          "name": "approved",
          "type": "bool"
        },
        {
          "internalType": "bool",
          "name": "executed",
          "type": "bool"
        }
      ],
      "stateMutability": "view",
      "type": "function"
    },
    {
      "inputs": [
        {
          "internalType": "uint256[3]",
          "name": "amounts",
          "type": "uint256[3]"
        }
      ],
      "name": "requestLoan",
      "outputs": [
        {
          "internalType": "uint256",
          "name": "",
          "type": "uint256"
        }
      ],
      "stateMutability": "nonpayable",
      "type": "function"
    },
    {
      "inputs": [
        {
          "internalType": "uint256",
          "name": "_loanID",
          "type": "uint256"
        }
      ],
      "name": "signTransaction",
      "outputs": [],
      "stateMutability": "nonpayable",
      "type": "function"
    },
    {
      "inputs": [
        {
          "internalType": "address",
          "name": "_address",
          "type": "address"
        }
      ],
      "name": "getAllLoans",
      "outputs": [
        {
          "internalType": "uint256[]",
          "name": "",
          "type": "uint256[]"
        }
      ],
      "stateMutability": "view",
      "type": "function"
    },
    {
      "inputs": [
        {
          "internalType": "uint256",
          "name": "_loanID",
          "type": "uint256"
        }
      ],
      "name": "confirmLoan",
      "outputs": [],
      "stateMutability": "nonpayable",
      "type": "function"
    },
    {
      "inputs": [
        {
          "internalType": "uint256",
          "name": "_loanID",
          "type": "uint256"
        }
      ],
      "name": "checkLoanApproved",
      "outputs": [
        {
          "internalType": "bool",
          "name": "",
          "type": "bool"
        }
      ],
      "stateMutability": "view",
      "type": "function"
    },
    {
      "inputs": [
        {
          "internalType": "uint256",
          "name": "_loanID",
          "type": "uint256"
        }
      ],
      "name": "getTransactionDetail",
      "outputs": [
        {
          "components": [
            {
              "internalType": "uint256",
              "name": "transactionId",
              "type": "uint256"
            },
            {
              "internalType": "address",
              "name": "iGamingCompany",
              "type": "address"
            },
            {
              "internalType": "bool",
              "name": "isGamingCompanySigned",
              "type": "bool"
            },
            {
              "internalType": "uint256[3]",
              "name": "tokenAmounts",
              "type": "uint256[3]"
            },
            {
              "internalType": "uint256[3]",
              "name": "remAmt",
              "type": "uint256[3]"
            },
            {
              "internalType": "bool",
              "name": "approved",
              "type": "bool"
            },
            {
              "internalType": "bool",
              "name": "executed",
              "type": "bool"
            }
          ],
          "internalType": "struct RoyaleLPstorage.Transaction",
          "name": "",
          "type": "tuple"
        }
      ],
      "stateMutability": "view",
      "type": "function"
    },
    {
      "inputs": [
        {
          "internalType": "uint256",
          "name": "_required",
          "type": "uint256"
        }
      ],
      "name": "setRequiredSignee",
      "outputs": [],
      "stateMutability": "nonpayable",
      "type": "function"
    },
    {
      "inputs": [
        {
          "internalType": "address",
          "name": "signee",
          "type": "address"
        }
      ],
      "name": "addSignee",
      "outputs": [],
      "stateMutability": "nonpayable",
      "type": "function"
    },
    {
      "inputs": [
        {
          "internalType": "address",
          "name": "signee",
          "type": "address"
        }
      ],
      "name": "removeSignee",
      "outputs": [],
      "stateMutability": "nonpayable",
      "type": "function"
    }
  ],
  "bytecode": "0x60806040526001805560006002556019600460006101000a8154816fffffffffffffffffffffffffffffffff02191690836fffffffffffffffffffffffffffffffff160217905550605f600460106101000a8154816fffffffffffffffffffffffffffffffff02191690836fffffffffffffffffffffffffffffffff1602179055506101f4601155600e601260006101000a8154816fffffffffffffffffffffffffffffffff02191690836fffffffffffffffffffffffffffffffff16021790555060006021553480156100d257600080fd5b50611925806100e26000396000f3fe608060405234801561001057600080fd5b50600436106101585760003560e01c80639ace38c2116100c3578063b77bf6001161007c578063b77bf60014610415578063c89eb03614610433578063d80a93d614610451578063db28bfd014610481578063dc8452cd146104b1578063f84fd9ef146104cf57610158565b80639ace38c21461032b5780639af1d35a1461035f5780639b3641621461037d5780639ff512fa14610399578063ae8df6a6146103c9578063b0580ce9146103f957610158565b80635d9ec210116101155780635d9ec2101461024357806362a945d11461025f578063698504241461028f5780638da5cb5b146102bf5780638e9b0326146102dd578063905f692e146102fb57610158565b80630385b5811461015d578063049713671461018d5780630f8cdd88146101a95780631880432a146101c557806331805a2b146101e357806354d689ae14610213575b600080fd5b6101776004803603810190610172919061140b565b6104ff565b6040516101849190611706565b60405180910390f35b6101a760048036038101906101a29190611499565b61051f565b005b6101c360048036038101906101be919061140b565b610684565b005b6101cd61079c565b6040516101da9190611778565b60405180910390f35b6101fd60048036038101906101f89190611499565b6107a1565b60405161020a9190611778565b60405180910390f35b61022d6004803603810190610228919061140b565b6107b9565b60405161023a91906116e4565b60405180910390f35b61025d60048036038101906102589190611499565b610850565b005b61027960048036038101906102749190611470565b610908565b6040516102869190611778565b60405180910390f35b6102a960048036038101906102a49190611499565b610999565b6040516102b69190611778565b60405180910390f35b6102c76109b1565b6040516102d491906116c9565b60405180910390f35b6102e56109d7565b6040516102f2919061175d565b60405180910390f35b6103156004803603810190610310919061140b565b6109f9565b6040516103229190611706565b60405180910390f35b61034560048036038101906103409190611499565b610a19565b604051610356959493929190611793565b60405180910390f35b610367610a96565b604051610374919061175d565b60405180910390f35b6103976004803603810190610392919061140b565b610ab8565b005b6103b360048036038101906103ae9190611499565b610caf565b6040516103c09190611741565b60405180910390f35b6103e360048036038101906103de9190611499565b610e17565b6040516103f09190611706565b60405180910390f35b610413600480360381019061040e9190611499565b610e44565b005b61041d610e8b565b60405161042a9190611778565b60405180910390f35b61043b610e91565b6040516104489190611778565b60405180910390f35b61046b60048036038101906104669190611499565b610e97565b60405161047891906116c9565b60405180910390f35b61049b60048036038101906104969190611499565b610ed3565b6040516104a89190611778565b60405180910390f35b6104b9610eeb565b6040516104c69190611778565b60405180910390f35b6104e960048036038101906104e49190611434565b610ef1565b6040516104f69190611706565b60405180910390f35b601e6020528060005260406000206000915054906101000a900460ff1681565b33601e60008273ffffffffffffffffffffffffffffffffffffffff1673ffffffffffffffffffffffffffffffffffffffff16815260200190815260200160002060009054906101000a900460ff1661057657600080fd5b8160008111801561058957506021548111155b61059257600080fd5b3383601c60008373ffffffffffffffffffffffffffffffffffffffff1673ffffffffffffffffffffffffffffffffffffffff168152602001908152602001600020600082815260200190815260200160002060009054906101000a900460ff16156105fc57600080fd5b6001601c60003373ffffffffffffffffffffffffffffffffffffffff1673ffffffffffffffffffffffffffffffffffffffff168152602001908152602001600020600087815260200190815260200160002060006101000a81548160ff02191690831515021790555061066e85610f20565b1561067d5761067c8561102e565b5b5050505050565b600960009054906101000a900473ffffffffffffffffffffffffffffffffffffffff1673ffffffffffffffffffffffffffffffffffffffff163373ffffffffffffffffffffffffffffffffffffffff16146106de57600080fd5b6001601e60008373ffffffffffffffffffffffffffffffffffffffff1673ffffffffffffffffffffffffffffffffffffffff16815260200190815260200160002060006101000a81548160ff0219169083151502179055506020819080600181540180825580915050600190039060005260206000200160009091909190916101000a81548173ffffffffffffffffffffffffffffffffffffffff021916908373ffffffffffffffffffffffffffffffffffffffff16021790555050565b603281565b600e81600381106107ae57fe5b016000915090505481565b6060601f60008373ffffffffffffffffffffffffffffffffffffffff1673ffffffffffffffffffffffffffffffffffffffff16815260200190815260200160002080548060200260200160405190810160405280929190818152602001828054801561084457602002820191906000526020600020905b815481526020019060010190808311610830575b50505050509050919050565b3373ffffffffffffffffffffffffffffffffffffffff16601b600083815260200190815260200160002060010160009054906101000a900473ffffffffffffffffffffffffffffffffffffffff1673ffffffffffffffffffffffffffffffffffffffff16146108be57600080fd5b6001601b600083815260200190815260200160002060010160146101000a81548160ff0219169083151502179055506108f681610f20565b15610905576109048161102e565b5b50565b60006022546020805490501015610954576040517f08c379a000000000000000000000000000000000000000000000000000000000815260040161094b90611721565b60405180910390fd5b610994826003806020026040519081016040528092919082600360200280828437600081840152601f19601f820116905080830192505050505050611137565b919050565b600581600381106109a657fe5b016000915090505481565b600960009054906101000a900473ffffffffffffffffffffffffffffffffffffffff1681565b600460109054906101000a90046fffffffffffffffffffffffffffffffff1681565b60166020528060005260406000206000915054906101000a900460ff1681565b601b6020528060005260406000206000915090508060000154908060010160009054906101000a900473ffffffffffffffffffffffffffffffffffffffff16908060010160149054906101000a900460ff16908060080160009054906101000a900460ff16908060080160019054906101000a900460ff16905085565b600460009054906101000a90046fffffffffffffffffffffffffffffffff1681565b80601e60008273ffffffffffffffffffffffffffffffffffffffff1673ffffffffffffffffffffffffffffffffffffffff16815260200190815260200160002060009054906101000a900460ff16610b0f57600080fd5b6000601e60008473ffffffffffffffffffffffffffffffffffffffff1673ffffffffffffffffffffffffffffffffffffffff16815260200190815260200160002060006101000a81548160ff02191690831515021790555060005b600160208054905003811015610c8c578273ffffffffffffffffffffffffffffffffffffffff1660208281548110610b9e57fe5b9060005260206000200160009054906101000a900473ffffffffffffffffffffffffffffffffffffffff1673ffffffffffffffffffffffffffffffffffffffff161415610c7f57602060016020805490500381548110610bfa57fe5b9060005260206000200160009054906101000a900473ffffffffffffffffffffffffffffffffffffffff1660208281548110610c3257fe5b9060005260206000200160006101000a81548173ffffffffffffffffffffffffffffffffffffffff021916908373ffffffffffffffffffffffffffffffffffffffff160217905550610c8c565b8080600101915050610b6a565b506020805490506022541115610cab57610caa602080549050610e44565b5b5050565b610cb76112a2565b601b60008381526020019081526020016000206040518060e0016040529081600082015481526020016001820160009054906101000a900473ffffffffffffffffffffffffffffffffffffffff1673ffffffffffffffffffffffffffffffffffffffff1673ffffffffffffffffffffffffffffffffffffffff1681526020016001820160149054906101000a900460ff1615151515815260200160028201600380602002604051908101604052809291908260038015610d8c576020028201915b815481526020019060010190808311610d78575b5050505050815260200160058201600380602002604051908101604052809291908260038015610dd1576020028201915b815481526020019060010190808311610dbd575b505050505081526020016008820160009054906101000a900460ff161515151581526020016008820160019054906101000a900460ff1615151515815250509050919050565b6000601b600083815260200190815260200160002060080160009054906101000a900460ff169050919050565b6020805490508160328211158015610e5c5750818111155b8015610e69575060008114155b8015610e76575060008214155b610e7f57600080fd5b82602281905550505050565b60215481565b60115481565b60208181548110610ea457fe5b906000526020600020016000915054906101000a900473ffffffffffffffffffffffffffffffffffffffff1681565b60188160038110610ee057fe5b016000915090505481565b60225481565b601c6020528160005260406000206020528060005260406000206000915091509054906101000a900460ff1681565b6000806000905060005b60208054905081101561102657601c600060208381548110610f4857fe5b9060005260206000200160009054906101000a900473ffffffffffffffffffffffffffffffffffffffff1673ffffffffffffffffffffffffffffffffffffffff1673ffffffffffffffffffffffffffffffffffffffff168152602001908152602001600020600085815260200190815260200160002060009054906101000a900460ff1615610fd8576001820191505b602254821480156110095750601b600085815260200190815260200160002060010160149054906101000a900460ff165b1561101957600192505050611029565b8080600101915050610f2a565b50505b919050565b6001601b600083815260200190815260200160002060080160006101000a81548160ff021916908315150217905550601b6000828152602001908152602001600020600201601b6000838152602001908152602001600020600501906003611097929190611307565b50601f6000601b600084815260200190815260200160002060010160009054906101000a900473ffffffffffffffffffffffffffffffffffffffff1673ffffffffffffffffffffffffffffffffffffffff1673ffffffffffffffffffffffffffffffffffffffff16815260200190815260200160002081908060018154018082558091505060019003906000526020600020016000909190919091505550565b61113f611344565b6021600081548092919060010191905055506040518060e0016040528060215481526020013373ffffffffffffffffffffffffffffffffffffffff16815260200160001515815260200183815260200182815260200160001515815260200160001515815250601b600060215481526020019081526020016000206000820151816000015560208201518160010160006101000a81548173ffffffffffffffffffffffffffffffffffffffff021916908373ffffffffffffffffffffffffffffffffffffffff16021790555060408201518160010160146101000a81548160ff021916908315150217905550606082015181600201906003611242929190611366565b5060808201518160050190600361125a929190611366565b5060a08201518160080160006101000a81548160ff02191690831515021790555060c08201518160080160016101000a81548160ff0219169083151502179055509050505050565b6040518060e0016040528060008152602001600073ffffffffffffffffffffffffffffffffffffffff1681526020016000151581526020016112e2611344565b81526020016112ef611344565b81526020016000151581526020016000151581525090565b8260038101928215611333579182015b82811115611332578254825591600101919060010190611317565b5b50905061134091906113a6565b5090565b6040518060600160405280600390602082028036833780820191505090505090565b8260038101928215611395579160200282015b82811115611394578251825591602001919060010190611379565b5b5090506113a291906113a6565b5090565b5b808211156113bf5760008160009055506001016113a7565b5090565b6000813590506113d2816118c1565b92915050565b6000819050826020600302820111156113f057600080fd5b92915050565b600081359050611405816118d8565b92915050565b60006020828403121561141d57600080fd5b600061142b848285016113c3565b91505092915050565b6000806040838503121561144757600080fd5b6000611455858286016113c3565b9250506020611466858286016113f6565b9150509250929050565b60006060828403121561148257600080fd5b6000611490848285016113d8565b91505092915050565b6000602082840312156114ab57600080fd5b60006114b9848285016113f6565b91505092915050565b60006114ce83836116ab565b60208301905092915050565b6114e38161185d565b82525050565b6114f28161185d565b82525050565b61150181611800565b61150b8184611830565b9250611516826117e6565b8060005b8381101561154757815161152e87826114c2565b965061153983611816565b92505060018101905061151a565b505050505050565b600061155a8261180b565b611564818561183b565b935061156f836117f0565b8060005b838110156115a057815161158788826114c2565b975061159283611823565b925050600181019050611573565b5085935050505092915050565b6115b68161186f565b82525050565b6115c58161186f565b82525050565b60006115d8601e8361184c565b91507f7369676e65657320617265206c657373207468616e20726571756972656400006000830152602082019050919050565b6101608201600082015161162260008501826116ab565b50602082015161163560208501826114da565b50604082015161164860408501826115ad565b50606082015161165b60608501826114f8565b50608082015161166e60c08501826114f8565b5060a08201516116826101208501826115ad565b5060c08201516116966101408501826115ad565b50505050565b6116a58161187b565b82525050565b6116b4816118b7565b82525050565b6116c3816118b7565b82525050565b60006020820190506116de60008301846114e9565b92915050565b600060208201905081810360008301526116fe818461154f565b905092915050565b600060208201905061171b60008301846115bc565b92915050565b6000602082019050818103600083015261173a816115cb565b9050919050565b600061016082019050611757600083018461160b565b92915050565b6000602082019050611772600083018461169c565b92915050565b600060208201905061178d60008301846116ba565b92915050565b600060a0820190506117a860008301886116ba565b6117b560208301876114e9565b6117c260408301866115bc565b6117cf60608301856115bc565b6117dc60808301846115bc565b9695505050505050565b6000819050919050565b6000819050602082019050919050565b600060039050919050565b600081519050919050565b6000602082019050919050565b6000602082019050919050565b600081905092915050565b600082825260208201905092915050565b600082825260208201905092915050565b600061186882611897565b9050919050565b60008115159050919050565b60006fffffffffffffffffffffffffffffffff82169050919050565b600073ffffffffffffffffffffffffffffffffffffffff82169050919050565b6000819050919050565b6118ca8161185d565b81146118d557600080fd5b50565b6118e1816118b7565b81146118ec57600080fd5b5056fea2646970667358221220d698a4ca7ad70d009478bdb37ee8e8a4c5d1d9e7f332d346fbc2f0de0af0065064736f6c634300060c0033",
  "immutableReferences": {},
  "source": "// SPDX-License-Identifier: UNLICENSED\r\npragma solidity ^0.6.0;\r\npragma experimental ABIEncoderV2;\r\n\r\nimport './Erc20Interface.sol';\r\nimport './RoyaleLPstorage.sol';\r\n\r\ncontract multiSig is RoyaleLPstorage {\r\n\r\n    /* Modifiers */\r\n\r\n    modifier onlyOwner {\r\n        require(msg.sender == owner);\r\n        _;\r\n    }\r\n\r\n    modifier signeeDoesNotExist(address signee) {\r\n        require(!isSignee[signee]);\r\n        _;\r\n    }\r\n\r\n    modifier signeeExists(address signee) {\r\n        require(isSignee[signee]);\r\n        _;\r\n    }\r\n\r\n    modifier transactionExists(uint _loanID) {\r\n        require(_loanID > 0 && _loanID <= transactionCount);\r\n        _;\r\n    }\r\n\r\n    modifier confirmed(address addr, uint _loanID) {\r\n        require(confirmations[addr][_loanID]);\r\n        _;\r\n    }\r\n\r\n    modifier notConfirmed(address addr,uint _loanID) {\r\n        require(!confirmations[addr][_loanID]);\r\n        _;\r\n    }\r\n\r\n    modifier validRequirement(uint signeeCount, uint _required) {\r\n        require(signeeCount <= MAX_SIGNEE_COUNT\r\n            && _required <= signeeCount\r\n            && _required != 0\r\n            && signeeCount != 0);\r\n        _;\r\n    }\r\n\r\n    /* Internal Functions */\r\n\r\n    function _addTransaction(\r\n       uint256[N_COINS] memory amounts\r\n    ) internal {\r\n        uint256[N_COINS] memory zero;\r\n\r\n        transactionCount++;\r\n        transactions[transactionCount] = Transaction({\r\n            transactionId: transactionCount,\r\n            iGamingCompany: msg.sender,\r\n            tokenAmounts: amounts,\r\n            remAmt: zero,\r\n            isGamingCompanySigned: false,\r\n            approved: false,\r\n            executed: false\r\n        });\r\n        \r\n    }\r\n\r\n    function _approveLoan(uint _loanID) internal {\r\n        transactions[_loanID].approved = true;\r\n        transactions[_loanID].remAmt = transactions[_loanID].tokenAmounts;\r\n        takenLoan[transactions[_loanID].iGamingCompany].push(_loanID);\r\n    }\r\n    \r\n    function _isConfirmed(\r\n        uint _loanID\r\n    ) internal view returns (bool) {\r\n        uint count = 0;\r\n        for (uint i=0; i<signees.length; i++) {\r\n            if (confirmations[signees[i]][_loanID])\r\n                count += 1;\r\n            if (count == required && transactions[_loanID].isGamingCompanySigned)\r\n                return true;\r\n        }\r\n    }\r\n\r\n    /* USER FUNCTIONS (exposed to frontend) */\r\n\r\n    // Gaming platforms withdraw using this\r\n    function requestLoan(\r\n        uint256[N_COINS] calldata amounts\r\n    ) external returns(uint256) {\r\n       require(signees.length >= required, \"signees are less than required\");\r\n       _addTransaction(amounts);\r\n    }\r\n    \r\n    // Gaming Platforms signs using this\r\n    function signTransaction(uint _loanID) public {\r\n        require(transactions[_loanID].iGamingCompany == msg.sender);\r\n        transactions[_loanID].isGamingCompanySigned = true;\r\n\r\n        if(_isConfirmed(_loanID)) {\r\n           _approveLoan(_loanID);\r\n        }\r\n    }\r\n\r\n    function getAllLoans(address _address)public view returns(uint[] memory){\r\n        return takenLoan[_address];\r\n    }\r\n    \r\n    // Signee signs using this\r\n    function confirmLoan(uint _loanID) public\r\n        signeeExists(msg.sender)\r\n        transactionExists(_loanID)\r\n        notConfirmed( msg.sender,_loanID) \r\n    {\r\n        confirmations[msg.sender][_loanID] = true;\r\n\r\n        if(_isConfirmed(_loanID)) {\r\n           _approveLoan(_loanID);\r\n        }\r\n    }\r\n    \r\n    function checkLoanApproved(uint _loanID) public view returns(bool) {\r\n        return transactions[_loanID].approved;\r\n    }\r\n\r\n    function getTransactionDetail(\r\n        uint _loanID\r\n    ) public view returns(Transaction memory){\r\n        return transactions[_loanID];\r\n    }\r\n\r\n    /* Admin Function */\r\n    \r\n    function setRequiredSignee(\r\n        uint _required\r\n    ) public validRequirement(signees.length, _required) {\r\n        required = _required;\r\n    }\r\n\r\n    function addSignee(address signee) public onlyOwner {\r\n        isSignee[signee] = true;\r\n        signees.push(signee);\r\n    }\r\n    \r\n    function removeSignee(address signee) public signeeExists(signee) {\r\n        isSignee[signee] = false;\r\n        for (uint i=0; i<signees.length - 1; i++)\r\n            if (signees[i] == signee) {\r\n                signees[i] = signees[signees.length - 1];\r\n                break;\r\n            }\r\n        \r\n        if (required > signees.length)\r\n            setRequiredSignee(signees.length);\r\n    } \r\n}",
  "sourcePath": "C:\\Users\\MayankVats\\Desktop\\WORK\\blockchain\\Royale\\royale-contracts\\contracts\\MultiSig.sol",
  "compiler": {
    "name": "solc",
    "version": "0.6.12+commit.27d51765.Emscripten.clang"
  },
  "schemaVersion": "3.3.2",
  "updatedAt": "2020-12-10T06:50:57.482Z",
  "devdoc": {
    "kind": "dev",
    "methods": {},
    "version": 1
  },
  "userdoc": {
    "kind": "user",
    "methods": {},
    "version": 1
  }
}