{
  "contractName": "MultiSig",
  "abi": [
    {
      "inputs": [
        {
          "internalType": "address[]",
          "name": "_owners",
          "type": "address[]"
        },
        {
          "internalType": "uint256",
          "name": "_numConfirmationsRequired",
          "type": "uint256"
        }
      ],
      "stateMutability": "nonpayable",
      "type": "constructor"
    },
    {
      "inputs": [
        {
          "internalType": "address",
          "name": "",
          "type": "address"
        }
      ],
      "name": "isOwner",
      "outputs": [
        {
          "internalType": "bool",
          "name": "",
          "type": "bool"
        }
      ],
      "stateMutability": "view",
      "type": "function"
    },
    {
      "inputs": [],
      "name": "numConfirmationsRequired",
      "outputs": [
        {
          "internalType": "uint256",
          "name": "",
          "type": "uint256"
        }
      ],
      "stateMutability": "view",
      "type": "function"
    },
    {
      "inputs": [
        {
          "internalType": "uint256",
          "name": "",
          "type": "uint256"
        }
      ],
      "name": "owners",
      "outputs": [
        {
          "internalType": "address",
          "name": "",
          "type": "address"
        }
      ],
      "stateMutability": "view",
      "type": "function"
    },
    {
      "inputs": [
        {
          "internalType": "uint256",
          "name": "",
          "type": "uint256"
        }
      ],
      "name": "transactions",
      "outputs": [
        {
          "internalType": "address",
          "name": "to",
          "type": "address"
        },
        {
          "internalType": "uint256",
          "name": "value",
          "type": "uint256"
        },
        {
          "internalType": "bytes",
          "name": "data",
          "type": "bytes"
        },
        {
          "internalType": "bool",
          "name": "executed",
          "type": "bool"
        },
        {
          "internalType": "uint256",
          "name": "numConfirmations",
          "type": "uint256"
        }
      ],
      "stateMutability": "view",
      "type": "function"
    },
    {
      "inputs": [
        {
          "internalType": "address",
          "name": "_to",
          "type": "address"
        },
        {
          "internalType": "uint256",
          "name": "_value",
          "type": "uint256"
        },
        {
          "internalType": "bytes",
          "name": "_data",
          "type": "bytes"
        }
      ],
      "name": "submitTransaction",
      "outputs": [],
      "stateMutability": "nonpayable",
      "type": "function"
    },
    {
      "inputs": [
        {
          "internalType": "uint256",
          "name": "_txIndex",
          "type": "uint256"
        }
      ],
      "name": "confirmTransaction",
      "outputs": [],
      "stateMutability": "nonpayable",
      "type": "function"
    },
    {
      "inputs": [
        {
          "internalType": "uint256",
          "name": "_txIndex",
          "type": "uint256"
        }
      ],
      "name": "executeTransaction",
      "outputs": [],
      "stateMutability": "nonpayable",
      "type": "function"
    },
    {
      "inputs": [
        {
          "internalType": "uint256",
          "name": "_txIndex",
          "type": "uint256"
        }
      ],
      "name": "revokeConfirmation",
      "outputs": [],
      "stateMutability": "nonpayable",
      "type": "function"
    }
  ],
  "bytecode": "0x60806040523480156200001157600080fd5b5060405162001a5638038062001a5683398181016040528101906200003791906200038e565b60008251116200007e576040517f08c379a0000000000000000000000000000000000000000000000000000000008152600401620000759062000538565b60405180910390fd5b60008111801562000090575081518111155b620000d2576040517f08c379a0000000000000000000000000000000000000000000000000000000008152600401620000c9906200057c565b60405180910390fd5b60005b82518160ff161015620002c3576000838260ff1681518110620000f457fe5b60200260200101519050600073ffffffffffffffffffffffffffffffffffffffff168173ffffffffffffffffffffffffffffffffffffffff16141562000171576040517f08c379a000000000000000000000000000000000000000000000000000000000815260040162000168906200055a565b60405180910390fd5b600160008273ffffffffffffffffffffffffffffffffffffffff1673ffffffffffffffffffffffffffffffffffffffff16815260200190815260200160002060009054906101000a900460ff161562000201576040517f08c379a0000000000000000000000000000000000000000000000000000000008152600401620001f89062000516565b60405180910390fd5b60011515600160008373ffffffffffffffffffffffffffffffffffffffff1673ffffffffffffffffffffffffffffffffffffffff16815260200190815260200160002060009054906101000a905050506000819080600181540180825580915050600190039060005260206000200160009091909190916101000a81548173ffffffffffffffffffffffffffffffffffffffff021916908373ffffffffffffffffffffffffffffffffffffffff160217905550508080600101915050620000d5565b5080600281905550505062000678565b600081519050620002e48162000644565b92915050565b600082601f830112620002fc57600080fd5b8151620003136200030d82620005cc565b6200059e565b915081818352602084019350602081019050838560208402820111156200033957600080fd5b60005b838110156200036d5781620003528882620002d3565b8452602084019350602083019250506001810190506200033c565b5050505092915050565b60008151905062000388816200065e565b92915050565b60008060408385031215620003a257600080fd5b600083015167ffffffffffffffff811115620003bd57600080fd5b620003cb85828601620002ea565b9250506020620003de8582860162000377565b9150509250929050565b6000620003f7601083620005f5565b91507f6f776e6572206e6f7420756e69717565000000000000000000000000000000006000830152602082019050919050565b600062000439600f83620005f5565b91507f6f776e65727320726571756972656400000000000000000000000000000000006000830152602082019050919050565b60006200047b600d83620005f5565b91507f696e76616c6964206f776e6572000000000000000000000000000000000000006000830152602082019050919050565b6000620004bd602883620005f5565b91507f696e76616c6964206e756d626572206f6620726571756972656420636f6e666960008301527f726d6174696f6e730000000000000000000000000000000000000000000000006020830152604082019050919050565b600060208201905081810360008301526200053181620003e8565b9050919050565b6000602082019050818103600083015262000553816200042a565b9050919050565b6000602082019050818103600083015262000575816200046c565b9050919050565b600060208201905081810360008301526200059781620004ae565b9050919050565b6000604051905081810181811067ffffffffffffffff82111715620005c257600080fd5b8060405250919050565b600067ffffffffffffffff821115620005e457600080fd5b602082029050602081019050919050565b600082825260208201905092915050565b600062000613826200061a565b9050919050565b600073ffffffffffffffffffffffffffffffffffffffff82169050919050565b6000819050919050565b6200064f8162000606565b81146200065b57600080fd5b50565b62000669816200063a565b81146200067557600080fd5b50565b6113ce80620006886000396000f3fe608060405234801561001057600080fd5b50600436106100885760003560e01c8063c01a8c841161005b578063c01a8c841461013d578063c642747414610159578063d0549b8514610175578063ee22610b1461019357610088565b8063025e7c271461008d57806320ea8d86146100bd5780632f54bf6e146100d95780639ace38c214610109575b600080fd5b6100a760048036038101906100a29190610daa565b6101af565b6040516100b4919061109e565b60405180910390f35b6100d760048036038101906100d29190610daa565b6101eb565b005b6100f360048036038101906100ee9190610d1a565b6103de565b6040516101009190611113565b60405180910390f35b610123600480360381019061011e9190610daa565b6103fe565b6040516101349594939291906110b9565b60405180910390f35b61015760048036038101906101529190610daa565b610506565b005b610173600480360381019061016e9190610d43565b610784565b005b61017d61091b565b60405161018a919061120e565b60405180910390f35b6101ad60048036038101906101a89190610daa565b610921565b005b600081815481106101bc57fe5b906000526020600020016000915054906101000a900473ffffffffffffffffffffffffffffffffffffffff1681565b600160003373ffffffffffffffffffffffffffffffffffffffff1673ffffffffffffffffffffffffffffffffffffffff16815260200190815260200160002060009054906101000a900460ff16610277576040517f08c379a000000000000000000000000000000000000000000000000000000000815260040161026e906111ce565b60405180910390fd5b8060038054905081106102bf576040517f08c379a00000000000000000000000000000000000000000000000000000000081526004016102b69061114e565b60405180910390fd5b6000600383815481106102ce57fe5b906000526020600020906006020190508060040160003373ffffffffffffffffffffffffffffffffffffffff1673ffffffffffffffffffffffffffffffffffffffff16815260200190815260200160002060009054906101000a900460ff1661036c576040517f08c379a0000000000000000000000000000000000000000000000000000000008152600401610363906111ee565b60405180910390fd5b60008160040160003373ffffffffffffffffffffffffffffffffffffffff1673ffffffffffffffffffffffffffffffffffffffff16815260200190815260200160002060006101000a81548160ff02191690831515021790555060018160050160008282540392505081905550505050565b60016020528060005260406000206000915054906101000a900460ff1681565b6003818154811061040b57fe5b90600052602060002090600602016000915090508060000160009054906101000a900473ffffffffffffffffffffffffffffffffffffffff1690806001015490806002018054600181600116156101000203166002900480601f0160208091040260200160405190810160405280929190818152602001828054600181600116156101000203166002900480156104e35780601f106104b8576101008083540402835291602001916104e3565b820191906000526020600020905b8154815290600101906020018083116104c657829003601f168201915b5050505050908060030160009054906101000a900460ff16908060050154905085565b600160003373ffffffffffffffffffffffffffffffffffffffff1673ffffffffffffffffffffffffffffffffffffffff16815260200190815260200160002060009054906101000a900460ff16610592576040517f08c379a0000000000000000000000000000000000000000000000000000000008152600401610589906111ce565b60405180910390fd5b8060038054905081106105da576040517f08c379a00000000000000000000000000000000000000000000000000000000081526004016105d19061114e565b60405180910390fd5b81600381815481106105e857fe5b906000526020600020906006020160030160009054906101000a900460ff1615610647576040517f08c379a000000000000000000000000000000000000000000000000000000000815260040161063e9061118e565b60405180910390fd5b826003818154811061065557fe5b906000526020600020906006020160040160003373ffffffffffffffffffffffffffffffffffffffff1673ffffffffffffffffffffffffffffffffffffffff16815260200190815260200160002060009054906101000a900460ff16156106f1576040517f08c379a00000000000000000000000000000000000000000000000000000000081526004016106e89061116e565b60405180910390fd5b60006003858154811061070057fe5b9060005260206000209060060201905060018160040160003373ffffffffffffffffffffffffffffffffffffffff1673ffffffffffffffffffffffffffffffffffffffff16815260200190815260200160002060006101000a81548160ff021916908315150217905550600181600501600082825401925050819055505050505050565b600160003373ffffffffffffffffffffffffffffffffffffffff1673ffffffffffffffffffffffffffffffffffffffff16815260200190815260200160002060009054906101000a900460ff16610810576040517f08c379a0000000000000000000000000000000000000000000000000000000008152600401610807906111ce565b60405180910390fd5b60036040518060a001604052808573ffffffffffffffffffffffffffffffffffffffff1681526020018481526020018381526020016000151581526020016000815250908060018154018082558091505060019003906000526020600020906006020160009091909190915060008201518160000160006101000a81548173ffffffffffffffffffffffffffffffffffffffff021916908373ffffffffffffffffffffffffffffffffffffffff1602179055506020820151816001015560408201518160020190805190602001906108e9929190610bff565b5060608201518160030160006101000a81548160ff021916908315150217905550608082015181600501555050505050565b60025481565b600160003373ffffffffffffffffffffffffffffffffffffffff1673ffffffffffffffffffffffffffffffffffffffff16815260200190815260200160002060009054906101000a900460ff166109ad576040517f08c379a00000000000000000000000000000000000000000000000000000000081526004016109a4906111ce565b60405180910390fd5b8060038054905081106109f5576040517f08c379a00000000000000000000000000000000000000000000000000000000081526004016109ec9061114e565b60405180910390fd5b8160038181548110610a0357fe5b906000526020600020906006020160040160003373ffffffffffffffffffffffffffffffffffffffff1673ffffffffffffffffffffffffffffffffffffffff16815260200190815260200160002060009054906101000a900460ff1615610a9f576040517f08c379a0000000000000000000000000000000000000000000000000000000008152600401610a969061116e565b60405180910390fd5b600060038481548110610aae57fe5b9060005260206000209060060201905060025481600501541015610b07576040517f08c379a0000000000000000000000000000000000000000000000000000000008152600401610afe906111ae565b60405180910390fd5b60018160030160006101000a81548160ff02191690831515021790555060008160000160009054906101000a900473ffffffffffffffffffffffffffffffffffffffff1673ffffffffffffffffffffffffffffffffffffffff1682600201604051610b729190611087565b6000604051808303816000865af19150503d8060008114610baf576040519150601f19603f3d011682016040523d82523d6000602084013e610bb4565b606091505b5050905080610bf8576040517f08c379a0000000000000000000000000000000000000000000000000000000008152600401610bef9061112e565b60405180910390fd5b5050505050565b828054600181600116156101000203166002900490600052602060002090601f016020900481019282601f10610c4057805160ff1916838001178555610c6e565b82800160010185558215610c6e579182015b82811115610c6d578251825591602001919060010190610c52565b5b509050610c7b9190610c7f565b5090565b5b80821115610c98576000816000905550600101610c80565b5090565b600081359050610cab8161136a565b92915050565b600082601f830112610cc257600080fd5b8135610cd5610cd082611256565b611229565b91508082526020830160208301858383011115610cf157600080fd5b610cfc838284611317565b50505092915050565b600081359050610d1481611381565b92915050565b600060208284031215610d2c57600080fd5b6000610d3a84828501610c9c565b91505092915050565b600080600060608486031215610d5857600080fd5b6000610d6686828701610c9c565b9350506020610d7786828701610d05565b925050604084013567ffffffffffffffff811115610d9457600080fd5b610da086828701610cb1565b9150509250925092565b600060208284031215610dbc57600080fd5b6000610dca84828501610d05565b91505092915050565b610ddc816112cf565b82525050565b610deb816112e1565b82525050565b6000610dfc82611297565b610e0681856112a2565b9350610e16818560208601611326565b610e1f81611359565b840191505092915050565b600081546001811660008114610e475760018114610e6c57610eb0565b607f6002830416610e5881876112b3565b955060ff1983168652808601935050610eb0565b60028204610e7a81876112b3565b9550610e8585611282565b60005b82811015610ea757815481890152600182019150602081019050610e88565b82880195505050505b505092915050565b6000610ec56009836112be565b91507f7478206661696c656400000000000000000000000000000000000000000000006000830152602082019050919050565b6000610f056011836112be565b91507f747820646f6573206e6f742065786973740000000000000000000000000000006000830152602082019050919050565b6000610f456014836112be565b91507f747820616c726561647920636f6e6669726d65640000000000000000000000006000830152602082019050919050565b6000610f856013836112be565b91507f747820616c7265616479206578656375746564000000000000000000000000006000830152602082019050919050565b6000610fc56011836112be565b91507f63616e6e6f7420657865637574652074780000000000000000000000000000006000830152602082019050919050565b60006110056009836112be565b91507f6e6f74206f776e657200000000000000000000000000000000000000000000006000830152602082019050919050565b60006110456015836112be565b91507f6e6f7420636f6e6669726d656420616c726561647900000000000000000000006000830152602082019050919050565b6110818161130d565b82525050565b60006110938284610e2a565b915081905092915050565b60006020820190506110b36000830184610dd3565b92915050565b600060a0820190506110ce6000830188610dd3565b6110db6020830187611078565b81810360408301526110ed8186610df1565b90506110fc6060830185610de2565b6111096080830184611078565b9695505050505050565b60006020820190506111286000830184610de2565b92915050565b6000602082019050818103600083015261114781610eb8565b9050919050565b6000602082019050818103600083015261116781610ef8565b9050919050565b6000602082019050818103600083015261118781610f38565b9050919050565b600060208201905081810360008301526111a781610f78565b9050919050565b600060208201905081810360008301526111c781610fb8565b9050919050565b600060208201905081810360008301526111e781610ff8565b9050919050565b6000602082019050818103600083015261120781611038565b9050919050565b60006020820190506112236000830184611078565b92915050565b6000604051905081810181811067ffffffffffffffff8211171561124c57600080fd5b8060405250919050565b600067ffffffffffffffff82111561126d57600080fd5b601f19601f8301169050602081019050919050565b60008190508160005260206000209050919050565b600081519050919050565b600082825260208201905092915050565b600081905092915050565b600082825260208201905092915050565b60006112da826112ed565b9050919050565b60008115159050919050565b600073ffffffffffffffffffffffffffffffffffffffff82169050919050565b6000819050919050565b82818337600083830152505050565b60005b83811015611344578082015181840152602081019050611329565b83811115611353576000848401525b50505050565b6000601f19601f8301169050919050565b611373816112cf565b811461137e57600080fd5b50565b61138a8161130d565b811461139557600080fd5b5056fea2646970667358221220be4255f2d8c38a0a7f3a6bb489d628a993068f338d57e4c1d4e0a4974cd4c69364736f6c634300060c0033",
  "immutableReferences": {},
  "source": "// SPDX-License-Identifier: UNLICENSED\r\npragma solidity ^0.6.0;\r\npragma experimental ABIEncoderV2;\r\n\r\ncontract MultiSig {\r\n\r\n    address[] public owners;\r\n    mapping(address => bool) public isOwner;\r\n    uint public numConfirmationsRequired;\r\n\r\n    struct Transaction {\r\n        address to;\r\n        uint value;\r\n        bytes data;\r\n        bool executed;\r\n        mapping(address => bool) isConfirmed;\r\n        uint numConfirmations;\r\n    }\r\n\r\n    Transaction[] public transactions;\r\n\r\n    constructor(address[] memory _owners, uint _numConfirmationsRequired) public {\r\n        require(_owners.length > 0, \"owners required\");\r\n        require(\r\n            _numConfirmationsRequired > 0 && _numConfirmationsRequired <= _owners.length,\r\n            \"invalid number of required confirmations\"\r\n        );\r\n\r\n        for(uint8 i=0; i<_owners.length; i++) {\r\n            address owner = _owners[i];\r\n\r\n            require(owner != address(0), \"invalid owner\");\r\n            require(!isOwner[owner], \"owner not unique\");\r\n\r\n            isOwner[owner] == true;\r\n            owners.push(owner);\r\n        }\r\n\r\n        numConfirmationsRequired = _numConfirmationsRequired;\r\n    }\r\n\r\n    modifier onlyOwner() {\r\n        require(isOwner[msg.sender], \"not owner\");\r\n        _;\r\n    }\r\n\r\n    modifier txExists(uint _txIndex) {\r\n        require(_txIndex < transactions.length, \"tx does not exist\");\r\n        _;\r\n    }\r\n\r\n    modifier notExecuted(uint _txIndex) {\r\n        require(!transactions[_txIndex].executed, \"tx already executed\");\r\n        _;\r\n    }\r\n\r\n    modifier notConfirmed(uint _txIndex) {\r\n        require(!transactions[_txIndex].isConfirmed[msg.sender], \"tx already confirmed\");\r\n        _;\r\n    }\r\n\r\n    function submitTransaction(\r\n        address _to, \r\n        uint _value, \r\n        bytes memory _data\r\n    ) public onlyOwner \r\n    {\r\n        // uint txIndex = transactions.length;\r\n\r\n        transactions.push(Transaction({\r\n            to: _to,\r\n            value: _value,\r\n            data: _data,\r\n            executed: false,\r\n            numConfirmations: 0\r\n        }));    \r\n    }\r\n\r\n    function confirmTransaction(uint _txIndex) \r\n    public \r\n    onlyOwner\r\n    txExists(_txIndex)\r\n    notExecuted(_txIndex) \r\n    notConfirmed(_txIndex)\r\n    {\r\n        Transaction storage transaction = transactions[_txIndex];\r\n\r\n        transaction.isConfirmed[msg.sender] = true;\r\n        transaction.numConfirmations += 1;   \r\n    }\r\n\r\n    function executeTransaction(uint _txIndex)\r\n    public\r\n    onlyOwner\r\n    txExists(_txIndex)\r\n    notConfirmed(_txIndex) \r\n    {\r\n        Transaction storage transaction = transactions[_txIndex];\r\n\r\n        require(\r\n            transaction.numConfirmations >= numConfirmationsRequired,\r\n            \"cannot execute tx\"\r\n        );\r\n\r\n        transaction.executed = true;\r\n\r\n        (bool success, ) = transaction.to.call(transaction.data);\r\n        require(success, \"tx failed\");\r\n    }\r\n\r\n    function revokeConfirmation(uint _txIndex)\r\n    public\r\n    onlyOwner\r\n    txExists(_txIndex) \r\n    {\r\n        Transaction storage transaction = transactions[_txIndex];\r\n        \r\n        require(\r\n            transaction.isConfirmed[msg.sender],\r\n            \"not confirmed already\"\r\n        );\r\n\r\n        transaction.isConfirmed[msg.sender] = false;\r\n        transaction.numConfirmations -= 1;\r\n    }\r\n\r\n}",
  "sourcePath": "C:/Users/MayankVats/Desktop/WORK/blockchain/Royale/rlp/contracts/MultiSig.sol",
  "compiler": {
    "name": "solc",
    "version": "0.6.12+commit.27d51765.Emscripten.clang"
  },
  "schemaVersion": "3.3.2",
  "updatedAt": "2020-12-31T10:36:26.204Z",
  "devdoc": {
    "kind": "dev",
    "methods": {},
    "version": 1
  },
  "userdoc": {
    "kind": "user",
    "methods": {},
    "version": 1
  }
}