{
  "contractName": "Pool3USDC",
  "abi": [
    {
      "inputs": [
        {
          "internalType": "contract Erc20",
          "name": "_poolToken",
          "type": "address"
        },
        {
          "internalType": "contract Erc20",
          "name": "_tokens",
          "type": "address"
        },
        {
          "internalType": "address",
          "name": "addr",
          "type": "address"
        },
        {
          "internalType": "contract curvePool",
          "name": "_pool",
          "type": "address"
        }
      ],
      "stateMutability": "nonpayable",
      "type": "constructor"
    },
    {
      "inputs": [],
      "name": "Pool",
      "outputs": [
        {
          "internalType": "contract curvePool",
          "name": "",
          "type": "address"
        }
      ],
      "stateMutability": "view",
      "type": "function"
    },
    {
      "inputs": [
        {
          "internalType": "uint256",
          "name": "amount",
          "type": "uint256"
        }
      ],
      "name": "_deposit",
      "outputs": [],
      "stateMutability": "nonpayable",
      "type": "function"
    },
    {
      "inputs": [
        {
          "internalType": "uint256",
          "name": "amount",
          "type": "uint256"
        }
      ],
      "name": "_withdraw",
      "outputs": [],
      "stateMutability": "nonpayable",
      "type": "function"
    }
  ],
  "bytecode": "0x608060405234801561001057600080fd5b50604051610a00380380610a008339818101604052608081101561003357600080fd5b8101908080519060200190929190805190602001909291908051906020019092919080519060200190929190505050336000806101000a81548173ffffffffffffffffffffffffffffffffffffffff021916908373ffffffffffffffffffffffffffffffffffffffff16021790555083600260006101000a81548173ffffffffffffffffffffffffffffffffffffffff021916908373ffffffffffffffffffffffffffffffffffffffff16021790555082600160006101000a81548173ffffffffffffffffffffffffffffffffffffffff021916908373ffffffffffffffffffffffffffffffffffffffff16021790555081600460006101000a81548173ffffffffffffffffffffffffffffffffffffffff021916908373ffffffffffffffffffffffffffffffffffffffff16021790555080600360006101000a81548173ffffffffffffffffffffffffffffffffffffffff021916908373ffffffffffffffffffffffffffffffffffffffff16021790555050505050610847806101b96000396000f3fe608060405234801561001057600080fd5b50600436106100415760003560e01c806307f3b8bb146100465780639213b1241461007a578063ac6a2b5d146100a8575b600080fd5b61004e6100d6565b604051808273ffffffffffffffffffffffffffffffffffffffff16815260200191505060405180910390f35b6100a66004803603602081101561009057600080fd5b81019080803590602001909291905050506100fc565b005b6100d4600480360360208110156100be57600080fd5b81019080803590602001909291905050506103eb565b005b600360009054906101000a900473ffffffffffffffffffffffffffffffffffffffff1681565b600160009054906101000a900473ffffffffffffffffffffffffffffffffffffffff1673ffffffffffffffffffffffffffffffffffffffff1663095ea7b3600360009054906101000a900473ffffffffffffffffffffffffffffffffffffffff16836040518363ffffffff1660e01b8152600401808373ffffffffffffffffffffffffffffffffffffffff16815260200182815260200192505050602060405180830381600087803b1580156101b157600080fd5b505af11580156101c5573d6000803e3d6000fd5b505050506040513d60208110156101db57600080fd5b8101908080519060200190929190505050506000600360009054906101000a900473ffffffffffffffffffffffffffffffffffffffff1673ffffffffffffffffffffffffffffffffffffffff16633883e119604051806060016040528060008152602001858152602001600081525060016040518363ffffffff1660e01b81526004018083600360200280838360005b8381101561028657808201518184015260208101905061026b565b5050505090500182151581526020019250505060206040518083038186803b1580156102b157600080fd5b505afa1580156102c5573d6000803e3d6000fd5b505050506040513d60208110156102db57600080fd5b81019080805190602001909291905050509050606481606302816102fb57fe5b049050600360009054906101000a900473ffffffffffffffffffffffffffffffffffffffff1673ffffffffffffffffffffffffffffffffffffffff16634515cef36040518060600160405280600081526020018581526020016000815250836040518363ffffffff1660e01b81526004018083600360200280838360005b83811015610394578082015181840152602081019050610379565b5050505090500182815260200192505050600060405180830381600087803b1580156103bf57600080fd5b505af11580156103d3573d6000803e3d6000fd5b50505050816005600082825401925050819055505050565b6000806000600160009054906101000a900473ffffffffffffffffffffffffffffffffffffffff1673ffffffffffffffffffffffffffffffffffffffff1663313ce5676040518163ffffffff1660e01b815260040160206040518083038186803b15801561045857600080fd5b505afa15801561046c573d6000803e3d6000fd5b505050506040513d602081101561048257600080fd5b810190808051906020019092919050505060ff16915081600a0a84816104a457fe5b0490508083019250606460028402816104b957fe5b0483019250600260009054906101000a900473ffffffffffffffffffffffffffffffffffffffff1673ffffffffffffffffffffffffffffffffffffffff1663313ce5676040518163ffffffff1660e01b815260040160206040518083038186803b15801561052657600080fd5b505afa15801561053a573d6000803e3d6000fd5b505050506040513d602081101561055057600080fd5b810190808051906020019092919050505060ff16915081600a0a83029250600360009054906101000a900473ffffffffffffffffffffffffffffffffffffffff1673ffffffffffffffffffffffffffffffffffffffff16639fdaea0c6040518060600160405280600081526020018781526020016000815250856040518363ffffffff1660e01b81526004018083600360200280838360005b838110156106045780820151818401526020810190506105e9565b5050505090500182815260200192505050600060405180830381600087803b15801561062f57600080fd5b505af1158015610643573d6000803e3d6000fd5b50505050600160009054906101000a900473ffffffffffffffffffffffffffffffffffffffff1673ffffffffffffffffffffffffffffffffffffffff1663a9059cbb600460009054906101000a900473ffffffffffffffffffffffffffffffffffffffff16600160009054906101000a900473ffffffffffffffffffffffffffffffffffffffff1673ffffffffffffffffffffffffffffffffffffffff166370a08231306040518263ffffffff1660e01b8152600401808273ffffffffffffffffffffffffffffffffffffffff16815260200191505060206040518083038186803b15801561073157600080fd5b505afa158015610745573d6000803e3d6000fd5b505050506040513d602081101561075b57600080fd5b81019080805190602001909291905050506040518363ffffffff1660e01b8152600401808373ffffffffffffffffffffffffffffffffffffffff16815260200182815260200192505050602060405180830381600087803b1580156107bf57600080fd5b505af11580156107d3573d6000803e3d6000fd5b505050506040513d60208110156107e957600080fd5b810190808051906020019092919050505050836005600082825403925050819055505050505056fea2646970667358221220ab3d735fc1b517d37f3a713613f40a2ef342c01dd82062609c6f32f84fb6214564736f6c634300060c0033",
  "immutableReferences": {},
  "source": "// SPDX-License-Identifier: UNLICENSED\r\npragma solidity ^0.6.0;\r\n\r\nimport '../Interfaces/CurveInterface.sol';\r\n import '../Interfaces/ERC20Interface.sol';\r\n\r\ncontract Pool3USDC {\r\n\r\n    address owner;\r\n    Erc20 tokens;\r\n    \r\n    Erc20 PoolToken;\r\n    curvePool public Pool; \r\n//= curvePool(0x5B2A3246d70ABB9121EA532a9Ac6f77D45366643);\r\n    address LPaddr;\r\n\r\n    uint256 depositBalance;\r\n\r\n    constructor( Erc20 _poolToken, Erc20 _tokens, address addr,curvePool _pool) public {\r\n        owner = msg.sender;\r\n        PoolToken = _poolToken;\r\n        tokens = _tokens;\r\n        LPaddr = addr;\r\n        Pool = _pool;\r\n    }\r\n\r\n    // Deposit\r\n    function _deposit(uint256 amount) external {\r\n        tokens.approve(address(Pool), amount);\r\n        uint mintAmount = Pool.calc_token_amount([0,amount,0], true);\r\n        mintAmount = (99 * mintAmount) / 100;\r\n        Pool.add_liquidity([0,amount,0], mintAmount);\r\n        depositBalance+=amount;\r\n    }\r\n\r\n    // Withdraw\r\n    function _withdraw(uint256 amount) external {\r\n        uint256 max_burn = 0;\r\n        uint256 decimal = 0;\r\n        uint256 temp = 0;\r\n        decimal = tokens.decimals();\r\n        temp = amount / 10**decimal;\r\n        max_burn = max_burn + temp;\r\n        max_burn = max_burn + (max_burn * 2) / 100;\r\n        decimal = PoolToken.decimals();\r\n        max_burn = max_burn * 10**decimal;\r\n\r\n        Pool.remove_liquidity_imbalance([0,amount,0], max_burn);\r\n        tokens.transfer(LPaddr, tokens.balanceOf(address(this)));\r\n        depositBalance-=amount;\r\n            \r\n    }\r\n    \r\n     function _withdrawAll() internal {\r\n        uint crvBal = PoolToken.balanceOf(address(this));\r\n        Pool.remove_liquidity_one_coin(crvBal,1, depositBalance);\r\n        tokens.transfer(LPaddr, tokens.balanceOf(address(this)));\r\n    }\r\n\r\n    \r\n}\r\n",
  "sourcePath": "C:/Users/vishn/OneDrive/Desktop/TempRoyakle/rlp/contracts/Strategy/3PoolUSDC.sol",
  "compiler": {
    "name": "solc",
    "version": "0.6.12+commit.27d51765.Emscripten.clang"
  },
  "schemaVersion": "3.3.2",
  "updatedAt": "2020-12-17T06:05:04.574Z",
  "devdoc": {
    "kind": "dev",
    "methods": {},
    "version": 1
  },
  "userdoc": {
    "kind": "user",
    "methods": {},
    "version": 1
  }
}