{
  "contractName": "rController",
  "abi": [
    {
      "inputs": [
        {
          "internalType": "contract Erc20[3]",
          "name": "coins",
          "type": "address[3]"
        },
        {
          "internalType": "address",
          "name": "_royaleaddress",
          "type": "address"
        }
      ],
      "stateMutability": "nonpayable",
      "type": "constructor"
    },
    {
      "inputs": [],
      "name": "owner",
      "outputs": [
        {
          "internalType": "address",
          "name": "",
          "type": "address"
        }
      ],
      "stateMutability": "view",
      "type": "function"
    },
    {
      "inputs": [
        {
          "internalType": "address",
          "name": "_addr",
          "type": "address"
        },
        {
          "internalType": "uint8",
          "name": "coin",
          "type": "uint8"
        }
      ],
      "name": "setStrategy",
      "outputs": [],
      "stateMutability": "nonpayable",
      "type": "function"
    },
    {
      "inputs": [
        {
          "internalType": "uint8",
          "name": "_profitBreak",
          "type": "uint8"
        }
      ],
      "name": "setProfitBreak",
      "outputs": [],
      "stateMutability": "nonpayable",
      "type": "function"
    },
    {
      "inputs": [],
      "name": "getStrategies",
      "outputs": [
        {
          "internalType": "contract rStrategyI[3]",
          "name": "",
          "type": "address[3]"
        }
      ],
      "stateMutability": "view",
      "type": "function"
    },
    {
      "inputs": [
        {
          "internalType": "uint256[3]",
          "name": "amounts",
          "type": "uint256[3]"
        }
      ],
      "name": "deposit",
      "outputs": [],
      "stateMutability": "nonpayable",
      "type": "function"
    },
    {
      "inputs": [
        {
          "internalType": "uint256[3]",
          "name": "amounts",
          "type": "uint256[3]"
        }
      ],
      "name": "withdraw",
      "outputs": [],
      "stateMutability": "nonpayable",
      "type": "function"
    },
    {
      "inputs": [
        {
          "internalType": "address",
          "name": "_to",
          "type": "address"
        },
        {
          "internalType": "uint8",
          "name": "coin",
          "type": "uint8"
        }
      ],
      "name": "changeStrategy",
      "outputs": [],
      "stateMutability": "nonpayable",
      "type": "function"
    },
    {
      "inputs": [],
      "name": "getTotalProfit",
      "outputs": [
        {
          "internalType": "uint256[3]",
          "name": "",
          "type": "uint256[3]"
        }
      ],
      "stateMutability": "nonpayable",
      "type": "function"
    },
    {
      "inputs": [
        {
          "internalType": "uint8",
          "name": "coin",
          "type": "uint8"
        }
      ],
      "name": "stakeLPtokens",
      "outputs": [],
      "stateMutability": "nonpayable",
      "type": "function"
    },
    {
      "inputs": [
        {
          "internalType": "uint8",
          "name": "coin",
          "type": "uint8"
        },
        {
          "internalType": "uint256",
          "name": "_amount",
          "type": "uint256"
        }
      ],
      "name": "unstakeLPtokens",
      "outputs": [],
      "stateMutability": "nonpayable",
      "type": "function"
    }
  ],
  "bytecode": "0x6080604052604b60085534801561001557600080fd5b506040516118653803806118658339818101604052608081101561003857600080fd5b8101908091908260600180519060200190929190505050336000806101000a81548173ffffffffffffffffffffffffffffffffffffffff021916908373ffffffffffffffffffffffffffffffffffffffff16021790555080600160006101000a81548173ffffffffffffffffffffffffffffffffffffffff021916908373ffffffffffffffffffffffffffffffffffffffff16021790555060005b60038160ff16101561014f57828160ff16600381106100ee57fe5b602002015160098260ff166003811061010357fe5b0160006101000a81548173ffffffffffffffffffffffffffffffffffffffff021916908373ffffffffffffffffffffffffffffffffffffffff16021790555080806001019150506100d3565b505050611704806101616000396000f3fe608060405234801561001057600080fd5b506004361061009e5760003560e01c8063b49a60bb11610066578063b49a60bb146101b7578063b921db98146101fd578063bca48e181461024e578063cae47fb91461027f578063d4e20b01146102d05761009e565b8063466b2ccc146100a35780638da5cb5b146100de578063928ecfae14610112578063a9a4cbcc14610143578063b1b8f1be14610189575b600080fd5b6100dc600480360360408110156100b957600080fd5b81019080803560ff169060200190929190803590602001909291905050506102fe565b005b6100e66104b7565b604051808273ffffffffffffffffffffffffffffffffffffffff16815260200191505060405180910390f35b6101416004803603602081101561012857600080fd5b81019080803560ff1690602001909291905050506104db565b005b61014b610601565b6040518082600360200280838360005b8381101561017657808201518184015260208101905061015b565b5050505090500191505060405180910390f35b6101b56004803603606081101561019f57600080fd5b8101908080606001909192919290505050610a09565b005b6101bf610c0e565b6040518082600360200280838360005b838110156101ea5780820151818401526020810190506101cf565b5050505090500191505060405180910390f35b61024c6004803603604081101561021357600080fd5b81019080803573ffffffffffffffffffffffffffffffffffffffff169060200190929190803560ff169060200190929190505050610c8f565b005b61027d6004803603602081101561026457600080fd5b81019080803560ff169060200190929190505050611099565b005b6102ce6004803603604081101561029557600080fd5b81019080803573ffffffffffffffffffffffffffffffffffffffff169060200190929190803560ff169060200190929190505050611246565b005b6102fc600480360360608110156102e657600080fd5b81019080806060019091929192905050506113b3565b005b60008054906101000a900473ffffffffffffffffffffffffffffffffffffffff1673ffffffffffffffffffffffffffffffffffffffff163373ffffffffffffffffffffffffffffffffffffffff1614806103a55750600160009054906101000a900473ffffffffffffffffffffffffffffffffffffffff1673ffffffffffffffffffffffffffffffffffffffff163373ffffffffffffffffffffffffffffffffffffffff16145b610417576040517f08c379a000000000000000000000000000000000000000000000000000000000815260040180806020018281038252600e8152602001807f6e6f7420617574686f72697a656400000000000000000000000000000000000081525060200191505060405180910390fd5b60028260ff166003811061042757fe5b0160009054906101000a900473ffffffffffffffffffffffffffffffffffffffff1673ffffffffffffffffffffffffffffffffffffffff1663c4778998826040518263ffffffff1660e01b815260040180828152602001915050600060405180830381600087803b15801561049b57600080fd5b505af11580156104af573d6000803e3d6000fd5b505050505050565b60008054906101000a900473ffffffffffffffffffffffffffffffffffffffff1681565b60008054906101000a900473ffffffffffffffffffffffffffffffffffffffff1673ffffffffffffffffffffffffffffffffffffffff163373ffffffffffffffffffffffffffffffffffffffff1614806105825750600160009054906101000a900473ffffffffffffffffffffffffffffffffffffffff1673ffffffffffffffffffffffffffffffffffffffff163373ffffffffffffffffffffffffffffffffffffffff16145b6105f4576040517f08c379a000000000000000000000000000000000000000000000000000000000815260040180806020018281038252600e8152602001807f6e6f7420617574686f72697a656400000000000000000000000000000000000081525060200191505060405180910390fd5b8060ff1660088190555050565b61060961168a565b60008054906101000a900473ffffffffffffffffffffffffffffffffffffffff1673ffffffffffffffffffffffffffffffffffffffff163373ffffffffffffffffffffffffffffffffffffffff1614806106b05750600160009054906101000a900473ffffffffffffffffffffffffffffffffffffffff1673ffffffffffffffffffffffffffffffffffffffff163373ffffffffffffffffffffffffffffffffffffffff16145b610722576040517f08c379a000000000000000000000000000000000000000000000000000000000815260040180806020018281038252600e8152602001807f6e6f7420617574686f72697a656400000000000000000000000000000000000081525060200191505060405180910390fd5b60005b60038160ff1610156108105760028160ff166003811061074157fe5b0160009054906101000a900473ffffffffffffffffffffffffffffffffffffffff1673ffffffffffffffffffffffffffffffffffffffff1663bb72650e6040518163ffffffff1660e01b8152600401602060405180830381600087803b1580156107aa57600080fd5b505af11580156107be573d6000803e3d6000fd5b505050506040513d60208110156107d457600080fd5b810190808051906020019092919050505060058260ff16600381106107f557fe5b01600082825401925050819055508080600101915050610725565b5061081961168a565b60005b60038160ff161015610a0157606460085460058360ff166003811061083d57fe5b0154028161084757fe5b04828260ff166003811061085757fe5b602002018181525050818160ff166003811061086f57fe5b602002015160058260ff166003811061088457fe5b016000828254039250508190555060098160ff16600381106108a257fe5b0160009054906101000a900473ffffffffffffffffffffffffffffffffffffffff1673ffffffffffffffffffffffffffffffffffffffff166323b872dd60028360ff16600381106108ef57fe5b0160009054906101000a900473ffffffffffffffffffffffffffffffffffffffff16600160009054906101000a900473ffffffffffffffffffffffffffffffffffffffff16858560ff166003811061094357fe5b60200201516040518463ffffffff1660e01b8152600401808473ffffffffffffffffffffffffffffffffffffffff1681526020018373ffffffffffffffffffffffffffffffffffffffff1681526020018281526020019350505050602060405180830381600087803b1580156109b857600080fd5b505af11580156109cc573d6000803e3d6000fd5b505050506040513d60208110156109e257600080fd5b810190808051906020019092919050505050808060010191505061081c565b508091505090565b60008054906101000a900473ffffffffffffffffffffffffffffffffffffffff1673ffffffffffffffffffffffffffffffffffffffff163373ffffffffffffffffffffffffffffffffffffffff161480610ab05750600160009054906101000a900473ffffffffffffffffffffffffffffffffffffffff1673ffffffffffffffffffffffffffffffffffffffff163373ffffffffffffffffffffffffffffffffffffffff16145b610b22576040517f08c379a000000000000000000000000000000000000000000000000000000000815260040180806020018281038252600e8152602001807f6e6f7420617574686f72697a656400000000000000000000000000000000000081525060200191505060405180910390fd5b60005b60038160ff161015610c0a576000828260ff1660038110610b4257fe5b60200201351115610bfd5760028160ff1660038110610b5d57fe5b0160009054906101000a900473ffffffffffffffffffffffffffffffffffffffff1673ffffffffffffffffffffffffffffffffffffffff16632e1a7d4d838360ff1660038110610ba957fe5b60200201356040518263ffffffff1660e01b815260040180828152602001915050600060405180830381600087803b158015610be457600080fd5b505af1158015610bf8573d6000803e3d6000fd5b505050505b8080600101915050610b25565b5050565b610c166116ac565b6002600380602002604051908101604052809291908260038015610c85576020028201915b8160009054906101000a900473ffffffffffffffffffffffffffffffffffffffff1673ffffffffffffffffffffffffffffffffffffffff1681526020019060010190808311610c3b575b5050505050905090565b60008054906101000a900473ffffffffffffffffffffffffffffffffffffffff1673ffffffffffffffffffffffffffffffffffffffff163373ffffffffffffffffffffffffffffffffffffffff161480610d365750600160009054906101000a900473ffffffffffffffffffffffffffffffffffffffff1673ffffffffffffffffffffffffffffffffffffffff163373ffffffffffffffffffffffffffffffffffffffff16145b610da8576040517f08c379a000000000000000000000000000000000000000000000000000000000815260040180806020018281038252600e8152602001807f6e6f7420617574686f72697a656400000000000000000000000000000000000081525060200191505060405180910390fd5b60028160ff1660038110610db857fe5b0160009054906101000a900473ffffffffffffffffffffffffffffffffffffffff1673ffffffffffffffffffffffffffffffffffffffff1663853828b66040518163ffffffff1660e01b8152600401600060405180830381600087803b158015610e2157600080fd5b505af1158015610e35573d6000803e3d6000fd5b50505050610e438282611246565b600060098260ff1660038110610e5557fe5b0160009054906101000a900473ffffffffffffffffffffffffffffffffffffffff1673ffffffffffffffffffffffffffffffffffffffff166370a08231306040518263ffffffff1660e01b8152600401808273ffffffffffffffffffffffffffffffffffffffff16815260200191505060206040518083038186803b158015610edd57600080fd5b505afa158015610ef1573d6000803e3d6000fd5b505050506040513d6020811015610f0757600080fd5b8101908080519060200190929190505050905060098260ff1660038110610f2a57fe5b0160009054906101000a900473ffffffffffffffffffffffffffffffffffffffff1673ffffffffffffffffffffffffffffffffffffffff1663a9059cbb84836040518363ffffffff1660e01b8152600401808373ffffffffffffffffffffffffffffffffffffffff16815260200182815260200192505050602060405180830381600087803b158015610fbc57600080fd5b505af1158015610fd0573d6000803e3d6000fd5b505050506040513d6020811015610fe657600080fd5b81019080805190602001909291905050505060028260ff166003811061100857fe5b0160009054906101000a900473ffffffffffffffffffffffffffffffffffffffff1673ffffffffffffffffffffffffffffffffffffffff1663b6b55f25826040518263ffffffff1660e01b815260040180828152602001915050600060405180830381600087803b15801561107c57600080fd5b505af1158015611090573d6000803e3d6000fd5b50505050505050565b60008054906101000a900473ffffffffffffffffffffffffffffffffffffffff1673ffffffffffffffffffffffffffffffffffffffff163373ffffffffffffffffffffffffffffffffffffffff1614806111405750600160009054906101000a900473ffffffffffffffffffffffffffffffffffffffff1673ffffffffffffffffffffffffffffffffffffffff163373ffffffffffffffffffffffffffffffffffffffff16145b6111b2576040517f08c379a000000000000000000000000000000000000000000000000000000000815260040180806020018281038252600e8152602001807f6e6f7420617574686f72697a656400000000000000000000000000000000000081525060200191505060405180910390fd5b60028160ff16600381106111c257fe5b0160009054906101000a900473ffffffffffffffffffffffffffffffffffffffff1673ffffffffffffffffffffffffffffffffffffffff166310ff582d6040518163ffffffff1660e01b8152600401600060405180830381600087803b15801561122b57600080fd5b505af115801561123f573d6000803e3d6000fd5b5050505050565b60008054906101000a900473ffffffffffffffffffffffffffffffffffffffff1673ffffffffffffffffffffffffffffffffffffffff163373ffffffffffffffffffffffffffffffffffffffff1614806112ed5750600160009054906101000a900473ffffffffffffffffffffffffffffffffffffffff1673ffffffffffffffffffffffffffffffffffffffff163373ffffffffffffffffffffffffffffffffffffffff16145b61135f576040517f08c379a000000000000000000000000000000000000000000000000000000000815260040180806020018281038252600e8152602001807f6e6f7420617574686f72697a656400000000000000000000000000000000000081525060200191505060405180910390fd5b8160028260ff166003811061137057fe5b0160006101000a81548173ffffffffffffffffffffffffffffffffffffffff021916908373ffffffffffffffffffffffffffffffffffffffff1602179055505050565b60008054906101000a900473ffffffffffffffffffffffffffffffffffffffff1673ffffffffffffffffffffffffffffffffffffffff163373ffffffffffffffffffffffffffffffffffffffff16148061145a5750600160009054906101000a900473ffffffffffffffffffffffffffffffffffffffff1673ffffffffffffffffffffffffffffffffffffffff163373ffffffffffffffffffffffffffffffffffffffff16145b6114cc576040517f08c379a000000000000000000000000000000000000000000000000000000000815260040180806020018281038252600e8152602001807f6e6f7420617574686f72697a656400000000000000000000000000000000000081525060200191505060405180910390fd5b60005b60038160ff161015611686576000828260ff16600381106114ec57fe5b602002013511156116795760028160ff166003811061150757fe5b0160009054906101000a900473ffffffffffffffffffffffffffffffffffffffff1673ffffffffffffffffffffffffffffffffffffffff1663f87bf3ca6040518163ffffffff1660e01b8152600401602060405180830381600087803b15801561157057600080fd5b505af1158015611584573d6000803e3d6000fd5b505050506040513d602081101561159a57600080fd5b810190808051906020019092919050505060058260ff16600381106115bb57fe5b016000828254019250508190555060028160ff16600381106115d957fe5b0160009054906101000a900473ffffffffffffffffffffffffffffffffffffffff1673ffffffffffffffffffffffffffffffffffffffff1663b6b55f25838360ff166003811061162557fe5b60200201356040518263ffffffff1660e01b815260040180828152602001915050600060405180830381600087803b15801561166057600080fd5b505af1158015611674573d6000803e3d6000fd5b505050505b80806001019150506114cf565b5050565b6040518060600160405280600390602082028036833780820191505090505090565b604051806060016040528060039060208202803683378082019150509050509056fea26469706673582212206fa2156c290dc407f20136a841013c6aca93a352fccf9f6004f1eb035875032a64736f6c634300060c0033",
  "immutableReferences": {},
  "source": "// SPDX-License-Identifier: UNLICENSED\r\npragma solidity ^0.6.0;\r\n\r\nimport '../Interfaces/ERC20Interface.sol';\r\nimport '../Interfaces/rStrategyInterface.sol';\r\n\r\ncontract rController {\r\n\r\n\r\n    address public owner;\r\n\r\n    address royaleAddress;\r\n\r\n    rStrategyI[3] rStrategy;\r\n\r\n    uint256[3] totalProfit;\r\n\r\n    uint256 profitBreak=75;\r\n\r\n    Erc20[3] Coins;\r\n\r\n     modifier onlyAuthorized {\r\n        require(msg.sender == owner || msg.sender == royaleAddress, \"not authorized\");\r\n        _;\r\n    }\r\n\r\n    constructor(Erc20[3] memory coins, address _royaleaddress) public {\r\n        owner = msg.sender;\r\n        royaleAddress =_royaleaddress;\r\n        for(uint8 i=0; i<3; i++) {\r\n            Coins[i] = coins[i];\r\n        }\r\n    }\r\n\r\n    function setStrategy(address _addr, uint8 coin) public onlyAuthorized {\r\n        rStrategy[coin] = rStrategyI(_addr);\r\n    }\r\n\r\n     function setProfitBreak(uint8 _profitBreak) public onlyAuthorized {\r\n        profitBreak=_profitBreak;\r\n    }\r\n\r\n    function getStrategies() external view returns(rStrategyI[3] memory) {\r\n        return rStrategy;\r\n    }\r\n\r\n\r\n    function deposit(uint[3] calldata amounts) external onlyAuthorized {\r\n        for(uint8 coin=0; coin<3; coin++) {\r\n            if(amounts[coin] > 0) {\r\n                totalProfit[coin] += rStrategy[coin].calculateProfit();\r\n                rStrategy[coin].deposit(amounts[coin]);\r\n            }\r\n        }\r\n    }\r\n\r\n    function withdraw(uint[3] calldata amounts) external onlyAuthorized {\r\n        for(uint8 coin=0; coin<3; coin++) {\r\n            if(amounts[coin] > 0) {\r\n                rStrategy[coin].withdraw(amounts[coin]);\r\n            }\r\n        }\r\n    }\r\n\r\n    function changeStrategy(address _to, uint8 coin) external onlyAuthorized {\r\n\r\n        rStrategy[coin].withdrawAll();\r\n\r\n        setStrategy(_to, coin);\r\n\r\n        uint bal = Coins[coin].balanceOf(address(this));\r\n        Coins[coin].transfer(_to, bal);\r\n        rStrategy[coin].deposit(bal);\r\n\r\n    }\r\n\r\n    function getTotalProfit() external onlyAuthorized returns(uint256[3] memory) {\r\n        for(uint8 coin=0; coin<3; coin++){\r\n            totalProfit[coin] += rStrategy[coin].sellCRV();\r\n        }\r\n\r\n        uint256[3] memory royaleLPProfit;\r\n        for(uint8 coin=0; coin<3; coin++){\r\n            royaleLPProfit[coin] = (totalProfit[coin]*profitBreak)/100;\r\n            totalProfit[coin] -= royaleLPProfit[coin];\r\n            Coins[coin].transferFrom(\r\n                address(rStrategy[coin]),\r\n                royaleAddress,\r\n                royaleLPProfit[coin]\r\n            );\r\n        }\r\n\r\n        return royaleLPProfit;\r\n    }\r\n\r\n    function stakeLPtokens(uint8 coin) external onlyAuthorized {\r\n        rStrategy[coin].stakeLP();\r\n    }\r\n\r\n    function unstakeLPtokens(uint8 coin,uint256 _amount) external onlyAuthorized {\r\n        rStrategy[coin].unstakeLP(_amount);\r\n    }\r\n\r\n}",
  "sourcePath": "C:/Users/vishn/OneDrive/Desktop/TempRoyakle/rlp/contracts/rController.sol",
  "compiler": {
    "name": "solc",
    "version": "0.6.12+commit.27d51765.Emscripten.clang"
  },
  "schemaVersion": "3.3.2",
  "updatedAt": "2020-12-28T06:02:46.856Z",
  "devdoc": {
    "kind": "dev",
    "methods": {},
    "version": 1
  },
  "userdoc": {
    "kind": "user",
    "methods": {},
    "version": 1
  }
}