{
  "contractName": "rController",
  "abi": [
    {
      "inputs": [
        {
          "internalType": "contract Erc20[3]",
          "name": "coins",
          "type": "address[3]"
        }
      ],
      "stateMutability": "nonpayable",
      "type": "constructor"
    },
    {
      "inputs": [],
      "name": "owner",
      "outputs": [
        {
          "internalType": "address",
          "name": "",
          "type": "address"
        }
      ],
      "stateMutability": "view",
      "type": "function"
    },
    {
      "inputs": [
        {
          "internalType": "address",
          "name": "_addr",
          "type": "address"
        },
        {
          "internalType": "uint8",
          "name": "coin",
          "type": "uint8"
        }
      ],
      "name": "setStrategy",
      "outputs": [],
      "stateMutability": "nonpayable",
      "type": "function"
    },
    {
      "inputs": [],
      "name": "getStrategies",
      "outputs": [
        {
          "internalType": "contract rStrategyI[3]",
          "name": "",
          "type": "address[3]"
        }
      ],
      "stateMutability": "view",
      "type": "function"
    },
    {
      "inputs": [
        {
          "internalType": "uint256[3]",
          "name": "amounts",
          "type": "uint256[3]"
        }
      ],
      "name": "deposit",
      "outputs": [],
      "stateMutability": "nonpayable",
      "type": "function"
    },
    {
      "inputs": [
        {
          "internalType": "uint256[3]",
          "name": "amounts",
          "type": "uint256[3]"
        }
      ],
      "name": "withdraw",
      "outputs": [],
      "stateMutability": "nonpayable",
      "type": "function"
    },
    {
      "inputs": [
        {
          "internalType": "address",
          "name": "_to",
          "type": "address"
        },
        {
          "internalType": "uint8",
          "name": "coin",
          "type": "uint8"
        }
      ],
      "name": "changeStrategy",
      "outputs": [],
      "stateMutability": "nonpayable",
      "type": "function"
    }
  ],
  "bytecode": "0x608060405234801561001057600080fd5b50604051610a86380380610a868339818101604052606081101561003357600080fd5b8101908091905050336000806101000a81548173ffffffffffffffffffffffffffffffffffffffff021916908373ffffffffffffffffffffffffffffffffffffffff16021790555060005b60038160ff1610156100fa57818160ff166003811061009957fe5b602002015160048260ff16600381106100ae57fe5b0160006101000a81548173ffffffffffffffffffffffffffffffffffffffff021916908373ffffffffffffffffffffffffffffffffffffffff160217905550808060010191505061007e565b505061097b8061010b6000396000f3fe608060405234801561001057600080fd5b50600436106100625760003560e01c80638da5cb5b14610067578063b1b8f1be1461009b578063b49a60bb146100c9578063b921db981461010f578063cae47fb914610160578063d4e20b01146101b1575b600080fd5b61006f6101df565b604051808273ffffffffffffffffffffffffffffffffffffffff16815260200191505060405180910390f35b6100c7600480360360608110156100b157600080fd5b8101908080606001909192919290505050610203565b005b6100d16102ef565b6040518082600360200280838360005b838110156100fc5780820151818401526020810190506100e1565b5050505090500191505060405180910390f35b61015e6004803603604081101561012557600080fd5b81019080803573ffffffffffffffffffffffffffffffffffffffff169060200190929190803560ff169060200190929190505050610370565b005b6101af6004803603604081101561017657600080fd5b81019080803573ffffffffffffffffffffffffffffffffffffffff169060200190929190803560ff169060200190929190505050610722565b005b6101dd600480360360608110156101c757600080fd5b8101908080606001909192919290505050610837565b005b60008054906101000a900473ffffffffffffffffffffffffffffffffffffffff1681565b60005b60038160ff1610156102eb576000828260ff166003811061022357fe5b602002013511156102de5760018160ff166003811061023e57fe5b0160009054906101000a900473ffffffffffffffffffffffffffffffffffffffff1673ffffffffffffffffffffffffffffffffffffffff16632e1a7d4d838360ff166003811061028a57fe5b60200201356040518263ffffffff1660e01b815260040180828152602001915050600060405180830381600087803b1580156102c557600080fd5b505af11580156102d9573d6000803e3d6000fd5b505050505b8080600101915050610206565b5050565b6102f7610923565b6001600380602002604051908101604052809291908260038015610366576020028201915b8160009054906101000a900473ffffffffffffffffffffffffffffffffffffffff1673ffffffffffffffffffffffffffffffffffffffff168152602001906001019080831161031c575b5050505050905090565b60008054906101000a900473ffffffffffffffffffffffffffffffffffffffff1673ffffffffffffffffffffffffffffffffffffffff163373ffffffffffffffffffffffffffffffffffffffff1614610431576040517f08c379a000000000000000000000000000000000000000000000000000000000815260040180806020018281038252600e8152602001807f6e6f7420617574686f72697a656400000000000000000000000000000000000081525060200191505060405180910390fd5b60018160ff166003811061044157fe5b0160009054906101000a900473ffffffffffffffffffffffffffffffffffffffff1673ffffffffffffffffffffffffffffffffffffffff1663853828b66040518163ffffffff1660e01b8152600401600060405180830381600087803b1580156104aa57600080fd5b505af11580156104be573d6000803e3d6000fd5b505050506104cc8282610722565b600060048260ff16600381106104de57fe5b0160009054906101000a900473ffffffffffffffffffffffffffffffffffffffff1673ffffffffffffffffffffffffffffffffffffffff166370a08231306040518263ffffffff1660e01b8152600401808273ffffffffffffffffffffffffffffffffffffffff16815260200191505060206040518083038186803b15801561056657600080fd5b505afa15801561057a573d6000803e3d6000fd5b505050506040513d602081101561059057600080fd5b8101908080519060200190929190505050905060048260ff16600381106105b357fe5b0160009054906101000a900473ffffffffffffffffffffffffffffffffffffffff1673ffffffffffffffffffffffffffffffffffffffff1663a9059cbb84836040518363ffffffff1660e01b8152600401808373ffffffffffffffffffffffffffffffffffffffff16815260200182815260200192505050602060405180830381600087803b15801561064557600080fd5b505af1158015610659573d6000803e3d6000fd5b505050506040513d602081101561066f57600080fd5b81019080805190602001909291905050505060018260ff166003811061069157fe5b0160009054906101000a900473ffffffffffffffffffffffffffffffffffffffff1673ffffffffffffffffffffffffffffffffffffffff1663b6b55f25826040518263ffffffff1660e01b815260040180828152602001915050600060405180830381600087803b15801561070557600080fd5b505af1158015610719573d6000803e3d6000fd5b50505050505050565b60008054906101000a900473ffffffffffffffffffffffffffffffffffffffff1673ffffffffffffffffffffffffffffffffffffffff163373ffffffffffffffffffffffffffffffffffffffff16146107e3576040517f08c379a000000000000000000000000000000000000000000000000000000000815260040180806020018281038252600e8152602001807f6e6f7420617574686f72697a656400000000000000000000000000000000000081525060200191505060405180910390fd5b8160018260ff16600381106107f457fe5b0160006101000a81548173ffffffffffffffffffffffffffffffffffffffff021916908373ffffffffffffffffffffffffffffffffffffffff1602179055505050565b60005b60038160ff16101561091f576000828260ff166003811061085757fe5b602002013511156109125760018160ff166003811061087257fe5b0160009054906101000a900473ffffffffffffffffffffffffffffffffffffffff1673ffffffffffffffffffffffffffffffffffffffff1663b6b55f25838360ff16600381106108be57fe5b60200201356040518263ffffffff1660e01b815260040180828152602001915050600060405180830381600087803b1580156108f957600080fd5b505af115801561090d573d6000803e3d6000fd5b505050505b808060010191505061083a565b5050565b604051806060016040528060039060208202803683378082019150509050509056fea26469706673582212206759e0c09038720b853ce0d3bdc60d25d821c6c110ba68da6304f2b13bbad6d964736f6c634300060c0033",
  "immutableReferences": {},
  "source": "// SPDX-License-Identifier: UNLICENSED\r\npragma solidity ^0.6.0;\r\n\r\nimport '../Interfaces/ERC20Interface.sol';\r\nimport '../Interfaces/rStrategyInterface.sol';\r\n\r\ncontract rController {\r\n\r\n    address public owner;\r\n\r\n    rStrategyI[3] rStrategy;\r\n\r\n    Erc20[3] Coins;\r\n\r\n    constructor(Erc20[3] memory coins) public {\r\n        owner = msg.sender;\r\n\r\n        for(uint8 i=0; i<3; i++) {\r\n            Coins[i] = coins[i];\r\n        }\r\n    }\r\n\r\n    function setStrategy(address _addr, uint8 coin) public {\r\n        require(msg.sender == owner, \"not authorized\");\r\n        \r\n        rStrategy[coin] = rStrategyI(_addr);\r\n    }\r\n\r\n    function getStrategies() external view returns(rStrategyI[3] memory) {\r\n        return rStrategy;\r\n    }\r\n\r\n\r\n    function deposit(uint[3] calldata amounts) external {\r\n        for(uint8 coin=0; coin<3; coin++) {\r\n            if(amounts[coin] > 0) {\r\n                rStrategy[coin].deposit(amounts[coin]);\r\n            }\r\n        }\r\n    }\r\n\r\n    function withdraw(uint[3] calldata amounts) external {\r\n        for(uint8 coin=0; coin<3; coin++) {\r\n            if(amounts[coin] > 0) {\r\n                rStrategy[coin].withdraw(amounts[coin]);\r\n            }\r\n        }\r\n    }\r\n\r\n    function changeStrategy(address _to, uint8 coin) external {\r\n        require(msg.sender == owner, \"not authorized\");\r\n\r\n        rStrategy[coin].withdrawAll();\r\n\r\n        setStrategy(_to, coin);\r\n\r\n        uint bal = Coins[coin].balanceOf(address(this));\r\n        Coins[coin].transfer(_to, bal);\r\n        rStrategy[coin].deposit(bal);\r\n\r\n    }\r\n\r\n}",
  "sourcePath": "C:/Users/vishn/OneDrive/Desktop/TempRoyakle/rlp/contracts/rController.sol",
  "compiler": {
    "name": "solc",
    "version": "0.6.12+commit.27d51765.Emscripten.clang"
  },
  "schemaVersion": "3.3.2",
  "updatedAt": "2020-12-21T07:35:43.715Z",
  "devdoc": {
    "kind": "dev",
    "methods": {},
    "version": 1
  },
  "userdoc": {
    "kind": "user",
    "methods": {},
    "version": 1
  }
}