{
  "contractName": "rController",
  "abi": [
    {
      "inputs": [
        {
          "internalType": "contract Erc20[3]",
          "name": "coins",
          "type": "address[3]"
        },
        {
          "internalType": "address",
          "name": "_royaleaddress",
          "type": "address"
        }
      ],
      "stateMutability": "nonpayable",
      "type": "constructor"
    },
    {
      "inputs": [],
      "name": "owner",
      "outputs": [
        {
          "internalType": "address",
          "name": "",
          "type": "address"
        }
      ],
      "stateMutability": "view",
      "type": "function"
    },
    {
      "inputs": [
        {
          "internalType": "address",
          "name": "_addr",
          "type": "address"
        },
        {
          "internalType": "uint8",
          "name": "coin",
          "type": "uint8"
        }
      ],
      "name": "setStrategy",
      "outputs": [],
      "stateMutability": "nonpayable",
      "type": "function"
    },
    {
      "inputs": [],
      "name": "getStrategies",
      "outputs": [
        {
          "internalType": "contract rStrategyI[3]",
          "name": "",
          "type": "address[3]"
        }
      ],
      "stateMutability": "view",
      "type": "function"
    },
    {
      "inputs": [
        {
          "internalType": "uint256[3]",
          "name": "amounts",
          "type": "uint256[3]"
        }
      ],
      "name": "deposit",
      "outputs": [],
      "stateMutability": "nonpayable",
      "type": "function"
    },
    {
      "inputs": [
        {
          "internalType": "uint256[3]",
          "name": "amounts",
          "type": "uint256[3]"
        }
      ],
      "name": "withdraw",
      "outputs": [],
      "stateMutability": "nonpayable",
      "type": "function"
    },
    {
      "inputs": [
        {
          "internalType": "address",
          "name": "_to",
          "type": "address"
        },
        {
          "internalType": "uint8",
          "name": "coin",
          "type": "uint8"
        }
      ],
      "name": "changeStrategy",
      "outputs": [],
      "stateMutability": "nonpayable",
      "type": "function"
    },
    {
      "inputs": [],
      "name": "getTotalProfit",
      "outputs": [
        {
          "internalType": "uint256[3]",
          "name": "",
          "type": "uint256[3]"
        }
      ],
      "stateMutability": "view",
      "type": "function"
    },
    {
      "inputs": [
        {
          "internalType": "uint8",
          "name": "coin",
          "type": "uint8"
        },
        {
          "internalType": "uint256",
          "name": "_perc",
          "type": "uint256"
        }
      ],
      "name": "stakeLPtokens",
      "outputs": [],
      "stateMutability": "nonpayable",
      "type": "function"
    }
  ],
  "bytecode": "0x608060405234801561001057600080fd5b506040516112713803806112718339818101604052608081101561003357600080fd5b8101908091908260600180519060200190929190505050336000806101000a81548173ffffffffffffffffffffffffffffffffffffffff021916908373ffffffffffffffffffffffffffffffffffffffff16021790555080600160006101000a81548173ffffffffffffffffffffffffffffffffffffffff021916908373ffffffffffffffffffffffffffffffffffffffff16021790555060005b60038160ff16101561014a57828160ff16600381106100e957fe5b602002015160088260ff16600381106100fe57fe5b0160006101000a81548173ffffffffffffffffffffffffffffffffffffffff021916908373ffffffffffffffffffffffffffffffffffffffff16021790555080806001019150506100ce565b5050506111158061015c6000396000f3fe608060405234801561001057600080fd5b50600436106100885760003560e01c8063b921db981161005b578063b921db981461017b578063cae47fb9146101cc578063d4e20b011461021d578063ff7e179e1461024b57610088565b80638da5cb5b1461008d578063a9a4cbcc146100c1578063b1b8f1be14610107578063b49a60bb14610135575b600080fd5b610095610286565b604051808273ffffffffffffffffffffffffffffffffffffffff16815260200191505060405180910390f35b6100c96102aa565b6040518082600360200280838360005b838110156100f45780820151818401526020810190506100d9565b5050505090500191505060405180910390f35b6101336004803603606081101561011d57600080fd5b810190808060600190919291929050505061040e565b005b61013d610613565b6040518082600360200280838360005b8381101561016857808201518184015260208101905061014d565b5050505090500191505060405180910390f35b6101ca6004803603604081101561019157600080fd5b81019080803573ffffffffffffffffffffffffffffffffffffffff169060200190929190803560ff169060200190929190505050610694565b005b61021b600480360360408110156101e257600080fd5b81019080803573ffffffffffffffffffffffffffffffffffffffff169060200190929190803560ff169060200190929190505050610a9e565b005b6102496004803603606081101561023357600080fd5b8101908080606001909192919290505050610c0b565b005b6102846004803603604081101561026157600080fd5b81019080803560ff16906020019092919080359060200190929190505050610ee2565b005b60008054906101000a900473ffffffffffffffffffffffffffffffffffffffff1681565b6102b261109b565b60008054906101000a900473ffffffffffffffffffffffffffffffffffffffff1673ffffffffffffffffffffffffffffffffffffffff163373ffffffffffffffffffffffffffffffffffffffff1614806103595750600160009054906101000a900473ffffffffffffffffffffffffffffffffffffffff1673ffffffffffffffffffffffffffffffffffffffff163373ffffffffffffffffffffffffffffffffffffffff16145b6103cb576040517f08c379a000000000000000000000000000000000000000000000000000000000815260040180806020018281038252600e8152602001807f6e6f7420617574686f72697a656400000000000000000000000000000000000081525060200191505060405180910390fd5b6005600380602002604051908101604052809291908260038015610404576020028201915b8154815260200190600101908083116103f0575b5050505050905090565b60008054906101000a900473ffffffffffffffffffffffffffffffffffffffff1673ffffffffffffffffffffffffffffffffffffffff163373ffffffffffffffffffffffffffffffffffffffff1614806104b55750600160009054906101000a900473ffffffffffffffffffffffffffffffffffffffff1673ffffffffffffffffffffffffffffffffffffffff163373ffffffffffffffffffffffffffffffffffffffff16145b610527576040517f08c379a000000000000000000000000000000000000000000000000000000000815260040180806020018281038252600e8152602001807f6e6f7420617574686f72697a656400000000000000000000000000000000000081525060200191505060405180910390fd5b60005b60038160ff16101561060f576000828260ff166003811061054757fe5b602002013511156106025760028160ff166003811061056257fe5b0160009054906101000a900473ffffffffffffffffffffffffffffffffffffffff1673ffffffffffffffffffffffffffffffffffffffff16632e1a7d4d838360ff16600381106105ae57fe5b60200201356040518263ffffffff1660e01b815260040180828152602001915050600060405180830381600087803b1580156105e957600080fd5b505af11580156105fd573d6000803e3d6000fd5b505050505b808060010191505061052a565b5050565b61061b6110bd565b600260038060200260405190810160405280929190826003801561068a576020028201915b8160009054906101000a900473ffffffffffffffffffffffffffffffffffffffff1673ffffffffffffffffffffffffffffffffffffffff1681526020019060010190808311610640575b5050505050905090565b60008054906101000a900473ffffffffffffffffffffffffffffffffffffffff1673ffffffffffffffffffffffffffffffffffffffff163373ffffffffffffffffffffffffffffffffffffffff16148061073b5750600160009054906101000a900473ffffffffffffffffffffffffffffffffffffffff1673ffffffffffffffffffffffffffffffffffffffff163373ffffffffffffffffffffffffffffffffffffffff16145b6107ad576040517f08c379a000000000000000000000000000000000000000000000000000000000815260040180806020018281038252600e8152602001807f6e6f7420617574686f72697a656400000000000000000000000000000000000081525060200191505060405180910390fd5b60028160ff16600381106107bd57fe5b0160009054906101000a900473ffffffffffffffffffffffffffffffffffffffff1673ffffffffffffffffffffffffffffffffffffffff1663853828b66040518163ffffffff1660e01b8152600401600060405180830381600087803b15801561082657600080fd5b505af115801561083a573d6000803e3d6000fd5b505050506108488282610a9e565b600060088260ff166003811061085a57fe5b0160009054906101000a900473ffffffffffffffffffffffffffffffffffffffff1673ffffffffffffffffffffffffffffffffffffffff166370a08231306040518263ffffffff1660e01b8152600401808273ffffffffffffffffffffffffffffffffffffffff16815260200191505060206040518083038186803b1580156108e257600080fd5b505afa1580156108f6573d6000803e3d6000fd5b505050506040513d602081101561090c57600080fd5b8101908080519060200190929190505050905060088260ff166003811061092f57fe5b0160009054906101000a900473ffffffffffffffffffffffffffffffffffffffff1673ffffffffffffffffffffffffffffffffffffffff1663a9059cbb84836040518363ffffffff1660e01b8152600401808373ffffffffffffffffffffffffffffffffffffffff16815260200182815260200192505050602060405180830381600087803b1580156109c157600080fd5b505af11580156109d5573d6000803e3d6000fd5b505050506040513d60208110156109eb57600080fd5b81019080805190602001909291905050505060028260ff1660038110610a0d57fe5b0160009054906101000a900473ffffffffffffffffffffffffffffffffffffffff1673ffffffffffffffffffffffffffffffffffffffff1663b6b55f25826040518263ffffffff1660e01b815260040180828152602001915050600060405180830381600087803b158015610a8157600080fd5b505af1158015610a95573d6000803e3d6000fd5b50505050505050565b60008054906101000a900473ffffffffffffffffffffffffffffffffffffffff1673ffffffffffffffffffffffffffffffffffffffff163373ffffffffffffffffffffffffffffffffffffffff161480610b455750600160009054906101000a900473ffffffffffffffffffffffffffffffffffffffff1673ffffffffffffffffffffffffffffffffffffffff163373ffffffffffffffffffffffffffffffffffffffff16145b610bb7576040517f08c379a000000000000000000000000000000000000000000000000000000000815260040180806020018281038252600e8152602001807f6e6f7420617574686f72697a656400000000000000000000000000000000000081525060200191505060405180910390fd5b8160028260ff1660038110610bc857fe5b0160006101000a81548173ffffffffffffffffffffffffffffffffffffffff021916908373ffffffffffffffffffffffffffffffffffffffff1602179055505050565b60008054906101000a900473ffffffffffffffffffffffffffffffffffffffff1673ffffffffffffffffffffffffffffffffffffffff163373ffffffffffffffffffffffffffffffffffffffff161480610cb25750600160009054906101000a900473ffffffffffffffffffffffffffffffffffffffff1673ffffffffffffffffffffffffffffffffffffffff163373ffffffffffffffffffffffffffffffffffffffff16145b610d24576040517f08c379a000000000000000000000000000000000000000000000000000000000815260040180806020018281038252600e8152602001807f6e6f7420617574686f72697a656400000000000000000000000000000000000081525060200191505060405180910390fd5b60005b60038160ff161015610ede576000828260ff1660038110610d4457fe5b60200201351115610ed15760028160ff1660038110610d5f57fe5b0160009054906101000a900473ffffffffffffffffffffffffffffffffffffffff1673ffffffffffffffffffffffffffffffffffffffff1663f87bf3ca6040518163ffffffff1660e01b8152600401602060405180830381600087803b158015610dc857600080fd5b505af1158015610ddc573d6000803e3d6000fd5b505050506040513d6020811015610df257600080fd5b810190808051906020019092919050505060058260ff1660038110610e1357fe5b016000828254019250508190555060028160ff1660038110610e3157fe5b0160009054906101000a900473ffffffffffffffffffffffffffffffffffffffff1673ffffffffffffffffffffffffffffffffffffffff1663b6b55f25838360ff1660038110610e7d57fe5b60200201356040518263ffffffff1660e01b815260040180828152602001915050600060405180830381600087803b158015610eb857600080fd5b505af1158015610ecc573d6000803e3d6000fd5b505050505b8080600101915050610d27565b5050565b60008054906101000a900473ffffffffffffffffffffffffffffffffffffffff1673ffffffffffffffffffffffffffffffffffffffff163373ffffffffffffffffffffffffffffffffffffffff161480610f895750600160009054906101000a900473ffffffffffffffffffffffffffffffffffffffff1673ffffffffffffffffffffffffffffffffffffffff163373ffffffffffffffffffffffffffffffffffffffff16145b610ffb576040517f08c379a000000000000000000000000000000000000000000000000000000000815260040180806020018281038252600e8152602001807f6e6f7420617574686f72697a656400000000000000000000000000000000000081525060200191505060405180910390fd5b60028260ff166003811061100b57fe5b0160009054906101000a900473ffffffffffffffffffffffffffffffffffffffff1673ffffffffffffffffffffffffffffffffffffffff1663e5da2cb2826040518263ffffffff1660e01b815260040180828152602001915050600060405180830381600087803b15801561107f57600080fd5b505af1158015611093573d6000803e3d6000fd5b505050505050565b6040518060600160405280600390602082028036833780820191505090505090565b604051806060016040528060039060208202803683378082019150509050509056fea264697066735822122009c799e8239274c097d4b5b5b7a00f6d0556646662fded005ef1a84153e94c2f64736f6c634300060c0033",
  "immutableReferences": {},
  "source": "// SPDX-License-Identifier: UNLICENSED\r\npragma solidity ^0.6.0;\r\n\r\nimport '../Interfaces/ERC20Interface.sol';\r\nimport '../Interfaces/rStrategyInterface.sol';\r\n\r\ncontract rController {\r\n\r\n    address public owner;\r\n\r\n    address royaleAddress;\r\n\r\n    rStrategyI[3] rStrategy;\r\n\r\n    uint256[3] totalProfit;\r\n\r\n    Erc20[3] Coins;\r\n\r\n     modifier onlyAuthorized {\r\n        require(msg.sender == owner || msg.sender == royaleAddress, \"not authorized\");\r\n        _;\r\n    }\r\n\r\n    constructor(Erc20[3] memory coins, address _royaleaddress) public {\r\n        owner = msg.sender;\r\n        royaleAddress =_royaleaddress;\r\n        for(uint8 i=0; i<3; i++) {\r\n            Coins[i] = coins[i];\r\n        }\r\n    }\r\n\r\n    function setStrategy(address _addr, uint8 coin) public onlyAuthorized {\r\n        rStrategy[coin] = rStrategyI(_addr);\r\n    }\r\n\r\n    function getStrategies() external view returns(rStrategyI[3] memory) {\r\n        return rStrategy;\r\n    }\r\n\r\n\r\n    function deposit(uint[3] calldata amounts) external onlyAuthorized {\r\n        for(uint8 coin=0; coin<3; coin++) {\r\n            if(amounts[coin] > 0) {\r\n                totalProfit[coin] += rStrategy[coin].calculateProfit();\r\n                rStrategy[coin].deposit(amounts[coin]);\r\n            }\r\n        }\r\n    }\r\n\r\n    function withdraw(uint[3] calldata amounts) external onlyAuthorized {\r\n        for(uint8 coin=0; coin<3; coin++) {\r\n            if(amounts[coin] > 0) {\r\n                rStrategy[coin].withdraw(amounts[coin]);\r\n            }\r\n        }\r\n    }\r\n\r\n    function changeStrategy(address _to, uint8 coin) external onlyAuthorized {\r\n\r\n        rStrategy[coin].withdrawAll();\r\n\r\n        setStrategy(_to, coin);\r\n\r\n        uint bal = Coins[coin].balanceOf(address(this));\r\n        Coins[coin].transfer(_to, bal);\r\n        rStrategy[coin].deposit(bal);\r\n\r\n    }\r\n\r\n    function getTotalProfit() external onlyAuthorized view returns(uint256[3] memory) {\r\n         return totalProfit;\r\n    }\r\n\r\n    function stakeLPtokens(uint8 coin, uint _perc) external onlyAuthorized {\r\n        rStrategy[coin].stakeLP(_perc);\r\n    }\r\n\r\n}",
  "sourcePath": "C:/Users/MayankVats/Desktop/WORK/blockchain/Royale/rlp/contracts/rController.sol",
  "compiler": {
    "name": "solc",
    "version": "0.6.12+commit.27d51765.Emscripten.clang"
  },
  "schemaVersion": "3.3.2",
  "updatedAt": "2020-12-22T09:08:29.068Z",
  "devdoc": {
    "kind": "dev",
    "methods": {},
    "version": 1
  },
  "userdoc": {
    "kind": "user",
    "methods": {},
    "version": 1
  }
}