{
  "contractName": "rController",
  "abi": [
    {
      "inputs": [
        {
          "internalType": "contract Erc20[3]",
          "name": "coins",
          "type": "address[3]"
        },
        {
          "internalType": "address",
          "name": "_royaleaddress",
          "type": "address"
        }
      ],
      "stateMutability": "nonpayable",
      "type": "constructor"
    },
    {
      "inputs": [],
      "name": "owner",
      "outputs": [
        {
          "internalType": "address",
          "name": "",
          "type": "address"
        }
      ],
      "stateMutability": "view",
      "type": "function"
    },
    {
      "inputs": [
        {
          "internalType": "address",
          "name": "_addr",
          "type": "address"
        },
        {
          "internalType": "uint8",
          "name": "coin",
          "type": "uint8"
        }
      ],
      "name": "setStrategy",
      "outputs": [],
      "stateMutability": "nonpayable",
      "type": "function"
    },
    {
      "inputs": [],
      "name": "getStrategies",
      "outputs": [
        {
          "internalType": "contract rStrategyI[3]",
          "name": "",
          "type": "address[3]"
        }
      ],
      "stateMutability": "view",
      "type": "function"
    },
    {
      "inputs": [
        {
          "internalType": "uint256[3]",
          "name": "amounts",
          "type": "uint256[3]"
        }
      ],
      "name": "deposit",
      "outputs": [],
      "stateMutability": "nonpayable",
      "type": "function"
    },
    {
      "inputs": [
        {
          "internalType": "uint256[3]",
          "name": "amounts",
          "type": "uint256[3]"
        }
      ],
      "name": "withdraw",
      "outputs": [],
      "stateMutability": "nonpayable",
      "type": "function"
    },
    {
      "inputs": [
        {
          "internalType": "address",
          "name": "_to",
          "type": "address"
        },
        {
          "internalType": "uint8",
          "name": "coin",
          "type": "uint8"
        }
      ],
      "name": "changeStrategy",
      "outputs": [],
      "stateMutability": "nonpayable",
      "type": "function"
    },
    {
      "inputs": [],
      "name": "getTotalProfit",
      "outputs": [
        {
          "internalType": "uint256[3]",
          "name": "",
          "type": "uint256[3]"
        }
      ],
      "stateMutability": "view",
      "type": "function"
    },
    {
      "inputs": [
        {
          "internalType": "uint8",
          "name": "coin",
          "type": "uint8"
        }
      ],
      "name": "stakeLPtokens",
      "outputs": [],
      "stateMutability": "nonpayable",
      "type": "function"
    }
  ],
  "bytecode": "0x608060405234801561001057600080fd5b5060405161125b38038061125b8339818101604052608081101561003357600080fd5b8101908091908260600180519060200190929190505050336000806101000a81548173ffffffffffffffffffffffffffffffffffffffff021916908373ffffffffffffffffffffffffffffffffffffffff16021790555080600160006101000a81548173ffffffffffffffffffffffffffffffffffffffff021916908373ffffffffffffffffffffffffffffffffffffffff16021790555060005b60038160ff16101561014a57828160ff16600381106100e957fe5b602002015160088260ff16600381106100fe57fe5b0160006101000a81548173ffffffffffffffffffffffffffffffffffffffff021916908373ffffffffffffffffffffffffffffffffffffffff16021790555080806001019150506100ce565b5050506110ff8061015c6000396000f3fe608060405234801561001057600080fd5b50600436106100885760003560e01c8063b921db981161005b578063b921db981461017b578063bca48e18146101cc578063cae47fb9146101fd578063d4e20b011461024e57610088565b80638da5cb5b1461008d578063a9a4cbcc146100c1578063b1b8f1be14610107578063b49a60bb14610135575b600080fd5b61009561027c565b604051808273ffffffffffffffffffffffffffffffffffffffff16815260200191505060405180910390f35b6100c96102a0565b6040518082600360200280838360005b838110156100f45780820151818401526020810190506100d9565b5050505090500191505060405180910390f35b6101336004803603606081101561011d57600080fd5b8101908080606001909192919290505050610404565b005b61013d610609565b6040518082600360200280838360005b8381101561016857808201518184015260208101905061014d565b5050505090500191505060405180910390f35b6101ca6004803603604081101561019157600080fd5b81019080803573ffffffffffffffffffffffffffffffffffffffff169060200190929190803560ff16906020019092919050505061068a565b005b6101fb600480360360208110156101e257600080fd5b81019080803560ff169060200190929190505050610a94565b005b61024c6004803603604081101561021357600080fd5b81019080803573ffffffffffffffffffffffffffffffffffffffff169060200190929190803560ff169060200190929190505050610c41565b005b61027a6004803603606081101561026457600080fd5b8101908080606001909192919290505050610dae565b005b60008054906101000a900473ffffffffffffffffffffffffffffffffffffffff1681565b6102a8611085565b60008054906101000a900473ffffffffffffffffffffffffffffffffffffffff1673ffffffffffffffffffffffffffffffffffffffff163373ffffffffffffffffffffffffffffffffffffffff16148061034f5750600160009054906101000a900473ffffffffffffffffffffffffffffffffffffffff1673ffffffffffffffffffffffffffffffffffffffff163373ffffffffffffffffffffffffffffffffffffffff16145b6103c1576040517f08c379a000000000000000000000000000000000000000000000000000000000815260040180806020018281038252600e8152602001807f6e6f7420617574686f72697a656400000000000000000000000000000000000081525060200191505060405180910390fd5b60056003806020026040519081016040528092919082600380156103fa576020028201915b8154815260200190600101908083116103e6575b5050505050905090565b60008054906101000a900473ffffffffffffffffffffffffffffffffffffffff1673ffffffffffffffffffffffffffffffffffffffff163373ffffffffffffffffffffffffffffffffffffffff1614806104ab5750600160009054906101000a900473ffffffffffffffffffffffffffffffffffffffff1673ffffffffffffffffffffffffffffffffffffffff163373ffffffffffffffffffffffffffffffffffffffff16145b61051d576040517f08c379a000000000000000000000000000000000000000000000000000000000815260040180806020018281038252600e8152602001807f6e6f7420617574686f72697a656400000000000000000000000000000000000081525060200191505060405180910390fd5b60005b60038160ff161015610605576000828260ff166003811061053d57fe5b602002013511156105f85760028160ff166003811061055857fe5b0160009054906101000a900473ffffffffffffffffffffffffffffffffffffffff1673ffffffffffffffffffffffffffffffffffffffff16632e1a7d4d838360ff16600381106105a457fe5b60200201356040518263ffffffff1660e01b815260040180828152602001915050600060405180830381600087803b1580156105df57600080fd5b505af11580156105f3573d6000803e3d6000fd5b505050505b8080600101915050610520565b5050565b6106116110a7565b6002600380602002604051908101604052809291908260038015610680576020028201915b8160009054906101000a900473ffffffffffffffffffffffffffffffffffffffff1673ffffffffffffffffffffffffffffffffffffffff1681526020019060010190808311610636575b5050505050905090565b60008054906101000a900473ffffffffffffffffffffffffffffffffffffffff1673ffffffffffffffffffffffffffffffffffffffff163373ffffffffffffffffffffffffffffffffffffffff1614806107315750600160009054906101000a900473ffffffffffffffffffffffffffffffffffffffff1673ffffffffffffffffffffffffffffffffffffffff163373ffffffffffffffffffffffffffffffffffffffff16145b6107a3576040517f08c379a000000000000000000000000000000000000000000000000000000000815260040180806020018281038252600e8152602001807f6e6f7420617574686f72697a656400000000000000000000000000000000000081525060200191505060405180910390fd5b60028160ff16600381106107b357fe5b0160009054906101000a900473ffffffffffffffffffffffffffffffffffffffff1673ffffffffffffffffffffffffffffffffffffffff1663853828b66040518163ffffffff1660e01b8152600401600060405180830381600087803b15801561081c57600080fd5b505af1158015610830573d6000803e3d6000fd5b5050505061083e8282610c41565b600060088260ff166003811061085057fe5b0160009054906101000a900473ffffffffffffffffffffffffffffffffffffffff1673ffffffffffffffffffffffffffffffffffffffff166370a08231306040518263ffffffff1660e01b8152600401808273ffffffffffffffffffffffffffffffffffffffff16815260200191505060206040518083038186803b1580156108d857600080fd5b505afa1580156108ec573d6000803e3d6000fd5b505050506040513d602081101561090257600080fd5b8101908080519060200190929190505050905060088260ff166003811061092557fe5b0160009054906101000a900473ffffffffffffffffffffffffffffffffffffffff1673ffffffffffffffffffffffffffffffffffffffff1663a9059cbb84836040518363ffffffff1660e01b8152600401808373ffffffffffffffffffffffffffffffffffffffff16815260200182815260200192505050602060405180830381600087803b1580156109b757600080fd5b505af11580156109cb573d6000803e3d6000fd5b505050506040513d60208110156109e157600080fd5b81019080805190602001909291905050505060028260ff1660038110610a0357fe5b0160009054906101000a900473ffffffffffffffffffffffffffffffffffffffff1673ffffffffffffffffffffffffffffffffffffffff1663b6b55f25826040518263ffffffff1660e01b815260040180828152602001915050600060405180830381600087803b158015610a7757600080fd5b505af1158015610a8b573d6000803e3d6000fd5b50505050505050565b60008054906101000a900473ffffffffffffffffffffffffffffffffffffffff1673ffffffffffffffffffffffffffffffffffffffff163373ffffffffffffffffffffffffffffffffffffffff161480610b3b5750600160009054906101000a900473ffffffffffffffffffffffffffffffffffffffff1673ffffffffffffffffffffffffffffffffffffffff163373ffffffffffffffffffffffffffffffffffffffff16145b610bad576040517f08c379a000000000000000000000000000000000000000000000000000000000815260040180806020018281038252600e8152602001807f6e6f7420617574686f72697a656400000000000000000000000000000000000081525060200191505060405180910390fd5b60028160ff1660038110610bbd57fe5b0160009054906101000a900473ffffffffffffffffffffffffffffffffffffffff1673ffffffffffffffffffffffffffffffffffffffff166310ff582d6040518163ffffffff1660e01b8152600401600060405180830381600087803b158015610c2657600080fd5b505af1158015610c3a573d6000803e3d6000fd5b5050505050565b60008054906101000a900473ffffffffffffffffffffffffffffffffffffffff1673ffffffffffffffffffffffffffffffffffffffff163373ffffffffffffffffffffffffffffffffffffffff161480610ce85750600160009054906101000a900473ffffffffffffffffffffffffffffffffffffffff1673ffffffffffffffffffffffffffffffffffffffff163373ffffffffffffffffffffffffffffffffffffffff16145b610d5a576040517f08c379a000000000000000000000000000000000000000000000000000000000815260040180806020018281038252600e8152602001807f6e6f7420617574686f72697a656400000000000000000000000000000000000081525060200191505060405180910390fd5b8160028260ff1660038110610d6b57fe5b0160006101000a81548173ffffffffffffffffffffffffffffffffffffffff021916908373ffffffffffffffffffffffffffffffffffffffff1602179055505050565b60008054906101000a900473ffffffffffffffffffffffffffffffffffffffff1673ffffffffffffffffffffffffffffffffffffffff163373ffffffffffffffffffffffffffffffffffffffff161480610e555750600160009054906101000a900473ffffffffffffffffffffffffffffffffffffffff1673ffffffffffffffffffffffffffffffffffffffff163373ffffffffffffffffffffffffffffffffffffffff16145b610ec7576040517f08c379a000000000000000000000000000000000000000000000000000000000815260040180806020018281038252600e8152602001807f6e6f7420617574686f72697a656400000000000000000000000000000000000081525060200191505060405180910390fd5b60005b60038160ff161015611081576000828260ff1660038110610ee757fe5b602002013511156110745760028160ff1660038110610f0257fe5b0160009054906101000a900473ffffffffffffffffffffffffffffffffffffffff1673ffffffffffffffffffffffffffffffffffffffff1663f87bf3ca6040518163ffffffff1660e01b8152600401602060405180830381600087803b158015610f6b57600080fd5b505af1158015610f7f573d6000803e3d6000fd5b505050506040513d6020811015610f9557600080fd5b810190808051906020019092919050505060058260ff1660038110610fb657fe5b016000828254019250508190555060028160ff1660038110610fd457fe5b0160009054906101000a900473ffffffffffffffffffffffffffffffffffffffff1673ffffffffffffffffffffffffffffffffffffffff1663b6b55f25838360ff166003811061102057fe5b60200201356040518263ffffffff1660e01b815260040180828152602001915050600060405180830381600087803b15801561105b57600080fd5b505af115801561106f573d6000803e3d6000fd5b505050505b8080600101915050610eca565b5050565b6040518060600160405280600390602082028036833780820191505090505090565b604051806060016040528060039060208202803683378082019150509050509056fea26469706673582212208c7e0288a8c6e1f7426b6f46e5cbc6c332693a2ea97b9a478a60f723a8ae158c64736f6c634300060c0033",
  "immutableReferences": {},
  "source": "// SPDX-License-Identifier: UNLICENSED\r\npragma solidity ^0.6.0;\r\n\r\nimport '../Interfaces/ERC20Interface.sol';\r\nimport '../Interfaces/rStrategyInterface.sol';\r\n\r\ncontract rController {\r\n\r\n    address public owner;\r\n\r\n    address royaleAddress;\r\n\r\n    rStrategyI[3] rStrategy;\r\n\r\n    uint256[3] totalProfit;\r\n\r\n    Erc20[3] Coins;\r\n\r\n     modifier onlyAuthorized {\r\n        require(msg.sender == owner || msg.sender == royaleAddress, \"not authorized\");\r\n        _;\r\n    }\r\n\r\n    constructor(Erc20[3] memory coins, address _royaleaddress) public {\r\n        owner = msg.sender;\r\n        royaleAddress =_royaleaddress;\r\n        for(uint8 i=0; i<3; i++) {\r\n            Coins[i] = coins[i];\r\n        }\r\n    }\r\n\r\n    function setStrategy(address _addr, uint8 coin) public onlyAuthorized {\r\n        rStrategy[coin] = rStrategyI(_addr);\r\n    }\r\n\r\n    function getStrategies() external view returns(rStrategyI[3] memory) {\r\n        return rStrategy;\r\n    }\r\n\r\n\r\n    function deposit(uint[3] calldata amounts) external onlyAuthorized {\r\n        for(uint8 coin=0; coin<3; coin++) {\r\n            if(amounts[coin] > 0) {\r\n                totalProfit[coin] += rStrategy[coin].calculateProfit();\r\n                rStrategy[coin].deposit(amounts[coin]);\r\n            }\r\n        }\r\n    }\r\n\r\n    function withdraw(uint[3] calldata amounts) external onlyAuthorized {\r\n        for(uint8 coin=0; coin<3; coin++) {\r\n            if(amounts[coin] > 0) {\r\n                rStrategy[coin].withdraw(amounts[coin]);\r\n            }\r\n        }\r\n    }\r\n\r\n    function changeStrategy(address _to, uint8 coin) external onlyAuthorized {\r\n\r\n        rStrategy[coin].withdrawAll();\r\n\r\n        setStrategy(_to, coin);\r\n\r\n        uint bal = Coins[coin].balanceOf(address(this));\r\n        Coins[coin].transfer(_to, bal);\r\n        rStrategy[coin].deposit(bal);\r\n\r\n    }\r\n\r\n    function getTotalProfit() external onlyAuthorized view returns(uint256[3] memory) {\r\n         return totalProfit;\r\n    }\r\n\r\n    function stakeLPtokens(uint8 coin) external onlyAuthorized {\r\n        rStrategy[coin].stakeLP();\r\n    }\r\n\r\n}",
  "sourcePath": "C:/Users/vishn/OneDrive/Desktop/TempRoyakle/rlp/contracts/rController.sol",
  "compiler": {
    "name": "solc",
    "version": "0.6.12+commit.27d51765.Emscripten.clang"
  },
  "schemaVersion": "3.3.2",
  "updatedAt": "2020-12-22T10:05:55.714Z",
  "devdoc": {
    "kind": "dev",
    "methods": {},
    "version": 1
  },
  "userdoc": {
    "kind": "user",
    "methods": {},
    "version": 1
  }
}