{
  "contractName": "rCurve",
  "abi": [
    {
      "inputs": [
        {
          "internalType": "contract Erc20",
          "name": "_poolToken",
          "type": "address"
        },
        {
          "internalType": "contract Erc20[3]",
          "name": "_tokens",
          "type": "address[3]"
        },
        {
          "internalType": "address",
          "name": "addr",
          "type": "address"
        }
      ],
      "stateMutability": "nonpayable",
      "type": "constructor"
    },
    {
      "inputs": [],
      "name": "Pool",
      "outputs": [
        {
          "internalType": "contract curvePool",
          "name": "",
          "type": "address"
        }
      ],
      "stateMutability": "view",
      "type": "function"
    },
    {
      "inputs": [
        {
          "internalType": "contract curvePool",
          "name": "_pool",
          "type": "address"
        }
      ],
      "name": "setPool",
      "outputs": [],
      "stateMutability": "nonpayable",
      "type": "function"
    },
    {
      "inputs": [
        {
          "internalType": "uint256[3]",
          "name": "amount",
          "type": "uint256[3]"
        }
      ],
      "name": "deposit",
      "outputs": [],
      "stateMutability": "nonpayable",
      "type": "function"
    },
    {
      "inputs": [
        {
          "internalType": "uint256[3]",
          "name": "amount",
          "type": "uint256[3]"
        }
      ],
      "name": "withdraw",
      "outputs": [],
      "stateMutability": "nonpayable",
      "type": "function"
    }
  ],
  "bytecode": "0x6080604052735b2a3246d70abb9121ea532a9ac6f77d45366643600560006101000a81548173ffffffffffffffffffffffffffffffffffffffff021916908373ffffffffffffffffffffffffffffffffffffffff16021790555034801561006557600080fd5b50604051610bbc380380610bbc833981810160405260a081101561008857600080fd5b810190808051906020019092919091908260600180519060200190929190505050336000806101000a81548173ffffffffffffffffffffffffffffffffffffffff021916908373ffffffffffffffffffffffffffffffffffffffff16021790555082600460006101000a81548173ffffffffffffffffffffffffffffffffffffffff021916908373ffffffffffffffffffffffffffffffffffffffff16021790555060005b60036fffffffffffffffffffffffffffffffff168160ff1610156101bb57828160ff166003811061015a57fe5b602002015160018260ff166003811061016f57fe5b0160006101000a81548173ffffffffffffffffffffffffffffffffffffffff021916908373ffffffffffffffffffffffffffffffffffffffff160217905550808060010191505061012d565b5080600660006101000a81548173ffffffffffffffffffffffffffffffffffffffff021916908373ffffffffffffffffffffffffffffffffffffffff1602179055505050506109ad8061020f6000396000f3fe608060405234801561001057600080fd5b506004361061004c5760003560e01c806307f3b8bb146100515780634437152a14610085578063b1b8f1be146100c9578063d4e20b01146100f7575b600080fd5b610059610125565b604051808273ffffffffffffffffffffffffffffffffffffffff16815260200191505060405180910390f35b6100c76004803603602081101561009b57600080fd5b81019080803573ffffffffffffffffffffffffffffffffffffffff16906020019092919050505061014b565b005b6100f5600480360360608110156100df57600080fd5b81019080806060019091929192905050506101e7565b005b6101236004803603606081101561010d57600080fd5b810190808060600190919291929050505061022a565b005b600560009054906101000a900473ffffffffffffffffffffffffffffffffffffffff1681565b60008054906101000a900473ffffffffffffffffffffffffffffffffffffffff1673ffffffffffffffffffffffffffffffffffffffff163373ffffffffffffffffffffffffffffffffffffffff16146101a357600080fd5b80600560006101000a81548173ffffffffffffffffffffffffffffffffffffffff021916908373ffffffffffffffffffffffffffffffffffffffff16021790555050565b610227816003806020026040519081016040528092919082600360200280828437600081840152601f19601f82011690508083019250505050505061026d565b50565b61026a816003806020026040519081016040528092919082600360200280828437600081840152601f19601f820116905080830192505050505050610662565b50565b6000806000805b60036fffffffffffffffffffffffffffffffff168160ff16101561037d5760018160ff16600381106102a257fe5b0160009054906101000a900473ffffffffffffffffffffffffffffffffffffffff1673ffffffffffffffffffffffffffffffffffffffff1663313ce5676040518163ffffffff1660e01b815260040160206040518083038186803b15801561030957600080fd5b505afa15801561031d573d6000803e3d6000fd5b505050506040513d602081101561033357600080fd5b810190808051906020019092919050505060ff16925082600a0a858260ff166003811061035c57fe5b60200201518161036857fe5b04915081840193508080600101915050610274565b506064600284028161038b57fe5b0483019250600460009054906101000a900473ffffffffffffffffffffffffffffffffffffffff1673ffffffffffffffffffffffffffffffffffffffff1663313ce5676040518163ffffffff1660e01b815260040160206040518083038186803b1580156103f857600080fd5b505afa15801561040c573d6000803e3d6000fd5b505050506040513d602081101561042257600080fd5b810190808051906020019092919050505060ff16915081600a0a83029250600560009054906101000a900473ffffffffffffffffffffffffffffffffffffffff1673ffffffffffffffffffffffffffffffffffffffff16639fdaea0c85856040518363ffffffff1660e01b81526004018083600360200280838360005b838110156104ba57808201518184015260208101905061049f565b5050505090500182815260200192505050600060405180830381600087803b1580156104e557600080fd5b505af11580156104f9573d6000803e3d6000fd5b5050505060005b60036fffffffffffffffffffffffffffffffff168160ff16101561065b576000858260ff166003811061052f57fe5b6020020151111561064e5760018160ff166003811061054a57fe5b0160009054906101000a900473ffffffffffffffffffffffffffffffffffffffff1673ffffffffffffffffffffffffffffffffffffffff1663a9059cbb600660009054906101000a900473ffffffffffffffffffffffffffffffffffffffff16878460ff16600381106105b957fe5b60200201516040518363ffffffff1660e01b8152600401808373ffffffffffffffffffffffffffffffffffffffff16815260200182815260200192505050602060405180830381600087803b15801561061157600080fd5b505af1158015610625573d6000803e3d6000fd5b505050506040513d602081101561063b57600080fd5b8101908080519060200190929190505050505b8080600101915050610500565b5050505050565b60005b60036fffffffffffffffffffffffffffffffff168160ff1610156107c0576000828260ff166003811061069457fe5b602002015111156107b35760018160ff16600381106106af57fe5b0160009054906101000a900473ffffffffffffffffffffffffffffffffffffffff1673ffffffffffffffffffffffffffffffffffffffff1663095ea7b3600560009054906101000a900473ffffffffffffffffffffffffffffffffffffffff16848460ff166003811061071e57fe5b60200201516040518363ffffffff1660e01b8152600401808373ffffffffffffffffffffffffffffffffffffffff16815260200182815260200192505050602060405180830381600087803b15801561077657600080fd5b505af115801561078a573d6000803e3d6000fd5b505050506040513d60208110156107a057600080fd5b8101908080519060200190929190505050505b8080600101915050610665565b506000600560009054906101000a900473ffffffffffffffffffffffffffffffffffffffff1673ffffffffffffffffffffffffffffffffffffffff16633883e1198360016040518363ffffffff1660e01b81526004018083600360200280838360005b8381101561083e578082015181840152602081019050610823565b5050505090500182151581526020019250505060206040518083038186803b15801561086957600080fd5b505afa15801561087d573d6000803e3d6000fd5b505050506040513d602081101561089357600080fd5b81019080805190602001909291905050509050606481606302816108b357fe5b049050600560009054906101000a900473ffffffffffffffffffffffffffffffffffffffff1673ffffffffffffffffffffffffffffffffffffffff16634515cef383836040518363ffffffff1660e01b81526004018083600360200280838360005b83811015610930578082015181840152602081019050610915565b5050505090500182815260200192505050600060405180830381600087803b15801561095b57600080fd5b505af115801561096f573d6000803e3d6000fd5b50505050505056fea26469706673582212203162c13b3d6c8d0f513168d8e4693bce112eaf42477a13e167a9a12df13c032c64736f6c634300060c0033",
  "immutableReferences": {},
  "source": "// SPDX-License-Identifier: UNLICENSED\r\npragma solidity ^0.6.0;\r\n\r\nimport './Interfaces/CurveInterface.sol';\r\nimport './Interfaces/ERC20Interface.sol';\r\n\r\ncontract rCurve {\r\n\r\n    uint128 constant N_COINS = 3;\r\n\r\n    address owner;\r\n    \r\n    Erc20[N_COINS] tokens;\r\n    Erc20 PoolToken;\r\n    curvePool public Pool = curvePool(0x5B2A3246d70ABB9121EA532a9Ac6f77D45366643);\r\n\r\n    address LPaddr;\r\n\r\n    constructor(\r\n        Erc20 _poolToken,\r\n        Erc20[N_COINS] memory _tokens,\r\n        address addr\r\n    ) public {\r\n        owner = msg.sender;\r\n\r\n        PoolToken = _poolToken;\r\n\r\n        for(uint8 i=0; i<N_COINS; i++) {\r\n            tokens[i] = _tokens[i];\r\n        }\r\n\r\n        LPaddr = addr;\r\n    }\r\n\r\n    //set pool\r\n    function setPool(curvePool _pool) public {\r\n        require(msg.sender == owner);\r\n        Pool = _pool;\r\n    }\r\n\r\n    // Deposit\r\n    function _deposit(uint256[N_COINS] memory amounts) internal {\r\n        for(uint8 i=0; i<N_COINS; i++){\r\n            if(amounts[i] > 0){\r\n               tokens[i].approve(address(Pool), amounts[i]);\r\n            }\r\n        }\r\n\r\n        uint mintAmount = Pool.calc_token_amount(amounts, true);\r\n        mintAmount = (99 * mintAmount) / 100;\r\n        Pool.add_liquidity(amounts, mintAmount);\r\n    }\r\n\r\n    // Withdraw\r\n    function _withdraw(uint256[N_COINS] memory amounts) internal {\r\n        uint256 max_burn = 0;\r\n        uint256 decimal = 0;\r\n        uint256 temp = 0;\r\n\r\n        for(uint8 i=0; i<N_COINS; i++) {\r\n            decimal = tokens[i].decimals();\r\n            temp = amounts[i] / 10**decimal;\r\n            max_burn = max_burn + temp;\r\n        }\r\n\r\n        max_burn = max_burn + (max_burn * 2) / 100;\r\n        decimal = PoolToken.decimals();\r\n        max_burn = max_burn * 10**decimal;\r\n\r\n        Pool.remove_liquidity_imbalance(amounts, max_burn);\r\n\r\n        for(uint8 i=0; i<N_COINS; i++) {\r\n            if(amounts[i] > 0) {\r\n                tokens[i].transfer(LPaddr, amounts[i]);\r\n            }\r\n        }\r\n    }\r\n\r\n    function deposit(uint256[N_COINS] calldata amount) external {\r\n        _deposit(amount);\r\n    }\r\n\r\n    function withdraw(uint256[N_COINS] calldata amount) external {\r\n        _withdraw(amount);\r\n    }\r\n}",
  "sourcePath": "C:/Users/MayankVats/Desktop/WORK/blockchain/Royale/royale-contracts/contracts/rCurve.sol",
  "compiler": {
    "name": "solc",
    "version": "0.6.12+commit.27d51765.Emscripten.clang"
  },
  "schemaVersion": "3.3.2",
  "updatedAt": "2020-12-11T09:23:52.127Z",
  "devdoc": {
    "kind": "dev",
    "methods": {},
    "version": 1
  },
  "userdoc": {
    "kind": "user",
    "methods": {},
    "version": 1
  }
}