{
  "contractName": "rCurve",
  "abi": [
    {
      "inputs": [
        {
          "internalType": "contract Erc20",
          "name": "_poolToken",
          "type": "address"
        },
        {
          "internalType": "contract Erc20[3]",
          "name": "_tokens",
          "type": "address[3]"
        },
        {
          "internalType": "address",
          "name": "addr",
          "type": "address"
        }
      ],
      "stateMutability": "nonpayable",
      "type": "constructor"
    },
    {
      "inputs": [],
      "name": "Pool",
      "outputs": [
        {
          "internalType": "contract curvePool",
          "name": "",
          "type": "address"
        }
      ],
      "stateMutability": "view",
      "type": "function"
    },
    {
      "inputs": [
        {
          "internalType": "contract curvePool",
          "name": "_pool",
          "type": "address"
        }
      ],
      "name": "setPool",
      "outputs": [],
      "stateMutability": "nonpayable",
      "type": "function"
    },
    {
      "inputs": [
        {
          "internalType": "uint256[3]",
          "name": "amount",
          "type": "uint256[3]"
        }
      ],
      "name": "deposit",
      "outputs": [],
      "stateMutability": "nonpayable",
      "type": "function"
    },
    {
      "inputs": [
        {
          "internalType": "uint256[3]",
          "name": "amount",
          "type": "uint256[3]"
        }
      ],
      "name": "withdraw",
      "outputs": [],
      "stateMutability": "nonpayable",
      "type": "function"
    },
    {
      "inputs": [
        {
          "internalType": "address",
          "name": "_to",
          "type": "address"
        }
      ],
      "name": "changePool",
      "outputs": [],
      "stateMutability": "nonpayable",
      "type": "function"
    }
  ],
  "bytecode": "0x6080604052735b2a3246d70abb9121ea532a9ac6f77d45366643600560006101000a81548173ffffffffffffffffffffffffffffffffffffffff021916908373ffffffffffffffffffffffffffffffffffffffff16021790555034801561006557600080fd5b506040516112cb3803806112cb833981810160405260a081101561008857600080fd5b810190808051906020019092919091908260600180519060200190929190505050336000806101000a81548173ffffffffffffffffffffffffffffffffffffffff021916908373ffffffffffffffffffffffffffffffffffffffff16021790555082600460006101000a81548173ffffffffffffffffffffffffffffffffffffffff021916908373ffffffffffffffffffffffffffffffffffffffff16021790555060005b60036fffffffffffffffffffffffffffffffff168160ff1610156101bb57828160ff166003811061015a57fe5b602002015160018260ff166003811061016f57fe5b0160006101000a81548173ffffffffffffffffffffffffffffffffffffffff021916908373ffffffffffffffffffffffffffffffffffffffff160217905550808060010191505061012d565b5080600660006101000a81548173ffffffffffffffffffffffffffffffffffffffff021916908373ffffffffffffffffffffffffffffffffffffffff1602179055505050506110bc8061020f6000396000f3fe608060405234801561001057600080fd5b50600436106100575760003560e01c806307f3b8bb1461005c5780634339bc30146100905780634437152a146100d4578063b1b8f1be14610118578063d4e20b0114610146575b600080fd5b610064610174565b604051808273ffffffffffffffffffffffffffffffffffffffff16815260200191505060405180910390f35b6100d2600480360360208110156100a657600080fd5b81019080803573ffffffffffffffffffffffffffffffffffffffff16906020019092919050505061019a565b005b610116600480360360208110156100ea57600080fd5b81019080803573ffffffffffffffffffffffffffffffffffffffff169060200190929190505050610443565b005b6101446004803603606081101561012e57600080fd5b81019080806060019091929192905050506104df565b005b6101726004803603606081101561015c57600080fd5b8101908080606001909192919290505050610744565b005b600560009054906101000a900473ffffffffffffffffffffffffffffffffffffffff1681565b60008054906101000a900473ffffffffffffffffffffffffffffffffffffffff1673ffffffffffffffffffffffffffffffffffffffff163373ffffffffffffffffffffffffffffffffffffffff161461025b576040517f08c379a000000000000000000000000000000000000000000000000000000000815260040180806020018281038252600e8152602001807f6e6f7420617574686f72697a656400000000000000000000000000000000000081525060200191505060405180910390fd5b61026361084a565b60005b60038160ff16101561043f57600060018260ff166003811061028457fe5b0160009054906101000a900473ffffffffffffffffffffffffffffffffffffffff1673ffffffffffffffffffffffffffffffffffffffff166370a08231306040518263ffffffff1660e01b8152600401808273ffffffffffffffffffffffffffffffffffffffff16815260200191505060206040518083038186803b15801561030c57600080fd5b505afa158015610320573d6000803e3d6000fd5b505050506040513d602081101561033657600080fd5b8101908080519060200190929190505050905060008111156104315760018260ff166003811061036257fe5b0160009054906101000a900473ffffffffffffffffffffffffffffffffffffffff1673ffffffffffffffffffffffffffffffffffffffff1663a9059cbb84836040518363ffffffff1660e01b8152600401808373ffffffffffffffffffffffffffffffffffffffff16815260200182815260200192505050602060405180830381600087803b1580156103f457600080fd5b505af1158015610408573d6000803e3d6000fd5b505050506040513d602081101561041e57600080fd5b8101908080519060200190929190505050505b508080600101915050610266565b5050565b60008054906101000a900473ffffffffffffffffffffffffffffffffffffffff1673ffffffffffffffffffffffffffffffffffffffff163373ffffffffffffffffffffffffffffffffffffffff161461049b57600080fd5b80600560006101000a81548173ffffffffffffffffffffffffffffffffffffffff021916908373ffffffffffffffffffffffffffffffffffffffff16021790555050565b600660009054906101000a900473ffffffffffffffffffffffffffffffffffffffff1673ffffffffffffffffffffffffffffffffffffffff163373ffffffffffffffffffffffffffffffffffffffff16146105a2576040517f08c379a000000000000000000000000000000000000000000000000000000000815260040180806020018281038252600e8152602001807f6e6f7420617574686f72697a656400000000000000000000000000000000000081525060200191505060405180910390fd5b6105e2816003806020026040519081016040528092919082600360200280828437600081840152601f19601f820116905080830192505050505050610a19565b60005b60036fffffffffffffffffffffffffffffffff168160ff161015610740576000828260ff166003811061061457fe5b602002013511156107335760018160ff166003811061062f57fe5b0160009054906101000a900473ffffffffffffffffffffffffffffffffffffffff1673ffffffffffffffffffffffffffffffffffffffff1663a9059cbb600660009054906101000a900473ffffffffffffffffffffffffffffffffffffffff16848460ff166003811061069e57fe5b60200201356040518363ffffffff1660e01b8152600401808373ffffffffffffffffffffffffffffffffffffffff16815260200182815260200192505050602060405180830381600087803b1580156106f657600080fd5b505af115801561070a573d6000803e3d6000fd5b505050506040513d602081101561072057600080fd5b8101908080519060200190929190505050505b80806001019150506105e5565b5050565b600660009054906101000a900473ffffffffffffffffffffffffffffffffffffffff1673ffffffffffffffffffffffffffffffffffffffff163373ffffffffffffffffffffffffffffffffffffffff1614610807576040517f08c379a000000000000000000000000000000000000000000000000000000000815260040180806020018281038252600e8152602001807f6e6f7420617574686f72697a656400000000000000000000000000000000000081525060200191505060405180910390fd5b610847816003806020026040519081016040528092919082600360200280828437600081840152601f19601f820116905080830192505050505050610d10565b50565b6000600460009054906101000a900473ffffffffffffffffffffffffffffffffffffffff1673ffffffffffffffffffffffffffffffffffffffff166370a08231306040518263ffffffff1660e01b8152600401808273ffffffffffffffffffffffffffffffffffffffff16815260200191505060206040518083038186803b1580156108d557600080fd5b505afa1580156108e9573d6000803e3d6000fd5b505050506040513d60208110156108ff57600080fd5b81019080805190602001909291905050509050600560009054906101000a900473ffffffffffffffffffffffffffffffffffffffff1673ffffffffffffffffffffffffffffffffffffffff1663ecb586a5826040518060600160405280600760006003811061096a57fe5b01548152602001600760016003811061097f57fe5b01548152602001600760026003811061099457fe5b01548152506040518363ffffffff1660e01b81526004018083815260200182600360200280838360005b838110156109d95780820151818401526020810190506109be565b5050505090500192505050600060405180830381600087803b1580156109fe57600080fd5b505af1158015610a12573d6000803e3d6000fd5b5050505050565b6000806000805b60036fffffffffffffffffffffffffffffffff168160ff161015610b295760018160ff1660038110610a4e57fe5b0160009054906101000a900473ffffffffffffffffffffffffffffffffffffffff1673ffffffffffffffffffffffffffffffffffffffff1663313ce5676040518163ffffffff1660e01b815260040160206040518083038186803b158015610ab557600080fd5b505afa158015610ac9573d6000803e3d6000fd5b505050506040513d6020811015610adf57600080fd5b810190808051906020019092919050505060ff16925082600a0a858260ff1660038110610b0857fe5b602002015181610b1457fe5b04915081840193508080600101915050610a20565b5060646002840281610b3757fe5b0483019250600460009054906101000a900473ffffffffffffffffffffffffffffffffffffffff1673ffffffffffffffffffffffffffffffffffffffff1663313ce5676040518163ffffffff1660e01b815260040160206040518083038186803b158015610ba457600080fd5b505afa158015610bb8573d6000803e3d6000fd5b505050506040513d6020811015610bce57600080fd5b810190808051906020019092919050505060ff16915081600a0a83029250600560009054906101000a900473ffffffffffffffffffffffffffffffffffffffff1673ffffffffffffffffffffffffffffffffffffffff16639fdaea0c85856040518363ffffffff1660e01b81526004018083600360200280838360005b83811015610c66578082015181840152602081019050610c4b565b5050505090500182815260200192505050600060405180830381600087803b158015610c9157600080fd5b505af1158015610ca5573d6000803e3d6000fd5b5050505060005b60036fffffffffffffffffffffffffffffffff168160ff161015610d0957848160ff1660038110610cd957fe5b602002015160078260ff1660038110610cee57fe5b01600082825403925050819055508080600101915050610cac565b5050505050565b60005b60036fffffffffffffffffffffffffffffffff168160ff161015610e6e576000828260ff1660038110610d4257fe5b60200201511115610e615760018160ff1660038110610d5d57fe5b0160009054906101000a900473ffffffffffffffffffffffffffffffffffffffff1673ffffffffffffffffffffffffffffffffffffffff1663095ea7b3600560009054906101000a900473ffffffffffffffffffffffffffffffffffffffff16848460ff1660038110610dcc57fe5b60200201516040518363ffffffff1660e01b8152600401808373ffffffffffffffffffffffffffffffffffffffff16815260200182815260200192505050602060405180830381600087803b158015610e2457600080fd5b505af1158015610e38573d6000803e3d6000fd5b505050506040513d6020811015610e4e57600080fd5b8101908080519060200190929190505050505b8080600101915050610d13565b506000600560009054906101000a900473ffffffffffffffffffffffffffffffffffffffff1673ffffffffffffffffffffffffffffffffffffffff16633883e1198360016040518363ffffffff1660e01b81526004018083600360200280838360005b83811015610eec578082015181840152602081019050610ed1565b5050505090500182151581526020019250505060206040518083038186803b158015610f1757600080fd5b505afa158015610f2b573d6000803e3d6000fd5b505050506040513d6020811015610f4157600080fd5b8101908080519060200190929190505050905060648160630281610f6157fe5b049050600560009054906101000a900473ffffffffffffffffffffffffffffffffffffffff1673ffffffffffffffffffffffffffffffffffffffff16634515cef383836040518363ffffffff1660e01b81526004018083600360200280838360005b83811015610fde578082015181840152602081019050610fc3565b5050505090500182815260200192505050600060405180830381600087803b15801561100957600080fd5b505af115801561101d573d6000803e3d6000fd5b5050505060005b60036fffffffffffffffffffffffffffffffff168160ff16101561108157828160ff166003811061105157fe5b602002015160078260ff166003811061106657fe5b01600082825401925050819055508080600101915050611024565b50505056fea26469706673582212206b5bf6e046c6ef4ff0c6e11533fb89dcff3b5a31e87dc55aed0aecd0b681188064736f6c634300060c0033",
  "immutableReferences": {},
  "source": "// SPDX-License-Identifier: UNLICENSED\r\npragma solidity ^0.6.0;\r\n\r\nimport '../Interfaces/CurveInterface.sol';\r\nimport '../Interfaces/ERC20Interface.sol';\r\n\r\ncontract rCurve {\r\n\r\n    uint128 constant N_COINS = 3;\r\n    address owner;\r\n    \r\n    Erc20[N_COINS] tokens;\r\n    Erc20 PoolToken;\r\n    curvePool public Pool = curvePool(0x5B2A3246d70ABB9121EA532a9Ac6f77D45366643); // This address is on ropsten\r\n\r\n    address LPaddr;\r\n\r\n    uint256[N_COINS] poolBalance;\r\n\r\n    constructor(\r\n        Erc20 _poolToken,\r\n        Erc20[N_COINS] memory _tokens,\r\n        address addr\r\n    ) public {\r\n        owner = msg.sender;\r\n\r\n        PoolToken = _poolToken;\r\n\r\n        for(uint8 i=0; i<N_COINS; i++) {\r\n            tokens[i] = _tokens[i];\r\n        }\r\n\r\n        LPaddr = addr;\r\n    }\r\n\r\n    //set pool\r\n    function setPool(curvePool _pool) public {\r\n        require(msg.sender == owner);\r\n        Pool = _pool;\r\n    }\r\n\r\n    // Deposit\r\n    function _deposit(uint256[N_COINS] memory amounts) internal {\r\n        for(uint8 i=0; i<N_COINS; i++){\r\n            if(amounts[i] > 0){\r\n               tokens[i].approve(address(Pool), amounts[i]);\r\n            }\r\n        }\r\n\r\n        uint mintAmount = Pool.calc_token_amount(amounts, true);\r\n        mintAmount = (99 * mintAmount) / 100;\r\n        Pool.add_liquidity(amounts, mintAmount);\r\n\r\n        for(uint8 i=0; i<N_COINS; i++){\r\n            poolBalance[i] += amounts[i];\r\n        }\r\n    }\r\n\r\n    // Withdraw\r\n    function _withdraw(uint256[N_COINS] memory amounts) internal {\r\n        uint256 max_burn = 0;\r\n        uint256 decimal = 0;\r\n        uint256 temp = 0;\r\n\r\n        for(uint8 i=0; i<N_COINS; i++) {\r\n            decimal = tokens[i].decimals();\r\n            temp = amounts[i] / 10**decimal;\r\n            max_burn = max_burn + temp;\r\n        }\r\n\r\n        max_burn = max_burn + (max_burn * 2) / 100;\r\n        decimal = PoolToken.decimals();\r\n        max_burn = max_burn * 10**decimal;\r\n\r\n        Pool.remove_liquidity_imbalance(amounts, max_burn);\r\n\r\n        for(uint8 i=0; i<N_COINS; i++){\r\n            poolBalance[i] -= amounts[i];\r\n        }\r\n    }\r\n\r\n    /* Functions for royaleLP */\r\n    function deposit(uint256[N_COINS] calldata amount) external {\r\n        require(msg.sender == LPaddr, \"not authorized\");\r\n        _deposit(amount);\r\n    }\r\n\r\n    function withdraw(uint256[N_COINS] calldata amount) external {\r\n        require(msg.sender == LPaddr, \"not authorized\");\r\n        _withdraw(amount);\r\n\r\n        for(uint8 i=0; i<N_COINS; i++) {\r\n            if(amount[i] > 0) {\r\n                tokens[i].transfer(LPaddr, amount[i]);\r\n            }\r\n        }\r\n    }\r\n\r\n    function _withdrawAll() internal {\r\n        uint crvBal = PoolToken.balanceOf(address(this));\r\n        Pool.remove_liquidity(crvBal, [poolBalance[0], poolBalance[1], poolBalance[2]]);\r\n    }\r\n\r\n    function changePool(address _to) external {\r\n        require(msg.sender == owner, \"not authorized\");\r\n\r\n        _withdrawAll();\r\n\r\n        for(uint8 i=0; i<3; i++) {\r\n            uint amt = tokens[i].balanceOf(address(this));\r\n            if(amt > 0) {\r\n                tokens[i].transfer(_to, amt);\r\n            }\r\n        }\r\n    }\r\n}",
  "sourcePath": "C:/Users/MayankVats/Desktop/WORK/blockchain/Royale/royale-contracts/contracts/rCurve.sol",
  "compiler": {
    "name": "solc",
    "version": "0.6.12+commit.27d51765.Emscripten.clang"
  },
  "schemaVersion": "3.3.2",
  "updatedAt": "2020-12-17T12:52:11.760Z",
  "devdoc": {
    "kind": "dev",
    "methods": {},
    "version": 1
  },
  "userdoc": {
    "kind": "user",
    "methods": {},
    "version": 1
  }
}