{
  "contractName": "rCurve",
  "abi": [
    {
      "inputs": [
        {
          "internalType": "contract Erc20",
          "name": "_poolToken",
          "type": "address"
        },
        {
          "internalType": "contract Erc20[3]",
          "name": "_tokens",
          "type": "address[3]"
        },
        {
          "internalType": "address",
          "name": "addr",
          "type": "address"
        }
      ],
      "stateMutability": "nonpayable",
      "type": "constructor"
    },
    {
      "inputs": [],
      "name": "Pool",
      "outputs": [
        {
          "internalType": "contract curvePool",
          "name": "",
          "type": "address"
        }
      ],
      "stateMutability": "view",
      "type": "function"
    },
    {
      "inputs": [
        {
          "internalType": "contract curvePool",
          "name": "_pool",
          "type": "address"
        }
      ],
      "name": "setPool",
      "outputs": [],
      "stateMutability": "nonpayable",
      "type": "function"
    },
    {
      "inputs": [
        {
          "internalType": "uint256[3]",
          "name": "amount",
          "type": "uint256[3]"
        }
      ],
      "name": "deposit",
      "outputs": [],
      "stateMutability": "nonpayable",
      "type": "function"
    },
    {
      "inputs": [
        {
          "internalType": "uint256[3]",
          "name": "amount",
          "type": "uint256[3]"
        }
      ],
      "name": "withdraw",
      "outputs": [],
      "stateMutability": "nonpayable",
      "type": "function"
    },
    {
      "inputs": [
        {
          "internalType": "address",
          "name": "_addr",
          "type": "address"
        }
      ],
      "name": "updateRoyalelp",
      "outputs": [],
      "stateMutability": "nonpayable",
      "type": "function"
    }
  ],
  "bytecode": "0x608060405234801561001057600080fd5b50604051610c52380380610c52833981810160405260a081101561003357600080fd5b810190808051906020019092919091908260600180519060200190929190505050336000806101000a81548173ffffffffffffffffffffffffffffffffffffffff021916908373ffffffffffffffffffffffffffffffffffffffff16021790555082600460006101000a81548173ffffffffffffffffffffffffffffffffffffffff021916908373ffffffffffffffffffffffffffffffffffffffff16021790555060005b60036fffffffffffffffffffffffffffffffff168160ff16101561016657828160ff166003811061010557fe5b602002015160018260ff166003811061011a57fe5b0160006101000a81548173ffffffffffffffffffffffffffffffffffffffff021916908373ffffffffffffffffffffffffffffffffffffffff16021790555080806001019150506100d8565b5080600660006101000a81548173ffffffffffffffffffffffffffffffffffffffff021916908373ffffffffffffffffffffffffffffffffffffffff160217905550505050610a98806101ba6000396000f3fe608060405234801561001057600080fd5b50600436106100575760003560e01c806307f3b8bb1461005c5780634437152a14610090578063a71a7348146100d4578063b1b8f1be14610118578063d4e20b0114610146575b600080fd5b610064610174565b604051808273ffffffffffffffffffffffffffffffffffffffff16815260200191505060405180910390f35b6100d2600480360360208110156100a657600080fd5b81019080803573ffffffffffffffffffffffffffffffffffffffff16906020019092919050505061019a565b005b610116600480360360208110156100ea57600080fd5b81019080803573ffffffffffffffffffffffffffffffffffffffff169060200190929190505050610236565b005b6101446004803603606081101561012e57600080fd5b81019080806060019091929192905050506102d2565b005b6101726004803603606081101561015c57600080fd5b8101908080606001909192919290505050610315565b005b600560009054906101000a900473ffffffffffffffffffffffffffffffffffffffff1681565b60008054906101000a900473ffffffffffffffffffffffffffffffffffffffff1673ffffffffffffffffffffffffffffffffffffffff163373ffffffffffffffffffffffffffffffffffffffff16146101f257600080fd5b80600560006101000a81548173ffffffffffffffffffffffffffffffffffffffff021916908373ffffffffffffffffffffffffffffffffffffffff16021790555050565b60008054906101000a900473ffffffffffffffffffffffffffffffffffffffff1673ffffffffffffffffffffffffffffffffffffffff163373ffffffffffffffffffffffffffffffffffffffff161461028e57600080fd5b80600660006101000a81548173ffffffffffffffffffffffffffffffffffffffff021916908373ffffffffffffffffffffffffffffffffffffffff16021790555050565b610312816003806020026040519081016040528092919082600360200280828437600081840152601f19601f820116905080830192505050505050610358565b50565b610355816003806020026040519081016040528092919082600360200280828437600081840152601f19601f82011690508083019250505050505061074d565b50565b6000806000805b60036fffffffffffffffffffffffffffffffff168160ff1610156104685760018160ff166003811061038d57fe5b0160009054906101000a900473ffffffffffffffffffffffffffffffffffffffff1673ffffffffffffffffffffffffffffffffffffffff1663313ce5676040518163ffffffff1660e01b815260040160206040518083038186803b1580156103f457600080fd5b505afa158015610408573d6000803e3d6000fd5b505050506040513d602081101561041e57600080fd5b810190808051906020019092919050505060ff16925082600a0a858260ff166003811061044757fe5b60200201518161045357fe5b0491508184019350808060010191505061035f565b506064600284028161047657fe5b0483019250600460009054906101000a900473ffffffffffffffffffffffffffffffffffffffff1673ffffffffffffffffffffffffffffffffffffffff1663313ce5676040518163ffffffff1660e01b815260040160206040518083038186803b1580156104e357600080fd5b505afa1580156104f7573d6000803e3d6000fd5b505050506040513d602081101561050d57600080fd5b810190808051906020019092919050505060ff16915081600a0a83029250600560009054906101000a900473ffffffffffffffffffffffffffffffffffffffff1673ffffffffffffffffffffffffffffffffffffffff16639fdaea0c85856040518363ffffffff1660e01b81526004018083600360200280838360005b838110156105a557808201518184015260208101905061058a565b5050505090500182815260200192505050600060405180830381600087803b1580156105d057600080fd5b505af11580156105e4573d6000803e3d6000fd5b5050505060005b60036fffffffffffffffffffffffffffffffff168160ff161015610746576000858260ff166003811061061a57fe5b602002015111156107395760018160ff166003811061063557fe5b0160009054906101000a900473ffffffffffffffffffffffffffffffffffffffff1673ffffffffffffffffffffffffffffffffffffffff1663a9059cbb600660009054906101000a900473ffffffffffffffffffffffffffffffffffffffff16878460ff16600381106106a457fe5b60200201516040518363ffffffff1660e01b8152600401808373ffffffffffffffffffffffffffffffffffffffff16815260200182815260200192505050602060405180830381600087803b1580156106fc57600080fd5b505af1158015610710573d6000803e3d6000fd5b505050506040513d602081101561072657600080fd5b8101908080519060200190929190505050505b80806001019150506105eb565b5050505050565b60005b60036fffffffffffffffffffffffffffffffff168160ff1610156108ab576000828260ff166003811061077f57fe5b6020020151111561089e5760018160ff166003811061079a57fe5b0160009054906101000a900473ffffffffffffffffffffffffffffffffffffffff1673ffffffffffffffffffffffffffffffffffffffff1663095ea7b3600560009054906101000a900473ffffffffffffffffffffffffffffffffffffffff16848460ff166003811061080957fe5b60200201516040518363ffffffff1660e01b8152600401808373ffffffffffffffffffffffffffffffffffffffff16815260200182815260200192505050602060405180830381600087803b15801561086157600080fd5b505af1158015610875573d6000803e3d6000fd5b505050506040513d602081101561088b57600080fd5b8101908080519060200190929190505050505b8080600101915050610750565b506000600560009054906101000a900473ffffffffffffffffffffffffffffffffffffffff1673ffffffffffffffffffffffffffffffffffffffff16633883e1198360016040518363ffffffff1660e01b81526004018083600360200280838360005b8381101561092957808201518184015260208101905061090e565b5050505090500182151581526020019250505060206040518083038186803b15801561095457600080fd5b505afa158015610968573d6000803e3d6000fd5b505050506040513d602081101561097e57600080fd5b810190808051906020019092919050505090506064816063028161099e57fe5b049050600560009054906101000a900473ffffffffffffffffffffffffffffffffffffffff1673ffffffffffffffffffffffffffffffffffffffff16634515cef383836040518363ffffffff1660e01b81526004018083600360200280838360005b83811015610a1b578082015181840152602081019050610a00565b5050505090500182815260200192505050600060405180830381600087803b158015610a4657600080fd5b505af1158015610a5a573d6000803e3d6000fd5b50505050505056fea2646970667358221220ad3754e1c2c6e45226bd71dbfe4c45531ad66818eb9b988d1879490fe648c7c764736f6c634300060c0033",
  "immutableReferences": {},
  "source": "// SPDX-License-Identifier: UNLICENSED\r\npragma solidity ^0.6.0;\r\n\r\nimport './Interfaces/CurveInterface.sol';\r\nimport './Interfaces/ERC20Interface.sol';\r\n\r\ncontract rCurve {\r\n\r\n    uint128 constant N_COINS = 3;\r\n\r\n    address owner;\r\n    \r\n    Erc20[N_COINS] tokens;\r\n    Erc20 PoolToken;\r\n    curvePool public Pool; \r\n//= curvePool(0x5B2A3246d70ABB9121EA532a9Ac6f77D45366643);\r\n    address LPaddr;\r\n\r\n    constructor(\r\n        Erc20 _poolToken,\r\n        Erc20[N_COINS] memory _tokens,\r\n        address addr\r\n    ) public {\r\n        owner = msg.sender;\r\n\r\n        PoolToken = _poolToken;\r\n\r\n        for(uint8 i=0; i<N_COINS; i++) {\r\n            tokens[i] = _tokens[i];\r\n        }\r\n\r\n        LPaddr = addr;\r\n    }\r\n\r\n    //set pool\r\n    function setPool(curvePool _pool) public {\r\n        require(msg.sender == owner);\r\n        Pool = _pool;\r\n    }\r\n\r\n    // Deposit\r\n    function _deposit(uint256[N_COINS] memory amounts) internal {\r\n        for(uint8 i=0; i<N_COINS; i++){\r\n            if(amounts[i] > 0){\r\n               tokens[i].approve(address(Pool), amounts[i]);\r\n            }\r\n        }\r\n\r\n        uint mintAmount = Pool.calc_token_amount(amounts, true);\r\n        mintAmount = (99 * mintAmount) / 100;\r\n        Pool.add_liquidity(amounts, mintAmount);\r\n    }\r\n\r\n    // Withdraw\r\n    function _withdraw(uint256[N_COINS] memory amounts) internal {\r\n        uint256 max_burn = 0;\r\n        uint256 decimal = 0;\r\n        uint256 temp = 0;\r\n\r\n        for(uint8 i=0; i<N_COINS; i++) {\r\n            decimal = tokens[i].decimals();\r\n            temp = amounts[i] / 10**decimal;\r\n            max_burn = max_burn + temp;\r\n        }\r\n\r\n        max_burn = max_burn + (max_burn * 2) / 100;\r\n        decimal = PoolToken.decimals();\r\n        max_burn = max_burn * 10**decimal;\r\n\r\n        Pool.remove_liquidity_imbalance(amounts, max_burn);\r\n\r\n        for(uint8 i=0; i<N_COINS; i++) {\r\n            if(amounts[i] > 0) {\r\n                tokens[i].transfer(LPaddr, amounts[i]);\r\n            }\r\n        }\r\n    }\r\n\r\n    function deposit(uint256[N_COINS] calldata amount) external {\r\n        _deposit(amount);\r\n    }\r\n\r\n    function withdraw(uint256[N_COINS] calldata amount) external {\r\n        _withdraw(amount);\r\n    }\r\n\r\n    function updateRoyalelp(address _addr) external {\r\n        require(msg.sender == owner);\r\n        LPaddr = _addr;\r\n    }\r\n}",
  "sourcePath": "C:/Users/vishn/OneDrive/Desktop/TempRoyakle/rlp/contracts/rCurve.sol",
  "compiler": {
    "name": "solc",
    "version": "0.6.12+commit.27d51765.Emscripten.clang"
  },
  "schemaVersion": "3.3.2",
  "updatedAt": "2020-12-17T06:05:04.652Z",
  "devdoc": {
    "kind": "dev",
    "methods": {},
    "version": 1
  },
  "userdoc": {
    "kind": "user",
    "methods": {},
    "version": 1
  }
}