{
  "contractName": "Reserve",
  "abi": [
    {
      "inputs": [
        {
          "internalType": "contract RoyaleToken",
          "name": "_royaT",
          "type": "address"
        },
        {
          "internalType": "contract BToken",
          "name": "_bptToken",
          "type": "address"
        },
        {
          "internalType": "contract MRoya",
          "name": "_mRoya",
          "type": "address"
        }
      ],
      "stateMutability": "nonpayable",
      "type": "constructor"
    },
    {
      "inputs": [],
      "name": "bptToken",
      "outputs": [
        {
          "internalType": "contract BToken",
          "name": "",
          "type": "address"
        }
      ],
      "stateMutability": "view",
      "type": "function"
    },
    {
      "inputs": [],
      "name": "mRoya",
      "outputs": [
        {
          "internalType": "contract MRoya",
          "name": "",
          "type": "address"
        }
      ],
      "stateMutability": "view",
      "type": "function"
    },
    {
      "inputs": [],
      "name": "owner",
      "outputs": [
        {
          "internalType": "address",
          "name": "",
          "type": "address"
        }
      ],
      "stateMutability": "view",
      "type": "function"
    },
    {
      "inputs": [],
      "name": "royaT",
      "outputs": [
        {
          "internalType": "contract RoyaleToken",
          "name": "",
          "type": "address"
        }
      ],
      "stateMutability": "view",
      "type": "function"
    },
    {
      "inputs": [
        {
          "internalType": "address",
          "name": "",
          "type": "address"
        }
      ],
      "name": "stakerBPT",
      "outputs": [
        {
          "internalType": "uint256",
          "name": "stakedBPT",
          "type": "uint256"
        },
        {
          "internalType": "uint256",
          "name": "initialStakedBPT",
          "type": "uint256"
        },
        {
          "internalType": "uint256",
          "name": "startTimestamp",
          "type": "uint256"
        },
        {
          "internalType": "uint256",
          "name": "blockNumber",
          "type": "uint256"
        }
      ],
      "stateMutability": "view",
      "type": "function"
    },
    {
      "inputs": [
        {
          "internalType": "address",
          "name": "",
          "type": "address"
        }
      ],
      "name": "stakerRoya",
      "outputs": [
        {
          "internalType": "uint256",
          "name": "stakedRoya",
          "type": "uint256"
        },
        {
          "internalType": "uint256",
          "name": "initialStakedRoya",
          "type": "uint256"
        },
        {
          "internalType": "uint256",
          "name": "startTimestamp",
          "type": "uint256"
        },
        {
          "internalType": "uint256",
          "name": "blockNumber",
          "type": "uint256"
        }
      ],
      "stateMutability": "view",
      "type": "function"
    },
    {
      "inputs": [
        {
          "internalType": "contract MRoya",
          "name": "_mRoya",
          "type": "address"
        }
      ],
      "name": "updateMRoyaAddress",
      "outputs": [
        {
          "internalType": "bool",
          "name": "",
          "type": "bool"
        }
      ],
      "stateMutability": "nonpayable",
      "type": "function"
    },
    {
      "inputs": [
        {
          "internalType": "contract RoyaleToken",
          "name": "_royaT",
          "type": "address"
        }
      ],
      "name": "updateRoyaAddress",
      "outputs": [
        {
          "internalType": "bool",
          "name": "",
          "type": "bool"
        }
      ],
      "stateMutability": "nonpayable",
      "type": "function"
    },
    {
      "inputs": [
        {
          "internalType": "contract BToken",
          "name": "_bptToken",
          "type": "address"
        }
      ],
      "name": "updateBPTAddress",
      "outputs": [
        {
          "internalType": "bool",
          "name": "",
          "type": "bool"
        }
      ],
      "stateMutability": "nonpayable",
      "type": "function"
    },
    {
      "inputs": [
        {
          "internalType": "uint256",
          "name": "_amount",
          "type": "uint256"
        }
      ],
      "name": "stakeRoya",
      "outputs": [],
      "stateMutability": "nonpayable",
      "type": "function"
    },
    {
      "inputs": [
        {
          "internalType": "uint256",
          "name": "_amount",
          "type": "uint256"
        }
      ],
      "name": "stakeBPT",
      "outputs": [],
      "stateMutability": "nonpayable",
      "type": "function"
    },
    {
      "inputs": [
        {
          "internalType": "address",
          "name": "recipient",
          "type": "address"
        }
      ],
      "name": "calculateMRoyaRoya",
      "outputs": [
        {
          "internalType": "uint256",
          "name": "",
          "type": "uint256"
        }
      ],
      "stateMutability": "view",
      "type": "function"
    },
    {
      "inputs": [
        {
          "internalType": "address",
          "name": "recipient",
          "type": "address"
        }
      ],
      "name": "calculateMRoyaBPT",
      "outputs": [
        {
          "internalType": "uint256",
          "name": "",
          "type": "uint256"
        }
      ],
      "stateMutability": "view",
      "type": "function"
    },
    {
      "inputs": [
        {
          "internalType": "address",
          "name": "recipient",
          "type": "address"
        }
      ],
      "name": "calculateMRoyaTotal",
      "outputs": [
        {
          "internalType": "uint256",
          "name": "",
          "type": "uint256"
        }
      ],
      "stateMutability": "view",
      "type": "function"
    },
    {
      "inputs": [],
      "name": "claimRewardsRoya",
      "outputs": [
        {
          "internalType": "bool",
          "name": "",
          "type": "bool"
        }
      ],
      "stateMutability": "nonpayable",
      "type": "function"
    },
    {
      "inputs": [],
      "name": "claimRewardsBPT",
      "outputs": [
        {
          "internalType": "bool",
          "name": "",
          "type": "bool"
        }
      ],
      "stateMutability": "nonpayable",
      "type": "function"
    },
    {
      "inputs": [],
      "name": "claimRewardsTotal",
      "outputs": [
        {
          "internalType": "bool",
          "name": "",
          "type": "bool"
        }
      ],
      "stateMutability": "nonpayable",
      "type": "function"
    },
    {
      "inputs": [],
      "name": "unstakeRoya",
      "outputs": [],
      "stateMutability": "nonpayable",
      "type": "function"
    },
    {
      "inputs": [],
      "name": "unstakeBPT",
      "outputs": [],
      "stateMutability": "nonpayable",
      "type": "function"
    },
    {
      "inputs": [
        {
          "internalType": "uint256",
          "name": "_mRoyaPerBlock",
          "type": "uint256"
        }
      ],
      "name": "updateMRoyaPerBlock",
      "outputs": [],
      "stateMutability": "nonpayable",
      "type": "function"
    },
    {
      "inputs": [
        {
          "internalType": "address",
          "name": "recipient",
          "type": "address"
        },
        {
          "internalType": "uint256",
          "name": "amount",
          "type": "uint256"
        }
      ],
      "name": "distributedWithdrawROYA",
      "outputs": [
        {
          "internalType": "bool",
          "name": "",
          "type": "bool"
        }
      ],
      "stateMutability": "nonpayable",
      "type": "function"
    },
    {
      "inputs": [
        {
          "internalType": "address",
          "name": "recipient",
          "type": "address"
        },
        {
          "internalType": "uint256",
          "name": "amount",
          "type": "uint256"
        }
      ],
      "name": "distributedWithdrawBPT",
      "outputs": [
        {
          "internalType": "bool",
          "name": "",
          "type": "bool"
        }
      ],
      "stateMutability": "nonpayable",
      "type": "function"
    }
  ],
  "bytecode": "0x6080604052670de0b6b3a7640000600a5534801561001c57600080fd5b506040516131253803806131258339818101604052606081101561003f57600080fd5b8101908080519060200190929190805190602001909291908051906020019092919050505082600260006101000a81548173ffffffffffffffffffffffffffffffffffffffff021916908373ffffffffffffffffffffffffffffffffffffffff16021790555080600160006101000a81548173ffffffffffffffffffffffffffffffffffffffff021916908373ffffffffffffffffffffffffffffffffffffffff16021790555081600360006101000a81548173ffffffffffffffffffffffffffffffffffffffff021916908373ffffffffffffffffffffffffffffffffffffffff160217905550336000806101000a81548173ffffffffffffffffffffffffffffffffffffffff021916908373ffffffffffffffffffffffffffffffffffffffff160217905550505050612fac806101796000396000f3fe608060405234801561001057600080fd5b50600436106101425760003560e01c8063845d797d116100b8578063bf2891521161007c578063bf28915214610565578063c3cb0ebc146105bd578063c680067914610615578063d36122b81461061f578063e808d8291461063f578063f92b6b5e1461069957610142565b8063845d797d146103c55780638da5cb5b146104295780638e86b85e1461045d578063b76dfe6e146104ca578063b7d8a86d146104f857610142565b806357f604081161010a57806357f604081461028757806357fc5113146102b557806373afdc08146102e357806374de105b1461033d57806377942ef61461035d5780637b3a47591461039157610142565b80630590df85146101475780633429f552146101ab57806342a40aa1146101b557806343b1f336146101d55780634eb10f231461022d575b600080fd5b6101936004803603604081101561015d57600080fd5b81019080803573ffffffffffffffffffffffffffffffffffffffff169060200190929190803590602001909291905050506106cd565b60405180821515815260200191505060405180910390f35b6101b3610b12565b005b6101bd610f70565b60405180821515815260200191505060405180910390f35b610217600480360360208110156101eb57600080fd5b81019080803573ffffffffffffffffffffffffffffffffffffffff169060200190929190505050610f80565b6040518082815260200191505060405180910390f35b61026f6004803603602081101561024357600080fd5b81019080803573ffffffffffffffffffffffffffffffffffffffff169060200190929190505050610fac565b60405180821515815260200191505060405180910390f35b6102b36004803603602081101561029d57600080fd5b81019080803590602001909291905050506110ba565b005b6102e1600480360360208110156102cb57600080fd5b81019080803590602001909291905050506114b3565b005b610325600480360360208110156102f957600080fd5b81019080803573ffffffffffffffffffffffffffffffffffffffff1690602001909291905050506118ac565b60405180821515815260200191505060405180910390f35b6103456119ba565b60405180821515815260200191505060405180910390f35b6103656119ca565b604051808273ffffffffffffffffffffffffffffffffffffffff16815260200191505060405180910390f35b6103996119f0565b604051808273ffffffffffffffffffffffffffffffffffffffff16815260200191505060405180910390f35b610411600480360360408110156103db57600080fd5b81019080803573ffffffffffffffffffffffffffffffffffffffff16906020019092919080359060200190929190505050611a16565b60405180821515815260200191505060405180910390f35b610431611e5b565b604051808273ffffffffffffffffffffffffffffffffffffffff16815260200191505060405180910390f35b61049f6004803603602081101561047357600080fd5b81019080803573ffffffffffffffffffffffffffffffffffffffff169060200190929190505050611e7f565b6040518085815260200184815260200183815260200182815260200194505050505060405180910390f35b6104f6600480360360208110156104e057600080fd5b8101908080359060200190929190505050611eaf565b005b61053a6004803603602081101561050e57600080fd5b81019080803573ffffffffffffffffffffffffffffffffffffffff169060200190929190505050611f7a565b6040518085815260200184815260200183815260200182815260200194505050505060405180910390f35b6105a76004803603602081101561057b57600080fd5b81019080803573ffffffffffffffffffffffffffffffffffffffff169060200190929190505050611faa565b6040518082815260200191505060405180910390f35b6105ff600480360360208110156105d357600080fd5b81019080803573ffffffffffffffffffffffffffffffffffffffff1690602001909291905050506121c4565b6040518082815260200191505060405180910390f35b61061d6123de565b005b61062761283c565b60405180821515815260200191505060405180910390f35b6106816004803603602081101561065557600080fd5b81019080803573ffffffffffffffffffffffffffffffffffffffff169060200190929190505050612868565b60405180821515815260200191505060405180910390f35b6106a1612976565b604051808273ffffffffffffffffffffffffffffffffffffffff16815260200191505060405180910390f35b60008060009054906101000a900473ffffffffffffffffffffffffffffffffffffffff1673ffffffffffffffffffffffffffffffffffffffff163373ffffffffffffffffffffffffffffffffffffffff1614610791576040517f08c379a00000000000000000000000000000000000000000000000000000000081526004018080602001828103825260208152602001807f4f776e61626c653a2063616c6c6572206973206e6f7420746865204f776e657281525060200191505060405180910390fd5b6000600360009054906101000a900473ffffffffffffffffffffffffffffffffffffffff1673ffffffffffffffffffffffffffffffffffffffff166370a08231306040518263ffffffff1660e01b8152600401808273ffffffffffffffffffffffffffffffffffffffff16815260200191505060206040518083038186803b15801561081c57600080fd5b505afa158015610830573d6000803e3d6000fd5b505050506040513d602081101561084657600080fd5b810190808051906020019092919050505090508083116108ce576040517f08c379a000000000000000000000000000000000000000000000000000000000815260040180806020018281038252601b8152602001807f4e6f7420656e6f75676820526f796120746f207769746864726177000000000081525060200191505060405180910390fd5b6000816127108502816108dd57fe5b0490506000805b600780549050811015610a34576000600c60006007848154811061090457fe5b9060005260206000200160009054906101000a900473ffffffffffffffffffffffffffffffffffffffff1673ffffffffffffffffffffffffffffffffffffffff1673ffffffffffffffffffffffffffffffffffffffff16815260200190815260200160002060000154905060006127108583028161097e57fe5b049050610994818361299c90919063ffffffff16565b600c6000600786815481106109a557fe5b9060005260206000200160009054906101000a900473ffffffffffffffffffffffffffffffffffffffff1673ffffffffffffffffffffffffffffffffffffffff1673ffffffffffffffffffffffffffffffffffffffff16815260200190815260200160002060000181905550610a2481856129e690919063ffffffff16565b50505080806001019150506108e4565b50600360009054906101000a900473ffffffffffffffffffffffffffffffffffffffff1673ffffffffffffffffffffffffffffffffffffffff1663a9059cbb87836040518363ffffffff1660e01b8152600401808373ffffffffffffffffffffffffffffffffffffffff16815260200182815260200192505050602060405180830381600087803b158015610ac857600080fd5b505af1158015610adc573d6000803e3d6000fd5b505050506040513d6020811015610af257600080fd5b810190808051906020019092919050505050848114935050505092915050565b6000600c60003373ffffffffffffffffffffffffffffffffffffffff1673ffffffffffffffffffffffffffffffffffffffff168152602001908152602001600020600001549050600062015180610bb442600c60003373ffffffffffffffffffffffffffffffffffffffff1673ffffffffffffffffffffffffffffffffffffffff1681526020019081526020016000206002015461299c90919063ffffffff16565b81610bbb57fe5b04905060008211610c34576040517f08c379a000000000000000000000000000000000000000000000000000000000815260040180806020018281038252601b8152602001807f5374616b696e672062616c616e63652063616e6e6f742062652030000000000081525060200191505060405180910390fd5b600a8111610caa576040517f08c379a000000000000000000000000000000000000000000000000000000000815260040180806020018281038252601d8152602001807f53686f756c64207374616b65206174206c65617374203130206461797300000081525060200191505060405180910390fd5b600360009054906101000a900473ffffffffffffffffffffffffffffffffffffffff1673ffffffffffffffffffffffffffffffffffffffff1663a9059cbb33846040518363ffffffff1660e01b8152600401808373ffffffffffffffffffffffffffffffffffffffff16815260200182815260200192505050602060405180830381600087803b158015610d3d57600080fd5b505af1158015610d51573d6000803e3d6000fd5b505050506040513d6020811015610d6757600080fd5b8101908080519060200190929190505050506000610d8433611faa565b90506000811115610e3b57600160009054906101000a900473ffffffffffffffffffffffffffffffffffffffff1673ffffffffffffffffffffffffffffffffffffffff166340c10f1933836040518363ffffffff1660e01b8152600401808373ffffffffffffffffffffffffffffffffffffffff16815260200182815260200192505050600060405180830381600087803b158015610e2257600080fd5b505af1158015610e36573d6000803e3d6000fd5b505050505b6000600c60003373ffffffffffffffffffffffffffffffffffffffff1673ffffffffffffffffffffffffffffffffffffffff168152602001908152602001600020600001819055506000600c60003373ffffffffffffffffffffffffffffffffffffffff1673ffffffffffffffffffffffffffffffffffffffff168152602001908152602001600020600201819055506000600c60003373ffffffffffffffffffffffffffffffffffffffff1673ffffffffffffffffffffffffffffffffffffffff168152602001908152602001600020600301819055506000600960003373ffffffffffffffffffffffffffffffffffffffff1673ffffffffffffffffffffffffffffffffffffffff16815260200190815260200160002060006101000a81548160ff021916908315150217905550505050565b6000610f7b33612a6e565b905090565b6000610fa5610f8e836121c4565b610f9784611faa565b6129e690919063ffffffff16565b9050919050565b60008060009054906101000a900473ffffffffffffffffffffffffffffffffffffffff1673ffffffffffffffffffffffffffffffffffffffff163373ffffffffffffffffffffffffffffffffffffffff1614611070576040517f08c379a00000000000000000000000000000000000000000000000000000000081526004018080602001828103825260208152602001807f4f776e61626c653a2063616c6c6572206973206e6f7420746865204f776e657281525060200191505060405180910390fd5b81600260006101000a81548173ffffffffffffffffffffffffffffffffffffffff021916908373ffffffffffffffffffffffffffffffffffffffff16021790555060019050919050565b60008111611130576040517f08c379a00000000000000000000000000000000000000000000000000000000081526004018080602001828103825260138152602001807f616d6f756e742063616e206e6f7420626520300000000000000000000000000081525060200191505060405180910390fd5b600360009054906101000a900473ffffffffffffffffffffffffffffffffffffffff1673ffffffffffffffffffffffffffffffffffffffff166323b872dd3330846040518463ffffffff1660e01b8152600401808473ffffffffffffffffffffffffffffffffffffffff1681526020018373ffffffffffffffffffffffffffffffffffffffff1681526020018281526020019350505050602060405180830381600087803b1580156111e157600080fd5b505af11580156111f5573d6000803e3d6000fd5b505050506040513d602081101561120b57600080fd5b81019080805190602001909291905050505080600c60003373ffffffffffffffffffffffffffffffffffffffff1673ffffffffffffffffffffffffffffffffffffffff1681526020019081526020016000206000016000828254019250508190555080600c60003373ffffffffffffffffffffffffffffffffffffffff1673ffffffffffffffffffffffffffffffffffffffff1681526020019081526020016000206001016000828254019250508190555042600c60003373ffffffffffffffffffffffffffffffffffffffff1673ffffffffffffffffffffffffffffffffffffffff1681526020019081526020016000206002018190555043600c60003373ffffffffffffffffffffffffffffffffffffffff1673ffffffffffffffffffffffffffffffffffffffff16815260200190815260200160002060030181905550600860003373ffffffffffffffffffffffffffffffffffffffff1673ffffffffffffffffffffffffffffffffffffffff16815260200190815260200160002060009054906101000a900460ff16611400576007339080600181540180825580915050600190039060005260206000200160009091909190916101000a81548173ffffffffffffffffffffffffffffffffffffffff021916908373ffffffffffffffffffffffffffffffffffffffff1602179055505b6001600860003373ffffffffffffffffffffffffffffffffffffffff1673ffffffffffffffffffffffffffffffffffffffff16815260200190815260200160002060006101000a81548160ff0219169083151502179055506001600960003373ffffffffffffffffffffffffffffffffffffffff1673ffffffffffffffffffffffffffffffffffffffff16815260200190815260200160002060006101000a81548160ff02191690831515021790555050565b60008111611529576040517f08c379a00000000000000000000000000000000000000000000000000000000081526004018080602001828103825260138152602001807f616d6f756e742063616e206e6f7420626520300000000000000000000000000081525060200191505060405180910390fd5b600260009054906101000a900473ffffffffffffffffffffffffffffffffffffffff1673ffffffffffffffffffffffffffffffffffffffff166323b872dd3330846040518463ffffffff1660e01b8152600401808473ffffffffffffffffffffffffffffffffffffffff1681526020018373ffffffffffffffffffffffffffffffffffffffff1681526020018281526020019350505050602060405180830381600087803b1580156115da57600080fd5b505af11580156115ee573d6000803e3d6000fd5b505050506040513d602081101561160457600080fd5b81019080805190602001909291905050505080600b60003373ffffffffffffffffffffffffffffffffffffffff1673ffffffffffffffffffffffffffffffffffffffff1681526020019081526020016000206000016000828254019250508190555080600b60003373ffffffffffffffffffffffffffffffffffffffff1673ffffffffffffffffffffffffffffffffffffffff1681526020019081526020016000206001016000828254019250508190555042600b60003373ffffffffffffffffffffffffffffffffffffffff1673ffffffffffffffffffffffffffffffffffffffff1681526020019081526020016000206002018190555043600b60003373ffffffffffffffffffffffffffffffffffffffff1673ffffffffffffffffffffffffffffffffffffffff16815260200190815260200160002060030181905550600560003373ffffffffffffffffffffffffffffffffffffffff1673ffffffffffffffffffffffffffffffffffffffff16815260200190815260200160002060009054906101000a900460ff166117f9576004339080600181540180825580915050600190039060005260206000200160009091909190916101000a81548173ffffffffffffffffffffffffffffffffffffffff021916908373ffffffffffffffffffffffffffffffffffffffff1602179055505b6001600560003373ffffffffffffffffffffffffffffffffffffffff1673ffffffffffffffffffffffffffffffffffffffff16815260200190815260200160002060006101000a81548160ff0219169083151502179055506001600660003373ffffffffffffffffffffffffffffffffffffffff1673ffffffffffffffffffffffffffffffffffffffff16815260200190815260200160002060006101000a81548160ff02191690831515021790555050565b60008060009054906101000a900473ffffffffffffffffffffffffffffffffffffffff1673ffffffffffffffffffffffffffffffffffffffff163373ffffffffffffffffffffffffffffffffffffffff1614611970576040517f08c379a00000000000000000000000000000000000000000000000000000000081526004018080602001828103825260208152602001807f4f776e61626c653a2063616c6c6572206973206e6f7420746865204f776e657281525060200191505060405180910390fd5b81600160006101000a81548173ffffffffffffffffffffffffffffffffffffffff021916908373ffffffffffffffffffffffffffffffffffffffff16021790555060019050919050565b60006119c533612c92565b905090565b600160009054906101000a900473ffffffffffffffffffffffffffffffffffffffff1681565b600360009054906101000a900473ffffffffffffffffffffffffffffffffffffffff1681565b60008060009054906101000a900473ffffffffffffffffffffffffffffffffffffffff1673ffffffffffffffffffffffffffffffffffffffff163373ffffffffffffffffffffffffffffffffffffffff1614611ada576040517f08c379a00000000000000000000000000000000000000000000000000000000081526004018080602001828103825260208152602001807f4f776e61626c653a2063616c6c6572206973206e6f7420746865204f776e657281525060200191505060405180910390fd5b6000600260009054906101000a900473ffffffffffffffffffffffffffffffffffffffff1673ffffffffffffffffffffffffffffffffffffffff166370a08231306040518263ffffffff1660e01b8152600401808273ffffffffffffffffffffffffffffffffffffffff16815260200191505060206040518083038186803b158015611b6557600080fd5b505afa158015611b79573d6000803e3d6000fd5b505050506040513d6020811015611b8f57600080fd5b81019080805190602001909291905050509050808311611c17576040517f08c379a000000000000000000000000000000000000000000000000000000000815260040180806020018281038252601b8152602001807f4e6f7420656e6f75676820526f796120746f207769746864726177000000000081525060200191505060405180910390fd5b600081612710850281611c2657fe5b0490506000805b600480549050811015611d7d576000600b600060048481548110611c4d57fe5b9060005260206000200160009054906101000a900473ffffffffffffffffffffffffffffffffffffffff1673ffffffffffffffffffffffffffffffffffffffff1673ffffffffffffffffffffffffffffffffffffffff168152602001908152602001600020600001549050600061271085830281611cc757fe5b049050611cdd818361299c90919063ffffffff16565b600b600060048681548110611cee57fe5b9060005260206000200160009054906101000a900473ffffffffffffffffffffffffffffffffffffffff1673ffffffffffffffffffffffffffffffffffffffff1673ffffffffffffffffffffffffffffffffffffffff16815260200190815260200160002060000181905550611d6d81856129e690919063ffffffff16565b5050508080600101915050611c2d565b50600260009054906101000a900473ffffffffffffffffffffffffffffffffffffffff1673ffffffffffffffffffffffffffffffffffffffff1663a9059cbb87836040518363ffffffff1660e01b8152600401808373ffffffffffffffffffffffffffffffffffffffff16815260200182815260200192505050602060405180830381600087803b158015611e1157600080fd5b505af1158015611e25573d6000803e3d6000fd5b505050506040513d6020811015611e3b57600080fd5b810190808051906020019092919050505050848114935050505092915050565b60008054906101000a900473ffffffffffffffffffffffffffffffffffffffff1681565b600c6020528060005260406000206000915090508060000154908060010154908060020154908060030154905084565b60008054906101000a900473ffffffffffffffffffffffffffffffffffffffff1673ffffffffffffffffffffffffffffffffffffffff163373ffffffffffffffffffffffffffffffffffffffff1614611f70576040517f08c379a000000000000000000000000000000000000000000000000000000000815260040180806020018281038252601b8152602001807f6f6e6c79206f776e65722063616e20757061646174652064617461000000000081525060200191505060405180910390fd5b80600a8190555050565b600b6020528060005260406000206000915090508060000154908060010154908060020154908060030154905084565b600080600c60008473ffffffffffffffffffffffffffffffffffffffff1673ffffffffffffffffffffffffffffffffffffffff1681526020019081526020016000206000015490506000612049600c60008673ffffffffffffffffffffffffffffffffffffffff1673ffffffffffffffffffffffffffffffffffffffff168152602001908152602001600020600301544361299c90919063ffffffff16565b90506000600360009054906101000a900473ffffffffffffffffffffffffffffffffffffffff1673ffffffffffffffffffffffffffffffffffffffff166370a08231306040518263ffffffff1660e01b8152600401808273ffffffffffffffffffffffffffffffffffffffff16815260200191505060206040518083038186803b1580156120d657600080fd5b505afa1580156120ea573d6000803e3d6000fd5b505050506040513d602081101561210057600080fd5b8101908080519060200190929190505050905060008111612189576040517f08c379a00000000000000000000000000000000000000000000000000000000081526004018080602001828103825260108152602001807f4e6f2042505420617661696c61626c650000000000000000000000000000000081525060200191505060405180910390fd5b600081670de0b6b3a764000085850202816121a057fe5b049050670de0b6b3a7640000600a548202816121b857fe5b04945050505050919050565b600080600b60008473ffffffffffffffffffffffffffffffffffffffff1673ffffffffffffffffffffffffffffffffffffffff1681526020019081526020016000206000015490506000612263600b60008673ffffffffffffffffffffffffffffffffffffffff1673ffffffffffffffffffffffffffffffffffffffff168152602001908152602001600020600301544361299c90919063ffffffff16565b90506000600260009054906101000a900473ffffffffffffffffffffffffffffffffffffffff1673ffffffffffffffffffffffffffffffffffffffff166370a08231306040518263ffffffff1660e01b8152600401808273ffffffffffffffffffffffffffffffffffffffff16815260200191505060206040518083038186803b1580156122f057600080fd5b505afa158015612304573d6000803e3d6000fd5b505050506040513d602081101561231a57600080fd5b81019080805190602001909291905050509050600081116123a3576040517f08c379a00000000000000000000000000000000000000000000000000000000081526004018080602001828103825260118152602001807f4e6f20526f796120617661696c61626c6500000000000000000000000000000081525060200191505060405180910390fd5b600081670de0b6b3a764000085850202816123ba57fe5b049050670de0b6b3a7640000600a548202816123d257fe5b04945050505050919050565b6000600b60003373ffffffffffffffffffffffffffffffffffffffff1673ffffffffffffffffffffffffffffffffffffffff16815260200190815260200160002060000154905060006201518061248042600b60003373ffffffffffffffffffffffffffffffffffffffff1673ffffffffffffffffffffffffffffffffffffffff1681526020019081526020016000206002015461299c90919063ffffffff16565b8161248757fe5b04905060008211612500576040517f08c379a000000000000000000000000000000000000000000000000000000000815260040180806020018281038252601b8152602001807f5374616b696e672062616c616e63652063616e6e6f742062652030000000000081525060200191505060405180910390fd5b600a8111612576576040517f08c379a000000000000000000000000000000000000000000000000000000000815260040180806020018281038252601d8152602001807f53686f756c64207374616b65206174206c65617374203130206461797300000081525060200191505060405180910390fd5b600260009054906101000a900473ffffffffffffffffffffffffffffffffffffffff1673ffffffffffffffffffffffffffffffffffffffff1663a9059cbb33846040518363ffffffff1660e01b8152600401808373ffffffffffffffffffffffffffffffffffffffff16815260200182815260200192505050602060405180830381600087803b15801561260957600080fd5b505af115801561261d573d6000803e3d6000fd5b505050506040513d602081101561263357600080fd5b8101908080519060200190929190505050506000612650336121c4565b9050600081111561270757600160009054906101000a900473ffffffffffffffffffffffffffffffffffffffff1673ffffffffffffffffffffffffffffffffffffffff166340c10f1933836040518363ffffffff1660e01b8152600401808373ffffffffffffffffffffffffffffffffffffffff16815260200182815260200192505050600060405180830381600087803b1580156126ee57600080fd5b505af1158015612702573d6000803e3d6000fd5b505050505b6000600b60003373ffffffffffffffffffffffffffffffffffffffff1673ffffffffffffffffffffffffffffffffffffffff168152602001908152602001600020600001819055506000600b60003373ffffffffffffffffffffffffffffffffffffffff1673ffffffffffffffffffffffffffffffffffffffff168152602001908152602001600020600201819055506000600b60003373ffffffffffffffffffffffffffffffffffffffff1673ffffffffffffffffffffffffffffffffffffffff168152602001908152602001600020600301819055506000600660003373ffffffffffffffffffffffffffffffffffffffff1673ffffffffffffffffffffffffffffffffffffffff16815260200190815260200160002060006101000a81548160ff021916908315150217905550505050565b60008061284833612a6e565b9050600061285533612c92565b90508080156128615750815b9250505090565b60008060009054906101000a900473ffffffffffffffffffffffffffffffffffffffff1673ffffffffffffffffffffffffffffffffffffffff163373ffffffffffffffffffffffffffffffffffffffff161461292c576040517f08c379a00000000000000000000000000000000000000000000000000000000081526004018080602001828103825260208152602001807f4f776e61626c653a2063616c6c6572206973206e6f7420746865204f776e657281525060200191505060405180910390fd5b81600360006101000a81548173ffffffffffffffffffffffffffffffffffffffff021916908373ffffffffffffffffffffffffffffffffffffffff16021790555060019050919050565b600260009054906101000a900473ffffffffffffffffffffffffffffffffffffffff1681565b60006129de83836040518060400160405280601e81526020017f536166654d6174683a207375627472616374696f6e206f766572666c6f770000815250612eb6565b905092915050565b600080828401905083811015612a64576040517f08c379a000000000000000000000000000000000000000000000000000000000815260040180806020018281038252601b8152602001807f536166654d6174683a206164646974696f6e206f766572666c6f77000000000081525060200191505060405180910390fd5b8091505092915050565b600080600c60008473ffffffffffffffffffffffffffffffffffffffff1673ffffffffffffffffffffffffffffffffffffffff16815260200190815260200160002060000154905060008111612b2c576040517f08c379a000000000000000000000000000000000000000000000000000000000815260040180806020018281038252601b8152602001807f5374616b696e672062616c616e63652063616e6e6f742062652030000000000081525060200191505060405180910390fd5b6000612b3784611faa565b90506000811115612c8657600160009054906101000a900473ffffffffffffffffffffffffffffffffffffffff1673ffffffffffffffffffffffffffffffffffffffff166340c10f1985836040518363ffffffff1660e01b8152600401808373ffffffffffffffffffffffffffffffffffffffff16815260200182815260200192505050600060405180830381600087803b158015612bd557600080fd5b505af1158015612be9573d6000803e3d6000fd5b5050505042600c60008673ffffffffffffffffffffffffffffffffffffffff1673ffffffffffffffffffffffffffffffffffffffff1681526020019081526020016000206002018190555043600c60008673ffffffffffffffffffffffffffffffffffffffff1673ffffffffffffffffffffffffffffffffffffffff16815260200190815260200160002060030181905550600192505050612c8d565b6000925050505b919050565b600080600b60008473ffffffffffffffffffffffffffffffffffffffff1673ffffffffffffffffffffffffffffffffffffffff16815260200190815260200160002060000154905060008111612d50576040517f08c379a000000000000000000000000000000000000000000000000000000000815260040180806020018281038252601b8152602001807f5374616b696e672062616c616e63652063616e6e6f742062652030000000000081525060200191505060405180910390fd5b6000612d5b846121c4565b90506000811115612eaa57600160009054906101000a900473ffffffffffffffffffffffffffffffffffffffff1673ffffffffffffffffffffffffffffffffffffffff166340c10f1985836040518363ffffffff1660e01b8152600401808373ffffffffffffffffffffffffffffffffffffffff16815260200182815260200192505050600060405180830381600087803b158015612df957600080fd5b505af1158015612e0d573d6000803e3d6000fd5b5050505042600b60008673ffffffffffffffffffffffffffffffffffffffff1673ffffffffffffffffffffffffffffffffffffffff1681526020019081526020016000206002018190555043600b60008673ffffffffffffffffffffffffffffffffffffffff1673ffffffffffffffffffffffffffffffffffffffff16815260200190815260200160002060030181905550600192505050612eb1565b6000925050505b919050565b6000838311158290612f63576040517f08c379a00000000000000000000000000000000000000000000000000000000081526004018080602001828103825283818151815260200191508051906020019080838360005b83811015612f28578082015181840152602081019050612f0d565b50505050905090810190601f168015612f555780820380516001836020036101000a031916815260200191505b509250505060405180910390fd5b506000838503905080915050939250505056fea2646970667358221220402bfc0e854541accb4f82e4981de3208a8594e66c34d6f391f84b557aa31d6864736f6c634300060c0033",
  "immutableReferences": {},
  "source": "// SPDX-License-Identifier: UNLICENSED\r\npragma solidity ^0.6.0;\r\n\r\nimport '@openzeppelin/contracts/math/SafeMath.sol';\r\n\r\ninterface MRoya{\r\n\r\n    function totalSupply() external view  returns (uint256);\r\n    \r\n    function balanceOf(address tokenOwner) external view returns (uint);\r\n\r\n    function transfer(address receiver, uint numTokens) external returns (bool);\r\n\r\n    function approve(address delegate, uint numTokens) external returns (bool);\r\n\r\n    function allowance(address owner, address delegate) external view returns (uint);\r\n    \r\n    function transferFrom(address owner, address buyer, uint numTokens) external returns (bool);\r\n    \r\n    function mint(address account, uint256 amount) external;\r\n    \r\n    function _burn(address account, uint256 amount) external;\r\n    \r\n    function burn(uint256 amount) external;\r\n}\r\n\r\ninterface RoyaleToken{\r\n\r\n    function totalSupply() external view returns (uint256);\r\n    \r\n    function balanceOf(address tokenOwner) external view returns (uint);\r\n\r\n    function transfer(address receiver, uint numTokens) external returns (bool);\r\n\r\n    function approve(address delegate, uint numTokens) external returns (bool);\r\n\r\n    function allowance(address owner, address delegate) external view returns (uint);\r\n    \r\n    function transferFrom(address owner, address buyer, uint numTokens) external returns (bool);\r\n}\r\n\r\ninterface BToken{\r\n\r\n    function totalSupply() external view returns (uint256);\r\n    \r\n    function balanceOf(address tokenOwner) external view returns (uint);\r\n\r\n    function transfer(address receiver, uint numTokens) external returns (bool);\r\n\r\n    function approve(address delegate, uint numTokens) external returns (bool);\r\n\r\n    function allowance(address owner, address delegate) external view returns (uint);\r\n    \r\n    function transferFrom(address owner, address buyer, uint numTokens) external returns (bool);\r\n}\r\n\r\n\r\ncontract Reserve {\r\n    address public owner;\r\n\r\n    MRoya public mRoya;\r\n    RoyaleToken public royaT;\r\n    BToken public bptToken;\r\n\r\n    address[] stakersRoya;\r\n    mapping(address => bool) hasStakedRoya;\r\n    mapping(address => bool) isStakingRoya;\r\n\r\n    address[] stakersBPT;\r\n    mapping(address => bool) hasStakedBPT;\r\n    mapping(address => bool) isStakingBPT;\r\n\r\n    uint256 mRoyaPerBlock = 1 * 10**18;\r\n    \r\n    struct stakerRData {\r\n        uint256 stakedRoya;\r\n        uint256 initialStakedRoya;\r\n        uint256 startTimestamp;\r\n        uint256 blockNumber;\r\n    }\r\n\r\n    struct stakerBData {\r\n        uint256 stakedBPT;\r\n        uint256 initialStakedBPT;\r\n        uint256 startTimestamp;\r\n        uint256 blockNumber;\r\n    }\r\n    \r\n    mapping(address => stakerRData) public stakerRoya;\r\n    mapping(address => stakerBData) public stakerBPT;\r\n\r\n    using SafeMath for uint256;\r\n\r\n    constructor(RoyaleToken _royaT, BToken _bptToken, MRoya _mRoya) public {\r\n        royaT = _royaT;\r\n        mRoya = _mRoya;\r\n        bptToken = _bptToken;\r\n        owner = msg.sender;\r\n    }\r\n    \r\n    modifier onlyOwner() {\r\n        require(msg.sender == owner, \"Ownable: caller is not the Owner\");\r\n        _;\r\n    }\r\n    \r\n    \r\n    function updateMRoyaAddress(MRoya _mRoya) public onlyOwner returns (bool){\r\n        mRoya = _mRoya;\r\n        return true;\r\n    }\r\n    \r\n    \r\n    function updateRoyaAddress(RoyaleToken _royaT) public onlyOwner returns (bool){\r\n        royaT = _royaT;\r\n        return true;\r\n    }\r\n\r\n    function updateBPTAddress(BToken _bptToken) public onlyOwner returns (bool){\r\n        bptToken = _bptToken;\r\n        return true;\r\n    }\r\n    \r\n    \r\n    function stakeRoya(uint _amount) public {\r\n        require(_amount > 0, \"amount can not be 0\");\r\n\r\n        royaT.transferFrom(msg.sender, address(this), _amount);\r\n\r\n        stakerRoya[msg.sender].stakedRoya += _amount;\r\n        stakerRoya[msg.sender].initialStakedRoya += _amount;\r\n        stakerRoya[msg.sender].startTimestamp = now;\r\n        stakerRoya[msg.sender].blockNumber = block.number;\r\n\r\n        if(!hasStakedRoya[msg.sender]) {\r\n            stakersRoya.push(msg.sender);\r\n        }\r\n\r\n        hasStakedRoya[msg.sender] = true;\r\n        isStakingRoya[msg.sender] = true;\r\n    }\r\n    \r\n        \r\n    function stakeBPT(uint _amount) public {\r\n        require(_amount > 0, \"amount can not be 0\");\r\n\r\n        bptToken.transferFrom(msg.sender, address(this), _amount);\r\n\r\n        stakerBPT[msg.sender].stakedBPT += _amount;\r\n        stakerBPT[msg.sender].initialStakedBPT += _amount;\r\n        stakerBPT[msg.sender].startTimestamp = now;\r\n        stakerBPT[msg.sender].blockNumber = block.number;\r\n\r\n        if(!hasStakedBPT[msg.sender]) {\r\n            stakersBPT.push(msg.sender);\r\n        }\r\n\r\n        hasStakedBPT[msg.sender] = true;\r\n        isStakingBPT[msg.sender] = true;\r\n    }\r\n\r\n\r\n    \r\n    \r\n    function calculateMRoyaRoya(address recipient) public view returns (uint){\r\n        uint256 stakedRoyaAmount = stakerRoya[recipient].stakedRoya;\r\n        \r\n        uint256 duration = block.number.sub(stakerRoya[recipient].blockNumber);\r\n        uint256 totalRoya = royaT.balanceOf(address(this)); // getting total staked Roya Amount\r\n        \r\n        require(totalRoya > 0, 'No Roya available');\r\n    \r\n        uint256 mRoyaG = duration * stakedRoyaAmount * 10**18 / totalRoya;\r\n\r\n        return mRoyaG * mRoyaPerBlock / 10**18;\r\n    }\r\n    \r\n    \r\n    function calculateMRoyaBPT(address recipient) public view returns (uint){\r\n        uint256 stakedBPTAmount = stakerBPT[recipient].stakedBPT;\r\n        uint256 duration = block.number.sub(stakerBPT[recipient].blockNumber);\r\n        uint256 totalBPT = bptToken.balanceOf(address(this)); // getting total staked BPT Amount\r\n        \r\n        require(totalBPT > 0, 'No BPT available');\r\n    \r\n        uint256 mRoyaG = duration * stakedBPTAmount * 10**18 / totalBPT;\r\n\r\n        return mRoyaG * mRoyaPerBlock / 10**18;\r\n    }\r\n\r\n    \r\n    function calculateMRoyaTotal(address recipient) public view returns (uint){\r\n        return calculateMRoyaBPT(recipient).add(calculateMRoyaRoya(recipient));\r\n    }\r\n\r\n\r\n    function _claimRewardsRoya(address recipient) internal returns (bool) {\r\n        uint256 balance = stakerRoya[recipient].stakedRoya;\r\n        \r\n        require(balance > 0, 'Staking balance cannot be 0');\r\n\r\n        uint256 rewards = calculateMRoyaRoya(recipient);\r\n            \r\n\r\n        if(rewards > 0) {\r\n\r\n                mRoya.mint(recipient, rewards);\r\n\r\n                //stakerRoya[msg.sender].stakedRoya = balance;\r\n                stakerRoya[recipient].startTimestamp = now;\r\n                stakerRoya[recipient].blockNumber = block.number;\r\n                return true;\r\n            }\r\n        \r\n        return false;\r\n\r\n    }\r\n\r\n    function _claimRewardsBPT(address recipient) internal returns (bool) {\r\n        uint256 balance = stakerBPT[recipient].stakedBPT;\r\n        \r\n        require(balance > 0, 'Staking balance cannot be 0');\r\n\r\n        uint256 rewards = calculateMRoyaBPT(recipient);\r\n            \r\n\r\n        if(rewards > 0) {\r\n\r\n                mRoya.mint(recipient, rewards);\r\n\r\n                //stakerBPT[msg.sender].stakedBPT = balance;\r\n                stakerBPT[recipient].startTimestamp = now;\r\n                stakerBPT[recipient].blockNumber = block.number;\r\n                return true;\r\n            }\r\n        \r\n        return false;\r\n\r\n    }\r\n\r\n\r\n    function claimRewardsRoya() public returns (bool) {\r\n        return _claimRewardsRoya(msg.sender);\r\n    }\r\n\r\n    function claimRewardsBPT() public returns (bool) {\r\n        return _claimRewardsBPT(msg.sender);\r\n    }\r\n    \r\n    \r\n    function claimRewardsTotal() public returns (bool){\r\n            bool b = _claimRewardsBPT(msg.sender);\r\n            bool r = _claimRewardsRoya(msg.sender);\r\n            return r && b;\r\n    }\r\n\r\n\r\n    function unstakeRoya() public {\r\n        uint256 balance = stakerRoya[msg.sender].stakedRoya;\r\n        uint256 duration = stakerRoya[msg.sender].startTimestamp.sub(now) / 86400;\r\n        \r\n        //require (isStaking[msg.sender],'Not staking any Roya');\r\n\r\n        require(balance > 0, 'Staking balance cannot be 0');\r\n        require(duration > 10, 'Should stake at least 10 days');\r\n\r\n        royaT.transfer(msg.sender, balance);\r\n        \r\n        uint256 rewards = calculateMRoyaRoya(msg.sender);\r\n            \r\n\r\n        if(rewards > 0) {\r\n                mRoya.mint(msg.sender, rewards);\r\n            }\r\n\r\n        stakerRoya[msg.sender].stakedRoya = 0;\r\n        stakerRoya[msg.sender].startTimestamp = 0;\r\n        stakerRoya[msg.sender].blockNumber = 0;\r\n\r\n        isStakingRoya[msg.sender] = false;\r\n    }\r\n\r\n    function unstakeBPT() public {\r\n        uint256 balance = stakerBPT[msg.sender].stakedBPT;\r\n        uint256 duration = stakerBPT[msg.sender].startTimestamp.sub(now) / 86400;\r\n        \r\n        //require (isStaking[msg.sender],'Not staking any Roya');\r\n\r\n        require(balance > 0, 'Staking balance cannot be 0');\r\n        require(duration > 10, 'Should stake at least 10 days');\r\n\r\n        bptToken.transfer(msg.sender, balance);\r\n        \r\n        uint256 rewards = calculateMRoyaBPT(msg.sender);\r\n            \r\n\r\n        if(rewards > 0) {\r\n                mRoya.mint(msg.sender, rewards);\r\n            }\r\n\r\n        stakerBPT[msg.sender].stakedBPT = 0;\r\n        stakerBPT[msg.sender].startTimestamp = 0;\r\n        stakerBPT[msg.sender].blockNumber = 0;\r\n\r\n        isStakingBPT[msg.sender] = false;\r\n    }\r\n\r\n\r\n    function updateMRoyaPerBlock(uint256 _mRoyaPerBlock) public {\r\n        require(msg.sender == owner, \"only owner can upadate data\");\r\n        mRoyaPerBlock = _mRoyaPerBlock;\r\n    }\r\n\r\n    function distributedWithdrawROYA(address recipient, uint256 amount) public onlyOwner returns (bool){\r\n        uint256 totalRoyaStaked = royaT.balanceOf(address(this));\r\n        require(amount>totalRoyaStaked,\"Not enough Roya to withdraw\");\r\n        uint256 deductionPercent = amount * 10000 / totalRoyaStaked;\r\n        uint256 totalDeduction = 0;\r\n        for(uint i=0; i<stakersRoya.length; i++) {\r\n            uint256 balance = stakerRoya[stakersRoya[i]].stakedRoya;\r\n            uint256 deductionAmount = balance * deductionPercent / 10000;\r\n            stakerRoya[stakersRoya[i]].stakedRoya = balance.sub(deductionAmount);\r\n            totalDeduction.add(deductionAmount);\r\n\r\n        }\r\n        royaT.transfer(recipient,totalDeduction);\r\n        return totalDeduction == amount;\r\n    }\r\n    \r\n    \r\n    function distributedWithdrawBPT(address recipient, uint256 amount) public onlyOwner returns (bool){\r\n        uint256 totalBPTStaked = bptToken.balanceOf(address(this));\r\n        require(amount>totalBPTStaked,\"Not enough Roya to withdraw\");\r\n        uint256 deductionPercent = amount * 10000 / totalBPTStaked;\r\n        uint256 totalDeduction = 0;\r\n        for(uint i=0; i<stakersBPT.length; i++) {\r\n            uint256 balance = stakerBPT[stakersBPT[i]].stakedBPT;\r\n            uint256 deductionAmount = balance * deductionPercent / 10000;\r\n            stakerBPT[stakersBPT[i]].stakedBPT = balance.sub(deductionAmount);\r\n            totalDeduction.add(deductionAmount);\r\n\r\n        }\r\n        bptToken.transfer(recipient,totalDeduction);\r\n        return totalDeduction == amount;\r\n    }\r\n\r\n}",
  "sourcePath": "C:/Users/MayankVats/Desktop/WORK/blockchain/Royale/rlp/contracts/RoyaReserve.sol",
  "compiler": {
    "name": "solc",
    "version": "0.6.12+commit.27d51765.Emscripten.clang"
  },
  "schemaVersion": "3.3.2",
  "updatedAt": "2021-01-08T10:10:10.457Z",
  "devdoc": {
    "kind": "dev",
    "methods": {},
    "version": 1
  },
  "userdoc": {
    "kind": "user",
    "methods": {},
    "version": 1
  }
}