{
  "contractName": "rLoan",
  "abi": [
    {
      "inputs": [
        {
          "internalType": "address[3]",
          "name": "_tokens",
          "type": "address[3]"
        },
        {
          "internalType": "address",
          "name": "_royale",
          "type": "address"
        }
      ],
      "stateMutability": "nonpayable",
      "type": "constructor"
    },
    {
      "anonymous": false,
      "inputs": [
        {
          "indexed": false,
          "internalType": "address",
          "name": "adder",
          "type": "address"
        },
        {
          "indexed": false,
          "internalType": "uint256",
          "name": "numberOfSignees",
          "type": "uint256"
        }
      ],
      "name": "addedRequiredSignee",
      "type": "event"
    },
    {
      "anonymous": false,
      "inputs": [
        {
          "indexed": false,
          "internalType": "uint256",
          "name": "loanID",
          "type": "uint256"
        }
      ],
      "name": "approved",
      "type": "event"
    },
    {
      "anonymous": false,
      "inputs": [
        {
          "indexed": false,
          "internalType": "address",
          "name": "by",
          "type": "address"
        },
        {
          "indexed": false,
          "internalType": "uint256[3]",
          "name": "requestedAmount",
          "type": "uint256[3]"
        },
        {
          "indexed": false,
          "internalType": "uint256[3]",
          "name": "remainingAmount",
          "type": "uint256[3]"
        },
        {
          "indexed": false,
          "internalType": "uint256",
          "name": "loanID",
          "type": "uint256"
        }
      ],
      "name": "loanFulfilled",
      "type": "event"
    },
    {
      "anonymous": false,
      "inputs": [
        {
          "indexed": false,
          "internalType": "address",
          "name": "by",
          "type": "address"
        },
        {
          "indexed": false,
          "internalType": "uint256[3]",
          "name": "repayedAmount",
          "type": "uint256[3]"
        },
        {
          "indexed": false,
          "internalType": "uint256[3]",
          "name": "amountRemaining",
          "type": "uint256[3]"
        },
        {
          "indexed": false,
          "internalType": "uint256",
          "name": "loanID",
          "type": "uint256"
        }
      ],
      "name": "loanRepayed",
      "type": "event"
    },
    {
      "anonymous": false,
      "inputs": [
        {
          "indexed": false,
          "internalType": "address",
          "name": "by",
          "type": "address"
        },
        {
          "indexed": false,
          "internalType": "uint256[3]",
          "name": "amounts",
          "type": "uint256[3]"
        },
        {
          "indexed": false,
          "internalType": "uint256",
          "name": "loanID",
          "type": "uint256"
        }
      ],
      "name": "loanRequested",
      "type": "event"
    },
    {
      "anonymous": false,
      "inputs": [
        {
          "indexed": false,
          "internalType": "address",
          "name": "by",
          "type": "address"
        },
        {
          "indexed": false,
          "internalType": "uint256[3]",
          "name": "requestedAmount",
          "type": "uint256[3]"
        },
        {
          "indexed": false,
          "internalType": "uint256[3]",
          "name": "remainingAmount",
          "type": "uint256[3]"
        },
        {
          "indexed": false,
          "internalType": "uint256",
          "name": "loanID",
          "type": "uint256"
        }
      ],
      "name": "loanWithdrawn",
      "type": "event"
    },
    {
      "anonymous": false,
      "inputs": [
        {
          "indexed": false,
          "internalType": "address",
          "name": "signee",
          "type": "address"
        },
        {
          "indexed": false,
          "internalType": "uint256",
          "name": "loanID",
          "type": "uint256"
        }
      ],
      "name": "signed",
      "type": "event"
    },
    {
      "anonymous": false,
      "inputs": [
        {
          "indexed": false,
          "internalType": "address",
          "name": "signee",
          "type": "address"
        }
      ],
      "name": "signeeAdded",
      "type": "event"
    },
    {
      "anonymous": false,
      "inputs": [
        {
          "indexed": false,
          "internalType": "address",
          "name": "signee",
          "type": "address"
        }
      ],
      "name": "signeeRemoved",
      "type": "event"
    },
    {
      "anonymous": false,
      "inputs": [
        {
          "indexed": false,
          "internalType": "address",
          "name": "by",
          "type": "address"
        },
        {
          "indexed": false,
          "internalType": "uint256[3]",
          "name": "repayedAmount",
          "type": "uint256[3]"
        },
        {
          "indexed": false,
          "internalType": "uint256[3]",
          "name": "amountRemaining",
          "type": "uint256[3]"
        },
        {
          "indexed": false,
          "internalType": "uint256",
          "name": "loanID",
          "type": "uint256"
        }
      ],
      "name": "wholeLoanRepayed",
      "type": "event"
    },
    {
      "inputs": [],
      "name": "BASE_DECIMAL",
      "outputs": [
        {
          "internalType": "uint256",
          "name": "",
          "type": "uint256"
        }
      ],
      "stateMutability": "view",
      "type": "function"
    },
    {
      "inputs": [],
      "name": "MAX_SIGNEE_COUNT",
      "outputs": [
        {
          "internalType": "uint256",
          "name": "",
          "type": "uint256"
        }
      ],
      "stateMutability": "view",
      "type": "function"
    },
    {
      "inputs": [
        {
          "internalType": "address",
          "name": "",
          "type": "address"
        },
        {
          "internalType": "uint256",
          "name": "",
          "type": "uint256"
        }
      ],
      "name": "confirmations",
      "outputs": [
        {
          "internalType": "bool",
          "name": "",
          "type": "bool"
        }
      ],
      "stateMutability": "view",
      "type": "function"
    },
    {
      "inputs": [
        {
          "internalType": "address",
          "name": "",
          "type": "address"
        }
      ],
      "name": "isSignee",
      "outputs": [
        {
          "internalType": "bool",
          "name": "",
          "type": "bool"
        }
      ],
      "stateMutability": "view",
      "type": "function"
    },
    {
      "inputs": [],
      "name": "ownerAddress",
      "outputs": [
        {
          "internalType": "address",
          "name": "",
          "type": "address"
        }
      ],
      "stateMutability": "view",
      "type": "function"
    },
    {
      "inputs": [],
      "name": "required",
      "outputs": [
        {
          "internalType": "uint256",
          "name": "",
          "type": "uint256"
        }
      ],
      "stateMutability": "view",
      "type": "function"
    },
    {
      "inputs": [],
      "name": "royale",
      "outputs": [
        {
          "internalType": "contract RoyaleInterface",
          "name": "",
          "type": "address"
        }
      ],
      "stateMutability": "view",
      "type": "function"
    },
    {
      "inputs": [
        {
          "internalType": "uint256",
          "name": "",
          "type": "uint256"
        }
      ],
      "name": "signees",
      "outputs": [
        {
          "internalType": "address",
          "name": "",
          "type": "address"
        }
      ],
      "stateMutability": "view",
      "type": "function"
    },
    {
      "inputs": [
        {
          "internalType": "uint256",
          "name": "",
          "type": "uint256"
        }
      ],
      "name": "totalApprovedLoan",
      "outputs": [
        {
          "internalType": "uint256",
          "name": "",
          "type": "uint256"
        }
      ],
      "stateMutability": "view",
      "type": "function"
    },
    {
      "inputs": [
        {
          "internalType": "uint256",
          "name": "",
          "type": "uint256"
        }
      ],
      "name": "totalLoanTaken",
      "outputs": [
        {
          "internalType": "uint256",
          "name": "",
          "type": "uint256"
        }
      ],
      "stateMutability": "view",
      "type": "function"
    },
    {
      "inputs": [],
      "name": "transactionCount",
      "outputs": [
        {
          "internalType": "uint256",
          "name": "",
          "type": "uint256"
        }
      ],
      "stateMutability": "view",
      "type": "function"
    },
    {
      "inputs": [
        {
          "internalType": "uint256",
          "name": "",
          "type": "uint256"
        }
      ],
      "name": "transactions",
      "outputs": [
        {
          "internalType": "uint256",
          "name": "transactionId",
          "type": "uint256"
        },
        {
          "internalType": "address",
          "name": "iGamingCompany",
          "type": "address"
        },
        {
          "internalType": "bool",
          "name": "isGamingCompanySigned",
          "type": "bool"
        },
        {
          "internalType": "bool",
          "name": "approved",
          "type": "bool"
        },
        {
          "internalType": "bool",
          "name": "executed",
          "type": "bool"
        }
      ],
      "stateMutability": "view",
      "type": "function"
    },
    {
      "inputs": [
        {
          "internalType": "uint256[3]",
          "name": "amounts",
          "type": "uint256[3]"
        }
      ],
      "name": "requestLoan",
      "outputs": [],
      "stateMutability": "nonpayable",
      "type": "function"
    },
    {
      "inputs": [
        {
          "internalType": "uint256",
          "name": "_loanID",
          "type": "uint256"
        }
      ],
      "name": "signTransaction",
      "outputs": [],
      "stateMutability": "nonpayable",
      "type": "function"
    },
    {
      "inputs": [
        {
          "internalType": "uint256",
          "name": "_loanID",
          "type": "uint256"
        }
      ],
      "name": "confirmLoan",
      "outputs": [],
      "stateMutability": "nonpayable",
      "type": "function"
    },
    {
      "inputs": [
        {
          "internalType": "uint256",
          "name": "_loanID",
          "type": "uint256"
        }
      ],
      "name": "getTransactionDetail",
      "outputs": [
        {
          "components": [
            {
              "internalType": "uint256",
              "name": "transactionId",
              "type": "uint256"
            },
            {
              "internalType": "address",
              "name": "iGamingCompany",
              "type": "address"
            },
            {
              "internalType": "bool",
              "name": "isGamingCompanySigned",
              "type": "bool"
            },
            {
              "internalType": "uint256[3]",
              "name": "tokenAmounts",
              "type": "uint256[3]"
            },
            {
              "internalType": "uint256[3]",
              "name": "remAmt",
              "type": "uint256[3]"
            },
            {
              "internalType": "bool",
              "name": "approved",
              "type": "bool"
            },
            {
              "internalType": "bool",
              "name": "executed",
              "type": "bool"
            }
          ],
          "internalType": "struct rLoan.Transaction",
          "name": "",
          "type": "tuple"
        }
      ],
      "stateMutability": "view",
      "type": "function"
    },
    {
      "inputs": [
        {
          "internalType": "uint256",
          "name": "_loanID",
          "type": "uint256"
        }
      ],
      "name": "checkLoanApproved",
      "outputs": [
        {
          "internalType": "bool",
          "name": "",
          "type": "bool"
        }
      ],
      "stateMutability": "view",
      "type": "function"
    },
    {
      "inputs": [
        {
          "internalType": "uint256",
          "name": "_required",
          "type": "uint256"
        }
      ],
      "name": "setRequiredSignee",
      "outputs": [],
      "stateMutability": "nonpayable",
      "type": "function"
    },
    {
      "inputs": [
        {
          "internalType": "address",
          "name": "signee",
          "type": "address"
        }
      ],
      "name": "addSignee",
      "outputs": [],
      "stateMutability": "nonpayable",
      "type": "function"
    },
    {
      "inputs": [
        {
          "internalType": "address",
          "name": "signee",
          "type": "address"
        }
      ],
      "name": "removeSignee",
      "outputs": [],
      "stateMutability": "nonpayable",
      "type": "function"
    },
    {
      "inputs": [
        {
          "internalType": "uint256[3]",
          "name": "amounts",
          "type": "uint256[3]"
        },
        {
          "internalType": "uint256",
          "name": "_loanID",
          "type": "uint256"
        }
      ],
      "name": "withdrawLoan",
      "outputs": [],
      "stateMutability": "nonpayable",
      "type": "function"
    },
    {
      "inputs": [
        {
          "internalType": "uint256[3]",
          "name": "_amounts",
          "type": "uint256[3]"
        },
        {
          "internalType": "uint256",
          "name": "_loanId",
          "type": "uint256"
        }
      ],
      "name": "repayLoan",
      "outputs": [],
      "stateMutability": "nonpayable",
      "type": "function"
    },
    {
      "inputs": [
        {
          "internalType": "uint8",
          "name": "_number",
          "type": "uint8"
        }
      ],
      "name": "getTotalTakenLoan",
      "outputs": [
        {
          "internalType": "uint256",
          "name": "",
          "type": "uint256"
        }
      ],
      "stateMutability": "view",
      "type": "function"
    },
    {
      "inputs": [
        {
          "internalType": "uint8",
          "name": "_number",
          "type": "uint8"
        }
      ],
      "name": "getTotalApprovedLoan",
      "outputs": [
        {
          "internalType": "uint256",
          "name": "",
          "type": "uint256"
        }
      ],
      "stateMutability": "view",
      "type": "function"
    }
  ],
  "bytecode": "0x608060405260006009553480156200001657600080fd5b50604051620030ae380380620030ae83398181016040528101906200003c9190620001e2565b33600c60006101000a81548173ffffffffffffffffffffffffffffffffffffffff021916908373ffffffffffffffffffffffffffffffffffffffff16021790555060005b600360ff168160ff1610156200014457828160ff1660038110620000a057fe5b602002015160008260ff1660038110620000b657fe5b0160006101000a81548173ffffffffffffffffffffffffffffffffffffffff021916908373ffffffffffffffffffffffffffffffffffffffff16021790555081600b60006101000a81548173ffffffffffffffffffffffffffffffffffffffff021916908373ffffffffffffffffffffffffffffffffffffffff160217905550808060010191505062000080565b505050620002c2565b6000815190506200015e81620002a8565b92915050565b600082601f8301126200017657600080fd5b60036200018d620001878262000251565b62000223565b91508183856020840282011115620001a457600080fd5b60005b83811015620001d85781620001bd88826200014d565b845260208401935060208301925050600181019050620001a7565b5050505092915050565b60008060808385031215620001f657600080fd5b6000620002068582860162000164565b925050606062000219858286016200014d565b9150509250929050565b6000604051905081810181811067ffffffffffffffff821117156200024757600080fd5b8060405250919050565b600067ffffffffffffffff8211156200026957600080fd5b602082029050919050565b6000620002818262000288565b9050919050565b600073ffffffffffffffffffffffffffffffffffffffff82169050919050565b620002b38162000274565b8114620002bf57600080fd5b50565b612ddc80620002d26000396000f3fe608060405234801561001057600080fd5b50600436106101585760003560e01c80638f84aa09116100c3578063b0580ce91161007c578063b0580ce9146103ed578063b77bf60014610409578063cbd249f414610427578063d80a93d614610457578063dc8452cd14610487578063f84fd9ef146104a557610158565b80638f84aa09146102ef5780639ace38c21461030d5780639b364162146103415780639ff512fa1461035d578063aa37dca21461038d578063ae8df6a6146103bd57610158565b80632f094632116101155780632f0946321461022f5780633d591bc21461024d5780635d9ec2101461026957806362a945d1146102855780637a325e56146102a15780638af81478146102d157610158565b80630385b5811461015d578063049713671461018d5780630f8cdd88146101a957806310266c1c146101c55780631880432a146101f5578063277514e014610213575b600080fd5b610177600480360381019061017291906122aa565b6104d5565b604051610184919061298e565b60405180910390f35b6101a760048036038101906101a291906123c6565b6104f5565b005b6101c360048036038101906101be91906122aa565b6106ca565b005b6101df60048036038101906101da91906123c6565b610819565b6040516101ec9190612b20565b60405180910390f35b6101fd610831565b60405161020a9190612b20565b60405180910390f35b61022d60048036038101906102289190612338565b610836565b005b610237610dc0565b60405161024491906129a9565b60405180910390f35b61026760048036038101906102629190612338565b610de6565b005b610283600480360381019061027e91906123c6565b611264565b005b61029f600480360381019061029a919061230f565b61138c565b005b6102bb60048036038101906102b691906123ef565b611456565b6040516102c89190612b20565b60405180910390f35b6102d9611471565b6040516102e69190612b20565b60405180910390f35b6102f761147d565b60405161030491906128a4565b60405180910390f35b610327600480360381019061032291906123c6565b6114a3565b604051610338959493929190612b3b565b60405180910390f35b61035b600480360381019061035691906122aa565b611520565b005b610377600480360381019061037291906123c6565b6117ad565b6040516103849190612b04565b60405180910390f35b6103a760048036038101906103a291906123c6565b611915565b6040516103b49190612b20565b60405180910390f35b6103d760048036038101906103d291906123c6565b61192d565b6040516103e4919061298e565b60405180910390f35b610407600480360381019061040291906123c6565b61195a565b005b610411611a36565b60405161041e9190612b20565b60405180910390f35b610441600480360381019061043c91906123ef565b611a3c565b60405161044e9190612b20565b60405180910390f35b610471600480360381019061046c91906123c6565b611a57565b60405161047e91906128a4565b60405180910390f35b61048f611a93565b60405161049c9190612b20565b60405180910390f35b6104bf60048036038101906104ba91906122d3565b611a99565b6040516104cc919061298e565b60405180910390f35b60066020528060005260406000206000915054906101000a900460ff1681565b33600660008273ffffffffffffffffffffffffffffffffffffffff1673ffffffffffffffffffffffffffffffffffffffff16815260200190815260200160002060009054906101000a900460ff1661054c57600080fd5b8160008111801561055f57506009548111155b61056857600080fd5b3383600460008373ffffffffffffffffffffffffffffffffffffffff1673ffffffffffffffffffffffffffffffffffffffff168152602001908152602001600020600082815260200190815260200160002060009054906101000a900460ff16156105d257600080fd5b6001600460003373ffffffffffffffffffffffffffffffffffffffff1673ffffffffffffffffffffffffffffffffffffffff168152602001908152602001600020600087815260200190815260200160002060006101000a81548160ff0219169083151502179055507f24e5bfa739656f6dd56210dbd8ccbfdabcae46f85752164562c69dffd61a320b338660405161066c92919061293c565b60405180910390a161067d85611ac8565b156106c35761068b85611bd6565b7f7d4061e68fab364906497bb959d95ad3f052a3978fed6ce9942a2b8f737aae54856040516106ba9190612b20565b60405180910390a15b5050505050565b600c60009054906101000a900473ffffffffffffffffffffffffffffffffffffffff1673ffffffffffffffffffffffffffffffffffffffff163373ffffffffffffffffffffffffffffffffffffffff161461072457600080fd5b6001600660008373ffffffffffffffffffffffffffffffffffffffff1673ffffffffffffffffffffffffffffffffffffffff16815260200190815260200160002060006101000a81548160ff0219169083151502179055506008819080600181540180825580915050600190039060005260206000200160009091909190916101000a81548173ffffffffffffffffffffffffffffffffffffffff021916908373ffffffffffffffffffffffffffffffffffffffff1602179055507fa0aa61ae85a95577b5775982299a5bfc418ef90f41d6bb03a7f2d5a6f7738eaf8160405161080e91906128a4565b60405180910390a150565b600d816003811061082657fe5b016000915090505481565b603281565b3373ffffffffffffffffffffffffffffffffffffffff166003600083815260200190815260200160002060010160009054906101000a900473ffffffffffffffffffffffffffffffffffffffff1673ffffffffffffffffffffffffffffffffffffffff16146108da576040517f08c379a00000000000000000000000000000000000000000000000000000000081526004016108d190612a24565b60405180910390fd5b6003600082815260200190815260200160002060080160009054906101000a900460ff1661093d576040517f08c379a000000000000000000000000000000000000000000000000000000000815260040161093490612a64565b60405180910390fd5b60005b600360ff168160ff1610156109d757828160ff166003811061095e57fe5b6020020135600360008481526020019081526020016000206005018260ff166003811061098757fe5b015410156109ca576040517f08c379a00000000000000000000000000000000000000000000000000000000081526004016109c190612aa4565b60405180910390fd5b8080600101915050610940565b506000600b60009054906101000a900473ffffffffffffffffffffffffffffffffffffffff1673ffffffffffffffffffffffffffffffffffffffff1663eacd7afc846003600086815260200190815260200160002060010160009054906101000a900473ffffffffffffffffffffffffffffffffffffffff166040518363ffffffff1660e01b8152600401610a6d929190612965565b602060405180830381600087803b158015610a8757600080fd5b505af1158015610a9b573d6000803e3d6000fd5b505050506040513d601f19601f82011682018060405250810190610abf919061239d565b905080610b01576040517f08c379a0000000000000000000000000000000000000000000000000000000008152600401610af890612a04565b60405180910390fd5b6000805b600360ff168160ff161015610c12576000858260ff1660038110610b2557fe5b60200201351115610bce57848160ff1660038110610b3f57fe5b6020020135600d8260ff1660038110610b5457fe5b0160008282540192505081905550610ba4600360008681526020019081526020016000206005018260ff1660038110610b8957fe5b0154868360ff1660038110610b9a57fe5b6020020135611e9b565b600360008681526020019081526020016000206005018260ff1660038110610bc857fe5b01819055505b6000600360008681526020019081526020016000206005018260ff1660038110610bf457fe5b01541415610c055781806001019250505b8080600101915050610b05565b507f3fe87a796bb63522ae7b9008d51ff617ee24dbde9a0fac8ed85e5a29e781755633856003600087815260200190815260200160002060050186604051610c5d94939291906128bf565b60405180910390a160038160ff161415610dba5760016003600085815260200190815260200160002060080160016101000a81548160ff021916908315150217905550604051806060016040528084815260200160001515815260200160036000868152602001908152602001600020600201600380602002604051908101604052809291908260038015610d07576020028201915b815481526020019060010190808311610cf3575b5050505050815250600560008581526020019081526020016000206000820151816000015560208201518160010160006101000a81548160ff021916908315150217905550604082015181600201906003610d6392919061208e565b509050507fc3fd3a068edf38e1a0ccd0f7e52aea669eb60f90dbb25026798e25db56f3a6f333856003600087815260200190815260200160002060020186604051610db194939291906128bf565b60405180910390a15b50505050565b600b60009054906101000a900473ffffffffffffffffffffffffffffffffffffffff1681565b600954811115610e2b576040517f08c379a0000000000000000000000000000000000000000000000000000000008152600401610e2290612ac4565b60405180910390fd5b3373ffffffffffffffffffffffffffffffffffffffff166003600083815260200190815260200160002060010160009054906101000a900473ffffffffffffffffffffffffffffffffffffffff1673ffffffffffffffffffffffffffffffffffffffff1614610ecf576040517f08c379a0000000000000000000000000000000000000000000000000000000008152600401610ec690612a24565b60405180910390fd5b6005600082815260200190815260200160002060010160009054906101000a900460ff1615610f33576040517f08c379a0000000000000000000000000000000000000000000000000000000008152600401610f2a90612a84565b60405180910390fd5b6000600b60009054906101000a900473ffffffffffffffffffffffffffffffffffffffff1673ffffffffffffffffffffffffffffffffffffffff166380001288846003600086815260200190815260200160002060010160009054906101000a900473ffffffffffffffffffffffffffffffffffffffff166040518363ffffffff1660e01b8152600401610fc8929190612965565b602060405180830381600087803b158015610fe257600080fd5b505af1158015610ff6573d6000803e3d6000fd5b505050506040513d601f19601f8201168201806040525081019061101a919061239d565b90508061105c576040517f08c379a0000000000000000000000000000000000000000000000000000000008152600401611053906129e4565b60405180910390fd5b6000805b600360ff1681101561118057600085826003811061107a57fe5b6020020135146111735784816003811061109057fe5b6020020135600d82600381106110a257fe5b01600082825403925050819055508481600381106110bc57fe5b6020020135601082600381106110ce57fe5b016000828254039250508190555061111860056000868152602001908152602001600020600201826003811061110057fe5b015486836003811061110e57fe5b6020020135611e9b565b60056000868152602001908152602001600020600201826003811061113957fe5b0181905550600060056000868152602001908152602001600020600201826003811061116157fe5b015414156111725781806001019250505b5b8080600101915050611060565b507ffe337a99fc07b4422a06a40fb4728125523f3c0977d012d21e3eb9f89edfd360338560056000878152602001908152602001600020600201866040516111cb94939291906128bf565b60405180910390a1600381141561125e5760016005600085815260200190815260200160002060010160006101000a81548160ff0219169083151502179055507f57d01a01ec1287fb00888c92856cb0f45352809b7a5350fdd677ce76f78262993385600560008781526020019081526020016000206002018660405161125594939291906128bf565b60405180910390a15b50505050565b3373ffffffffffffffffffffffffffffffffffffffff166003600083815260200190815260200160002060010160009054906101000a900473ffffffffffffffffffffffffffffffffffffffff1673ffffffffffffffffffffffffffffffffffffffff16146112d257600080fd5b60016003600083815260200190815260200160002060010160146101000a81548160ff0219169083151502179055507f24e5bfa739656f6dd56210dbd8ccbfdabcae46f85752164562c69dffd61a320b338260405161133292919061293c565b60405180910390a161134381611ac8565b156113895761135181611bd6565b7f7d4061e68fab364906497bb959d95ad3f052a3978fed6ce9942a2b8f737aae54816040516113809190612b20565b60405180910390a15b50565b600a5460088054905010156113d6576040517f08c379a00000000000000000000000000000000000000000000000000000000081526004016113cd90612a44565b60405180910390fd5b611416816003806020026040519081016040528092919082600360200280828437600081840152601f19601f820116905080830192505050505050611efa565b7f6825b4653b0626e0268f9c124dce0ea5cc6f826ccb2cf314459bd1c62cf011f7338260095460405161144b93929190612905565b60405180910390a150565b6000600d8260ff166003811061146857fe5b01549050919050565b670de0b6b3a764000081565b600c60009054906101000a900473ffffffffffffffffffffffffffffffffffffffff1681565b60036020528060005260406000206000915090508060000154908060010160009054906101000a900473ffffffffffffffffffffffffffffffffffffffff16908060010160149054906101000a900460ff16908060080160009054906101000a900460ff16908060080160019054906101000a900460ff16905085565b600c60009054906101000a900473ffffffffffffffffffffffffffffffffffffffff1673ffffffffffffffffffffffffffffffffffffffff163373ffffffffffffffffffffffffffffffffffffffff161461157a57600080fd5b80600660008273ffffffffffffffffffffffffffffffffffffffff1673ffffffffffffffffffffffffffffffffffffffff16815260200190815260200160002060009054906101000a900460ff166115d157600080fd5b6000600660008473ffffffffffffffffffffffffffffffffffffffff1673ffffffffffffffffffffffffffffffffffffffff16815260200190815260200160002060006101000a81548160ff02191690831515021790555060005b60016008805490500381101561174e578273ffffffffffffffffffffffffffffffffffffffff166008828154811061166057fe5b9060005260206000200160009054906101000a900473ffffffffffffffffffffffffffffffffffffffff1673ffffffffffffffffffffffffffffffffffffffff161415611741576008600160088054905003815481106116bc57fe5b9060005260206000200160009054906101000a900473ffffffffffffffffffffffffffffffffffffffff16600882815481106116f457fe5b9060005260206000200160006101000a81548173ffffffffffffffffffffffffffffffffffffffff021916908373ffffffffffffffffffffffffffffffffffffffff16021790555061174e565b808060010191505061162c565b50600880549050600a54111561177257600a60008154809291906001900391905055505b7f95cd0920c0aa5e5da987ebe563a4f26fc5143a4c65e89cc8b1b3a23e2d7fa5ff826040516117a191906128a4565b60405180910390a15050565b6117b56120ce565b600360008381526020019081526020016000206040518060e0016040529081600082015481526020016001820160009054906101000a900473ffffffffffffffffffffffffffffffffffffffff1673ffffffffffffffffffffffffffffffffffffffff1673ffffffffffffffffffffffffffffffffffffffff1681526020016001820160149054906101000a900460ff161515151581526020016002820160038060200260405190810160405280929190826003801561188a576020028201915b815481526020019060010190808311611876575b50505050508152602001600582016003806020026040519081016040528092919082600380156118cf576020028201915b8154815260200190600101908083116118bb575b505050505081526020016008820160009054906101000a900460ff161515151581526020016008820160019054906101000a900460ff1615151515815250509050919050565b6010816003811061192257fe5b016000915090505481565b60006003600083815260200190815260200160002060080160009054906101000a900460ff169050919050565b600c60009054906101000a900473ffffffffffffffffffffffffffffffffffffffff1673ffffffffffffffffffffffffffffffffffffffff163373ffffffffffffffffffffffffffffffffffffffff16146119b457600080fd5b60088054905081603282111580156119cc5750818111155b80156119d9575060008114155b80156119e6575060008214155b6119ef57600080fd5b82600a819055507f3eeb9a927605685a0c44838616e4c196655b47d4019656c814bbf5743d1e25cc33600a54604051611a2992919061293c565b60405180910390a1505050565b60095481565b600060108260ff1660038110611a4e57fe5b01549050919050565b60088181548110611a6457fe5b906000526020600020016000915054906101000a900473ffffffffffffffffffffffffffffffffffffffff1681565b600a5481565b60046020528160005260406000206020528060005260406000206000915091509054906101000a900460ff1681565b6000806000905060005b600880549050811015611bce576004600060088381548110611af057fe5b9060005260206000200160009054906101000a900473ffffffffffffffffffffffffffffffffffffffff1673ffffffffffffffffffffffffffffffffffffffff1673ffffffffffffffffffffffffffffffffffffffff168152602001908152602001600020600085815260200190815260200160002060009054906101000a900460ff1615611b80576001820191505b600a5482148015611bb157506003600085815260200190815260200160002060010160149054906101000a900460ff165b15611bc157600192505050611bd1565b8080600101915050611ad2565b50505b919050565b611bde612133565b600b60009054906101000a900473ffffffffffffffffffffffffffffffffffffffff1673ffffffffffffffffffffffffffffffffffffffff1663233fc9a26040518163ffffffff1660e01b815260040160606040518083038186803b158015611c4657600080fd5b505afa158015611c5a573d6000803e3d6000fd5b505050506040513d601f19601f82011682018060405250810190611c7e9190612374565b905060005b600360ff168160ff161015611d2c57818160ff1660038110611ca157fe5b6020020151600360008581526020019081526020016000206002018260ff1660038110611cca57fe5b015460108360ff1660038110611cdc57fe5b01540110611d1f576040517f08c379a0000000000000000000000000000000000000000000000000000000008152600401611d16906129c4565b60405180910390fd5b8080600101915050611c83565b5060016003600084815260200190815260200160002060080160006101000a81548160ff0219169083151502179055506003600083815260200190815260200160002060020160036000848152602001908152602001600020600501906003611d96929190612155565b5060005b600360ff168160ff161015611dfa57600360008481526020019081526020016000206002018160ff1660038110611dcd57fe5b015460108260ff1660038110611ddf57fe5b01600082825401925050819055508080600101915050611d9a565b50600760006003600085815260200190815260200160002060010160009054906101000a900473ffffffffffffffffffffffffffffffffffffffff1673ffffffffffffffffffffffffffffffffffffffff1673ffffffffffffffffffffffffffffffffffffffff1681526020019081526020016000208290806001815401808255809150506001900390600052602060002001600090919091909150555050565b6000806000611eaa8585612065565b915091508015611eef576040517f08c379a0000000000000000000000000000000000000000000000000000000008152600401611ee690612ae4565b60405180910390fd5b819250505092915050565b611f02612133565b6009600081548092919060010191905055506040518060e0016040528060095481526020013373ffffffffffffffffffffffffffffffffffffffff168152602001600015158152602001838152602001828152602001600015158152602001600015158152506003600060095481526020019081526020016000206000820151816000015560208201518160010160006101000a81548173ffffffffffffffffffffffffffffffffffffffff021916908373ffffffffffffffffffffffffffffffffffffffff16021790555060408201518160010160146101000a81548160ff02191690831515021790555060608201518160020190600361200592919061208e565b5060808201518160050190600361201d92919061208e565b5060a08201518160080160006101000a81548160ff02191690831515021790555060c08201518160080160016101000a81548160ff0219169083151502179055509050505050565b60008082841061207d57828403600091509150612087565b8383036001915091505b9250929050565b82600381019282156120bd579160200282015b828111156120bc5782518255916020019190600101906120a1565b5b5090506120ca9190612192565b5090565b6040518060e0016040528060008152602001600073ffffffffffffffffffffffffffffffffffffffff16815260200160001515815260200161210e612133565b815260200161211b612133565b81526020016000151581526020016000151581525090565b6040518060600160405280600390602082028036833780820191505090505090565b8260038101928215612181579182015b82811115612180578254825591600101919060010190612165565b5b50905061218e9190612192565b5090565b5b808211156121ab576000816000905550600101612193565b5090565b6000813590506121be81612d4a565b92915050565b6000819050826020600302820111156121dc57600080fd5b92915050565b600082601f8301126121f357600080fd5b600361220661220182612bbb565b612b8e565b9150818385602084028201111561221c57600080fd5b60005b8381101561224c57816122328882612280565b84526020840193506020830192505060018101905061221f565b5050505092915050565b60008151905061226581612d61565b92915050565b60008135905061227a81612d78565b92915050565b60008151905061228f81612d78565b92915050565b6000813590506122a481612d8f565b92915050565b6000602082840312156122bc57600080fd5b60006122ca848285016121af565b91505092915050565b600080604083850312156122e657600080fd5b60006122f4858286016121af565b92505060206123058582860161226b565b9150509250929050565b60006060828403121561232157600080fd5b600061232f848285016121c4565b91505092915050565b6000806080838503121561234b57600080fd5b6000612359858286016121c4565b925050606061236a8582860161226b565b9150509250929050565b60006060828403121561238657600080fd5b6000612394848285016121e2565b91505092915050565b6000602082840312156123af57600080fd5b60006123bd84828501612256565b91505092915050565b6000602082840312156123d857600080fd5b60006123e68482850161226b565b91505092915050565b60006020828403121561240157600080fd5b600061240f84828501612295565b91505092915050565b60006124248383612886565b60208301905092915050565b61243981612ca7565b82525050565b61244881612c52565b82525050565b61245781612c52565b82525050565b61246960608383612d01565b5050565b61247681612bf1565b6124808184612c21565b925061248b82612bdd565b8060005b838110156124bc5781516124a38782612418565b96506124ae83612c07565b92505060018101905061248f565b505050505050565b6124cd81612bfc565b6124d78184612c2c565b92506124e282612be7565b8060005b8381101561251a576124f782612d2a565b6125018782612418565b965061250c83612c14565b9250506001810190506124e6565b505050505050565b61252b81612c64565b82525050565b61253a81612c64565b82525050565b61254981612cb9565b82525050565b600061255c602083612c37565b91507f43616e206e6f7420617070726f76652074686174206d75636820616d6f756e746000830152602082019050919050565b600061259c601b83612c37565b91507f4c6f616e205061796d656e74206e6f742073756363657366756c6c00000000006000830152602082019050919050565b60006125dc601c83612c37565b91507f4c6f616e205769746864726177206e6f742073756363657366756c6c000000006000830152602082019050919050565b600061261c601183612c37565b91507f636f6d70616e79206e6f742d65786973740000000000000000000000000000006000830152602082019050919050565b600061265c601483612c37565b91507f696e73756666696369656e74207369676e6565730000000000000000000000006000830152602082019050919050565b600061269c601583612c37565b91507f6e6f7420617070726f76656420666f72206c6f616e00000000000000000000006000830152602082019050919050565b60006126dc600e83612c37565b91507f616c7265616479207265706169640000000000000000000000000000000000006000830152602082019050919050565b600061271c602883612c37565b91507f616d6f756e7420726571756573746564206578636565647320616d6f756e742060008301527f617070726f7665640000000000000000000000000000000000000000000000006020830152604082019050919050565b6000612782600f83612c37565b91507f696e76616c6964206c6f616e20696400000000000000000000000000000000006000830152602082019050919050565b60006127c2601183612c37565b91507f4552525f5355425f554e444552464c4f570000000000000000000000000000006000830152602082019050919050565b6101608201600082015161280c6000850182612886565b50602082015161281f602085018261243f565b5060408201516128326040850182612522565b506060820151612845606085018261246d565b50608082015161285860c085018261246d565b5060a082015161286c610120850182612522565b5060c0820151612880610140850182612522565b50505050565b61288f81612c90565b82525050565b61289e81612c90565b82525050565b60006020820190506128b9600083018461244e565b92915050565b6000610100820190506128d56000830187612430565b6128e2602083018661245d565b6128ef60808301856124c4565b6128fc60e0830184612895565b95945050505050565b600060a08201905061291a6000830186612430565b612927602083018561245d565b6129346080830184612895565b949350505050565b60006040820190506129516000830185612430565b61295e6020830184612895565b9392505050565b600060808201905061297a600083018561245d565b612987606083018461244e565b9392505050565b60006020820190506129a36000830184612531565b92915050565b60006020820190506129be6000830184612540565b92915050565b600060208201905081810360008301526129dd8161254f565b9050919050565b600060208201905081810360008301526129fd8161258f565b9050919050565b60006020820190508181036000830152612a1d816125cf565b9050919050565b60006020820190508181036000830152612a3d8161260f565b9050919050565b60006020820190508181036000830152612a5d8161264f565b9050919050565b60006020820190508181036000830152612a7d8161268f565b9050919050565b60006020820190508181036000830152612a9d816126cf565b9050919050565b60006020820190508181036000830152612abd8161270f565b9050919050565b60006020820190508181036000830152612add81612775565b9050919050565b60006020820190508181036000830152612afd816127b5565b9050919050565b600061016082019050612b1a60008301846127f5565b92915050565b6000602082019050612b356000830184612895565b92915050565b600060a082019050612b506000830188612895565b612b5d602083018761244e565b612b6a6040830186612531565b612b776060830185612531565b612b846080830184612531565b9695505050505050565b6000604051905081810181811067ffffffffffffffff82111715612bb157600080fd5b8060405250919050565b600067ffffffffffffffff821115612bd257600080fd5b602082029050919050565b6000819050919050565b6000819050919050565b600060039050919050565b600060039050919050565b6000602082019050919050565b6000600182019050919050565b600081905092915050565b600081905092915050565b600082825260208201905092915050565b6000819050919050565b6000612c5d82612c70565b9050919050565b60008115159050919050565b600073ffffffffffffffffffffffffffffffffffffffff82169050919050565b6000819050919050565b600060ff82169050919050565b6000612cb282612cdd565b9050919050565b6000612cc482612ccb565b9050919050565b6000612cd682612c70565b9050919050565b6000612ce882612cef565b9050919050565b6000612cfa82612c70565b9050919050565b82818337600083830152505050565b6000612d23612d1e83612d3d565b612c48565b9050919050565b6000612d368254612d10565b9050919050565b60008160001c9050919050565b612d5381612c52565b8114612d5e57600080fd5b50565b612d6a81612c64565b8114612d7557600080fd5b50565b612d8181612c90565b8114612d8c57600080fd5b50565b612d9881612c9a565b8114612da357600080fd5b5056fea264697066735822122014f60d249df5c7b833a6fb3c6cdd1547ece7094c8967364b1c477ba8fc09874c64736f6c634300060c0033",
  "immutableReferences": {},
  "source": "// SPDX-License-Identifier: UNLICENSED\r\npragma solidity ^0.6.0;\r\npragma experimental ABIEncoderV2;\r\n\r\nimport '../Interfaces/Erc20Interface.sol';\r\nimport '../Interfaces/RoyaleInterface.sol';\r\nimport './MathLib.sol';\r\n\r\n\r\ncontract rLoan is rNum{\r\n    uint8 constant N_COINS = 3;\r\n    \r\n    Erc20[N_COINS] tokens;\r\n\r\n    uint constant public MAX_SIGNEE_COUNT = 50;\r\n    \r\n    mapping(uint256 => Transaction) public transactions;\r\n    mapping(address => mapping (uint256 => bool)) public confirmations;\r\n    mapping(uint256 => Repayment) gamingCompanyRepayment;\r\n    mapping(address => bool) public isSignee;\r\n  \r\n    mapping(address => uint[]) takenLoan;\r\n    address[] public signees;\r\n    uint256 public transactionCount = 0;\r\n   \r\n    uint256 public required;\r\n\r\n    RoyaleInterface public royale;\r\n\r\n    address public ownerAddress;\r\n\r\n    uint256[N_COINS] public totalLoanTaken;\r\n    uint256[N_COINS] public totalApprovedLoan;\r\n    \r\n    struct Transaction {\r\n        uint256 transactionId;\r\n        address iGamingCompany;\r\n        bool isGamingCompanySigned;\r\n        uint256[N_COINS] tokenAmounts;\r\n        uint256[N_COINS] remAmt;\r\n        bool approved;\r\n        bool executed;\r\n    }\r\n\r\n    struct Repayment {\r\n        uint256 transactionID;\r\n        bool isRepaymentDone;\r\n        uint256[N_COINS] remainingTokenAmounts;\r\n    }\r\n\r\n\r\n    /* Events */\r\n\r\n    event loanRequested(\r\n        address by,\r\n        uint[N_COINS] amounts,\r\n        uint loanID\r\n    );\r\n\r\n    event signed(\r\n        address signee,\r\n        uint loanID\r\n    );\r\n\r\n    event approved(\r\n        uint loanID\r\n    );\r\n\r\n    event addedRequiredSignee(\r\n        address adder,\r\n        uint numberOfSignees\r\n    );\r\n\r\n    event signeeAdded(\r\n        address signee\r\n    );\r\n\r\n    event signeeRemoved(\r\n        address signee\r\n    );\r\n\r\n    event loanWithdrawn(\r\n        address by,\r\n        uint[N_COINS] requestedAmount,\r\n        uint[N_COINS] remainingAmount,\r\n        uint loanID\r\n    );\r\n\r\n    event loanFulfilled(\r\n        address by,\r\n        uint[N_COINS] requestedAmount,\r\n        uint[N_COINS] remainingAmount,\r\n        uint loanID\r\n    );\r\n\r\n    event loanRepayed(\r\n        address by,\r\n        uint[N_COINS] repayedAmount,\r\n        uint[N_COINS] amountRemaining,\r\n        uint loanID\r\n    );\r\n\r\n    event wholeLoanRepayed(\r\n        address by,\r\n        uint[N_COINS] repayedAmount,\r\n        uint[N_COINS] amountRemaining,\r\n        uint loanID\r\n    );\r\n\r\n    /* Modifiers */\r\n\r\n    modifier onlyOwner {\r\n        require(msg.sender == ownerAddress);\r\n        _;\r\n    }\r\n\r\n    modifier signeeExists(address signee) {\r\n        require(isSignee[signee]);\r\n        _;\r\n    }\r\n\r\n    modifier transactionExists(uint _loanID) {\r\n        require(_loanID > 0 && _loanID <= transactionCount);\r\n        _;\r\n    }\r\n\r\n    modifier notConfirmed(address addr,uint _loanID) {\r\n        require(!confirmations[addr][_loanID]);\r\n        _;\r\n    }\r\n\r\n    modifier validRequirement(uint signeeCount, uint _required) {\r\n        require(signeeCount <= MAX_SIGNEE_COUNT\r\n            && _required <= signeeCount\r\n            && _required != 0\r\n            && signeeCount != 0);\r\n        _;\r\n    }\r\n\r\n\r\n    constructor(address[N_COINS] memory _tokens , address _royale) public {\r\n        ownerAddress = msg.sender;\r\n\r\n        // Set Tokens supported by Pool\r\n        for(uint8 i=0; i<N_COINS; i++) {\r\n            tokens[i] = Erc20(_tokens[i]);\r\n            royale = RoyaleInterface(_royale);\r\n        }\r\n    }\r\n\r\n    /* Internal Functions */\r\n\r\n    function _addTransaction(\r\n       uint256[N_COINS] memory amounts\r\n    ) internal {\r\n        uint256[N_COINS] memory zero;\r\n\r\n        transactionCount++;\r\n        transactions[transactionCount] = Transaction({\r\n            transactionId: transactionCount,\r\n            iGamingCompany: msg.sender,\r\n            tokenAmounts: amounts,\r\n            remAmt: zero,\r\n            isGamingCompanySigned: false,\r\n            approved: false,\r\n            executed: false\r\n        });\r\n        \r\n    }\r\n\r\n    function _approveLoan(uint _loanID) internal {\r\n        uint256[N_COINS] memory am=royale.getTotalPoolBalance();\r\n        for(uint8 i=0;i<N_COINS;i++) {\r\n            require(totalApprovedLoan[i]+transactions[_loanID].tokenAmounts[i]<am[i],\"Can not approve that much amount\");\r\n        }\r\n\r\n        transactions[_loanID].approved = true;\r\n        transactions[_loanID].remAmt = transactions[_loanID].tokenAmounts;\r\n\r\n        for(uint8 i=0;i<N_COINS;i++){\r\n            totalApprovedLoan[i] +=transactions[_loanID].tokenAmounts[i];\r\n        }\r\n        takenLoan[transactions[_loanID].iGamingCompany].push(_loanID);\r\n    }\r\n\r\n    function _isConfirmed(\r\n        uint _loanID\r\n    ) internal view returns (bool) {\r\n        uint count = 0;\r\n        for (uint i=0; i<signees.length; i++) {\r\n            if (confirmations[signees[i]][_loanID])\r\n                count += 1;\r\n            if (count == required && transactions[_loanID].isGamingCompanySigned)\r\n                return true;\r\n        }\r\n    }\r\n\r\n  \r\n    /* USER FUNCTIONS (exposed to frontend) */\r\n\r\n    // Gaming platforms withdraw using this\r\n    function requestLoan(\r\n        uint256[N_COINS] calldata amounts\r\n    ) external  {\r\n       require(signees.length >= required, \"insufficient signees\");\r\n       _addTransaction(amounts);\r\n\r\n       emit loanRequested(msg.sender, amounts, transactionCount);\r\n    }\r\n    \r\n    \r\n    // Gaming Platforms signs using this\r\n    function signTransaction(uint _loanID) public {\r\n        require(transactions[_loanID].iGamingCompany == msg.sender);\r\n        \r\n        transactions[_loanID].isGamingCompanySigned = true;\r\n\r\n        emit signed(msg.sender, _loanID);\r\n\r\n        if(_isConfirmed(_loanID)) {\r\n           _approveLoan(_loanID);\r\n           emit approved(_loanID);\r\n        }\r\n    }\r\n    \r\n    // Signee signs using this\r\n    function confirmLoan(uint _loanID) public\r\n        signeeExists(msg.sender)\r\n        transactionExists(_loanID)\r\n        notConfirmed( msg.sender,_loanID) \r\n    {\r\n        confirmations[msg.sender][_loanID] = true;\r\n        \r\n        emit signed(msg.sender, _loanID);\r\n\r\n        if(_isConfirmed(_loanID)) {\r\n           _approveLoan(_loanID);\r\n           emit approved(_loanID);\r\n        }\r\n    }\r\n\r\n    function getTransactionDetail(\r\n        uint _loanID\r\n    ) public view returns(Transaction memory){\r\n        return transactions[_loanID];\r\n    }\r\n\r\n    function checkLoanApproved(uint _loanID) external view returns(bool) {\r\n        return transactions[_loanID].approved;\r\n    }\r\n\r\n    /* Admin Function */\r\n    \r\n    function setRequiredSignee(\r\n        uint _required\r\n    ) public onlyOwner validRequirement(signees.length, _required) {\r\n        required = _required;\r\n\r\n        emit addedRequiredSignee(msg.sender, required);\r\n    }\r\n\r\n    function addSignee(address signee) public onlyOwner {\r\n        isSignee[signee] = true;\r\n        signees.push(signee);\r\n\r\n        emit signeeAdded(signee);\r\n    }\r\n    \r\n    function removeSignee(address signee) public onlyOwner signeeExists(signee) {\r\n        isSignee[signee] = false;\r\n        for (uint i=0; i<signees.length - 1; i++) {\r\n            if (signees[i] == signee) {\r\n                signees[i] = signees[signees.length - 1];\r\n                break;\r\n            }\r\n        }\r\n        \r\n        if (required > signees.length) {\r\n            required--;\r\n        }\r\n\r\n        emit signeeRemoved(signee);\r\n    } \r\n\r\n    function withdrawLoan( \r\n        uint256[N_COINS] calldata amounts,\r\n        uint _loanID\r\n    ) external {\r\n\r\n        require(transactions[_loanID].iGamingCompany == msg.sender, \"company not-exist\");\r\n        require(transactions[_loanID].approved, \"not approved for loan\");\r\n        \r\n        for(uint8 i=0; i<N_COINS; i++) {\r\n            require(\r\n                transactions[_loanID].remAmt[i] >= amounts[i], \r\n                \"amount requested exceeds amount approved\"\r\n            );\r\n        }\r\n        bool b = royale._loanWithdraw(amounts,transactions[_loanID].iGamingCompany);\r\n        require(b, \"Loan Withdraw not succesfull\");\r\n\r\n        uint8 check = 0;\r\n        for(uint8 i=0; i<N_COINS; i++) {\r\n            if(amounts[i] > 0) {\r\n                totalLoanTaken[i] += amounts[i];\r\n                transactions[_loanID].remAmt[i] =bsub(transactions[_loanID].remAmt[i], amounts[i]);\r\n            }\r\n            if(transactions[_loanID].remAmt[i] == 0) {\r\n                check++;\r\n            }\r\n        }\r\n\r\n        emit loanWithdrawn(msg.sender, amounts, transactions[_loanID].remAmt, _loanID);\r\n\r\n        if(check == 3) {\r\n            // Loan fulfilled, company used all its loan\r\n            transactions[_loanID].executed = true;\r\n            gamingCompanyRepayment[_loanID] = Repayment({\r\n                  transactionID: _loanID,\r\n                  isRepaymentDone: false,\r\n                  remainingTokenAmounts: transactions[_loanID].tokenAmounts\r\n            });\r\n\r\n            emit loanFulfilled(msg.sender, amounts, transactions[_loanID].tokenAmounts, _loanID);\r\n        }\r\n    } \r\n    \r\n    \r\n    function repayLoan(uint256[N_COINS] calldata _amounts, uint _loanId) external {\r\n        require(_loanId <= transactionCount, \"invalid loan id\");\r\n        require(transactions[_loanId].iGamingCompany == msg.sender, \"company not-exist\");\r\n        require(!gamingCompanyRepayment[_loanId].isRepaymentDone, \"already repaid\");\r\n        bool b = royale._loanRepayment(_amounts,transactions[_loanId].iGamingCompany);\r\n        require(b,\"Loan Payment not succesfull\");\r\n        uint counter=0;\r\n        for(uint i=0;i<N_COINS;i++) {\r\n            if(_amounts[i]!=0) {\r\n                totalLoanTaken[i] -=_amounts[i];\r\n                totalApprovedLoan[i]-=_amounts[i];\r\n                gamingCompanyRepayment[_loanId].remainingTokenAmounts[i] =bsub(gamingCompanyRepayment[_loanId].remainingTokenAmounts[i], _amounts[i]);\r\n                if(gamingCompanyRepayment[_loanId].remainingTokenAmounts[i] == 0) {\r\n                    counter++;\r\n                }\r\n            }\r\n        }\r\n\r\n        emit loanRepayed(\r\n            msg.sender,\r\n            _amounts, \r\n            gamingCompanyRepayment[_loanId].remainingTokenAmounts,\r\n            _loanId\r\n        );\r\n\r\n            if(counter==3){\r\n                gamingCompanyRepayment[_loanId].isRepaymentDone=true;\r\n\r\n                emit wholeLoanRepayed(\r\n                    msg.sender,\r\n                    _amounts, \r\n                    gamingCompanyRepayment[_loanId].remainingTokenAmounts,\r\n                    _loanId\r\n                );\r\n            }       \r\n    }\r\n    \r\n   \r\n\r\n   /* functions for UI */\r\n\r\n    function getTotalTakenLoan(uint8 _number)public view returns(uint){\r\n        return totalLoanTaken[_number];\r\n    }\r\n\r\n    function getTotalApprovedLoan(uint8 _number)public view returns(uint){\r\n        return totalApprovedLoan[_number];\r\n    }\r\n}",
  "sourcePath": "C:/Users/vishn/OneDrive/Desktop/TempRoyakle/rlp/contracts/rLoan.sol",
  "compiler": {
    "name": "solc",
    "version": "0.6.12+commit.27d51765.Emscripten.clang"
  },
  "schemaVersion": "3.3.2",
  "updatedAt": "2020-12-28T06:02:46.869Z",
  "devdoc": {
    "kind": "dev",
    "methods": {},
    "version": 1
  },
  "userdoc": {
    "kind": "user",
    "methods": {},
    "version": 1
  }
}