{
  "contractName": "rLoan",
  "abi": [
    {
      "inputs": [
        {
          "internalType": "address[3]",
          "name": "_tokens",
          "type": "address[3]"
        },
        {
          "internalType": "address",
          "name": "_royale",
          "type": "address"
        }
      ],
      "stateMutability": "nonpayable",
      "type": "constructor"
    },
    {
      "anonymous": false,
      "inputs": [
        {
          "indexed": false,
          "internalType": "address",
          "name": "adder",
          "type": "address"
        },
        {
          "indexed": false,
          "internalType": "uint256",
          "name": "numberOfSignees",
          "type": "uint256"
        }
      ],
      "name": "addedRequiredSignee",
      "type": "event"
    },
    {
      "anonymous": false,
      "inputs": [
        {
          "indexed": false,
          "internalType": "uint256",
          "name": "loanID",
          "type": "uint256"
        }
      ],
      "name": "approved",
      "type": "event"
    },
    {
      "anonymous": false,
      "inputs": [
        {
          "indexed": false,
          "internalType": "address",
          "name": "by",
          "type": "address"
        },
        {
          "indexed": false,
          "internalType": "uint256[3]",
          "name": "requestedAmount",
          "type": "uint256[3]"
        },
        {
          "indexed": false,
          "internalType": "uint256[3]",
          "name": "remainingAmount",
          "type": "uint256[3]"
        },
        {
          "indexed": false,
          "internalType": "uint256",
          "name": "loanID",
          "type": "uint256"
        }
      ],
      "name": "loanFulfilled",
      "type": "event"
    },
    {
      "anonymous": false,
      "inputs": [
        {
          "indexed": false,
          "internalType": "address",
          "name": "by",
          "type": "address"
        },
        {
          "indexed": false,
          "internalType": "uint256[3]",
          "name": "repayedAmount",
          "type": "uint256[3]"
        },
        {
          "indexed": false,
          "internalType": "uint256[3]",
          "name": "amountRemaining",
          "type": "uint256[3]"
        },
        {
          "indexed": false,
          "internalType": "uint256",
          "name": "loanID",
          "type": "uint256"
        }
      ],
      "name": "loanRepayed",
      "type": "event"
    },
    {
      "anonymous": false,
      "inputs": [
        {
          "indexed": false,
          "internalType": "address",
          "name": "by",
          "type": "address"
        },
        {
          "indexed": false,
          "internalType": "uint256[3]",
          "name": "amounts",
          "type": "uint256[3]"
        },
        {
          "indexed": false,
          "internalType": "uint256",
          "name": "loanID",
          "type": "uint256"
        }
      ],
      "name": "loanRequested",
      "type": "event"
    },
    {
      "anonymous": false,
      "inputs": [
        {
          "indexed": false,
          "internalType": "address",
          "name": "by",
          "type": "address"
        },
        {
          "indexed": false,
          "internalType": "uint256[3]",
          "name": "requestedAmount",
          "type": "uint256[3]"
        },
        {
          "indexed": false,
          "internalType": "uint256[3]",
          "name": "remainingAmount",
          "type": "uint256[3]"
        },
        {
          "indexed": false,
          "internalType": "uint256",
          "name": "loanID",
          "type": "uint256"
        }
      ],
      "name": "loanWithdrawn",
      "type": "event"
    },
    {
      "anonymous": false,
      "inputs": [
        {
          "indexed": false,
          "internalType": "address",
          "name": "signee",
          "type": "address"
        },
        {
          "indexed": false,
          "internalType": "uint256",
          "name": "loanID",
          "type": "uint256"
        }
      ],
      "name": "signed",
      "type": "event"
    },
    {
      "anonymous": false,
      "inputs": [
        {
          "indexed": false,
          "internalType": "address",
          "name": "signee",
          "type": "address"
        }
      ],
      "name": "signeeAdded",
      "type": "event"
    },
    {
      "anonymous": false,
      "inputs": [
        {
          "indexed": false,
          "internalType": "address",
          "name": "signee",
          "type": "address"
        }
      ],
      "name": "signeeRemoved",
      "type": "event"
    },
    {
      "anonymous": false,
      "inputs": [
        {
          "indexed": false,
          "internalType": "address",
          "name": "by",
          "type": "address"
        },
        {
          "indexed": false,
          "internalType": "uint256[3]",
          "name": "repayedAmount",
          "type": "uint256[3]"
        },
        {
          "indexed": false,
          "internalType": "uint256[3]",
          "name": "amountRemaining",
          "type": "uint256[3]"
        },
        {
          "indexed": false,
          "internalType": "uint256",
          "name": "loanID",
          "type": "uint256"
        }
      ],
      "name": "wholeLoanRepayed",
      "type": "event"
    },
    {
      "inputs": [],
      "name": "MAX_SIGNEE_COUNT",
      "outputs": [
        {
          "internalType": "uint256",
          "name": "",
          "type": "uint256"
        }
      ],
      "stateMutability": "view",
      "type": "function"
    },
    {
      "inputs": [
        {
          "internalType": "address",
          "name": "",
          "type": "address"
        },
        {
          "internalType": "uint256",
          "name": "",
          "type": "uint256"
        }
      ],
      "name": "confirmations",
      "outputs": [
        {
          "internalType": "bool",
          "name": "",
          "type": "bool"
        }
      ],
      "stateMutability": "view",
      "type": "function"
    },
    {
      "inputs": [
        {
          "internalType": "address",
          "name": "",
          "type": "address"
        }
      ],
      "name": "isSignee",
      "outputs": [
        {
          "internalType": "bool",
          "name": "",
          "type": "bool"
        }
      ],
      "stateMutability": "view",
      "type": "function"
    },
    {
      "inputs": [],
      "name": "ownerAddress",
      "outputs": [
        {
          "internalType": "address",
          "name": "",
          "type": "address"
        }
      ],
      "stateMutability": "view",
      "type": "function"
    },
    {
      "inputs": [],
      "name": "required",
      "outputs": [
        {
          "internalType": "uint256",
          "name": "",
          "type": "uint256"
        }
      ],
      "stateMutability": "view",
      "type": "function"
    },
    {
      "inputs": [],
      "name": "royale",
      "outputs": [
        {
          "internalType": "contract RoyaleInterface",
          "name": "",
          "type": "address"
        }
      ],
      "stateMutability": "view",
      "type": "function"
    },
    {
      "inputs": [
        {
          "internalType": "uint256",
          "name": "",
          "type": "uint256"
        }
      ],
      "name": "signees",
      "outputs": [
        {
          "internalType": "address",
          "name": "",
          "type": "address"
        }
      ],
      "stateMutability": "view",
      "type": "function"
    },
    {
      "inputs": [
        {
          "internalType": "uint256",
          "name": "",
          "type": "uint256"
        }
      ],
      "name": "totalApprovedLoan",
      "outputs": [
        {
          "internalType": "uint256",
          "name": "",
          "type": "uint256"
        }
      ],
      "stateMutability": "view",
      "type": "function"
    },
    {
      "inputs": [
        {
          "internalType": "uint256",
          "name": "",
          "type": "uint256"
        }
      ],
      "name": "totalLoanTaken",
      "outputs": [
        {
          "internalType": "uint256",
          "name": "",
          "type": "uint256"
        }
      ],
      "stateMutability": "view",
      "type": "function"
    },
    {
      "inputs": [],
      "name": "transactionCount",
      "outputs": [
        {
          "internalType": "uint256",
          "name": "",
          "type": "uint256"
        }
      ],
      "stateMutability": "view",
      "type": "function"
    },
    {
      "inputs": [
        {
          "internalType": "uint256",
          "name": "",
          "type": "uint256"
        }
      ],
      "name": "transactions",
      "outputs": [
        {
          "internalType": "uint256",
          "name": "transactionId",
          "type": "uint256"
        },
        {
          "internalType": "address",
          "name": "iGamingCompany",
          "type": "address"
        },
        {
          "internalType": "bool",
          "name": "isGamingCompanySigned",
          "type": "bool"
        },
        {
          "internalType": "bool",
          "name": "approved",
          "type": "bool"
        },
        {
          "internalType": "bool",
          "name": "executed",
          "type": "bool"
        }
      ],
      "stateMutability": "view",
      "type": "function"
    },
    {
      "inputs": [
        {
          "internalType": "uint256[3]",
          "name": "amounts",
          "type": "uint256[3]"
        }
      ],
      "name": "requestLoan",
      "outputs": [
        {
          "internalType": "uint256",
          "name": "",
          "type": "uint256"
        }
      ],
      "stateMutability": "nonpayable",
      "type": "function"
    },
    {
      "inputs": [
        {
          "internalType": "uint256",
          "name": "_loanID",
          "type": "uint256"
        }
      ],
      "name": "signTransaction",
      "outputs": [],
      "stateMutability": "nonpayable",
      "type": "function"
    },
    {
      "inputs": [
        {
          "internalType": "uint256",
          "name": "_loanID",
          "type": "uint256"
        }
      ],
      "name": "confirmLoan",
      "outputs": [],
      "stateMutability": "nonpayable",
      "type": "function"
    },
    {
      "inputs": [
        {
          "internalType": "uint256",
          "name": "_loanID",
          "type": "uint256"
        }
      ],
      "name": "getTransactionDetail",
      "outputs": [
        {
          "components": [
            {
              "internalType": "uint256",
              "name": "transactionId",
              "type": "uint256"
            },
            {
              "internalType": "address",
              "name": "iGamingCompany",
              "type": "address"
            },
            {
              "internalType": "bool",
              "name": "isGamingCompanySigned",
              "type": "bool"
            },
            {
              "internalType": "uint256[3]",
              "name": "tokenAmounts",
              "type": "uint256[3]"
            },
            {
              "internalType": "uint256[3]",
              "name": "remAmt",
              "type": "uint256[3]"
            },
            {
              "internalType": "bool",
              "name": "approved",
              "type": "bool"
            },
            {
              "internalType": "bool",
              "name": "executed",
              "type": "bool"
            }
          ],
          "internalType": "struct rLoan.Transaction",
          "name": "",
          "type": "tuple"
        }
      ],
      "stateMutability": "view",
      "type": "function"
    },
    {
      "inputs": [
        {
          "internalType": "uint256",
          "name": "_loanID",
          "type": "uint256"
        }
      ],
      "name": "checkLoanApproved",
      "outputs": [
        {
          "internalType": "bool",
          "name": "",
          "type": "bool"
        }
      ],
      "stateMutability": "view",
      "type": "function"
    },
    {
      "inputs": [
        {
          "internalType": "uint256",
          "name": "_required",
          "type": "uint256"
        }
      ],
      "name": "setRequiredSignee",
      "outputs": [],
      "stateMutability": "nonpayable",
      "type": "function"
    },
    {
      "inputs": [
        {
          "internalType": "address",
          "name": "signee",
          "type": "address"
        }
      ],
      "name": "addSignee",
      "outputs": [],
      "stateMutability": "nonpayable",
      "type": "function"
    },
    {
      "inputs": [
        {
          "internalType": "address",
          "name": "signee",
          "type": "address"
        }
      ],
      "name": "removeSignee",
      "outputs": [],
      "stateMutability": "nonpayable",
      "type": "function"
    },
    {
      "inputs": [
        {
          "internalType": "uint256[3]",
          "name": "amounts",
          "type": "uint256[3]"
        },
        {
          "internalType": "uint256",
          "name": "_loanID",
          "type": "uint256"
        }
      ],
      "name": "withdrawLoan",
      "outputs": [],
      "stateMutability": "nonpayable",
      "type": "function"
    },
    {
      "inputs": [
        {
          "internalType": "uint256[3]",
          "name": "_amounts",
          "type": "uint256[3]"
        },
        {
          "internalType": "uint256",
          "name": "_loanId",
          "type": "uint256"
        }
      ],
      "name": "repayLoan",
      "outputs": [],
      "stateMutability": "nonpayable",
      "type": "function"
    },
    {
      "inputs": [
        {
          "internalType": "uint8",
          "name": "_number",
          "type": "uint8"
        }
      ],
      "name": "getTotalTakenLoan",
      "outputs": [
        {
          "internalType": "uint256",
          "name": "",
          "type": "uint256"
        }
      ],
      "stateMutability": "view",
      "type": "function"
    },
    {
      "inputs": [
        {
          "internalType": "uint8",
          "name": "_number",
          "type": "uint8"
        }
      ],
      "name": "getTotalApprovedLoan",
      "outputs": [
        {
          "internalType": "uint256",
          "name": "",
          "type": "uint256"
        }
      ],
      "stateMutability": "view",
      "type": "function"
    }
  ],
  "bytecode": "0x608060405260006009553480156200001657600080fd5b5060405162002f6238038062002f6283398181016040528101906200003c9190620001e2565b33600c60006101000a81548173ffffffffffffffffffffffffffffffffffffffff021916908373ffffffffffffffffffffffffffffffffffffffff16021790555060005b600360ff168160ff1610156200014457828160ff1660038110620000a057fe5b602002015160008260ff1660038110620000b657fe5b0160006101000a81548173ffffffffffffffffffffffffffffffffffffffff021916908373ffffffffffffffffffffffffffffffffffffffff16021790555081600b60006101000a81548173ffffffffffffffffffffffffffffffffffffffff021916908373ffffffffffffffffffffffffffffffffffffffff160217905550808060010191505062000080565b505050620002c2565b6000815190506200015e81620002a8565b92915050565b600082601f8301126200017657600080fd5b60036200018d620001878262000251565b62000223565b91508183856020840282011115620001a457600080fd5b60005b83811015620001d85781620001bd88826200014d565b845260208401935060208301925050600181019050620001a7565b5050505092915050565b60008060808385031215620001f657600080fd5b6000620002068582860162000164565b925050606062000219858286016200014d565b9150509250929050565b6000604051905081810181811067ffffffffffffffff821117156200024757600080fd5b8060405250919050565b600067ffffffffffffffff8211156200026957600080fd5b602082029050919050565b6000620002818262000288565b9050919050565b600073ffffffffffffffffffffffffffffffffffffffff82169050919050565b620002b38162000274565b8114620002bf57600080fd5b50565b612c9080620002d26000396000f3fe608060405234801561001057600080fd5b506004361061014d5760003560e01c80638f84aa09116100c3578063b0580ce91161007c578063b0580ce9146103d8578063b77bf600146103f4578063cbd249f414610412578063d80a93d614610442578063dc8452cd14610472578063f84fd9ef146104905761014d565b80638f84aa09146102da5780639ace38c2146102f85780639b3641621461032c5780639ff512fa14610348578063aa37dca214610378578063ae8df6a6146103a85761014d565b8063277514e011610115578063277514e0146102085780632f094632146102245780633d591bc2146102425780635d9ec2101461025e57806362a945d11461027a5780637a325e56146102aa5761014d565b80630385b5811461015257806304971367146101825780630f8cdd881461019e57806310266c1c146101ba5780631880432a146101ea575b600080fd5b61016c600480360381019061016791906121be565b6104c0565b6040516101799190612862565b60405180910390f35b61019c600480360381019061019791906122da565b6104e0565b005b6101b860048036038101906101b391906121be565b6106b5565b005b6101d460048036038101906101cf91906122da565b610804565b6040516101e191906129d4565b60405180910390f35b6101f261081c565b6040516101ff91906129d4565b60405180910390f35b610222600480360381019061021d919061224c565b610821565b005b61022c610d86565b604051610239919061287d565b60405180910390f35b61025c6004803603810190610257919061224c565b610dac565b005b610278600480360381019061027391906122da565b611208565b005b610294600480360381019061028f9190612223565b611330565b6040516102a191906129d4565b60405180910390f35b6102c460048036038101906102bf9190612303565b6113fe565b6040516102d191906129d4565b60405180910390f35b6102e2611419565b6040516102ef9190612778565b60405180910390f35b610312600480360381019061030d91906122da565b61143f565b6040516103239594939291906129ef565b60405180910390f35b610346600480360381019061034191906121be565b6114bc565b005b610362600480360381019061035d91906122da565b611749565b60405161036f91906129b8565b60405180910390f35b610392600480360381019061038d91906122da565b6118b1565b60405161039f91906129d4565b60405180910390f35b6103c260048036038101906103bd91906122da565b6118c9565b6040516103cf9190612862565b60405180910390f35b6103f260048036038101906103ed91906122da565b6118f6565b005b6103fc6119d2565b60405161040991906129d4565b60405180910390f35b61042c60048036038101906104279190612303565b6119d8565b60405161043991906129d4565b60405180910390f35b61045c600480360381019061045791906122da565b6119f3565b6040516104699190612778565b60405180910390f35b61047a611a2f565b60405161048791906129d4565b60405180910390f35b6104aa60048036038101906104a591906121e7565b611a35565b6040516104b79190612862565b60405180910390f35b60066020528060005260406000206000915054906101000a900460ff1681565b33600660008273ffffffffffffffffffffffffffffffffffffffff1673ffffffffffffffffffffffffffffffffffffffff16815260200190815260200160002060009054906101000a900460ff1661053757600080fd5b8160008111801561054a57506009548111155b61055357600080fd5b3383600460008373ffffffffffffffffffffffffffffffffffffffff1673ffffffffffffffffffffffffffffffffffffffff168152602001908152602001600020600082815260200190815260200160002060009054906101000a900460ff16156105bd57600080fd5b6001600460003373ffffffffffffffffffffffffffffffffffffffff1673ffffffffffffffffffffffffffffffffffffffff168152602001908152602001600020600087815260200190815260200160002060006101000a81548160ff0219169083151502179055507f24e5bfa739656f6dd56210dbd8ccbfdabcae46f85752164562c69dffd61a320b3386604051610657929190612810565b60405180910390a161066885611a64565b156106ae5761067685611b72565b7f7d4061e68fab364906497bb959d95ad3f052a3978fed6ce9942a2b8f737aae54856040516106a591906129d4565b60405180910390a15b5050505050565b600c60009054906101000a900473ffffffffffffffffffffffffffffffffffffffff1673ffffffffffffffffffffffffffffffffffffffff163373ffffffffffffffffffffffffffffffffffffffff161461070f57600080fd5b6001600660008373ffffffffffffffffffffffffffffffffffffffff1673ffffffffffffffffffffffffffffffffffffffff16815260200190815260200160002060006101000a81548160ff0219169083151502179055506008819080600181540180825580915050600190039060005260206000200160009091909190916101000a81548173ffffffffffffffffffffffffffffffffffffffff021916908373ffffffffffffffffffffffffffffffffffffffff1602179055507fa0aa61ae85a95577b5775982299a5bfc418ef90f41d6bb03a7f2d5a6f7738eaf816040516107f99190612778565b60405180910390a150565b600d816003811061081157fe5b016000915090505481565b603281565b3373ffffffffffffffffffffffffffffffffffffffff166003600083815260200190815260200160002060010160009054906101000a900473ffffffffffffffffffffffffffffffffffffffff1673ffffffffffffffffffffffffffffffffffffffff16146108c5576040517f08c379a00000000000000000000000000000000000000000000000000000000081526004016108bc906128f8565b60405180910390fd5b6003600082815260200190815260200160002060080160009054906101000a900460ff16610928576040517f08c379a000000000000000000000000000000000000000000000000000000000815260040161091f90612938565b60405180910390fd5b60005b600360ff168160ff1610156109c257828160ff166003811061094957fe5b6020020135600360008481526020019081526020016000206005018260ff166003811061097257fe5b015410156109b5576040517f08c379a00000000000000000000000000000000000000000000000000000000081526004016109ac90612978565b60405180910390fd5b808060010191505061092b565b506000600b60009054906101000a900473ffffffffffffffffffffffffffffffffffffffff1673ffffffffffffffffffffffffffffffffffffffff1663eacd7afc846003600086815260200190815260200160002060010160009054906101000a900473ffffffffffffffffffffffffffffffffffffffff166040518363ffffffff1660e01b8152600401610a58929190612839565b602060405180830381600087803b158015610a7257600080fd5b505af1158015610a86573d6000803e3d6000fd5b505050506040513d601f19601f82011682018060405250810190610aaa91906122b1565b905080610aec576040517f08c379a0000000000000000000000000000000000000000000000000000000008152600401610ae3906128d8565b60405180910390fd5b6000805b600360ff168160ff161015610bd8576000858260ff1660038110610b1057fe5b60200201351115610b9457848160ff1660038110610b2a57fe5b6020020135600d8260ff1660038110610b3f57fe5b0160008282540192505081905550848160ff1660038110610b5c57fe5b6020020135600360008681526020019081526020016000206005018260ff1660038110610b8557fe5b01600082825403925050819055505b6000600360008681526020019081526020016000206005018260ff1660038110610bba57fe5b01541415610bcb5781806001019250505b8080600101915050610af0565b507f3fe87a796bb63522ae7b9008d51ff617ee24dbde9a0fac8ed85e5a29e781755633856003600087815260200190815260200160002060050186604051610c239493929190612793565b60405180910390a160038160ff161415610d805760016003600085815260200190815260200160002060080160016101000a81548160ff021916908315150217905550604051806060016040528084815260200160001515815260200160036000868152602001908152602001600020600201600380602002604051908101604052809291908260038015610ccd576020028201915b815481526020019060010190808311610cb9575b5050505050815250600560008581526020019081526020016000206000820151816000015560208201518160010160006101000a81548160ff021916908315150217905550604082015181600201906003610d29929190611fa2565b509050507fc3fd3a068edf38e1a0ccd0f7e52aea669eb60f90dbb25026798e25db56f3a6f333856003600087815260200190815260200160002060020186604051610d779493929190612793565b60405180910390a15b50505050565b600b60009054906101000a900473ffffffffffffffffffffffffffffffffffffffff1681565b600954811115610df1576040517f08c379a0000000000000000000000000000000000000000000000000000000008152600401610de890612998565b60405180910390fd5b3373ffffffffffffffffffffffffffffffffffffffff166003600083815260200190815260200160002060010160009054906101000a900473ffffffffffffffffffffffffffffffffffffffff1673ffffffffffffffffffffffffffffffffffffffff1614610e95576040517f08c379a0000000000000000000000000000000000000000000000000000000008152600401610e8c906128f8565b60405180910390fd5b6005600082815260200190815260200160002060010160009054906101000a900460ff1615610ef9576040517f08c379a0000000000000000000000000000000000000000000000000000000008152600401610ef090612958565b60405180910390fd5b6000600b60009054906101000a900473ffffffffffffffffffffffffffffffffffffffff1673ffffffffffffffffffffffffffffffffffffffff166380001288846003600086815260200190815260200160002060010160009054906101000a900473ffffffffffffffffffffffffffffffffffffffff166040518363ffffffff1660e01b8152600401610f8e929190612839565b602060405180830381600087803b158015610fa857600080fd5b505af1158015610fbc573d6000803e3d6000fd5b505050506040513d601f19601f82011682018060405250810190610fe091906122b1565b905080611022576040517f08c379a0000000000000000000000000000000000000000000000000000000008152600401611019906128b8565b60405180910390fd5b6000805b600360ff1681101561112457600085826003811061104057fe5b6020020135146111175784816003811061105657fe5b6020020135600d826003811061106857fe5b016000828254039250508190555084816003811061108257fe5b60200201356010826003811061109457fe5b01600082825403925050819055508481600381106110ae57fe5b60200201356005600086815260200190815260200160002060020182600381106110d457fe5b0160008282540392505081905550600060056000868152602001908152602001600020600201826003811061110557fe5b015414156111165781806001019250505b5b8080600101915050611026565b507ffe337a99fc07b4422a06a40fb4728125523f3c0977d012d21e3eb9f89edfd3603385600560008781526020019081526020016000206002018660405161116f9493929190612793565b60405180910390a160038114156112025760016005600085815260200190815260200160002060010160006101000a81548160ff0219169083151502179055507f57d01a01ec1287fb00888c92856cb0f45352809b7a5350fdd677ce76f7826299338560056000878152602001908152602001600020600201866040516111f99493929190612793565b60405180910390a15b50505050565b3373ffffffffffffffffffffffffffffffffffffffff166003600083815260200190815260200160002060010160009054906101000a900473ffffffffffffffffffffffffffffffffffffffff1673ffffffffffffffffffffffffffffffffffffffff161461127657600080fd5b60016003600083815260200190815260200160002060010160146101000a81548160ff0219169083151502179055507f24e5bfa739656f6dd56210dbd8ccbfdabcae46f85752164562c69dffd61a320b33826040516112d6929190612810565b60405180910390a16112e781611a64565b1561132d576112f581611b72565b7f7d4061e68fab364906497bb959d95ad3f052a3978fed6ce9942a2b8f737aae548160405161132491906129d4565b60405180910390a15b50565b6000600a54600880549050101561137c576040517f08c379a000000000000000000000000000000000000000000000000000000000815260040161137390612918565b60405180910390fd5b6113bc826003806020026040519081016040528092919082600360200280828437600081840152601f19601f820116905080830192505050505050611e37565b7f6825b4653b0626e0268f9c124dce0ea5cc6f826ccb2cf314459bd1c62cf011f733836009546040516113f1939291906127d9565b60405180910390a1919050565b6000600d8260ff166003811061141057fe5b01549050919050565b600c60009054906101000a900473ffffffffffffffffffffffffffffffffffffffff1681565b60036020528060005260406000206000915090508060000154908060010160009054906101000a900473ffffffffffffffffffffffffffffffffffffffff16908060010160149054906101000a900460ff16908060080160009054906101000a900460ff16908060080160019054906101000a900460ff16905085565b600c60009054906101000a900473ffffffffffffffffffffffffffffffffffffffff1673ffffffffffffffffffffffffffffffffffffffff163373ffffffffffffffffffffffffffffffffffffffff161461151657600080fd5b80600660008273ffffffffffffffffffffffffffffffffffffffff1673ffffffffffffffffffffffffffffffffffffffff16815260200190815260200160002060009054906101000a900460ff1661156d57600080fd5b6000600660008473ffffffffffffffffffffffffffffffffffffffff1673ffffffffffffffffffffffffffffffffffffffff16815260200190815260200160002060006101000a81548160ff02191690831515021790555060005b6001600880549050038110156116ea578273ffffffffffffffffffffffffffffffffffffffff16600882815481106115fc57fe5b9060005260206000200160009054906101000a900473ffffffffffffffffffffffffffffffffffffffff1673ffffffffffffffffffffffffffffffffffffffff1614156116dd5760086001600880549050038154811061165857fe5b9060005260206000200160009054906101000a900473ffffffffffffffffffffffffffffffffffffffff166008828154811061169057fe5b9060005260206000200160006101000a81548173ffffffffffffffffffffffffffffffffffffffff021916908373ffffffffffffffffffffffffffffffffffffffff1602179055506116ea565b80806001019150506115c8565b50600880549050600a54111561170e57600a60008154809291906001900391905055505b7f95cd0920c0aa5e5da987ebe563a4f26fc5143a4c65e89cc8b1b3a23e2d7fa5ff8260405161173d9190612778565b60405180910390a15050565b611751611fe2565b600360008381526020019081526020016000206040518060e0016040529081600082015481526020016001820160009054906101000a900473ffffffffffffffffffffffffffffffffffffffff1673ffffffffffffffffffffffffffffffffffffffff1673ffffffffffffffffffffffffffffffffffffffff1681526020016001820160149054906101000a900460ff1615151515815260200160028201600380602002604051908101604052809291908260038015611826576020028201915b815481526020019060010190808311611812575b505050505081526020016005820160038060200260405190810160405280929190826003801561186b576020028201915b815481526020019060010190808311611857575b505050505081526020016008820160009054906101000a900460ff161515151581526020016008820160019054906101000a900460ff1615151515815250509050919050565b601081600381106118be57fe5b016000915090505481565b60006003600083815260200190815260200160002060080160009054906101000a900460ff169050919050565b600c60009054906101000a900473ffffffffffffffffffffffffffffffffffffffff1673ffffffffffffffffffffffffffffffffffffffff163373ffffffffffffffffffffffffffffffffffffffff161461195057600080fd5b60088054905081603282111580156119685750818111155b8015611975575060008114155b8015611982575060008214155b61198b57600080fd5b82600a819055507f3eeb9a927605685a0c44838616e4c196655b47d4019656c814bbf5743d1e25cc33600a546040516119c5929190612810565b60405180910390a1505050565b60095481565b600060108260ff16600381106119ea57fe5b01549050919050565b60088181548110611a0057fe5b906000526020600020016000915054906101000a900473ffffffffffffffffffffffffffffffffffffffff1681565b600a5481565b60046020528160005260406000206020528060005260406000206000915091509054906101000a900460ff1681565b6000806000905060005b600880549050811015611b6a576004600060088381548110611a8c57fe5b9060005260206000200160009054906101000a900473ffffffffffffffffffffffffffffffffffffffff1673ffffffffffffffffffffffffffffffffffffffff1673ffffffffffffffffffffffffffffffffffffffff168152602001908152602001600020600085815260200190815260200160002060009054906101000a900460ff1615611b1c576001820191505b600a5482148015611b4d57506003600085815260200190815260200160002060010160149054906101000a900460ff165b15611b5d57600192505050611b6d565b8080600101915050611a6e565b50505b919050565b611b7a612047565b600b60009054906101000a900473ffffffffffffffffffffffffffffffffffffffff1673ffffffffffffffffffffffffffffffffffffffff166311e871886040518163ffffffff1660e01b815260040160606040518083038186803b158015611be257600080fd5b505afa158015611bf6573d6000803e3d6000fd5b505050506040513d601f19601f82011682018060405250810190611c1a9190612288565b905060005b600360ff168160ff161015611cc857818160ff1660038110611c3d57fe5b6020020151600360008581526020019081526020016000206002018260ff1660038110611c6657fe5b015460108360ff1660038110611c7857fe5b01540110611cbb576040517f08c379a0000000000000000000000000000000000000000000000000000000008152600401611cb290612898565b60405180910390fd5b8080600101915050611c1f565b5060016003600084815260200190815260200160002060080160006101000a81548160ff0219169083151502179055506003600083815260200190815260200160002060020160036000848152602001908152602001600020600501906003611d32929190612069565b5060005b600360ff168160ff161015611d9657600360008481526020019081526020016000206002018160ff1660038110611d6957fe5b015460108260ff1660038110611d7b57fe5b01600082825401925050819055508080600101915050611d36565b50600760006003600085815260200190815260200160002060010160009054906101000a900473ffffffffffffffffffffffffffffffffffffffff1673ffffffffffffffffffffffffffffffffffffffff1673ffffffffffffffffffffffffffffffffffffffff1681526020019081526020016000208290806001815401808255809150506001900390600052602060002001600090919091909150555050565b611e3f612047565b6009600081548092919060010191905055506040518060e0016040528060095481526020013373ffffffffffffffffffffffffffffffffffffffff168152602001600015158152602001838152602001828152602001600015158152602001600015158152506003600060095481526020019081526020016000206000820151816000015560208201518160010160006101000a81548173ffffffffffffffffffffffffffffffffffffffff021916908373ffffffffffffffffffffffffffffffffffffffff16021790555060408201518160010160146101000a81548160ff021916908315150217905550606082015181600201906003611f42929190611fa2565b50608082015181600501906003611f5a929190611fa2565b5060a08201518160080160006101000a81548160ff02191690831515021790555060c08201518160080160016101000a81548160ff0219169083151502179055509050505050565b8260038101928215611fd1579160200282015b82811115611fd0578251825591602001919060010190611fb5565b5b509050611fde91906120a6565b5090565b6040518060e0016040528060008152602001600073ffffffffffffffffffffffffffffffffffffffff168152602001600015158152602001612022612047565b815260200161202f612047565b81526020016000151581526020016000151581525090565b6040518060600160405280600390602082028036833780820191505090505090565b8260038101928215612095579182015b82811115612094578254825591600101919060010190612079565b5b5090506120a291906120a6565b5090565b5b808211156120bf5760008160009055506001016120a7565b5090565b6000813590506120d281612bfe565b92915050565b6000819050826020600302820111156120f057600080fd5b92915050565b600082601f83011261210757600080fd5b600361211a61211582612a6f565b612a42565b9150818385602084028201111561213057600080fd5b60005b8381101561216057816121468882612194565b845260208401935060208301925050600181019050612133565b5050505092915050565b60008151905061217981612c15565b92915050565b60008135905061218e81612c2c565b92915050565b6000815190506121a381612c2c565b92915050565b6000813590506121b881612c43565b92915050565b6000602082840312156121d057600080fd5b60006121de848285016120c3565b91505092915050565b600080604083850312156121fa57600080fd5b6000612208858286016120c3565b92505060206122198582860161217f565b9150509250929050565b60006060828403121561223557600080fd5b6000612243848285016120d8565b91505092915050565b6000806080838503121561225f57600080fd5b600061226d858286016120d8565b925050606061227e8582860161217f565b9150509250929050565b60006060828403121561229a57600080fd5b60006122a8848285016120f6565b91505092915050565b6000602082840312156122c357600080fd5b60006122d18482850161216a565b91505092915050565b6000602082840312156122ec57600080fd5b60006122fa8482850161217f565b91505092915050565b60006020828403121561231557600080fd5b6000612323848285016121a9565b91505092915050565b6000612338838361275a565b60208301905092915050565b61234d81612b5b565b82525050565b61235c81612b06565b82525050565b61236b81612b06565b82525050565b61237d60608383612bb5565b5050565b61238a81612aa5565b6123948184612ad5565b925061239f82612a91565b8060005b838110156123d05781516123b7878261232c565b96506123c283612abb565b9250506001810190506123a3565b505050505050565b6123e181612ab0565b6123eb8184612ae0565b92506123f682612a9b565b8060005b8381101561242e5761240b82612bde565b612415878261232c565b965061242083612ac8565b9250506001810190506123fa565b505050505050565b61243f81612b18565b82525050565b61244e81612b18565b82525050565b61245d81612b6d565b82525050565b6000612470602083612aeb565b91507f43616e206e6f7420617070726f76652074686174206d75636820616d6f756e746000830152602082019050919050565b60006124b0601b83612aeb565b91507f4c6f616e205061796d656e74206e6f742073756363657366756c6c00000000006000830152602082019050919050565b60006124f0601c83612aeb565b91507f4c6f616e205769746864726177206e6f742073756363657366756c6c000000006000830152602082019050919050565b6000612530601183612aeb565b91507f636f6d70616e79206e6f742d65786973740000000000000000000000000000006000830152602082019050919050565b6000612570601483612aeb565b91507f696e73756666696369656e74207369676e6565730000000000000000000000006000830152602082019050919050565b60006125b0601583612aeb565b91507f6e6f7420617070726f76656420666f72206c6f616e00000000000000000000006000830152602082019050919050565b60006125f0600e83612aeb565b91507f616c7265616479207265706169640000000000000000000000000000000000006000830152602082019050919050565b6000612630602883612aeb565b91507f616d6f756e7420726571756573746564206578636565647320616d6f756e742060008301527f617070726f7665640000000000000000000000000000000000000000000000006020830152604082019050919050565b6000612696600f83612aeb565b91507f696e76616c6964206c6f616e20696400000000000000000000000000000000006000830152602082019050919050565b610160820160008201516126e0600085018261275a565b5060208201516126f36020850182612353565b5060408201516127066040850182612436565b5060608201516127196060850182612381565b50608082015161272c60c0850182612381565b5060a0820151612740610120850182612436565b5060c0820151612754610140850182612436565b50505050565b61276381612b44565b82525050565b61277281612b44565b82525050565b600060208201905061278d6000830184612362565b92915050565b6000610100820190506127a96000830187612344565b6127b66020830186612371565b6127c360808301856123d8565b6127d060e0830184612769565b95945050505050565b600060a0820190506127ee6000830186612344565b6127fb6020830185612371565b6128086080830184612769565b949350505050565b60006040820190506128256000830185612344565b6128326020830184612769565b9392505050565b600060808201905061284e6000830185612371565b61285b6060830184612362565b9392505050565b60006020820190506128776000830184612445565b92915050565b60006020820190506128926000830184612454565b92915050565b600060208201905081810360008301526128b181612463565b9050919050565b600060208201905081810360008301526128d1816124a3565b9050919050565b600060208201905081810360008301526128f1816124e3565b9050919050565b6000602082019050818103600083015261291181612523565b9050919050565b6000602082019050818103600083015261293181612563565b9050919050565b60006020820190508181036000830152612951816125a3565b9050919050565b60006020820190508181036000830152612971816125e3565b9050919050565b6000602082019050818103600083015261299181612623565b9050919050565b600060208201905081810360008301526129b181612689565b9050919050565b6000610160820190506129ce60008301846126c9565b92915050565b60006020820190506129e96000830184612769565b92915050565b600060a082019050612a046000830188612769565b612a116020830187612362565b612a1e6040830186612445565b612a2b6060830185612445565b612a386080830184612445565b9695505050505050565b6000604051905081810181811067ffffffffffffffff82111715612a6557600080fd5b8060405250919050565b600067ffffffffffffffff821115612a8657600080fd5b602082029050919050565b6000819050919050565b6000819050919050565b600060039050919050565b600060039050919050565b6000602082019050919050565b6000600182019050919050565b600081905092915050565b600081905092915050565b600082825260208201905092915050565b6000819050919050565b6000612b1182612b24565b9050919050565b60008115159050919050565b600073ffffffffffffffffffffffffffffffffffffffff82169050919050565b6000819050919050565b600060ff82169050919050565b6000612b6682612b91565b9050919050565b6000612b7882612b7f565b9050919050565b6000612b8a82612b24565b9050919050565b6000612b9c82612ba3565b9050919050565b6000612bae82612b24565b9050919050565b82818337600083830152505050565b6000612bd7612bd283612bf1565b612afc565b9050919050565b6000612bea8254612bc4565b9050919050565b60008160001c9050919050565b612c0781612b06565b8114612c1257600080fd5b50565b612c1e81612b18565b8114612c2957600080fd5b50565b612c3581612b44565b8114612c4057600080fd5b50565b612c4c81612b4e565b8114612c5757600080fd5b5056fea26469706673582212206a3706e6af1064f59b4391bc315b91148da30b6f175fa32f2b0cefc3300c3cfd64736f6c634300060c0033",
  "immutableReferences": {},
  "source": "// SPDX-License-Identifier: UNLICENSED\r\npragma solidity ^0.6.0;\r\npragma experimental ABIEncoderV2;\r\n\r\nimport './Interfaces/Erc20Interface.sol';\r\nimport './Interfaces/RoyaleInterface.sol';\r\n\r\n\r\ncontract rLoan {\r\n    uint8 constant N_COINS = 3;\r\n    \r\n    Erc20[N_COINS] tokens;\r\n\r\n    uint constant public MAX_SIGNEE_COUNT = 50;\r\n    \r\n    mapping(uint256 => Transaction) public transactions;\r\n    mapping(address => mapping (uint256 => bool)) public confirmations;\r\n    mapping(uint256 => Repayment) gamingCompanyRepayment;\r\n    mapping(address => bool) public isSignee;\r\n  \r\n    mapping(address => uint[]) takenLoan;\r\n    address[] public signees;\r\n    uint256 public transactionCount = 0;\r\n   \r\n    uint256 public required;\r\n\r\n    RoyaleInterface public royale;\r\n\r\n    address public ownerAddress;\r\n\r\n    uint256[N_COINS] public totalLoanTaken;\r\n    uint256[N_COINS] public totalApprovedLoan;\r\n    \r\n    struct Transaction {\r\n        uint256 transactionId;\r\n        address iGamingCompany;\r\n        bool isGamingCompanySigned;\r\n        uint256[N_COINS] tokenAmounts;\r\n        uint256[N_COINS] remAmt;\r\n        bool approved;\r\n        bool executed;\r\n    }\r\n\r\n    struct Repayment {\r\n        uint256 transactionID;\r\n        bool isRepaymentDone;\r\n        uint256[N_COINS] remainingTokenAmounts;\r\n    }\r\n\r\n\r\n    /* Events */\r\n\r\n    event loanRequested(\r\n        address by,\r\n        uint[N_COINS] amounts,\r\n        uint loanID\r\n    );\r\n\r\n    event signed(\r\n        address signee,\r\n        uint loanID\r\n    );\r\n\r\n    event approved(\r\n        uint loanID\r\n    );\r\n\r\n    event addedRequiredSignee(\r\n        address adder,\r\n        uint numberOfSignees\r\n    );\r\n\r\n    event signeeAdded(\r\n        address signee\r\n    );\r\n\r\n    event signeeRemoved(\r\n        address signee\r\n    );\r\n\r\n    event loanWithdrawn(\r\n        address by,\r\n        uint[N_COINS] requestedAmount,\r\n        uint[N_COINS] remainingAmount,\r\n        uint loanID\r\n    );\r\n\r\n    event loanFulfilled(\r\n        address by,\r\n        uint[N_COINS] requestedAmount,\r\n        uint[N_COINS] remainingAmount,\r\n        uint loanID\r\n    );\r\n\r\n    event loanRepayed(\r\n        address by,\r\n        uint[N_COINS] repayedAmount,\r\n        uint[N_COINS] amountRemaining,\r\n        uint loanID\r\n    );\r\n\r\n    event wholeLoanRepayed(\r\n        address by,\r\n        uint[N_COINS] repayedAmount,\r\n        uint[N_COINS] amountRemaining,\r\n        uint loanID\r\n    );\r\n\r\n    /* Modifiers */\r\n\r\n    modifier onlyOwner {\r\n        require(msg.sender == ownerAddress);\r\n        _;\r\n    }\r\n\r\n    modifier signeeExists(address signee) {\r\n        require(isSignee[signee]);\r\n        _;\r\n    }\r\n\r\n    modifier transactionExists(uint _loanID) {\r\n        require(_loanID > 0 && _loanID <= transactionCount);\r\n        _;\r\n    }\r\n\r\n    modifier notConfirmed(address addr,uint _loanID) {\r\n        require(!confirmations[addr][_loanID]);\r\n        _;\r\n    }\r\n\r\n    modifier validRequirement(uint signeeCount, uint _required) {\r\n        require(signeeCount <= MAX_SIGNEE_COUNT\r\n            && _required <= signeeCount\r\n            && _required != 0\r\n            && signeeCount != 0);\r\n        _;\r\n    }\r\n\r\n\r\n    constructor(address[N_COINS] memory _tokens , address _royale) public {\r\n        ownerAddress = msg.sender;\r\n\r\n        // Set Tokens supported by Pool\r\n        for(uint8 i=0; i<N_COINS; i++) {\r\n            tokens[i] = Erc20(_tokens[i]);\r\n            royale = RoyaleInterface(_royale);\r\n        }\r\n    }\r\n\r\n    /* Internal Functions */\r\n\r\n    function _addTransaction(\r\n       uint256[N_COINS] memory amounts\r\n    ) internal {\r\n        uint256[N_COINS] memory zero;\r\n\r\n        transactionCount++;\r\n        transactions[transactionCount] = Transaction({\r\n            transactionId: transactionCount,\r\n            iGamingCompany: msg.sender,\r\n            tokenAmounts: amounts,\r\n            remAmt: zero,\r\n            isGamingCompanySigned: false,\r\n            approved: false,\r\n            executed: false\r\n        });\r\n        \r\n    }\r\n\r\n    function _approveLoan(uint _loanID) internal {\r\n        uint256[N_COINS] memory am=royale.getCurrentPoolBalance();\r\n        for(uint8 i=0;i<N_COINS;i++) {\r\n            require(totalApprovedLoan[i]+transactions[_loanID].tokenAmounts[i]<am[i],\"Can not approve that much amount\");\r\n        }\r\n\r\n        transactions[_loanID].approved = true;\r\n        transactions[_loanID].remAmt = transactions[_loanID].tokenAmounts;\r\n\r\n        for(uint8 i=0;i<N_COINS;i++){\r\n            totalApprovedLoan[i] +=transactions[_loanID].tokenAmounts[i];\r\n        }\r\n        takenLoan[transactions[_loanID].iGamingCompany].push(_loanID);\r\n    }\r\n\r\n    function _isConfirmed(\r\n        uint _loanID\r\n    ) internal view returns (bool) {\r\n        uint count = 0;\r\n        for (uint i=0; i<signees.length; i++) {\r\n            if (confirmations[signees[i]][_loanID])\r\n                count += 1;\r\n            if (count == required && transactions[_loanID].isGamingCompanySigned)\r\n                return true;\r\n        }\r\n    }\r\n\r\n  \r\n    /* USER FUNCTIONS (exposed to frontend) */\r\n\r\n    // Gaming platforms withdraw using this\r\n    function requestLoan(\r\n        uint256[N_COINS] calldata amounts\r\n    ) external returns(uint256) {\r\n       require(signees.length >= required, \"insufficient signees\");\r\n       _addTransaction(amounts);\r\n\r\n       emit loanRequested(msg.sender, amounts, transactionCount);\r\n    }\r\n    \r\n    \r\n    // Gaming Platforms signs using this\r\n    function signTransaction(uint _loanID) public {\r\n        require(transactions[_loanID].iGamingCompany == msg.sender);\r\n        \r\n        transactions[_loanID].isGamingCompanySigned = true;\r\n\r\n        emit signed(msg.sender, _loanID);\r\n\r\n        if(_isConfirmed(_loanID)) {\r\n           _approveLoan(_loanID);\r\n           emit approved(_loanID);\r\n        }\r\n    }\r\n    \r\n    // Signee signs using this\r\n    function confirmLoan(uint _loanID) public\r\n        signeeExists(msg.sender)\r\n        transactionExists(_loanID)\r\n        notConfirmed( msg.sender,_loanID) \r\n    {\r\n        confirmations[msg.sender][_loanID] = true;\r\n        \r\n        emit signed(msg.sender, _loanID);\r\n\r\n        if(_isConfirmed(_loanID)) {\r\n           _approveLoan(_loanID);\r\n           emit approved(_loanID);\r\n        }\r\n    }\r\n\r\n    function getTransactionDetail(\r\n        uint _loanID\r\n    ) public view returns(Transaction memory){\r\n        return transactions[_loanID];\r\n    }\r\n\r\n    function checkLoanApproved(uint _loanID) external view returns(bool) {\r\n        return transactions[_loanID].approved;\r\n    }\r\n\r\n    /* Admin Function */\r\n    \r\n    function setRequiredSignee(\r\n        uint _required\r\n    ) public onlyOwner validRequirement(signees.length, _required) {\r\n        required = _required;\r\n\r\n        emit addedRequiredSignee(msg.sender, required);\r\n    }\r\n\r\n    function addSignee(address signee) public onlyOwner {\r\n        isSignee[signee] = true;\r\n        signees.push(signee);\r\n\r\n        emit signeeAdded(signee);\r\n    }\r\n    \r\n    function removeSignee(address signee) public onlyOwner signeeExists(signee) {\r\n        isSignee[signee] = false;\r\n        for (uint i=0; i<signees.length - 1; i++) {\r\n            if (signees[i] == signee) {\r\n                signees[i] = signees[signees.length - 1];\r\n                break;\r\n            }\r\n        }\r\n        \r\n        if (required > signees.length) {\r\n            required--;\r\n        }\r\n\r\n        emit signeeRemoved(signee);\r\n    } \r\n\r\n    function withdrawLoan( \r\n        uint256[N_COINS] calldata amounts,\r\n        uint _loanID\r\n    ) external {\r\n\r\n        require(transactions[_loanID].iGamingCompany == msg.sender, \"company not-exist\");\r\n        require(transactions[_loanID].approved, \"not approved for loan\");\r\n        \r\n        for(uint8 i=0; i<N_COINS; i++) {\r\n            require(\r\n                transactions[_loanID].remAmt[i] >= amounts[i], \r\n                \"amount requested exceeds amount approved\"\r\n            );\r\n        }\r\n        bool b = royale._loanWithdraw(amounts,transactions[_loanID].iGamingCompany);\r\n        require(b, \"Loan Withdraw not succesfull\");\r\n\r\n        uint8 check = 0;\r\n        for(uint8 i=0; i<N_COINS; i++) {\r\n            if(amounts[i] > 0) {\r\n                totalLoanTaken[i] += amounts[i];\r\n                transactions[_loanID].remAmt[i] -= amounts[i];\r\n            }\r\n            if(transactions[_loanID].remAmt[i] == 0) {\r\n                check++;\r\n            }\r\n        }\r\n\r\n        emit loanWithdrawn(msg.sender, amounts, transactions[_loanID].remAmt, _loanID);\r\n\r\n        if(check == 3) {\r\n            // Loan fulfilled, company used all its loan\r\n            transactions[_loanID].executed = true;\r\n            gamingCompanyRepayment[_loanID] = Repayment({\r\n                  transactionID: _loanID,\r\n                  isRepaymentDone: false,\r\n                  remainingTokenAmounts: transactions[_loanID].tokenAmounts\r\n            });\r\n\r\n            emit loanFulfilled(msg.sender, amounts, transactions[_loanID].tokenAmounts, _loanID);\r\n        }\r\n    } \r\n    \r\n    \r\n    function repayLoan(uint256[N_COINS] calldata _amounts, uint _loanId) external {\r\n        require(_loanId <= transactionCount, \"invalid loan id\");\r\n        require(transactions[_loanId].iGamingCompany == msg.sender, \"company not-exist\");\r\n        require(!gamingCompanyRepayment[_loanId].isRepaymentDone, \"already repaid\");\r\n        \r\n\r\n        bool b = royale._loanRepayment(_amounts,transactions[_loanId].iGamingCompany);\r\n        require(b,\"Loan Payment not succesfull\");\r\n        uint counter=0;\r\n        for(uint i=0;i<N_COINS;i++) {\r\n            if(_amounts[i]!=0) {\r\n                totalLoanTaken[i] -=_amounts[i];\r\n                totalApprovedLoan[i]-=_amounts[i];\r\n                gamingCompanyRepayment[_loanId].remainingTokenAmounts[i] -= _amounts[i];\r\n                if(gamingCompanyRepayment[_loanId].remainingTokenAmounts[i] == 0) {\r\n                    counter++;\r\n                }\r\n            }\r\n        }\r\n\r\n        emit loanRepayed(\r\n            msg.sender,\r\n            _amounts, \r\n            gamingCompanyRepayment[_loanId].remainingTokenAmounts,\r\n            _loanId\r\n        );\r\n\r\n            if(counter==3){\r\n                gamingCompanyRepayment[_loanId].isRepaymentDone=true;\r\n\r\n                emit wholeLoanRepayed(\r\n                    msg.sender,\r\n                    _amounts, \r\n                    gamingCompanyRepayment[_loanId].remainingTokenAmounts,\r\n                    _loanId\r\n                );\r\n            }       \r\n    }\r\n    \r\n   \r\n\r\n   /* functions for UI */\r\n\r\n    function getTotalTakenLoan(uint8 _number)public view returns(uint){\r\n        return totalLoanTaken[_number];\r\n    }\r\n\r\n    function getTotalApprovedLoan(uint8 _number)public view returns(uint){\r\n        return totalApprovedLoan[_number];\r\n    }\r\n}",
  "sourcePath": "C:/Users/vishn/OneDrive/Desktop/TempRoyakle/rlp/contracts/rLoan.sol",
  "compiler": {
    "name": "solc",
    "version": "0.6.12+commit.27d51765.Emscripten.clang"
  },
  "schemaVersion": "3.3.2",
  "updatedAt": "2020-12-17T06:05:04.688Z",
  "devdoc": {
    "kind": "dev",
    "methods": {},
    "version": 1
  },
  "userdoc": {
    "kind": "user",
    "methods": {},
    "version": 1
  }
}