{
  "contractName": "rLoan",
  "abi": [
    {
      "inputs": [
        {
          "internalType": "address[3]",
          "name": "_tokens",
          "type": "address[3]"
        },
        {
          "internalType": "address",
          "name": "_royale",
          "type": "address"
        }
      ],
      "stateMutability": "nonpayable",
      "type": "constructor"
    },
    {
      "anonymous": false,
      "inputs": [
        {
          "indexed": false,
          "internalType": "address",
          "name": "adder",
          "type": "address"
        },
        {
          "indexed": false,
          "internalType": "uint256",
          "name": "numberOfSignees",
          "type": "uint256"
        }
      ],
      "name": "addedRequiredSignee",
      "type": "event"
    },
    {
      "anonymous": false,
      "inputs": [
        {
          "indexed": false,
          "internalType": "uint256",
          "name": "loanID",
          "type": "uint256"
        }
      ],
      "name": "approved",
      "type": "event"
    },
    {
      "anonymous": false,
      "inputs": [
        {
          "indexed": false,
          "internalType": "address",
          "name": "by",
          "type": "address"
        },
        {
          "indexed": false,
          "internalType": "uint256[3]",
          "name": "requestedAmount",
          "type": "uint256[3]"
        },
        {
          "indexed": false,
          "internalType": "uint256[3]",
          "name": "remainingAmount",
          "type": "uint256[3]"
        },
        {
          "indexed": false,
          "internalType": "uint256",
          "name": "loanID",
          "type": "uint256"
        }
      ],
      "name": "loanFulfilled",
      "type": "event"
    },
    {
      "anonymous": false,
      "inputs": [
        {
          "indexed": false,
          "internalType": "address",
          "name": "by",
          "type": "address"
        },
        {
          "indexed": false,
          "internalType": "uint256[3]",
          "name": "repayedAmount",
          "type": "uint256[3]"
        },
        {
          "indexed": false,
          "internalType": "uint256[3]",
          "name": "amountRemaining",
          "type": "uint256[3]"
        },
        {
          "indexed": false,
          "internalType": "uint256",
          "name": "loanID",
          "type": "uint256"
        }
      ],
      "name": "loanRepayed",
      "type": "event"
    },
    {
      "anonymous": false,
      "inputs": [
        {
          "indexed": false,
          "internalType": "address",
          "name": "by",
          "type": "address"
        },
        {
          "indexed": false,
          "internalType": "uint256[3]",
          "name": "amounts",
          "type": "uint256[3]"
        },
        {
          "indexed": false,
          "internalType": "uint256",
          "name": "loanID",
          "type": "uint256"
        }
      ],
      "name": "loanRequested",
      "type": "event"
    },
    {
      "anonymous": false,
      "inputs": [
        {
          "indexed": false,
          "internalType": "address",
          "name": "by",
          "type": "address"
        },
        {
          "indexed": false,
          "internalType": "uint256[3]",
          "name": "requestedAmount",
          "type": "uint256[3]"
        },
        {
          "indexed": false,
          "internalType": "uint256[3]",
          "name": "remainingAmount",
          "type": "uint256[3]"
        },
        {
          "indexed": false,
          "internalType": "uint256",
          "name": "loanID",
          "type": "uint256"
        }
      ],
      "name": "loanWithdrawn",
      "type": "event"
    },
    {
      "anonymous": false,
      "inputs": [
        {
          "indexed": false,
          "internalType": "address",
          "name": "signee",
          "type": "address"
        },
        {
          "indexed": false,
          "internalType": "uint256",
          "name": "loanID",
          "type": "uint256"
        }
      ],
      "name": "signed",
      "type": "event"
    },
    {
      "anonymous": false,
      "inputs": [
        {
          "indexed": false,
          "internalType": "address",
          "name": "signee",
          "type": "address"
        }
      ],
      "name": "signeeAdded",
      "type": "event"
    },
    {
      "anonymous": false,
      "inputs": [
        {
          "indexed": false,
          "internalType": "address",
          "name": "signee",
          "type": "address"
        }
      ],
      "name": "signeeRemoved",
      "type": "event"
    },
    {
      "anonymous": false,
      "inputs": [
        {
          "indexed": false,
          "internalType": "address",
          "name": "by",
          "type": "address"
        },
        {
          "indexed": false,
          "internalType": "uint256[3]",
          "name": "repayedAmount",
          "type": "uint256[3]"
        },
        {
          "indexed": false,
          "internalType": "uint256[3]",
          "name": "amountRemaining",
          "type": "uint256[3]"
        },
        {
          "indexed": false,
          "internalType": "uint256",
          "name": "loanID",
          "type": "uint256"
        }
      ],
      "name": "wholeLoanRepayed",
      "type": "event"
    },
    {
      "inputs": [],
      "name": "BASE_DECIMAL",
      "outputs": [
        {
          "internalType": "uint256",
          "name": "",
          "type": "uint256"
        }
      ],
      "stateMutability": "view",
      "type": "function"
    },
    {
      "inputs": [],
      "name": "MAX_SIGNEE_COUNT",
      "outputs": [
        {
          "internalType": "uint256",
          "name": "",
          "type": "uint256"
        }
      ],
      "stateMutability": "view",
      "type": "function"
    },
    {
      "inputs": [
        {
          "internalType": "address",
          "name": "",
          "type": "address"
        },
        {
          "internalType": "uint256",
          "name": "",
          "type": "uint256"
        }
      ],
      "name": "confirmations",
      "outputs": [
        {
          "internalType": "bool",
          "name": "",
          "type": "bool"
        }
      ],
      "stateMutability": "view",
      "type": "function"
    },
    {
      "inputs": [
        {
          "internalType": "uint256",
          "name": "",
          "type": "uint256"
        }
      ],
      "name": "gamingCompanyRepayment",
      "outputs": [
        {
          "internalType": "uint256",
          "name": "transactionID",
          "type": "uint256"
        },
        {
          "internalType": "bool",
          "name": "isRepaymentDone",
          "type": "bool"
        }
      ],
      "stateMutability": "view",
      "type": "function"
    },
    {
      "inputs": [
        {
          "internalType": "address",
          "name": "",
          "type": "address"
        }
      ],
      "name": "isSignee",
      "outputs": [
        {
          "internalType": "bool",
          "name": "",
          "type": "bool"
        }
      ],
      "stateMutability": "view",
      "type": "function"
    },
    {
      "inputs": [],
      "name": "ownerAddress",
      "outputs": [
        {
          "internalType": "address",
          "name": "",
          "type": "address"
        }
      ],
      "stateMutability": "view",
      "type": "function"
    },
    {
      "inputs": [],
      "name": "required",
      "outputs": [
        {
          "internalType": "uint256",
          "name": "",
          "type": "uint256"
        }
      ],
      "stateMutability": "view",
      "type": "function"
    },
    {
      "inputs": [],
      "name": "royale",
      "outputs": [
        {
          "internalType": "contract RoyaleInterface",
          "name": "",
          "type": "address"
        }
      ],
      "stateMutability": "view",
      "type": "function"
    },
    {
      "inputs": [
        {
          "internalType": "uint256",
          "name": "",
          "type": "uint256"
        }
      ],
      "name": "signees",
      "outputs": [
        {
          "internalType": "address",
          "name": "",
          "type": "address"
        }
      ],
      "stateMutability": "view",
      "type": "function"
    },
    {
      "inputs": [
        {
          "internalType": "address",
          "name": "",
          "type": "address"
        },
        {
          "internalType": "uint256",
          "name": "",
          "type": "uint256"
        }
      ],
      "name": "takenLoan",
      "outputs": [
        {
          "internalType": "uint256",
          "name": "",
          "type": "uint256"
        }
      ],
      "stateMutability": "view",
      "type": "function"
    },
    {
      "inputs": [
        {
          "internalType": "uint256",
          "name": "",
          "type": "uint256"
        }
      ],
      "name": "totalApprovedLoan",
      "outputs": [
        {
          "internalType": "uint256",
          "name": "",
          "type": "uint256"
        }
      ],
      "stateMutability": "view",
      "type": "function"
    },
    {
      "inputs": [
        {
          "internalType": "uint256",
          "name": "",
          "type": "uint256"
        }
      ],
      "name": "totalLoanTaken",
      "outputs": [
        {
          "internalType": "uint256",
          "name": "",
          "type": "uint256"
        }
      ],
      "stateMutability": "view",
      "type": "function"
    },
    {
      "inputs": [],
      "name": "transactionCount",
      "outputs": [
        {
          "internalType": "uint256",
          "name": "",
          "type": "uint256"
        }
      ],
      "stateMutability": "view",
      "type": "function"
    },
    {
      "inputs": [
        {
          "internalType": "uint256",
          "name": "",
          "type": "uint256"
        }
      ],
      "name": "transactions",
      "outputs": [
        {
          "internalType": "uint256",
          "name": "transactionId",
          "type": "uint256"
        },
        {
          "internalType": "address",
          "name": "iGamingCompany",
          "type": "address"
        },
        {
          "internalType": "bool",
          "name": "isGamingCompanySigned",
          "type": "bool"
        },
        {
          "internalType": "bool",
          "name": "approved",
          "type": "bool"
        },
        {
          "internalType": "bool",
          "name": "executed",
          "type": "bool"
        }
      ],
      "stateMutability": "view",
      "type": "function"
    },
    {
      "inputs": [
        {
          "internalType": "uint256[3]",
          "name": "amounts",
          "type": "uint256[3]"
        }
      ],
      "name": "requestLoan",
      "outputs": [],
      "stateMutability": "nonpayable",
      "type": "function"
    },
    {
      "inputs": [
        {
          "internalType": "uint256",
          "name": "_loanID",
          "type": "uint256"
        }
      ],
      "name": "signTransaction",
      "outputs": [],
      "stateMutability": "nonpayable",
      "type": "function"
    },
    {
      "inputs": [
        {
          "internalType": "uint256",
          "name": "_loanID",
          "type": "uint256"
        }
      ],
      "name": "confirmLoan",
      "outputs": [],
      "stateMutability": "nonpayable",
      "type": "function"
    },
    {
      "inputs": [
        {
          "internalType": "uint256",
          "name": "_loanID",
          "type": "uint256"
        }
      ],
      "name": "checkLoanApproved",
      "outputs": [
        {
          "internalType": "bool",
          "name": "",
          "type": "bool"
        }
      ],
      "stateMutability": "view",
      "type": "function"
    },
    {
      "inputs": [
        {
          "internalType": "uint256",
          "name": "_required",
          "type": "uint256"
        }
      ],
      "name": "setRequiredSignee",
      "outputs": [],
      "stateMutability": "nonpayable",
      "type": "function"
    },
    {
      "inputs": [
        {
          "internalType": "address",
          "name": "signee",
          "type": "address"
        }
      ],
      "name": "addSignee",
      "outputs": [],
      "stateMutability": "nonpayable",
      "type": "function"
    },
    {
      "inputs": [
        {
          "internalType": "address",
          "name": "signee",
          "type": "address"
        }
      ],
      "name": "removeSignee",
      "outputs": [],
      "stateMutability": "nonpayable",
      "type": "function"
    },
    {
      "inputs": [
        {
          "internalType": "uint256[3]",
          "name": "amounts",
          "type": "uint256[3]"
        },
        {
          "internalType": "uint256",
          "name": "_loanID",
          "type": "uint256"
        }
      ],
      "name": "withdrawLoan",
      "outputs": [],
      "stateMutability": "nonpayable",
      "type": "function"
    },
    {
      "inputs": [
        {
          "internalType": "uint256[3]",
          "name": "_amounts",
          "type": "uint256[3]"
        },
        {
          "internalType": "uint256",
          "name": "_loanId",
          "type": "uint256"
        }
      ],
      "name": "repayLoan",
      "outputs": [],
      "stateMutability": "nonpayable",
      "type": "function"
    }
  ],
  "bytecode": "0x608060405260006009553480156200001657600080fd5b50604051620030e2380380620030e283398181016040528101906200003c91906200029d565b33600c60006101000a81548173ffffffffffffffffffffffffffffffffffffffff021916908373ffffffffffffffffffffffffffffffffffffffff1602179055506001600660003373ffffffffffffffffffffffffffffffffffffffff1673ffffffffffffffffffffffffffffffffffffffff16815260200190815260200160002060006101000a81548160ff0219169083151502179055506008339080600181540180825580915050600190039060005260206000200160009091909190916101000a81548173ffffffffffffffffffffffffffffffffffffffff021916908373ffffffffffffffffffffffffffffffffffffffff16021790555060005b600360ff168160ff161015620001ff57828160ff16600381106200015b57fe5b602002015160008260ff16600381106200017157fe5b0160006101000a81548173ffffffffffffffffffffffffffffffffffffffff021916908373ffffffffffffffffffffffffffffffffffffffff16021790555081600b60006101000a81548173ffffffffffffffffffffffffffffffffffffffff021916908373ffffffffffffffffffffffffffffffffffffffff16021790555080806001019150506200013b565b5050506200037d565b600081519050620002198162000363565b92915050565b600082601f8301126200023157600080fd5b60036200024862000242826200030c565b620002de565b915081838560208402820111156200025f57600080fd5b60005b8381101562000293578162000278888262000208565b84526020840193506020830192505060018101905062000262565b5050505092915050565b60008060808385031215620002b157600080fd5b6000620002c1858286016200021f565b9250506060620002d48582860162000208565b9150509250929050565b6000604051905081810181811067ffffffffffffffff821117156200030257600080fd5b8060405250919050565b600067ffffffffffffffff8211156200032457600080fd5b602082029050919050565b60006200033c8262000343565b9050919050565b600073ffffffffffffffffffffffffffffffffffffffff82169050919050565b6200036e816200032f565b81146200037a57600080fd5b50565b612d55806200038d6000396000f3fe608060405234801561001057600080fd5b506004361061014d5760003560e01c806362a945d1116100c3578063ae8df6a61161007c578063ae8df6a6146103b3578063b0580ce9146103e3578063b77bf600146103ff578063d80a93d61461041d578063dc8452cd1461044d578063f84fd9ef1461046b5761014d565b806362a945d1146102db5780638af81478146102f75780638f84aa09146103155780639ace38c2146103335780639b36416214610367578063aa37dca2146103835761014d565b8063277514e011610115578063277514e0146102085780632f094632146102245780632fd040d614610242578063398d1b9e146102725780633d591bc2146102a35780635d9ec210146102bf5761014d565b80630385b5811461015257806304971367146101825780630f8cdd881461019e57806310266c1c146101ba5780631880432a146101ea575b600080fd5b61016c60048036038101906101679190612250565b61049b565b60405161017991906128eb565b60405180910390f35b61019c6004803603810190610197919061236c565b6104bb565b005b6101b860048036038101906101b39190612250565b610690565b005b6101d460048036038101906101cf919061236c565b610870565b6040516101e19190612ac1565b60405180910390f35b6101f2610888565b6040516101ff9190612ac1565b60405180910390f35b610222600480360381019061021d91906122de565b61088d565b005b61022c610dd7565b6040516102399190612906565b60405180910390f35b61025c60048036038101906102579190612279565b610dfd565b6040516102699190612ac1565b60405180910390f35b61028c6004803603810190610287919061236c565b610e2b565b60405161029a929190612b2f565b60405180910390f35b6102bd60048036038101906102b891906122de565b610e5c565b005b6102d960048036038101906102d4919061236c565b611391565b005b6102f560048036038101906102f091906122b5565b6114b9565b005b6102ff611583565b60405161030c9190612ac1565b60405180910390f35b61031d61158f565b60405161032a9190612801565b60405180910390f35b61034d6004803603810190610348919061236c565b6115b5565b60405161035e959493929190612adc565b60405180910390f35b610381600480360381019061037c9190612250565b611632565b005b61039d6004803603810190610398919061236c565b6118fd565b6040516103aa9190612ac1565b60405180910390f35b6103cd60048036038101906103c8919061236c565b611915565b6040516103da91906128eb565b60405180910390f35b6103fd60048036038101906103f8919061236c565b611942565b005b610407611a1c565b6040516104149190612ac1565b60405180910390f35b6104376004803603810190610432919061236c565b611a22565b6040516104449190612801565b60405180910390f35b610455611a5e565b6040516104629190612ac1565b60405180910390f35b61048560048036038101906104809190612279565b611a64565b60405161049291906128eb565b60405180910390f35b60066020528060005260406000206000915054906101000a900460ff1681565b33600660008273ffffffffffffffffffffffffffffffffffffffff1673ffffffffffffffffffffffffffffffffffffffff16815260200190815260200160002060009054906101000a900460ff1661051257600080fd5b8160008111801561052557506009548111155b61052e57600080fd5b3383600460008373ffffffffffffffffffffffffffffffffffffffff1673ffffffffffffffffffffffffffffffffffffffff168152602001908152602001600020600082815260200190815260200160002060009054906101000a900460ff161561059857600080fd5b6001600460003373ffffffffffffffffffffffffffffffffffffffff1673ffffffffffffffffffffffffffffffffffffffff168152602001908152602001600020600087815260200190815260200160002060006101000a81548160ff0219169083151502179055507f24e5bfa739656f6dd56210dbd8ccbfdabcae46f85752164562c69dffd61a320b3386604051610632929190612899565b60405180910390a161064385611a93565b156106895761065185611ba1565b7f7d4061e68fab364906497bb959d95ad3f052a3978fed6ce9942a2b8f737aae54856040516106809190612ac1565b60405180910390a15b5050505050565b33600660008273ffffffffffffffffffffffffffffffffffffffff1673ffffffffffffffffffffffffffffffffffffffff16815260200190815260200160002060009054906101000a900460ff166106e757600080fd5b60001515600660008473ffffffffffffffffffffffffffffffffffffffff1673ffffffffffffffffffffffffffffffffffffffff16815260200190815260200160002060009054906101000a900460ff1615151461077a576040517f08c379a000000000000000000000000000000000000000000000000000000000815260040161077190612981565b60405180910390fd5b6001600660008473ffffffffffffffffffffffffffffffffffffffff1673ffffffffffffffffffffffffffffffffffffffff16815260200190815260200160002060006101000a81548160ff0219169083151502179055506008829080600181540180825580915050600190039060005260206000200160009091909190916101000a81548173ffffffffffffffffffffffffffffffffffffffff021916908373ffffffffffffffffffffffffffffffffffffffff1602179055507fa0aa61ae85a95577b5775982299a5bfc418ef90f41d6bb03a7f2d5a6f7738eaf826040516108649190612801565b60405180910390a15050565b600d816003811061087d57fe5b016000915090505481565b603281565b3373ffffffffffffffffffffffffffffffffffffffff166003600083815260200190815260200160002060010160009054906101000a900473ffffffffffffffffffffffffffffffffffffffff1673ffffffffffffffffffffffffffffffffffffffff1614610931576040517f08c379a0000000000000000000000000000000000000000000000000000000008152600401610928906129a1565b60405180910390fd5b6003600082815260200190815260200160002060080160009054906101000a900460ff16610994576040517f08c379a000000000000000000000000000000000000000000000000000000000815260040161098b906129e1565b60405180910390fd5b61099c6120ae565b60005b600360ff168160ff161015610a3657838160ff16600381106109bd57fe5b6020020135600360008581526020019081526020016000206005018260ff16600381106109e657fe5b01541015610a29576040517f08c379a0000000000000000000000000000000000000000000000000000000008152600401610a2090612a41565b60405180910390fd5b808060010191505061099f565b506000600b60009054906101000a900473ffffffffffffffffffffffffffffffffffffffff1673ffffffffffffffffffffffffffffffffffffffff1663eacd7afc856003600087815260200190815260200160002060010160009054906101000a900473ffffffffffffffffffffffffffffffffffffffff166040518363ffffffff1660e01b8152600401610acc9291906128c2565b602060405180830381600087803b158015610ae657600080fd5b505af1158015610afa573d6000803e3d6000fd5b505050506040513d601f19601f82011682018060405250810190610b1e9190612343565b905080610b60576040517f08c379a0000000000000000000000000000000000000000000000000000000008152600401610b5790612961565b60405180910390fd5b6000805b600360ff168160ff161015610ccb576000868260ff1660038110610b8457fe5b60200201351115610c8757858160ff1660038110610b9e57fe5b6020020135600d8260ff1660038110610bb357fe5b0160008282540192505081905550610c03600360008781526020019081526020016000206005018260ff1660038110610be857fe5b0154878360ff1660038110610bf957fe5b6020020135611e66565b600360008781526020019081526020016000206005018260ff1660038110610c2757fe5b0181905550610c6e600560008781526020019081526020016000206002018260ff1660038110610c5357fe5b0154878360ff1660038110610c6457fe5b6020020135611ec5565b848260ff1660038110610c7d57fe5b6020020181815250505b6000600360008781526020019081526020016000206005018260ff1660038110610cad57fe5b01541415610cbe5781806001019250505b8080600101915050610b64565b50604051806060016040528085815260200160001515815260200184815250600560008681526020019081526020016000206000820151816000015560208201518160010160006101000a81548160ff021916908315150217905550604082015181600201906003610d3e9291906120d0565b509050507f3fe87a796bb63522ae7b9008d51ff617ee24dbde9a0fac8ed85e5a29e781755633866003600088815260200190815260200160002060050187604051610d8c949392919061281c565b60405180910390a160038160ff161415610dd05760016003600086815260200190815260200160002060080160016101000a81548160ff0219169083151502179055505b5050505050565b600b60009054906101000a900473ffffffffffffffffffffffffffffffffffffffff1681565b60076020528160005260406000208181548110610e1657fe5b90600052602060002001600091509150505481565b60056020528060005260406000206000915090508060000154908060010160009054906101000a900460ff16905082565b600954811115610ea1576040517f08c379a0000000000000000000000000000000000000000000000000000000008152600401610e9890612a61565b60405180910390fd5b3373ffffffffffffffffffffffffffffffffffffffff166003600083815260200190815260200160002060010160009054906101000a900473ffffffffffffffffffffffffffffffffffffffff1673ffffffffffffffffffffffffffffffffffffffff1614610f45576040517f08c379a0000000000000000000000000000000000000000000000000000000008152600401610f3c906129a1565b60405180910390fd5b6005600082815260200190815260200160002060010160009054906101000a900460ff1615610fa9576040517f08c379a0000000000000000000000000000000000000000000000000000000008152600401610fa090612a21565b60405180910390fd5b60005b600360ff168160ff16101561104357600560008381526020019081526020016000206002018160ff1660038110610fdf57fe5b0154838260ff1660038110610ff057fe5b60200201351115611036576040517f08c379a000000000000000000000000000000000000000000000000000000000815260040161102d90612a01565b60405180910390fd5b8080600101915050610fac565b506000600b60009054906101000a900473ffffffffffffffffffffffffffffffffffffffff1673ffffffffffffffffffffffffffffffffffffffff166380001288846003600086815260200190815260200160002060010160009054906101000a900473ffffffffffffffffffffffffffffffffffffffff166040518363ffffffff1660e01b81526004016110d99291906128c2565b602060405180830381600087803b1580156110f357600080fd5b505af1158015611107573d6000803e3d6000fd5b505050506040513d601f19601f8201168201806040525081019061112b9190612343565b90508061116d576040517f08c379a000000000000000000000000000000000000000000000000000000000815260040161116490612941565b60405180910390fd5b6000805b600360ff168110156112ad57600085826003811061118b57fe5b6020020135146112a0576111bd600d82600381106111a557fe5b01548683600381106111b357fe5b6020020135611e66565b600d82600381106111ca57fe5b01819055506111f7601082600381106111df57fe5b01548683600381106111ed57fe5b6020020135611e66565b6010826003811061120457fe5b018190555061124560056000868152602001908152602001600020600201826003811061122d57fe5b015486836003811061123b57fe5b6020020135611e66565b60056000868152602001908152602001600020600201826003811061126657fe5b0181905550600060056000868152602001908152602001600020600201826003811061128e57fe5b0154141561129f5781806001019250505b5b8080600101915050611171565b507ffe337a99fc07b4422a06a40fb4728125523f3c0977d012d21e3eb9f89edfd360338560056000878152602001908152602001600020600201866040516112f8949392919061281c565b60405180910390a1600381141561138b5760016005600085815260200190815260200160002060010160006101000a81548160ff0219169083151502179055507f57d01a01ec1287fb00888c92856cb0f45352809b7a5350fdd677ce76f782629933856005600087815260200190815260200160002060020186604051611382949392919061281c565b60405180910390a15b50505050565b3373ffffffffffffffffffffffffffffffffffffffff166003600083815260200190815260200160002060010160009054906101000a900473ffffffffffffffffffffffffffffffffffffffff1673ffffffffffffffffffffffffffffffffffffffff16146113ff57600080fd5b60016003600083815260200190815260200160002060010160146101000a81548160ff0219169083151502179055507f24e5bfa739656f6dd56210dbd8ccbfdabcae46f85752164562c69dffd61a320b338260405161145f929190612899565b60405180910390a161147081611a93565b156114b65761147e81611ba1565b7f7d4061e68fab364906497bb959d95ad3f052a3978fed6ce9942a2b8f737aae54816040516114ad9190612ac1565b60405180910390a15b50565b600a546008805490501015611503576040517f08c379a00000000000000000000000000000000000000000000000000000000081526004016114fa906129c1565b60405180910390fd5b611543816003806020026040519081016040528092919082600360200280828437600081840152601f19601f820116905080830192505050505050611f1a565b7f6825b4653b0626e0268f9c124dce0ea5cc6f826ccb2cf314459bd1c62cf011f7338260095460405161157893929190612862565b60405180910390a150565b670de0b6b3a764000081565b600c60009054906101000a900473ffffffffffffffffffffffffffffffffffffffff1681565b60036020528060005260406000206000915090508060000154908060010160009054906101000a900473ffffffffffffffffffffffffffffffffffffffff16908060010160149054906101000a900460ff16908060080160009054906101000a900460ff16908060080160019054906101000a900460ff16905085565b33600660008273ffffffffffffffffffffffffffffffffffffffff1673ffffffffffffffffffffffffffffffffffffffff16815260200190815260200160002060009054906101000a900460ff1661168957600080fd5b81600660008273ffffffffffffffffffffffffffffffffffffffff1673ffffffffffffffffffffffffffffffffffffffff16815260200190815260200160002060009054906101000a900460ff166116e057600080fd5b6000600660008573ffffffffffffffffffffffffffffffffffffffff1673ffffffffffffffffffffffffffffffffffffffff16815260200190815260200160002060006101000a81548160ff02191690831515021790555060005b60016008805490500381101561185d578373ffffffffffffffffffffffffffffffffffffffff166008828154811061176f57fe5b9060005260206000200160009054906101000a900473ffffffffffffffffffffffffffffffffffffffff1673ffffffffffffffffffffffffffffffffffffffff161415611850576008600160088054905003815481106117cb57fe5b9060005260206000200160009054906101000a900473ffffffffffffffffffffffffffffffffffffffff166008828154811061180357fe5b9060005260206000200160006101000a81548173ffffffffffffffffffffffffffffffffffffffff021916908373ffffffffffffffffffffffffffffffffffffffff16021790555061185d565b808060010191505061173b565b50600880548061186957fe5b6001900381819060005260206000200160006101000a81549073ffffffffffffffffffffffffffffffffffffffff02191690559055600880549050600a5411156118c157600a60008154809291906001900391905055505b7f95cd0920c0aa5e5da987ebe563a4f26fc5143a4c65e89cc8b1b3a23e2d7fa5ff836040516118f09190612801565b60405180910390a1505050565b6010816003811061190a57fe5b016000915090505481565b60006003600083815260200190815260200160002060080160009054906101000a900460ff169050919050565b33600660008273ffffffffffffffffffffffffffffffffffffffff1673ffffffffffffffffffffffffffffffffffffffff16815260200190815260200160002060009054906101000a900460ff1661199957600080fd5b60088054905082603282111580156119b15750818111155b80156119be575060008114155b80156119cb575060008214155b6119d457600080fd5b83600a819055507f3eeb9a927605685a0c44838616e4c196655b47d4019656c814bbf5743d1e25cc33600a54604051611a0e929190612899565b60405180910390a150505050565b60095481565b60088181548110611a2f57fe5b906000526020600020016000915054906101000a900473ffffffffffffffffffffffffffffffffffffffff1681565b600a5481565b60046020528160005260406000206020528060005260406000206000915091509054906101000a900460ff1681565b6000806000905060005b600880549050811015611b99576004600060088381548110611abb57fe5b9060005260206000200160009054906101000a900473ffffffffffffffffffffffffffffffffffffffff1673ffffffffffffffffffffffffffffffffffffffff1673ffffffffffffffffffffffffffffffffffffffff168152602001908152602001600020600085815260200190815260200160002060009054906101000a900460ff1615611b4b576001820191505b600a5482148015611b7c57506003600085815260200190815260200160002060010160149054906101000a900460ff165b15611b8c57600192505050611b9c565b8080600101915050611a9d565b50505b919050565b611ba96120ae565b600b60009054906101000a900473ffffffffffffffffffffffffffffffffffffffff1673ffffffffffffffffffffffffffffffffffffffff1663233fc9a26040518163ffffffff1660e01b815260040160606040518083038186803b158015611c1157600080fd5b505afa158015611c25573d6000803e3d6000fd5b505050506040513d601f19601f82011682018060405250810190611c49919061231a565b905060005b600360ff168160ff161015611cf757818160ff1660038110611c6c57fe5b6020020151600360008581526020019081526020016000206002018260ff1660038110611c9557fe5b015460108360ff1660038110611ca757fe5b01540110611cea576040517f08c379a0000000000000000000000000000000000000000000000000000000008152600401611ce190612921565b60405180910390fd5b8080600101915050611c4e565b5060016003600084815260200190815260200160002060080160006101000a81548160ff0219169083151502179055506003600083815260200190815260200160002060020160036000848152602001908152602001600020600501906003611d61929190612110565b5060005b600360ff168160ff161015611dc557600360008481526020019081526020016000206002018160ff1660038110611d9857fe5b015460108260ff1660038110611daa57fe5b01600082825401925050819055508080600101915050611d65565b50600760006003600085815260200190815260200160002060010160009054906101000a900473ffffffffffffffffffffffffffffffffffffffff1673ffffffffffffffffffffffffffffffffffffffff1673ffffffffffffffffffffffffffffffffffffffff1681526020019081526020016000208290806001815401808255809150506001900390600052602060002001600090919091909150555050565b6000806000611e758585612085565b915091508015611eba576040517f08c379a0000000000000000000000000000000000000000000000000000000008152600401611eb190612a81565b60405180910390fd5b819250505092915050565b600080828401905083811015611f10576040517f08c379a0000000000000000000000000000000000000000000000000000000008152600401611f0790612aa1565b60405180910390fd5b8091505092915050565b611f226120ae565b6009600081548092919060010191905055506040518060e0016040528060095481526020013373ffffffffffffffffffffffffffffffffffffffff168152602001600015158152602001838152602001828152602001600015158152602001600015158152506003600060095481526020019081526020016000206000820151816000015560208201518160010160006101000a81548173ffffffffffffffffffffffffffffffffffffffff021916908373ffffffffffffffffffffffffffffffffffffffff16021790555060408201518160010160146101000a81548160ff0219169083151502179055506060820151816002019060036120259291906120d0565b5060808201518160050190600361203d9291906120d0565b5060a08201518160080160006101000a81548160ff02191690831515021790555060c08201518160080160016101000a81548160ff0219169083151502179055509050505050565b60008082841061209d578284036000915091506120a7565b8383036001915091505b9250929050565b6040518060600160405280600390602082028036833780820191505090505090565b82600381019282156120ff579160200282015b828111156120fe5782518255916020019190600101906120e3565b5b50905061210c919061214d565b5090565b826003810192821561213c579182015b8281111561213b578254825591600101919060010190612120565b5b509050612149919061214d565b5090565b5b8082111561216657600081600090555060010161214e565b5090565b60008135905061217981612cda565b92915050565b60008190508260206003028201111561219757600080fd5b92915050565b600082601f8301126121ae57600080fd5b60036121c16121bc82612b85565b612b58565b915081838560208402820111156121d757600080fd5b60005b8381101561220757816121ed888261223b565b8452602084019350602083019250506001810190506121da565b5050505092915050565b60008151905061222081612cf1565b92915050565b60008135905061223581612d08565b92915050565b60008151905061224a81612d08565b92915050565b60006020828403121561226257600080fd5b60006122708482850161216a565b91505092915050565b6000806040838503121561228c57600080fd5b600061229a8582860161216a565b92505060206122ab85828601612226565b9150509250929050565b6000606082840312156122c757600080fd5b60006122d58482850161217f565b91505092915050565b600080608083850312156122f157600080fd5b60006122ff8582860161217f565b925050606061231085828601612226565b9150509250929050565b60006060828403121561232c57600080fd5b600061233a8482850161219d565b91505092915050565b60006020828403121561235557600080fd5b600061236384828501612211565b91505092915050565b60006020828403121561237e57600080fd5b600061238c84828501612226565b91505092915050565b60006123a183836127e3565b60208301905092915050565b6123b681612c37565b82525050565b6123c581612bef565b82525050565b6123d760608383612c91565b5050565b6123e481612bb1565b6123ee8184612bc9565b92506123f982612ba7565b8060005b838110156124315761240e82612cba565b6124188782612395565b965061242383612bbc565b9250506001810190506123fd565b505050505050565b61244281612c01565b82525050565b61245181612c49565b82525050565b6000612464602083612bd4565b91507f43616e206e6f7420617070726f76652074686174206d75636820616d6f756e746000830152602082019050919050565b60006124a4601b83612bd4565b91507f4c6f616e205061796d656e74206e6f742073756363657366756c6c00000000006000830152602082019050919050565b60006124e4601c83612bd4565b91507f4c6f616e205769746864726177206e6f742073756363657366756c6c000000006000830152602082019050919050565b6000612524600d83612bd4565b91507f616c7265616479206164646564000000000000000000000000000000000000006000830152602082019050919050565b6000612564601183612bd4565b91507f636f6d70616e79206e6f742d65786973740000000000000000000000000000006000830152602082019050919050565b60006125a4601483612bd4565b91507f696e73756666696369656e74207369676e6565730000000000000000000000006000830152602082019050919050565b60006125e4601583612bd4565b91507f6e6f7420617070726f76656420666f72206c6f616e00000000000000000000006000830152602082019050919050565b6000612624602b83612bd4565b91507f446f6e277420686176652074686174206d756368206f662072656d61696e696e60008301527f672072657061796d656e740000000000000000000000000000000000000000006020830152604082019050919050565b600061268a600e83612bd4565b91507f616c7265616479207265706169640000000000000000000000000000000000006000830152602082019050919050565b60006126ca602883612bd4565b91507f616d6f756e7420726571756573746564206578636565647320616d6f756e742060008301527f617070726f7665640000000000000000000000000000000000000000000000006020830152604082019050919050565b6000612730600f83612bd4565b91507f696e76616c6964206c6f616e20696400000000000000000000000000000000006000830152602082019050919050565b6000612770601183612bd4565b91507f4552525f5355425f554e444552464c4f570000000000000000000000000000006000830152602082019050919050565b60006127b0601083612bd4565b91507f4552525f4144445f4f564552464c4f57000000000000000000000000000000006000830152602082019050919050565b6127ec81612c2d565b82525050565b6127fb81612c2d565b82525050565b600060208201905061281660008301846123bc565b92915050565b60006101008201905061283260008301876123ad565b61283f60208301866123cb565b61284c60808301856123db565b61285960e08301846127f2565b95945050505050565b600060a08201905061287760008301866123ad565b61288460208301856123cb565b61289160808301846127f2565b949350505050565b60006040820190506128ae60008301856123ad565b6128bb60208301846127f2565b9392505050565b60006080820190506128d760008301856123cb565b6128e460608301846123bc565b9392505050565b60006020820190506129006000830184612439565b92915050565b600060208201905061291b6000830184612448565b92915050565b6000602082019050818103600083015261293a81612457565b9050919050565b6000602082019050818103600083015261295a81612497565b9050919050565b6000602082019050818103600083015261297a816124d7565b9050919050565b6000602082019050818103600083015261299a81612517565b9050919050565b600060208201905081810360008301526129ba81612557565b9050919050565b600060208201905081810360008301526129da81612597565b9050919050565b600060208201905081810360008301526129fa816125d7565b9050919050565b60006020820190508181036000830152612a1a81612617565b9050919050565b60006020820190508181036000830152612a3a8161267d565b9050919050565b60006020820190508181036000830152612a5a816126bd565b9050919050565b60006020820190508181036000830152612a7a81612723565b9050919050565b60006020820190508181036000830152612a9a81612763565b9050919050565b60006020820190508181036000830152612aba816127a3565b9050919050565b6000602082019050612ad660008301846127f2565b92915050565b600060a082019050612af160008301886127f2565b612afe60208301876123bc565b612b0b6040830186612439565b612b186060830185612439565b612b256080830184612439565b9695505050505050565b6000604082019050612b4460008301856127f2565b612b516020830184612439565b9392505050565b6000604051905081810181811067ffffffffffffffff82111715612b7b57600080fd5b8060405250919050565b600067ffffffffffffffff821115612b9c57600080fd5b602082029050919050565b6000819050919050565b600060039050919050565b6000600182019050919050565b600081905092915050565b600082825260208201905092915050565b6000819050919050565b6000612bfa82612c0d565b9050919050565b60008115159050919050565b600073ffffffffffffffffffffffffffffffffffffffff82169050919050565b6000819050919050565b6000612c4282612c6d565b9050919050565b6000612c5482612c5b565b9050919050565b6000612c6682612c0d565b9050919050565b6000612c7882612c7f565b9050919050565b6000612c8a82612c0d565b9050919050565b82818337600083830152505050565b6000612cb3612cae83612ccd565b612be5565b9050919050565b6000612cc68254612ca0565b9050919050565b60008160001c9050919050565b612ce381612bef565b8114612cee57600080fd5b50565b612cfa81612c01565b8114612d0557600080fd5b50565b612d1181612c2d565b8114612d1c57600080fd5b5056fea2646970667358221220a7bad0a7aa8e3842644d3eee984e1b0c00dd31e7fc9386a6b28dc95cbd5bb32c64736f6c634300060c0033",
  "immutableReferences": {},
  "source": "// SPDX-License-Identifier: UNLICENSED\r\npragma solidity ^0.6.0;\r\npragma experimental ABIEncoderV2;\r\n\r\nimport '../Interfaces/Erc20Interface.sol';\r\nimport '../Interfaces/RoyaleInterface.sol';\r\nimport './MathLib.sol';\r\n\r\n\r\ncontract rLoan is rNum{\r\n    uint8 constant N_COINS = 3;\r\n    \r\n    Erc20[N_COINS] tokens;\r\n\r\n    uint constant public MAX_SIGNEE_COUNT = 50;\r\n    \r\n    mapping(uint256 => Transaction) public transactions;\r\n    mapping(address => mapping (uint256 => bool)) public confirmations;\r\n    mapping(uint256 => Repayment) public gamingCompanyRepayment;\r\n    mapping(address => bool) public isSignee;\r\n  \r\n    mapping(address => uint[])public takenLoan;\r\n    address[] public signees;\r\n    uint256 public transactionCount = 0;\r\n   \r\n    uint256 public required;\r\n\r\n    RoyaleInterface public royale;\r\n\r\n    address public ownerAddress;\r\n\r\n    uint256[N_COINS] public totalLoanTaken;\r\n    uint256[N_COINS] public totalApprovedLoan;\r\n    \r\n    struct Transaction {\r\n        uint256 transactionId;\r\n        address iGamingCompany;\r\n        bool isGamingCompanySigned;\r\n        uint256[N_COINS] tokenAmounts;\r\n        uint256[N_COINS] remAmt;\r\n        bool approved;\r\n        bool executed;\r\n    }\r\n\r\n    struct Repayment {\r\n        uint256 transactionID;\r\n        bool isRepaymentDone;\r\n        uint256[N_COINS] remainingTokenAmounts;\r\n    }\r\n\r\n\r\n    /* Events */\r\n\r\n    event loanRequested(\r\n        address by,\r\n        uint[N_COINS] amounts,\r\n        uint loanID\r\n    );\r\n\r\n    event signed(\r\n        address signee,\r\n        uint loanID\r\n    );\r\n\r\n    event approved(\r\n        uint loanID\r\n    );\r\n\r\n    event addedRequiredSignee(\r\n        address adder,\r\n        uint numberOfSignees\r\n    );\r\n\r\n    event signeeAdded(\r\n        address signee\r\n    );\r\n\r\n    event signeeRemoved(\r\n        address signee\r\n    );\r\n\r\n    event loanWithdrawn(\r\n        address by,\r\n        uint[N_COINS] requestedAmount,\r\n        uint[N_COINS] remainingAmount,\r\n        uint loanID\r\n    );\r\n\r\n    event loanFulfilled(\r\n        address by,\r\n        uint[N_COINS] requestedAmount,\r\n        uint[N_COINS] remainingAmount,\r\n        uint loanID\r\n    );\r\n\r\n    event loanRepayed(\r\n        address by,\r\n        uint[N_COINS] repayedAmount,\r\n        uint[N_COINS] amountRemaining,\r\n        uint loanID\r\n    );\r\n\r\n    event wholeLoanRepayed(\r\n        address by,\r\n        uint[N_COINS] repayedAmount,\r\n        uint[N_COINS] amountRemaining,\r\n        uint loanID\r\n    );\r\n\r\n    /* Modifiers */\r\n\r\n    modifier onlyOwner {\r\n        require(msg.sender == ownerAddress);\r\n        _;\r\n    }\r\n\r\n    modifier signeeExists(address signee) {\r\n        require(isSignee[signee]);\r\n        _;\r\n    }\r\n\r\n    modifier transactionExists(uint _loanID) {\r\n        require(_loanID > 0 && _loanID <= transactionCount);\r\n        _;\r\n    }\r\n\r\n    modifier notConfirmed(address addr,uint _loanID) {\r\n        require(!confirmations[addr][_loanID]);\r\n        _;\r\n    }\r\n\r\n    modifier validRequirement(uint signeeCount, uint _required) {\r\n        require(signeeCount <= MAX_SIGNEE_COUNT\r\n            && _required <= signeeCount\r\n            && _required != 0\r\n            && signeeCount != 0);\r\n        _;\r\n    }\r\n\r\n\r\n    constructor(address[N_COINS] memory _tokens , address _royale) public {\r\n        ownerAddress = msg.sender;\r\n        isSignee[msg.sender] = true;\r\n        signees.push(msg.sender);\r\n\r\n        // Set Tokens supported by Pool\r\n        for(uint8 i=0; i<N_COINS; i++) {\r\n            tokens[i] = Erc20(_tokens[i]);\r\n            royale = RoyaleInterface(_royale);\r\n        }\r\n    }\r\n\r\n    /* Internal Functions */\r\n\r\n    function _addTransaction(\r\n       uint256[N_COINS] memory amounts\r\n    ) internal {\r\n        uint256[N_COINS] memory zero;\r\n\r\n        transactionCount++;\r\n        transactions[transactionCount] = Transaction({\r\n            transactionId: transactionCount,\r\n            iGamingCompany: msg.sender,\r\n            tokenAmounts: amounts,\r\n            remAmt: zero,\r\n            isGamingCompanySigned: false,\r\n            approved: false,\r\n            executed: false\r\n        });\r\n        \r\n    }\r\n\r\n    function _approveLoan(uint _loanID) internal {\r\n        uint256[N_COINS] memory am=royale.getTotalPoolBalance();\r\n        for(uint8 i=0;i<N_COINS;i++) {\r\n            require(totalApprovedLoan[i]+transactions[_loanID].tokenAmounts[i]<am[i],\"Can not approve that much amount\");\r\n        }\r\n\r\n        transactions[_loanID].approved = true;\r\n        transactions[_loanID].remAmt = transactions[_loanID].tokenAmounts;\r\n\r\n        for(uint8 i=0;i<N_COINS;i++){\r\n            totalApprovedLoan[i] +=transactions[_loanID].tokenAmounts[i];\r\n        }\r\n        takenLoan[transactions[_loanID].iGamingCompany].push(_loanID);\r\n    }\r\n\r\n    function _isConfirmed(\r\n        uint _loanID\r\n    ) internal view returns (bool) {\r\n        uint count = 0;\r\n        for (uint i=0; i<signees.length; i++) {\r\n            if (confirmations[signees[i]][_loanID])\r\n                count += 1;\r\n            if (count == required && transactions[_loanID].isGamingCompanySigned)\r\n                return true;\r\n        }\r\n    }\r\n\r\n  \r\n    /* USER FUNCTIONS (exposed to frontend) */\r\n\r\n    // Gaming platforms withdraw using this\r\n    function requestLoan(\r\n        uint256[N_COINS] calldata amounts\r\n    ) external  {\r\n       require(signees.length >= required, \"insufficient signees\");\r\n       _addTransaction(amounts);\r\n\r\n       emit loanRequested(msg.sender, amounts, transactionCount);\r\n    }\r\n    \r\n    \r\n    // Gaming Platforms signs using this\r\n    function signTransaction(uint _loanID) public {\r\n        require(transactions[_loanID].iGamingCompany == msg.sender);\r\n        \r\n        transactions[_loanID].isGamingCompanySigned = true;\r\n\r\n        emit signed(msg.sender, _loanID);\r\n\r\n        if(_isConfirmed(_loanID)) {\r\n           _approveLoan(_loanID);\r\n           emit approved(_loanID);\r\n        }\r\n    }\r\n    \r\n    // Signee signs using this\r\n    function confirmLoan(uint _loanID) public\r\n        signeeExists(msg.sender)\r\n        transactionExists(_loanID)\r\n        notConfirmed( msg.sender,_loanID) \r\n    {\r\n        confirmations[msg.sender][_loanID] = true;\r\n        \r\n        emit signed(msg.sender, _loanID);\r\n\r\n        if(_isConfirmed(_loanID)) {\r\n           _approveLoan(_loanID);\r\n           emit approved(_loanID);\r\n        }\r\n    }\r\n\r\n    function checkLoanApproved(uint _loanID) external view returns(bool) {\r\n        return transactions[_loanID].approved;\r\n    }\r\n\r\n    /* Admin Function */\r\n    \r\n    function setRequiredSignee(\r\n        uint _required\r\n    ) public signeeExists(msg.sender) validRequirement(signees.length, _required) {\r\n        required = _required;\r\n\r\n        emit addedRequiredSignee(msg.sender, required);\r\n    }\r\n\r\n    function addSignee(address signee) public signeeExists(msg.sender) {\r\n        require(isSignee[signee] == false, \"already added\");\r\n\r\n        isSignee[signee] = true;\r\n        signees.push(signee);\r\n\r\n        emit signeeAdded(signee);\r\n    }\r\n    \r\n    function removeSignee(address signee) public signeeExists(msg.sender) signeeExists(signee) {\r\n        \r\n        isSignee[signee] = false;\r\n        for (uint i=0; i<signees.length - 1; i++) {\r\n            if (signees[i] == signee) {\r\n                signees[i] = signees[signees.length - 1];\r\n                break;\r\n            }\r\n        }\r\n        signees.pop();\r\n        \r\n        if (required > signees.length) {\r\n            required--;\r\n        }\r\n\r\n        emit signeeRemoved(signee);\r\n    } \r\n\r\n    function withdrawLoan( \r\n        uint256[N_COINS] calldata amounts,\r\n        uint _loanID\r\n    ) external {\r\n\r\n        require(transactions[_loanID].iGamingCompany == msg.sender, \"company not-exist\");\r\n        require(transactions[_loanID].approved, \"not approved for loan\");\r\n        uint256[N_COINS] memory loanAmount;\r\n        for(uint8 i=0; i<N_COINS; i++) {\r\n            require(\r\n                transactions[_loanID].remAmt[i] >= amounts[i], \r\n                \"amount requested exceeds amount approved\"\r\n            );\r\n        }\r\n        bool b = royale._loanWithdraw(amounts,transactions[_loanID].iGamingCompany);\r\n        require(b, \"Loan Withdraw not succesfull\");\r\n\r\n        uint8 check = 0;\r\n        for(uint8 i=0; i<N_COINS; i++) {\r\n            if(amounts[i] > 0) {\r\n                totalLoanTaken[i] += amounts[i];\r\n                transactions[_loanID].remAmt[i] =bsub(transactions[_loanID].remAmt[i], amounts[i]);\r\n                loanAmount[i]=badd(gamingCompanyRepayment[_loanID].remainingTokenAmounts[i],amounts[i]);\r\n            }\r\n            if(transactions[_loanID].remAmt[i] == 0) {\r\n                check++;\r\n            }\r\n        }\r\n        gamingCompanyRepayment[_loanID] = Repayment({\r\n                  transactionID: _loanID,\r\n                  isRepaymentDone: false,\r\n                  remainingTokenAmounts: loanAmount\r\n        });\r\n\r\n\r\n        emit loanWithdrawn(msg.sender, amounts, transactions[_loanID].remAmt, _loanID);\r\n\r\n        if(check == 3) {\r\n            // Loan fulfilled, company used all its loan\r\n            transactions[_loanID].executed = true;\r\n        }\r\n    } \r\n    \r\n    \r\n    function repayLoan(uint256[N_COINS] calldata _amounts, uint _loanId) external {\r\n        require(_loanId <= transactionCount, \"invalid loan id\");\r\n        require(transactions[_loanId].iGamingCompany == msg.sender, \"company not-exist\");\r\n        require(!gamingCompanyRepayment[_loanId].isRepaymentDone, \"already repaid\");\r\n        for(uint8 i=0;i<N_COINS;i++){\r\n            require(_amounts[i]<=gamingCompanyRepayment[_loanId].remainingTokenAmounts[i],\"Don't have that much of remaining repayment\");\r\n        }\r\n        bool b = royale._loanRepayment(_amounts,transactions[_loanId].iGamingCompany);\r\n        require(b,\"Loan Payment not succesfull\");\r\n        uint counter=0;\r\n        for(uint i=0;i<N_COINS;i++) {\r\n            if(_amounts[i]!=0) {\r\n                totalLoanTaken[i] =bsub(totalLoanTaken[i],_amounts[i]);\r\n                totalApprovedLoan[i]=bsub(totalApprovedLoan[i],_amounts[i]);\r\n                gamingCompanyRepayment[_loanId].remainingTokenAmounts[i] =bsub(gamingCompanyRepayment[_loanId].remainingTokenAmounts[i], _amounts[i]);\r\n                if(gamingCompanyRepayment[_loanId].remainingTokenAmounts[i] == 0) {\r\n                    counter++;\r\n                }\r\n            }\r\n        }\r\n\r\n        emit loanRepayed(\r\n            msg.sender,\r\n            _amounts, \r\n            gamingCompanyRepayment[_loanId].remainingTokenAmounts,\r\n            _loanId\r\n        );\r\n\r\n            if(counter==3){\r\n                gamingCompanyRepayment[_loanId].isRepaymentDone=true;\r\n\r\n                emit wholeLoanRepayed(\r\n                    msg.sender,\r\n                    _amounts, \r\n                    gamingCompanyRepayment[_loanId].remainingTokenAmounts,\r\n                    _loanId\r\n                );\r\n            }       \r\n    }\r\n    \r\n}",
  "sourcePath": "C:/Users/MayankVats/Desktop/WORK/blockchain/Royale/rlp/contracts/rLoan.sol",
  "compiler": {
    "name": "solc",
    "version": "0.6.12+commit.27d51765.Emscripten.clang"
  },
  "schemaVersion": "3.3.2",
  "updatedAt": "2020-12-30T06:02:11.793Z",
  "devdoc": {
    "kind": "dev",
    "methods": {},
    "version": 1
  },
  "userdoc": {
    "kind": "user",
    "methods": {},
    "version": 1
  }
}