{
  "contractName": "rLoan",
  "abi": [
    {
      "inputs": [
        {
          "internalType": "address[3]",
          "name": "_tokens",
          "type": "address[3]"
        },
        {
          "internalType": "address",
          "name": "_royale",
          "type": "address"
        }
      ],
      "stateMutability": "nonpayable",
      "type": "constructor"
    },
    {
      "anonymous": false,
      "inputs": [
        {
          "indexed": false,
          "internalType": "address",
          "name": "adder",
          "type": "address"
        },
        {
          "indexed": false,
          "internalType": "uint256",
          "name": "numberOfSignees",
          "type": "uint256"
        }
      ],
      "name": "addedRequiredSignee",
      "type": "event"
    },
    {
      "anonymous": false,
      "inputs": [
        {
          "indexed": false,
          "internalType": "uint256",
          "name": "loanID",
          "type": "uint256"
        }
      ],
      "name": "approved",
      "type": "event"
    },
    {
      "anonymous": false,
      "inputs": [
        {
          "indexed": false,
          "internalType": "address",
          "name": "by",
          "type": "address"
        },
        {
          "indexed": false,
          "internalType": "uint256[3]",
          "name": "requestedAmount",
          "type": "uint256[3]"
        },
        {
          "indexed": false,
          "internalType": "uint256[3]",
          "name": "remainingAmount",
          "type": "uint256[3]"
        },
        {
          "indexed": false,
          "internalType": "uint256",
          "name": "loanID",
          "type": "uint256"
        }
      ],
      "name": "loanFulfilled",
      "type": "event"
    },
    {
      "anonymous": false,
      "inputs": [
        {
          "indexed": false,
          "internalType": "address",
          "name": "by",
          "type": "address"
        },
        {
          "indexed": false,
          "internalType": "uint256[3]",
          "name": "repayedAmount",
          "type": "uint256[3]"
        },
        {
          "indexed": false,
          "internalType": "uint256[3]",
          "name": "amountRemaining",
          "type": "uint256[3]"
        },
        {
          "indexed": false,
          "internalType": "uint256",
          "name": "loanID",
          "type": "uint256"
        }
      ],
      "name": "loanRepayed",
      "type": "event"
    },
    {
      "anonymous": false,
      "inputs": [
        {
          "indexed": false,
          "internalType": "address",
          "name": "by",
          "type": "address"
        },
        {
          "indexed": false,
          "internalType": "uint256[3]",
          "name": "amounts",
          "type": "uint256[3]"
        },
        {
          "indexed": false,
          "internalType": "uint256",
          "name": "loanID",
          "type": "uint256"
        }
      ],
      "name": "loanRequested",
      "type": "event"
    },
    {
      "anonymous": false,
      "inputs": [
        {
          "indexed": false,
          "internalType": "address",
          "name": "by",
          "type": "address"
        },
        {
          "indexed": false,
          "internalType": "uint256[3]",
          "name": "requestedAmount",
          "type": "uint256[3]"
        },
        {
          "indexed": false,
          "internalType": "uint256[3]",
          "name": "remainingAmount",
          "type": "uint256[3]"
        },
        {
          "indexed": false,
          "internalType": "uint256",
          "name": "loanID",
          "type": "uint256"
        }
      ],
      "name": "loanWithdrawn",
      "type": "event"
    },
    {
      "anonymous": false,
      "inputs": [
        {
          "indexed": false,
          "internalType": "address",
          "name": "signee",
          "type": "address"
        },
        {
          "indexed": false,
          "internalType": "uint256",
          "name": "loanID",
          "type": "uint256"
        }
      ],
      "name": "signed",
      "type": "event"
    },
    {
      "anonymous": false,
      "inputs": [
        {
          "indexed": false,
          "internalType": "address",
          "name": "signee",
          "type": "address"
        }
      ],
      "name": "signeeAdded",
      "type": "event"
    },
    {
      "anonymous": false,
      "inputs": [
        {
          "indexed": false,
          "internalType": "address",
          "name": "signee",
          "type": "address"
        }
      ],
      "name": "signeeRemoved",
      "type": "event"
    },
    {
      "anonymous": false,
      "inputs": [
        {
          "indexed": false,
          "internalType": "address",
          "name": "by",
          "type": "address"
        },
        {
          "indexed": false,
          "internalType": "uint256[3]",
          "name": "repayedAmount",
          "type": "uint256[3]"
        },
        {
          "indexed": false,
          "internalType": "uint256[3]",
          "name": "amountRemaining",
          "type": "uint256[3]"
        },
        {
          "indexed": false,
          "internalType": "uint256",
          "name": "loanID",
          "type": "uint256"
        }
      ],
      "name": "wholeLoanRepayed",
      "type": "event"
    },
    {
      "inputs": [],
      "name": "BASE_DECIMAL",
      "outputs": [
        {
          "internalType": "uint256",
          "name": "",
          "type": "uint256"
        }
      ],
      "stateMutability": "view",
      "type": "function"
    },
    {
      "inputs": [],
      "name": "MAX_SIGNEE_COUNT",
      "outputs": [
        {
          "internalType": "uint256",
          "name": "",
          "type": "uint256"
        }
      ],
      "stateMutability": "view",
      "type": "function"
    },
    {
      "inputs": [
        {
          "internalType": "address",
          "name": "",
          "type": "address"
        },
        {
          "internalType": "uint256",
          "name": "",
          "type": "uint256"
        }
      ],
      "name": "confirmations",
      "outputs": [
        {
          "internalType": "bool",
          "name": "",
          "type": "bool"
        }
      ],
      "stateMutability": "view",
      "type": "function"
    },
    {
      "inputs": [
        {
          "internalType": "uint256",
          "name": "",
          "type": "uint256"
        }
      ],
      "name": "gamingCompanyRepayment",
      "outputs": [
        {
          "internalType": "uint256",
          "name": "transactionID",
          "type": "uint256"
        },
        {
          "internalType": "bool",
          "name": "isRepaymentDone",
          "type": "bool"
        }
      ],
      "stateMutability": "view",
      "type": "function"
    },
    {
      "inputs": [
        {
          "internalType": "address",
          "name": "",
          "type": "address"
        }
      ],
      "name": "isSignee",
      "outputs": [
        {
          "internalType": "bool",
          "name": "",
          "type": "bool"
        }
      ],
      "stateMutability": "view",
      "type": "function"
    },
    {
      "inputs": [],
      "name": "ownerAddress",
      "outputs": [
        {
          "internalType": "address",
          "name": "",
          "type": "address"
        }
      ],
      "stateMutability": "view",
      "type": "function"
    },
    {
      "inputs": [],
      "name": "required",
      "outputs": [
        {
          "internalType": "uint256",
          "name": "",
          "type": "uint256"
        }
      ],
      "stateMutability": "view",
      "type": "function"
    },
    {
      "inputs": [],
      "name": "royale",
      "outputs": [
        {
          "internalType": "contract RoyaleInterface",
          "name": "",
          "type": "address"
        }
      ],
      "stateMutability": "view",
      "type": "function"
    },
    {
      "inputs": [
        {
          "internalType": "uint256",
          "name": "",
          "type": "uint256"
        }
      ],
      "name": "signees",
      "outputs": [
        {
          "internalType": "address",
          "name": "",
          "type": "address"
        }
      ],
      "stateMutability": "view",
      "type": "function"
    },
    {
      "inputs": [
        {
          "internalType": "address",
          "name": "",
          "type": "address"
        },
        {
          "internalType": "uint256",
          "name": "",
          "type": "uint256"
        }
      ],
      "name": "takenLoan",
      "outputs": [
        {
          "internalType": "uint256",
          "name": "",
          "type": "uint256"
        }
      ],
      "stateMutability": "view",
      "type": "function"
    },
    {
      "inputs": [
        {
          "internalType": "uint256",
          "name": "",
          "type": "uint256"
        }
      ],
      "name": "totalApprovedLoan",
      "outputs": [
        {
          "internalType": "uint256",
          "name": "",
          "type": "uint256"
        }
      ],
      "stateMutability": "view",
      "type": "function"
    },
    {
      "inputs": [
        {
          "internalType": "uint256",
          "name": "",
          "type": "uint256"
        }
      ],
      "name": "totalLoanTaken",
      "outputs": [
        {
          "internalType": "uint256",
          "name": "",
          "type": "uint256"
        }
      ],
      "stateMutability": "view",
      "type": "function"
    },
    {
      "inputs": [],
      "name": "transactionCount",
      "outputs": [
        {
          "internalType": "uint256",
          "name": "",
          "type": "uint256"
        }
      ],
      "stateMutability": "view",
      "type": "function"
    },
    {
      "inputs": [
        {
          "internalType": "uint256",
          "name": "",
          "type": "uint256"
        }
      ],
      "name": "transactions",
      "outputs": [
        {
          "internalType": "uint256",
          "name": "transactionId",
          "type": "uint256"
        },
        {
          "internalType": "address",
          "name": "iGamingCompany",
          "type": "address"
        },
        {
          "internalType": "bool",
          "name": "isGamingCompanySigned",
          "type": "bool"
        },
        {
          "internalType": "bool",
          "name": "approved",
          "type": "bool"
        },
        {
          "internalType": "bool",
          "name": "executed",
          "type": "bool"
        }
      ],
      "stateMutability": "view",
      "type": "function"
    },
    {
      "inputs": [
        {
          "internalType": "uint256[3]",
          "name": "amounts",
          "type": "uint256[3]"
        }
      ],
      "name": "requestLoan",
      "outputs": [],
      "stateMutability": "nonpayable",
      "type": "function"
    },
    {
      "inputs": [
        {
          "internalType": "uint256",
          "name": "_loanID",
          "type": "uint256"
        }
      ],
      "name": "signTransaction",
      "outputs": [],
      "stateMutability": "nonpayable",
      "type": "function"
    },
    {
      "inputs": [
        {
          "internalType": "uint256",
          "name": "_loanID",
          "type": "uint256"
        }
      ],
      "name": "confirmLoan",
      "outputs": [],
      "stateMutability": "nonpayable",
      "type": "function"
    },
    {
      "inputs": [
        {
          "internalType": "uint256[3]",
          "name": "amounts",
          "type": "uint256[3]"
        },
        {
          "internalType": "uint256",
          "name": "_loanID",
          "type": "uint256"
        }
      ],
      "name": "withdrawLoan",
      "outputs": [],
      "stateMutability": "nonpayable",
      "type": "function"
    },
    {
      "inputs": [
        {
          "internalType": "uint256[3]",
          "name": "_amounts",
          "type": "uint256[3]"
        },
        {
          "internalType": "uint256",
          "name": "_loanId",
          "type": "uint256"
        }
      ],
      "name": "repayLoan",
      "outputs": [],
      "stateMutability": "nonpayable",
      "type": "function"
    },
    {
      "inputs": [
        {
          "internalType": "uint256",
          "name": "_required",
          "type": "uint256"
        }
      ],
      "name": "setRequiredSignee",
      "outputs": [],
      "stateMutability": "nonpayable",
      "type": "function"
    },
    {
      "inputs": [
        {
          "internalType": "address",
          "name": "signee",
          "type": "address"
        }
      ],
      "name": "addSignee",
      "outputs": [],
      "stateMutability": "nonpayable",
      "type": "function"
    },
    {
      "inputs": [
        {
          "internalType": "address",
          "name": "signee",
          "type": "address"
        }
      ],
      "name": "removeSignee",
      "outputs": [],
      "stateMutability": "nonpayable",
      "type": "function"
    },
    {
      "inputs": [
        {
          "internalType": "uint256",
          "name": "_loanID",
          "type": "uint256"
        }
      ],
      "name": "getTransactionDetail",
      "outputs": [
        {
          "components": [
            {
              "internalType": "uint256",
              "name": "transactionId",
              "type": "uint256"
            },
            {
              "internalType": "address",
              "name": "iGamingCompany",
              "type": "address"
            },
            {
              "internalType": "bool",
              "name": "isGamingCompanySigned",
              "type": "bool"
            },
            {
              "internalType": "uint256[3]",
              "name": "tokenAmounts",
              "type": "uint256[3]"
            },
            {
              "internalType": "uint256[3]",
              "name": "remAmt",
              "type": "uint256[3]"
            },
            {
              "internalType": "bool",
              "name": "approved",
              "type": "bool"
            },
            {
              "internalType": "bool",
              "name": "executed",
              "type": "bool"
            }
          ],
          "internalType": "struct rLoan.Transaction",
          "name": "",
          "type": "tuple"
        }
      ],
      "stateMutability": "view",
      "type": "function"
    },
    {
      "inputs": [
        {
          "internalType": "uint256",
          "name": "_loanID",
          "type": "uint256"
        }
      ],
      "name": "checkLoanApproved",
      "outputs": [
        {
          "internalType": "bool",
          "name": "",
          "type": "bool"
        }
      ],
      "stateMutability": "view",
      "type": "function"
    },
    {
      "inputs": [
        {
          "internalType": "uint8",
          "name": "_number",
          "type": "uint8"
        }
      ],
      "name": "getTotalTakenLoan",
      "outputs": [
        {
          "internalType": "uint256",
          "name": "",
          "type": "uint256"
        }
      ],
      "stateMutability": "view",
      "type": "function"
    },
    {
      "inputs": [
        {
          "internalType": "uint8",
          "name": "_number",
          "type": "uint8"
        }
      ],
      "name": "getTotalApprovedLoan",
      "outputs": [
        {
          "internalType": "uint256",
          "name": "",
          "type": "uint256"
        }
      ],
      "stateMutability": "view",
      "type": "function"
    },
    {
      "inputs": [
        {
          "internalType": "address",
          "name": "_royale",
          "type": "address"
        }
      ],
      "name": "updateRoyalePool",
      "outputs": [],
      "stateMutability": "nonpayable",
      "type": "function"
    }
  ],
  "bytecode": "0x608060405260006009553480156200001657600080fd5b506040516200342e3803806200342e83398181016040528101906200003c9190620001e2565b33600c60006101000a81548173ffffffffffffffffffffffffffffffffffffffff021916908373ffffffffffffffffffffffffffffffffffffffff16021790555060005b600360ff168160ff1610156200014457828160ff1660038110620000a057fe5b602002015160008260ff1660038110620000b657fe5b0160006101000a81548173ffffffffffffffffffffffffffffffffffffffff021916908373ffffffffffffffffffffffffffffffffffffffff16021790555081600b60006101000a81548173ffffffffffffffffffffffffffffffffffffffff021916908373ffffffffffffffffffffffffffffffffffffffff160217905550808060010191505062000080565b505050620002c2565b6000815190506200015e81620002a8565b92915050565b600082601f8301126200017657600080fd5b60036200018d620001878262000251565b62000223565b91508183856020840282011115620001a457600080fd5b60005b83811015620001d85781620001bd88826200014d565b845260208401935060208301925050600181019050620001a7565b5050505092915050565b60008060808385031215620001f657600080fd5b6000620002068582860162000164565b925050606062000219858286016200014d565b9150509250929050565b6000604051905081810181811067ffffffffffffffff821117156200024757600080fd5b8060405250919050565b600067ffffffffffffffff8211156200026957600080fd5b602082029050919050565b6000620002818262000288565b9050919050565b600073ffffffffffffffffffffffffffffffffffffffff82169050919050565b620002b38162000274565b8114620002bf57600080fd5b50565b61315c80620002d26000396000f3fe608060405234801561001057600080fd5b50600436106101a95760003560e01c80638af81478116100f9578063b0580ce911610097578063d80a93d611610071578063d80a93d614610509578063dad9127414610539578063dc8452cd14610555578063f84fd9ef14610573576101a9565b8063b0580ce91461049f578063b77bf600146104bb578063cbd249f4146104d9576101a9565b80639b364162116100d35780639b364162146103f35780639ff512fa1461040f578063aa37dca21461043f578063ae8df6a61461046f576101a9565b80638af81478146103835780638f84aa09146103a15780639ace38c2146103bf576101a9565b80632f094632116101665780633d591bc2116101405780633d591bc2146102ff5780635d9ec2101461031b57806362a945d1146103375780637a325e5614610353576101a9565b80632f094632146102805780632fd040d61461029e578063398d1b9e146102ce576101a9565b80630385b581146101ae57806304971367146101de5780630f8cdd88146101fa57806310266c1c146102165780631880432a14610246578063277514e014610264575b600080fd5b6101c860048036038101906101c39190612541565b6105a3565b6040516101d59190612ca5565b60405180910390f35b6101f860048036038101906101f3919061265d565b6105c3565b005b610214600480360381019061020f9190612541565b610798565b005b610230600480360381019061022b919061265d565b6108e7565b60405161023d9190612e77565b60405180910390f35b61024e6108ff565b60405161025b9190612e77565b60405180910390f35b61027e600480360381019061027991906125cf565b610904565b005b610288610e4e565b6040516102959190612cc0565b60405180910390f35b6102b860048036038101906102b3919061256a565b610e74565b6040516102c59190612e77565b60405180910390f35b6102e860048036038101906102e3919061265d565b610ea2565b6040516102f6929190612ee5565b60405180910390f35b610319600480360381019061031491906125cf565b610ed3565b005b6103356004803603810190610330919061265d565b611408565b005b610351600480360381019061034c91906125a6565b611530565b005b61036d60048036038101906103689190612686565b6115fa565b60405161037a9190612e77565b60405180910390f35b61038b611615565b6040516103989190612e77565b60405180910390f35b6103a9611621565b6040516103b69190612bbb565b60405180910390f35b6103d960048036038101906103d4919061265d565b611647565b6040516103ea959493929190612e92565b60405180910390f35b61040d60048036038101906104089190612541565b6116c4565b005b6104296004803603810190610424919061265d565b611951565b6040516104369190612e5b565b60405180910390f35b6104596004803603810190610454919061265d565b611ab9565b6040516104669190612e77565b60405180910390f35b6104896004803603810190610484919061265d565b611ad1565b6040516104969190612ca5565b60405180910390f35b6104b960048036038101906104b4919061265d565b611afe565b005b6104c3611bda565b6040516104d09190612e77565b60405180910390f35b6104f360048036038101906104ee9190612686565b611be0565b6040516105009190612e77565b60405180910390f35b610523600480360381019061051e919061265d565b611bfb565b6040516105309190612bbb565b60405180910390f35b610553600480360381019061054e9190612541565b611c37565b005b61055d611cd5565b60405161056a9190612e77565b60405180910390f35b61058d6004803603810190610588919061256a565b611cdb565b60405161059a9190612ca5565b60405180910390f35b60066020528060005260406000206000915054906101000a900460ff1681565b33600660008273ffffffffffffffffffffffffffffffffffffffff1673ffffffffffffffffffffffffffffffffffffffff16815260200190815260200160002060009054906101000a900460ff1661061a57600080fd5b8160008111801561062d57506009548111155b61063657600080fd5b3383600460008373ffffffffffffffffffffffffffffffffffffffff1673ffffffffffffffffffffffffffffffffffffffff168152602001908152602001600020600082815260200190815260200160002060009054906101000a900460ff16156106a057600080fd5b6001600460003373ffffffffffffffffffffffffffffffffffffffff1673ffffffffffffffffffffffffffffffffffffffff168152602001908152602001600020600087815260200190815260200160002060006101000a81548160ff0219169083151502179055507f24e5bfa739656f6dd56210dbd8ccbfdabcae46f85752164562c69dffd61a320b338660405161073a929190612c53565b60405180910390a161074b85611d0a565b156107915761075985611e18565b7f7d4061e68fab364906497bb959d95ad3f052a3978fed6ce9942a2b8f737aae54856040516107889190612e77565b60405180910390a15b5050505050565b600c60009054906101000a900473ffffffffffffffffffffffffffffffffffffffff1673ffffffffffffffffffffffffffffffffffffffff163373ffffffffffffffffffffffffffffffffffffffff16146107f257600080fd5b6001600660008373ffffffffffffffffffffffffffffffffffffffff1673ffffffffffffffffffffffffffffffffffffffff16815260200190815260200160002060006101000a81548160ff0219169083151502179055506008819080600181540180825580915050600190039060005260206000200160009091909190916101000a81548173ffffffffffffffffffffffffffffffffffffffff021916908373ffffffffffffffffffffffffffffffffffffffff1602179055507fa0aa61ae85a95577b5775982299a5bfc418ef90f41d6bb03a7f2d5a6f7738eaf816040516108dc9190612bbb565b60405180910390a150565b600d81600381106108f457fe5b016000915090505481565b603281565b3373ffffffffffffffffffffffffffffffffffffffff166003600083815260200190815260200160002060010160009054906101000a900473ffffffffffffffffffffffffffffffffffffffff1673ffffffffffffffffffffffffffffffffffffffff16146109a8576040517f08c379a000000000000000000000000000000000000000000000000000000000815260040161099f90612d3b565b60405180910390fd5b6003600082815260200190815260200160002060080160009054906101000a900460ff16610a0b576040517f08c379a0000000000000000000000000000000000000000000000000000000008152600401610a0290612d9b565b60405180910390fd5b610a13612325565b60005b600360ff168160ff161015610aad57838160ff1660038110610a3457fe5b6020020135600360008581526020019081526020016000206005018260ff1660038110610a5d57fe5b01541015610aa0576040517f08c379a0000000000000000000000000000000000000000000000000000000008152600401610a9790612ddb565b60405180910390fd5b8080600101915050610a16565b506000600b60009054906101000a900473ffffffffffffffffffffffffffffffffffffffff1673ffffffffffffffffffffffffffffffffffffffff1663eacd7afc856003600087815260200190815260200160002060010160009054906101000a900473ffffffffffffffffffffffffffffffffffffffff166040518363ffffffff1660e01b8152600401610b43929190612c7c565b602060405180830381600087803b158015610b5d57600080fd5b505af1158015610b71573d6000803e3d6000fd5b505050506040513d601f19601f82011682018060405250810190610b959190612634565b905080610bd7576040517f08c379a0000000000000000000000000000000000000000000000000000000008152600401610bce90612d1b565b60405180910390fd5b6000805b600360ff168160ff161015610d42576000868260ff1660038110610bfb57fe5b60200201351115610cfe57858160ff1660038110610c1557fe5b6020020135600d8260ff1660038110610c2a57fe5b0160008282540192505081905550610c7a600360008781526020019081526020016000206005018260ff1660038110610c5f57fe5b0154878360ff1660038110610c7057fe5b60200201356120dd565b600360008781526020019081526020016000206005018260ff1660038110610c9e57fe5b0181905550610ce5600560008781526020019081526020016000206002018260ff1660038110610cca57fe5b0154878360ff1660038110610cdb57fe5b602002013561213c565b848260ff1660038110610cf457fe5b6020020181815250505b6000600360008781526020019081526020016000206005018260ff1660038110610d2457fe5b01541415610d355781806001019250505b8080600101915050610bdb565b50604051806060016040528085815260200160001515815260200184815250600560008681526020019081526020016000206000820151816000015560208201518160010160006101000a81548160ff021916908315150217905550604082015181600201906003610db5929190612347565b509050507f3fe87a796bb63522ae7b9008d51ff617ee24dbde9a0fac8ed85e5a29e781755633866003600088815260200190815260200160002060050187604051610e039493929190612bd6565b60405180910390a160038160ff161415610e475760016003600086815260200190815260200160002060080160016101000a81548160ff0219169083151502179055505b5050505050565b600b60009054906101000a900473ffffffffffffffffffffffffffffffffffffffff1681565b60076020528160005260406000208181548110610e8d57fe5b90600052602060002001600091509150505481565b60056020528060005260406000206000915090508060000154908060010160009054906101000a900460ff16905082565b600954811115610f18576040517f08c379a0000000000000000000000000000000000000000000000000000000008152600401610f0f90612dfb565b60405180910390fd5b3373ffffffffffffffffffffffffffffffffffffffff166003600083815260200190815260200160002060010160009054906101000a900473ffffffffffffffffffffffffffffffffffffffff1673ffffffffffffffffffffffffffffffffffffffff1614610fbc576040517f08c379a0000000000000000000000000000000000000000000000000000000008152600401610fb390612d3b565b60405180910390fd5b6005600082815260200190815260200160002060010160009054906101000a900460ff1615611020576040517f08c379a000000000000000000000000000000000000000000000000000000000815260040161101790612dbb565b60405180910390fd5b60005b600360ff168160ff1610156110ba57600560008381526020019081526020016000206002018160ff166003811061105657fe5b0154838260ff166003811061106757fe5b602002013511156110ad576040517f08c379a00000000000000000000000000000000000000000000000000000000081526004016110a490612d5b565b60405180910390fd5b8080600101915050611023565b506000600b60009054906101000a900473ffffffffffffffffffffffffffffffffffffffff1673ffffffffffffffffffffffffffffffffffffffff166380001288846003600086815260200190815260200160002060010160009054906101000a900473ffffffffffffffffffffffffffffffffffffffff166040518363ffffffff1660e01b8152600401611150929190612c7c565b602060405180830381600087803b15801561116a57600080fd5b505af115801561117e573d6000803e3d6000fd5b505050506040513d601f19601f820116820180604052508101906111a29190612634565b9050806111e4576040517f08c379a00000000000000000000000000000000000000000000000000000000081526004016111db90612cdb565b60405180910390fd5b6000805b600360ff1681101561132457600085826003811061120257fe5b60200201351461131757611234600d826003811061121c57fe5b015486836003811061122a57fe5b60200201356120dd565b600d826003811061124157fe5b018190555061126e6010826003811061125657fe5b015486836003811061126457fe5b60200201356120dd565b6010826003811061127b57fe5b01819055506112bc6005600086815260200190815260200160002060020182600381106112a457fe5b01548683600381106112b257fe5b60200201356120dd565b6005600086815260200190815260200160002060020182600381106112dd57fe5b0181905550600060056000868152602001908152602001600020600201826003811061130557fe5b015414156113165781806001019250505b5b80806001019150506111e8565b507ffe337a99fc07b4422a06a40fb4728125523f3c0977d012d21e3eb9f89edfd3603385600560008781526020019081526020016000206002018660405161136f9493929190612bd6565b60405180910390a160038114156114025760016005600085815260200190815260200160002060010160006101000a81548160ff0219169083151502179055507f57d01a01ec1287fb00888c92856cb0f45352809b7a5350fdd677ce76f7826299338560056000878152602001908152602001600020600201866040516113f99493929190612bd6565b60405180910390a15b50505050565b3373ffffffffffffffffffffffffffffffffffffffff166003600083815260200190815260200160002060010160009054906101000a900473ffffffffffffffffffffffffffffffffffffffff1673ffffffffffffffffffffffffffffffffffffffff161461147657600080fd5b60016003600083815260200190815260200160002060010160146101000a81548160ff0219169083151502179055507f24e5bfa739656f6dd56210dbd8ccbfdabcae46f85752164562c69dffd61a320b33826040516114d6929190612c53565b60405180910390a16114e781611d0a565b1561152d576114f581611e18565b7f7d4061e68fab364906497bb959d95ad3f052a3978fed6ce9942a2b8f737aae54816040516115249190612e77565b60405180910390a15b50565b600a54600880549050101561157a576040517f08c379a000000000000000000000000000000000000000000000000000000000815260040161157190612d7b565b60405180910390fd5b6115ba816003806020026040519081016040528092919082600360200280828437600081840152601f19601f820116905080830192505050505050612191565b7f6825b4653b0626e0268f9c124dce0ea5cc6f826ccb2cf314459bd1c62cf011f733826009546040516115ef93929190612c1c565b60405180910390a150565b6000600d8260ff166003811061160c57fe5b01549050919050565b670de0b6b3a764000081565b600c60009054906101000a900473ffffffffffffffffffffffffffffffffffffffff1681565b60036020528060005260406000206000915090508060000154908060010160009054906101000a900473ffffffffffffffffffffffffffffffffffffffff16908060010160149054906101000a900460ff16908060080160009054906101000a900460ff16908060080160019054906101000a900460ff16905085565b600c60009054906101000a900473ffffffffffffffffffffffffffffffffffffffff1673ffffffffffffffffffffffffffffffffffffffff163373ffffffffffffffffffffffffffffffffffffffff161461171e57600080fd5b80600660008273ffffffffffffffffffffffffffffffffffffffff1673ffffffffffffffffffffffffffffffffffffffff16815260200190815260200160002060009054906101000a900460ff1661177557600080fd5b6000600660008473ffffffffffffffffffffffffffffffffffffffff1673ffffffffffffffffffffffffffffffffffffffff16815260200190815260200160002060006101000a81548160ff02191690831515021790555060005b6001600880549050038110156118f2578273ffffffffffffffffffffffffffffffffffffffff166008828154811061180457fe5b9060005260206000200160009054906101000a900473ffffffffffffffffffffffffffffffffffffffff1673ffffffffffffffffffffffffffffffffffffffff1614156118e55760086001600880549050038154811061186057fe5b9060005260206000200160009054906101000a900473ffffffffffffffffffffffffffffffffffffffff166008828154811061189857fe5b9060005260206000200160006101000a81548173ffffffffffffffffffffffffffffffffffffffff021916908373ffffffffffffffffffffffffffffffffffffffff1602179055506118f2565b80806001019150506117d0565b50600880549050600a54111561191657600a60008154809291906001900391905055505b7f95cd0920c0aa5e5da987ebe563a4f26fc5143a4c65e89cc8b1b3a23e2d7fa5ff826040516119459190612bbb565b60405180910390a15050565b611959612387565b600360008381526020019081526020016000206040518060e0016040529081600082015481526020016001820160009054906101000a900473ffffffffffffffffffffffffffffffffffffffff1673ffffffffffffffffffffffffffffffffffffffff1673ffffffffffffffffffffffffffffffffffffffff1681526020016001820160149054906101000a900460ff1615151515815260200160028201600380602002604051908101604052809291908260038015611a2e576020028201915b815481526020019060010190808311611a1a575b5050505050815260200160058201600380602002604051908101604052809291908260038015611a73576020028201915b815481526020019060010190808311611a5f575b505050505081526020016008820160009054906101000a900460ff161515151581526020016008820160019054906101000a900460ff1615151515815250509050919050565b60108160038110611ac657fe5b016000915090505481565b60006003600083815260200190815260200160002060080160009054906101000a900460ff169050919050565b600c60009054906101000a900473ffffffffffffffffffffffffffffffffffffffff1673ffffffffffffffffffffffffffffffffffffffff163373ffffffffffffffffffffffffffffffffffffffff1614611b5857600080fd5b6008805490508160328211158015611b705750818111155b8015611b7d575060008114155b8015611b8a575060008214155b611b9357600080fd5b82600a819055507f3eeb9a927605685a0c44838616e4c196655b47d4019656c814bbf5743d1e25cc33600a54604051611bcd929190612c53565b60405180910390a1505050565b60095481565b600060108260ff1660038110611bf257fe5b01549050919050565b60088181548110611c0857fe5b906000526020600020016000915054906101000a900473ffffffffffffffffffffffffffffffffffffffff1681565b600c60009054906101000a900473ffffffffffffffffffffffffffffffffffffffff1673ffffffffffffffffffffffffffffffffffffffff163373ffffffffffffffffffffffffffffffffffffffff1614611c9157600080fd5b80600b60006101000a81548173ffffffffffffffffffffffffffffffffffffffff021916908373ffffffffffffffffffffffffffffffffffffffff16021790555050565b600a5481565b60046020528160005260406000206020528060005260406000206000915091509054906101000a900460ff1681565b6000806000905060005b600880549050811015611e10576004600060088381548110611d3257fe5b9060005260206000200160009054906101000a900473ffffffffffffffffffffffffffffffffffffffff1673ffffffffffffffffffffffffffffffffffffffff1673ffffffffffffffffffffffffffffffffffffffff168152602001908152602001600020600085815260200190815260200160002060009054906101000a900460ff1615611dc2576001820191505b600a5482148015611df357506003600085815260200190815260200160002060010160149054906101000a900460ff165b15611e0357600192505050611e13565b8080600101915050611d14565b50505b919050565b611e20612325565b600b60009054906101000a900473ffffffffffffffffffffffffffffffffffffffff1673ffffffffffffffffffffffffffffffffffffffff1663233fc9a26040518163ffffffff1660e01b815260040160606040518083038186803b158015611e8857600080fd5b505afa158015611e9c573d6000803e3d6000fd5b505050506040513d601f19601f82011682018060405250810190611ec0919061260b565b905060005b600360ff168160ff161015611f6e57818160ff1660038110611ee357fe5b6020020151600360008581526020019081526020016000206002018260ff1660038110611f0c57fe5b015460108360ff1660038110611f1e57fe5b01540110611f61576040517f08c379a0000000000000000000000000000000000000000000000000000000008152600401611f5890612cfb565b60405180910390fd5b8080600101915050611ec5565b5060016003600084815260200190815260200160002060080160006101000a81548160ff0219169083151502179055506003600083815260200190815260200160002060020160036000848152602001908152602001600020600501906003611fd89291906123ec565b5060005b600360ff168160ff16101561203c57600360008481526020019081526020016000206002018160ff166003811061200f57fe5b015460108260ff166003811061202157fe5b01600082825401925050819055508080600101915050611fdc565b50600760006003600085815260200190815260200160002060010160009054906101000a900473ffffffffffffffffffffffffffffffffffffffff1673ffffffffffffffffffffffffffffffffffffffff1673ffffffffffffffffffffffffffffffffffffffff1681526020019081526020016000208290806001815401808255809150506001900390600052602060002001600090919091909150555050565b60008060006120ec85856122fc565b915091508015612131576040517f08c379a000000000000000000000000000000000000000000000000000000000815260040161212890612e1b565b60405180910390fd5b819250505092915050565b600080828401905083811015612187576040517f08c379a000000000000000000000000000000000000000000000000000000000815260040161217e90612e3b565b60405180910390fd5b8091505092915050565b612199612325565b6009600081548092919060010191905055506040518060e0016040528060095481526020013373ffffffffffffffffffffffffffffffffffffffff168152602001600015158152602001838152602001828152602001600015158152602001600015158152506003600060095481526020019081526020016000206000820151816000015560208201518160010160006101000a81548173ffffffffffffffffffffffffffffffffffffffff021916908373ffffffffffffffffffffffffffffffffffffffff16021790555060408201518160010160146101000a81548160ff02191690831515021790555060608201518160020190600361229c929190612347565b506080820151816005019060036122b4929190612347565b5060a08201518160080160006101000a81548160ff02191690831515021790555060c08201518160080160016101000a81548160ff0219169083151502179055509050505050565b6000808284106123145782840360009150915061231e565b8383036001915091505b9250929050565b6040518060600160405280600390602082028036833780820191505090505090565b8260038101928215612376579160200282015b8281111561237557825182559160200191906001019061235a565b5b5090506123839190612429565b5090565b6040518060e0016040528060008152602001600073ffffffffffffffffffffffffffffffffffffffff1681526020016000151581526020016123c7612325565b81526020016123d4612325565b81526020016000151581526020016000151581525090565b8260038101928215612418579182015b828111156124175782548255916001019190600101906123fc565b5b5090506124259190612429565b5090565b5b8082111561244257600081600090555060010161242a565b5090565b600081359050612455816130ca565b92915050565b60008190508260206003028201111561247357600080fd5b92915050565b600082601f83011261248a57600080fd5b600361249d61249882612f3b565b612f0e565b915081838560208402820111156124b357600080fd5b60005b838110156124e357816124c98882612517565b8452602084019350602083019250506001810190506124b6565b5050505092915050565b6000815190506124fc816130e1565b92915050565b600081359050612511816130f8565b92915050565b600081519050612526816130f8565b92915050565b60008135905061253b8161310f565b92915050565b60006020828403121561255357600080fd5b600061256184828501612446565b91505092915050565b6000806040838503121561257d57600080fd5b600061258b85828601612446565b925050602061259c85828601612502565b9150509250929050565b6000606082840312156125b857600080fd5b60006125c68482850161245b565b91505092915050565b600080608083850312156125e257600080fd5b60006125f08582860161245b565b925050606061260185828601612502565b9150509250929050565b60006060828403121561261d57600080fd5b600061262b84828501612479565b91505092915050565b60006020828403121561264657600080fd5b6000612654848285016124ed565b91505092915050565b60006020828403121561266f57600080fd5b600061267d84828501612502565b91505092915050565b60006020828403121561269857600080fd5b60006126a68482850161252c565b91505092915050565b60006126bb8383612b9d565b60208301905092915050565b6126d081613027565b82525050565b6126df81612fd2565b82525050565b6126ee81612fd2565b82525050565b61270060608383613081565b5050565b61270d81612f71565b6127178184612fa1565b925061272282612f5d565b8060005b8381101561275357815161273a87826126af565b965061274583612f87565b925050600181019050612726565b505050505050565b61276481612f7c565b61276e8184612fac565b925061277982612f67565b8060005b838110156127b15761278e826130aa565b61279887826126af565b96506127a383612f94565b92505060018101905061277d565b505050505050565b6127c281612fe4565b82525050565b6127d181612fe4565b82525050565b6127e081613039565b82525050565b60006127f3600f83612fb7565b91507f72657061796d656e74206572726f7200000000000000000000000000000000006000830152602082019050919050565b6000612833602083612fb7565b91507f43616e206e6f7420617070726f76652074686174206d75636820616d6f756e746000830152602082019050919050565b6000612873601c83612fb7565b91507f4c6f616e205769746864726177206e6f742073756363657366756c6c000000006000830152602082019050919050565b60006128b3601183612fb7565b91507f636f6d70616e79206e6f742d65786973740000000000000000000000000000006000830152602082019050919050565b60006128f3601383612fb7565b91507f65786365737320706179207472616e73666572000000000000000000000000006000830152602082019050919050565b6000612933601483612fb7565b91507f696e73756666696369656e74207369676e6565730000000000000000000000006000830152602082019050919050565b6000612973601583612fb7565b91507f6e6f7420617070726f76656420666f72206c6f616e00000000000000000000006000830152602082019050919050565b60006129b3600e83612fb7565b91507f616c7265616479207265706169640000000000000000000000000000000000006000830152602082019050919050565b60006129f3602883612fb7565b91507f616d6f756e7420726571756573746564206578636565647320616d6f756e742060008301527f617070726f7665640000000000000000000000000000000000000000000000006020830152604082019050919050565b6000612a59600f83612fb7565b91507f696e76616c6964206c6f616e20696400000000000000000000000000000000006000830152602082019050919050565b6000612a99601183612fb7565b91507f4552525f5355425f554e444552464c4f570000000000000000000000000000006000830152602082019050919050565b6000612ad9601083612fb7565b91507f4552525f4144445f4f564552464c4f57000000000000000000000000000000006000830152602082019050919050565b61016082016000820151612b236000850182612b9d565b506020820151612b3660208501826126d6565b506040820151612b4960408501826127b9565b506060820151612b5c6060850182612704565b506080820151612b6f60c0850182612704565b5060a0820151612b836101208501826127b9565b5060c0820151612b976101408501826127b9565b50505050565b612ba681613010565b82525050565b612bb581613010565b82525050565b6000602082019050612bd060008301846126e5565b92915050565b600061010082019050612bec60008301876126c7565b612bf960208301866126f4565b612c06608083018561275b565b612c1360e0830184612bac565b95945050505050565b600060a082019050612c3160008301866126c7565b612c3e60208301856126f4565b612c4b6080830184612bac565b949350505050565b6000604082019050612c6860008301856126c7565b612c756020830184612bac565b9392505050565b6000608082019050612c9160008301856126f4565b612c9e60608301846126e5565b9392505050565b6000602082019050612cba60008301846127c8565b92915050565b6000602082019050612cd560008301846127d7565b92915050565b60006020820190508181036000830152612cf4816127e6565b9050919050565b60006020820190508181036000830152612d1481612826565b9050919050565b60006020820190508181036000830152612d3481612866565b9050919050565b60006020820190508181036000830152612d54816128a6565b9050919050565b60006020820190508181036000830152612d74816128e6565b9050919050565b60006020820190508181036000830152612d9481612926565b9050919050565b60006020820190508181036000830152612db481612966565b9050919050565b60006020820190508181036000830152612dd4816129a6565b9050919050565b60006020820190508181036000830152612df4816129e6565b9050919050565b60006020820190508181036000830152612e1481612a4c565b9050919050565b60006020820190508181036000830152612e3481612a8c565b9050919050565b60006020820190508181036000830152612e5481612acc565b9050919050565b600061016082019050612e716000830184612b0c565b92915050565b6000602082019050612e8c6000830184612bac565b92915050565b600060a082019050612ea76000830188612bac565b612eb460208301876126e5565b612ec160408301866127c8565b612ece60608301856127c8565b612edb60808301846127c8565b9695505050505050565b6000604082019050612efa6000830185612bac565b612f0760208301846127c8565b9392505050565b6000604051905081810181811067ffffffffffffffff82111715612f3157600080fd5b8060405250919050565b600067ffffffffffffffff821115612f5257600080fd5b602082029050919050565b6000819050919050565b6000819050919050565b600060039050919050565b600060039050919050565b6000602082019050919050565b6000600182019050919050565b600081905092915050565b600081905092915050565b600082825260208201905092915050565b6000819050919050565b6000612fdd82612ff0565b9050919050565b60008115159050919050565b600073ffffffffffffffffffffffffffffffffffffffff82169050919050565b6000819050919050565b600060ff82169050919050565b60006130328261305d565b9050919050565b60006130448261304b565b9050919050565b600061305682612ff0565b9050919050565b60006130688261306f565b9050919050565b600061307a82612ff0565b9050919050565b82818337600083830152505050565b60006130a361309e836130bd565b612fc8565b9050919050565b60006130b68254613090565b9050919050565b60008160001c9050919050565b6130d381612fd2565b81146130de57600080fd5b50565b6130ea81612fe4565b81146130f557600080fd5b50565b61310181613010565b811461310c57600080fd5b50565b6131188161301a565b811461312357600080fd5b5056fea264697066735822122051bd47432b310fa364ba29cf088e8f7c12b40a447b56e971426d8cf2b88008bc64736f6c634300060c0033",
  "immutableReferences": {},
  "source": "// SPDX-License-Identifier: UNLICENSED\r\npragma solidity ^0.6.0;\r\npragma experimental ABIEncoderV2;\r\n\r\nimport '../Interfaces/Erc20Interface.sol';\r\nimport '../Interfaces/RoyaleInterface.sol';\r\nimport './MathLib.sol';\r\n\r\n\r\ncontract rLoan is rNum{\r\n    uint8 constant N_COINS = 3;\r\n    \r\n    Erc20[N_COINS] tokens;\r\n\r\n    uint constant public MAX_SIGNEE_COUNT = 50;\r\n    \r\n    mapping(uint256 => Transaction) public transactions;\r\n    mapping(address => mapping (uint256 => bool)) public confirmations;\r\n    mapping(uint256 => Repayment) public gamingCompanyRepayment;\r\n    mapping(address => bool) public isSignee;\r\n  \r\n    mapping(address => uint[])public takenLoan;\r\n    address[] public signees;\r\n    uint256 public transactionCount = 0;\r\n   \r\n    uint256 public required;\r\n\r\n    RoyaleInterface public royale;\r\n\r\n    address public ownerAddress;\r\n\r\n    uint256[N_COINS] public totalLoanTaken;\r\n    uint256[N_COINS] public totalApprovedLoan;\r\n    \r\n    struct Transaction {\r\n        uint256 transactionId;\r\n        address iGamingCompany;\r\n        bool isGamingCompanySigned;\r\n        uint256[N_COINS] tokenAmounts;\r\n        uint256[N_COINS] remAmt;\r\n        bool approved;\r\n        bool executed;\r\n    }\r\n\r\n    struct Repayment {\r\n        uint256 transactionID;\r\n        bool isRepaymentDone;\r\n        uint256[N_COINS] remainingTokenAmounts;\r\n    }\r\n\r\n\r\n    /* Events */\r\n\r\n    event loanRequested(\r\n        address by,\r\n        uint[N_COINS] amounts,\r\n        uint loanID\r\n    );\r\n\r\n    event signed(\r\n        address signee,\r\n        uint loanID\r\n    );\r\n\r\n    event approved(\r\n        uint loanID\r\n    );\r\n\r\n    event addedRequiredSignee(\r\n        address adder,\r\n        uint numberOfSignees\r\n    );\r\n\r\n    event signeeAdded(\r\n        address signee\r\n    );\r\n\r\n    event signeeRemoved(\r\n        address signee\r\n    );\r\n\r\n    event loanWithdrawn(\r\n        address by,\r\n        uint[N_COINS] requestedAmount,\r\n        uint[N_COINS] remainingAmount,\r\n        uint loanID\r\n    );\r\n\r\n    event loanFulfilled(\r\n        address by,\r\n        uint[N_COINS] requestedAmount,\r\n        uint[N_COINS] remainingAmount,\r\n        uint loanID\r\n    );\r\n\r\n    event loanRepayed(\r\n        address by,\r\n        uint[N_COINS] repayedAmount,\r\n        uint[N_COINS] amountRemaining,\r\n        uint loanID\r\n    );\r\n\r\n    event wholeLoanRepayed(\r\n        address by,\r\n        uint[N_COINS] repayedAmount,\r\n        uint[N_COINS] amountRemaining,\r\n        uint loanID\r\n    );\r\n\r\n    /* Modifiers */\r\n\r\n    modifier onlyOwner {\r\n        require(msg.sender == ownerAddress);\r\n        _;\r\n    }\r\n\r\n    modifier signeeExists(address signee) {\r\n        require(isSignee[signee]);\r\n        _;\r\n    }\r\n\r\n    modifier transactionExists(uint _loanID) {\r\n        require(_loanID > 0 && _loanID <= transactionCount);\r\n        _;\r\n    }\r\n\r\n    modifier notConfirmed(address addr,uint _loanID) {\r\n        require(!confirmations[addr][_loanID]);\r\n        _;\r\n    }\r\n\r\n    modifier validRequirement(uint signeeCount, uint _required) {\r\n        require(signeeCount <= MAX_SIGNEE_COUNT\r\n            && _required <= signeeCount\r\n            && _required != 0\r\n            && signeeCount != 0);\r\n        _;\r\n    }\r\n\r\n\r\n    constructor(address[N_COINS] memory _tokens , address _royale) public {\r\n        ownerAddress = msg.sender;\r\n\r\n        // Set Tokens supported by Pool\r\n        for(uint8 i=0; i<N_COINS; i++) {\r\n            tokens[i] = Erc20(_tokens[i]);\r\n            royale = RoyaleInterface(_royale);\r\n        }\r\n    }\r\n\r\n    /* Internal Functions */\r\n\r\n    function _addTransaction(\r\n       uint256[N_COINS] memory amounts\r\n    ) internal {\r\n        uint256[N_COINS] memory zero;\r\n\r\n        transactionCount++;\r\n        transactions[transactionCount] = Transaction({\r\n            transactionId: transactionCount,\r\n            iGamingCompany: msg.sender,\r\n            tokenAmounts: amounts,\r\n            remAmt: zero,\r\n            isGamingCompanySigned: false,\r\n            approved: false,\r\n            executed: false\r\n        });\r\n        \r\n    }\r\n\r\n    function _approveLoan(uint _loanID) internal {\r\n        uint256[N_COINS] memory am=royale.getTotalPoolBalance();\r\n        for(uint8 i=0;i<N_COINS;i++) {\r\n            require(totalApprovedLoan[i]+transactions[_loanID].tokenAmounts[i]<am[i],\"Can not approve that much amount\");\r\n        }\r\n\r\n        transactions[_loanID].approved = true;\r\n        transactions[_loanID].remAmt = transactions[_loanID].tokenAmounts;\r\n\r\n        for(uint8 i=0;i<N_COINS;i++){\r\n            totalApprovedLoan[i] +=transactions[_loanID].tokenAmounts[i];\r\n        }\r\n        takenLoan[transactions[_loanID].iGamingCompany].push(_loanID);\r\n    }\r\n\r\n    function _isConfirmed(\r\n        uint _loanID\r\n    ) internal view returns (bool) {\r\n        uint count = 0;\r\n        for (uint i=0; i<signees.length; i++) {\r\n            if (confirmations[signees[i]][_loanID])\r\n                count += 1;\r\n            if (count == required && transactions[_loanID].isGamingCompanySigned)\r\n                return true;\r\n        }\r\n    }\r\n\r\n  \r\n    /* USER FUNCTIONS (exposed to frontend) */\r\n\r\n    // Gaming platforms withdraw using this\r\n    function requestLoan(\r\n        uint256[N_COINS] calldata amounts\r\n    ) external  {\r\n       require(signees.length >= required, \"insufficient signees\");\r\n       _addTransaction(amounts);\r\n\r\n       emit loanRequested(msg.sender, amounts, transactionCount);\r\n    }\r\n    \r\n    \r\n    // Gaming Platforms signs using this\r\n    function signTransaction(uint _loanID) public {\r\n        require(transactions[_loanID].iGamingCompany == msg.sender);\r\n        \r\n        transactions[_loanID].isGamingCompanySigned = true;\r\n\r\n        emit signed(msg.sender, _loanID);\r\n\r\n        if(_isConfirmed(_loanID)) {\r\n           _approveLoan(_loanID);\r\n           emit approved(_loanID);\r\n        }\r\n    }\r\n    \r\n    // Signee signs using this\r\n    function confirmLoan(uint _loanID) public\r\n        signeeExists(msg.sender)\r\n        transactionExists(_loanID)\r\n        notConfirmed( msg.sender,_loanID) \r\n    {\r\n        confirmations[msg.sender][_loanID] = true;\r\n        \r\n        emit signed(msg.sender, _loanID);\r\n\r\n        if(_isConfirmed(_loanID)) {\r\n           _approveLoan(_loanID);\r\n           emit approved(_loanID);\r\n        }\r\n    }\r\n\r\n\r\n    function withdrawLoan( \r\n        uint256[N_COINS] calldata amounts,\r\n        uint _loanID\r\n    ) external {\r\n\r\n        require(transactions[_loanID].iGamingCompany == msg.sender, \"company not-exist\");\r\n        require(transactions[_loanID].approved, \"not approved for loan\");\r\n\r\n        uint256[N_COINS] memory loanAmount;\r\n\r\n        for(uint8 i=0; i<N_COINS; i++) {\r\n            require(\r\n                transactions[_loanID].remAmt[i] >= amounts[i], \r\n                \"amount requested exceeds amount approved\"\r\n            );\r\n        }\r\n\r\n        bool b = royale._loanWithdraw(amounts,transactions[_loanID].iGamingCompany);\r\n        require(b, \"Loan Withdraw not succesfull\");\r\n\r\n        uint8 check = 0;\r\n        for(uint8 i=0; i<N_COINS; i++) {\r\n            if(amounts[i] > 0) {\r\n                totalLoanTaken[i] += amounts[i];\r\n                transactions[_loanID].remAmt[i] =bsub(transactions[_loanID].remAmt[i], amounts[i]);\r\n                loanAmount[i]=badd(gamingCompanyRepayment[_loanID].remainingTokenAmounts[i],amounts[i]);\r\n            }\r\n            if(transactions[_loanID].remAmt[i] == 0) {\r\n                check++;\r\n            }\r\n        }\r\n\r\n        gamingCompanyRepayment[_loanID] = Repayment({\r\n                  transactionID: _loanID,\r\n                  isRepaymentDone: false,\r\n                  remainingTokenAmounts: loanAmount\r\n        });\r\n\r\n\r\n        emit loanWithdrawn(msg.sender, amounts, transactions[_loanID].remAmt, _loanID);\r\n\r\n        if(check == 3) {\r\n            // Loan fulfilled, company used all its loan\r\n            transactions[_loanID].executed = true;\r\n        }\r\n    } \r\n    \r\n    \r\n    function repayLoan(\r\n        uint256[N_COINS] calldata _amounts, \r\n        uint _loanId\r\n    ) external {\r\n        require(_loanId <= transactionCount, \"invalid loan id\");\r\n        require(transactions[_loanId].iGamingCompany == msg.sender, \"company not-exist\");\r\n        require(!gamingCompanyRepayment[_loanId].isRepaymentDone, \"already repaid\");\r\n\r\n        for(uint8 i=0;i<N_COINS;i++){\r\n            require(_amounts[i]<=gamingCompanyRepayment[_loanId].remainingTokenAmounts[i],\"excess pay transfer\");\r\n        }\r\n\r\n        bool b = royale._loanRepayment(_amounts,transactions[_loanId].iGamingCompany);\r\n        require(b,\"repayment error\");\r\n\r\n        uint counter=0;\r\n        for(uint i=0;i<N_COINS;i++) {\r\n            if(_amounts[i]!=0) {\r\n                totalLoanTaken[i] =bsub(totalLoanTaken[i],_amounts[i]);\r\n                totalApprovedLoan[i]=bsub(totalApprovedLoan[i],_amounts[i]);\r\n                gamingCompanyRepayment[_loanId].remainingTokenAmounts[i] =bsub(gamingCompanyRepayment[_loanId].remainingTokenAmounts[i], _amounts[i]);\r\n                if(gamingCompanyRepayment[_loanId].remainingTokenAmounts[i] == 0) {\r\n                    counter++;\r\n                }\r\n            }\r\n        }\r\n\r\n        emit loanRepayed(\r\n            msg.sender,\r\n            _amounts, \r\n            gamingCompanyRepayment[_loanId].remainingTokenAmounts,\r\n            _loanId\r\n        );\r\n\r\n            if(counter==3){\r\n                gamingCompanyRepayment[_loanId].isRepaymentDone=true;\r\n\r\n                emit wholeLoanRepayed(\r\n                    msg.sender,\r\n                    _amounts, \r\n                    gamingCompanyRepayment[_loanId].remainingTokenAmounts,\r\n                    _loanId\r\n                );\r\n            }       \r\n    }\r\n\r\n    /* Admin Function */\r\n    \r\n    function setRequiredSignee(\r\n        uint _required\r\n    ) public onlyOwner validRequirement(signees.length, _required) {\r\n        required = _required;\r\n\r\n        emit addedRequiredSignee(msg.sender, required);\r\n    }\r\n\r\n    function addSignee(address signee) public onlyOwner {\r\n        isSignee[signee] = true;\r\n        signees.push(signee);\r\n\r\n        emit signeeAdded(signee);\r\n    }\r\n    \r\n    function removeSignee(address signee) public onlyOwner signeeExists(signee) {\r\n        isSignee[signee] = false;\r\n        for (uint i=0; i<signees.length - 1; i++) {\r\n            if (signees[i] == signee) {\r\n                signees[i] = signees[signees.length - 1];\r\n                break;\r\n            }\r\n        }\r\n        \r\n        if (required > signees.length) {\r\n            required--;\r\n        }\r\n\r\n        emit signeeRemoved(signee);\r\n    } \r\n\r\n\r\n    function getTransactionDetail(uint _loanID) public view returns(Transaction memory){\r\n        return transactions[_loanID];\r\n    }\r\n\r\n    function checkLoanApproved(uint _loanID) external view returns(bool) {\r\n        return transactions[_loanID].approved;\r\n    }\r\n\r\n    function getTotalTakenLoan(uint8 _number)public view returns(uint){\r\n        return totalLoanTaken[_number];\r\n    }\r\n\r\n    function getTotalApprovedLoan(uint8 _number)public view returns(uint){\r\n        return totalApprovedLoan[_number];\r\n    }\r\n\r\n\r\n    function updateRoyalePool(address _royale) public onlyOwner {\r\n        royale = RoyaleInterface(_royale);\r\n    }\r\n\r\n}",
  "sourcePath": "C:/Users/MayankVats/Desktop/WORK/blockchain/Royale/rlp/contracts/rLoan.sol",
  "compiler": {
    "name": "solc",
    "version": "0.6.12+commit.27d51765.Emscripten.clang"
  },
  "schemaVersion": "3.3.2",
  "updatedAt": "2020-12-29T04:27:56.419Z",
  "devdoc": {
    "kind": "dev",
    "methods": {},
    "version": 1
  },
  "userdoc": {
    "kind": "user",
    "methods": {},
    "version": 1
  }
}