{
  "contractName": "rLoan",
  "abi": [
    {
      "inputs": [
        {
          "internalType": "address[3]",
          "name": "_tokens",
          "type": "address[3]"
        },
        {
          "internalType": "address",
          "name": "_royale",
          "type": "address"
        },
        {
          "internalType": "address",
          "name": "_multiSig",
          "type": "address"
        }
      ],
      "stateMutability": "nonpayable",
      "type": "constructor"
    },
    {
      "anonymous": false,
      "inputs": [
        {
          "indexed": false,
          "internalType": "uint256",
          "name": "loanID",
          "type": "uint256"
        }
      ],
      "name": "approved",
      "type": "event"
    },
    {
      "anonymous": false,
      "inputs": [
        {
          "indexed": false,
          "internalType": "address",
          "name": "by",
          "type": "address"
        },
        {
          "indexed": false,
          "internalType": "uint256[3]",
          "name": "requestedAmount",
          "type": "uint256[3]"
        },
        {
          "indexed": false,
          "internalType": "uint256[3]",
          "name": "remainingAmount",
          "type": "uint256[3]"
        },
        {
          "indexed": false,
          "internalType": "uint256",
          "name": "loanID",
          "type": "uint256"
        }
      ],
      "name": "loanFulfilled",
      "type": "event"
    },
    {
      "anonymous": false,
      "inputs": [
        {
          "indexed": false,
          "internalType": "address",
          "name": "by",
          "type": "address"
        },
        {
          "indexed": false,
          "internalType": "uint256[3]",
          "name": "repayedAmount",
          "type": "uint256[3]"
        },
        {
          "indexed": false,
          "internalType": "uint256[3]",
          "name": "amountRemaining",
          "type": "uint256[3]"
        },
        {
          "indexed": false,
          "internalType": "uint256",
          "name": "loanID",
          "type": "uint256"
        }
      ],
      "name": "loanRepayed",
      "type": "event"
    },
    {
      "anonymous": false,
      "inputs": [
        {
          "indexed": false,
          "internalType": "address",
          "name": "by",
          "type": "address"
        },
        {
          "indexed": false,
          "internalType": "uint256[3]",
          "name": "amounts",
          "type": "uint256[3]"
        },
        {
          "indexed": false,
          "internalType": "uint256",
          "name": "loanID",
          "type": "uint256"
        }
      ],
      "name": "loanRequested",
      "type": "event"
    },
    {
      "anonymous": false,
      "inputs": [
        {
          "indexed": false,
          "internalType": "address",
          "name": "by",
          "type": "address"
        },
        {
          "indexed": false,
          "internalType": "uint256[3]",
          "name": "requestedAmount",
          "type": "uint256[3]"
        },
        {
          "indexed": false,
          "internalType": "uint256[3]",
          "name": "remainingAmount",
          "type": "uint256[3]"
        },
        {
          "indexed": false,
          "internalType": "uint256",
          "name": "loanID",
          "type": "uint256"
        }
      ],
      "name": "loanWithdrawn",
      "type": "event"
    },
    {
      "anonymous": false,
      "inputs": [
        {
          "indexed": false,
          "internalType": "address",
          "name": "owner",
          "type": "address"
        },
        {
          "indexed": false,
          "internalType": "uint256",
          "name": "loanID",
          "type": "uint256"
        }
      ],
      "name": "signed",
      "type": "event"
    },
    {
      "anonymous": false,
      "inputs": [
        {
          "indexed": false,
          "internalType": "address",
          "name": "by",
          "type": "address"
        },
        {
          "indexed": false,
          "internalType": "uint256[3]",
          "name": "repayedAmount",
          "type": "uint256[3]"
        },
        {
          "indexed": false,
          "internalType": "uint256[3]",
          "name": "amountRemaining",
          "type": "uint256[3]"
        },
        {
          "indexed": false,
          "internalType": "uint256",
          "name": "loanID",
          "type": "uint256"
        }
      ],
      "name": "wholeLoanRepayed",
      "type": "event"
    },
    {
      "inputs": [],
      "name": "BASE_DECIMAL",
      "outputs": [
        {
          "internalType": "uint256",
          "name": "",
          "type": "uint256"
        }
      ],
      "stateMutability": "view",
      "type": "function"
    },
    {
      "inputs": [
        {
          "internalType": "address",
          "name": "",
          "type": "address"
        },
        {
          "internalType": "uint256",
          "name": "",
          "type": "uint256"
        }
      ],
      "name": "confirmations",
      "outputs": [
        {
          "internalType": "bool",
          "name": "",
          "type": "bool"
        }
      ],
      "stateMutability": "view",
      "type": "function"
    },
    {
      "inputs": [
        {
          "internalType": "uint256",
          "name": "",
          "type": "uint256"
        }
      ],
      "name": "gamingCompanyRepayment",
      "outputs": [
        {
          "internalType": "uint256",
          "name": "transactionID",
          "type": "uint256"
        },
        {
          "internalType": "bool",
          "name": "isRepaymentDone",
          "type": "bool"
        }
      ],
      "stateMutability": "view",
      "type": "function"
    },
    {
      "inputs": [],
      "name": "multiSig",
      "outputs": [
        {
          "internalType": "contract MultiSignatureInterface",
          "name": "",
          "type": "address"
        }
      ],
      "stateMutability": "view",
      "type": "function"
    },
    {
      "inputs": [],
      "name": "ownerAddress",
      "outputs": [
        {
          "internalType": "address",
          "name": "",
          "type": "address"
        }
      ],
      "stateMutability": "view",
      "type": "function"
    },
    {
      "inputs": [],
      "name": "royale",
      "outputs": [
        {
          "internalType": "contract RoyaleInterface",
          "name": "",
          "type": "address"
        }
      ],
      "stateMutability": "view",
      "type": "function"
    },
    {
      "inputs": [
        {
          "internalType": "address",
          "name": "",
          "type": "address"
        },
        {
          "internalType": "uint256",
          "name": "",
          "type": "uint256"
        }
      ],
      "name": "takenLoan",
      "outputs": [
        {
          "internalType": "uint256",
          "name": "",
          "type": "uint256"
        }
      ],
      "stateMutability": "view",
      "type": "function"
    },
    {
      "inputs": [
        {
          "internalType": "uint256",
          "name": "",
          "type": "uint256"
        }
      ],
      "name": "totalApprovedLoan",
      "outputs": [
        {
          "internalType": "uint256",
          "name": "",
          "type": "uint256"
        }
      ],
      "stateMutability": "view",
      "type": "function"
    },
    {
      "inputs": [
        {
          "internalType": "uint256",
          "name": "",
          "type": "uint256"
        }
      ],
      "name": "totalLoanTaken",
      "outputs": [
        {
          "internalType": "uint256",
          "name": "",
          "type": "uint256"
        }
      ],
      "stateMutability": "view",
      "type": "function"
    },
    {
      "inputs": [],
      "name": "transactionCount",
      "outputs": [
        {
          "internalType": "uint256",
          "name": "",
          "type": "uint256"
        }
      ],
      "stateMutability": "view",
      "type": "function"
    },
    {
      "inputs": [
        {
          "internalType": "uint256",
          "name": "",
          "type": "uint256"
        }
      ],
      "name": "transactions",
      "outputs": [
        {
          "internalType": "uint256",
          "name": "transactionId",
          "type": "uint256"
        },
        {
          "internalType": "address",
          "name": "iGamingCompany",
          "type": "address"
        },
        {
          "internalType": "bool",
          "name": "isGamingCompanySigned",
          "type": "bool"
        },
        {
          "internalType": "bool",
          "name": "approved",
          "type": "bool"
        },
        {
          "internalType": "bool",
          "name": "executed",
          "type": "bool"
        }
      ],
      "stateMutability": "view",
      "type": "function"
    },
    {
      "inputs": [
        {
          "internalType": "uint256[3]",
          "name": "amounts",
          "type": "uint256[3]"
        }
      ],
      "name": "requestLoan",
      "outputs": [],
      "stateMutability": "nonpayable",
      "type": "function"
    },
    {
      "inputs": [
        {
          "internalType": "uint256",
          "name": "_loanID",
          "type": "uint256"
        }
      ],
      "name": "signTransaction",
      "outputs": [],
      "stateMutability": "nonpayable",
      "type": "function"
    },
    {
      "inputs": [
        {
          "internalType": "uint256",
          "name": "_loanID",
          "type": "uint256"
        }
      ],
      "name": "confirmLoan",
      "outputs": [],
      "stateMutability": "nonpayable",
      "type": "function"
    },
    {
      "inputs": [
        {
          "internalType": "uint256",
          "name": "_loanID",
          "type": "uint256"
        }
      ],
      "name": "checkLoanApproved",
      "outputs": [
        {
          "internalType": "bool",
          "name": "",
          "type": "bool"
        }
      ],
      "stateMutability": "view",
      "type": "function"
    },
    {
      "inputs": [
        {
          "internalType": "uint256[3]",
          "name": "amounts",
          "type": "uint256[3]"
        },
        {
          "internalType": "uint256",
          "name": "_loanID",
          "type": "uint256"
        }
      ],
      "name": "withdrawLoan",
      "outputs": [],
      "stateMutability": "nonpayable",
      "type": "function"
    },
    {
      "inputs": [
        {
          "internalType": "uint256[3]",
          "name": "_amounts",
          "type": "uint256[3]"
        },
        {
          "internalType": "uint256",
          "name": "_loanId",
          "type": "uint256"
        }
      ],
      "name": "repayLoan",
      "outputs": [],
      "stateMutability": "nonpayable",
      "type": "function"
    },
    {
      "inputs": [
        {
          "internalType": "address",
          "name": "_multiSig",
          "type": "address"
        }
      ],
      "name": "setMultiSig",
      "outputs": [],
      "stateMutability": "nonpayable",
      "type": "function"
    }
  ],
  "bytecode": "0x608060405260006007553480156200001657600080fd5b5060405162002dad38038062002dad83398181016040528101906200003c919062000224565b33600a60006101000a81548173ffffffffffffffffffffffffffffffffffffffff021916908373ffffffffffffffffffffffffffffffffffffffff16021790555080600960006101000a81548173ffffffffffffffffffffffffffffffffffffffff021916908373ffffffffffffffffffffffffffffffffffffffff16021790555081600860006101000a81548173ffffffffffffffffffffffffffffffffffffffff021916908373ffffffffffffffffffffffffffffffffffffffff16021790555060005b600360ff168160ff1610156200018557838160ff16600381106200012257fe5b602002015160008260ff16600381106200013857fe5b0160006101000a81548173ffffffffffffffffffffffffffffffffffffffff021916908373ffffffffffffffffffffffffffffffffffffffff160217905550808060010191505062000102565b5050505062000319565b600081519050620001a081620002ff565b92915050565b600082601f830112620001b857600080fd5b6003620001cf620001c982620002a8565b6200027a565b91508183856020840282011115620001e657600080fd5b60005b838110156200021a5781620001ff88826200018f565b845260208401935060208301925050600181019050620001e9565b5050505092915050565b600080600060a084860312156200023a57600080fd5b60006200024a86828701620001a6565b93505060606200025d868287016200018f565b925050608062000270868287016200018f565b9150509250925092565b6000604051905081810181811067ffffffffffffffff821117156200029e57600080fd5b8060405250919050565b600067ffffffffffffffff821115620002c057600080fd5b602082029050919050565b6000620002d882620002df565b9050919050565b600073ffffffffffffffffffffffffffffffffffffffff82169050919050565b6200030a81620002cb565b81146200031657600080fd5b50565b612a8480620003296000396000f3fe608060405234801561001057600080fd5b50600436106101165760003560e01c80635d9ec210116100a25780639ace38c2116100715780639ace38c2146102cc578063aa37dca214610300578063ae8df6a614610330578063b77bf60014610360578063f84fd9ef1461037e57610116565b80635d9ec2101461025857806362a945d1146102745780638af81478146102905780638f84aa09146102ae57610116565b80632f094632116100e95780632f0946321461019f5780632fd040d6146101bd57806336e0004a146101ed578063398d1b9e1461020b5780633d591bc21461023c57610116565b8063049713671461011b57806310266c1c14610137578063277514e014610167578063284d30ef14610183575b600080fd5b61013560048036038101906101309190611fd7565b6103ae565b005b610151600480360381019061014c9190611fd7565b61064d565b60405161015e91906127a8565b60405180910390f35b610181600480360381019061017c9190611f49565b610665565b005b61019d60048036038101906101989190611e92565b610baf565b005b6101a7610c4d565b6040516101b491906125ed565b60405180910390f35b6101d760048036038101906101d29190611ee4565b610c73565b6040516101e491906127a8565b60405180910390f35b6101f5610ca1565b60405161020291906125d2565b60405180910390f35b61022560048036038101906102209190611fd7565b610cc7565b604051610233929190612816565b60405180910390f35b61025660048036038101906102519190611f49565b610cf8565b005b610272600480360381019061026d9190611fd7565b61122d565b005b61028e60048036038101906102899190611f20565b611355565b005b6102986113d5565b6040516102a591906127a8565b60405180910390f35b6102b66113e1565b6040516102c391906124cd565b60405180910390f35b6102e660048036038101906102e19190611fd7565b611407565b6040516102f79594939291906127c3565b60405180910390f35b61031a60048036038101906103159190611fd7565b611484565b60405161032791906127a8565b60405180910390f35b61034a60048036038101906103459190611fd7565b61149c565b60405161035791906125b7565b60405180910390f35b6103686114c9565b60405161037591906127a8565b60405180910390f35b61039860048036038101906103939190611ee4565b6114cf565b6040516103a591906125b7565b60405180910390f35b33600960009054906101000a900473ffffffffffffffffffffffffffffffffffffffff1673ffffffffffffffffffffffffffffffffffffffff1663e0e3671c826040518263ffffffff1660e01b815260040161040a91906124cd565b60206040518083038186803b15801561042257600080fd5b505afa158015610436573d6000803e3d6000fd5b505050506040513d601f19601f8201168201806040525081019061045a9190611fae565b610499576040517f08c379a000000000000000000000000000000000000000000000000000000000815260040161049090612608565b60405180910390fd5b816000811180156104ac57506007548111155b6104b557600080fd5b3383600460008373ffffffffffffffffffffffffffffffffffffffff1673ffffffffffffffffffffffffffffffffffffffff168152602001908152602001600020600082815260200190815260200160002060009054906101000a900460ff1615610555576040517f08c379a000000000000000000000000000000000000000000000000000000000815260040161054c906126c8565b60405180910390fd5b6001600460003373ffffffffffffffffffffffffffffffffffffffff1673ffffffffffffffffffffffffffffffffffffffff168152602001908152602001600020600087815260200190815260200160002060006101000a81548160ff0219169083151502179055507f24e5bfa739656f6dd56210dbd8ccbfdabcae46f85752164562c69dffd61a320b33866040516105ef929190612565565b60405180910390a1610600856114fe565b156106465761060e856117b9565b7f7d4061e68fab364906497bb959d95ad3f052a3978fed6ce9942a2b8f737aae548560405161063d91906127a8565b60405180910390a15b5050505050565b600b816003811061065a57fe5b016000915090505481565b3373ffffffffffffffffffffffffffffffffffffffff166003600083815260200190815260200160002060010160009054906101000a900473ffffffffffffffffffffffffffffffffffffffff1673ffffffffffffffffffffffffffffffffffffffff1614610709576040517f08c379a000000000000000000000000000000000000000000000000000000000815260040161070090612688565b60405180910390fd5b6003600082815260200190815260200160002060080160009054906101000a900460ff1661076c576040517f08c379a0000000000000000000000000000000000000000000000000000000008152600401610763906126a8565b60405180910390fd5b610774611cc6565b60005b600360ff168160ff16101561080e57838160ff166003811061079557fe5b6020020135600360008581526020019081526020016000206005018260ff16600381106107be57fe5b01541015610801576040517f08c379a00000000000000000000000000000000000000000000000000000000081526004016107f890612728565b60405180910390fd5b8080600101915050610777565b506000600860009054906101000a900473ffffffffffffffffffffffffffffffffffffffff1673ffffffffffffffffffffffffffffffffffffffff1663eacd7afc856003600087815260200190815260200160002060010160009054906101000a900473ffffffffffffffffffffffffffffffffffffffff166040518363ffffffff1660e01b81526004016108a492919061258e565b602060405180830381600087803b1580156108be57600080fd5b505af11580156108d2573d6000803e3d6000fd5b505050506040513d601f19601f820116820180604052508101906108f69190611fae565b905080610938576040517f08c379a000000000000000000000000000000000000000000000000000000000815260040161092f90612668565b60405180910390fd5b6000805b600360ff168160ff161015610aa3576000868260ff166003811061095c57fe5b60200201351115610a5f57858160ff166003811061097657fe5b6020020135600b8260ff166003811061098b57fe5b01600082825401925050819055506109db600360008781526020019081526020016000206005018260ff16600381106109c057fe5b0154878360ff16600381106109d157fe5b6020020135611a7e565b600360008781526020019081526020016000206005018260ff16600381106109ff57fe5b0181905550610a46600560008781526020019081526020016000206002018260ff1660038110610a2b57fe5b0154878360ff1660038110610a3c57fe5b6020020135611add565b848260ff1660038110610a5557fe5b6020020181815250505b6000600360008781526020019081526020016000206005018260ff1660038110610a8557fe5b01541415610a965781806001019250505b808060010191505061093c565b50604051806060016040528085815260200160001515815260200184815250600560008681526020019081526020016000206000820151816000015560208201518160010160006101000a81548160ff021916908315150217905550604082015181600201906003610b16929190611ce8565b509050507f3fe87a796bb63522ae7b9008d51ff617ee24dbde9a0fac8ed85e5a29e781755633866003600088815260200190815260200160002060050187604051610b6494939291906124e8565b60405180910390a160038160ff161415610ba85760016003600086815260200190815260200160002060080160016101000a81548160ff0219169083151502179055505b5050505050565b600a60009054906101000a900473ffffffffffffffffffffffffffffffffffffffff1673ffffffffffffffffffffffffffffffffffffffff163373ffffffffffffffffffffffffffffffffffffffff1614610c0957600080fd5b80600960006101000a81548173ffffffffffffffffffffffffffffffffffffffff021916908373ffffffffffffffffffffffffffffffffffffffff16021790555050565b600860009054906101000a900473ffffffffffffffffffffffffffffffffffffffff1681565b60066020528160005260406000208181548110610c8c57fe5b90600052602060002001600091509150505481565b600960009054906101000a900473ffffffffffffffffffffffffffffffffffffffff1681565b60056020528060005260406000206000915090508060000154908060010160009054906101000a900460ff16905082565b600754811115610d3d576040517f08c379a0000000000000000000000000000000000000000000000000000000008152600401610d3490612748565b60405180910390fd5b3373ffffffffffffffffffffffffffffffffffffffff166003600083815260200190815260200160002060010160009054906101000a900473ffffffffffffffffffffffffffffffffffffffff1673ffffffffffffffffffffffffffffffffffffffff1614610de1576040517f08c379a0000000000000000000000000000000000000000000000000000000008152600401610dd890612688565b60405180910390fd5b6005600082815260200190815260200160002060010160009054906101000a900460ff1615610e45576040517f08c379a0000000000000000000000000000000000000000000000000000000008152600401610e3c90612708565b60405180910390fd5b60005b600360ff168160ff161015610edf57600560008381526020019081526020016000206002018160ff1660038110610e7b57fe5b0154838260ff1660038110610e8c57fe5b60200201351115610ed2576040517f08c379a0000000000000000000000000000000000000000000000000000000008152600401610ec9906126e8565b60405180910390fd5b8080600101915050610e48565b506000600860009054906101000a900473ffffffffffffffffffffffffffffffffffffffff1673ffffffffffffffffffffffffffffffffffffffff166380001288846003600086815260200190815260200160002060010160009054906101000a900473ffffffffffffffffffffffffffffffffffffffff166040518363ffffffff1660e01b8152600401610f7592919061258e565b602060405180830381600087803b158015610f8f57600080fd5b505af1158015610fa3573d6000803e3d6000fd5b505050506040513d601f19601f82011682018060405250810190610fc79190611fae565b905080611009576040517f08c379a000000000000000000000000000000000000000000000000000000000815260040161100090612648565b60405180910390fd5b6000805b600360ff1681101561114957600085826003811061102757fe5b60200201351461113c57611059600b826003811061104157fe5b015486836003811061104f57fe5b6020020135611a7e565b600b826003811061106657fe5b0181905550611093600e826003811061107b57fe5b015486836003811061108957fe5b6020020135611a7e565b600e82600381106110a057fe5b01819055506110e16005600086815260200190815260200160002060020182600381106110c957fe5b01548683600381106110d757fe5b6020020135611a7e565b60056000868152602001908152602001600020600201826003811061110257fe5b0181905550600060056000868152602001908152602001600020600201826003811061112a57fe5b0154141561113b5781806001019250505b5b808060010191505061100d565b507ffe337a99fc07b4422a06a40fb4728125523f3c0977d012d21e3eb9f89edfd3603385600560008781526020019081526020016000206002018660405161119494939291906124e8565b60405180910390a160038114156112275760016005600085815260200190815260200160002060010160006101000a81548160ff0219169083151502179055507f57d01a01ec1287fb00888c92856cb0f45352809b7a5350fdd677ce76f78262993385600560008781526020019081526020016000206002018660405161121e94939291906124e8565b60405180910390a15b50505050565b3373ffffffffffffffffffffffffffffffffffffffff166003600083815260200190815260200160002060010160009054906101000a900473ffffffffffffffffffffffffffffffffffffffff1673ffffffffffffffffffffffffffffffffffffffff161461129b57600080fd5b60016003600083815260200190815260200160002060010160146101000a81548160ff0219169083151502179055507f24e5bfa739656f6dd56210dbd8ccbfdabcae46f85752164562c69dffd61a320b33826040516112fb929190612565565b60405180910390a161130c816114fe565b156113525761131a816117b9565b7f7d4061e68fab364906497bb959d95ad3f052a3978fed6ce9942a2b8f737aae548160405161134991906127a8565b60405180910390a15b50565b611395816003806020026040519081016040528092919082600360200280828437600081840152601f19601f820116905080830192505050505050611b32565b7f6825b4653b0626e0268f9c124dce0ea5cc6f826ccb2cf314459bd1c62cf011f733826007546040516113ca9392919061252e565b60405180910390a150565b670de0b6b3a764000081565b600a60009054906101000a900473ffffffffffffffffffffffffffffffffffffffff1681565b60036020528060005260406000206000915090508060000154908060010160009054906101000a900473ffffffffffffffffffffffffffffffffffffffff16908060010160149054906101000a900460ff16908060080160009054906101000a900460ff16908060080160019054906101000a900460ff16905085565b600e816003811061149157fe5b016000915090505481565b60006003600083815260200190815260200160002060080160009054906101000a900460ff169050919050565b60075481565b60046020528160005260406000206020528060005260406000206000915091509054906101000a900460ff1681565b6000806000905060005b600960009054906101000a900473ffffffffffffffffffffffffffffffffffffffff1673ffffffffffffffffffffffffffffffffffffffff166332601e7f6040518163ffffffff1660e01b815260040160206040518083038186803b15801561157057600080fd5b505afa158015611584573d6000803e3d6000fd5b505050506040513d601f19601f820116820180604052508101906115a89190612000565b8110156117b15760046000600960009054906101000a900473ffffffffffffffffffffffffffffffffffffffff1673ffffffffffffffffffffffffffffffffffffffff1663c41a360a846040518263ffffffff1660e01b815260040161160e91906127a8565b60206040518083038186803b15801561162657600080fd5b505afa15801561163a573d6000803e3d6000fd5b505050506040513d601f19601f8201168201806040525081019061165e9190611ebb565b73ffffffffffffffffffffffffffffffffffffffff1673ffffffffffffffffffffffffffffffffffffffff168152602001908152602001600020600085815260200190815260200160002060009054906101000a900460ff16156116c3576001820191505b600960009054906101000a900473ffffffffffffffffffffffffffffffffffffffff1673ffffffffffffffffffffffffffffffffffffffff16631398a5f66040518163ffffffff1660e01b815260040160206040518083038186803b15801561172b57600080fd5b505afa15801561173f573d6000803e3d6000fd5b505050506040513d601f19601f820116820180604052508101906117639190612029565b60ff168214801561179457506003600085815260200190815260200160002060010160149054906101000a900460ff165b156117a4576001925050506117b4565b8080600101915050611508565b50505b919050565b6117c1611cc6565b600860009054906101000a900473ffffffffffffffffffffffffffffffffffffffff1673ffffffffffffffffffffffffffffffffffffffff1663233fc9a26040518163ffffffff1660e01b815260040160606040518083038186803b15801561182957600080fd5b505afa15801561183d573d6000803e3d6000fd5b505050506040513d601f19601f820116820180604052508101906118619190611f85565b905060005b600360ff168160ff16101561190f57818160ff166003811061188457fe5b6020020151600360008581526020019081526020016000206002018260ff16600381106118ad57fe5b0154600e8360ff16600381106118bf57fe5b01540110611902576040517f08c379a00000000000000000000000000000000000000000000000000000000081526004016118f990612628565b60405180910390fd5b8080600101915050611866565b5060016003600084815260200190815260200160002060080160006101000a81548160ff0219169083151502179055506003600083815260200190815260200160002060020160036000848152602001908152602001600020600501906003611979929190611d28565b5060005b600360ff168160ff1610156119dd57600360008481526020019081526020016000206002018160ff16600381106119b057fe5b0154600e8260ff16600381106119c257fe5b0160008282540192505081905550808060010191505061197d565b50600660006003600085815260200190815260200160002060010160009054906101000a900473ffffffffffffffffffffffffffffffffffffffff1673ffffffffffffffffffffffffffffffffffffffff1673ffffffffffffffffffffffffffffffffffffffff1681526020019081526020016000208290806001815401808255809150506001900390600052602060002001600090919091909150555050565b6000806000611a8d8585611c9d565b915091508015611ad2576040517f08c379a0000000000000000000000000000000000000000000000000000000008152600401611ac990612768565b60405180910390fd5b819250505092915050565b600080828401905083811015611b28576040517f08c379a0000000000000000000000000000000000000000000000000000000008152600401611b1f90612788565b60405180910390fd5b8091505092915050565b611b3a611cc6565b6007600081548092919060010191905055506040518060e0016040528060075481526020013373ffffffffffffffffffffffffffffffffffffffff168152602001600015158152602001838152602001828152602001600015158152602001600015158152506003600060075481526020019081526020016000206000820151816000015560208201518160010160006101000a81548173ffffffffffffffffffffffffffffffffffffffff021916908373ffffffffffffffffffffffffffffffffffffffff16021790555060408201518160010160146101000a81548160ff021916908315150217905550606082015181600201906003611c3d929190611ce8565b50608082015181600501906003611c55929190611ce8565b5060a08201518160080160006101000a81548160ff02191690831515021790555060c08201518160080160016101000a81548160ff0219169083151502179055509050505050565b600080828410611cb557828403600091509150611cbf565b8383036001915091505b9250929050565b6040518060600160405280600390602082028036833780820191505090505090565b8260038101928215611d17579160200282015b82811115611d16578251825591602001919060010190611cfb565b5b509050611d249190611d65565b5090565b8260038101928215611d54579182015b82811115611d53578254825591600101919060010190611d38565b5b509050611d619190611d65565b5090565b5b80821115611d7e576000816000905550600101611d66565b5090565b600081359050611d91816129f2565b92915050565b600081519050611da6816129f2565b92915050565b600081905082602060030282011115611dc457600080fd5b92915050565b600082601f830112611ddb57600080fd5b6003611dee611de98261286c565b61283f565b91508183856020840282011115611e0457600080fd5b60005b83811015611e345781611e1a8882611e68565b845260208401935060208301925050600181019050611e07565b5050505092915050565b600081519050611e4d81612a09565b92915050565b600081359050611e6281612a20565b92915050565b600081519050611e7781612a20565b92915050565b600081519050611e8c81612a37565b92915050565b600060208284031215611ea457600080fd5b6000611eb284828501611d82565b91505092915050565b600060208284031215611ecd57600080fd5b6000611edb84828501611d97565b91505092915050565b60008060408385031215611ef757600080fd5b6000611f0585828601611d82565b9250506020611f1685828601611e53565b9150509250929050565b600060608284031215611f3257600080fd5b6000611f4084828501611dac565b91505092915050565b60008060808385031215611f5c57600080fd5b6000611f6a85828601611dac565b9250506060611f7b85828601611e53565b9150509250929050565b600060608284031215611f9757600080fd5b6000611fa584828501611dca565b91505092915050565b600060208284031215611fc057600080fd5b6000611fce84828501611e3e565b91505092915050565b600060208284031215611fe957600080fd5b6000611ff784828501611e53565b91505092915050565b60006020828403121561201257600080fd5b600061202084828501611e68565b91505092915050565b60006020828403121561203b57600080fd5b600061204984828501611e7d565b91505092915050565b600061205e83836124af565b60208301905092915050565b6120738161292b565b82525050565b612082816128d6565b82525050565b612094606083836129a9565b5050565b6120a181612898565b6120ab81846128b0565b92506120b68261288e565b8060005b838110156120ee576120cb826129d2565b6120d58782612052565b96506120e0836128a3565b9250506001810190506120ba565b505050505050565b6120ff816128e8565b82525050565b61210e8161293d565b82525050565b61211d81612961565b82525050565b60006121306010836128bb565b91507f7369676e6565206e6f74206578697374000000000000000000000000000000006000830152602082019050919050565b60006121706020836128bb565b91507f43616e206e6f7420617070726f76652074686174206d75636820616d6f756e746000830152602082019050919050565b60006121b0601b836128bb565b91507f4c6f616e205061796d656e74206e6f742073756363657366756c6c00000000006000830152602082019050919050565b60006121f0601c836128bb565b91507f4c6f616e205769746864726177206e6f742073756363657366756c6c000000006000830152602082019050919050565b60006122306011836128bb565b91507f636f6d70616e79206e6f742d65786973740000000000000000000000000000006000830152602082019050919050565b60006122706015836128bb565b91507f6e6f7420617070726f76656420666f72206c6f616e00000000000000000000006000830152602082019050919050565b60006122b06011836128bb565b91507f414c726561647920636f6e6669726d65640000000000000000000000000000006000830152602082019050919050565b60006122f0602b836128bb565b91507f446f6e277420686176652074686174206d756368206f662072656d61696e696e60008301527f672072657061796d656e740000000000000000000000000000000000000000006020830152604082019050919050565b6000612356600e836128bb565b91507f616c7265616479207265706169640000000000000000000000000000000000006000830152602082019050919050565b60006123966028836128bb565b91507f616d6f756e7420726571756573746564206578636565647320616d6f756e742060008301527f617070726f7665640000000000000000000000000000000000000000000000006020830152604082019050919050565b60006123fc600f836128bb565b91507f696e76616c6964206c6f616e20696400000000000000000000000000000000006000830152602082019050919050565b600061243c6011836128bb565b91507f4552525f5355425f554e444552464c4f570000000000000000000000000000006000830152602082019050919050565b600061247c6010836128bb565b91507f4552525f4144445f4f564552464c4f57000000000000000000000000000000006000830152602082019050919050565b6124b881612914565b82525050565b6124c781612914565b82525050565b60006020820190506124e26000830184612079565b92915050565b6000610100820190506124fe600083018761206a565b61250b6020830186612088565b6125186080830185612098565b61252560e08301846124be565b95945050505050565b600060a082019050612543600083018661206a565b6125506020830185612088565b61255d60808301846124be565b949350505050565b600060408201905061257a600083018561206a565b61258760208301846124be565b9392505050565b60006080820190506125a36000830185612088565b6125b06060830184612079565b9392505050565b60006020820190506125cc60008301846120f6565b92915050565b60006020820190506125e76000830184612105565b92915050565b60006020820190506126026000830184612114565b92915050565b6000602082019050818103600083015261262181612123565b9050919050565b6000602082019050818103600083015261264181612163565b9050919050565b60006020820190508181036000830152612661816121a3565b9050919050565b60006020820190508181036000830152612681816121e3565b9050919050565b600060208201905081810360008301526126a181612223565b9050919050565b600060208201905081810360008301526126c181612263565b9050919050565b600060208201905081810360008301526126e1816122a3565b9050919050565b60006020820190508181036000830152612701816122e3565b9050919050565b6000602082019050818103600083015261272181612349565b9050919050565b6000602082019050818103600083015261274181612389565b9050919050565b60006020820190508181036000830152612761816123ef565b9050919050565b600060208201905081810360008301526127818161242f565b9050919050565b600060208201905081810360008301526127a18161246f565b9050919050565b60006020820190506127bd60008301846124be565b92915050565b600060a0820190506127d860008301886124be565b6127e56020830187612079565b6127f260408301866120f6565b6127ff60608301856120f6565b61280c60808301846120f6565b9695505050505050565b600060408201905061282b60008301856124be565b61283860208301846120f6565b9392505050565b6000604051905081810181811067ffffffffffffffff8211171561286257600080fd5b8060405250919050565b600067ffffffffffffffff82111561288357600080fd5b602082029050919050565b6000819050919050565b600060039050919050565b6000600182019050919050565b600081905092915050565b600082825260208201905092915050565b6000819050919050565b60006128e1826128f4565b9050919050565b60008115159050919050565b600073ffffffffffffffffffffffffffffffffffffffff82169050919050565b6000819050919050565b600060ff82169050919050565b600061293682612985565b9050919050565b60006129488261294f565b9050919050565b600061295a826128f4565b9050919050565b600061296c82612973565b9050919050565b600061297e826128f4565b9050919050565b600061299082612997565b9050919050565b60006129a2826128f4565b9050919050565b82818337600083830152505050565b60006129cb6129c6836129e5565b6128cc565b9050919050565b60006129de82546129b8565b9050919050565b60008160001c9050919050565b6129fb816128d6565b8114612a0657600080fd5b50565b612a12816128e8565b8114612a1d57600080fd5b50565b612a2981612914565b8114612a3457600080fd5b50565b612a408161291e565b8114612a4b57600080fd5b5056fea2646970667358221220a5b16566bf6c4e3ab9521c2428dfe5e03b53a6182e83d2354f645f0e8a9a8c3564736f6c634300060c0033",
  "immutableReferences": {},
  "source": "// SPDX-License-Identifier: UNLICENSED\r\npragma solidity ^0.6.0;\r\npragma experimental ABIEncoderV2;\r\n\r\nimport '../Interfaces/Erc20Interface.sol';\r\nimport '../Interfaces/RoyaleInterface.sol';\r\nimport './MathLib.sol';\r\nimport '../Interfaces/MultisigInterface.sol';\r\n\r\n\r\ncontract rLoan is rNum{\r\n    uint8 constant N_COINS = 3;\r\n    \r\n    Erc20[N_COINS] tokens;\r\n\r\n    \r\n    \r\n    mapping(uint256 => Transaction) public transactions;\r\n    mapping(address => mapping (uint256 => bool)) public confirmations;\r\n    mapping(uint256 => Repayment) public gamingCompanyRepayment;\r\n   \r\n  \r\n    mapping(address => uint[])public takenLoan;\r\n    \r\n    uint256 public transactionCount = 0;\r\n   \r\n    RoyaleInterface public royale;\r\n\r\n     MultiSignatureInterface public multiSig;\r\n\r\n    address public ownerAddress;\r\n\r\n    uint256[N_COINS] public totalLoanTaken;\r\n    uint256[N_COINS] public totalApprovedLoan;\r\n    \r\n    struct Transaction {\r\n        uint256 transactionId;\r\n        address iGamingCompany;\r\n        bool isGamingCompanySigned;\r\n        uint256[N_COINS] tokenAmounts;\r\n        uint256[N_COINS] remAmt;\r\n        bool approved;\r\n        bool executed;\r\n    }\r\n\r\n    struct Repayment {\r\n        uint256 transactionID;\r\n        bool isRepaymentDone;\r\n        uint256[N_COINS] remainingTokenAmounts;\r\n    }\r\n\r\n\r\n    /* Events */\r\n\r\n    event loanRequested(\r\n        address by,\r\n        uint[N_COINS] amounts,\r\n        uint loanID\r\n    );\r\n\r\n    event signed(\r\n        address owner,\r\n        uint loanID\r\n    );\r\n\r\n    event approved(\r\n        uint loanID\r\n    );\r\n\r\n   \r\n\r\n    \r\n\r\n    event loanWithdrawn(\r\n        address by,\r\n        uint[N_COINS] requestedAmount,\r\n        uint[N_COINS] remainingAmount,\r\n        uint loanID\r\n    );\r\n\r\n    event loanFulfilled(\r\n        address by,\r\n        uint[N_COINS] requestedAmount,\r\n        uint[N_COINS] remainingAmount,\r\n        uint loanID\r\n    );\r\n\r\n    event loanRepayed(\r\n        address by,\r\n        uint[N_COINS] repayedAmount,\r\n        uint[N_COINS] amountRemaining,\r\n        uint loanID\r\n    );\r\n\r\n    event wholeLoanRepayed(\r\n        address by,\r\n        uint[N_COINS] repayedAmount,\r\n        uint[N_COINS] amountRemaining,\r\n        uint loanID\r\n    );\r\n\r\n    /* Modifiers */\r\n\r\n    modifier onlyOwner {\r\n        require(msg.sender == ownerAddress);\r\n        _;\r\n    }\r\n\r\n    \r\n\r\n    modifier transactionExists(uint _loanID) {\r\n        require(_loanID > 0 && _loanID <= transactionCount);\r\n        _;\r\n    }\r\n\r\n    modifier signeeExists(address signee) {\r\n        require(multiSig.checkOwner(signee),\"signee not exist\");\r\n        _;\r\n    }\r\n\r\n   \r\n\r\n    modifier notConfirmed(address addr,uint _loanID) {\r\n        require(!confirmations[addr][_loanID],\"ALready confirmed\");\r\n        _;\r\n    }\r\n\r\n\r\n   \r\n\r\n\r\n    constructor(address[N_COINS] memory _tokens , address _royale,address _multiSig) public {\r\n        ownerAddress = msg.sender;\r\n         multiSig=MultiSignatureInterface(_multiSig);\r\n         royale = RoyaleInterface(_royale);\r\n        // Set Tokens supported by Pool\r\n\r\n        for(uint8 i=0; i<N_COINS; i++) {\r\n            tokens[i] = Erc20(_tokens[i]);\r\n           \r\n        }\r\n    }\r\n\r\n    /* Internal Functions */\r\n\r\n    function _addTransaction(\r\n       uint256[N_COINS] memory amounts\r\n    ) internal {\r\n        uint256[N_COINS] memory zero;\r\n\r\n        transactionCount++;\r\n        transactions[transactionCount] = Transaction({\r\n            transactionId: transactionCount,\r\n            iGamingCompany: msg.sender,\r\n            tokenAmounts: amounts,\r\n            remAmt: zero,\r\n            isGamingCompanySigned: false,\r\n            approved: false,\r\n            executed: false\r\n        });\r\n        \r\n    }\r\n\r\n    function _approveLoan(uint _loanID) internal {\r\n        uint256[N_COINS] memory am=royale.getTotalPoolBalance();\r\n        for(uint8 i=0;i<N_COINS;i++) {\r\n            require(totalApprovedLoan[i]+transactions[_loanID].tokenAmounts[i]<am[i],\"Can not approve that much amount\");\r\n        }\r\n\r\n        transactions[_loanID].approved = true;\r\n        transactions[_loanID].remAmt = transactions[_loanID].tokenAmounts;\r\n\r\n        for(uint8 i=0;i<N_COINS;i++){\r\n            totalApprovedLoan[i] +=transactions[_loanID].tokenAmounts[i];\r\n        }\r\n        takenLoan[transactions[_loanID].iGamingCompany].push(_loanID);\r\n    }\r\n\r\n     function _isConfirmed(\r\n        uint _loanID\r\n    ) internal view returns (bool) {\r\n        uint count = 0;\r\n        for (uint i=0; i<multiSig.getNumberOfOwner(); i++) {\r\n            if (confirmations[multiSig.getOwner(i)][_loanID])\r\n                count += 1;\r\n            if (count == multiSig.getRequired() && transactions[_loanID].isGamingCompanySigned)\r\n                return true;\r\n        }\r\n    }\r\n\r\n  \r\n    /* USER FUNCTIONS (exposed to frontend) */\r\n\r\n    // Gaming platforms withdraw using this\r\n    function requestLoan(\r\n        uint256[N_COINS] calldata amounts\r\n    ) external  {\r\n     \r\n       _addTransaction(amounts);\r\n\r\n       emit loanRequested(msg.sender, amounts, transactionCount);\r\n    }\r\n    \r\n    \r\n    // Gaming Platforms signs using this\r\n    function signTransaction(uint _loanID) public {\r\n        require(transactions[_loanID].iGamingCompany == msg.sender);\r\n        \r\n        transactions[_loanID].isGamingCompanySigned = true;\r\n\r\n        emit signed(msg.sender, _loanID);\r\n\r\n        if(_isConfirmed(_loanID)) {\r\n           _approveLoan(_loanID);\r\n           emit approved(_loanID);\r\n        }\r\n    }\r\n    \r\n   // Signee signs using this\r\n    function confirmLoan(uint _loanID) public\r\n        signeeExists(msg.sender)\r\n        transactionExists(_loanID)\r\n        notConfirmed( msg.sender,_loanID) \r\n    {\r\n        confirmations[msg.sender][_loanID] = true;\r\n        \r\n        emit signed(msg.sender, _loanID);\r\n\r\n        if(_isConfirmed(_loanID)) {\r\n           _approveLoan(_loanID);\r\n           emit approved(_loanID);\r\n        }\r\n    }\r\n\r\n    function checkLoanApproved(uint _loanID) external view returns(bool) {\r\n        return transactions[_loanID].approved;\r\n    }\r\n\r\n    /* Admin Function */\r\n    \r\n   \r\n\r\n    function withdrawLoan( \r\n        uint256[N_COINS] calldata amounts,\r\n        uint _loanID\r\n    ) external {\r\n\r\n        require(transactions[_loanID].iGamingCompany == msg.sender, \"company not-exist\");\r\n        require(transactions[_loanID].approved, \"not approved for loan\");\r\n        uint256[N_COINS] memory loanAmount;\r\n        for(uint8 i=0; i<N_COINS; i++) {\r\n            require(\r\n                transactions[_loanID].remAmt[i] >= amounts[i], \r\n                \"amount requested exceeds amount approved\"\r\n            );\r\n        }\r\n        bool b = royale._loanWithdraw(amounts,transactions[_loanID].iGamingCompany);\r\n        require(b, \"Loan Withdraw not succesfull\");\r\n\r\n        uint8 check = 0;\r\n        for(uint8 i=0; i<N_COINS; i++) {\r\n            if(amounts[i] > 0) {\r\n                totalLoanTaken[i] += amounts[i];\r\n                transactions[_loanID].remAmt[i] =bsub(transactions[_loanID].remAmt[i], amounts[i]);\r\n                loanAmount[i]=badd(gamingCompanyRepayment[_loanID].remainingTokenAmounts[i],amounts[i]);\r\n            }\r\n            if(transactions[_loanID].remAmt[i] == 0) {\r\n                check++;\r\n            }\r\n        }\r\n        gamingCompanyRepayment[_loanID] = Repayment({\r\n                  transactionID: _loanID,\r\n                  isRepaymentDone: false,\r\n                  remainingTokenAmounts: loanAmount\r\n        });\r\n\r\n\r\n        emit loanWithdrawn(msg.sender, amounts, transactions[_loanID].remAmt, _loanID);\r\n\r\n        if(check == 3) {\r\n            // Loan fulfilled, company used all its loan\r\n            transactions[_loanID].executed = true;\r\n        }\r\n    } \r\n    \r\n    \r\n    function repayLoan(uint256[N_COINS] calldata _amounts, uint _loanId) external {\r\n        require(_loanId <= transactionCount, \"invalid loan id\");\r\n        require(transactions[_loanId].iGamingCompany == msg.sender, \"company not-exist\");\r\n        require(!gamingCompanyRepayment[_loanId].isRepaymentDone, \"already repaid\");\r\n        for(uint8 i=0;i<N_COINS;i++){\r\n            require(_amounts[i]<=gamingCompanyRepayment[_loanId].remainingTokenAmounts[i],\"Don't have that much of remaining repayment\");\r\n        }\r\n        bool b = royale._loanRepayment(_amounts,transactions[_loanId].iGamingCompany);\r\n        require(b,\"Loan Payment not succesfull\");\r\n        uint counter=0;\r\n        for(uint i=0;i<N_COINS;i++) {\r\n            if(_amounts[i]!=0) {\r\n                totalLoanTaken[i] =bsub(totalLoanTaken[i],_amounts[i]);\r\n                totalApprovedLoan[i]=bsub(totalApprovedLoan[i],_amounts[i]);\r\n                gamingCompanyRepayment[_loanId].remainingTokenAmounts[i] =bsub(gamingCompanyRepayment[_loanId].remainingTokenAmounts[i], _amounts[i]);\r\n                if(gamingCompanyRepayment[_loanId].remainingTokenAmounts[i] == 0) {\r\n                    counter++;\r\n                }\r\n            }\r\n        }\r\n\r\n        emit loanRepayed(\r\n            msg.sender,\r\n            _amounts, \r\n            gamingCompanyRepayment[_loanId].remainingTokenAmounts,\r\n            _loanId\r\n        );\r\n\r\n            if(counter==3){\r\n                gamingCompanyRepayment[_loanId].isRepaymentDone=true;\r\n\r\n                emit wholeLoanRepayed(\r\n                    msg.sender,\r\n                    _amounts, \r\n                    gamingCompanyRepayment[_loanId].remainingTokenAmounts,\r\n                    _loanId\r\n                );\r\n            }       \r\n    }\r\n\r\n     function setMultiSig(address _multiSig)external onlyOwner{\r\n        multiSig=MultiSignatureInterface(_multiSig);\r\n    }\r\n    \r\n}",
  "sourcePath": "C:/Users/MayankVats/Desktop/WORK/blockchain/Royale/rlp/contracts/rLoan.sol",
  "compiler": {
    "name": "solc",
    "version": "0.6.12+commit.27d51765.Emscripten.clang"
  },
  "schemaVersion": "3.3.2",
  "updatedAt": "2021-01-06T10:05:21.580Z",
  "devdoc": {
    "kind": "dev",
    "methods": {},
    "version": 1
  },
  "userdoc": {
    "kind": "user",
    "methods": {},
    "version": 1
  }
}