{
  "contractName": "RoyaleLPstorage",
  "abi": [
    {
      "inputs": [],
      "name": "MAX_SIGNEE_COUNT",
      "outputs": [
        {
          "internalType": "uint256",
          "name": "",
          "type": "uint256"
        }
      ],
      "stateMutability": "view",
      "type": "function"
    },
    {
      "inputs": [
        {
          "internalType": "uint256",
          "name": "",
          "type": "uint256"
        }
      ],
      "name": "YieldPoolBalance",
      "outputs": [
        {
          "internalType": "uint256",
          "name": "",
          "type": "uint256"
        }
      ],
      "stateMutability": "view",
      "type": "function"
    },
    {
      "inputs": [
        {
          "internalType": "address",
          "name": "",
          "type": "address"
        },
        {
          "internalType": "uint256",
          "name": "",
          "type": "uint256"
        }
      ],
      "name": "confirmations",
      "outputs": [
        {
          "internalType": "bool",
          "name": "",
          "type": "bool"
        }
      ],
      "stateMutability": "view",
      "type": "function"
    },
    {
      "inputs": [],
      "name": "fees",
      "outputs": [
        {
          "internalType": "uint128",
          "name": "",
          "type": "uint128"
        }
      ],
      "stateMutability": "view",
      "type": "function"
    },
    {
      "inputs": [
        {
          "internalType": "address",
          "name": "",
          "type": "address"
        }
      ],
      "name": "isInQ",
      "outputs": [
        {
          "internalType": "bool",
          "name": "",
          "type": "bool"
        }
      ],
      "stateMutability": "view",
      "type": "function"
    },
    {
      "inputs": [
        {
          "internalType": "address",
          "name": "",
          "type": "address"
        }
      ],
      "name": "isSignee",
      "outputs": [
        {
          "internalType": "bool",
          "name": "",
          "type": "bool"
        }
      ],
      "stateMutability": "view",
      "type": "function"
    },
    {
      "inputs": [],
      "name": "lock_period",
      "outputs": [
        {
          "internalType": "uint128",
          "name": "",
          "type": "uint128"
        }
      ],
      "stateMutability": "view",
      "type": "function"
    },
    {
      "inputs": [],
      "name": "owner",
      "outputs": [
        {
          "internalType": "address",
          "name": "",
          "type": "address"
        }
      ],
      "stateMutability": "view",
      "type": "function"
    },
    {
      "inputs": [],
      "name": "poolPart",
      "outputs": [
        {
          "internalType": "uint128",
          "name": "",
          "type": "uint128"
        }
      ],
      "stateMutability": "view",
      "type": "function"
    },
    {
      "inputs": [],
      "name": "required",
      "outputs": [
        {
          "internalType": "uint256",
          "name": "",
          "type": "uint256"
        }
      ],
      "stateMutability": "view",
      "type": "function"
    },
    {
      "inputs": [
        {
          "internalType": "uint256",
          "name": "",
          "type": "uint256"
        }
      ],
      "name": "selfBalance",
      "outputs": [
        {
          "internalType": "uint256",
          "name": "",
          "type": "uint256"
        }
      ],
      "stateMutability": "view",
      "type": "function"
    },
    {
      "inputs": [
        {
          "internalType": "uint256",
          "name": "",
          "type": "uint256"
        }
      ],
      "name": "signees",
      "outputs": [
        {
          "internalType": "address",
          "name": "",
          "type": "address"
        }
      ],
      "stateMutability": "view",
      "type": "function"
    },
    {
      "inputs": [],
      "name": "thresholdTokenAmount",
      "outputs": [
        {
          "internalType": "uint256",
          "name": "",
          "type": "uint256"
        }
      ],
      "stateMutability": "view",
      "type": "function"
    },
    {
      "inputs": [
        {
          "internalType": "uint256",
          "name": "",
          "type": "uint256"
        }
      ],
      "name": "totalWithdraw",
      "outputs": [
        {
          "internalType": "uint256",
          "name": "",
          "type": "uint256"
        }
      ],
      "stateMutability": "view",
      "type": "function"
    },
    {
      "inputs": [],
      "name": "transactionCount",
      "outputs": [
        {
          "internalType": "uint256",
          "name": "",
          "type": "uint256"
        }
      ],
      "stateMutability": "view",
      "type": "function"
    },
    {
      "inputs": [
        {
          "internalType": "uint256",
          "name": "",
          "type": "uint256"
        }
      ],
      "name": "transactions",
      "outputs": [
        {
          "internalType": "uint256",
          "name": "transactionId",
          "type": "uint256"
        },
        {
          "internalType": "address",
          "name": "iGamingCompany",
          "type": "address"
        },
        {
          "internalType": "bool",
          "name": "isGamingCompanySigned",
          "type": "bool"
        },
        {
          "internalType": "bool",
          "name": "approved",
          "type": "bool"
        },
        {
          "internalType": "bool",
          "name": "executed",
          "type": "bool"
        }
      ],
      "stateMutability": "view",
      "type": "function"
    }
  ],
  "bytecode": "0x60806040526001805560006002556019600460006101000a8154816fffffffffffffffffffffffffffffffff02191690836fffffffffffffffffffffffffffffffff160217905550605f600460106101000a8154816fffffffffffffffffffffffffffffffff02191690836fffffffffffffffffffffffffffffffff1602179055506101f4601155600060215534801561009857600080fd5b5061073a806100a86000396000f3fe608060405234801561001057600080fd5b50600436106101005760003560e01c80639af1d35a11610097578063db28bfd011610066578063db28bfd0146103fd578063dc8452cd1461043f578063f83e9a201461045d578063f84fd9ef1461048d57610100565b80639af1d35a14610339578063b77bf60014610369578063c89eb03614610387578063d80a93d6146103a557610100565b80638da5cb5b116100d35780638da5cb5b146102015780638e9b032614610235578063905f692e146102655780639ace38c2146102bf57610100565b80630385b581146101055780631880432a1461015f57806331805a2b1461017d57806369850424146101bf575b600080fd5b6101476004803603602081101561011b57600080fd5b81019080803573ffffffffffffffffffffffffffffffffffffffff1690602001909291905050506104f1565b60405180821515815260200191505060405180910390f35b610167610511565b6040518082815260200191505060405180910390f35b6101a96004803603602081101561019357600080fd5b8101908080359060200190929190505050610516565b6040518082815260200191505060405180910390f35b6101eb600480360360208110156101d557600080fd5b810190808035906020019092919050505061052e565b6040518082815260200191505060405180910390f35b610209610546565b604051808273ffffffffffffffffffffffffffffffffffffffff16815260200191505060405180910390f35b61023d61056c565b60405180826fffffffffffffffffffffffffffffffff16815260200191505060405180910390f35b6102a76004803603602081101561027b57600080fd5b81019080803573ffffffffffffffffffffffffffffffffffffffff16906020019092919050505061058e565b60405180821515815260200191505060405180910390f35b6102eb600480360360208110156102d557600080fd5b81019080803590602001909291905050506105ae565b604051808681526020018573ffffffffffffffffffffffffffffffffffffffff1681526020018415158152602001831515815260200182151581526020019550505050505060405180910390f35b61034161062b565b60405180826fffffffffffffffffffffffffffffffff16815260200191505060405180910390f35b61037161064d565b6040518082815260200191505060405180910390f35b61038f610653565b6040518082815260200191505060405180910390f35b6103d1600480360360208110156103bb57600080fd5b8101908080359060200190929190505050610659565b604051808273ffffffffffffffffffffffffffffffffffffffff16815260200191505060405180910390f35b6104296004803603602081101561041357600080fd5b8101908080359060200190929190505050610695565b6040518082815260200191505060405180910390f35b6104476106ad565b6040518082815260200191505060405180910390f35b6104656106b3565b60405180826fffffffffffffffffffffffffffffffff16815260200191505060405180910390f35b6104d9600480360360408110156104a357600080fd5b81019080803573ffffffffffffffffffffffffffffffffffffffff169060200190929190803590602001909291905050506106d5565b60405180821515815260200191505060405180910390f35b601e6020528060005260406000206000915054906101000a900460ff1681565b603281565b600e816003811061052357fe5b016000915090505481565b6005816003811061053b57fe5b016000915090505481565b600960009054906101000a900473ffffffffffffffffffffffffffffffffffffffff1681565b600460109054906101000a90046fffffffffffffffffffffffffffffffff1681565b60166020528060005260406000206000915054906101000a900460ff1681565b601b6020528060005260406000206000915090508060000154908060010160009054906101000a900473ffffffffffffffffffffffffffffffffffffffff16908060010160149054906101000a900460ff16908060080160009054906101000a900460ff16908060080160019054906101000a900460ff16905085565b600460009054906101000a90046fffffffffffffffffffffffffffffffff1681565b60215481565b60115481565b6020818154811061066657fe5b906000526020600020016000915054906101000a900473ffffffffffffffffffffffffffffffffffffffff1681565b601881600381106106a257fe5b016000915090505481565b60225481565b601260009054906101000a90046fffffffffffffffffffffffffffffffff1681565b601c6020528160005260406000206020528060005260406000206000915091509054906101000a900460ff168156fea2646970667358221220fb53433bdca030b8a4eb37f031977e82db0cdf75674bc5931eb96d6436bdc4d764736f6c634300060c0033",
  "immutableReferences": {},
  "source": "// SPDX-License-Identifier: UNLICENSED\r\npragma solidity ^0.6.0;\r\n\r\nimport './Interfaces/Erc20Interface.sol';\r\n// import './CurveInterface.sol';\r\nimport './Interfaces/YieldOptInterface.sol';\r\n\r\ncontract WithdrawQueue {\r\n    mapping(uint256 => address) withdrawQ;\r\n    uint256 first = 1;\r\n    uint256 last = 0;\r\n    address data;\r\n\r\n    function addToQ(address addr) internal {\r\n        last += 1;\r\n        withdrawQ[last] = addr;\r\n    }\r\n\r\n    function getFromQ() internal returns(address) {\r\n        require(last >= first);\r\n\r\n        data = withdrawQ[first];\r\n\r\n        delete withdrawQ[first];\r\n        first += 1;\r\n\r\n        return data;\r\n    }\r\n}\r\n\r\ncontract RoyaleLPstorage  is WithdrawQueue {\r\n\r\n    uint128 constant N_COINS = 3;\r\n\r\n    uint128 public fees = 25;\r\n\r\n    uint128 public poolPart = 95;\r\n\r\n    uint256[N_COINS] public selfBalance;\r\n\r\n    IYieldOpt yldOpt;\r\n\r\n    address public owner;\r\n    // curvePool Pool;\r\n    Erc20[N_COINS] tokens;\r\n    // Erc20 PoolToken;\r\n    Erc20 rpToken;\r\n\r\n    uint[N_COINS] public YieldPoolBalance;\r\n\r\n    uint256 public thresholdTokenAmount = 500;\r\n\r\n    // Lock period in days\r\n    uint128 public lock_period;\r\n\r\n    struct depositDetails {\r\n        uint256[N_COINS] amount;\r\n        uint256[N_COINS] remAmt;\r\n        uint256 time;\r\n        bool[N_COINS] withdrawn;\r\n    }\r\n\r\n    mapping(address => uint256[N_COINS]) amountSupplied;\r\n    mapping(address => depositDetails[]) supplyTime;\r\n\r\n    mapping(address => uint256[N_COINS]) amountWithdraw;\r\n    mapping(address => bool) public isInQ;\r\n    uint32 recipientCount;\r\n    uint256[N_COINS] public totalWithdraw;\r\n\r\n\r\n    /* MULTISIG STORAGE */\r\n\r\n    uint constant public MAX_SIGNEE_COUNT = 50;\r\n    \r\n    mapping(uint256 => Transaction) public transactions;\r\n    mapping(address => mapping (uint256 => bool)) public confirmations;\r\n    mapping(uint256 => Repayment) gamingCompanyRepayment;\r\n    mapping(address => bool) public isSignee;\r\n\r\n    mapping(address => uint[]) takenLoan;\r\n    address[] public signees;\r\n    uint256 public transactionCount = 0;\r\n    uint256 public required;\r\n    \r\n    struct Transaction {\r\n        uint256 transactionId;\r\n        address iGamingCompany;\r\n        bool isGamingCompanySigned;\r\n        uint256[N_COINS] tokenAmounts;\r\n        uint256[N_COINS] remAmt;\r\n        bool approved;\r\n        bool executed;\r\n    }\r\n\r\n    struct Repayment {\r\n        uint256 transactionID;\r\n        bool isRepaymentDone;\r\n        uint256[N_COINS] remainingTokenAmounts;\r\n    }\r\n}",
  "sourcePath": "C:\\Users\\MayankVats\\Desktop\\WORK\\blockchain\\Royale\\royale-contracts\\contracts\\RoyaleLPstorage.sol",
  "compiler": {
    "name": "solc",
    "version": "0.6.12+commit.27d51765.Emscripten.clang"
  },
  "schemaVersion": "3.3.2",
  "updatedAt": "2020-12-14T04:40:16.491Z",
  "devdoc": {
    "kind": "dev",
    "methods": {},
    "version": 1
  },
  "userdoc": {
    "kind": "user",
    "methods": {},
    "version": 1
  }
}