{
  "contractName": "RoyaleLP",
  "abi": [
    {
      "inputs": [
        {
          "internalType": "address[3]",
          "name": "_tokens",
          "type": "address[3]"
        },
        {
          "internalType": "address",
          "name": "_rpToken",
          "type": "address"
        }
      ],
      "stateMutability": "nonpayable",
      "type": "constructor"
    },
    {
      "anonymous": false,
      "inputs": [
        {
          "indexed": false,
          "internalType": "address",
          "name": "adder",
          "type": "address"
        },
        {
          "indexed": false,
          "internalType": "uint256",
          "name": "numberOfSignees",
          "type": "uint256"
        }
      ],
      "name": "addedRequiredSignee",
      "type": "event"
    },
    {
      "anonymous": false,
      "inputs": [
        {
          "indexed": false,
          "internalType": "uint256",
          "name": "loanID",
          "type": "uint256"
        }
      ],
      "name": "approved",
      "type": "event"
    },
    {
      "anonymous": false,
      "inputs": [
        {
          "indexed": false,
          "internalType": "address",
          "name": "by",
          "type": "address"
        },
        {
          "indexed": false,
          "internalType": "uint256[3]",
          "name": "requestedAmount",
          "type": "uint256[3]"
        },
        {
          "indexed": false,
          "internalType": "uint256[3]",
          "name": "remainingAmount",
          "type": "uint256[3]"
        },
        {
          "indexed": false,
          "internalType": "uint256",
          "name": "loanID",
          "type": "uint256"
        }
      ],
      "name": "loanFulfilled",
      "type": "event"
    },
    {
      "anonymous": false,
      "inputs": [
        {
          "indexed": false,
          "internalType": "address",
          "name": "by",
          "type": "address"
        },
        {
          "indexed": false,
          "internalType": "uint256[3]",
          "name": "repayedAmount",
          "type": "uint256[3]"
        },
        {
          "indexed": false,
          "internalType": "uint256[3]",
          "name": "amountRemaining",
          "type": "uint256[3]"
        },
        {
          "indexed": false,
          "internalType": "uint256",
          "name": "loanID",
          "type": "uint256"
        }
      ],
      "name": "loanRepayed",
      "type": "event"
    },
    {
      "anonymous": false,
      "inputs": [
        {
          "indexed": false,
          "internalType": "address",
          "name": "by",
          "type": "address"
        },
        {
          "indexed": false,
          "internalType": "uint256[3]",
          "name": "amounts",
          "type": "uint256[3]"
        },
        {
          "indexed": false,
          "internalType": "uint256",
          "name": "loanID",
          "type": "uint256"
        }
      ],
      "name": "loanRequested",
      "type": "event"
    },
    {
      "anonymous": false,
      "inputs": [
        {
          "indexed": false,
          "internalType": "address",
          "name": "by",
          "type": "address"
        },
        {
          "indexed": false,
          "internalType": "uint256[3]",
          "name": "requestedAmount",
          "type": "uint256[3]"
        },
        {
          "indexed": false,
          "internalType": "uint256[3]",
          "name": "remainingAmount",
          "type": "uint256[3]"
        },
        {
          "indexed": false,
          "internalType": "uint256",
          "name": "loanID",
          "type": "uint256"
        }
      ],
      "name": "loanWithdrawn",
      "type": "event"
    },
    {
      "anonymous": false,
      "inputs": [
        {
          "indexed": false,
          "internalType": "address",
          "name": "signee",
          "type": "address"
        },
        {
          "indexed": false,
          "internalType": "uint256",
          "name": "loanID",
          "type": "uint256"
        }
      ],
      "name": "signed",
      "type": "event"
    },
    {
      "anonymous": false,
      "inputs": [
        {
          "indexed": false,
          "internalType": "address",
          "name": "signee",
          "type": "address"
        }
      ],
      "name": "signeeAdded",
      "type": "event"
    },
    {
      "anonymous": false,
      "inputs": [
        {
          "indexed": false,
          "internalType": "address",
          "name": "signee",
          "type": "address"
        }
      ],
      "name": "signeeRemoved",
      "type": "event"
    },
    {
      "anonymous": false,
      "inputs": [
        {
          "indexed": false,
          "internalType": "address",
          "name": "user",
          "type": "address"
        },
        {
          "indexed": false,
          "internalType": "uint256[3]",
          "name": "amounts",
          "type": "uint256[3]"
        }
      ],
      "name": "userAddedToQ",
      "type": "event"
    },
    {
      "anonymous": false,
      "inputs": [
        {
          "indexed": false,
          "internalType": "address",
          "name": "user",
          "type": "address"
        },
        {
          "indexed": false,
          "internalType": "uint256[3]",
          "name": "amounts",
          "type": "uint256[3]"
        }
      ],
      "name": "userRecieved",
      "type": "event"
    },
    {
      "anonymous": false,
      "inputs": [
        {
          "indexed": false,
          "internalType": "address",
          "name": "user",
          "type": "address"
        },
        {
          "indexed": false,
          "internalType": "uint256[3]",
          "name": "amounts",
          "type": "uint256[3]"
        }
      ],
      "name": "userSupplied",
      "type": "event"
    },
    {
      "anonymous": false,
      "inputs": [
        {
          "indexed": false,
          "internalType": "address",
          "name": "by",
          "type": "address"
        },
        {
          "indexed": false,
          "internalType": "uint256[3]",
          "name": "repayedAmount",
          "type": "uint256[3]"
        },
        {
          "indexed": false,
          "internalType": "uint256[3]",
          "name": "amountRemaining",
          "type": "uint256[3]"
        },
        {
          "indexed": false,
          "internalType": "uint256",
          "name": "loanID",
          "type": "uint256"
        }
      ],
      "name": "wholeLoanRepayed",
      "type": "event"
    },
    {
      "inputs": [],
      "name": "BASE_DECIMAL",
      "outputs": [
        {
          "internalType": "uint256",
          "name": "",
          "type": "uint256"
        }
      ],
      "stateMutability": "view",
      "type": "function"
    },
    {
      "inputs": [],
      "name": "MAX_SIGNEE_COUNT",
      "outputs": [
        {
          "internalType": "uint256",
          "name": "",
          "type": "uint256"
        }
      ],
      "stateMutability": "view",
      "type": "function"
    },
    {
      "inputs": [
        {
          "internalType": "uint256",
          "name": "",
          "type": "uint256"
        }
      ],
      "name": "YieldPoolBalance",
      "outputs": [
        {
          "internalType": "uint256",
          "name": "",
          "type": "uint256"
        }
      ],
      "stateMutability": "view",
      "type": "function"
    },
    {
      "inputs": [
        {
          "internalType": "address",
          "name": "signee",
          "type": "address"
        }
      ],
      "name": "addSignee",
      "outputs": [],
      "stateMutability": "nonpayable",
      "type": "function"
    },
    {
      "inputs": [
        {
          "internalType": "uint256",
          "name": "_loanID",
          "type": "uint256"
        }
      ],
      "name": "checkLoanApproved",
      "outputs": [
        {
          "internalType": "bool",
          "name": "",
          "type": "bool"
        }
      ],
      "stateMutability": "view",
      "type": "function"
    },
    {
      "inputs": [
        {
          "internalType": "uint256",
          "name": "_loanID",
          "type": "uint256"
        }
      ],
      "name": "confirmLoan",
      "outputs": [],
      "stateMutability": "nonpayable",
      "type": "function"
    },
    {
      "inputs": [
        {
          "internalType": "address",
          "name": "",
          "type": "address"
        },
        {
          "internalType": "uint256",
          "name": "",
          "type": "uint256"
        }
      ],
      "name": "confirmations",
      "outputs": [
        {
          "internalType": "bool",
          "name": "",
          "type": "bool"
        }
      ],
      "stateMutability": "view",
      "type": "function"
    },
    {
      "inputs": [],
      "name": "fees",
      "outputs": [
        {
          "internalType": "uint128",
          "name": "",
          "type": "uint128"
        }
      ],
      "stateMutability": "view",
      "type": "function"
    },
    {
      "inputs": [
        {
          "internalType": "uint256",
          "name": "_loanID",
          "type": "uint256"
        }
      ],
      "name": "getTransactionDetail",
      "outputs": [
        {
          "components": [
            {
              "internalType": "uint256",
              "name": "transactionId",
              "type": "uint256"
            },
            {
              "internalType": "address",
              "name": "iGamingCompany",
              "type": "address"
            },
            {
              "internalType": "bool",
              "name": "isGamingCompanySigned",
              "type": "bool"
            },
            {
              "internalType": "uint256[3]",
              "name": "tokenAmounts",
              "type": "uint256[3]"
            },
            {
              "internalType": "uint256[3]",
              "name": "remAmt",
              "type": "uint256[3]"
            },
            {
              "internalType": "bool",
              "name": "approved",
              "type": "bool"
            },
            {
              "internalType": "bool",
              "name": "executed",
              "type": "bool"
            }
          ],
          "internalType": "struct RoyaleLPstorage.Transaction",
          "name": "",
          "type": "tuple"
        }
      ],
      "stateMutability": "view",
      "type": "function"
    },
    {
      "inputs": [
        {
          "internalType": "address",
          "name": "",
          "type": "address"
        }
      ],
      "name": "isInQ",
      "outputs": [
        {
          "internalType": "bool",
          "name": "",
          "type": "bool"
        }
      ],
      "stateMutability": "view",
      "type": "function"
    },
    {
      "inputs": [
        {
          "internalType": "address",
          "name": "",
          "type": "address"
        }
      ],
      "name": "isSignee",
      "outputs": [
        {
          "internalType": "bool",
          "name": "",
          "type": "bool"
        }
      ],
      "stateMutability": "view",
      "type": "function"
    },
    {
      "inputs": [],
      "name": "lock_period",
      "outputs": [
        {
          "internalType": "uint128",
          "name": "",
          "type": "uint128"
        }
      ],
      "stateMutability": "view",
      "type": "function"
    },
    {
      "inputs": [],
      "name": "owner",
      "outputs": [
        {
          "internalType": "address",
          "name": "",
          "type": "address"
        }
      ],
      "stateMutability": "view",
      "type": "function"
    },
    {
      "inputs": [],
      "name": "poolPart",
      "outputs": [
        {
          "internalType": "uint128",
          "name": "",
          "type": "uint128"
        }
      ],
      "stateMutability": "view",
      "type": "function"
    },
    {
      "inputs": [
        {
          "internalType": "address",
          "name": "signee",
          "type": "address"
        }
      ],
      "name": "removeSignee",
      "outputs": [],
      "stateMutability": "nonpayable",
      "type": "function"
    },
    {
      "inputs": [
        {
          "internalType": "uint256[3]",
          "name": "amounts",
          "type": "uint256[3]"
        }
      ],
      "name": "requestLoan",
      "outputs": [
        {
          "internalType": "uint256",
          "name": "",
          "type": "uint256"
        }
      ],
      "stateMutability": "nonpayable",
      "type": "function"
    },
    {
      "inputs": [],
      "name": "required",
      "outputs": [
        {
          "internalType": "uint256",
          "name": "",
          "type": "uint256"
        }
      ],
      "stateMutability": "view",
      "type": "function"
    },
    {
      "inputs": [
        {
          "internalType": "uint256",
          "name": "",
          "type": "uint256"
        }
      ],
      "name": "selfBalance",
      "outputs": [
        {
          "internalType": "uint256",
          "name": "",
          "type": "uint256"
        }
      ],
      "stateMutability": "view",
      "type": "function"
    },
    {
      "inputs": [
        {
          "internalType": "uint256",
          "name": "_required",
          "type": "uint256"
        }
      ],
      "name": "setRequiredSignee",
      "outputs": [],
      "stateMutability": "nonpayable",
      "type": "function"
    },
    {
      "inputs": [
        {
          "internalType": "uint256",
          "name": "_loanID",
          "type": "uint256"
        }
      ],
      "name": "signTransaction",
      "outputs": [],
      "stateMutability": "nonpayable",
      "type": "function"
    },
    {
      "inputs": [
        {
          "internalType": "uint256",
          "name": "",
          "type": "uint256"
        }
      ],
      "name": "signees",
      "outputs": [
        {
          "internalType": "address",
          "name": "",
          "type": "address"
        }
      ],
      "stateMutability": "view",
      "type": "function"
    },
    {
      "inputs": [],
      "name": "thresholdTokenAmount",
      "outputs": [
        {
          "internalType": "uint256",
          "name": "",
          "type": "uint256"
        }
      ],
      "stateMutability": "view",
      "type": "function"
    },
    {
      "inputs": [
        {
          "internalType": "uint256",
          "name": "",
          "type": "uint256"
        }
      ],
      "name": "totalWithdraw",
      "outputs": [
        {
          "internalType": "uint256",
          "name": "",
          "type": "uint256"
        }
      ],
      "stateMutability": "view",
      "type": "function"
    },
    {
      "inputs": [],
      "name": "transactionCount",
      "outputs": [
        {
          "internalType": "uint256",
          "name": "",
          "type": "uint256"
        }
      ],
      "stateMutability": "view",
      "type": "function"
    },
    {
      "inputs": [
        {
          "internalType": "uint256",
          "name": "",
          "type": "uint256"
        }
      ],
      "name": "transactions",
      "outputs": [
        {
          "internalType": "uint256",
          "name": "transactionId",
          "type": "uint256"
        },
        {
          "internalType": "address",
          "name": "iGamingCompany",
          "type": "address"
        },
        {
          "internalType": "bool",
          "name": "isGamingCompanySigned",
          "type": "bool"
        },
        {
          "internalType": "bool",
          "name": "approved",
          "type": "bool"
        },
        {
          "internalType": "bool",
          "name": "executed",
          "type": "bool"
        }
      ],
      "stateMutability": "view",
      "type": "function"
    },
    {
      "inputs": [
        {
          "internalType": "uint256[3]",
          "name": "amounts",
          "type": "uint256[3]"
        }
      ],
      "name": "supply",
      "outputs": [],
      "stateMutability": "nonpayable",
      "type": "function"
    },
    {
      "inputs": [
        {
          "internalType": "uint256[3]",
          "name": "amounts",
          "type": "uint256[3]"
        }
      ],
      "name": "requestWithdraw",
      "outputs": [],
      "stateMutability": "nonpayable",
      "type": "function"
    },
    {
      "inputs": [
        {
          "internalType": "uint256[3]",
          "name": "amounts",
          "type": "uint256[3]"
        },
        {
          "internalType": "uint256",
          "name": "_loanID",
          "type": "uint256"
        }
      ],
      "name": "withdrawLoan",
      "outputs": [],
      "stateMutability": "nonpayable",
      "type": "function"
    },
    {
      "inputs": [
        {
          "internalType": "uint256[3]",
          "name": "_amounts",
          "type": "uint256[3]"
        },
        {
          "internalType": "uint256",
          "name": "_loanId",
          "type": "uint256"
        }
      ],
      "name": "repayLoan",
      "outputs": [],
      "stateMutability": "nonpayable",
      "type": "function"
    },
    {
      "inputs": [
        {
          "internalType": "uint256[3]",
          "name": "amounts",
          "type": "uint256[3]"
        }
      ],
      "name": "checkMintAmount",
      "outputs": [
        {
          "internalType": "uint256",
          "name": "",
          "type": "uint256"
        }
      ],
      "stateMutability": "view",
      "type": "function"
    },
    {
      "inputs": [
        {
          "internalType": "uint256[3]",
          "name": "amounts",
          "type": "uint256[3]"
        }
      ],
      "name": "checkBurnAmount",
      "outputs": [
        {
          "internalType": "uint256",
          "name": "",
          "type": "uint256"
        }
      ],
      "stateMutability": "view",
      "type": "function"
    },
    {
      "inputs": [],
      "name": "deposit",
      "outputs": [],
      "stateMutability": "nonpayable",
      "type": "function"
    },
    {
      "inputs": [],
      "name": "withdraw",
      "outputs": [],
      "stateMutability": "nonpayable",
      "type": "function"
    },
    {
      "inputs": [
        {
          "internalType": "uint128",
          "name": "_newPoolPart",
          "type": "uint128"
        }
      ],
      "name": "changePoolPart",
      "outputs": [
        {
          "internalType": "bool",
          "name": "",
          "type": "bool"
        }
      ],
      "stateMutability": "nonpayable",
      "type": "function"
    },
    {
      "inputs": [
        {
          "internalType": "uint256",
          "name": "_newThreshold",
          "type": "uint256"
        }
      ],
      "name": "setThresholdTokenAmount",
      "outputs": [
        {
          "internalType": "bool",
          "name": "",
          "type": "bool"
        }
      ],
      "stateMutability": "nonpayable",
      "type": "function"
    },
    {
      "inputs": [],
      "name": "setInitialDeposit",
      "outputs": [
        {
          "internalType": "bool",
          "name": "",
          "type": "bool"
        }
      ],
      "stateMutability": "nonpayable",
      "type": "function"
    },
    {
      "inputs": [
        {
          "internalType": "contract IYieldOpt",
          "name": "_yldOpt",
          "type": "address"
        }
      ],
      "name": "setYieldOpt",
      "outputs": [
        {
          "internalType": "bool",
          "name": "",
          "type": "bool"
        }
      ],
      "stateMutability": "nonpayable",
      "type": "function"
    },
    {
      "inputs": [
        {
          "internalType": "uint128",
          "name": "lockperiod",
          "type": "uint128"
        }
      ],
      "name": "setLockPeriod",
      "outputs": [
        {
          "internalType": "bool",
          "name": "",
          "type": "bool"
        }
      ],
      "stateMutability": "nonpayable",
      "type": "function"
    },
    {
      "inputs": [
        {
          "internalType": "uint128",
          "name": "_fees",
          "type": "uint128"
        }
      ],
      "name": "setWithdrawFees",
      "outputs": [
        {
          "internalType": "bool",
          "name": "",
          "type": "bool"
        }
      ],
      "stateMutability": "nonpayable",
      "type": "function"
    }
  ],
  "bytecode": "0x60806040526001805560006002556019600460006101000a8154816fffffffffffffffffffffffffffffffff02191690836fffffffffffffffffffffffffffffffff160217905550605f600460106101000a8154816fffffffffffffffffffffffffffffffff02191690836fffffffffffffffffffffffffffffffff1602179055506101f460115560006021553480156200009957600080fd5b5060405162006125380380620061258339818101604052810190620000bf919062000274565b33600960006101000a81548173ffffffffffffffffffffffffffffffffffffffff021916908373ffffffffffffffffffffffffffffffffffffffff16021790555060005b60036fffffffffffffffffffffffffffffffff168160ff1610156200019557828160ff16600381106200013257fe5b6020020151600a8260ff16600381106200014857fe5b0160006101000a81548173ffffffffffffffffffffffffffffffffffffffff021916908373ffffffffffffffffffffffffffffffffffffffff160217905550808060010191505062000103565b5080600d60006101000a81548173ffffffffffffffffffffffffffffffffffffffff021916908373ffffffffffffffffffffffffffffffffffffffff160217905550505062000354565b600081519050620001f0816200033a565b92915050565b600082601f8301126200020857600080fd5b60036200021f6200021982620002e3565b620002b5565b915081838560208402820111156200023657600080fd5b60005b838110156200026a57816200024f8882620001df565b84526020840193506020830192505060018101905062000239565b5050505092915050565b600080608083850312156200028857600080fd5b60006200029885828601620001f6565b9250506060620002ab85828601620001df565b9150509250929050565b6000604051905081810181811067ffffffffffffffff82111715620002d957600080fd5b8060405250919050565b600067ffffffffffffffff821115620002fb57600080fd5b602082029050919050565b600062000313826200031a565b9050919050565b600073ffffffffffffffffffffffffffffffffffffffff82169050919050565b620003458162000306565b81146200035157600080fd5b50565b615dc180620003646000396000f3fe608060405234801561001057600080fd5b506004361061023d5760003560e01c80638da5cb5b1161013b578063b77bf600116100b8578063da412b4d1161007c578063da412b4d14610716578063db28bfd014610746578063dc8452cd14610776578063f83e9a2014610794578063f84fd9ef146107b25761023d565b8063b77bf60014610670578063b8b106801461068e578063c89eb036146106be578063d0e30db0146106dc578063d80a93d6146106e65761023d565b80639b364162116100ff5780639b364162146105a85780639ff512fa146105c4578063a70200bd146105f4578063ae8df6a614610624578063b0580ce9146106545761023d565b80638da5cb5b146104ea5780638e9b032614610508578063905f692e146105265780639ace38c2146105565780639af1d35a1461058a5761023d565b80633d591bc2116101c9578063698504241161018d578063698504241461040c5780636b9f1ef61461043c57806381f433f01461046c5780638a409d111461049c5780638af81478146104cc5761023d565b80633d591bc21461036a57806347d4a6a81461038657806352f6e238146103a25780635d9ec210146103c057806362a945d1146103dc5761023d565b80631880432a116102105780631880432a146102c6578063277514e0146102e457806331805a2b1461030057806332b72e0b146103305780633ccfd60b146103605761023d565b80630385b5811461024257806304971367146102725780630d88122c1461028e5780630f8cdd88146102aa575b600080fd5b61025c6004803603810190610257919061506d565b6107e2565b604051610269919061592a565b60405180910390f35b61028c600480360381019061028791906151b2565b610802565b005b6102a860048036038101906102a391906150d2565b6109d7565b005b6102c460048036038101906102bf919061506d565b610ad7565b005b6102ce610c26565b6040516102db9190615b1c565b60405180910390f35b6102fe60048036038101906102f991906150fb565b610c2b565b005b61031a600480360381019061031591906151b2565b611164565b6040516103279190615b1c565b60405180910390f35b61034a60048036038101906103459190615160565b61117c565b604051610357919061592a565b60405180910390f35b610368611222565b005b610384600480360381019061037f91906150fb565b611369565b005b6103a0600480360381019061039b91906150d2565b611720565b005b6103aa61228b565b6040516103b7919061592a565b60405180910390f35b6103da60048036038101906103d591906151b2565b612307565b005b6103f660048036038101906103f191906150d2565b61242f565b6040516104039190615b1c565b60405180910390f35b610426600480360381019061042191906151b2565b6124fd565b6040516104339190615b1c565b60405180910390f35b61045660048036038101906104519190615189565b612515565b604051610463919061592a565b60405180910390f35b61048660048036038101906104819190615189565b6125b3565b604051610493919061592a565b60405180910390f35b6104b660048036038101906104b191906150d2565b612651565b6040516104c39190615b1c565b60405180910390f35b6104d46126a1565b6040516104e19190615b1c565b60405180910390f35b6104f26126ad565b6040516104ff91906157aa565b60405180910390f35b6105106126d3565b60405161051d9190615b01565b60405180910390f35b610540600480360381019061053b919061506d565b6126f5565b60405161054d919061592a565b60405180910390f35b610570600480360381019061056b91906151b2565b612715565b604051610581959493929190615b37565b60405180910390f35b610592612792565b60405161059f9190615b01565b60405180910390f35b6105c260048036038101906105bd919061506d565b6127b4565b005b6105de60048036038101906105d991906151b2565b612a3c565b6040516105eb9190615ae5565b60405180910390f35b61060e60048036038101906106099190615189565b612ba4565b60405161061b919061592a565b60405180910390f35b61063e600480360381019061063991906151b2565b612c42565b60405161064b919061592a565b60405180910390f35b61066e600480360381019061066991906151b2565b612c6f565b005b610678612d4b565b6040516106859190615b1c565b60405180910390f35b6106a860048036038101906106a391906151b2565b612d51565b6040516106b5919061592a565b60405180910390f35b6106c6612dbd565b6040516106d39190615b1c565b60405180910390f35b6106e4612dc3565b005b61070060048036038101906106fb91906151b2565b613197565b60405161070d91906157aa565b60405180910390f35b610730600480360381019061072b91906150d2565b6131d3565b60405161073d9190615b1c565b60405180910390f35b610760600480360381019061075b91906151b2565b613223565b60405161076d9190615b1c565b60405180910390f35b61077e61323b565b60405161078b9190615b1c565b60405180910390f35b61079c613241565b6040516107a99190615b01565b60405180910390f35b6107cc60048036038101906107c79190615096565b613263565b6040516107d9919061592a565b60405180910390f35b601e6020528060005260406000206000915054906101000a900460ff1681565b33601e60008273ffffffffffffffffffffffffffffffffffffffff1673ffffffffffffffffffffffffffffffffffffffff16815260200190815260200160002060009054906101000a900460ff1661085957600080fd5b8160008111801561086c57506021548111155b61087557600080fd5b3383601c60008373ffffffffffffffffffffffffffffffffffffffff1673ffffffffffffffffffffffffffffffffffffffff168152602001908152602001600020600082815260200190815260200160002060009054906101000a900460ff16156108df57600080fd5b6001601c60003373ffffffffffffffffffffffffffffffffffffffff1673ffffffffffffffffffffffffffffffffffffffff168152602001908152602001600020600087815260200190815260200160002060006101000a81548160ff0219169083151502179055507f24e5bfa739656f6dd56210dbd8ccbfdabcae46f85752164562c69dffd61a320b33866040516109799291906158bd565b60405180910390a161098a85613292565b156109d057610998856133a0565b7f7d4061e68fab364906497bb959d95ad3f052a3978fed6ce9942a2b8f737aae54856040516109c79190615b1c565b60405180910390a15b5050505050565b6000610a1b826003806020026040519081016040528092919082600360200280828437600081840152601f19601f82011690508083019250505050505060006134a9565b11610a5b576040517f08c379a0000000000000000000000000000000000000000000000000000000008152600401610a5290615945565b60405180910390fd5b610a9b816003806020026040519081016040528092919082600360200280828437600081840152601f19601f820116905080830192505050505050613701565b7fe7f2330a99451f199f91ed2ac09887e25894cb0e14021fe5d29bc959e7283d0e3382604051610acc929190615817565b60405180910390a150565b600960009054906101000a900473ffffffffffffffffffffffffffffffffffffffff1673ffffffffffffffffffffffffffffffffffffffff163373ffffffffffffffffffffffffffffffffffffffff1614610b3157600080fd5b6001601e60008373ffffffffffffffffffffffffffffffffffffffff1673ffffffffffffffffffffffffffffffffffffffff16815260200190815260200160002060006101000a81548160ff0219169083151502179055506020819080600181540180825580915050600190039060005260206000200160009091909190916101000a81548173ffffffffffffffffffffffffffffffffffffffff021916908373ffffffffffffffffffffffffffffffffffffffff1602179055507fa0aa61ae85a95577b5775982299a5bfc418ef90f41d6bb03a7f2d5a6f7738eaf81604051610c1b91906157aa565b60405180910390a150565b603281565b3373ffffffffffffffffffffffffffffffffffffffff16601b600083815260200190815260200160002060010160009054906101000a900473ffffffffffffffffffffffffffffffffffffffff1673ffffffffffffffffffffffffffffffffffffffff1614610ccf576040517f08c379a0000000000000000000000000000000000000000000000000000000008152600401610cc6906159e5565b60405180910390fd5b601b600082815260200190815260200160002060080160009054906101000a900460ff16610d32576040517f08c379a0000000000000000000000000000000000000000000000000000000008152600401610d2990615ac5565b60405180910390fd5b60005b60036fffffffffffffffffffffffffffffffff168160ff161015610ddb57828160ff1660038110610d6257fe5b6020020135601b60008481526020019081526020016000206005018260ff1660038110610d8b57fe5b01541015610dce576040517f08c379a0000000000000000000000000000000000000000000000000000000008152600401610dc590615ac5565b60405180910390fd5b8080600101915050610d35565b50610e1c826003806020026040519081016040528092919082600360200280828437600081840152601f19601f820116905080830192505050505050613a67565b6000805b60036fffffffffffffffffffffffffffffffff168160ff161015610fb7576000848260ff1660038110610e4f57fe5b60200201351115610f7357600a8160ff1660038110610e6a57fe5b0160009054906101000a900473ffffffffffffffffffffffffffffffffffffffff1673ffffffffffffffffffffffffffffffffffffffff1663a9059cbb33868460ff1660038110610eb757fe5b60200201356040518363ffffffff1660e01b8152600401610ed99291906158bd565b602060405180830381600087803b158015610ef357600080fd5b505af1158015610f07573d6000803e3d6000fd5b505050506040513d601f19601f82011682018060405250810190610f2b9190615137565b50838160ff1660038110610f3b57fe5b6020020135601b60008581526020019081526020016000206005018260ff1660038110610f6457fe5b01600082825403925050819055505b6000601b60008581526020019081526020016000206005018260ff1660038110610f9957fe5b01541415610faa5781806001019250505b8080600101915050610e20565b507f3fe87a796bb63522ae7b9008d51ff617ee24dbde9a0fac8ed85e5a29e78175563384601b6000868152602001908152602001600020600501856040516110029493929190615840565b60405180910390a160038160ff16141561115f576001601b600084815260200190815260200160002060080160016101000a81548160ff0219169083151502179055506040518060600160405280838152602001600015158152602001601b60008581526020019081526020016000206002016003806020026040519081016040528092919082600380156110ac576020028201915b815481526020019060010190808311611098575b5050505050815250601d60008481526020019081526020016000206000820151816000015560208201518160010160006101000a81548160ff021916908315150217905550604082015181600201906003611108929190614d7e565b509050507fc3fd3a068edf38e1a0ccd0f7e52aea669eb60f90dbb25026798e25db56f3a6f33384601b6000868152602001908152602001600020600201856040516111569493929190615840565b60405180910390a15b505050565b600e816003811061117157fe5b016000915090505481565b6000600960009054906101000a900473ffffffffffffffffffffffffffffffffffffffff1673ffffffffffffffffffffffffffffffffffffffff163373ffffffffffffffffffffffffffffffffffffffff16146111d857600080fd5b81600860006101000a81548173ffffffffffffffffffffffffffffffffffffffff021916908373ffffffffffffffffffffffffffffffffffffffff16021790555060019050919050565b600960009054906101000a900473ffffffffffffffffffffffffffffffffffffffff1673ffffffffffffffffffffffffffffffffffffffff163373ffffffffffffffffffffffffffffffffffffffff161461127c57600080fd5b6000805b60036fffffffffffffffffffffffffffffffff168160ff1610156112d157600060188260ff16600381106112b057fe5b0154146112c45781806001019250506112d1565b8080600101915050611280565b5060008160ff1611611318576040517f08c379a000000000000000000000000000000000000000000000000000000000815260040161130f90615965565b60405180910390fd5b61135e6018600380602002604051908101604052809291908260038015611354576020028201915b815481526020019060010190808311611340575b5050505050613a67565b611366613b58565b50565b6021548111156113ae576040517f08c379a00000000000000000000000000000000000000000000000000000000081526004016113a5906159a5565b60405180910390fd5b3373ffffffffffffffffffffffffffffffffffffffff16601b600083815260200190815260200160002060010160009054906101000a900473ffffffffffffffffffffffffffffffffffffffff1673ffffffffffffffffffffffffffffffffffffffff1614611452576040517f08c379a0000000000000000000000000000000000000000000000000000000008152600401611449906159c5565b60405180910390fd5b601d600082815260200190815260200160002060010160009054906101000a900460ff16156114b6576040517f08c379a00000000000000000000000000000000000000000000000000000000081526004016114ad90615a45565b60405180910390fd5b6000805b60036fffffffffffffffffffffffffffffffff1681101561163d5760008482600381106114e357fe5b60200201351461163057600a81600381106114fa57fe5b0160009054906101000a900473ffffffffffffffffffffffffffffffffffffffff1673ffffffffffffffffffffffffffffffffffffffff166323b872dd333087856003811061154557fe5b60200201356040518463ffffffff1660e01b8152600401611568939291906157e0565b602060405180830381600087803b15801561158257600080fd5b505af1158015611596573d6000803e3d6000fd5b505050506040513d601f19601f820116820180604052508101906115ba9190615137565b508381600381106115c757fe5b6020020135601d600085815260200190815260200160002060020182600381106115ed57fe5b01600082825403925050819055506000601d6000858152602001908152602001600020600201826003811061161e57fe5b0154141561162f5781806001019250505b5b80806001019150506114ba565b507ffe337a99fc07b4422a06a40fb4728125523f3c0977d012d21e3eb9f89edfd3603384601d6000868152602001908152602001600020600201856040516116889493929190615840565b60405180910390a1600381141561171b576001601d600084815260200190815260200160002060010160006101000a81548160ff0219169083151502179055507f57d01a01ec1287fb00888c92856cb0f45352809b7a5350fdd677ce76f78262993384601d6000868152602001908152602001600020600201856040516117129493929190615840565b60405180910390a15b505050565b6000611764826003806020026040519081016040528092919082600360200280828437600081840152601f19601f82011690508083019250505050505060006134a9565b116117a4576040517f08c379a000000000000000000000000000000000000000000000000000000000815260040161179b90615945565b60405180910390fd5b60006117e8826003806020026040519081016040528092919082600360200280828437600081840152601f19601f82011690508083019250505050505060016134a9565b905080600d60009054906101000a900473ffffffffffffffffffffffffffffffffffffffff1673ffffffffffffffffffffffffffffffffffffffff166370a08231336040518263ffffffff1660e01b815260040161184691906157c5565b60206040518083038186803b15801561185e57600080fd5b505afa158015611872573d6000803e3d6000fd5b505050506040513d601f19601f8201168201806040525081019061189691906151db565b10156118d7576040517f08c379a00000000000000000000000000000000000000000000000000000000081526004016118ce90615aa5565b60405180910390fd5b6118df614dbe565b6118e7613baa565b90506118f1614dbe565b600060019050600080600090505b60036fffffffffffffffffffffffffffffffff168160ff161015611b94576000878260ff166003811061192e57fe5b60200201351115611b875760005b601460003373ffffffffffffffffffffffffffffffffffffffff1673ffffffffffffffffffffffffffffffffffffffff168152602001908152602001600020805490508160ff161015611b5257601260009054906101000a90046fffffffffffffffffffffffffffffffff1662015180026fffffffffffffffffffffffffffffffff16601460003373ffffffffffffffffffffffffffffffffffffffff1673ffffffffffffffffffffffffffffffffffffffff1681526020019081526020016000208260ff1681548110611a0c57fe5b9060005260206000209060080201600601544203118015611ab3575060011515601460003373ffffffffffffffffffffffffffffffffffffffff1673ffffffffffffffffffffffffffffffffffffffff1681526020019081526020016000208260ff1681548110611a7957fe5b90600052602060002090600802016007018360ff1660038110611a9857fe5b602091828204019190069054906101000a900460ff16151514155b15611b4557601460003373ffffffffffffffffffffffffffffffffffffffff1673ffffffffffffffffffffffffffffffffffffffff1681526020019081526020016000208160ff1681548110611b0557fe5b90600052602060002090600802016003018260ff1660038110611b2457fe5b0154858360ff1660038110611b3557fe5b6020020181815101915081815250505b808060010191505061193c565b50868160ff1660038110611b6257fe5b6020020135848260ff1660038110611b7657fe5b60200201511015611b8657600092505b5b80806001019150506118ff565b5081611bd5576040517f08c379a0000000000000000000000000000000000000000000000000000000008152600401611bcc90615985565b60405180910390fd5b60005b60036fffffffffffffffffffffffffffffffff168160ff161015611c5657848160ff1660038110611c0557fe5b6020020151878260ff1660038110611c1957fe5b6020020135108015611c3f57506000878260ff1660038110611c3757fe5b602002013514155b15611c4957600191505b8080600101915050611bd8565b50801561220957600d60009054906101000a900473ffffffffffffffffffffffffffffffffffffffff1673ffffffffffffffffffffffffffffffffffffffff16639dc29fac33876040518363ffffffff1660e01b8152600401611cba9291906158bd565b600060405180830381600087803b158015611cd457600080fd5b505af1158015611ce8573d6000803e3d6000fd5b50505050600080600090505b60036fffffffffffffffffffffffffffffffff168160ff1610156121c9576000888260ff1660038110611d2357fe5b602002013511156121bc57600a8160ff1660038110611d3e57fe5b0160009054906101000a900473ffffffffffffffffffffffffffffffffffffffff1673ffffffffffffffffffffffffffffffffffffffff1663a9059cbb338a8460ff1660038110611d8b57fe5b60200201356040518363ffffffff1660e01b8152600401611dad9291906158bd565b602060405180830381600087803b158015611dc757600080fd5b505af1158015611ddb573d6000803e3d6000fd5b505050506040513d601f19601f82011682018060405250810190611dff9190615137565b915081611e0b57600080fd5b878160ff1660038110611e1a57fe5b602002013560058260ff1660038110611e2f57fe5b01600082825403925050819055506000888260ff1660038110611e4e57fe5b6020020135905060005b601460003373ffffffffffffffffffffffffffffffffffffffff1673ffffffffffffffffffffffffffffffffffffffff168152602001908152602001600020805490508160ff1610156121b95760011515601460003373ffffffffffffffffffffffffffffffffffffffff1673ffffffffffffffffffffffffffffffffffffffff1681526020019081526020016000208260ff1681548110611ef657fe5b90600052602060002090600802016007018460ff1660038110611f1557fe5b602091828204019190069054906101000a900460ff16151514158015611f3b5750600082115b156121ac57601460003373ffffffffffffffffffffffffffffffffffffffff1673ffffffffffffffffffffffffffffffffffffffff1681526020019081526020016000208160ff1681548110611f8d57fe5b90600052602060002090600802016003018360ff1660038110611fac57fe5b0154821061212b57601460003373ffffffffffffffffffffffffffffffffffffffff1673ffffffffffffffffffffffffffffffffffffffff1681526020019081526020016000208160ff168154811061200157fe5b90600052602060002090600802016003018360ff166003811061202057fe5b0154820391506000601460003373ffffffffffffffffffffffffffffffffffffffff1673ffffffffffffffffffffffffffffffffffffffff1681526020019081526020016000208260ff168154811061207557fe5b90600052602060002090600802016003018460ff166003811061209457fe5b01819055506001601460003373ffffffffffffffffffffffffffffffffffffffff1673ffffffffffffffffffffffffffffffffffffffff1681526020019081526020016000208260ff16815481106120e857fe5b90600052602060002090600802016007018460ff166003811061210757fe5b602091828204019190066101000a81548160ff0219169083151502179055506121ab565b81601460003373ffffffffffffffffffffffffffffffffffffffff1673ffffffffffffffffffffffffffffffffffffffff1681526020019081526020016000208260ff168154811061217957fe5b90600052602060002090600802016003018460ff166003811061219857fe5b0160008282540392505081905550600091505b5b8080600101915050611e58565b50505b8080600101915050611cf4565b507fe9c01f7dea3ef08b44263b3cf5963eb42309e5fb5bec9305dbe12b82f37b519c33886040516121fb929190615817565b60405180910390a150612283565b612249866003806020026040519081016040528092919082600360200280828437600081840152601f19601f820116905080830192505050505050613cc2565b7fe2d5e24e56e4f05473adb8bb616473de3894beab8011d32382a638d1d2617c93338760405161227a929190615817565b60405180910390a15b505050505050565b6000600960009054906101000a900473ffffffffffffffffffffffffffffffffffffffff1673ffffffffffffffffffffffffffffffffffffffff163373ffffffffffffffffffffffffffffffffffffffff16146122e757600080fd5b6122ef613baa565b60059060036122ff929190614d7e565b506001905090565b3373ffffffffffffffffffffffffffffffffffffffff16601b600083815260200190815260200160002060010160009054906101000a900473ffffffffffffffffffffffffffffffffffffffff1673ffffffffffffffffffffffffffffffffffffffff161461237557600080fd5b6001601b600083815260200190815260200160002060010160146101000a81548160ff0219169083151502179055507f24e5bfa739656f6dd56210dbd8ccbfdabcae46f85752164562c69dffd61a320b33826040516123d59291906158bd565b60405180910390a16123e681613292565b1561242c576123f4816133a0565b7f7d4061e68fab364906497bb959d95ad3f052a3978fed6ce9942a2b8f737aae54816040516124239190615b1c565b60405180910390a15b50565b6000602254602080549050101561247b576040517f08c379a000000000000000000000000000000000000000000000000000000000815260040161247290615a05565b60405180910390fd5b6124bb826003806020026040519081016040528092919082600360200280828437600081840152601f19601f820116905080830192505050505050613e91565b7f6825b4653b0626e0268f9c124dce0ea5cc6f826ccb2cf314459bd1c62cf011f733836021546040516124f093929190615886565b60405180910390a1919050565b6005816003811061250a57fe5b016000915090505481565b6000600960009054906101000a900473ffffffffffffffffffffffffffffffffffffffff1673ffffffffffffffffffffffffffffffffffffffff163373ffffffffffffffffffffffffffffffffffffffff161461257157600080fd5b81600460006101000a8154816fffffffffffffffffffffffffffffffff02191690836fffffffffffffffffffffffffffffffff16021790555060019050919050565b6000600960009054906101000a900473ffffffffffffffffffffffffffffffffffffffff1673ffffffffffffffffffffffffffffffffffffffff163373ffffffffffffffffffffffffffffffffffffffff161461260f57600080fd5b81601260006101000a8154816fffffffffffffffffffffffffffffffff02191690836fffffffffffffffffffffffffffffffff16021790555060019050919050565b600080612696836003806020026040519081016040528092919082600360200280828437600081840152601f19601f82011690508083019250505050505060016134a9565b905080915050919050565b670de0b6b3a764000081565b600960009054906101000a900473ffffffffffffffffffffffffffffffffffffffff1681565b600460109054906101000a90046fffffffffffffffffffffffffffffffff1681565b60166020528060005260406000206000915054906101000a900460ff1681565b601b6020528060005260406000206000915090508060000154908060010160009054906101000a900473ffffffffffffffffffffffffffffffffffffffff16908060010160149054906101000a900460ff16908060080160009054906101000a900460ff16908060080160019054906101000a900460ff16905085565b600460009054906101000a90046fffffffffffffffffffffffffffffffff1681565b600960009054906101000a900473ffffffffffffffffffffffffffffffffffffffff1673ffffffffffffffffffffffffffffffffffffffff163373ffffffffffffffffffffffffffffffffffffffff161461280e57600080fd5b80601e60008273ffffffffffffffffffffffffffffffffffffffff1673ffffffffffffffffffffffffffffffffffffffff16815260200190815260200160002060009054906101000a900460ff1661286557600080fd5b6000601e60008473ffffffffffffffffffffffffffffffffffffffff1673ffffffffffffffffffffffffffffffffffffffff16815260200190815260200160002060006101000a81548160ff02191690831515021790555060005b6001602080549050038110156129e2578273ffffffffffffffffffffffffffffffffffffffff16602082815481106128f457fe5b9060005260206000200160009054906101000a900473ffffffffffffffffffffffffffffffffffffffff1673ffffffffffffffffffffffffffffffffffffffff1614156129d55760206001602080549050038154811061295057fe5b9060005260206000200160009054906101000a900473ffffffffffffffffffffffffffffffffffffffff166020828154811061298857fe5b9060005260206000200160006101000a81548173ffffffffffffffffffffffffffffffffffffffff021916908373ffffffffffffffffffffffffffffffffffffffff1602179055506129e2565b80806001019150506128c0565b506020805490506022541115612a0157612a00602080549050612c6f565b5b7f95cd0920c0aa5e5da987ebe563a4f26fc5143a4c65e89cc8b1b3a23e2d7fa5ff82604051612a3091906157aa565b60405180910390a15050565b612a44614de0565b601b60008381526020019081526020016000206040518060e0016040529081600082015481526020016001820160009054906101000a900473ffffffffffffffffffffffffffffffffffffffff1673ffffffffffffffffffffffffffffffffffffffff1673ffffffffffffffffffffffffffffffffffffffff1681526020016001820160149054906101000a900460ff1615151515815260200160028201600380602002604051908101604052809291908260038015612b19576020028201915b815481526020019060010190808311612b05575b5050505050815260200160058201600380602002604051908101604052809291908260038015612b5e576020028201915b815481526020019060010190808311612b4a575b505050505081526020016008820160009054906101000a900460ff161515151581526020016008820160019054906101000a900460ff1615151515815250509050919050565b6000600960009054906101000a900473ffffffffffffffffffffffffffffffffffffffff1673ffffffffffffffffffffffffffffffffffffffff163373ffffffffffffffffffffffffffffffffffffffff1614612c0057600080fd5b81600460106101000a8154816fffffffffffffffffffffffffffffffff02191690836fffffffffffffffffffffffffffffffff16021790555060019050919050565b6000601b600083815260200190815260200160002060080160009054906101000a900460ff169050919050565b600960009054906101000a900473ffffffffffffffffffffffffffffffffffffffff1673ffffffffffffffffffffffffffffffffffffffff163373ffffffffffffffffffffffffffffffffffffffff1614612cc957600080fd5b6020805490508160328211158015612ce15750818111155b8015612cee575060008114155b8015612cfb575060008214155b612d0457600080fd5b826022819055507f3eeb9a927605685a0c44838616e4c196655b47d4019656c814bbf5743d1e25cc33602254604051612d3e9291906158bd565b60405180910390a1505050565b60215481565b6000600960009054906101000a900473ffffffffffffffffffffffffffffffffffffffff1673ffffffffffffffffffffffffffffffffffffffff163373ffffffffffffffffffffffffffffffffffffffff1614612dad57600080fd5b8160118190555060019050919050565b60115481565b600960009054906101000a900473ffffffffffffffffffffffffffffffffffffffff1673ffffffffffffffffffffffffffffffffffffffff163373ffffffffffffffffffffffffffffffffffffffff1614612e1d57600080fd5b612e25614dbe565b612e2d613baa565b9050600080600090505b60036fffffffffffffffffffffffffffffffff168160ff16101561312357600a8160ff1660038110612e6557fe5b0160009054906101000a900473ffffffffffffffffffffffffffffffffffffffff1673ffffffffffffffffffffffffffffffffffffffff1663313ce5676040518163ffffffff1660e01b815260040160206040518083038186803b158015612ecc57600080fd5b505afa158015612ee0573d6000803e3d6000fd5b505050506040513d601f19601f82011682018060405250810190612f049190615204565b60ff16915081600a0a60115402838260ff1660038110612f2057fe5b602002015111156130fb57600e8160ff1660038110612f3b57fe5b0154838260ff1660038110612f4c57fe5b6020020181815101915081815250506064600460109054906101000a90046fffffffffffffffffffffffffffffffff166fffffffffffffffffffffffffffffffff16848360ff1660038110612f9d57fe5b60200201510281612faa57fe5b04838260ff1660038110612fba57fe5b602002018181525050600e8160ff1660038110612fd357fe5b0154838260ff1660038110612fe457fe5b602002015103838260ff1660038110612ff957fe5b602002018181525050600a8160ff166003811061301257fe5b0160009054906101000a900473ffffffffffffffffffffffffffffffffffffffff1673ffffffffffffffffffffffffffffffffffffffff1663a9059cbb600860009054906101000a900473ffffffffffffffffffffffffffffffffffffffff16858460ff166003811061308157fe5b60200201516040518363ffffffff1660e01b81526004016130a39291906158e6565b602060405180830381600087803b1580156130bd57600080fd5b505af11580156130d1573d6000803e3d6000fd5b505050506040513d601f19601f820116820180604052508101906130f59190615137565b50613116565b6000838260ff166003811061310c57fe5b6020020181815250505b8080600101915050612e37565b506000805b60036fffffffffffffffffffffffffffffffff168160ff16101561317b576000848260ff166003811061315757fe5b60200201511461316e57818060010192505061317b565b8080600101915050613128565b5060008160ff1611156131925761319183613ffc565b5b505050565b602081815481106131a457fe5b906000526020600020016000915054906101000a900473ffffffffffffffffffffffffffffffffffffffff1681565b600080613218836003806020026040519081016040528092919082600360200280828437600081840152601f19601f82011690508083019250505050505060006134a9565b905080915050919050565b6018816003811061323057fe5b016000915090505481565b60225481565b601260009054906101000a90046fffffffffffffffffffffffffffffffff1681565b601c6020528160005260406000206020528060005260406000206000915091509054906101000a900460ff1681565b6000806000905060005b60208054905081101561339857601c6000602083815481106132ba57fe5b9060005260206000200160009054906101000a900473ffffffffffffffffffffffffffffffffffffffff1673ffffffffffffffffffffffffffffffffffffffff1673ffffffffffffffffffffffffffffffffffffffff168152602001908152602001600020600085815260200190815260200160002060009054906101000a900460ff161561334a576001820191505b6022548214801561337b5750601b600085815260200190815260200160002060010160149054906101000a900460ff165b1561338b5760019250505061339b565b808060010191505061329c565b50505b919050565b6001601b600083815260200190815260200160002060080160006101000a81548160ff021916908315150217905550601b6000828152602001908152602001600020600201601b6000838152602001908152602001600020600501906003613409929190614e45565b50601f6000601b600084815260200190815260200160002060010160009054906101000a900473ffffffffffffffffffffffffffffffffffffffff1673ffffffffffffffffffffffffffffffffffffffff1673ffffffffffffffffffffffffffffffffffffffff16815260200190815260200160002081908060018154018082558091505060019003906000526020600020016000909190919091505550565b600080600080600080613563600d60009054906101000a900473ffffffffffffffffffffffffffffffffffffffff1673ffffffffffffffffffffffffffffffffffffffff166318160ddd6040518163ffffffff1660e01b815260040160206040518083038186803b15801561351d57600080fd5b505afa158015613531573d6000803e3d6000fd5b505050506040513d601f19601f8201168201806040525081019061355591906151db565b670de0b6b3a76400006140ed565b905060005b60036fffffffffffffffffffffffffffffffff168160ff16101561368d57600a8160ff166003811061359657fe5b0160009054906101000a900473ffffffffffffffffffffffffffffffffffffffff1673ffffffffffffffffffffffffffffffffffffffff1663313ce5676040518163ffffffff1660e01b815260040160206040518083038186803b1580156135fd57600080fd5b505afa158015613611573d6000803e3d6000fd5b505050506040513d601f19601f820116820180604052508101906136359190615204565b60ff16935061365860058260ff166003811061364d57fe5b015485600a0a6140ed565b8501945061367c898260ff166003811061366e57fe5b602002015185600a0a6140ed565b830192508080600101915050613568565b506136a161369b83866140ed565b8261420d565b94506001151587151514156136f357612710600460009054906101000a90046fffffffffffffffffffffffffffffffff166fffffffffffffffffffffffffffffffff168602816136ed57fe5b04850194505b849550505050505092915050565b600061370e8260006134a9565b9050600080600090505b60036fffffffffffffffffffffffffffffffff168160ff1610156138e0576000848260ff166003811061374757fe5b602002015111156138d357600a8160ff166003811061376257fe5b0160009054906101000a900473ffffffffffffffffffffffffffffffffffffffff1673ffffffffffffffffffffffffffffffffffffffff166323b872dd3330878560ff16600381106137b057fe5b60200201516040518463ffffffff1660e01b81526004016137d3939291906157e0565b602060405180830381600087803b1580156137ed57600080fd5b505af1158015613801573d6000803e3d6000fd5b505050506040513d601f19601f820116820180604052508101906138259190615137565b91508161383157600080fd5b838160ff166003811061384057fe5b602002015160058260ff166003811061385557fe5b0160008282540192505081905550838160ff166003811061387257fe5b6020020151601360003373ffffffffffffffffffffffffffffffffffffffff1673ffffffffffffffffffffffffffffffffffffffff1681526020019081526020016000208260ff16600381106138c457fe5b01600082825401925050819055505b8080600101915050613718565b50600d60009054906101000a900473ffffffffffffffffffffffffffffffffffffffff1673ffffffffffffffffffffffffffffffffffffffff166340c10f1933846040518363ffffffff1660e01b815260040161393e9291906158bd565b600060405180830381600087803b15801561395857600080fd5b505af115801561396c573d6000803e3d6000fd5b50505050613978614e82565b613980614ea4565b6040518060800160405280868152602001868152602001428152602001838152509050601460003373ffffffffffffffffffffffffffffffffffffffff1673ffffffffffffffffffffffffffffffffffffffff168152602001908152602001600020819080600181540180825580915050600190039060005260206000209060080201600090919091909150600082015181600001906003613a23929190614d7e565b50602082015181600301906003613a3b929190614d7e565b5060408201518160060155606082015181600701906003613a5d929190614ede565b5050505050505050565b600860009054906101000a900473ffffffffffffffffffffffffffffffffffffffff1673ffffffffffffffffffffffffffffffffffffffff1663b1b8f1be826040518263ffffffff1660e01b8152600401613ac2919061590f565b600060405180830381600087803b158015613adc57600080fd5b505af1158015613af0573d6000803e3d6000fd5b5050505060005b60036fffffffffffffffffffffffffffffffff168160ff161015613b5457818160ff1660038110613b2457fe5b6020020151600e8260ff1660038110613b3957fe5b01600082825403925050819055508080600101915050613af7565b5050565b6000601760009054906101000a900463ffffffff16905060005b8163ffffffff168160ff161015613ba6576000613b8d6142e9565b9050613b98816143e0565b508080600101915050613b72565b5050565b613bb2614dbe565b613bba614dbe565b60005b60036fffffffffffffffffffffffffffffffff168160ff161015613cba57600a8160ff1660038110613beb57fe5b0160009054906101000a900473ffffffffffffffffffffffffffffffffffffffff1673ffffffffffffffffffffffffffffffffffffffff166370a08231306040518263ffffffff1660e01b8152600401613c4591906157aa565b60206040518083038186803b158015613c5d57600080fd5b505afa158015613c71573d6000803e3d6000fd5b505050506040513d601f19601f82011682018060405250810190613c9591906151db565b828260ff1660038110613ca457fe5b6020020181815250508080600101915050613bbd565b508091505090565b60005b60036fffffffffffffffffffffffffffffffff16811015613d9c576000828260038110613cee57fe5b60200201511115613d8f57818160038110613d0557fe5b6020020151601560003373ffffffffffffffffffffffffffffffffffffffff1673ffffffffffffffffffffffffffffffffffffffff1681526020019081526020016000208260038110613d5457fe5b0160008282540192505081905550818160038110613d6e57fe5b602002015160188260038110613d8057fe5b01600082825401925050819055505b8080600101915050613cc5565b5060011515601660003373ffffffffffffffffffffffffffffffffffffffff1673ffffffffffffffffffffffffffffffffffffffff16815260200190815260200160002060009054906101000a900460ff16151514613e8e576001601760008282829054906101000a900463ffffffff160192506101000a81548163ffffffff021916908363ffffffff1602179055506001601660003373ffffffffffffffffffffffffffffffffffffffff1673ffffffffffffffffffffffffffffffffffffffff16815260200190815260200160002060006101000a81548160ff021916908315150217905550613e8d33614d17565b5b50565b613e99614dbe565b6021600081548092919060010191905055506040518060e0016040528060215481526020013373ffffffffffffffffffffffffffffffffffffffff16815260200160001515815260200183815260200182815260200160001515815260200160001515815250601b600060215481526020019081526020016000206000820151816000015560208201518160010160006101000a81548173ffffffffffffffffffffffffffffffffffffffff021916908373ffffffffffffffffffffffffffffffffffffffff16021790555060408201518160010160146101000a81548160ff021916908315150217905550606082015181600201906003613f9c929190614d7e565b50608082015181600501906003613fb4929190614d7e565b5060a08201518160080160006101000a81548160ff02191690831515021790555060c08201518160080160016101000a81548160ff0219169083151502179055509050505050565b600860009054906101000a900473ffffffffffffffffffffffffffffffffffffffff1673ffffffffffffffffffffffffffffffffffffffff1663d4e20b01826040518263ffffffff1660e01b8152600401614057919061590f565b600060405180830381600087803b15801561407157600080fd5b505af1158015614085573d6000803e3d6000fd5b5050505060005b60036fffffffffffffffffffffffffffffffff168160ff1610156140e957818160ff16600381106140b957fe5b6020020151600e8260ff16600381106140ce57fe5b0160008282540192505081905550808060010191505061408c565b5050565b600080821415614132576040517f08c379a000000000000000000000000000000000000000000000000000000000815260040161412990615a85565b60405180910390fd5b6000670de0b6b3a76400008402905060008414806141605750670de0b6b3a764000084828161415d57fe5b04145b61419f576040517f08c379a000000000000000000000000000000000000000000000000000000000815260040161419690615a25565b60405180910390fd5b6000600284816141ab57fe5b0482019050818110156141f3576040517f08c379a00000000000000000000000000000000000000000000000000000000081526004016141ea90615a25565b60405180910390fd5b60008482816141fe57fe5b04905080935050505092915050565b6000808284029050600084148061422c57508284828161422957fe5b04145b61426b576040517f08c379a000000000000000000000000000000000000000000000000000000000815260040161426290615a65565b60405180910390fd5b60006002670de0b6b3a76400008161427f57fe5b0482019050818110156142c7576040517f08c379a00000000000000000000000000000000000000000000000000000000081526004016142be90615a65565b60405180910390fd5b6000670de0b6b3a764000082816142da57fe5b04905080935050505092915050565b600060015460025410156142fc57600080fd5b600080600154815260200190815260200160002060009054906101000a900473ffffffffffffffffffffffffffffffffffffffff16600360006101000a81548173ffffffffffffffffffffffffffffffffffffffff021916908373ffffffffffffffffffffffffffffffffffffffff160217905550600080600154815260200190815260200160002060006101000a81549073ffffffffffffffffffffffffffffffffffffffff021916905560018060008282540192505081905550600360009054906101000a900473ffffffffffffffffffffffffffffffffffffffff16905090565b600080614468601560008573ffffffffffffffffffffffffffffffffffffffff1673ffffffffffffffffffffffffffffffffffffffff16815260200190815260200160002060038060200260405190810160405280929190826003801561445c576020028201915b815481526020019060010190808311614448575b505050505060016134a9565b9050600d60009054906101000a900473ffffffffffffffffffffffffffffffffffffffff1673ffffffffffffffffffffffffffffffffffffffff16639dc29fac84836040518363ffffffff1660e01b81526004016144c79291906158e6565b600060405180830381600087803b1580156144e157600080fd5b505af11580156144f5573d6000803e3d6000fd5b5050505060005b60036fffffffffffffffffffffffffffffffff168160ff161015614d11576000601560008673ffffffffffffffffffffffffffffffffffffffff1673ffffffffffffffffffffffffffffffffffffffff1681526020019081526020016000208260ff166003811061456957fe5b01541180156145c657506000601360008673ffffffffffffffffffffffffffffffffffffffff1673ffffffffffffffffffffffffffffffffffffffff1681526020019081526020016000208260ff16600381106145c257fe5b0154115b15614d0457600a8160ff16600381106145db57fe5b0160009054906101000a900473ffffffffffffffffffffffffffffffffffffffff1673ffffffffffffffffffffffffffffffffffffffff1663a9059cbb85601560008873ffffffffffffffffffffffffffffffffffffffff1673ffffffffffffffffffffffffffffffffffffffff1681526020019081526020016000208460ff166003811061466657fe5b01546040518363ffffffff1660e01b81526004016146859291906158e6565b602060405180830381600087803b15801561469f57600080fd5b505af11580156146b3573d6000803e3d6000fd5b505050506040513d601f19601f820116820180604052508101906146d79190615137565b9250826146e357600080fd5b601560008573ffffffffffffffffffffffffffffffffffffffff1673ffffffffffffffffffffffffffffffffffffffff1681526020019081526020016000208160ff166003811061473057fe5b0154601360008673ffffffffffffffffffffffffffffffffffffffff1673ffffffffffffffffffffffffffffffffffffffff1681526020019081526020016000208260ff166003811061477f57fe5b0160008282540392505081905550601560008573ffffffffffffffffffffffffffffffffffffffff1673ffffffffffffffffffffffffffffffffffffffff1681526020019081526020016000208160ff16600381106147da57fe5b015460188260ff16600381106147ec57fe5b0160008282540392505081905550601560008573ffffffffffffffffffffffffffffffffffffffff1673ffffffffffffffffffffffffffffffffffffffff1681526020019081526020016000208160ff166003811061484757fe5b015460058260ff166003811061485957fe5b01600082825403925050819055506000601560008673ffffffffffffffffffffffffffffffffffffffff1673ffffffffffffffffffffffffffffffffffffffff1681526020019081526020016000208260ff16600381106148b657fe5b0154905060005b601460008773ffffffffffffffffffffffffffffffffffffffff1673ffffffffffffffffffffffffffffffffffffffff168152602001908152602001600020805490508160ff161015614c1e5760011515601460008873ffffffffffffffffffffffffffffffffffffffff1673ffffffffffffffffffffffffffffffffffffffff1681526020019081526020016000208260ff168154811061495b57fe5b90600052602060002090600802016007018460ff166003811061497a57fe5b602091828204019190069054906101000a900460ff161515141580156149a05750600082115b15614c1157601460008773ffffffffffffffffffffffffffffffffffffffff1673ffffffffffffffffffffffffffffffffffffffff1681526020019081526020016000208160ff16815481106149f257fe5b90600052602060002090600802016003018360ff1660038110614a1157fe5b01548210614b9057601460008773ffffffffffffffffffffffffffffffffffffffff1673ffffffffffffffffffffffffffffffffffffffff1681526020019081526020016000208160ff1681548110614a6657fe5b90600052602060002090600802016003018360ff1660038110614a8557fe5b0154820391506000601460008873ffffffffffffffffffffffffffffffffffffffff1673ffffffffffffffffffffffffffffffffffffffff1681526020019081526020016000208260ff1681548110614ada57fe5b90600052602060002090600802016003018460ff1660038110614af957fe5b01819055506001601460008873ffffffffffffffffffffffffffffffffffffffff1673ffffffffffffffffffffffffffffffffffffffff1681526020019081526020016000208260ff1681548110614b4d57fe5b90600052602060002090600802016007018460ff1660038110614b6c57fe5b602091828204019190066101000a81548160ff021916908315150217905550614c10565b81601460008873ffffffffffffffffffffffffffffffffffffffff1673ffffffffffffffffffffffffffffffffffffffff1681526020019081526020016000208260ff1681548110614bde57fe5b90600052602060002090600802016003018460ff1660038110614bfd57fe5b0160008282540392505081905550600091505b5b80806001019150506148bd565b506000601560008773ffffffffffffffffffffffffffffffffffffffff1673ffffffffffffffffffffffffffffffffffffffff1681526020019081526020016000208360ff1660038110614c6e57fe5b01819055506000601660008773ffffffffffffffffffffffffffffffffffffffff1673ffffffffffffffffffffffffffffffffffffffff16815260200190815260200160002060006101000a81548160ff0219169083151502179055506001601760008282829054906101000a900463ffffffff160392506101000a81548163ffffffff021916908363ffffffff160217905550505b80806001019150506144fc565b50505050565b600160026000828254019250508190555080600080600254815260200190815260200160002060006101000a81548173ffffffffffffffffffffffffffffffffffffffff021916908373ffffffffffffffffffffffffffffffffffffffff16021790555050565b8260038101928215614dad579160200282015b82811115614dac578251825591602001919060010190614d91565b5b509050614dba9190614f77565b5090565b6040518060600160405280600390602082028036833780820191505090505090565b6040518060e0016040528060008152602001600073ffffffffffffffffffffffffffffffffffffffff168152602001600015158152602001614e20614dbe565b8152602001614e2d614dbe565b81526020016000151581526020016000151581525090565b8260038101928215614e71579182015b82811115614e70578254825591600101919060010190614e55565b5b509050614e7e9190614f77565b5090565b6040518060600160405280600390602082028036833780820191505090505090565b6040518060800160405280614eb7614dbe565b8152602001614ec4614dbe565b815260200160008152602001614ed8614e82565b81525090565b826003601f01602090048101928215614f665791602002820160005b83821115614f3757835183826101000a81548160ff0219169083151502179055509260200192600101602081600001049283019260010302614efa565b8015614f645782816101000a81549060ff0219169055600101602081600001049283019260010302614f37565b505b509050614f739190614f94565b5090565b5b80821115614f90576000816000905550600101614f78565b5090565b5b80821115614fb857600081816101000a81549060ff021916905550600101614f95565b5090565b600081359050614fcb81615d01565b92915050565b600081905082602060030282011115614fe957600080fd5b92915050565b600081519050614ffe81615d18565b92915050565b60008135905061501381615d2f565b92915050565b60008135905061502881615d46565b92915050565b60008135905061503d81615d5d565b92915050565b60008151905061505281615d5d565b92915050565b60008151905061506781615d74565b92915050565b60006020828403121561507f57600080fd5b600061508d84828501614fbc565b91505092915050565b600080604083850312156150a957600080fd5b60006150b785828601614fbc565b92505060206150c88582860161502e565b9150509250929050565b6000606082840312156150e457600080fd5b60006150f284828501614fd1565b91505092915050565b6000806080838503121561510e57600080fd5b600061511c85828601614fd1565b925050606061512d8582860161502e565b9150509250929050565b60006020828403121561514957600080fd5b600061515784828501614fef565b91505092915050565b60006020828403121561517257600080fd5b600061518084828501615004565b91505092915050565b60006020828403121561519b57600080fd5b60006151a984828501615019565b91505092915050565b6000602082840312156151c457600080fd5b60006151d28482850161502e565b91505092915050565b6000602082840312156151ed57600080fd5b60006151fb84828501615043565b91505092915050565b60006020828403121561521657600080fd5b600061522484828501615058565b91505092915050565b6000615239838361578c565b60208301905092915050565b61524e81615c82565b82525050565b61525d81615bff565b82525050565b61526c81615bff565b82525050565b61527e60608383615cb8565b5050565b61528b81615b9e565b6152958184615bce565b92506152a082615b8a565b8060005b838110156152d15781516152b8878261522d565b96506152c383615bb4565b9250506001810190506152a4565b505050505050565b6152e281615b9e565b6152ec8184615bd9565b92506152f782615b8a565b8060005b8381101561532857815161530f878261522d565b965061531a83615bb4565b9250506001810190506152fb565b505050505050565b61533981615ba9565b6153438184615bd9565b925061534e82615b94565b8060005b838110156153865761536382615ce1565b61536d878261522d565b965061537883615bc1565b925050600181019050615352565b505050505050565b61539781615c11565b82525050565b6153a681615c11565b82525050565b60006153b9601283615be4565b91507f7a65726f20746f6b656e7320737570706c7900000000000000000000000000006000830152602082019050919050565b60006153f9601483615be4565b91507f776974686472617720717565756520656d7074790000000000000000000000006000830152602082019050919050565b6000615439600b83615be4565b91507f6c6f636b20706572696f640000000000000000000000000000000000000000006000830152602082019050919050565b6000615479600e83615be4565b91507f696e76616c6964206c6f616e49440000000000000000000000000000000000006000830152602082019050919050565b60006154b9601083615be4565b91507f6e6f7420612076616c69642075736572000000000000000000000000000000006000830152602082019050919050565b60006154f9601183615be4565b91507f636f6d70616e79206e6f742d65786973740000000000000000000000000000006000830152602082019050919050565b6000615539601483615be4565b91507f696e73756666696369656e74207369676e6565730000000000000000000000006000830152602082019050919050565b6000615579601083615be4565b91507f4552525f4449565f494e5445524e414c000000000000000000000000000000006000830152602082019050919050565b60006155b9600e83615be4565b91507f72657061796d656e7420646f6e650000000000000000000000000000000000006000830152602082019050919050565b60006155f9601083615be4565b91507f4552525f4d554c5f4f564552464c4f57000000000000000000000000000000006000830152602082019050919050565b6000615639600c83615be4565b91507f4552525f4449565f5a45524f00000000000000000000000000000000000000006000830152602082019050919050565b6000615679600783615be4565b91507f6c6f7720525054000000000000000000000000000000000000000000000000006000830152602082019050919050565b60006156b9600c83615be4565b91507f6e6f7420617070726f76656400000000000000000000000000000000000000006000830152602082019050919050565b61016082016000820151615703600085018261578c565b5060208201516157166020850182615254565b506040820151615729604085018261538e565b50606082015161573c6060850182615282565b50608082015161574f60c0850182615282565b5060a082015161576361012085018261538e565b5060c082015161577761014085018261538e565b50505050565b61578681615c2f565b82525050565b61579581615c6b565b82525050565b6157a481615c6b565b82525050565b60006020820190506157bf6000830184615263565b92915050565b60006020820190506157da6000830184615245565b92915050565b60006060820190506157f56000830186615245565b6158026020830185615263565b61580f604083018461579b565b949350505050565b600060808201905061582c6000830185615245565b6158396020830184615272565b9392505050565b6000610100820190506158566000830187615245565b6158636020830186615272565b6158706080830185615330565b61587d60e083018461579b565b95945050505050565b600060a08201905061589b6000830186615245565b6158a86020830185615272565b6158b5608083018461579b565b949350505050565b60006040820190506158d26000830185615245565b6158df602083018461579b565b9392505050565b60006040820190506158fb6000830185615263565b615908602083018461579b565b9392505050565b600060608201905061592460008301846152d9565b92915050565b600060208201905061593f600083018461539d565b92915050565b6000602082019050818103600083015261595e816153ac565b9050919050565b6000602082019050818103600083015261597e816153ec565b9050919050565b6000602082019050818103600083015261599e8161542c565b9050919050565b600060208201905081810360008301526159be8161546c565b9050919050565b600060208201905081810360008301526159de816154ac565b9050919050565b600060208201905081810360008301526159fe816154ec565b9050919050565b60006020820190508181036000830152615a1e8161552c565b9050919050565b60006020820190508181036000830152615a3e8161556c565b9050919050565b60006020820190508181036000830152615a5e816155ac565b9050919050565b60006020820190508181036000830152615a7e816155ec565b9050919050565b60006020820190508181036000830152615a9e8161562c565b9050919050565b60006020820190508181036000830152615abe8161566c565b9050919050565b60006020820190508181036000830152615ade816156ac565b9050919050565b600061016082019050615afb60008301846156ec565b92915050565b6000602082019050615b16600083018461577d565b92915050565b6000602082019050615b31600083018461579b565b92915050565b600060a082019050615b4c600083018861579b565b615b596020830187615263565b615b66604083018661539d565b615b73606083018561539d565b615b80608083018461539d565b9695505050505050565b6000819050919050565b6000819050919050565b600060039050919050565b600060039050919050565b6000602082019050919050565b6000600182019050919050565b600081905092915050565b600081905092915050565b600082825260208201905092915050565b6000819050919050565b6000615c0a82615c4b565b9050919050565b60008115159050919050565b6000615c2882615bff565b9050919050565b60006fffffffffffffffffffffffffffffffff82169050919050565b600073ffffffffffffffffffffffffffffffffffffffff82169050919050565b6000819050919050565b600060ff82169050919050565b6000615c8d82615c94565b9050919050565b6000615c9f82615ca6565b9050919050565b6000615cb182615c4b565b9050919050565b82818337600083830152505050565b6000615cda615cd583615cf4565b615bf5565b9050919050565b6000615ced8254615cc7565b9050919050565b60008160001c9050919050565b615d0a81615bff565b8114615d1557600080fd5b50565b615d2181615c11565b8114615d2c57600080fd5b50565b615d3881615c1d565b8114615d4357600080fd5b50565b615d4f81615c2f565b8114615d5a57600080fd5b50565b615d6681615c6b565b8114615d7157600080fd5b50565b615d7d81615c75565b8114615d8857600080fd5b5056fea264697066735822122067d0281a877971f0e7f9bf1a8c6a4a4bcd4fadb9143695ceed98d31a739a7b5264736f6c634300060c0033",
  "immutableReferences": {},
  "source": "// SPDX-License-Identifier: UNLICENSED\r\npragma solidity ^0.6.0;\r\npragma experimental ABIEncoderV2;\r\n\r\nimport './MathLib.sol';\r\n\r\n// import './Erc20Interface.sol';\r\n// import './CurveInterface.sol';\r\n// import './RoyaleLPstorage.sol';\r\nimport './MultiSig.sol';\r\n\r\ncontract RoyaleLP is multiSig, rNum {\r\n\r\n    constructor(\r\n        address[N_COINS] memory _tokens,\r\n        address _rpToken\r\n    ) public {\r\n        // Set owner\r\n        owner = msg.sender;\r\n\r\n        for(uint8 i=0; i<N_COINS; i++) {\r\n            tokens[i] = Erc20(_tokens[i]);\r\n        }\r\n\r\n        // Set RPT\r\n        rpToken = Erc20(_rpToken);\r\n    }\r\n    \r\n    /* EVENTS */\r\n    event userSupplied(\r\n        address user,\r\n        uint[N_COINS] amounts\r\n    );\r\n\r\n    event userRecieved(\r\n        address user,\r\n        uint[N_COINS] amounts\r\n    );\r\n\r\n    event userAddedToQ(\r\n        address user,\r\n        uint[N_COINS] amounts\r\n    );\r\n\r\n    event loanWithdrawn(\r\n        address by,\r\n        uint[N_COINS] requestedAmount,\r\n        uint[N_COINS] remainingAmount,\r\n        uint loanID\r\n    );\r\n\r\n    event loanFulfilled(\r\n        address by,\r\n        uint[N_COINS] requestedAmount,\r\n        uint[N_COINS] remainingAmount,\r\n        uint loanID\r\n    );\r\n\r\n    event loanRepayed(\r\n        address by,\r\n        uint[N_COINS] repayedAmount,\r\n        uint[N_COINS] amountRemaining,\r\n        uint loanID\r\n    );\r\n\r\n    event wholeLoanRepayed(\r\n        address by,\r\n        uint[N_COINS] repayedAmount,\r\n        uint[N_COINS] amountRemaining,\r\n        uint loanID\r\n    );\r\n\r\n\r\n    /* INTERNAL FUNCTIONS */\r\n\r\n    function _getBalances() internal view returns(uint256[N_COINS] memory) {\r\n        uint256[N_COINS] memory balances;\r\n\r\n        for(uint8 i=0; i<N_COINS; i++) {\r\n            balances[i] = tokens[i].balanceOf(address(this));\r\n        }\r\n\r\n        return balances;\r\n    }\r\n\r\n    function _calcRptAmount(uint256[N_COINS] memory amounts, bool burn) internal view returns(uint256) {\r\n        uint256 rptAmt;\r\n        uint256 total = 0;\r\n        uint256 decimal = 0;\r\n        uint256 totalSuppliedTokens;\r\n        uint256 totalRPTSupply;\r\n\r\n        totalRPTSupply = bdiv(rpToken.totalSupply(), 10**18);\r\n        \r\n        for(uint8 i=0; i<N_COINS; i++) {\r\n            decimal = tokens[i].decimals();\r\n            total += bdiv(selfBalance[i], 10**decimal);\r\n            totalSuppliedTokens += bdiv(amounts[i], 10**decimal);\r\n        }\r\n\r\n        rptAmt = bmul(bdiv(totalSuppliedTokens, total), totalRPTSupply);\r\n\r\n        if(burn == true) {\r\n            rptAmt = rptAmt + (rptAmt * fees) / 10000;\r\n        }\r\n\r\n        return rptAmt;\r\n    }\r\n\r\n    // functions related to deposit and supply\r\n\r\n    // This function deposits the fund to Yield Optimizer\r\n    function _deposit(uint256[N_COINS] memory amounts) internal {\r\n        yldOpt.deposit(amounts);\r\n        \r\n        for(uint8 i=0; i<N_COINS; i++) {\r\n            YieldPoolBalance[i] += amounts[i];\r\n        }\r\n    }\r\n\r\n    function _supply(uint256[N_COINS] memory amounts) internal {\r\n        uint256 mintTokens;        \r\n        mintTokens = _calcRptAmount(amounts, false);    \r\n        \r\n        bool result;\r\n        for(uint8 i=0; i<N_COINS; i++) {\r\n            if(amounts[i] > 0) {\r\n                result = tokens[i].transferFrom(\r\n                    msg.sender, \r\n                    address(this), \r\n                    amounts[i]\r\n                );\r\n                require(result);\r\n                selfBalance[i] += amounts[i];\r\n                amountSupplied[msg.sender][i] += amounts[i];\r\n            }\r\n        }\r\n    \r\n        // rpToken.mint(msg.sender, mintTokens * 10**10);\r\n        rpToken.mint(msg.sender, mintTokens);\r\n\r\n        bool[N_COINS] memory falseArray;\r\n        depositDetails memory d = depositDetails(amounts, amounts, now, falseArray);\r\n        supplyTime[msg.sender].push(d);\r\n    }\r\n\r\n    // functions related to withdraw, withdraw queue and withdraw from Yield Optimizer\r\n\r\n    function _takeBack(address recipient) internal {\r\n        bool result;\r\n\r\n        uint256 burnAmt;\r\n\r\n        burnAmt = _calcRptAmount(amountWithdraw[recipient], true);\r\n        rpToken.burn(recipient, burnAmt);\r\n\r\n        for(uint8 i=0; i<N_COINS; i++) {\r\n            if(\r\n                amountWithdraw[recipient][i] > 0 \r\n                && \r\n                amountSupplied[recipient][i] > 0\r\n            ) {\r\n                result = tokens[i].transfer(\r\n                    recipient,  \r\n                    amountWithdraw[recipient][i]\r\n                );\r\n                require(result);\r\n\r\n                amountSupplied[recipient][i] -= amountWithdraw[recipient][i];\r\n                totalWithdraw[i] -= amountWithdraw[recipient][i];\r\n                selfBalance[i] -= amountWithdraw[recipient][i];\r\n\r\n                uint x = amountWithdraw[recipient][i];\r\n                for(uint8 j=0; j<supplyTime[recipient].length; j++) {\r\n                    if(supplyTime[recipient][j].withdrawn[i] != true && x > 0) {\r\n                        if(x >= supplyTime[recipient][j].remAmt[i]) {\r\n                            x = x - supplyTime[recipient][j].remAmt[i];\r\n                            supplyTime[recipient][j].remAmt[i] = 0;\r\n                            supplyTime[recipient][j].withdrawn[i] = true;\r\n                        }\r\n                        else {\r\n                            supplyTime[recipient][j].remAmt[i] -= x;\r\n                            x = 0;\r\n                        }\r\n                    }\r\n                }\r\n\r\n                amountWithdraw[recipient][i] = 0;\r\n\r\n                isInQ[recipient] = false;\r\n                recipientCount -= 1;\r\n            }\r\n        }\r\n    }\r\n\r\n    // this will fulfill withdraw requests from the queue\r\n    function _giveBack() internal {\r\n        \r\n        uint32 counter = recipientCount;\r\n        for(uint8 i=0; i<counter; i++) {\r\n            address recipient = getFromQ();\r\n            _takeBack(recipient);\r\n        }\r\n\r\n    }\r\n\r\n    // this will add unfulfilled withdraw requests to the queue\r\n    function _takeBackQ(uint256[N_COINS] memory amounts) internal {\r\n        \r\n        for(uint256 i=0; i<N_COINS; i++) {\r\n            if(amounts[i] > 0) {\r\n                amountWithdraw[msg.sender][i] += amounts[i];\r\n                totalWithdraw[i] += amounts[i];\r\n            }\r\n        }\r\n\r\n        if(isInQ[msg.sender] != true) {\r\n            recipientCount += 1;\r\n            isInQ[msg.sender] = true;\r\n            addToQ(msg.sender);\r\n        }\r\n\r\n    }\r\n\r\n    // this will withdraw from Yield Optimizer into this contract\r\n    function _withdraw(uint256[N_COINS] memory amounts) internal {\r\n        yldOpt.withdraw(amounts);\r\n\r\n        for(uint8 i=0; i<N_COINS; i++) {\r\n            YieldPoolBalance[i] -= amounts[i];\r\n        }\r\n    }\r\n\r\n    /* USER FUNCTIONS (exposed to frontend) */\r\n\r\n    function supply(uint256[N_COINS] calldata amounts) external {\r\n        require(\r\n            _calcRptAmount(amounts, false) > 0,\r\n            \"zero tokens supply\"\r\n        );\r\n        \r\n        _supply(amounts);\r\n\r\n        emit userSupplied(msg.sender, amounts);\r\n    }\r\n\r\n    function requestWithdraw(uint256[N_COINS] calldata amounts) external {\r\n        require(\r\n            _calcRptAmount(amounts, false) > 0,\r\n            \"zero tokens supply\"\r\n        );\r\n\r\n        uint256 burnAmt;\r\n        burnAmt = _calcRptAmount(amounts, true);\r\n        require(\r\n            rpToken.balanceOf(msg.sender) >= burnAmt, \r\n            \"low RPT\"\r\n        );\r\n        \r\n        uint256[N_COINS] memory poolBalance;\r\n        poolBalance = _getBalances();\r\n\r\n        uint256[N_COINS] memory availableWithdraw;\r\n        \r\n        bool checkTime = true;\r\n        bool instant;\r\n        \r\n        // check if user is withdrawing before lock period\r\n        for(uint8 i=0; i<N_COINS; i++) {\r\n            if(amounts[i] > 0) {\r\n                for(uint8 j=0; j<supplyTime[msg.sender].length; j++) {\r\n                    if(\r\n                        (now - supplyTime[msg.sender][j].time) \r\n                        > \r\n                        (24 * 60 * 60 * lock_period)\r\n                        &&\r\n                        supplyTime[msg.sender][j].withdrawn[i] != true\r\n                    ) {\r\n                        availableWithdraw[i] += supplyTime[msg.sender][j].remAmt[i];\r\n                    }\r\n                }\r\n\r\n                if(availableWithdraw[i] < amounts[i]) {\r\n                    checkTime = false;\r\n                }\r\n            }\r\n        }\r\n        require(checkTime, \"lock period\");\r\n\r\n        // check if instant withdraw\r\n        for(uint8 i=0; i<N_COINS; i++) {\r\n            if(amounts[i] < poolBalance[i] && amounts[i] != 0) {\r\n                instant = true;\r\n            }\r\n        }\r\n\r\n        if(instant) {\r\n            rpToken.burn(msg.sender, burnAmt);\r\n            bool result;\r\n            for(uint8 i=0; i<N_COINS; i++) {\r\n                if(amounts[i] > 0) {\r\n                    result = tokens[i].transfer(msg.sender, amounts[i]);\r\n                    require(result);\r\n                    selfBalance[i] -= amounts[i];\r\n                    \r\n                    uint x = amounts[i];\r\n                    for(uint8 j=0; j<supplyTime[msg.sender].length; j++) {\r\n                        if(supplyTime[msg.sender][j].withdrawn[i] != true && x > 0) {\r\n                            if(x >= supplyTime[msg.sender][j].remAmt[i]) {\r\n                                x = x - supplyTime[msg.sender][j].remAmt[i];\r\n                                supplyTime[msg.sender][j].remAmt[i] = 0;\r\n                                supplyTime[msg.sender][j].withdrawn[i] = true;\r\n                            }\r\n                            else {\r\n                                supplyTime[msg.sender][j].remAmt[i] -= x;\r\n                                x = 0;\r\n                            }\r\n                        }\r\n                    }\r\n\r\n                }\r\n            }\r\n\r\n            emit userRecieved(msg.sender, amounts);\r\n        } else {\r\n            _takeBackQ(amounts);\r\n\r\n            emit userAddedToQ(msg.sender, amounts);\r\n        }\r\n    }\r\n\r\n    function withdrawLoan( \r\n        uint256[N_COINS] calldata amounts,\r\n        uint _loanID\r\n    ) external {\r\n\r\n        require(transactions[_loanID].iGamingCompany == msg.sender, \"company not-exist\");\r\n        require(transactions[_loanID].approved, \"not approved\");\r\n        \r\n        for(uint8 i=0; i<N_COINS; i++) {\r\n            require(\r\n                transactions[_loanID].remAmt[i] >= amounts[i], \r\n                \"not approved\"\r\n            );\r\n        }\r\n\r\n        _withdraw(amounts);\r\n\r\n        uint8 check = 0;\r\n        for(uint8 i=0; i<N_COINS; i++) {\r\n            if(amounts[i] > 0) {\r\n                tokens[i].transfer(msg.sender, amounts[i]);\r\n                transactions[_loanID].remAmt[i] -= amounts[i];\r\n            }\r\n\r\n            if(transactions[_loanID].remAmt[i] == 0) {\r\n                check++;\r\n            }\r\n        }\r\n\r\n        emit loanWithdrawn(msg.sender, amounts, transactions[_loanID].remAmt, _loanID);\r\n\r\n        if(check == 3) {\r\n            // Loan fulfilled, company used all its loan\r\n            transactions[_loanID].executed = true;\r\n            gamingCompanyRepayment[_loanID] = Repayment({\r\n                  transactionID: _loanID,\r\n                  isRepaymentDone: false,\r\n                  remainingTokenAmounts: transactions[_loanID].tokenAmounts\r\n            });\r\n\r\n            emit loanFulfilled(msg.sender, amounts, transactions[_loanID].tokenAmounts, _loanID);\r\n        }\r\n    }\r\n\r\n    function repayLoan(\r\n        uint256[N_COINS] calldata _amounts, \r\n        uint _loanId\r\n    ) external {\r\n        require(_loanId <= transactionCount, \"invalid loanID\");\r\n        require(transactions[_loanId].iGamingCompany == msg.sender, \"not a valid user\");\r\n        require(!gamingCompanyRepayment[_loanId].isRepaymentDone, \"repayment done\");\r\n        \r\n        uint counter = 0;\r\n        for(uint i=0; i<N_COINS; i++) {\r\n            if(_amounts[i]!=0) {\r\n                tokens[i].transferFrom(\r\n                    msg.sender,\r\n                    address(this),\r\n                    _amounts[i]\r\n                );\r\n                gamingCompanyRepayment[_loanId].remainingTokenAmounts[i] -= _amounts[i];\r\n                \r\n                if(gamingCompanyRepayment[_loanId].remainingTokenAmounts[i] == 0) {\r\n                    counter++;\r\n                }\r\n            }\r\n        }\r\n\r\n        emit loanRepayed(\r\n            msg.sender,\r\n            _amounts, \r\n            gamingCompanyRepayment[_loanId].remainingTokenAmounts,\r\n            _loanId\r\n        );\r\n\r\n        if(counter == 3){\r\n            gamingCompanyRepayment[_loanId].isRepaymentDone = true;\r\n\r\n            emit wholeLoanRepayed(\r\n                msg.sender,\r\n                _amounts, \r\n                gamingCompanyRepayment[_loanId].remainingTokenAmounts,\r\n                _loanId\r\n            );\r\n        }       \r\n    }\r\n\r\n    /* Some utility functions for front-end */\r\n\r\n    function checkMintAmount(uint256[N_COINS] calldata amounts) external view returns(uint256) {\r\n        uint256 result = _calcRptAmount(amounts, false);\r\n        return result;\r\n    }\r\n\r\n    function checkBurnAmount(uint256[N_COINS] calldata amounts) external view returns(uint256) {\r\n        uint256 result = _calcRptAmount(amounts, true);\r\n        return result;\r\n    }\r\n\r\n\r\n    /* CORE FUNCTIONS (also exposed to frontend but to be called by owner only) */\r\n\r\n    function deposit() onlyOwner external {\r\n        uint256[N_COINS] memory amounts = _getBalances();\r\n        uint256 decimal;\r\n\r\n        for(uint8 i=0; i<N_COINS; i++) {\r\n            decimal = tokens[i].decimals();\r\n            if(amounts[i] > thresholdTokenAmount*10**decimal) {\r\n                amounts[i] += YieldPoolBalance[i];\r\n                amounts[i] = (amounts[i] * poolPart) / 100;\r\n                amounts[i] = amounts[i] - YieldPoolBalance[i];\r\n                tokens[i].transfer(address(yldOpt), amounts[i]);\r\n            }\r\n            else {\r\n                amounts[i] = 0;\r\n            }\r\n        }\r\n\r\n        uint8 counter = 0;\r\n        for(uint8 i=0; i<N_COINS; i++) {\r\n           if(amounts[i] != 0) {\r\n               counter++;\r\n               break;\r\n           }\r\n        }\r\n\r\n        if(counter > 0){\r\n            _deposit(amounts);\r\n        }\r\n    }\r\n\r\n    function withdraw() onlyOwner external {\r\n\r\n        uint8 counter = 0;\r\n        for(uint8 i=0; i<N_COINS; i++) {\r\n           if(totalWithdraw[i] != 0) {\r\n               counter++;\r\n               break;\r\n           }\r\n        }\r\n\r\n        require(counter > 0, \"withdraw queue empty\");\r\n\r\n        _withdraw(totalWithdraw);\r\n        _giveBack();\r\n    }\r\n\r\n    /* ADMIN FUNCTIONS */\r\n\r\n    function changePoolPart(uint128 _newPoolPart) external onlyOwner returns(bool) {\r\n        poolPart = _newPoolPart;\r\n        return true;\r\n    }\r\n\r\n    function setThresholdTokenAmount(uint256 _newThreshold) external onlyOwner returns(bool) {\r\n        thresholdTokenAmount = _newThreshold;\r\n        return true;\r\n    }\r\n\r\n    function setInitialDeposit() onlyOwner external returns(bool) {\r\n        selfBalance = _getBalances();\r\n        return true;\r\n    }\r\n\r\n    function setYieldOpt(IYieldOpt _yldOpt) onlyOwner external returns(bool) {\r\n        yldOpt = _yldOpt;\r\n        return true;\r\n    }\r\n\r\n    function setLockPeriod(uint128 lockperiod) onlyOwner external returns(bool) {\r\n        lock_period = lockperiod;\r\n        return true;\r\n    }\r\n\r\n    function setWithdrawFees(uint128 _fees) onlyOwner external returns(bool) {\r\n        fees = _fees;\r\n        return true;\r\n    }\r\n\r\n}",
  "sourcePath": "C:/Users/MayankVats/Desktop/WORK/blockchain/Royale/royale-contracts/contracts/RoyaleLP.sol",
  "compiler": {
    "name": "solc",
    "version": "0.6.12+commit.27d51765.Emscripten.clang"
  },
  "schemaVersion": "3.3.2",
  "updatedAt": "2020-12-11T09:23:51.991Z",
  "devdoc": {
    "kind": "dev",
    "methods": {},
    "version": 1
  },
  "userdoc": {
    "kind": "user",
    "methods": {},
    "version": 1
  }
}