{
  "contractName": "RoyaleLPstorage",
  "abi": [
    {
      "inputs": [],
      "name": "MAX_SIGNEE_COUNT",
      "outputs": [
        {
          "internalType": "uint256",
          "name": "",
          "type": "uint256"
        }
      ],
      "stateMutability": "view",
      "type": "function"
    },
    {
      "inputs": [
        {
          "internalType": "uint256",
          "name": "",
          "type": "uint256"
        }
      ],
      "name": "YieldPoolBalance",
      "outputs": [
        {
          "internalType": "uint256",
          "name": "",
          "type": "uint256"
        }
      ],
      "stateMutability": "view",
      "type": "function"
    },
    {
      "inputs": [
        {
          "internalType": "address",
          "name": "",
          "type": "address"
        },
        {
          "internalType": "uint256",
          "name": "",
          "type": "uint256"
        }
      ],
      "name": "confirmations",
      "outputs": [
        {
          "internalType": "bool",
          "name": "",
          "type": "bool"
        }
      ],
      "stateMutability": "view",
      "type": "function"
    },
    {
      "inputs": [],
      "name": "fees",
      "outputs": [
        {
          "internalType": "uint128",
          "name": "",
          "type": "uint128"
        }
      ],
      "stateMutability": "view",
      "type": "function"
    },
    {
      "inputs": [
        {
          "internalType": "address",
          "name": "",
          "type": "address"
        }
      ],
      "name": "isInQ",
      "outputs": [
        {
          "internalType": "bool",
          "name": "",
          "type": "bool"
        }
      ],
      "stateMutability": "view",
      "type": "function"
    },
    {
      "inputs": [
        {
          "internalType": "address",
          "name": "",
          "type": "address"
        }
      ],
      "name": "isSignee",
      "outputs": [
        {
          "internalType": "bool",
          "name": "",
          "type": "bool"
        }
      ],
      "stateMutability": "view",
      "type": "function"
    },
    {
      "inputs": [],
      "name": "owner",
      "outputs": [
        {
          "internalType": "address",
          "name": "",
          "type": "address"
        }
      ],
      "stateMutability": "view",
      "type": "function"
    },
    {
      "inputs": [],
      "name": "poolPart",
      "outputs": [
        {
          "internalType": "uint128",
          "name": "",
          "type": "uint128"
        }
      ],
      "stateMutability": "view",
      "type": "function"
    },
    {
      "inputs": [],
      "name": "required",
      "outputs": [
        {
          "internalType": "uint256",
          "name": "",
          "type": "uint256"
        }
      ],
      "stateMutability": "view",
      "type": "function"
    },
    {
      "inputs": [
        {
          "internalType": "uint256",
          "name": "",
          "type": "uint256"
        }
      ],
      "name": "selfBalance",
      "outputs": [
        {
          "internalType": "uint256",
          "name": "",
          "type": "uint256"
        }
      ],
      "stateMutability": "view",
      "type": "function"
    },
    {
      "inputs": [
        {
          "internalType": "uint256",
          "name": "",
          "type": "uint256"
        }
      ],
      "name": "signees",
      "outputs": [
        {
          "internalType": "address",
          "name": "",
          "type": "address"
        }
      ],
      "stateMutability": "view",
      "type": "function"
    },
    {
      "inputs": [],
      "name": "thresholdTokenAmount",
      "outputs": [
        {
          "internalType": "uint256",
          "name": "",
          "type": "uint256"
        }
      ],
      "stateMutability": "view",
      "type": "function"
    },
    {
      "inputs": [
        {
          "internalType": "uint256",
          "name": "",
          "type": "uint256"
        }
      ],
      "name": "totalWithdraw",
      "outputs": [
        {
          "internalType": "uint256",
          "name": "",
          "type": "uint256"
        }
      ],
      "stateMutability": "view",
      "type": "function"
    },
    {
      "inputs": [],
      "name": "transactionCount",
      "outputs": [
        {
          "internalType": "uint256",
          "name": "",
          "type": "uint256"
        }
      ],
      "stateMutability": "view",
      "type": "function"
    },
    {
      "inputs": [
        {
          "internalType": "uint256",
          "name": "",
          "type": "uint256"
        }
      ],
      "name": "transactions",
      "outputs": [
        {
          "internalType": "uint256",
          "name": "transactionId",
          "type": "uint256"
        },
        {
          "internalType": "address",
          "name": "iGamingCompany",
          "type": "address"
        },
        {
          "internalType": "bool",
          "name": "isGamingCompanySigned",
          "type": "bool"
        },
        {
          "internalType": "bool",
          "name": "approved",
          "type": "bool"
        },
        {
          "internalType": "bool",
          "name": "executed",
          "type": "bool"
        }
      ],
      "stateMutability": "view",
      "type": "function"
    }
  ],
  "bytecode": "0x60806040526001805560006002556019600460006101000a8154816fffffffffffffffffffffffffffffffff02191690836fffffffffffffffffffffffffffffffff160217905550605f600460106101000a8154816fffffffffffffffffffffffffffffffff02191690836fffffffffffffffffffffffffffffffff1602179055506101f4601155600e601260006101000a8154816fffffffffffffffffffffffffffffffff02191690836fffffffffffffffffffffffffffffffff16021790555060006021553480156100d257600080fd5b506106dd806100e26000396000f3fe608060405234801561001057600080fd5b50600436106100f55760003560e01c80639ace38c211610097578063d80a93d611610066578063d80a93d61461039a578063db28bfd0146103f2578063dc8452cd14610434578063f84fd9ef14610452576100f5565b80639ace38c2146102b45780639af1d35a1461032e578063b77bf6001461035e578063c89eb0361461037c576100f5565b806369850424116100d357806369850424146101b45780638da5cb5b146101f65780638e9b03261461022a578063905f692e1461025a576100f5565b80630385b581146100fa5780631880432a1461015457806331805a2b14610172575b600080fd5b61013c6004803603602081101561011057600080fd5b81019080803573ffffffffffffffffffffffffffffffffffffffff1690602001909291905050506104b6565b60405180821515815260200191505060405180910390f35b61015c6104d6565b6040518082815260200191505060405180910390f35b61019e6004803603602081101561018857600080fd5b81019080803590602001909291905050506104db565b6040518082815260200191505060405180910390f35b6101e0600480360360208110156101ca57600080fd5b81019080803590602001909291905050506104f3565b6040518082815260200191505060405180910390f35b6101fe61050b565b604051808273ffffffffffffffffffffffffffffffffffffffff16815260200191505060405180910390f35b610232610531565b60405180826fffffffffffffffffffffffffffffffff16815260200191505060405180910390f35b61029c6004803603602081101561027057600080fd5b81019080803573ffffffffffffffffffffffffffffffffffffffff169060200190929190505050610553565b60405180821515815260200191505060405180910390f35b6102e0600480360360208110156102ca57600080fd5b8101908080359060200190929190505050610573565b604051808681526020018573ffffffffffffffffffffffffffffffffffffffff1681526020018415158152602001831515815260200182151581526020019550505050505060405180910390f35b6103366105f0565b60405180826fffffffffffffffffffffffffffffffff16815260200191505060405180910390f35b610366610612565b6040518082815260200191505060405180910390f35b610384610618565b6040518082815260200191505060405180910390f35b6103c6600480360360208110156103b057600080fd5b810190808035906020019092919050505061061e565b604051808273ffffffffffffffffffffffffffffffffffffffff16815260200191505060405180910390f35b61041e6004803603602081101561040857600080fd5b810190808035906020019092919050505061065a565b6040518082815260200191505060405180910390f35b61043c610672565b6040518082815260200191505060405180910390f35b61049e6004803603604081101561046857600080fd5b81019080803573ffffffffffffffffffffffffffffffffffffffff16906020019092919080359060200190929190505050610678565b60405180821515815260200191505060405180910390f35b601e6020528060005260406000206000915054906101000a900460ff1681565b603281565b600e81600381106104e857fe5b016000915090505481565b6005816003811061050057fe5b016000915090505481565b600960009054906101000a900473ffffffffffffffffffffffffffffffffffffffff1681565b600460109054906101000a90046fffffffffffffffffffffffffffffffff1681565b60166020528060005260406000206000915054906101000a900460ff1681565b601b6020528060005260406000206000915090508060000154908060010160009054906101000a900473ffffffffffffffffffffffffffffffffffffffff16908060010160149054906101000a900460ff16908060080160009054906101000a900460ff16908060080160019054906101000a900460ff16905085565b600460009054906101000a90046fffffffffffffffffffffffffffffffff1681565b60215481565b60115481565b6020818154811061062b57fe5b906000526020600020016000915054906101000a900473ffffffffffffffffffffffffffffffffffffffff1681565b6018816003811061066757fe5b016000915090505481565b60225481565b601c6020528160005260406000206020528060005260406000206000915091509054906101000a900460ff168156fea26469706673582212206ae10798acfb26ec48b2f7f47a72f7d8ed0ab5e2218977469bb40cb3a3093a8364736f6c634300060c0033",
  "immutableReferences": {},
  "source": "// SPDX-License-Identifier: UNLICENSED\r\npragma solidity ^0.6.0;\r\n\r\nimport './Erc20Interface.sol';\r\n// import './CurveInterface.sol';\r\nimport './YieldOptInterface.sol';\r\n\r\ncontract WithdrawQueue {\r\n    mapping(uint256 => address) withdrawQ;\r\n    uint256 first = 1;\r\n    uint256 last = 0;\r\n    address data;\r\n\r\n    function addToQ(address addr) internal {\r\n        last += 1;\r\n        withdrawQ[last] = addr;\r\n    }\r\n\r\n    function getFromQ() internal returns(address) {\r\n        require(last >= first);\r\n\r\n        data = withdrawQ[first];\r\n\r\n        delete withdrawQ[first];\r\n        first += 1;\r\n\r\n        return data;\r\n    }\r\n}\r\n\r\ncontract RoyaleLPstorage  is WithdrawQueue {\r\n\r\n    uint128 constant N_COINS = 3;\r\n\r\n    uint128 public fees = 25;\r\n\r\n    uint128 public poolPart = 95;\r\n\r\n    uint256[N_COINS] public selfBalance;\r\n\r\n    IYieldOpt yldOpt;\r\n\r\n    address public owner;\r\n    // curvePool Pool;\r\n    Erc20[N_COINS] tokens;\r\n    // Erc20 PoolToken;\r\n    Erc20 rpToken;\r\n\r\n    uint[N_COINS] public YieldPoolBalance;\r\n\r\n    uint256 public thresholdTokenAmount = 500;\r\n\r\n    // Lock period in days\r\n    uint128 lock_period = 14;\r\n\r\n    struct depositDetails {\r\n        uint256[N_COINS] amount;\r\n        uint256[N_COINS] remAmt;\r\n        uint256 time;\r\n        bool[N_COINS] withdrawn;\r\n    }\r\n\r\n    mapping(address => uint256[N_COINS]) amountSupplied;\r\n    mapping(address => depositDetails[]) supplyTime;\r\n\r\n    mapping(address => uint256[N_COINS]) amountWithdraw;\r\n    mapping(address => bool) public isInQ;\r\n    uint32 recipientCount;\r\n    uint256[N_COINS] public totalWithdraw;\r\n\r\n    /* MULTISIG STORAGE */\r\n\r\n    uint constant public MAX_SIGNEE_COUNT = 50;\r\n    \r\n    mapping(uint256 => Transaction) public transactions;\r\n    mapping(address => mapping (uint256 => bool)) public confirmations;\r\n    mapping(uint256 => Repayment) gamingCompanyRepayment;\r\n    mapping(address => bool) public isSignee; // isSignee\r\n\r\n    mapping(address => uint[]) takenLoan;\r\n    address[] public signees;\r\n    uint256 public transactionCount = 0;\r\n    uint256 public required;\r\n    \r\n    struct Transaction {\r\n        uint256 transactionId;\r\n        address iGamingCompany;\r\n        bool isGamingCompanySigned;\r\n        uint256[N_COINS] tokenAmounts;\r\n        uint256[N_COINS] remAmt;\r\n        bool approved;\r\n        bool executed;\r\n    }\r\n\r\n    struct Repayment {\r\n        uint256 transactionID;\r\n        bool isRepaymentDone;\r\n        uint256[N_COINS] remainingTokenAmounts;\r\n    }\r\n}",
  "sourcePath": "C:\\Users\\MayankVats\\Desktop\\WORK\\blockchain\\Royale\\royale-contracts\\contracts\\RoyaleLPstorage.sol",
  "compiler": {
    "name": "solc",
    "version": "0.6.12+commit.27d51765.Emscripten.clang"
  },
  "schemaVersion": "3.3.2",
  "updatedAt": "2020-12-10T06:50:57.502Z",
  "devdoc": {
    "kind": "dev",
    "methods": {},
    "version": 1
  },
  "userdoc": {
    "kind": "user",
    "methods": {},
    "version": 1
  }
}