{
  "contractName": "RoyaleLP",
  "abi": [
    {
      "inputs": [
        {
          "internalType": "address[3]",
          "name": "_tokens",
          "type": "address[3]"
        },
        {
          "internalType": "address",
          "name": "_rpToken",
          "type": "address"
        }
      ],
      "stateMutability": "nonpayable",
      "type": "constructor"
    },
    {
      "anonymous": false,
      "inputs": [
        {
          "indexed": false,
          "internalType": "address",
          "name": "user",
          "type": "address"
        },
        {
          "indexed": false,
          "internalType": "uint256[3]",
          "name": "amounts",
          "type": "uint256[3]"
        }
      ],
      "name": "userAddedToQ",
      "type": "event"
    },
    {
      "anonymous": false,
      "inputs": [
        {
          "indexed": false,
          "internalType": "address",
          "name": "user",
          "type": "address"
        },
        {
          "indexed": false,
          "internalType": "uint256[3]",
          "name": "amounts",
          "type": "uint256[3]"
        }
      ],
      "name": "userRecieved",
      "type": "event"
    },
    {
      "anonymous": false,
      "inputs": [
        {
          "indexed": false,
          "internalType": "address",
          "name": "user",
          "type": "address"
        },
        {
          "indexed": false,
          "internalType": "uint256[3]",
          "name": "amounts",
          "type": "uint256[3]"
        }
      ],
      "name": "userSupplied",
      "type": "event"
    },
    {
      "inputs": [],
      "name": "BASE_DECIMAL",
      "outputs": [
        {
          "internalType": "uint256",
          "name": "",
          "type": "uint256"
        }
      ],
      "stateMutability": "view",
      "type": "function"
    },
    {
      "inputs": [
        {
          "internalType": "uint256",
          "name": "",
          "type": "uint256"
        }
      ],
      "name": "YieldPoolBalance",
      "outputs": [
        {
          "internalType": "uint256",
          "name": "",
          "type": "uint256"
        }
      ],
      "stateMutability": "view",
      "type": "function"
    },
    {
      "inputs": [
        {
          "internalType": "address",
          "name": "",
          "type": "address"
        },
        {
          "internalType": "uint256",
          "name": "",
          "type": "uint256"
        }
      ],
      "name": "amountSupplied",
      "outputs": [
        {
          "internalType": "uint256",
          "name": "",
          "type": "uint256"
        }
      ],
      "stateMutability": "view",
      "type": "function"
    },
    {
      "inputs": [],
      "name": "fees",
      "outputs": [
        {
          "internalType": "uint128",
          "name": "",
          "type": "uint128"
        }
      ],
      "stateMutability": "view",
      "type": "function"
    },
    {
      "inputs": [
        {
          "internalType": "address",
          "name": "",
          "type": "address"
        }
      ],
      "name": "isInQ",
      "outputs": [
        {
          "internalType": "bool",
          "name": "",
          "type": "bool"
        }
      ],
      "stateMutability": "view",
      "type": "function"
    },
    {
      "inputs": [],
      "name": "loanContract",
      "outputs": [
        {
          "internalType": "address",
          "name": "",
          "type": "address"
        }
      ],
      "stateMutability": "view",
      "type": "function"
    },
    {
      "inputs": [
        {
          "internalType": "uint256",
          "name": "",
          "type": "uint256"
        }
      ],
      "name": "loanGiven",
      "outputs": [
        {
          "internalType": "uint256",
          "name": "",
          "type": "uint256"
        }
      ],
      "stateMutability": "view",
      "type": "function"
    },
    {
      "inputs": [],
      "name": "lock_period",
      "outputs": [
        {
          "internalType": "uint128",
          "name": "",
          "type": "uint128"
        }
      ],
      "stateMutability": "view",
      "type": "function"
    },
    {
      "inputs": [],
      "name": "owner",
      "outputs": [
        {
          "internalType": "address",
          "name": "",
          "type": "address"
        }
      ],
      "stateMutability": "view",
      "type": "function"
    },
    {
      "inputs": [],
      "name": "poolPart",
      "outputs": [
        {
          "internalType": "uint128",
          "name": "",
          "type": "uint128"
        }
      ],
      "stateMutability": "view",
      "type": "function"
    },
    {
      "inputs": [
        {
          "internalType": "uint256",
          "name": "",
          "type": "uint256"
        }
      ],
      "name": "selfBalance",
      "outputs": [
        {
          "internalType": "uint256",
          "name": "",
          "type": "uint256"
        }
      ],
      "stateMutability": "view",
      "type": "function"
    },
    {
      "inputs": [],
      "name": "thresholdTokenAmount",
      "outputs": [
        {
          "internalType": "uint256",
          "name": "",
          "type": "uint256"
        }
      ],
      "stateMutability": "view",
      "type": "function"
    },
    {
      "inputs": [
        {
          "internalType": "uint256",
          "name": "",
          "type": "uint256"
        }
      ],
      "name": "totalWithdraw",
      "outputs": [
        {
          "internalType": "uint256",
          "name": "",
          "type": "uint256"
        }
      ],
      "stateMutability": "view",
      "type": "function"
    },
    {
      "inputs": [
        {
          "internalType": "uint256[3]",
          "name": "amounts",
          "type": "uint256[3]"
        },
        {
          "internalType": "bool",
          "name": "burn",
          "type": "bool"
        }
      ],
      "name": "calcRptAmount",
      "outputs": [
        {
          "internalType": "uint256",
          "name": "",
          "type": "uint256"
        }
      ],
      "stateMutability": "view",
      "type": "function"
    },
    {
      "inputs": [
        {
          "internalType": "address",
          "name": "addr",
          "type": "address"
        },
        {
          "internalType": "uint256",
          "name": "coin",
          "type": "uint256"
        }
      ],
      "name": "availableWithdraw",
      "outputs": [
        {
          "internalType": "uint256",
          "name": "",
          "type": "uint256"
        }
      ],
      "stateMutability": "view",
      "type": "function"
    },
    {
      "inputs": [
        {
          "internalType": "uint256[3]",
          "name": "amounts",
          "type": "uint256[3]"
        }
      ],
      "name": "supply",
      "outputs": [],
      "stateMutability": "nonpayable",
      "type": "function"
    },
    {
      "inputs": [
        {
          "internalType": "uint256[3]",
          "name": "amounts",
          "type": "uint256[3]"
        }
      ],
      "name": "requestWithdraw",
      "outputs": [],
      "stateMutability": "nonpayable",
      "type": "function"
    },
    {
      "inputs": [
        {
          "internalType": "uint256[3]",
          "name": "amounts",
          "type": "uint256[3]"
        },
        {
          "internalType": "address",
          "name": "_loanSeeker",
          "type": "address"
        }
      ],
      "name": "_loanWithdraw",
      "outputs": [
        {
          "internalType": "bool",
          "name": "",
          "type": "bool"
        }
      ],
      "stateMutability": "nonpayable",
      "type": "function"
    },
    {
      "inputs": [
        {
          "internalType": "uint256[3]",
          "name": "amounts",
          "type": "uint256[3]"
        },
        {
          "internalType": "address",
          "name": "_loanSeeker",
          "type": "address"
        }
      ],
      "name": "_loanRepayment",
      "outputs": [
        {
          "internalType": "bool",
          "name": "",
          "type": "bool"
        }
      ],
      "stateMutability": "nonpayable",
      "type": "function"
    },
    {
      "inputs": [
        {
          "internalType": "uint256[3]",
          "name": "amounts",
          "type": "uint256[3]"
        }
      ],
      "name": "depsoitInRoyale",
      "outputs": [],
      "stateMutability": "nonpayable",
      "type": "function"
    },
    {
      "inputs": [],
      "name": "deposit",
      "outputs": [],
      "stateMutability": "nonpayable",
      "type": "function"
    },
    {
      "inputs": [],
      "name": "withdraw",
      "outputs": [],
      "stateMutability": "nonpayable",
      "type": "function"
    },
    {
      "inputs": [],
      "name": "rebalance",
      "outputs": [],
      "stateMutability": "nonpayable",
      "type": "function"
    },
    {
      "inputs": [],
      "name": "getCurrentPoolBalance",
      "outputs": [
        {
          "internalType": "uint256[3]",
          "name": "",
          "type": "uint256[3]"
        }
      ],
      "stateMutability": "view",
      "type": "function"
    },
    {
      "inputs": [],
      "name": "getTotalLoanGiven",
      "outputs": [
        {
          "internalType": "uint256[3]",
          "name": "",
          "type": "uint256[3]"
        }
      ],
      "stateMutability": "view",
      "type": "function"
    },
    {
      "inputs": [
        {
          "internalType": "address",
          "name": "_loanContract",
          "type": "address"
        }
      ],
      "name": "setLoanContract",
      "outputs": [
        {
          "internalType": "bool",
          "name": "",
          "type": "bool"
        }
      ],
      "stateMutability": "nonpayable",
      "type": "function"
    },
    {
      "inputs": [
        {
          "internalType": "uint128",
          "name": "_newPoolPart",
          "type": "uint128"
        }
      ],
      "name": "changePoolPart",
      "outputs": [
        {
          "internalType": "bool",
          "name": "",
          "type": "bool"
        }
      ],
      "stateMutability": "nonpayable",
      "type": "function"
    },
    {
      "inputs": [
        {
          "internalType": "uint256",
          "name": "_newThreshold",
          "type": "uint256"
        }
      ],
      "name": "setThresholdTokenAmount",
      "outputs": [
        {
          "internalType": "bool",
          "name": "",
          "type": "bool"
        }
      ],
      "stateMutability": "nonpayable",
      "type": "function"
    },
    {
      "inputs": [],
      "name": "setInitialDeposit",
      "outputs": [
        {
          "internalType": "bool",
          "name": "",
          "type": "bool"
        }
      ],
      "stateMutability": "nonpayable",
      "type": "function"
    },
    {
      "inputs": [
        {
          "internalType": "contract rControllerI",
          "name": "_controller",
          "type": "address"
        }
      ],
      "name": "setController",
      "outputs": [
        {
          "internalType": "bool",
          "name": "",
          "type": "bool"
        }
      ],
      "stateMutability": "nonpayable",
      "type": "function"
    },
    {
      "inputs": [
        {
          "internalType": "uint128",
          "name": "lockperiod",
          "type": "uint128"
        }
      ],
      "name": "setLockPeriod",
      "outputs": [
        {
          "internalType": "bool",
          "name": "",
          "type": "bool"
        }
      ],
      "stateMutability": "nonpayable",
      "type": "function"
    },
    {
      "inputs": [
        {
          "internalType": "uint128",
          "name": "_fees",
          "type": "uint128"
        }
      ],
      "name": "setWithdrawFees",
      "outputs": [
        {
          "internalType": "bool",
          "name": "",
          "type": "bool"
        }
      ],
      "stateMutability": "nonpayable",
      "type": "function"
    }
  ],
  "bytecode": "0x60806040526001805560006002556019600460006101000a8154816fffffffffffffffffffffffffffffffff02191690836fffffffffffffffffffffffffffffffff160217905550605f600460106101000a8154816fffffffffffffffffffffffffffffffff02191690836fffffffffffffffffffffffffffffffff1602179055506101f46011553480156200009457600080fd5b5060405162005270380380620052708339818101604052810190620000ba91906200026f565b33600860006101000a81548173ffffffffffffffffffffffffffffffffffffffff021916908373ffffffffffffffffffffffffffffffffffffffff16021790555060005b60036fffffffffffffffffffffffffffffffff168160ff1610156200019057828160ff16600381106200012d57fe5b602002015160098260ff16600381106200014357fe5b0160006101000a81548173ffffffffffffffffffffffffffffffffffffffff021916908373ffffffffffffffffffffffffffffffffffffffff1602179055508080600101915050620000fe565b5080600c60006101000a81548173ffffffffffffffffffffffffffffffffffffffff021916908373ffffffffffffffffffffffffffffffffffffffff16021790555050506200034f565b600081519050620001eb8162000335565b92915050565b600082601f8301126200020357600080fd5b60036200021a6200021482620002de565b620002b0565b915081838560208402820111156200023157600080fd5b60005b838110156200026557816200024a8882620001da565b84526020840193506020830192505060018101905062000234565b5050505092915050565b600080608083850312156200028357600080fd5b60006200029385828601620001f1565b9250506060620002a685828601620001da565b9150509250929050565b6000604051905081810181811067ffffffffffffffff82111715620002d457600080fd5b8060405250919050565b600067ffffffffffffffff821115620002f657600080fd5b602082029050919050565b60006200030e8262000315565b9050919050565b600073ffffffffffffffffffffffffffffffffffffffff82169050919050565b620003408162000301565b81146200034c57600080fd5b50565b614f11806200035f6000396000f3fe608060405234801561001057600080fd5b50600436106101f05760003560e01c80638af814781161010f578063b8b10680116100a2578063d0e30db011610071578063d0e30db01461060b578063db28bfd014610615578063eacd7afc14610645578063f83e9a2014610675576101f0565b8063b8b106801461056f578063c23177b21461059f578063c277b657146105cf578063c89eb036146105ed576101f0565b806392eefe9b116100de57806392eefe9b146104c15780639af1d35a146104f1578063a6d8fcb21461050f578063a70200bd1461053f576101f0565b80638af81478146104375780638da5cb5b146104555780638e9b032614610473578063905f692e14610491576101f0565b806347d4a6a8116101875780636d6ea257116101565780636d6ea2571461039d5780637d7c2a1c146103cd57806380001288146103d757806381f433f014610407576101f0565b806347d4a6a81461030357806352f6e2381461031f578063698504241461033d5780636b9f1ef61461036d576101f0565b8063253f284b116101c3578063253f284b1461027b57806331805a2b1461029957806331d38806146102c95780633ccfd60b146102f9576101f0565b80630d88122c146101f557806311e8718814610211578063147453e91461022f578063224a14181461025f575b600080fd5b61020f600480360381019061020a9190614556565b610693565b005b610219610793565b6040516102269190614b25565b60405180910390f35b610249600480360381019061024491906145bb565b6107de565b6040516102569190614c96565b60405180910390f35b61027960048036038101906102749190614556565b610a49565b005b610283610b9d565b6040516102909190614a06565b60405180910390f35b6102b360048036038101906102ae9190614672565b610bc3565b6040516102c09190614c96565b60405180910390f35b6102e360048036038101906102de91906144c8565b610bdb565b6040516102f09190614b40565b60405180910390f35b610301610c7d565b005b61031d60048036038101906103189190614556565b610dc4565b005b610327611774565b6040516103349190614b40565b60405180910390f35b61035760048036038101906103529190614672565b6117f0565b6040516103649190614c96565b60405180910390f35b61038760048036038101906103829190614649565b611808565b6040516103949190614b40565b60405180910390f35b6103b760048036038101906103b29190614672565b6118a6565b6040516103c49190614c96565b60405180910390f35b6103d56118be565b005b6103f160048036038101906103ec919061457f565b611cfa565b6040516103fe9190614b40565b60405180910390f35b610421600480360381019061041c9190614649565b611f72565b60405161042e9190614b40565b60405180910390f35b61043f612010565b60405161044c9190614c96565b60405180910390f35b61045d61201c565b60405161046a9190614a06565b60405180910390f35b61047b612042565b6040516104889190614c7b565b60405180910390f35b6104ab60048036038101906104a691906144c8565b612064565b6040516104b89190614b40565b60405180910390f35b6104db60048036038101906104d69190614620565b612084565b6040516104e89190614b40565b60405180910390f35b6104f961212a565b6040516105069190614c7b565b60405180910390f35b610529600480360381019061052491906144f1565b61214c565b6040516105369190614c96565b60405180910390f35b61055960048036038101906105549190614649565b612357565b6040516105669190614b40565b60405180910390f35b61058960048036038101906105849190614672565b6123f5565b6040516105969190614b40565b60405180910390f35b6105b960048036038101906105b491906144f1565b612461565b6040516105c69190614c96565b60405180910390f35b6105d7612486565b6040516105e49190614b25565b60405180910390f35b6105f56124d1565b6040516106029190614c96565b60405180910390f35b6106136124d7565b005b61062f600480360381019061062a9190614672565b612946565b60405161063c9190614c96565b60405180910390f35b61065f600480360381019061065a919061457f565b61295e565b60405161066c9190614b40565b60405180910390f35b61067d612bdd565b60405161068a9190614c7b565b60405180910390f35b60006106d7826003806020026040519081016040528092919082600360200280828437600081840152601f19601f82011690508083019250505050505060006107de565b11610717576040517f08c379a000000000000000000000000000000000000000000000000000000000815260040161070e90614b5b565b60405180910390fd5b610757816003806020026040519081016040528092919082600360200280828437600081840152601f19601f820116905080830192505050505050612bff565b7fe7f2330a99451f199f91ed2ac09887e25894cb0e14021fe5d29bc959e7283d0e3382604051610788929190614a73565b60405180910390a150565b61079b614147565b60056003806020026040519081016040528092919082600380156107d4576020028201915b8154815260200190600101908083116107c0575b5050505050905090565b600080600080600080610898600c60009054906101000a900473ffffffffffffffffffffffffffffffffffffffff1673ffffffffffffffffffffffffffffffffffffffff166318160ddd6040518163ffffffff1660e01b815260040160206040518083038186803b15801561085257600080fd5b505afa158015610866573d6000803e3d6000fd5b505050506040513d601f19601f8201168201806040525081019061088a919061469b565b670de0b6b3a7640000612f9b565b905060005b60036fffffffffffffffffffffffffffffffff168160ff1610156109d55760098160ff16600381106108cb57fe5b0160009054906101000a900473ffffffffffffffffffffffffffffffffffffffff1673ffffffffffffffffffffffffffffffffffffffff1663313ce5676040518163ffffffff1660e01b815260040160206040518083038186803b15801561093257600080fd5b505afa158015610946573d6000803e3d6000fd5b505050506040513d601f19601f8201168201806040525081019061096a91906146c4565b60ff1693506109a0601b8260ff166003811061098257fe5b015460058360ff166003811061099457fe5b01540185600a0a612f9b565b850194506109c4898260ff16600381106109b657fe5b602002015185600a0a612f9b565b83019250808060010191505061089d565b506109e96109e38386612f9b565b826130bb565b9450600115158715151415610a3b57612710600460009054906101000a90046fffffffffffffffffffffffffffffffff166fffffffffffffffffffffffffffffffff16860281610a3557fe5b04850194505b849550505050505092915050565b60005b60036fffffffffffffffffffffffffffffffff168160ff161015610b99576000828260ff1660038110610a7b57fe5b602002013514610b8c5760098160ff1660038110610a9557fe5b0160009054906101000a900473ffffffffffffffffffffffffffffffffffffffff1673ffffffffffffffffffffffffffffffffffffffff166323b872dd3330858560ff1660038110610ae357fe5b60200201356040518463ffffffff1660e01b8152600401610b0693929190614a3c565b602060405180830381600087803b158015610b2057600080fd5b505af1158015610b34573d6000803e3d6000fd5b505050506040513d601f19601f82011682018060405250810190610b5891906145f7565b50818160ff1660038110610b6857fe5b602002013560058260ff1660038110610b7d57fe5b01600082825401925050819055505b8080600101915050610a4c565b5050565b601e60009054906101000a900473ffffffffffffffffffffffffffffffffffffffff1681565b600e8160038110610bd057fe5b016000915090505481565b6000600860009054906101000a900473ffffffffffffffffffffffffffffffffffffffff1673ffffffffffffffffffffffffffffffffffffffff163373ffffffffffffffffffffffffffffffffffffffff1614610c3757600080fd5b81601e60006101000a81548173ffffffffffffffffffffffffffffffffffffffff021916908373ffffffffffffffffffffffffffffffffffffffff160217905550919050565b600860009054906101000a900473ffffffffffffffffffffffffffffffffffffffff1673ffffffffffffffffffffffffffffffffffffffff163373ffffffffffffffffffffffffffffffffffffffff1614610cd757600080fd5b6000805b60036fffffffffffffffffffffffffffffffff168160ff161015610d2c57600060188260ff1660038110610d0b57fe5b015414610d1f578180600101925050610d2c565b8080600101915050610cdb565b5060008160ff1611610d73576040517f08c379a0000000000000000000000000000000000000000000000000000000008152600401610d6a90614b7b565b60405180910390fd5b610db96018600380602002604051908101604052809291908260038015610daf576020028201915b815481526020019060010190808311610d9b575b5050505050613197565b610dc1613288565b50565b6000610e08826003806020026040519081016040528092919082600360200280828437600081840152601f19601f82011690508083019250505050505060006107de565b11610e48576040517f08c379a0000000000000000000000000000000000000000000000000000000008152600401610e3f90614b5b565b60405180910390fd5b6000610e8c826003806020026040519081016040528092919082600360200280828437600081840152601f19601f82011690508083019250505050505060016107de565b905080600c60009054906101000a900473ffffffffffffffffffffffffffffffffffffffff1673ffffffffffffffffffffffffffffffffffffffff166370a08231336040518263ffffffff1660e01b8152600401610eea9190614a21565b60206040518083038186803b158015610f0257600080fd5b505afa158015610f16573d6000803e3d6000fd5b505050506040513d601f19601f82011682018060405250810190610f3a919061469b565b1015610f7b576040517f08c379a0000000000000000000000000000000000000000000000000000000008152600401610f7290614c3b565b60405180910390fd5b610f83614147565b610f8b6132da565b9050600060019050600080600090505b60036fffffffffffffffffffffffffffffffff168160ff16101561100f576000868260ff1660038110610fca57fe5b6020020135111561100257858160ff1660038110610fe457fe5b6020020135610ff6338360ff1661214c565b101561100157600092505b5b8080600101915050610f9b565b5081611050576040517f08c379a000000000000000000000000000000000000000000000000000000000815260040161104790614b9b565b60405180910390fd5b60005b60036fffffffffffffffffffffffffffffffff168160ff1610156110d157838160ff166003811061108057fe5b6020020151868260ff166003811061109457fe5b60200201351080156110ba57506000868260ff16600381106110b257fe5b602002013514155b156110c457600191505b8080600101915050611053565b5080156116f357600c60009054906101000a900473ffffffffffffffffffffffffffffffffffffffff1673ffffffffffffffffffffffffffffffffffffffff16639dc29fac33866040518363ffffffff1660e01b8152600401611135929190614a9c565b600060405180830381600087803b15801561114f57600080fd5b505af1158015611163573d6000803e3d6000fd5b50505050600080600090505b60036fffffffffffffffffffffffffffffffff168160ff1610156116b3576000878260ff166003811061119e57fe5b602002013511156116a65760098160ff16600381106111b957fe5b0160009054906101000a900473ffffffffffffffffffffffffffffffffffffffff1673ffffffffffffffffffffffffffffffffffffffff1663a9059cbb33898460ff166003811061120657fe5b60200201356040518363ffffffff1660e01b8152600401611228929190614a9c565b602060405180830381600087803b15801561124257600080fd5b505af1158015611256573d6000803e3d6000fd5b505050506040513d601f19601f8201168201806040525081019061127a91906145f7565b91508161128657600080fd5b868160ff166003811061129557fe5b6020020135601360003373ffffffffffffffffffffffffffffffffffffffff1673ffffffffffffffffffffffffffffffffffffffff1681526020019081526020016000208260ff16600381106112e757fe5b0160008282540392505081905550868160ff166003811061130457fe5b602002013560058260ff166003811061131957fe5b01600082825403925050819055506000878260ff166003811061133857fe5b6020020135905060005b601460003373ffffffffffffffffffffffffffffffffffffffff1673ffffffffffffffffffffffffffffffffffffffff168152602001908152602001600020805490508160ff1610156116a35760011515601460003373ffffffffffffffffffffffffffffffffffffffff1673ffffffffffffffffffffffffffffffffffffffff1681526020019081526020016000208260ff16815481106113e057fe5b90600052602060002090600802016007018460ff16600381106113ff57fe5b602091828204019190069054906101000a900460ff161515141580156114255750600082115b1561169657601460003373ffffffffffffffffffffffffffffffffffffffff1673ffffffffffffffffffffffffffffffffffffffff1681526020019081526020016000208160ff168154811061147757fe5b90600052602060002090600802016003018360ff166003811061149657fe5b0154821061161557601460003373ffffffffffffffffffffffffffffffffffffffff1673ffffffffffffffffffffffffffffffffffffffff1681526020019081526020016000208160ff16815481106114eb57fe5b90600052602060002090600802016003018360ff166003811061150a57fe5b0154820391506000601460003373ffffffffffffffffffffffffffffffffffffffff1673ffffffffffffffffffffffffffffffffffffffff1681526020019081526020016000208260ff168154811061155f57fe5b90600052602060002090600802016003018460ff166003811061157e57fe5b01819055506001601460003373ffffffffffffffffffffffffffffffffffffffff1673ffffffffffffffffffffffffffffffffffffffff1681526020019081526020016000208260ff16815481106115d257fe5b90600052602060002090600802016007018460ff16600381106115f157fe5b602091828204019190066101000a81548160ff021916908315150217905550611695565b81601460003373ffffffffffffffffffffffffffffffffffffffff1673ffffffffffffffffffffffffffffffffffffffff1681526020019081526020016000208260ff168154811061166357fe5b90600052602060002090600802016003018460ff166003811061168257fe5b0160008282540392505081905550600091505b5b8080600101915050611342565b50505b808060010191505061116f565b507fe9c01f7dea3ef08b44263b3cf5963eb42309e5fb5bec9305dbe12b82f37b519c33876040516116e5929190614a73565b60405180910390a15061176d565b611733856003806020026040519081016040528092919082600360200280828437600081840152601f19601f8201169050808301925050505050506133f2565b7fe2d5e24e56e4f05473adb8bb616473de3894beab8011d32382a638d1d2617c933386604051611764929190614a73565b60405180910390a15b5050505050565b6000600860009054906101000a900473ffffffffffffffffffffffffffffffffffffffff1673ffffffffffffffffffffffffffffffffffffffff163373ffffffffffffffffffffffffffffffffffffffff16146117d057600080fd5b6117d86132da565b60059060036117e8929190614169565b506001905090565b600581600381106117fd57fe5b016000915090505481565b6000600860009054906101000a900473ffffffffffffffffffffffffffffffffffffffff1673ffffffffffffffffffffffffffffffffffffffff163373ffffffffffffffffffffffffffffffffffffffff161461186457600080fd5b81600460006101000a8154816fffffffffffffffffffffffffffffffff02191690836fffffffffffffffffffffffffffffffff16021790555060019050919050565b601b81600381106118b357fe5b016000915090505481565b600860009054906101000a900473ffffffffffffffffffffffffffffffffffffffff1673ffffffffffffffffffffffffffffffffffffffff163373ffffffffffffffffffffffffffffffffffffffff161461191857600080fd5b611920614147565b6119286132da565b9050611932614147565b61193a614147565b6119426141a9565b600d60009054906101000a900473ffffffffffffffffffffffffffffffffffffffff1673ffffffffffffffffffffffffffffffffffffffff1663b49a60bb6040518163ffffffff1660e01b8152600401606060405180830381600087803b1580156119ac57600080fd5b505af11580156119c0573d6000803e3d6000fd5b505050506040513d601f19601f820116820180604052508101906119e4919061452d565b905060005b60036fffffffffffffffffffffffffffffffff168160ff161015611c215760006064600460109054906101000a90046fffffffffffffffffffffffffffffffff166064036fffffffffffffffffffffffffffffffff1660058460ff1660038110611a4f57fe5b01540281611a5957fe5b049050858260ff1660038110611a6b57fe5b6020020151811115611aaa57858260ff1660038110611a8657fe5b60200201518103858360ff1660038110611a9c57fe5b602002018181525050611c13565b858260ff1660038110611ab957fe5b6020020151811015611bdd5780868360ff1660038110611ad557fe5b602002015103848360ff1660038110611aea57fe5b60200201818152505060098260ff1660038110611b0357fe5b0160009054906101000a900473ffffffffffffffffffffffffffffffffffffffff1673ffffffffffffffffffffffffffffffffffffffff1663a9059cbb848460ff1660038110611b4f57fe5b6020020151868560ff1660038110611b6357fe5b60200201516040518363ffffffff1660e01b8152600401611b85929190614afc565b602060405180830381600087803b158015611b9f57600080fd5b505af1158015611bb3573d6000803e3d6000fd5b505050506040513d601f19601f82011682018060405250810190611bd791906145f7565b50611c12565b6000858360ff1660038110611bee57fe5b6020020181815250506000848360ff1660038110611c0857fe5b6020020181815250505b5b5080806001019150506119e9565b506000805b60036fffffffffffffffffffffffffffffffff168160ff161015611c76576000848260ff1660038110611c5557fe5b60200201511115611c695760019150611c76565b8080600101915050611c26565b508015611c8b57611c86836135c1565b600090505b60005b60036fffffffffffffffffffffffffffffffff168160ff161015611cde576000858260ff1660038110611cbd57fe5b60200201511115611cd15760019150611cde565b8080600101915050611c8e565b508015611cf357611cee84613197565b600090505b5050505050565b6000600860009054906101000a900473ffffffffffffffffffffffffffffffffffffffff1673ffffffffffffffffffffffffffffffffffffffff163373ffffffffffffffffffffffffffffffffffffffff161480611da55750601e60009054906101000a900473ffffffffffffffffffffffffffffffffffffffff1673ffffffffffffffffffffffffffffffffffffffff163373ffffffffffffffffffffffffffffffffffffffff16145b611de4576040517f08c379a0000000000000000000000000000000000000000000000000000000008152600401611ddb90614c5b565b60405180910390fd5b60005b60036fffffffffffffffffffffffffffffffff168160ff161015611f67576000848260ff1660038110611e1657fe5b60200201511115611f5a57838160ff1660038110611e3057fe5b6020020151601b8260ff1660038110611e4557fe5b0160008282540392505081905550838160ff1660038110611e6257fe5b602002015160058260ff1660038110611e7757fe5b016000828254019250508190555060098160ff1660038110611e9557fe5b0160009054906101000a900473ffffffffffffffffffffffffffffffffffffffff1673ffffffffffffffffffffffffffffffffffffffff166323b872dd8430878560ff1660038110611ee357fe5b60200201516040518463ffffffff1660e01b8152600401611f0693929190614ac5565b602060405180830381600087803b158015611f2057600080fd5b505af1158015611f34573d6000803e3d6000fd5b505050506040513d601f19601f82011682018060405250810190611f5891906145f7565b505b8080600101915050611de7565b506001905092915050565b6000600860009054906101000a900473ffffffffffffffffffffffffffffffffffffffff1673ffffffffffffffffffffffffffffffffffffffff163373ffffffffffffffffffffffffffffffffffffffff1614611fce57600080fd5b81601260006101000a8154816fffffffffffffffffffffffffffffffff02191690836fffffffffffffffffffffffffffffffff16021790555060019050919050565b670de0b6b3a764000081565b600860009054906101000a900473ffffffffffffffffffffffffffffffffffffffff1681565b600460109054906101000a90046fffffffffffffffffffffffffffffffff1681565b60166020528060005260406000206000915054906101000a900460ff1681565b6000600860009054906101000a900473ffffffffffffffffffffffffffffffffffffffff1673ffffffffffffffffffffffffffffffffffffffff163373ffffffffffffffffffffffffffffffffffffffff16146120e057600080fd5b81600d60006101000a81548173ffffffffffffffffffffffffffffffffffffffff021916908373ffffffffffffffffffffffffffffffffffffffff16021790555060019050919050565b600460009054906101000a90046fffffffffffffffffffffffffffffffff1681565b6000806000905060005b601460008673ffffffffffffffffffffffffffffffffffffffff1673ffffffffffffffffffffffffffffffffffffffff168152602001908152602001600020805490508160ff16101561234c57601260009054906101000a90046fffffffffffffffffffffffffffffffff1662015180026fffffffffffffffffffffffffffffffff16601460008773ffffffffffffffffffffffffffffffffffffffff1673ffffffffffffffffffffffffffffffffffffffff1681526020019081526020016000208260ff168154811061222657fe5b90600052602060002090600802016006015442031180156122ca575060011515601460008773ffffffffffffffffffffffffffffffffffffffff1673ffffffffffffffffffffffffffffffffffffffff1681526020019081526020016000208260ff168154811061229357fe5b906000526020600020906008020160070185600381106122af57fe5b602091828204019190069054906101000a900460ff16151514155b1561233f57601460008673ffffffffffffffffffffffffffffffffffffffff1673ffffffffffffffffffffffffffffffffffffffff1681526020019081526020016000208160ff168154811061231c57fe5b9060005260206000209060080201600301846003811061233857fe5b0154820191505b8080600101915050612156565b508091505092915050565b6000600860009054906101000a900473ffffffffffffffffffffffffffffffffffffffff1673ffffffffffffffffffffffffffffffffffffffff163373ffffffffffffffffffffffffffffffffffffffff16146123b357600080fd5b81600460106101000a8154816fffffffffffffffffffffffffffffffff02191690836fffffffffffffffffffffffffffffffff16021790555060019050919050565b6000600860009054906101000a900473ffffffffffffffffffffffffffffffffffffffff1673ffffffffffffffffffffffffffffffffffffffff163373ffffffffffffffffffffffffffffffffffffffff161461245157600080fd5b8160118190555060019050919050565b6013602052816000526040600020816003811061247a57fe5b01600091509150505481565b61248e614147565b601b6003806020026040519081016040528092919082600380156124c7576020028201915b8154815260200190600101908083116124b3575b5050505050905090565b60115481565b600860009054906101000a900473ffffffffffffffffffffffffffffffffffffffff1673ffffffffffffffffffffffffffffffffffffffff163373ffffffffffffffffffffffffffffffffffffffff161461253157600080fd5b612539614147565b6125416132da565b9050600061254d6141a9565b600d60009054906101000a900473ffffffffffffffffffffffffffffffffffffffff1673ffffffffffffffffffffffffffffffffffffffff1663b49a60bb6040518163ffffffff1660e01b8152600401606060405180830381600087803b1580156125b757600080fd5b505af11580156125cb573d6000803e3d6000fd5b505050506040513d601f19601f820116820180604052508101906125ef919061452d565b905060005b60036fffffffffffffffffffffffffffffffff168160ff1610156128d15760098160ff166003811061262257fe5b0160009054906101000a900473ffffffffffffffffffffffffffffffffffffffff1673ffffffffffffffffffffffffffffffffffffffff1663313ce5676040518163ffffffff1660e01b815260040160206040518083038186803b15801561268957600080fd5b505afa15801561269d573d6000803e3d6000fd5b505050506040513d601f19601f820116820180604052508101906126c191906146c4565b60ff16925082600a0a60115402848260ff16600381106126dd57fe5b602002015111156128a957600e8160ff16600381106126f857fe5b0154848260ff166003811061270957fe5b6020020181815101915081815250506064600460109054906101000a90046fffffffffffffffffffffffffffffffff166fffffffffffffffffffffffffffffffff16858360ff166003811061275a57fe5b6020020151028161276757fe5b04848260ff166003811061277757fe5b602002018181525050600e8160ff166003811061279057fe5b0154848260ff16600381106127a157fe5b602002015103848260ff16600381106127b657fe5b60200201818152505060098160ff16600381106127cf57fe5b0160009054906101000a900473ffffffffffffffffffffffffffffffffffffffff1673ffffffffffffffffffffffffffffffffffffffff1663a9059cbb838360ff166003811061281b57fe5b6020020151868460ff166003811061282f57fe5b60200201516040518363ffffffff1660e01b8152600401612851929190614afc565b602060405180830381600087803b15801561286b57600080fd5b505af115801561287f573d6000803e3d6000fd5b505050506040513d601f19601f820116820180604052508101906128a391906145f7565b506128c4565b6000848260ff16600381106128ba57fe5b6020020181815250505b80806001019150506125f4565b506000805b60036fffffffffffffffffffffffffffffffff168160ff161015612929576000858260ff166003811061290557fe5b60200201511461291c578180600101925050612929565b80806001019150506128d6565b5060008160ff1611156129405761293f846135c1565b5b50505050565b6018816003811061295357fe5b016000915090505481565b6000600860009054906101000a900473ffffffffffffffffffffffffffffffffffffffff1673ffffffffffffffffffffffffffffffffffffffff163373ffffffffffffffffffffffffffffffffffffffff161480612a095750601e60009054906101000a900473ffffffffffffffffffffffffffffffffffffffff1673ffffffffffffffffffffffffffffffffffffffff163373ffffffffffffffffffffffffffffffffffffffff16145b612a48576040517f08c379a0000000000000000000000000000000000000000000000000000000008152600401612a3f90614c5b565b60405180910390fd5b612a5183613197565b60005b60036fffffffffffffffffffffffffffffffff168160ff161015612bd2576000848260ff1660038110612a8357fe5b60200201511115612bc557838160ff1660038110612a9d57fe5b6020020151601b8260ff1660038110612ab257fe5b0160008282540192505081905550838160ff1660038110612acf57fe5b602002015160058260ff1660038110612ae457fe5b016000828254039250508190555060098160ff1660038110612b0257fe5b0160009054906101000a900473ffffffffffffffffffffffffffffffffffffffff1673ffffffffffffffffffffffffffffffffffffffff1663a9059cbb84868460ff1660038110612b4f57fe5b60200201516040518363ffffffff1660e01b8152600401612b71929190614afc565b602060405180830381600087803b158015612b8b57600080fd5b505af1158015612b9f573d6000803e3d6000fd5b505050506040513d601f19601f82011682018060405250810190612bc391906145f7565b505b8080600101915050612a54565b506001905092915050565b601260009054906101000a90046fffffffffffffffffffffffffffffffff1681565b6000612c0c8260006107de565b9050600080600090505b60036fffffffffffffffffffffffffffffffff168160ff161015612e14576000848260ff1660038110612c4557fe5b60200201511115612e075760098160ff1660038110612c6057fe5b0160009054906101000a900473ffffffffffffffffffffffffffffffffffffffff1673ffffffffffffffffffffffffffffffffffffffff166323b872dd3330878560ff1660038110612cae57fe5b60200201516040518463ffffffff1660e01b8152600401612cd193929190614a3c565b602060405180830381600087803b158015612ceb57600080fd5b505af1158015612cff573d6000803e3d6000fd5b505050506040513d601f19601f82011682018060405250810190612d2391906145f7565b915081612d65576040517f08c379a0000000000000000000000000000000000000000000000000000000008152600401612d5c90614bdb565b60405180910390fd5b838160ff1660038110612d7457fe5b602002015160058260ff1660038110612d8957fe5b0160008282540192505081905550838160ff1660038110612da657fe5b6020020151601360003373ffffffffffffffffffffffffffffffffffffffff1673ffffffffffffffffffffffffffffffffffffffff1681526020019081526020016000208260ff1660038110612df857fe5b01600082825401925050819055505b8080600101915050612c16565b50600c60009054906101000a900473ffffffffffffffffffffffffffffffffffffffff1673ffffffffffffffffffffffffffffffffffffffff166340c10f1933846040518363ffffffff1660e01b8152600401612e72929190614a9c565b600060405180830381600087803b158015612e8c57600080fd5b505af1158015612ea0573d6000803e3d6000fd5b50505050612eac6141cb565b612eb46141ed565b6040518060800160405280868152602001868152602001428152602001838152509050601460003373ffffffffffffffffffffffffffffffffffffffff1673ffffffffffffffffffffffffffffffffffffffff168152602001908152602001600020819080600181540180825580915050600190039060005260206000209060080201600090919091909150600082015181600001906003612f57929190614169565b50602082015181600301906003612f6f929190614169565b5060408201518160060155606082015181600701906003612f91929190614227565b5050505050505050565b600080821415612fe0576040517f08c379a0000000000000000000000000000000000000000000000000000000008152600401612fd790614c1b565b60405180910390fd5b6000670de0b6b3a764000084029050600084148061300e5750670de0b6b3a764000084828161300b57fe5b04145b61304d576040517f08c379a000000000000000000000000000000000000000000000000000000000815260040161304490614bbb565b60405180910390fd5b60006002848161305957fe5b0482019050818110156130a1576040517f08c379a000000000000000000000000000000000000000000000000000000000815260040161309890614bbb565b60405180910390fd5b60008482816130ac57fe5b04905080935050505092915050565b600080828402905060008414806130da5750828482816130d757fe5b04145b613119576040517f08c379a000000000000000000000000000000000000000000000000000000000815260040161311090614bfb565b60405180910390fd5b60006002670de0b6b3a76400008161312d57fe5b048201905081811015613175576040517f08c379a000000000000000000000000000000000000000000000000000000000815260040161316c90614bfb565b60405180910390fd5b6000670de0b6b3a7640000828161318857fe5b04905080935050505092915050565b600d60009054906101000a900473ffffffffffffffffffffffffffffffffffffffff1673ffffffffffffffffffffffffffffffffffffffff1663b1b8f1be826040518263ffffffff1660e01b81526004016131f29190614b25565b600060405180830381600087803b15801561320c57600080fd5b505af1158015613220573d6000803e3d6000fd5b5050505060005b60036fffffffffffffffffffffffffffffffff168160ff16101561328457818160ff166003811061325457fe5b6020020151600e8260ff166003811061326957fe5b01600082825403925050819055508080600101915050613227565b5050565b6000601760009054906101000a900463ffffffff16905060005b8163ffffffff168160ff1610156132d65760006132bd6136b2565b90506132c8816137a9565b5080806001019150506132a2565b5050565b6132e2614147565b6132ea614147565b60005b60036fffffffffffffffffffffffffffffffff168160ff1610156133ea5760098160ff166003811061331b57fe5b0160009054906101000a900473ffffffffffffffffffffffffffffffffffffffff1673ffffffffffffffffffffffffffffffffffffffff166370a08231306040518263ffffffff1660e01b81526004016133759190614a06565b60206040518083038186803b15801561338d57600080fd5b505afa1580156133a1573d6000803e3d6000fd5b505050506040513d601f19601f820116820180604052508101906133c5919061469b565b828260ff16600381106133d457fe5b60200201818152505080806001019150506132ed565b508091505090565b60005b60036fffffffffffffffffffffffffffffffff168110156134cc57600082826003811061341e57fe5b602002015111156134bf5781816003811061343557fe5b6020020151601560003373ffffffffffffffffffffffffffffffffffffffff1673ffffffffffffffffffffffffffffffffffffffff168152602001908152602001600020826003811061348457fe5b016000828254019250508190555081816003811061349e57fe5b6020020151601882600381106134b057fe5b01600082825401925050819055505b80806001019150506133f5565b5060011515601660003373ffffffffffffffffffffffffffffffffffffffff1673ffffffffffffffffffffffffffffffffffffffff16815260200190815260200160002060009054906101000a900460ff161515146135be576001601760008282829054906101000a900463ffffffff160192506101000a81548163ffffffff021916908363ffffffff1602179055506001601660003373ffffffffffffffffffffffffffffffffffffffff1673ffffffffffffffffffffffffffffffffffffffff16815260200190815260200160002060006101000a81548160ff0219169083151502179055506135bd336140e0565b5b50565b600d60009054906101000a900473ffffffffffffffffffffffffffffffffffffffff1673ffffffffffffffffffffffffffffffffffffffff1663d4e20b01826040518263ffffffff1660e01b815260040161361c9190614b25565b600060405180830381600087803b15801561363657600080fd5b505af115801561364a573d6000803e3d6000fd5b5050505060005b60036fffffffffffffffffffffffffffffffff168160ff1610156136ae57818160ff166003811061367e57fe5b6020020151600e8260ff166003811061369357fe5b01600082825401925050819055508080600101915050613651565b5050565b600060015460025410156136c557600080fd5b600080600154815260200190815260200160002060009054906101000a900473ffffffffffffffffffffffffffffffffffffffff16600360006101000a81548173ffffffffffffffffffffffffffffffffffffffff021916908373ffffffffffffffffffffffffffffffffffffffff160217905550600080600154815260200190815260200160002060006101000a81549073ffffffffffffffffffffffffffffffffffffffff021916905560018060008282540192505081905550600360009054906101000a900473ffffffffffffffffffffffffffffffffffffffff16905090565b600080613831601560008573ffffffffffffffffffffffffffffffffffffffff1673ffffffffffffffffffffffffffffffffffffffff168152602001908152602001600020600380602002604051908101604052809291908260038015613825576020028201915b815481526020019060010190808311613811575b505050505060016107de565b9050600c60009054906101000a900473ffffffffffffffffffffffffffffffffffffffff1673ffffffffffffffffffffffffffffffffffffffff16639dc29fac84836040518363ffffffff1660e01b8152600401613890929190614afc565b600060405180830381600087803b1580156138aa57600080fd5b505af11580156138be573d6000803e3d6000fd5b5050505060005b60036fffffffffffffffffffffffffffffffff168160ff1610156140da576000601560008673ffffffffffffffffffffffffffffffffffffffff1673ffffffffffffffffffffffffffffffffffffffff1681526020019081526020016000208260ff166003811061393257fe5b015411801561398f57506000601360008673ffffffffffffffffffffffffffffffffffffffff1673ffffffffffffffffffffffffffffffffffffffff1681526020019081526020016000208260ff166003811061398b57fe5b0154115b156140cd5760098160ff16600381106139a457fe5b0160009054906101000a900473ffffffffffffffffffffffffffffffffffffffff1673ffffffffffffffffffffffffffffffffffffffff1663a9059cbb85601560008873ffffffffffffffffffffffffffffffffffffffff1673ffffffffffffffffffffffffffffffffffffffff1681526020019081526020016000208460ff1660038110613a2f57fe5b01546040518363ffffffff1660e01b8152600401613a4e929190614afc565b602060405180830381600087803b158015613a6857600080fd5b505af1158015613a7c573d6000803e3d6000fd5b505050506040513d601f19601f82011682018060405250810190613aa091906145f7565b925082613aac57600080fd5b601560008573ffffffffffffffffffffffffffffffffffffffff1673ffffffffffffffffffffffffffffffffffffffff1681526020019081526020016000208160ff1660038110613af957fe5b0154601360008673ffffffffffffffffffffffffffffffffffffffff1673ffffffffffffffffffffffffffffffffffffffff1681526020019081526020016000208260ff1660038110613b4857fe5b0160008282540392505081905550601560008573ffffffffffffffffffffffffffffffffffffffff1673ffffffffffffffffffffffffffffffffffffffff1681526020019081526020016000208160ff1660038110613ba357fe5b015460188260ff1660038110613bb557fe5b0160008282540392505081905550601560008573ffffffffffffffffffffffffffffffffffffffff1673ffffffffffffffffffffffffffffffffffffffff1681526020019081526020016000208160ff1660038110613c1057fe5b015460058260ff1660038110613c2257fe5b01600082825403925050819055506000601560008673ffffffffffffffffffffffffffffffffffffffff1673ffffffffffffffffffffffffffffffffffffffff1681526020019081526020016000208260ff1660038110613c7f57fe5b0154905060005b601460008773ffffffffffffffffffffffffffffffffffffffff1673ffffffffffffffffffffffffffffffffffffffff168152602001908152602001600020805490508160ff161015613fe75760011515601460008873ffffffffffffffffffffffffffffffffffffffff1673ffffffffffffffffffffffffffffffffffffffff1681526020019081526020016000208260ff1681548110613d2457fe5b90600052602060002090600802016007018460ff1660038110613d4357fe5b602091828204019190069054906101000a900460ff16151514158015613d695750600082115b15613fda57601460008773ffffffffffffffffffffffffffffffffffffffff1673ffffffffffffffffffffffffffffffffffffffff1681526020019081526020016000208160ff1681548110613dbb57fe5b90600052602060002090600802016003018360ff1660038110613dda57fe5b01548210613f5957601460008773ffffffffffffffffffffffffffffffffffffffff1673ffffffffffffffffffffffffffffffffffffffff1681526020019081526020016000208160ff1681548110613e2f57fe5b90600052602060002090600802016003018360ff1660038110613e4e57fe5b0154820391506000601460008873ffffffffffffffffffffffffffffffffffffffff1673ffffffffffffffffffffffffffffffffffffffff1681526020019081526020016000208260ff1681548110613ea357fe5b90600052602060002090600802016003018460ff1660038110613ec257fe5b01819055506001601460008873ffffffffffffffffffffffffffffffffffffffff1673ffffffffffffffffffffffffffffffffffffffff1681526020019081526020016000208260ff1681548110613f1657fe5b90600052602060002090600802016007018460ff1660038110613f3557fe5b602091828204019190066101000a81548160ff021916908315150217905550613fd9565b81601460008873ffffffffffffffffffffffffffffffffffffffff1673ffffffffffffffffffffffffffffffffffffffff1681526020019081526020016000208260ff1681548110613fa757fe5b90600052602060002090600802016003018460ff1660038110613fc657fe5b0160008282540392505081905550600091505b5b8080600101915050613c86565b506000601560008773ffffffffffffffffffffffffffffffffffffffff1673ffffffffffffffffffffffffffffffffffffffff1681526020019081526020016000208360ff166003811061403757fe5b01819055506000601660008773ffffffffffffffffffffffffffffffffffffffff1673ffffffffffffffffffffffffffffffffffffffff16815260200190815260200160002060006101000a81548160ff0219169083151502179055506001601760008282829054906101000a900463ffffffff160392506101000a81548163ffffffff021916908363ffffffff160217905550505b80806001019150506138c5565b50505050565b600160026000828254019250508190555080600080600254815260200190815260200160002060006101000a81548173ffffffffffffffffffffffffffffffffffffffff021916908373ffffffffffffffffffffffffffffffffffffffff16021790555050565b6040518060600160405280600390602082028036833780820191505090505090565b8260038101928215614198579160200282015b8281111561419757825182559160200191906001019061417c565b5b5090506141a591906142c0565b5090565b6040518060600160405280600390602082028036833780820191505090505090565b6040518060600160405280600390602082028036833780820191505090505090565b6040518060800160405280614200614147565b815260200161420d614147565b8152602001600081526020016142216141cb565b81525090565b826003601f016020900481019282156142af5791602002820160005b8382111561428057835183826101000a81548160ff0219169083151502179055509260200192600101602081600001049283019260010302614243565b80156142ad5782816101000a81549060ff0219169055600101602081600001049283019260010302614280565b505b5090506142bc91906142dd565b5090565b5b808211156142d95760008160009055506001016142c1565b5090565b5b8082111561430157600081816101000a81549060ff0219169055506001016142de565b5090565b60008135905061431481614e3a565b92915050565b600082601f83011261432b57600080fd5b600361433e61433982614cde565b614cb1565b9150818385602084028201111561435457600080fd5b60005b83811015614384578161436a888261445f565b845260208401935060208301925050600181019050614357565b5050505092915050565b6000819050826020600302820111156143a657600080fd5b92915050565b600082601f8301126143bd57600080fd5b60036143d06143cb82614d00565b614cb1565b915081838560208402820111156143e657600080fd5b60005b8381101561441657816143fc8882614489565b8452602084019350602083019250506001810190506143e9565b5050505092915050565b60008135905061442f81614e51565b92915050565b60008151905061444481614e51565b92915050565b60008135905061445981614e68565b92915050565b60008151905061446e81614e7f565b92915050565b60008135905061448381614e96565b92915050565b60008135905061449881614ead565b92915050565b6000815190506144ad81614ead565b92915050565b6000815190506144c281614ec4565b92915050565b6000602082840312156144da57600080fd5b60006144e884828501614305565b91505092915050565b6000806040838503121561450457600080fd5b600061451285828601614305565b925050602061452385828601614489565b9150509250929050565b60006060828403121561453f57600080fd5b600061454d8482850161431a565b91505092915050565b60006060828403121561456857600080fd5b60006145768482850161438e565b91505092915050565b6000806080838503121561459257600080fd5b60006145a0858286016143ac565b92505060606145b185828601614305565b9150509250929050565b600080608083850312156145ce57600080fd5b60006145dc858286016143ac565b92505060606145ed85828601614420565b9150509250929050565b60006020828403121561460957600080fd5b600061461784828501614435565b91505092915050565b60006020828403121561463257600080fd5b60006146408482850161444a565b91505092915050565b60006020828403121561465b57600080fd5b600061466984828501614474565b91505092915050565b60006020828403121561468457600080fd5b600061469284828501614489565b91505092915050565b6000602082840312156146ad57600080fd5b60006146bb8482850161449e565b91505092915050565b6000602082840312156146d657600080fd5b60006146e4848285016144b3565b91505092915050565b60006146f983836149e8565b60208301905092915050565b61470e81614df5565b82525050565b61471d81614d60565b82525050565b61472f60608383614e2b565b5050565b61473c81614d2c565b6147468184614d44565b925061475182614d22565b8060005b8381101561478257815161476987826146ed565b965061477483614d37565b925050600181019050614755565b505050505050565b61479381614d72565b82525050565b60006147a6601283614d4f565b91507f7a65726f20746f6b656e7320737570706c7900000000000000000000000000006000830152602082019050919050565b60006147e6601483614d4f565b91507f776974686472617720717565756520656d7074790000000000000000000000006000830152602082019050919050565b6000614826600b83614d4f565b91507f6c6f636b20706572696f640000000000000000000000000000000000000000006000830152602082019050919050565b6000614866601083614d4f565b91507f4552525f4449565f494e5445524e414c000000000000000000000000000000006000830152602082019050919050565b60006148a6601783614d4f565b91507f5472616e73666572206e6f74207375636365737366756c0000000000000000006000830152602082019050919050565b60006148e6601083614d4f565b91507f4552525f4d554c5f4f564552464c4f57000000000000000000000000000000006000830152602082019050919050565b6000614926600c83614d4f565b91507f4552525f4449565f5a45524f00000000000000000000000000000000000000006000830152602082019050919050565b6000614966600783614d4f565b91507f6c6f7720525054000000000000000000000000000000000000000000000000006000830152602082019050919050565b60006149a6601683614d4f565b91507f4e6f7420417574686f72697a656420746f2063616c6c000000000000000000006000830152602082019050919050565b6149e281614da2565b82525050565b6149f181614dde565b82525050565b614a0081614dde565b82525050565b6000602082019050614a1b6000830184614714565b92915050565b6000602082019050614a366000830184614705565b92915050565b6000606082019050614a516000830186614705565b614a5e6020830185614714565b614a6b60408301846149f7565b949350505050565b6000608082019050614a886000830185614705565b614a956020830184614723565b9392505050565b6000604082019050614ab16000830185614705565b614abe60208301846149f7565b9392505050565b6000606082019050614ada6000830186614714565b614ae76020830185614714565b614af460408301846149f7565b949350505050565b6000604082019050614b116000830185614714565b614b1e60208301846149f7565b9392505050565b6000606082019050614b3a6000830184614733565b92915050565b6000602082019050614b55600083018461478a565b92915050565b60006020820190508181036000830152614b7481614799565b9050919050565b60006020820190508181036000830152614b94816147d9565b9050919050565b60006020820190508181036000830152614bb481614819565b9050919050565b60006020820190508181036000830152614bd481614859565b9050919050565b60006020820190508181036000830152614bf481614899565b9050919050565b60006020820190508181036000830152614c14816148d9565b9050919050565b60006020820190508181036000830152614c3481614919565b9050919050565b60006020820190508181036000830152614c5481614959565b9050919050565b60006020820190508181036000830152614c7481614999565b9050919050565b6000602082019050614c9060008301846149d9565b92915050565b6000602082019050614cab60008301846149f7565b92915050565b6000604051905081810181811067ffffffffffffffff82111715614cd457600080fd5b8060405250919050565b600067ffffffffffffffff821115614cf557600080fd5b602082029050919050565b600067ffffffffffffffff821115614d1757600080fd5b602082029050919050565b6000819050919050565b600060039050919050565b6000602082019050919050565b600081905092915050565b600082825260208201905092915050565b6000614d6b82614dbe565b9050919050565b60008115159050919050565b6000614d8982614d60565b9050919050565b6000614d9b82614d60565b9050919050565b60006fffffffffffffffffffffffffffffffff82169050919050565b600073ffffffffffffffffffffffffffffffffffffffff82169050919050565b6000819050919050565b600060ff82169050919050565b6000614e0082614e07565b9050919050565b6000614e1282614e19565b9050919050565b6000614e2482614dbe565b9050919050565b82818337600083830152505050565b614e4381614d60565b8114614e4e57600080fd5b50565b614e5a81614d72565b8114614e6557600080fd5b50565b614e7181614d7e565b8114614e7c57600080fd5b50565b614e8881614d90565b8114614e9357600080fd5b50565b614e9f81614da2565b8114614eaa57600080fd5b50565b614eb681614dde565b8114614ec157600080fd5b50565b614ecd81614de8565b8114614ed857600080fd5b5056fea26469706673582212203cebf8e2885859c12a412b59b1642d3fca38585734cc3ebca30fa2fc2421078064736f6c634300060c0033",
  "immutableReferences": {},
  "source": "// SPDX-License-Identifier: UNLICENSED\r\npragma solidity ^0.6.0;\r\npragma experimental ABIEncoderV2;\r\n\r\nimport './MathLib.sol';\r\nimport './RoyaleLPstorage.sol';\r\n\r\n\r\ncontract RoyaleLP is RoyaleLPstorage, rNum {\r\n\r\n    modifier onlyOwner {\r\n        require(msg.sender == owner);\r\n        _;\r\n    }\r\n\r\n     modifier onlyAuthorized {\r\n        require(msg.sender == owner || msg.sender==loanContract,\"Not Authorized to call\");\r\n        _;\r\n    }\r\n\r\n    constructor(\r\n        address[N_COINS] memory _tokens,\r\n        address _rpToken\r\n    ) public {\r\n        owner = msg.sender;\r\n\r\n        for(uint8 i=0; i<N_COINS; i++) {\r\n            tokens[i] = Erc20(_tokens[i]);\r\n        }\r\n        rpToken = Erc20(_rpToken);\r\n    }\r\n    \r\n    /* EVENTS */\r\n    event userSupplied(\r\n        address user,\r\n        uint[N_COINS] amounts\r\n    );\r\n\r\n    event userRecieved(\r\n        address user,\r\n        uint[N_COINS] amounts\r\n    );\r\n\r\n    event userAddedToQ(\r\n        address user,\r\n        uint[N_COINS] amounts\r\n    );\r\n\r\n    /* INTERNAL FUNCTIONS */\r\n\r\n    function _getBalances() internal view returns(uint256[N_COINS] memory) {\r\n        uint256[N_COINS] memory balances;\r\n\r\n        for(uint8 i=0; i<N_COINS; i++) {\r\n            balances[i] = tokens[i].balanceOf(address(this));\r\n        }\r\n\r\n        return balances;\r\n    }\r\n\r\n\r\n\r\n    // functions related to deposit and supply\r\n\r\n\r\n\r\n\r\n    // This function deposits the fund to Yield Optimizer\r\n    function _deposit(uint256[N_COINS] memory amounts) internal {\r\n        controller.deposit(amounts);\r\n        \r\n        for(uint8 i=0; i<N_COINS; i++) {\r\n            YieldPoolBalance[i] += amounts[i];\r\n        }\r\n    }\r\n\r\n\r\n\r\n    //Internal Calculation For User Supply \r\n\r\n    function _supply(uint256[N_COINS] memory amounts) internal {\r\n        uint256 mintTokens;        \r\n        mintTokens = calcRptAmount(amounts, false);    \r\n        \r\n        bool result;\r\n        for(uint8 i=0; i<N_COINS; i++) {\r\n            if(amounts[i] > 0) {\r\n                result = tokens[i].transferFrom(\r\n                    msg.sender, \r\n                    address(this), \r\n                    amounts[i]\r\n                );\r\n                require(result,\"Transfer not successful\");\r\n                selfBalance[i] += amounts[i];\r\n                amountSupplied[msg.sender][i] += amounts[i];\r\n            }\r\n        }\r\n        rpToken.mint(msg.sender, mintTokens);\r\n        bool[N_COINS] memory falseArray;\r\n        depositDetails memory d = depositDetails(amounts, amounts, now, falseArray);\r\n        supplyTime[msg.sender].push(d);\r\n    }\r\n\r\n\r\n\r\n    // functions related to withdraw, withdraw queue and withdraw from Yield Optimizer\r\n    function _takeBack(address recipient) internal {\r\n        bool result;\r\n\r\n        uint256 burnAmt;\r\n\r\n        burnAmt = calcRptAmount(amountWithdraw[recipient], true);\r\n        rpToken.burn(recipient, burnAmt);\r\n\r\n        for(uint8 i=0; i<N_COINS; i++) {\r\n            if(\r\n                amountWithdraw[recipient][i] > 0 \r\n                && \r\n                amountSupplied[recipient][i] > 0\r\n            ) {\r\n                result = tokens[i].transfer(\r\n                    recipient,  \r\n                    amountWithdraw[recipient][i]\r\n                );\r\n                require(result);\r\n\r\n                amountSupplied[recipient][i] -= amountWithdraw[recipient][i];\r\n                totalWithdraw[i] -= amountWithdraw[recipient][i];\r\n                selfBalance[i] -= amountWithdraw[recipient][i];\r\n\r\n                uint x = amountWithdraw[recipient][i];\r\n                for(uint8 j=0; j<supplyTime[recipient].length; j++) {\r\n                    if(supplyTime[recipient][j].withdrawn[i] != true && x > 0) {\r\n                        if(x >= supplyTime[recipient][j].remAmt[i]) {\r\n                            x = x - supplyTime[recipient][j].remAmt[i];\r\n                            supplyTime[recipient][j].remAmt[i] = 0;\r\n                            supplyTime[recipient][j].withdrawn[i] = true;\r\n                        }\r\n                        else {\r\n                            supplyTime[recipient][j].remAmt[i] -= x;\r\n                            x = 0;\r\n                        }\r\n                    }\r\n                }\r\n\r\n                amountWithdraw[recipient][i] = 0;\r\n\r\n                isInQ[recipient] = false;\r\n                recipientCount -= 1;\r\n            }\r\n        }\r\n    }\r\n\r\n\r\n\r\n\r\n    // this will fulfill withdraw requests from the queue\r\n    function _giveBack() internal {\r\n        \r\n        uint32 counter = recipientCount;\r\n        for(uint8 i=0; i<counter; i++) {\r\n            address recipient = getFromQ();\r\n            _takeBack(recipient);\r\n        }\r\n\r\n    }\r\n\r\n\r\n\r\n\r\n\r\n    // this will add unfulfilled withdraw requests to the queue\r\n    function _takeBackQ(uint256[N_COINS] memory amounts) internal {\r\n        \r\n        for(uint256 i=0; i<N_COINS; i++) {\r\n            if(amounts[i] > 0) {\r\n                amountWithdraw[msg.sender][i] += amounts[i];\r\n                totalWithdraw[i] += amounts[i];\r\n            }\r\n        }\r\n\r\n        if(isInQ[msg.sender] != true) {\r\n            recipientCount += 1;\r\n            isInQ[msg.sender] = true;\r\n            addToQ(msg.sender);\r\n        }\r\n\r\n    }\r\n\r\n\r\n\r\n\r\n    // this will withdraw from Yield Optimizer into this contract\r\n    function _withdraw(uint256[N_COINS] memory amounts) internal {\r\n        controller.withdraw(amounts);\r\n\r\n        for(uint8 i=0; i<N_COINS; i++) {\r\n            YieldPoolBalance[i] -= amounts[i];\r\n        }\r\n    }\r\n\r\n\r\n\r\n\r\n    //public function  for utilities\r\n\r\n\r\n   //This function calculate RPT to be mint or burn\r\n    function calcRptAmount(uint256[N_COINS] memory amounts, bool burn) public view returns(uint256) {\r\n        uint256 rptAmt;\r\n        uint256 total = 0;\r\n        uint256 decimal = 0;\r\n        uint256 totalSuppliedTokens;\r\n        uint256 totalRPTSupply;\r\n\r\n        totalRPTSupply = bdiv(rpToken.totalSupply(), 10**18);\r\n        \r\n        for(uint8 i=0; i<N_COINS; i++) {\r\n            decimal = tokens[i].decimals();\r\n            total += bdiv(selfBalance[i]+loanGiven[i], 10**decimal);\r\n            totalSuppliedTokens += bdiv(amounts[i], 10**decimal);\r\n        }\r\n\r\n        rptAmt = bmul(bdiv(totalSuppliedTokens, total), totalRPTSupply);\r\n\r\n        if(burn == true) {\r\n            rptAmt = rptAmt + (rptAmt * fees) / 10000;\r\n        }\r\n\r\n        return rptAmt;\r\n    }\r\n\r\n\r\n\r\n\r\n\r\n    //function to check available amount to withdraw for user\r\n    function availableWithdraw(address addr, uint coin) public view returns(uint256) {\r\n\r\n        uint256 amount=0;\r\n        for(uint8 j=0; j<supplyTime[addr].length; j++) {\r\n            if(\r\n                ((now - supplyTime[addr][j].time) \r\n                > \r\n                (24 * 60 * 60 * lock_period))\r\n                &&\r\n                supplyTime[addr][j].withdrawn[coin] != true\r\n            ) {\r\n                amount += supplyTime[addr][j].remAmt[coin];\r\n            }\r\n        }\r\n\r\n        return amount;\r\n    }\r\n\r\n\r\n\r\n\r\n    /* USER FUNCTIONS (exposed to frontend) */\r\n\r\n    function supply(uint256[N_COINS] calldata amounts) external {\r\n        require(\r\n            calcRptAmount(amounts, false) > 0,\r\n            \"zero tokens supply\"\r\n        );\r\n        \r\n        _supply(amounts);\r\n\r\n        emit userSupplied(msg.sender, amounts);\r\n    }\r\n\r\n\r\n\r\n\r\n\r\n    function requestWithdraw(uint256[N_COINS] calldata amounts) external {\r\n        require(\r\n            calcRptAmount(amounts, false) > 0,\r\n            \"zero tokens supply\"\r\n        );\r\n\r\n        uint256 burnAmt;\r\n        burnAmt = calcRptAmount(amounts, true);\r\n        require(\r\n            rpToken.balanceOf(msg.sender) >= burnAmt, \r\n            \"low RPT\"\r\n        );\r\n        \r\n        uint256[N_COINS] memory poolBalance;\r\n        poolBalance = _getBalances();\r\n        \r\n        bool checkTime = true;\r\n        bool instant;\r\n        \r\n        // check if user is withdrawing before lock period\r\n        for(uint8 i=0; i<N_COINS; i++) {\r\n            if(amounts[i] > 0) {\r\n                if(availableWithdraw(msg.sender, i) < amounts[i]) {\r\n                    checkTime = false;\r\n                }\r\n            }\r\n        }\r\n        require(checkTime, \"lock period\");\r\n\r\n        // check if instant withdraw\r\n        for(uint8 i=0; i<N_COINS; i++) {\r\n            if(amounts[i] < poolBalance[i] && amounts[i] != 0) {\r\n                instant = true;\r\n            }\r\n        }\r\n\r\n        if(instant) {\r\n            rpToken.burn(msg.sender, burnAmt);\r\n            bool result;\r\n            for(uint8 i=0; i<N_COINS; i++) {\r\n                if(amounts[i] > 0) {\r\n                    result = tokens[i].transfer(msg.sender, amounts[i]);\r\n                    require(result);\r\n                    amountSupplied[msg.sender][i] -= amounts[i];\r\n                    selfBalance[i] -= amounts[i];\r\n                    \r\n                    uint x = amounts[i];\r\n                    for(uint8 j=0; j<supplyTime[msg.sender].length; j++) {\r\n                        if(supplyTime[msg.sender][j].withdrawn[i] != true && x > 0) {\r\n                            if(x >= supplyTime[msg.sender][j].remAmt[i]) {\r\n                                x = x - supplyTime[msg.sender][j].remAmt[i];\r\n                                supplyTime[msg.sender][j].remAmt[i] = 0;\r\n                                supplyTime[msg.sender][j].withdrawn[i] = true;\r\n                            }\r\n                            else {\r\n                                supplyTime[msg.sender][j].remAmt[i] -= x;\r\n                                x = 0;\r\n                            }\r\n                        }\r\n                    }\r\n\r\n                }\r\n            }\r\n\r\n            emit userRecieved(msg.sender, amounts);\r\n        } else {\r\n            _takeBackQ(amounts);\r\n\r\n            emit userAddedToQ(msg.sender, amounts);\r\n        }\r\n    }\r\n\r\n\r\n\r\n    \r\n    // Following two functions are called by rLoan Only\r\n    function _loanWithdraw(uint256[N_COINS] memory amounts, address _loanSeeker) public onlyAuthorized returns(bool) {\r\n        _withdraw(amounts);\r\n\r\n        for(uint8 i=0; i<N_COINS; i++) {\r\n            if(amounts[i] > 0) {\r\n                loanGiven[i] += amounts[i];\r\n                selfBalance[i] -= amounts[i];\r\n                tokens[i].transfer(_loanSeeker, amounts[i]);\r\n            }\r\n        }\r\n        return true;\r\n    }\r\n\r\n\r\n\r\n\r\n\r\n\r\n    //Function only called by multisig contract for transfering tokens\r\n    function _loanRepayment(uint256[N_COINS] memory amounts, address _loanSeeker) public onlyAuthorized returns(bool) {\r\n        for(uint8 i=0; i<N_COINS; i++) {\r\n            if(amounts[i] > 0) {\r\n                loanGiven[i] -= amounts[i];\r\n                selfBalance[i] += amounts[i];\r\n                tokens[i].transferFrom(_loanSeeker, address(this), amounts[i]);\r\n            }\r\n        }\r\n        return true;\r\n    }\r\n\r\n\r\n\r\n\r\n\r\n\r\n\r\n    // this function deposits without minting RPT\r\n    function depsoitInRoyale(uint256[N_COINS] calldata amounts) external {\r\n        for(uint8 i=0;i<N_COINS;i++){\r\n            if(amounts[i]!=0){\r\n             tokens[i].transferFrom(msg.sender,address(this),amounts[i]);\r\n             selfBalance[i]+=amounts[i];\r\n            }\r\n        }\r\n    }\r\n\r\n\r\n\r\n\r\n\r\n    /* CORE FUNCTIONS (also exposed to frontend but to be called by owner only) */\r\n\r\n\r\n\r\n   //function for deposit in pool for yield\r\n    function deposit() onlyOwner external {\r\n        uint256[N_COINS] memory amounts = _getBalances();\r\n        uint256 decimal;\r\n\r\n        rStrategyI[3] memory strat = controller.getStrategies();\r\n\r\n        for(uint8 i=0; i<N_COINS; i++) {\r\n            decimal = tokens[i].decimals();\r\n            if(amounts[i] > thresholdTokenAmount*10**decimal) {\r\n                amounts[i] += YieldPoolBalance[i];\r\n                amounts[i] = (amounts[i] * poolPart) / 100;\r\n                amounts[i] = amounts[i] - YieldPoolBalance[i];\r\n                tokens[i].transfer(address(strat[i]), amounts[i]);\r\n            }\r\n            else {\r\n                amounts[i] = 0;\r\n            }\r\n        }\r\n\r\n        uint8 counter = 0;\r\n        for(uint8 i=0; i<N_COINS; i++) {\r\n           if(amounts[i] != 0) {\r\n               counter++;\r\n               break;\r\n           }\r\n        }\r\n\r\n        if(counter > 0){\r\n            _deposit(amounts);\r\n        }\r\n    }\r\n\r\n\r\n\r\n\r\n    //Function available in ui for owner , withdrawing from Pool(curve or any other)\r\n    function withdraw() onlyOwner external {\r\n\r\n        uint8 counter = 0;\r\n        for(uint8 i=0; i<N_COINS; i++) {\r\n           if(totalWithdraw[i] != 0) {\r\n               counter++;\r\n               break;\r\n           }\r\n        }\r\n\r\n        require(counter > 0, \"withdraw queue empty\");\r\n\r\n        _withdraw(totalWithdraw);\r\n        _giveBack();\r\n    }\r\n\r\n\r\n    //function for rebalancing pool(ratio)\r\n      \r\n    function rebalance() onlyOwner external{\r\n        uint256[N_COINS] memory currentAmount = _getBalances();\r\n        uint256[N_COINS] memory amountToWithdraw;\r\n        uint256[N_COINS] memory amountToDeposit;\r\n        rStrategyI[3] memory strat = controller.getStrategies();\r\n\r\n        for(uint8 i=0;i<N_COINS;i++){\r\n           uint256 a= (selfBalance[i]*(100-poolPart))/100;\r\n           if(a>currentAmount[i]){\r\n              amountToWithdraw[i] = a-currentAmount[i];\r\n           }\r\n           else if(a<currentAmount[i]){\r\n               amountToDeposit[i]=currentAmount[i]-a;\r\n               tokens[i].transfer(address(strat[i]), amountToDeposit[i]);\r\n           }\r\n           else{\r\n               amountToWithdraw[i]=0;\r\n               amountToDeposit[i]=0;\r\n           }\r\n        }\r\n        bool check=false;\r\n        for(uint8 i=0;i<N_COINS;i++){\r\n            if(amountToDeposit[i]>0){\r\n                  check=true;\r\n                  break;\r\n            }\r\n        }\r\n        if(check){\r\n             _deposit(amountToDeposit);\r\n             check=false;\r\n        }\r\n        for(uint8 i=0;i<N_COINS;i++){\r\n            if(amountToWithdraw[i]>0){\r\n                  check=true;\r\n                  break;\r\n            }\r\n        }\r\n        if(check){\r\n            _withdraw(amountToWithdraw);\r\n             check=false;\r\n        }\r\n\r\n    }\r\n\r\n\r\n\r\n\r\n\r\n\r\n    /* ADMIN FUNCTIONS */\r\n\r\n    \r\n    function getCurrentPoolBalance() external view returns(uint256[3] memory) {\r\n        return selfBalance;\r\n    }\r\n\r\n\r\n    function getTotalLoanGiven() external view returns(uint256[3] memory) {\r\n        return loanGiven;\r\n    }\r\n\r\n    function setLoanContract(address _loanContract)external onlyOwner returns(bool){\r\n        loanContract=_loanContract;\r\n    }\r\n\r\n\r\n    function changePoolPart(uint128 _newPoolPart) external onlyOwner returns(bool) {\r\n        poolPart = _newPoolPart;\r\n        return true;\r\n    }\r\n\r\n    \r\n\r\n    function setThresholdTokenAmount(uint256 _newThreshold) external onlyOwner returns(bool) {\r\n        thresholdTokenAmount = _newThreshold;\r\n        return true;\r\n    }\r\n\r\n    function setInitialDeposit() onlyOwner external returns(bool) {\r\n        selfBalance = _getBalances();\r\n        return true;\r\n    }\r\n\r\n    function setController(rControllerI _controller) onlyOwner external returns(bool) {\r\n        controller = _controller;\r\n        return true;\r\n    }\r\n\r\n    function setLockPeriod(uint128 lockperiod) onlyOwner external returns(bool) {\r\n        lock_period = lockperiod;\r\n        return true;\r\n    }\r\n\r\n    function setWithdrawFees(uint128 _fees) onlyOwner external returns(bool) {\r\n        fees = _fees;\r\n        return true;\r\n    }\r\n\r\n}",
  "sourcePath": "C:/Users/MayankVats/Desktop/WORK/blockchain/Royale/rlp/contracts/RoyaleLP.sol",
  "compiler": {
    "name": "solc",
    "version": "0.6.12+commit.27d51765.Emscripten.clang"
  },
  "schemaVersion": "3.3.2",
  "updatedAt": "2020-12-22T07:22:06.407Z",
  "devdoc": {
    "kind": "dev",
    "methods": {},
    "version": 1
  },
  "userdoc": {
    "kind": "user",
    "methods": {},
    "version": 1
  }
}