{
  "contractName": "RoyaleLP",
  "abi": [
    {
      "inputs": [
        {
          "internalType": "address[3]",
          "name": "_tokens",
          "type": "address[3]"
        },
        {
          "internalType": "address",
          "name": "_rpToken",
          "type": "address"
        },
        {
          "internalType": "address",
          "name": "_multiSig",
          "type": "address"
        }
      ],
      "stateMutability": "nonpayable",
      "type": "constructor"
    },
    {
      "anonymous": false,
      "inputs": [
        {
          "indexed": false,
          "internalType": "address",
          "name": "user",
          "type": "address"
        },
        {
          "indexed": false,
          "internalType": "uint256[3]",
          "name": "amounts",
          "type": "uint256[3]"
        }
      ],
      "name": "userAddedToQ",
      "type": "event"
    },
    {
      "anonymous": false,
      "inputs": [
        {
          "indexed": false,
          "internalType": "address",
          "name": "user",
          "type": "address"
        },
        {
          "indexed": false,
          "internalType": "uint256[3]",
          "name": "amounts",
          "type": "uint256[3]"
        }
      ],
      "name": "userRecieved",
      "type": "event"
    },
    {
      "anonymous": false,
      "inputs": [
        {
          "indexed": false,
          "internalType": "address",
          "name": "user",
          "type": "address"
        },
        {
          "indexed": false,
          "internalType": "uint256[3]",
          "name": "amounts",
          "type": "uint256[3]"
        }
      ],
      "name": "userSupplied",
      "type": "event"
    },
    {
      "inputs": [],
      "name": "BASE_DECIMAL",
      "outputs": [
        {
          "internalType": "uint256",
          "name": "",
          "type": "uint256"
        }
      ],
      "stateMutability": "view",
      "type": "function"
    },
    {
      "inputs": [
        {
          "internalType": "uint256",
          "name": "",
          "type": "uint256"
        }
      ],
      "name": "YieldPoolBalance",
      "outputs": [
        {
          "internalType": "uint256",
          "name": "",
          "type": "uint256"
        }
      ],
      "stateMutability": "view",
      "type": "function"
    },
    {
      "inputs": [
        {
          "internalType": "address",
          "name": "",
          "type": "address"
        },
        {
          "internalType": "uint256",
          "name": "",
          "type": "uint256"
        }
      ],
      "name": "amountSupplied",
      "outputs": [
        {
          "internalType": "uint256",
          "name": "",
          "type": "uint256"
        }
      ],
      "stateMutability": "view",
      "type": "function"
    },
    {
      "inputs": [],
      "name": "fees",
      "outputs": [
        {
          "internalType": "uint128",
          "name": "",
          "type": "uint128"
        }
      ],
      "stateMutability": "view",
      "type": "function"
    },
    {
      "inputs": [
        {
          "internalType": "address",
          "name": "",
          "type": "address"
        }
      ],
      "name": "isInQ",
      "outputs": [
        {
          "internalType": "bool",
          "name": "",
          "type": "bool"
        }
      ],
      "stateMutability": "view",
      "type": "function"
    },
    {
      "inputs": [],
      "name": "loanContract",
      "outputs": [
        {
          "internalType": "address",
          "name": "",
          "type": "address"
        }
      ],
      "stateMutability": "view",
      "type": "function"
    },
    {
      "inputs": [
        {
          "internalType": "uint256",
          "name": "",
          "type": "uint256"
        }
      ],
      "name": "loanGiven",
      "outputs": [
        {
          "internalType": "uint256",
          "name": "",
          "type": "uint256"
        }
      ],
      "stateMutability": "view",
      "type": "function"
    },
    {
      "inputs": [],
      "name": "lock_period",
      "outputs": [
        {
          "internalType": "uint128",
          "name": "",
          "type": "uint128"
        }
      ],
      "stateMutability": "view",
      "type": "function"
    },
    {
      "inputs": [],
      "name": "owner",
      "outputs": [
        {
          "internalType": "address",
          "name": "",
          "type": "address"
        }
      ],
      "stateMutability": "view",
      "type": "function"
    },
    {
      "inputs": [],
      "name": "poolPart",
      "outputs": [
        {
          "internalType": "uint128",
          "name": "",
          "type": "uint128"
        }
      ],
      "stateMutability": "view",
      "type": "function"
    },
    {
      "inputs": [
        {
          "internalType": "uint256",
          "name": "",
          "type": "uint256"
        }
      ],
      "name": "profitFromYield",
      "outputs": [
        {
          "internalType": "uint256",
          "name": "",
          "type": "uint256"
        }
      ],
      "stateMutability": "view",
      "type": "function"
    },
    {
      "inputs": [
        {
          "internalType": "uint256",
          "name": "",
          "type": "uint256"
        }
      ],
      "name": "selfBalance",
      "outputs": [
        {
          "internalType": "uint256",
          "name": "",
          "type": "uint256"
        }
      ],
      "stateMutability": "view",
      "type": "function"
    },
    {
      "inputs": [],
      "name": "thresholdTokenAmount",
      "outputs": [
        {
          "internalType": "uint256",
          "name": "",
          "type": "uint256"
        }
      ],
      "stateMutability": "view",
      "type": "function"
    },
    {
      "inputs": [
        {
          "internalType": "uint256",
          "name": "",
          "type": "uint256"
        }
      ],
      "name": "totalWithdraw",
      "outputs": [
        {
          "internalType": "uint256",
          "name": "",
          "type": "uint256"
        }
      ],
      "stateMutability": "view",
      "type": "function"
    },
    {
      "inputs": [],
      "name": "getBalances",
      "outputs": [
        {
          "internalType": "uint256[3]",
          "name": "",
          "type": "uint256[3]"
        }
      ],
      "stateMutability": "view",
      "type": "function"
    },
    {
      "inputs": [
        {
          "internalType": "uint256[3]",
          "name": "amounts",
          "type": "uint256[3]"
        }
      ],
      "name": "calcRptAmount",
      "outputs": [
        {
          "internalType": "uint256",
          "name": "",
          "type": "uint256"
        }
      ],
      "stateMutability": "view",
      "type": "function"
    },
    {
      "inputs": [
        {
          "internalType": "address",
          "name": "addr",
          "type": "address"
        },
        {
          "internalType": "uint256",
          "name": "coin",
          "type": "uint256"
        }
      ],
      "name": "availableWithdraw",
      "outputs": [
        {
          "internalType": "uint256",
          "name": "",
          "type": "uint256"
        }
      ],
      "stateMutability": "view",
      "type": "function"
    },
    {
      "inputs": [
        {
          "internalType": "uint256[3]",
          "name": "amounts",
          "type": "uint256[3]"
        }
      ],
      "name": "supply",
      "outputs": [],
      "stateMutability": "nonpayable",
      "type": "function"
    },
    {
      "inputs": [
        {
          "internalType": "uint256[3]",
          "name": "amounts",
          "type": "uint256[3]"
        }
      ],
      "name": "requestWithdraw",
      "outputs": [],
      "stateMutability": "nonpayable",
      "type": "function"
    },
    {
      "inputs": [
        {
          "internalType": "uint256[3]",
          "name": "amounts",
          "type": "uint256[3]"
        },
        {
          "internalType": "address",
          "name": "_loanSeeker",
          "type": "address"
        }
      ],
      "name": "_loanWithdraw",
      "outputs": [
        {
          "internalType": "bool",
          "name": "",
          "type": "bool"
        }
      ],
      "stateMutability": "nonpayable",
      "type": "function"
    },
    {
      "inputs": [
        {
          "internalType": "uint256[3]",
          "name": "amounts",
          "type": "uint256[3]"
        },
        {
          "internalType": "address",
          "name": "_loanSeeker",
          "type": "address"
        }
      ],
      "name": "_loanRepayment",
      "outputs": [
        {
          "internalType": "bool",
          "name": "",
          "type": "bool"
        }
      ],
      "stateMutability": "nonpayable",
      "type": "function"
    },
    {
      "inputs": [
        {
          "internalType": "uint256[3]",
          "name": "amounts",
          "type": "uint256[3]"
        }
      ],
      "name": "depsoitInRoyale",
      "outputs": [],
      "stateMutability": "nonpayable",
      "type": "function"
    },
    {
      "inputs": [],
      "name": "deposit",
      "outputs": [],
      "stateMutability": "nonpayable",
      "type": "function"
    },
    {
      "inputs": [],
      "name": "withdraw",
      "outputs": [],
      "stateMutability": "nonpayable",
      "type": "function"
    },
    {
      "inputs": [],
      "name": "rebalance",
      "outputs": [],
      "stateMutability": "nonpayable",
      "type": "function"
    },
    {
      "inputs": [],
      "name": "getTotalPoolBalance",
      "outputs": [
        {
          "internalType": "uint256[3]",
          "name": "",
          "type": "uint256[3]"
        }
      ],
      "stateMutability": "view",
      "type": "function"
    },
    {
      "inputs": [],
      "name": "getTotalLoanGiven",
      "outputs": [
        {
          "internalType": "uint256[3]",
          "name": "",
          "type": "uint256[3]"
        }
      ],
      "stateMutability": "view",
      "type": "function"
    },
    {
      "inputs": [
        {
          "internalType": "address",
          "name": "_loanContract",
          "type": "address"
        }
      ],
      "name": "setLoanContract",
      "outputs": [
        {
          "internalType": "bool",
          "name": "",
          "type": "bool"
        }
      ],
      "stateMutability": "nonpayable",
      "type": "function"
    },
    {
      "inputs": [
        {
          "internalType": "uint128",
          "name": "_newPoolPart",
          "type": "uint128"
        }
      ],
      "name": "changePoolPart",
      "outputs": [
        {
          "internalType": "bool",
          "name": "",
          "type": "bool"
        }
      ],
      "stateMutability": "nonpayable",
      "type": "function"
    },
    {
      "inputs": [],
      "name": "getYieldProfit",
      "outputs": [],
      "stateMutability": "nonpayable",
      "type": "function"
    },
    {
      "inputs": [
        {
          "internalType": "uint256",
          "name": "_newThreshold",
          "type": "uint256"
        }
      ],
      "name": "setThresholdTokenAmount",
      "outputs": [
        {
          "internalType": "bool",
          "name": "",
          "type": "bool"
        }
      ],
      "stateMutability": "nonpayable",
      "type": "function"
    },
    {
      "inputs": [],
      "name": "setInitialDeposit",
      "outputs": [
        {
          "internalType": "bool",
          "name": "",
          "type": "bool"
        }
      ],
      "stateMutability": "nonpayable",
      "type": "function"
    },
    {
      "inputs": [
        {
          "internalType": "contract rControllerI",
          "name": "_controller",
          "type": "address"
        }
      ],
      "name": "setController",
      "outputs": [
        {
          "internalType": "bool",
          "name": "",
          "type": "bool"
        }
      ],
      "stateMutability": "nonpayable",
      "type": "function"
    },
    {
      "inputs": [
        {
          "internalType": "uint128",
          "name": "lockperiod",
          "type": "uint128"
        }
      ],
      "name": "setLockPeriod",
      "outputs": [
        {
          "internalType": "bool",
          "name": "",
          "type": "bool"
        }
      ],
      "stateMutability": "nonpayable",
      "type": "function"
    },
    {
      "inputs": [
        {
          "internalType": "uint128",
          "name": "_fees",
          "type": "uint128"
        }
      ],
      "name": "setWithdrawFees",
      "outputs": [
        {
          "internalType": "bool",
          "name": "",
          "type": "bool"
        }
      ],
      "stateMutability": "nonpayable",
      "type": "function"
    }
  ],
  "bytecode": "0x60806040526001805560006002556019600460006101000a8154816fffffffffffffffffffffffffffffffff02191690836fffffffffffffffffffffffffffffffff160217905550605f600460106101000a8154816fffffffffffffffffffffffffffffffff02191690836fffffffffffffffffffffffffffffffff1602179055506101f460125561012c601660006101000a8154816fffffffffffffffffffffffffffffffff02191690836fffffffffffffffffffffffffffffffff160217905550348015620000cf57600080fd5b5060405162005e0938038062005e098339818101604052810190620000f59190620002ab565b60005b60036fffffffffffffffffffffffffffffffff168160ff1610156200018a57838160ff16600381106200012757fe5b602002015160098260ff16600381106200013d57fe5b0160006101000a81548173ffffffffffffffffffffffffffffffffffffffff021916908373ffffffffffffffffffffffffffffffffffffffff1602179055508080600101915050620000f8565b5080600e60006101000a81548173ffffffffffffffffffffffffffffffffffffffff021916908373ffffffffffffffffffffffffffffffffffffffff16021790555081600c60006101000a81548173ffffffffffffffffffffffffffffffffffffffff021916908373ffffffffffffffffffffffffffffffffffffffff160217905550505050620003a0565b600081519050620002278162000386565b92915050565b600082601f8301126200023f57600080fd5b60036200025662000250826200032f565b62000301565b915081838560208402820111156200026d57600080fd5b60005b83811015620002a1578162000286888262000216565b84526020840193506020830192505060018101905062000270565b5050505092915050565b600080600060a08486031215620002c157600080fd5b6000620002d1868287016200022d565b9350506060620002e48682870162000216565b9250506080620002f78682870162000216565b9150509250925092565b6000604051905081810181811067ffffffffffffffff821117156200032557600080fd5b8060405250919050565b600067ffffffffffffffff8211156200034757600080fd5b602082029050919050565b60006200035f8262000366565b9050919050565b600073ffffffffffffffffffffffffffffffffffffffff82169050919050565b620003918162000352565b81146200039d57600080fd5b50565b615a5980620003b06000396000f3fe608060405234801561001057600080fd5b50600436106102105760003560e01c80638af8147811610125578063b8b10680116100ad578063d0e30db01161007c578063d0e30db014610653578063d8c76af51461065d578063db28bfd01461068d578063eacd7afc146106bd578063f83e9a20146106ed57610210565b8063b8b10680146105b7578063c23177b2146105e7578063c277b65714610617578063c89eb0361461063557610210565b806392eefe9b116100f457806392eefe9b146104d9578063960731b6146105095780639af1d35a14610539578063a6d8fcb214610557578063a70200bd1461058757610210565b80638af814781461044f5780638da5cb5b1461046d5780638e9b03261461048b578063905f692e146104a957610210565b80633ccfd60b116101a85780636b9f1ef6116101775780636b9f1ef6146103855780636d6ea257146103b55780637d7c2a1c146103e557806380001288146103ef57806381f433f01461041f57610210565b80633ccfd60b1461031157806347d4a6a81461031b57806352f6e23814610337578063698504241461035557610210565b8063253f284b116101e4578063253f284b146102895780632f1fefe3146102a757806331805a2b146102b157806331d38806146102e157610210565b8062113e08146102155780630d88122c14610233578063224a14181461024f578063233fc9a21461026b575b600080fd5b61021d61070b565b60405161022a919061564d565b60405180910390f35b61024d60048036038101906102489190615028565b610823565b005b61026960048036038101906102649190615028565b610921565b005b610273610a75565b604051610280919061564d565b60405180910390f35b610291610ac0565b60405161029e919061552e565b60405180910390f35b6102af610ae6565b005b6102cb60048036038101906102c6919061515a565b610ce6565b6040516102d891906157de565b60405180910390f35b6102fb60048036038101906102f69190614f9a565b610cfe565b6040516103089190615668565b60405180910390f35b610319610e32565b005b61033560048036038101906103309190615028565b611013565b005b61033f611a04565b60405161034c9190615668565b60405180910390f35b61036f600480360381019061036a919061515a565b611b12565b60405161037c91906157de565b60405180910390f35b61039f600480360381019061039a9190615131565b611b2a565b6040516103ac9190615668565b60405180910390f35b6103cf60048036038101906103ca919061515a565b611c5a565b6040516103dc91906157de565b60405180910390f35b6103ed611c72565b005b610409600480360381019061040491906150a3565b612274565b6040516104169190615668565b60405180910390f35b61043960048036038101906104349190615131565b612548565b6040516104469190615668565b60405180910390f35b610457612678565b60405161046491906157de565b60405180910390f35b610475612684565b604051610482919061552e565b60405180910390f35b6104936126aa565b6040516104a091906157c3565b60405180910390f35b6104c360048036038101906104be9190614f9a565b6126cc565b6040516104d09190615668565b60405180910390f35b6104f360048036038101906104ee9190615108565b6126ec565b6040516105009190615668565b60405180910390f35b610523600480360381019061051e9190615051565b612824565b60405161053091906157de565b60405180910390f35b610541612a3e565b60405161054e91906157c3565b60405180910390f35b610571600480360381019061056c9190614fc3565b612a60565b60405161057e91906157de565b60405180910390f35b6105a1600480360381019061059c9190615131565b612c66565b6040516105ae9190615668565b60405180910390f35b6105d160048036038101906105cc919061515a565b612d96565b6040516105de9190615668565b60405180910390f35b61060160048036038101906105fc9190614fc3565b612e94565b60405161060e91906157de565b60405180910390f35b61061f612eb9565b60405161062c919061564d565b60405180910390f35b61063d612f04565b60405161064a91906157de565b60405180910390f35b61065b612f0a565b005b6106776004803603810190610672919061515a565b61340b565b60405161068491906157de565b60405180910390f35b6106a760048036038101906106a2919061515a565b613423565b6040516106b491906157de565b60405180910390f35b6106d760048036038101906106d291906150a3565b61343b565b6040516106e49190615668565b60405180910390f35b6106f5613716565b60405161070291906157c3565b60405180910390f35b610713614bba565b61071b614bba565b60005b60036fffffffffffffffffffffffffffffffff168160ff16101561081b5760098160ff166003811061074c57fe5b0160009054906101000a900473ffffffffffffffffffffffffffffffffffffffff1673ffffffffffffffffffffffffffffffffffffffff166370a08231306040518263ffffffff1660e01b81526004016107a6919061552e565b60206040518083038186803b1580156107be57600080fd5b505afa1580156107d2573d6000803e3d6000fd5b505050506040513d601f19601f820116820180604052508101906107f69190615183565b828260ff166003811061080557fe5b602002018181525050808060010191505061071e565b508091505090565b6000610865826003806020026040519081016040528092919082600360200280828437600081840152601f19601f820116905080830192505050505050612824565b116108a5576040517f08c379a000000000000000000000000000000000000000000000000000000000815260040161089c90615683565b60405180910390fd5b6108e5816003806020026040519081016040528092919082600360200280828437600081840152601f19601f820116905080830192505050505050613738565b7fe7f2330a99451f199f91ed2ac09887e25894cb0e14021fe5d29bc959e7283d0e338260405161091692919061559b565b60405180910390a150565b60005b60036fffffffffffffffffffffffffffffffff168160ff161015610a71576000828260ff166003811061095357fe5b602002013514610a645760098160ff166003811061096d57fe5b0160009054906101000a900473ffffffffffffffffffffffffffffffffffffffff1673ffffffffffffffffffffffffffffffffffffffff166323b872dd3330858560ff16600381106109bb57fe5b60200201356040518463ffffffff1660e01b81526004016109de93929190615564565b602060405180830381600087803b1580156109f857600080fd5b505af1158015610a0c573d6000803e3d6000fd5b505050506040513d601f19601f82011682018060405250810190610a3091906150df565b50818160ff1660038110610a4057fe5b602002013560058260ff1660038110610a5557fe5b01600082825401925050819055505b8080600101915050610924565b5050565b610a7d614bba565b6005600380602002604051908101604052809291908260038015610ab6576020028201915b815481526020019060010190808311610aa2575b5050505050905090565b602260009054906101000a900473ffffffffffffffffffffffffffffffffffffffff1681565b33600e60009054906101000a900473ffffffffffffffffffffffffffffffffffffffff1673ffffffffffffffffffffffffffffffffffffffff1663e0e3671c826040518263ffffffff1660e01b8152600401610b42919061552e565b60206040518083038186803b158015610b5a57600080fd5b505afa158015610b6e573d6000803e3d6000fd5b505050506040513d601f19601f82011682018060405250810190610b9291906150df565b610bd1576040517f08c379a0000000000000000000000000000000000000000000000000000000008152600401610bc890615723565b60405180910390fd5b600d60009054906101000a900473ffffffffffffffffffffffffffffffffffffffff1673ffffffffffffffffffffffffffffffffffffffff1663a9a4cbcc6040518163ffffffff1660e01b8152600401606060405180830381600087803b158015610c3b57600080fd5b505af1158015610c4f573d6000803e3d6000fd5b505050506040513d601f19601f82011682018060405250810190610c73919061507a565b6013906003610c83929190614bdc565b5060005b60036fffffffffffffffffffffffffffffffff168160ff161015610ce25760138160ff1660038110610cb557fe5b015460058260ff1660038110610cc757fe5b01600082825401925050819055508080600101915050610c87565b5050565b600f8160038110610cf357fe5b016000915090505481565b600033600e60009054906101000a900473ffffffffffffffffffffffffffffffffffffffff1673ffffffffffffffffffffffffffffffffffffffff1663e0e3671c826040518263ffffffff1660e01b8152600401610d5c919061552e565b60206040518083038186803b158015610d7457600080fd5b505afa158015610d88573d6000803e3d6000fd5b505050506040513d601f19601f82011682018060405250810190610dac91906150df565b610deb576040517f08c379a0000000000000000000000000000000000000000000000000000000008152600401610de290615723565b60405180910390fd5b82602260006101000a81548173ffffffffffffffffffffffffffffffffffffffff021916908373ffffffffffffffffffffffffffffffffffffffff16021790555050919050565b33600e60009054906101000a900473ffffffffffffffffffffffffffffffffffffffff1673ffffffffffffffffffffffffffffffffffffffff1663e0e3671c826040518263ffffffff1660e01b8152600401610e8e919061552e565b60206040518083038186803b158015610ea657600080fd5b505afa158015610eba573d6000803e3d6000fd5b505050506040513d601f19601f82011682018060405250810190610ede91906150df565b610f1d576040517f08c379a0000000000000000000000000000000000000000000000000000000008152600401610f1490615723565b60405180910390fd5b6000805b60036fffffffffffffffffffffffffffffffff168160ff161015610f72576000601c8260ff1660038110610f5157fe5b015414610f65578180600101925050610f72565b8080600101915050610f21565b5060008160ff1611610fb9576040517f08c379a0000000000000000000000000000000000000000000000000000000008152600401610fb0906156a3565b60405180910390fd5b610fff601c600380602002604051908101604052809291908260038015610ff5576020028201915b815481526020019060010190808311610fe1575b5050505050613ad2565b611007613bc3565b61100f613c15565b5050565b6000611055826003806020026040519081016040528092919082600360200280828437600081840152601f19601f820116905080830192505050505050612824565b11611095576040517f08c379a000000000000000000000000000000000000000000000000000000000815260040161108c90615683565b60405180910390fd5b60006110d7826003806020026040519081016040528092919082600360200280828437600081840152601f19601f820116905080830192505050505050612824565b905080600c60009054906101000a900473ffffffffffffffffffffffffffffffffffffffff1673ffffffffffffffffffffffffffffffffffffffff166370a08231336040518263ffffffff1660e01b81526004016111359190615549565b60206040518083038186803b15801561114d57600080fd5b505afa158015611161573d6000803e3d6000fd5b505050506040513d601f19601f820116820180604052508101906111859190615183565b10156111c6576040517f08c379a00000000000000000000000000000000000000000000000000000000081526004016111bd906157a3565b60405180910390fd5b6111ce614bba565b6111d661070b565b9050600060019050600080600090505b60036fffffffffffffffffffffffffffffffff168160ff16101561125a576000868260ff166003811061121557fe5b6020020135111561124d57858160ff166003811061122f57fe5b6020020135611241338360ff16612a60565b101561124c57600092505b5b80806001019150506111e6565b508161129b576040517f08c379a0000000000000000000000000000000000000000000000000000000008152600401611292906156e3565b60405180910390fd5b60005b60036fffffffffffffffffffffffffffffffff168160ff16101561131c57838160ff16600381106112cb57fe5b6020020151868260ff16600381106112df57fe5b602002013510801561130557506000868260ff16600381106112fd57fe5b602002013514155b1561130f57600191505b808060010191505061129e565b50801561198357600c60009054906101000a900473ffffffffffffffffffffffffffffffffffffffff1673ffffffffffffffffffffffffffffffffffffffff16639dc29fac33866040518363ffffffff1660e01b81526004016113809291906155c4565b600060405180830381600087803b15801561139a57600080fd5b505af11580156113ae573d6000803e3d6000fd5b50505050600080600090505b60036fffffffffffffffffffffffffffffffff168160ff161015611943576000878260ff16600381106113e957fe5b60200201351115611936576000612710600460009054906101000a90046fffffffffffffffffffffffffffffffff166fffffffffffffffffffffffffffffffff16898460ff166003811061143957fe5b6020020135028161144657fe5b04888360ff166003811061145657fe5b602002013503905060098260ff166003811061146e57fe5b0160009054906101000a900473ffffffffffffffffffffffffffffffffffffffff1673ffffffffffffffffffffffffffffffffffffffff1663a9059cbb33836040518363ffffffff1660e01b81526004016114ca9291906155c4565b602060405180830381600087803b1580156114e457600080fd5b505af11580156114f8573d6000803e3d6000fd5b505050506040513d601f19601f8201168201806040525081019061151c91906150df565b92508261152857600080fd5b878260ff166003811061153757fe5b6020020135601760003373ffffffffffffffffffffffffffffffffffffffff1673ffffffffffffffffffffffffffffffffffffffff1681526020019081526020016000208360ff166003811061158957fe5b01600082825403925050819055508060058360ff16600381106115a857fe5b01600082825403925050819055506000888360ff16600381106115c757fe5b6020020135905060005b601860003373ffffffffffffffffffffffffffffffffffffffff1673ffffffffffffffffffffffffffffffffffffffff168152602001908152602001600020805490508160ff1610156119325760011515601860003373ffffffffffffffffffffffffffffffffffffffff1673ffffffffffffffffffffffffffffffffffffffff1681526020019081526020016000208260ff168154811061166f57fe5b90600052602060002090600802016007018560ff166003811061168e57fe5b602091828204019190069054906101000a900460ff161515141580156116b45750600082115b1561192557601860003373ffffffffffffffffffffffffffffffffffffffff1673ffffffffffffffffffffffffffffffffffffffff1681526020019081526020016000208160ff168154811061170657fe5b90600052602060002090600802016003018460ff166003811061172557fe5b015482106118a457601860003373ffffffffffffffffffffffffffffffffffffffff1673ffffffffffffffffffffffffffffffffffffffff1681526020019081526020016000208160ff168154811061177a57fe5b90600052602060002090600802016003018460ff166003811061179957fe5b0154820391506000601860003373ffffffffffffffffffffffffffffffffffffffff1673ffffffffffffffffffffffffffffffffffffffff1681526020019081526020016000208260ff16815481106117ee57fe5b90600052602060002090600802016003018560ff166003811061180d57fe5b01819055506001601860003373ffffffffffffffffffffffffffffffffffffffff1673ffffffffffffffffffffffffffffffffffffffff1681526020019081526020016000208260ff168154811061186157fe5b90600052602060002090600802016007018560ff166003811061188057fe5b602091828204019190066101000a81548160ff021916908315150217905550611924565b81601860003373ffffffffffffffffffffffffffffffffffffffff1673ffffffffffffffffffffffffffffffffffffffff1681526020019081526020016000208260ff16815481106118f257fe5b90600052602060002090600802016003018560ff166003811061191157fe5b0160008282540392505081905550600091505b5b80806001019150506115d1565b5050505b80806001019150506113ba565b507fe9c01f7dea3ef08b44263b3cf5963eb42309e5fb5bec9305dbe12b82f37b519c338760405161197592919061559b565b60405180910390a1506119fd565b6119c3856003806020026040519081016040528092919082600360200280828437600081840152601f19601f820116905080830192505050505050613c26565b7fe2d5e24e56e4f05473adb8bb616473de3894beab8011d32382a638d1d2617c9333866040516119f492919061559b565b60405180910390a15b5050505050565b600033600e60009054906101000a900473ffffffffffffffffffffffffffffffffffffffff1673ffffffffffffffffffffffffffffffffffffffff1663e0e3671c826040518263ffffffff1660e01b8152600401611a62919061552e565b60206040518083038186803b158015611a7a57600080fd5b505afa158015611a8e573d6000803e3d6000fd5b505050506040513d601f19601f82011682018060405250810190611ab291906150df565b611af1576040517f08c379a0000000000000000000000000000000000000000000000000000000008152600401611ae890615723565b60405180910390fd5b611af961070b565b6005906003611b09929190614bdc565b50600191505090565b60058160038110611b1f57fe5b016000915090505481565b600033600e60009054906101000a900473ffffffffffffffffffffffffffffffffffffffff1673ffffffffffffffffffffffffffffffffffffffff1663e0e3671c826040518263ffffffff1660e01b8152600401611b88919061552e565b60206040518083038186803b158015611ba057600080fd5b505afa158015611bb4573d6000803e3d6000fd5b505050506040513d601f19601f82011682018060405250810190611bd891906150df565b611c17576040517f08c379a0000000000000000000000000000000000000000000000000000000008152600401611c0e90615723565b60405180910390fd5b82600460006101000a8154816fffffffffffffffffffffffffffffffff02191690836fffffffffffffffffffffffffffffffff1602179055506001915050919050565b601f8160038110611c6757fe5b016000915090505481565b33600e60009054906101000a900473ffffffffffffffffffffffffffffffffffffffff1673ffffffffffffffffffffffffffffffffffffffff1663e0e3671c826040518263ffffffff1660e01b8152600401611cce919061552e565b60206040518083038186803b158015611ce657600080fd5b505afa158015611cfa573d6000803e3d6000fd5b505050506040513d601f19601f82011682018060405250810190611d1e91906150df565b611d5d576040517f08c379a0000000000000000000000000000000000000000000000000000000008152600401611d5490615723565b60405180910390fd5b611d65614bba565b611d6d61070b565b9050611d77614bba565b611d7f614bba565b611d87614c1c565b600d60009054906101000a900473ffffffffffffffffffffffffffffffffffffffff1673ffffffffffffffffffffffffffffffffffffffff1663b49a60bb6040518163ffffffff1660e01b8152600401606060405180830381600087803b158015611df157600080fd5b505af1158015611e05573d6000803e3d6000fd5b505050506040513d601f19601f82011682018060405250810190611e299190614fff565b905060005b60036fffffffffffffffffffffffffffffffff168160ff16101561219a57600060098260ff1660038110611e5e57fe5b0160009054906101000a900473ffffffffffffffffffffffffffffffffffffffff1673ffffffffffffffffffffffffffffffffffffffff1663313ce5676040518163ffffffff1660e01b815260040160206040518083038186803b158015611ec557600080fd5b505afa158015611ed9573d6000803e3d6000fd5b505050506040513d601f19601f82011682018060405250810190611efd91906151ac565b60ff16905060006064600460109054906101000a90046fffffffffffffffffffffffffffffffff166064036fffffffffffffffffffffffffffffffff1660058560ff1660038110611f4a57fe5b01540281611f5457fe5b049050868360ff1660038110611f6657fe5b6020020151811115611fe157868360ff1660038110611f8157fe5b60200201518103868460ff1660038110611f9757fe5b60200201818152505081600a0a603202868460ff1660038110611fb657fe5b60200201511015611fdc576000868460ff1660038110611fd257fe5b6020020181815250505b61218b565b868360ff1660038110611ff057fe5b60200201518110156121555780878460ff166003811061200c57fe5b602002015103858460ff166003811061202157fe5b60200201818152505081600a0a603202858460ff166003811061204057fe5b6020020151101561206a576000858460ff166003811061205c57fe5b602002018181525050612150565b60098360ff166003811061207a57fe5b0160009054906101000a900473ffffffffffffffffffffffffffffffffffffffff1673ffffffffffffffffffffffffffffffffffffffff1663a9059cbb858560ff16600381106120c657fe5b6020020151878660ff16600381106120da57fe5b60200201516040518363ffffffff1660e01b81526004016120fc929190615624565b602060405180830381600087803b15801561211657600080fd5b505af115801561212a573d6000803e3d6000fd5b505050506040513d601f19601f8201168201806040525081019061214e91906150df565b505b61218a565b6000868460ff166003811061216657fe5b6020020181815250506000858460ff166003811061218057fe5b6020020181815250505b5b50508080600101915050611e2e565b506000805b60036fffffffffffffffffffffffffffffffff168160ff1610156121ef576000848260ff16600381106121ce57fe5b602002015111156121e257600191506121ef565b808060010191505061219f565b508015612204576121ff83613df5565b600090505b60005b60036fffffffffffffffffffffffffffffffff168160ff161015612257576000858260ff166003811061223657fe5b6020020151111561224a5760019150612257565b8080600101915050612207565b50801561226c5761226784613ad2565b600090505b505050505050565b600033600e60009054906101000a900473ffffffffffffffffffffffffffffffffffffffff1673ffffffffffffffffffffffffffffffffffffffff1663e0e3671c826040518263ffffffff1660e01b81526004016122d2919061552e565b60206040518083038186803b1580156122ea57600080fd5b505afa1580156122fe573d6000803e3d6000fd5b505050506040513d601f19601f8201168201806040525081019061232291906150df565b8061237a5750602260009054906101000a900473ffffffffffffffffffffffffffffffffffffffff1673ffffffffffffffffffffffffffffffffffffffff168173ffffffffffffffffffffffffffffffffffffffff16145b6123b9576040517f08c379a00000000000000000000000000000000000000000000000000000000081526004016123b090615703565b60405180910390fd5b60005b60036fffffffffffffffffffffffffffffffff168160ff16101561253c576000858260ff16600381106123eb57fe5b6020020151111561252f57848160ff166003811061240557fe5b6020020151601f8260ff166003811061241a57fe5b0160008282540392505081905550848160ff166003811061243757fe5b602002015160058260ff166003811061244c57fe5b016000828254019250508190555060098160ff166003811061246a57fe5b0160009054906101000a900473ffffffffffffffffffffffffffffffffffffffff1673ffffffffffffffffffffffffffffffffffffffff166323b872dd8530888560ff16600381106124b857fe5b60200201516040518463ffffffff1660e01b81526004016124db939291906155ed565b602060405180830381600087803b1580156124f557600080fd5b505af1158015612509573d6000803e3d6000fd5b505050506040513d601f19601f8201168201806040525081019061252d91906150df565b505b80806001019150506123bc565b50600191505092915050565b600033600e60009054906101000a900473ffffffffffffffffffffffffffffffffffffffff1673ffffffffffffffffffffffffffffffffffffffff1663e0e3671c826040518263ffffffff1660e01b81526004016125a6919061552e565b60206040518083038186803b1580156125be57600080fd5b505afa1580156125d2573d6000803e3d6000fd5b505050506040513d601f19601f820116820180604052508101906125f691906150df565b612635576040517f08c379a000000000000000000000000000000000000000000000000000000000815260040161262c90615723565b60405180910390fd5b82601660006101000a8154816fffffffffffffffffffffffffffffffff02191690836fffffffffffffffffffffffffffffffff1602179055506001915050919050565b670de0b6b3a764000081565b600860009054906101000a900473ffffffffffffffffffffffffffffffffffffffff1681565b600460109054906101000a90046fffffffffffffffffffffffffffffffff1681565b601a6020528060005260406000206000915054906101000a900460ff1681565b600033600e60009054906101000a900473ffffffffffffffffffffffffffffffffffffffff1673ffffffffffffffffffffffffffffffffffffffff1663e0e3671c826040518263ffffffff1660e01b815260040161274a919061552e565b60206040518083038186803b15801561276257600080fd5b505afa158015612776573d6000803e3d6000fd5b505050506040513d601f19601f8201168201806040525081019061279a91906150df565b6127d9576040517f08c379a00000000000000000000000000000000000000000000000000000000081526004016127d090615723565b60405180910390fd5b82600d60006101000a81548173ffffffffffffffffffffffffffffffffffffffff021916908373ffffffffffffffffffffffffffffffffffffffff1602179055506001915050919050565b6000806000806000806128de600c60009054906101000a900473ffffffffffffffffffffffffffffffffffffffff1673ffffffffffffffffffffffffffffffffffffffff166318160ddd6040518163ffffffff1660e01b815260040160206040518083038186803b15801561289857600080fd5b505afa1580156128ac573d6000803e3d6000fd5b505050506040513d601f19601f820116820180604052508101906128d09190615183565b670de0b6b3a7640000613ee6565b905060005b60036fffffffffffffffffffffffffffffffff168160ff161015612a1b5760098160ff166003811061291157fe5b0160009054906101000a900473ffffffffffffffffffffffffffffffffffffffff1673ffffffffffffffffffffffffffffffffffffffff1663313ce5676040518163ffffffff1660e01b815260040160206040518083038186803b15801561297857600080fd5b505afa15801561298c573d6000803e3d6000fd5b505050506040513d601f19601f820116820180604052508101906129b091906151ac565b60ff1693506129e6601f8260ff16600381106129c857fe5b015460058360ff16600381106129da57fe5b01540185600a0a613ee6565b85019450612a0a888260ff16600381106129fc57fe5b602002015185600a0a613ee6565b8301925080806001019150506128e3565b50612a2f612a298386613ee6565b82614006565b94508495505050505050919050565b600460009054906101000a90046fffffffffffffffffffffffffffffffff1681565b6000806000905060005b601860008673ffffffffffffffffffffffffffffffffffffffff1673ffffffffffffffffffffffffffffffffffffffff168152602001908152602001600020805490508160ff161015612c5b57601660009054906101000a90046fffffffffffffffffffffffffffffffff166fffffffffffffffffffffffffffffffff16601860008773ffffffffffffffffffffffffffffffffffffffff1673ffffffffffffffffffffffffffffffffffffffff1681526020019081526020016000208260ff1681548110612b3557fe5b9060005260206000209060080201600601544203118015612bd9575060011515601860008773ffffffffffffffffffffffffffffffffffffffff1673ffffffffffffffffffffffffffffffffffffffff1681526020019081526020016000208260ff1681548110612ba257fe5b90600052602060002090600802016007018560038110612bbe57fe5b602091828204019190069054906101000a900460ff16151514155b15612c4e57601860008673ffffffffffffffffffffffffffffffffffffffff1673ffffffffffffffffffffffffffffffffffffffff1681526020019081526020016000208160ff1681548110612c2b57fe5b90600052602060002090600802016003018460038110612c4757fe5b0154820191505b8080600101915050612a6a565b508091505092915050565b600033600e60009054906101000a900473ffffffffffffffffffffffffffffffffffffffff1673ffffffffffffffffffffffffffffffffffffffff1663e0e3671c826040518263ffffffff1660e01b8152600401612cc4919061552e565b60206040518083038186803b158015612cdc57600080fd5b505afa158015612cf0573d6000803e3d6000fd5b505050506040513d601f19601f82011682018060405250810190612d1491906150df565b612d53576040517f08c379a0000000000000000000000000000000000000000000000000000000008152600401612d4a90615723565b60405180910390fd5b82600460106101000a8154816fffffffffffffffffffffffffffffffff02191690836fffffffffffffffffffffffffffffffff1602179055506001915050919050565b600033600e60009054906101000a900473ffffffffffffffffffffffffffffffffffffffff1673ffffffffffffffffffffffffffffffffffffffff1663e0e3671c826040518263ffffffff1660e01b8152600401612df4919061552e565b60206040518083038186803b158015612e0c57600080fd5b505afa158015612e20573d6000803e3d6000fd5b505050506040513d601f19601f82011682018060405250810190612e4491906150df565b612e83576040517f08c379a0000000000000000000000000000000000000000000000000000000008152600401612e7a90615723565b60405180910390fd5b826012819055506001915050919050565b60176020528160005260406000208160038110612ead57fe5b01600091509150505481565b612ec1614bba565b601f600380602002604051908101604052809291908260038015612efa576020028201915b815481526020019060010190808311612ee6575b5050505050905090565b60125481565b33600e60009054906101000a900473ffffffffffffffffffffffffffffffffffffffff1673ffffffffffffffffffffffffffffffffffffffff1663e0e3671c826040518263ffffffff1660e01b8152600401612f66919061552e565b60206040518083038186803b158015612f7e57600080fd5b505afa158015612f92573d6000803e3d6000fd5b505050506040513d601f19601f82011682018060405250810190612fb691906150df565b612ff5576040517f08c379a0000000000000000000000000000000000000000000000000000000008152600401612fec90615723565b60405180910390fd5b612ffd614bba565b61300561070b565b90506000613011614c1c565b600d60009054906101000a900473ffffffffffffffffffffffffffffffffffffffff1673ffffffffffffffffffffffffffffffffffffffff1663b49a60bb6040518163ffffffff1660e01b8152600401606060405180830381600087803b15801561307b57600080fd5b505af115801561308f573d6000803e3d6000fd5b505050506040513d601f19601f820116820180604052508101906130b39190614fff565b905060005b60036fffffffffffffffffffffffffffffffff168160ff1610156133955760098160ff16600381106130e657fe5b0160009054906101000a900473ffffffffffffffffffffffffffffffffffffffff1673ffffffffffffffffffffffffffffffffffffffff1663313ce5676040518163ffffffff1660e01b815260040160206040518083038186803b15801561314d57600080fd5b505afa158015613161573d6000803e3d6000fd5b505050506040513d601f19601f8201168201806040525081019061318591906151ac565b60ff16925082600a0a60125402848260ff16600381106131a157fe5b6020020151111561336d57600f8160ff16600381106131bc57fe5b0154848260ff16600381106131cd57fe5b6020020181815101915081815250506064600460109054906101000a90046fffffffffffffffffffffffffffffffff166fffffffffffffffffffffffffffffffff16858360ff166003811061321e57fe5b6020020151028161322b57fe5b04848260ff166003811061323b57fe5b602002018181525050600f8160ff166003811061325457fe5b0154848260ff166003811061326557fe5b602002015103848260ff166003811061327a57fe5b60200201818152505060098160ff166003811061329357fe5b0160009054906101000a900473ffffffffffffffffffffffffffffffffffffffff1673ffffffffffffffffffffffffffffffffffffffff1663a9059cbb838360ff16600381106132df57fe5b6020020151868460ff16600381106132f357fe5b60200201516040518363ffffffff1660e01b8152600401613315929190615624565b602060405180830381600087803b15801561332f57600080fd5b505af1158015613343573d6000803e3d6000fd5b505050506040513d601f19601f8201168201806040525081019061336791906150df565b50613388565b6000848260ff166003811061337e57fe5b6020020181815250505b80806001019150506130b8565b506000805b60036fffffffffffffffffffffffffffffffff168160ff1610156133ed576000858260ff16600381106133c957fe5b6020020151146133e05781806001019250506133ed565b808060010191505061339a565b5060008160ff1611156134045761340384613df5565b5b5050505050565b6013816003811061341857fe5b016000915090505481565b601c816003811061343057fe5b016000915090505481565b600033600e60009054906101000a900473ffffffffffffffffffffffffffffffffffffffff1673ffffffffffffffffffffffffffffffffffffffff1663e0e3671c826040518263ffffffff1660e01b8152600401613499919061552e565b60206040518083038186803b1580156134b157600080fd5b505afa1580156134c5573d6000803e3d6000fd5b505050506040513d601f19601f820116820180604052508101906134e991906150df565b806135415750602260009054906101000a900473ffffffffffffffffffffffffffffffffffffffff1673ffffffffffffffffffffffffffffffffffffffff168173ffffffffffffffffffffffffffffffffffffffff16145b613580576040517f08c379a000000000000000000000000000000000000000000000000000000000815260040161357790615703565b60405180910390fd5b61358984613ad2565b60005b60036fffffffffffffffffffffffffffffffff168160ff16101561370a576000858260ff16600381106135bb57fe5b602002015111156136fd57848160ff16600381106135d557fe5b6020020151601f8260ff16600381106135ea57fe5b0160008282540192505081905550848160ff166003811061360757fe5b602002015160058260ff166003811061361c57fe5b016000828254039250508190555060098160ff166003811061363a57fe5b0160009054906101000a900473ffffffffffffffffffffffffffffffffffffffff1673ffffffffffffffffffffffffffffffffffffffff1663a9059cbb85878460ff166003811061368757fe5b60200201516040518363ffffffff1660e01b81526004016136a9929190615624565b602060405180830381600087803b1580156136c357600080fd5b505af11580156136d7573d6000803e3d6000fd5b505050506040513d601f19601f820116820180604052508101906136fb91906150df565b505b808060010191505061358c565b50600191505092915050565b601660009054906101000a90046fffffffffffffffffffffffffffffffff1681565b600061374382612824565b9050600080600090505b60036fffffffffffffffffffffffffffffffff168160ff16101561394b576000848260ff166003811061377c57fe5b6020020151111561393e5760098160ff166003811061379757fe5b0160009054906101000a900473ffffffffffffffffffffffffffffffffffffffff1673ffffffffffffffffffffffffffffffffffffffff166323b872dd3330878560ff16600381106137e557fe5b60200201516040518463ffffffff1660e01b815260040161380893929190615564565b602060405180830381600087803b15801561382257600080fd5b505af1158015613836573d6000803e3d6000fd5b505050506040513d601f19601f8201168201806040525081019061385a91906150df565b91508161389c576040517f08c379a000000000000000000000000000000000000000000000000000000000815260040161389390615763565b60405180910390fd5b838160ff16600381106138ab57fe5b602002015160058260ff16600381106138c057fe5b0160008282540192505081905550838160ff16600381106138dd57fe5b6020020151601760003373ffffffffffffffffffffffffffffffffffffffff1673ffffffffffffffffffffffffffffffffffffffff1681526020019081526020016000208260ff166003811061392f57fe5b01600082825401925050819055505b808060010191505061374d565b50600c60009054906101000a900473ffffffffffffffffffffffffffffffffffffffff1673ffffffffffffffffffffffffffffffffffffffff166340c10f1933846040518363ffffffff1660e01b81526004016139a99291906155c4565b600060405180830381600087803b1580156139c357600080fd5b505af11580156139d7573d6000803e3d6000fd5b505050506139e3614c3e565b6139eb614c60565b6040518060800160405280868152602001868152602001428152602001838152509050601860003373ffffffffffffffffffffffffffffffffffffffff1673ffffffffffffffffffffffffffffffffffffffff168152602001908152602001600020819080600181540180825580915050600190039060005260206000209060080201600090919091909150600082015181600001906003613a8e929190614bdc565b50602082015181600301906003613aa6929190614bdc565b5060408201518160060155606082015181600701906003613ac8929190614c9a565b5050505050505050565b600d60009054906101000a900473ffffffffffffffffffffffffffffffffffffffff1673ffffffffffffffffffffffffffffffffffffffff1663b1b8f1be826040518263ffffffff1660e01b8152600401613b2d919061564d565b600060405180830381600087803b158015613b4757600080fd5b505af1158015613b5b573d6000803e3d6000fd5b5050505060005b60036fffffffffffffffffffffffffffffffff168160ff161015613bbf57818160ff1660038110613b8f57fe5b6020020151600f8260ff1660038110613ba457fe5b01600082825403925050819055508080600101915050613b62565b5050565b6000601b60009054906101000a900463ffffffff16905060005b8163ffffffff168160ff161015613c11576000613bf86140e2565b9050613c03816141d9565b508080600101915050613bdd565b5050565b600180819055506000600281905550565b60005b60036fffffffffffffffffffffffffffffffff16811015613d00576000828260038110613c5257fe5b60200201511115613cf357818160038110613c6957fe5b6020020151601960003373ffffffffffffffffffffffffffffffffffffffff1673ffffffffffffffffffffffffffffffffffffffff1681526020019081526020016000208260038110613cb857fe5b0160008282540192505081905550818160038110613cd257fe5b6020020151601c8260038110613ce457fe5b01600082825401925050819055505b8080600101915050613c29565b5060011515601a60003373ffffffffffffffffffffffffffffffffffffffff1673ffffffffffffffffffffffffffffffffffffffff16815260200190815260200160002060009054906101000a900460ff16151514613df2576001601b60008282829054906101000a900463ffffffff160192506101000a81548163ffffffff021916908363ffffffff1602179055506001601a60003373ffffffffffffffffffffffffffffffffffffffff1673ffffffffffffffffffffffffffffffffffffffff16815260200190815260200160002060006101000a81548160ff021916908315150217905550613df133614b53565b5b50565b600d60009054906101000a900473ffffffffffffffffffffffffffffffffffffffff1673ffffffffffffffffffffffffffffffffffffffff1663d4e20b01826040518263ffffffff1660e01b8152600401613e50919061564d565b600060405180830381600087803b158015613e6a57600080fd5b505af1158015613e7e573d6000803e3d6000fd5b5050505060005b60036fffffffffffffffffffffffffffffffff168160ff161015613ee257818160ff1660038110613eb257fe5b6020020151600f8260ff1660038110613ec757fe5b01600082825401925050819055508080600101915050613e85565b5050565b600080821415613f2b576040517f08c379a0000000000000000000000000000000000000000000000000000000008152600401613f2290615783565b60405180910390fd5b6000670de0b6b3a7640000840290506000841480613f595750670de0b6b3a7640000848281613f5657fe5b04145b613f98576040517f08c379a0000000000000000000000000000000000000000000000000000000008152600401613f8f906156c3565b60405180910390fd5b600060028481613fa457fe5b048201905081811015613fec576040517f08c379a0000000000000000000000000000000000000000000000000000000008152600401613fe3906156c3565b60405180910390fd5b6000848281613ff757fe5b04905080935050505092915050565b6000808284029050600084148061402557508284828161402257fe5b04145b614064576040517f08c379a000000000000000000000000000000000000000000000000000000000815260040161405b90615743565b60405180910390fd5b60006002670de0b6b3a76400008161407857fe5b0482019050818110156140c0576040517f08c379a00000000000000000000000000000000000000000000000000000000081526004016140b790615743565b60405180910390fd5b6000670de0b6b3a764000082816140d357fe5b04905080935050505092915050565b600060015460025410156140f557600080fd5b600080600154815260200190815260200160002060009054906101000a900473ffffffffffffffffffffffffffffffffffffffff16600360006101000a81548173ffffffffffffffffffffffffffffffffffffffff021916908373ffffffffffffffffffffffffffffffffffffffff160217905550600080600154815260200190815260200160002060006101000a81549073ffffffffffffffffffffffffffffffffffffffff021916905560018060008282540192505081905550600360009054906101000a900473ffffffffffffffffffffffffffffffffffffffff16905090565b60008061425f601960008573ffffffffffffffffffffffffffffffffffffffff1673ffffffffffffffffffffffffffffffffffffffff168152602001908152602001600020600380602002604051908101604052809291908260038015614255576020028201915b815481526020019060010190808311614241575b5050505050612824565b9050600c60009054906101000a900473ffffffffffffffffffffffffffffffffffffffff1673ffffffffffffffffffffffffffffffffffffffff16639dc29fac84836040518363ffffffff1660e01b81526004016142be929190615624565b600060405180830381600087803b1580156142d857600080fd5b505af11580156142ec573d6000803e3d6000fd5b5050505060005b60036fffffffffffffffffffffffffffffffff168160ff161015614abe576000601960008673ffffffffffffffffffffffffffffffffffffffff1673ffffffffffffffffffffffffffffffffffffffff1681526020019081526020016000208260ff166003811061436057fe5b01541180156143bd57506000601760008673ffffffffffffffffffffffffffffffffffffffff1673ffffffffffffffffffffffffffffffffffffffff1681526020019081526020016000208260ff16600381106143b957fe5b0154115b15614ab1576000612710600460009054906101000a90046fffffffffffffffffffffffffffffffff166fffffffffffffffffffffffffffffffff16601960008873ffffffffffffffffffffffffffffffffffffffff1673ffffffffffffffffffffffffffffffffffffffff1681526020019081526020016000208460ff166003811061444557fe5b0154028161444f57fe5b04601960008773ffffffffffffffffffffffffffffffffffffffff1673ffffffffffffffffffffffffffffffffffffffff1681526020019081526020016000208360ff166003811061449d57fe5b015403905060098260ff16600381106144b257fe5b0160009054906101000a900473ffffffffffffffffffffffffffffffffffffffff1673ffffffffffffffffffffffffffffffffffffffff1663a9059cbb86836040518363ffffffff1660e01b815260040161450e929190615624565b602060405180830381600087803b15801561452857600080fd5b505af115801561453c573d6000803e3d6000fd5b505050506040513d601f19601f8201168201806040525081019061456091906150df565b93508361456c57600080fd5b601960008673ffffffffffffffffffffffffffffffffffffffff1673ffffffffffffffffffffffffffffffffffffffff1681526020019081526020016000208260ff16600381106145b957fe5b0154601760008773ffffffffffffffffffffffffffffffffffffffff1673ffffffffffffffffffffffffffffffffffffffff1681526020019081526020016000208360ff166003811061460857fe5b0160008282540392505081905550601960008673ffffffffffffffffffffffffffffffffffffffff1673ffffffffffffffffffffffffffffffffffffffff1681526020019081526020016000208260ff166003811061466357fe5b0154601c8360ff166003811061467557fe5b01600082825403925050819055508060058360ff166003811061469457fe5b01600082825403925050819055506000601960008773ffffffffffffffffffffffffffffffffffffffff1673ffffffffffffffffffffffffffffffffffffffff1681526020019081526020016000208360ff16600381106146f157fe5b0154905060005b601860008873ffffffffffffffffffffffffffffffffffffffff1673ffffffffffffffffffffffffffffffffffffffff168152602001908152602001600020805490508160ff161015614a595760011515601860008973ffffffffffffffffffffffffffffffffffffffff1673ffffffffffffffffffffffffffffffffffffffff1681526020019081526020016000208260ff168154811061479657fe5b90600052602060002090600802016007018560ff16600381106147b557fe5b602091828204019190069054906101000a900460ff161515141580156147db5750600082115b15614a4c57601860008873ffffffffffffffffffffffffffffffffffffffff1673ffffffffffffffffffffffffffffffffffffffff1681526020019081526020016000208160ff168154811061482d57fe5b90600052602060002090600802016003018460ff166003811061484c57fe5b015482106149cb57601860008873ffffffffffffffffffffffffffffffffffffffff1673ffffffffffffffffffffffffffffffffffffffff1681526020019081526020016000208160ff16815481106148a157fe5b90600052602060002090600802016003018460ff16600381106148c057fe5b0154820391506000601860008973ffffffffffffffffffffffffffffffffffffffff1673ffffffffffffffffffffffffffffffffffffffff1681526020019081526020016000208260ff168154811061491557fe5b90600052602060002090600802016003018560ff166003811061493457fe5b01819055506001601860008973ffffffffffffffffffffffffffffffffffffffff1673ffffffffffffffffffffffffffffffffffffffff1681526020019081526020016000208260ff168154811061498857fe5b90600052602060002090600802016007018560ff16600381106149a757fe5b602091828204019190066101000a81548160ff021916908315150217905550614a4b565b81601860008973ffffffffffffffffffffffffffffffffffffffff1673ffffffffffffffffffffffffffffffffffffffff1681526020019081526020016000208260ff1681548110614a1957fe5b90600052602060002090600802016003018560ff1660038110614a3857fe5b0160008282540392505081905550600091505b5b80806001019150506146f8565b506000601960008873ffffffffffffffffffffffffffffffffffffffff1673ffffffffffffffffffffffffffffffffffffffff1681526020019081526020016000208460ff1660038110614aa957fe5b018190555050505b80806001019150506142f3565b506000601a60008573ffffffffffffffffffffffffffffffffffffffff1673ffffffffffffffffffffffffffffffffffffffff16815260200190815260200160002060006101000a81548160ff0219169083151502179055506001601b60008282829054906101000a900463ffffffff160392506101000a81548163ffffffff021916908363ffffffff160217905550505050565b600160026000828254019250508190555080600080600254815260200190815260200160002060006101000a81548173ffffffffffffffffffffffffffffffffffffffff021916908373ffffffffffffffffffffffffffffffffffffffff16021790555050565b6040518060600160405280600390602082028036833780820191505090505090565b8260038101928215614c0b579160200282015b82811115614c0a578251825591602001919060010190614bef565b5b509050614c189190614d33565b5090565b6040518060600160405280600390602082028036833780820191505090505090565b6040518060600160405280600390602082028036833780820191505090505090565b6040518060800160405280614c73614bba565b8152602001614c80614bba565b815260200160008152602001614c94614c3e565b81525090565b826003601f01602090048101928215614d225791602002820160005b83821115614cf357835183826101000a81548160ff0219169083151502179055509260200192600101602081600001049283019260010302614cb6565b8015614d205782816101000a81549060ff0219169055600101602081600001049283019260010302614cf3565b505b509050614d2f9190614d50565b5090565b5b80821115614d4c576000816000905550600101614d34565b5090565b5b80821115614d7457600081816101000a81549060ff021916905550600101614d51565b5090565b600081359050614d8781615982565b92915050565b600082601f830112614d9e57600080fd5b6003614db1614dac82615826565b6157f9565b91508183856020840282011115614dc757600080fd5b60005b83811015614df75781614ddd8882614f31565b845260208401935060208301925050600181019050614dca565b5050505092915050565b600081905082602060030282011115614e1957600080fd5b92915050565b600082601f830112614e3057600080fd5b6003614e43614e3e82615848565b6157f9565b91508183856020840282011115614e5957600080fd5b60005b83811015614e895781614e6f8882614f5b565b845260208401935060208301925050600181019050614e5c565b5050505092915050565b600082601f830112614ea457600080fd5b6003614eb7614eb282615848565b6157f9565b91508183856020840282011115614ecd57600080fd5b60005b83811015614efd5781614ee38882614f70565b845260208401935060208301925050600181019050614ed0565b5050505092915050565b600081519050614f1681615999565b92915050565b600081359050614f2b816159b0565b92915050565b600081519050614f40816159c7565b92915050565b600081359050614f55816159de565b92915050565b600081359050614f6a816159f5565b92915050565b600081519050614f7f816159f5565b92915050565b600081519050614f9481615a0c565b92915050565b600060208284031215614fac57600080fd5b6000614fba84828501614d78565b91505092915050565b60008060408385031215614fd657600080fd5b6000614fe485828601614d78565b9250506020614ff585828601614f5b565b9150509250929050565b60006060828403121561501157600080fd5b600061501f84828501614d8d565b91505092915050565b60006060828403121561503a57600080fd5b600061504884828501614e01565b91505092915050565b60006060828403121561506357600080fd5b600061507184828501614e1f565b91505092915050565b60006060828403121561508c57600080fd5b600061509a84828501614e93565b91505092915050565b600080608083850312156150b657600080fd5b60006150c485828601614e1f565b92505060606150d585828601614d78565b9150509250929050565b6000602082840312156150f157600080fd5b60006150ff84828501614f07565b91505092915050565b60006020828403121561511a57600080fd5b600061512884828501614f1c565b91505092915050565b60006020828403121561514357600080fd5b600061515184828501614f46565b91505092915050565b60006020828403121561516c57600080fd5b600061517a84828501614f5b565b91505092915050565b60006020828403121561519557600080fd5b60006151a384828501614f70565b91505092915050565b6000602082840312156151be57600080fd5b60006151cc84828501614f85565b91505092915050565b60006151e18383615510565b60208301905092915050565b6151f68161593d565b82525050565b615205816158a8565b82525050565b61521760608383615973565b5050565b61522481615874565b61522e818461588c565b92506152398261586a565b8060005b8381101561526a57815161525187826151d5565b965061525c8361587f565b92505060018101905061523d565b505050505050565b61527b816158ba565b82525050565b600061528e601283615897565b91507f7a65726f20746f6b656e7320737570706c7900000000000000000000000000006000830152602082019050919050565b60006152ce601483615897565b91507f776974686472617720717565756520656d7074790000000000000000000000006000830152602082019050919050565b600061530e601083615897565b91507f4552525f4449565f494e5445524e414c000000000000000000000000000000006000830152602082019050919050565b600061534e601a83615897565b91507f6c6f636b20706572696f64207c206e6f7420737570706c6965640000000000006000830152602082019050919050565b600061538e600e83615897565b91507f6e6f7420617574686f72697a65640000000000000000000000000000000000006000830152602082019050919050565b60006153ce600f83615897565b91507f6f776e6572206e6f7420657869737400000000000000000000000000000000006000830152602082019050919050565b600061540e601083615897565b91507f4552525f4d554c5f4f564552464c4f57000000000000000000000000000000006000830152602082019050919050565b600061544e601483615897565b91507f636f696e207472616e73666572206661696c65640000000000000000000000006000830152602082019050919050565b600061548e600c83615897565b91507f4552525f4449565f5a45524f00000000000000000000000000000000000000006000830152602082019050919050565b60006154ce600783615897565b91507f6c6f7720525054000000000000000000000000000000000000000000000000006000830152602082019050919050565b61550a816158ea565b82525050565b61551981615926565b82525050565b61552881615926565b82525050565b600060208201905061554360008301846151fc565b92915050565b600060208201905061555e60008301846151ed565b92915050565b600060608201905061557960008301866151ed565b61558660208301856151fc565b615593604083018461551f565b949350505050565b60006080820190506155b060008301856151ed565b6155bd602083018461520b565b9392505050565b60006040820190506155d960008301856151ed565b6155e6602083018461551f565b9392505050565b600060608201905061560260008301866151fc565b61560f60208301856151fc565b61561c604083018461551f565b949350505050565b600060408201905061563960008301856151fc565b615646602083018461551f565b9392505050565b6000606082019050615662600083018461521b565b92915050565b600060208201905061567d6000830184615272565b92915050565b6000602082019050818103600083015261569c81615281565b9050919050565b600060208201905081810360008301526156bc816152c1565b9050919050565b600060208201905081810360008301526156dc81615301565b9050919050565b600060208201905081810360008301526156fc81615341565b9050919050565b6000602082019050818103600083015261571c81615381565b9050919050565b6000602082019050818103600083015261573c816153c1565b9050919050565b6000602082019050818103600083015261575c81615401565b9050919050565b6000602082019050818103600083015261577c81615441565b9050919050565b6000602082019050818103600083015261579c81615481565b9050919050565b600060208201905081810360008301526157bc816154c1565b9050919050565b60006020820190506157d86000830184615501565b92915050565b60006020820190506157f3600083018461551f565b92915050565b6000604051905081810181811067ffffffffffffffff8211171561581c57600080fd5b8060405250919050565b600067ffffffffffffffff82111561583d57600080fd5b602082029050919050565b600067ffffffffffffffff82111561585f57600080fd5b602082029050919050565b6000819050919050565b600060039050919050565b6000602082019050919050565b600081905092915050565b600082825260208201905092915050565b60006158b382615906565b9050919050565b60008115159050919050565b60006158d1826158a8565b9050919050565b60006158e3826158a8565b9050919050565b60006fffffffffffffffffffffffffffffffff82169050919050565b600073ffffffffffffffffffffffffffffffffffffffff82169050919050565b6000819050919050565b600060ff82169050919050565b60006159488261594f565b9050919050565b600061595a82615961565b9050919050565b600061596c82615906565b9050919050565b82818337600083830152505050565b61598b816158a8565b811461599657600080fd5b50565b6159a2816158ba565b81146159ad57600080fd5b50565b6159b9816158c6565b81146159c457600080fd5b50565b6159d0816158d8565b81146159db57600080fd5b50565b6159e7816158ea565b81146159f257600080fd5b50565b6159fe81615926565b8114615a0957600080fd5b50565b615a1581615930565b8114615a2057600080fd5b5056fea26469706673582212200551a08d52437b6e7e705cdd1cb6051c8b53ee7f215413264ab9231c754eda2e64736f6c634300060c0033",
  "immutableReferences": {},
  "source": "// SPDX-License-Identifier: UNLICENSED\r\npragma solidity ^0.6.0;\r\npragma experimental ABIEncoderV2;\r\n\r\nimport './MathLib.sol';\r\nimport './RoyaleLPstorage.sol';\r\n\r\n\r\ncontract RoyaleLP is RoyaleLPstorage, rNum {\r\n\r\n  \r\n    \r\n    modifier ownerExists(address _caller) {\r\n        require(multiSig.checkOwner(_caller),\"owner not exist\");\r\n        _;\r\n    }\r\n\r\n    modifier onlyAuthorized(address _caller) {\r\n        require(\r\n            multiSig.checkOwner(_caller) || _caller == loanContract,\r\n            \"not authorized\"\r\n        );\r\n        _;\r\n    }\r\n\r\n    constructor(\r\n        address[N_COINS] memory _tokens,\r\n        address _rpToken,\r\n        address _multiSig\r\n    ) public {\r\n     \r\n        for(uint8 i=0; i<N_COINS; i++) {\r\n            tokens[i] = Erc20(_tokens[i]);\r\n        }\r\n        multiSig= MultiSignatureInterface(_multiSig);\r\n        rpToken = Erc20(_rpToken);\r\n    }\r\n    \r\n    /* EVENTS */\r\n    event userSupplied(\r\n        address user,\r\n        uint[N_COINS] amounts\r\n    );\r\n\r\n    event userRecieved(\r\n        address user,\r\n        uint[N_COINS] amounts\r\n    );\r\n\r\n    event userAddedToQ(\r\n        address user,\r\n        uint[N_COINS] amounts\r\n    );\r\n\r\n    /* INTERNAL FUNCTIONS */\r\n\r\n    function getBalances() public view returns(uint256[N_COINS] memory) {\r\n        uint256[N_COINS] memory balances;\r\n\r\n        for(uint8 i=0; i<N_COINS; i++) {\r\n            balances[i] = tokens[i].balanceOf(address(this));\r\n        }\r\n\r\n        return balances;\r\n    }\r\n\r\n\r\n\r\n    // functions related to deposit and supply\r\n\r\n    // This function deposits the fund to Yield Optimizer\r\n    function _deposit(uint256[N_COINS] memory amounts) internal {\r\n        controller.deposit(amounts);\r\n        \r\n        for(uint8 i=0; i<N_COINS; i++) {\r\n            YieldPoolBalance[i] += amounts[i];\r\n        }\r\n    }\r\n\r\n\r\n\r\n    //Internal Calculation For User Supply \r\n\r\n    function _supply(uint256[N_COINS] memory amounts) internal {\r\n        uint256 mintTokens;        \r\n        mintTokens = calcRptAmount(amounts);    \r\n        \r\n        bool result;\r\n        for(uint8 i=0; i<N_COINS; i++) {\r\n            if(amounts[i] > 0) {\r\n                result = tokens[i].transferFrom(\r\n                    msg.sender, \r\n                    address(this), \r\n                    amounts[i]\r\n                );\r\n                require(result, \"coin transfer failed\");\r\n                selfBalance[i] += amounts[i];\r\n                amountSupplied[msg.sender][i] += amounts[i];\r\n            }\r\n        }\r\n        rpToken.mint(msg.sender, mintTokens);\r\n        bool[N_COINS] memory falseArray;\r\n        depositDetails memory d = depositDetails(amounts, amounts, now, falseArray);\r\n        supplyTime[msg.sender].push(d);\r\n    }\r\n\r\n\r\n\r\n    // functions related to withdraw, withdraw queue and withdraw from Yield Optimizer\r\n    function _takeBack(address recipient) internal {\r\n        bool result;\r\n\r\n        uint256 burnAmt;\r\n\r\n        burnAmt = calcRptAmount(amountWithdraw[recipient]);\r\n        rpToken.burn(recipient, burnAmt);\r\n\r\n        for(uint8 i=0; i<N_COINS; i++) {\r\n            if(\r\n                amountWithdraw[recipient][i] > 0 \r\n                && \r\n                amountSupplied[recipient][i] > 0\r\n            ) {\r\n                uint temp = amountWithdraw[recipient][i] - (amountWithdraw[recipient][i] * fees) / 10000;\r\n                result = tokens[i].transfer(\r\n                    recipient,  \r\n                    temp\r\n                );\r\n                require(result);\r\n                amountSupplied[recipient][i] -= amountWithdraw[recipient][i];\r\n                totalWithdraw[i] -= amountWithdraw[recipient][i];\r\n                selfBalance[i] -= temp;\r\n                uint x = amountWithdraw[recipient][i];\r\n                for(uint8 j=0; j<supplyTime[recipient].length; j++) {\r\n                    if(supplyTime[recipient][j].withdrawn[i] != true && x > 0) {\r\n                        if(x >= supplyTime[recipient][j].remAmt[i]) {\r\n                            x = x - supplyTime[recipient][j].remAmt[i];\r\n                            supplyTime[recipient][j].remAmt[i] = 0;\r\n                            supplyTime[recipient][j].withdrawn[i] = true;\r\n                        }\r\n                        else {\r\n                            supplyTime[recipient][j].remAmt[i] -= x;\r\n                            x = 0;\r\n                        }\r\n                    }\r\n                }\r\n\r\n                amountWithdraw[recipient][i] = 0;\r\n   \r\n            }\r\n        }\r\n        isInQ[recipient] = false;\r\n        recipientCount -= 1;\r\n    }\r\n\r\n\r\n\r\n\r\n    // this will fulfill withdraw requests from the queue\r\n    function _giveBack() internal {\r\n        \r\n        uint32 counter = recipientCount;\r\n        for(uint8 i=0; i<counter; i++) {\r\n            address recipient = getFromQ();\r\n            _takeBack(recipient);\r\n        }\r\n\r\n    }\r\n\r\n\r\n\r\n\r\n\r\n    // this will add unfulfilled withdraw requests to the queue\r\n    function _takeBackQ(uint256[N_COINS] memory amounts) internal {\r\n        \r\n        for(uint256 i=0; i<N_COINS; i++) {\r\n            if(amounts[i] > 0) {\r\n                amountWithdraw[msg.sender][i] += amounts[i];\r\n                totalWithdraw[i] += amounts[i];\r\n            }\r\n        }\r\n\r\n        if(isInQ[msg.sender] != true) {\r\n            recipientCount += 1;\r\n            isInQ[msg.sender] = true;\r\n            addToQ(msg.sender);\r\n        }\r\n\r\n    }\r\n\r\n\r\n\r\n\r\n    // this will withdraw from Yield Optimizer into this contract\r\n    function _withdraw(uint256[N_COINS] memory amounts) internal {\r\n        controller.withdraw(amounts);\r\n\r\n        for(uint8 i=0; i<N_COINS; i++) {\r\n            YieldPoolBalance[i] -= amounts[i];\r\n        }\r\n    }\r\n\r\n\r\n\r\n    //This function calculate RPT to be mint or burn\r\n    function calcRptAmount(uint256[N_COINS] memory amounts) public view returns(uint256) {\r\n        uint256 rptAmt;\r\n        uint256 total = 0;\r\n        uint256 decimal = 0;\r\n        uint256 totalSuppliedTokens;\r\n        uint256 totalRPTSupply;\r\n\r\n        totalRPTSupply = bdiv(rpToken.totalSupply(), 10**18);\r\n      \r\n        for(uint8 i=0; i<N_COINS; i++) {\r\n            decimal = tokens[i].decimals();\r\n            total += bdiv(selfBalance[i]+loanGiven[i], 10**decimal);\r\n            totalSuppliedTokens += bdiv(amounts[i], 10**decimal);\r\n        }\r\n     \r\n        rptAmt = bmul(bdiv(totalSuppliedTokens, total), totalRPTSupply);        \r\n\r\n        return rptAmt;\r\n    }\r\n\r\n\r\n\r\n    //function to check available amount to withdraw for user\r\n    function availableWithdraw(address addr, uint coin) public view returns(uint256) {\r\n\r\n        uint256 amount=0;\r\n        for(uint8 j=0; j<supplyTime[addr].length; j++) {\r\n            if(\r\n                ((now - supplyTime[addr][j].time) \r\n                > \r\n                (/*24 * 60 * 60 **/ lock_period))\r\n                &&\r\n                supplyTime[addr][j].withdrawn[coin] != true\r\n            ) {\r\n                amount += supplyTime[addr][j].remAmt[coin];\r\n            }\r\n        }\r\n\r\n        return amount;\r\n    }\r\n\r\n\r\n\r\n\r\n    /* USER FUNCTIONS (exposed to frontend) */\r\n\r\n    function supply(uint256[N_COINS] calldata amounts) external {\r\n        require(\r\n            calcRptAmount(amounts) > 0,\r\n            \"zero tokens supply\"\r\n        );\r\n        \r\n        _supply(amounts);\r\n\r\n        emit userSupplied(msg.sender, amounts);\r\n    }\r\n\r\n    function requestWithdraw(uint256[N_COINS] calldata amounts) external {\r\n        require(\r\n            calcRptAmount(amounts) > 0,\r\n            \"zero tokens supply\"\r\n        );\r\n\r\n        uint256 burnAmt;\r\n        burnAmt = calcRptAmount(amounts);\r\n        require(\r\n            rpToken.balanceOf(msg.sender) >= burnAmt, \r\n            \"low RPT\"\r\n        );\r\n        \r\n        uint256[N_COINS] memory poolBalance;\r\n        poolBalance = getBalances();\r\n        \r\n        bool checkTime = true;\r\n        bool instant;\r\n        \r\n        // check if user is withdrawing before lock period\r\n        for(uint8 i=0; i<N_COINS; i++) {\r\n            if(amounts[i] > 0) {\r\n                if(availableWithdraw(msg.sender, i) < amounts[i]) {\r\n                    checkTime = false;\r\n                }\r\n            }\r\n        }\r\n        require(checkTime, \"lock period | not supplied\");\r\n\r\n        // check if instant withdraw\r\n        for(uint8 i=0; i<N_COINS; i++) {\r\n            if(amounts[i] < poolBalance[i] && amounts[i] != 0) {\r\n                instant = true;\r\n            }\r\n        }\r\n\r\n        if(instant) {\r\n            rpToken.burn(msg.sender, burnAmt);\r\n            bool result;\r\n            for(uint8 i=0; i<N_COINS; i++) {\r\n                if(amounts[i] > 0) {\r\n                    uint temp = amounts[i] - (amounts[i] * fees) / 10000;\r\n                    result = tokens[i].transfer(msg.sender, temp);\r\n                    require(result);\r\n                    amountSupplied[msg.sender][i] -= amounts[i];\r\n                    selfBalance[i] -= temp;\r\n                    \r\n                    uint x = amounts[i];\r\n                    for(uint8 j=0; j<supplyTime[msg.sender].length; j++) {\r\n                        if(supplyTime[msg.sender][j].withdrawn[i] != true && x > 0) {\r\n                            if(x >= supplyTime[msg.sender][j].remAmt[i]) {\r\n                                x = x - supplyTime[msg.sender][j].remAmt[i];\r\n                                supplyTime[msg.sender][j].remAmt[i] = 0;\r\n                                supplyTime[msg.sender][j].withdrawn[i] = true;\r\n                            }\r\n                            else {\r\n                                supplyTime[msg.sender][j].remAmt[i] -= x;\r\n                                x = 0;\r\n                            }\r\n                        }\r\n                    }\r\n\r\n                }\r\n            }\r\n\r\n            emit userRecieved(msg.sender, amounts);\r\n        } else {\r\n            _takeBackQ(amounts);\r\n\r\n            emit userAddedToQ(msg.sender, amounts);\r\n        }\r\n    }\r\n \r\n    // Following two functions are called by rLoan Only\r\n    function _loanWithdraw(\r\n        uint256[N_COINS] memory amounts, \r\n        address _loanSeeker\r\n    ) public onlyAuthorized(msg.sender) returns(bool) {\r\n        _withdraw(amounts);\r\n\r\n        for(uint8 i=0; i<N_COINS; i++) {\r\n            if(amounts[i] > 0) {\r\n                loanGiven[i] += amounts[i];\r\n                selfBalance[i] -= amounts[i];\r\n                tokens[i].transfer(_loanSeeker, amounts[i]);\r\n            }\r\n        }\r\n        return true;\r\n    }\r\n\r\n    //Function only called by multisig contract for transfering tokens\r\n    function _loanRepayment(\r\n        uint256[N_COINS] memory amounts, \r\n        address _loanSeeker\r\n    ) public onlyAuthorized(msg.sender) returns(bool) {\r\n        for(uint8 i=0; i<N_COINS; i++) {\r\n            if(amounts[i] > 0) {\r\n                loanGiven[i] -= amounts[i];\r\n                selfBalance[i] += amounts[i];\r\n                tokens[i].transferFrom(_loanSeeker, address(this), amounts[i]);\r\n            }\r\n        }\r\n        return true;\r\n    }\r\n\r\n    // this function deposits without minting RPT\r\n    function depsoitInRoyale(uint256[N_COINS] calldata amounts) external {\r\n        for(uint8 i=0;i<N_COINS;i++){\r\n            if(amounts[i]!=0){\r\n             tokens[i].transferFrom(msg.sender,address(this),amounts[i]);\r\n             selfBalance[i]+=amounts[i];\r\n            }\r\n        }\r\n    }\r\n\r\n\r\n    /* CORE FUNCTIONS (called by owner only) */\r\n\r\n    //Deposit in the smart backed pool\r\n    function deposit() ownerExists(msg.sender) external {\r\n        uint256[N_COINS] memory amounts = getBalances();\r\n        uint256 decimal;\r\n\r\n        rStrategyI[3] memory strat = controller.getStrategies();\r\n\r\n        for(uint8 i=0; i<N_COINS; i++) {\r\n            decimal = tokens[i].decimals();\r\n            if(amounts[i] > thresholdTokenAmount*10**decimal) {\r\n                amounts[i] += YieldPoolBalance[i];\r\n                amounts[i] = (amounts[i] * poolPart) / 100;\r\n                amounts[i] = amounts[i] - YieldPoolBalance[i];\r\n                tokens[i].transfer(address(strat[i]), amounts[i]);\r\n            }\r\n            else {\r\n                amounts[i] = 0;\r\n            }\r\n        }\r\n\r\n        uint8 counter = 0;\r\n        for(uint8 i=0; i<N_COINS; i++) {\r\n           if(amounts[i] != 0) {\r\n               counter++;\r\n               break;\r\n           }\r\n        }\r\n\r\n        if(counter > 0){\r\n            _deposit(amounts);\r\n        }\r\n    }\r\n\r\n    //Withdraw from Pool\r\n    function withdraw() ownerExists(msg.sender) external {\r\n\r\n        uint8 counter = 0;\r\n        for(uint8 i=0; i<N_COINS; i++) {\r\n           if(totalWithdraw[i] != 0) {\r\n               counter++;\r\n               break;\r\n           }\r\n        }\r\n\r\n        require(counter > 0, \"withdraw queue empty\");\r\n\r\n        _withdraw(totalWithdraw);\r\n        _giveBack();\r\n        resetQueue();\r\n    }\r\n\r\n    //function for rebalancing pool(ratio)      \r\n    function rebalance() ownerExists(msg.sender) external {\r\n        uint256[N_COINS] memory currentAmount = getBalances();\r\n        uint256[N_COINS] memory amountToWithdraw;\r\n        uint256[N_COINS] memory amountToDeposit;\r\n\r\n        rStrategyI[3] memory strat = controller.getStrategies();\r\n\r\n        for(uint8 i=0;i<N_COINS;i++) {\r\n           uint256 decimal=tokens[i].decimals();\r\n           uint256 a = (selfBalance[i] * (100 - poolPart)) / 100;\r\n           if(a > currentAmount[i]) {\r\n              amountToWithdraw[i] = a - currentAmount[i];\r\n              if(amountToWithdraw[i]<(50*(10**decimal))){\r\n                  amountToWithdraw[i]=0;\r\n              }\r\n           }\r\n           else if(a < currentAmount[i]) {\r\n               amountToDeposit[i] = currentAmount[i] - a;\r\n               if(amountToDeposit[i]<(50*(10**decimal))){\r\n                   amountToDeposit[i]=0;\r\n               }\r\n               else{\r\n                  tokens[i].transfer(address(strat[i]), amountToDeposit[i]);\r\n               }\r\n           }\r\n           else {\r\n               amountToWithdraw[i] = 0;\r\n               amountToDeposit[i] = 0;\r\n           }\r\n        }\r\n\r\n        bool check=false;\r\n        for(uint8 i=0; i<N_COINS; i++) {\r\n            if(amountToDeposit[i] > 0) {\r\n                  check = true;\r\n                  break;\r\n            }\r\n        }\r\n\r\n        if(check){\r\n             _deposit(amountToDeposit);\r\n             check = false;\r\n        }\r\n\r\n        for(uint8 i=0; i<N_COINS; i++) {\r\n            if(amountToWithdraw[i] > 0) {\r\n                  check = true;\r\n                  break;\r\n            }\r\n        }\r\n        \r\n        if(check) {\r\n            _withdraw(amountToWithdraw);\r\n             check = false;\r\n        }\r\n\r\n    }\r\n\r\n\r\n    /* ADMIN FUNCTIONS */\r\n\r\n    \r\n    function getTotalPoolBalance() external view returns(uint256[3] memory) {\r\n        return selfBalance;\r\n    }\r\n\r\n    function getTotalLoanGiven() external view returns(uint256[3] memory) {\r\n        return loanGiven;\r\n    }\r\n\r\n    function setLoanContract(address _loanContract)external ownerExists(msg.sender)returns(bool){\r\n        loanContract=_loanContract;\r\n    }\r\n\r\n    function changePoolPart(uint128 _newPoolPart) external ownerExists(msg.sender) returns(bool) {\r\n        poolPart = _newPoolPart;\r\n        return true;\r\n    }\r\n\r\n    function getYieldProfit() external ownerExists(msg.sender){\r\n        profitFromYield=controller.getTotalProfit();\r\n\r\n        for(uint8 i=0;i<N_COINS;i++){\r\n            selfBalance[i] += profitFromYield[i];\r\n        }\r\n    }\r\n\r\n    function setThresholdTokenAmount(uint256 _newThreshold) external ownerExists(msg.sender) returns(bool) {\r\n        thresholdTokenAmount = _newThreshold;\r\n        return true;\r\n    }\r\n\r\n    function setInitialDeposit() ownerExists(msg.sender) external returns(bool) {\r\n        selfBalance = getBalances();\r\n        return true;\r\n    }\r\n\r\n    function setController(rControllerI _controller)ownerExists(msg.sender) external returns(bool) {\r\n        controller = _controller;\r\n        return true;\r\n    }\r\n\r\n    function setLockPeriod(uint128 lockperiod) ownerExists(msg.sender) external returns(bool) {\r\n        lock_period = lockperiod;\r\n        return true;\r\n    }\r\n\r\n    function setWithdrawFees(uint128 _fees) ownerExists(msg.sender) external returns(bool) {\r\n        fees = _fees;\r\n        return true;\r\n    }\r\n\r\n}",
  "sourcePath": "C:/Users/vishn/OneDrive/Desktop/TempRoyakle/rlp/contracts/RoyaleLP.sol",
  "compiler": {
    "name": "solc",
    "version": "0.6.12+commit.27d51765.Emscripten.clang"
  },
  "schemaVersion": "3.3.2",
  "updatedAt": "2020-12-31T13:16:50.415Z",
  "devdoc": {
    "kind": "dev",
    "methods": {},
    "version": 1
  },
  "userdoc": {
    "kind": "user",
    "methods": {},
    "version": 1
  }
}