{
  "contractName": "RoyaleLP",
  "abi": [
    {
      "inputs": [
        {
          "internalType": "address[3]",
          "name": "_tokens",
          "type": "address[3]"
        },
        {
          "internalType": "address",
          "name": "_rpToken",
          "type": "address"
        }
      ],
      "stateMutability": "nonpayable",
      "type": "constructor"
    },
    {
      "anonymous": false,
      "inputs": [
        {
          "indexed": false,
          "internalType": "address",
          "name": "by",
          "type": "address"
        },
        {
          "indexed": false,
          "internalType": "uint256[3]",
          "name": "requestedAmount",
          "type": "uint256[3]"
        },
        {
          "indexed": false,
          "internalType": "uint256[3]",
          "name": "remainingAmount",
          "type": "uint256[3]"
        },
        {
          "indexed": false,
          "internalType": "uint256",
          "name": "loanID",
          "type": "uint256"
        }
      ],
      "name": "loanFulfilled",
      "type": "event"
    },
    {
      "anonymous": false,
      "inputs": [
        {
          "indexed": false,
          "internalType": "address",
          "name": "by",
          "type": "address"
        },
        {
          "indexed": false,
          "internalType": "uint256[3]",
          "name": "repayedAmount",
          "type": "uint256[3]"
        },
        {
          "indexed": false,
          "internalType": "uint256[3]",
          "name": "amountRemaining",
          "type": "uint256[3]"
        },
        {
          "indexed": false,
          "internalType": "uint256",
          "name": "loanID",
          "type": "uint256"
        }
      ],
      "name": "loanRepayed",
      "type": "event"
    },
    {
      "anonymous": false,
      "inputs": [
        {
          "indexed": false,
          "internalType": "address",
          "name": "by",
          "type": "address"
        },
        {
          "indexed": false,
          "internalType": "uint256[3]",
          "name": "requestedAmount",
          "type": "uint256[3]"
        },
        {
          "indexed": false,
          "internalType": "uint256[3]",
          "name": "remainingAmount",
          "type": "uint256[3]"
        },
        {
          "indexed": false,
          "internalType": "uint256",
          "name": "loanID",
          "type": "uint256"
        }
      ],
      "name": "loanWithdrawn",
      "type": "event"
    },
    {
      "anonymous": false,
      "inputs": [
        {
          "indexed": false,
          "internalType": "address",
          "name": "user",
          "type": "address"
        },
        {
          "indexed": false,
          "internalType": "uint256[3]",
          "name": "amounts",
          "type": "uint256[3]"
        }
      ],
      "name": "userAddedToQ",
      "type": "event"
    },
    {
      "anonymous": false,
      "inputs": [
        {
          "indexed": false,
          "internalType": "address",
          "name": "user",
          "type": "address"
        },
        {
          "indexed": false,
          "internalType": "uint256[3]",
          "name": "amounts",
          "type": "uint256[3]"
        }
      ],
      "name": "userRecieved",
      "type": "event"
    },
    {
      "anonymous": false,
      "inputs": [
        {
          "indexed": false,
          "internalType": "address",
          "name": "user",
          "type": "address"
        },
        {
          "indexed": false,
          "internalType": "uint256[3]",
          "name": "amounts",
          "type": "uint256[3]"
        }
      ],
      "name": "userSupplied",
      "type": "event"
    },
    {
      "anonymous": false,
      "inputs": [
        {
          "indexed": false,
          "internalType": "address",
          "name": "by",
          "type": "address"
        },
        {
          "indexed": false,
          "internalType": "uint256[3]",
          "name": "repayedAmount",
          "type": "uint256[3]"
        },
        {
          "indexed": false,
          "internalType": "uint256[3]",
          "name": "amountRemaining",
          "type": "uint256[3]"
        },
        {
          "indexed": false,
          "internalType": "uint256",
          "name": "loanID",
          "type": "uint256"
        }
      ],
      "name": "wholeLoanRepayed",
      "type": "event"
    },
    {
      "inputs": [],
      "name": "BASE_DECIMAL",
      "outputs": [
        {
          "internalType": "uint256",
          "name": "",
          "type": "uint256"
        }
      ],
      "stateMutability": "view",
      "type": "function"
    },
    {
      "inputs": [
        {
          "internalType": "uint256",
          "name": "",
          "type": "uint256"
        }
      ],
      "name": "YieldPoolBalance",
      "outputs": [
        {
          "internalType": "uint256",
          "name": "",
          "type": "uint256"
        }
      ],
      "stateMutability": "view",
      "type": "function"
    },
    {
      "inputs": [],
      "name": "fees",
      "outputs": [
        {
          "internalType": "uint128",
          "name": "",
          "type": "uint128"
        }
      ],
      "stateMutability": "view",
      "type": "function"
    },
    {
      "inputs": [
        {
          "internalType": "address",
          "name": "",
          "type": "address"
        }
      ],
      "name": "isInQ",
      "outputs": [
        {
          "internalType": "bool",
          "name": "",
          "type": "bool"
        }
      ],
      "stateMutability": "view",
      "type": "function"
    },
    {
      "inputs": [
        {
          "internalType": "uint256",
          "name": "",
          "type": "uint256"
        }
      ],
      "name": "loanGiven",
      "outputs": [
        {
          "internalType": "uint256",
          "name": "",
          "type": "uint256"
        }
      ],
      "stateMutability": "view",
      "type": "function"
    },
    {
      "inputs": [],
      "name": "lock_period",
      "outputs": [
        {
          "internalType": "uint128",
          "name": "",
          "type": "uint128"
        }
      ],
      "stateMutability": "view",
      "type": "function"
    },
    {
      "inputs": [],
      "name": "owner",
      "outputs": [
        {
          "internalType": "address",
          "name": "",
          "type": "address"
        }
      ],
      "stateMutability": "view",
      "type": "function"
    },
    {
      "inputs": [],
      "name": "poolPart",
      "outputs": [
        {
          "internalType": "uint128",
          "name": "",
          "type": "uint128"
        }
      ],
      "stateMutability": "view",
      "type": "function"
    },
    {
      "inputs": [
        {
          "internalType": "uint256",
          "name": "",
          "type": "uint256"
        }
      ],
      "name": "selfBalance",
      "outputs": [
        {
          "internalType": "uint256",
          "name": "",
          "type": "uint256"
        }
      ],
      "stateMutability": "view",
      "type": "function"
    },
    {
      "inputs": [],
      "name": "thresholdTokenAmount",
      "outputs": [
        {
          "internalType": "uint256",
          "name": "",
          "type": "uint256"
        }
      ],
      "stateMutability": "view",
      "type": "function"
    },
    {
      "inputs": [
        {
          "internalType": "uint256",
          "name": "",
          "type": "uint256"
        }
      ],
      "name": "totalWithdraw",
      "outputs": [
        {
          "internalType": "uint256",
          "name": "",
          "type": "uint256"
        }
      ],
      "stateMutability": "view",
      "type": "function"
    },
    {
      "inputs": [
        {
          "internalType": "uint256[3]",
          "name": "amounts",
          "type": "uint256[3]"
        },
        {
          "internalType": "bool",
          "name": "burn",
          "type": "bool"
        }
      ],
      "name": "calcRptAmount",
      "outputs": [
        {
          "internalType": "uint256",
          "name": "",
          "type": "uint256"
        }
      ],
      "stateMutability": "view",
      "type": "function"
    },
    {
      "inputs": [
        {
          "internalType": "address",
          "name": "addr",
          "type": "address"
        },
        {
          "internalType": "uint256",
          "name": "coin",
          "type": "uint256"
        }
      ],
      "name": "availableWithdraw",
      "outputs": [
        {
          "internalType": "uint256",
          "name": "",
          "type": "uint256"
        }
      ],
      "stateMutability": "view",
      "type": "function"
    },
    {
      "inputs": [
        {
          "internalType": "uint256[3]",
          "name": "amounts",
          "type": "uint256[3]"
        }
      ],
      "name": "supply",
      "outputs": [],
      "stateMutability": "nonpayable",
      "type": "function"
    },
    {
      "inputs": [
        {
          "internalType": "uint256[3]",
          "name": "amounts",
          "type": "uint256[3]"
        }
      ],
      "name": "requestWithdraw",
      "outputs": [],
      "stateMutability": "nonpayable",
      "type": "function"
    },
    {
      "inputs": [
        {
          "internalType": "uint256[3]",
          "name": "amounts",
          "type": "uint256[3]"
        },
        {
          "internalType": "address",
          "name": "_loanSeeker",
          "type": "address"
        }
      ],
      "name": "_loanWithdraw",
      "outputs": [
        {
          "internalType": "bool",
          "name": "",
          "type": "bool"
        }
      ],
      "stateMutability": "nonpayable",
      "type": "function"
    },
    {
      "inputs": [
        {
          "internalType": "uint256[3]",
          "name": "amounts",
          "type": "uint256[3]"
        },
        {
          "internalType": "address",
          "name": "_loanSeeker",
          "type": "address"
        }
      ],
      "name": "_loanRepayment",
      "outputs": [
        {
          "internalType": "bool",
          "name": "",
          "type": "bool"
        }
      ],
      "stateMutability": "nonpayable",
      "type": "function"
    },
    {
      "inputs": [],
      "name": "getCurrentPoolBalance",
      "outputs": [
        {
          "internalType": "uint256[3]",
          "name": "",
          "type": "uint256[3]"
        }
      ],
      "stateMutability": "view",
      "type": "function"
    },
    {
      "inputs": [],
      "name": "getTotalLoanGiven",
      "outputs": [
        {
          "internalType": "uint256[3]",
          "name": "",
          "type": "uint256[3]"
        }
      ],
      "stateMutability": "view",
      "type": "function"
    },
    {
      "inputs": [
        {
          "internalType": "uint256[3]",
          "name": "amounts",
          "type": "uint256[3]"
        }
      ],
      "name": "depsoitInRoyale",
      "outputs": [],
      "stateMutability": "nonpayable",
      "type": "function"
    },
    {
      "inputs": [],
      "name": "deposit",
      "outputs": [],
      "stateMutability": "nonpayable",
      "type": "function"
    },
    {
      "inputs": [],
      "name": "withdraw",
      "outputs": [],
      "stateMutability": "nonpayable",
      "type": "function"
    },
    {
      "inputs": [
        {
          "internalType": "uint128",
          "name": "_newPoolPart",
          "type": "uint128"
        }
      ],
      "name": "changePoolPart",
      "outputs": [
        {
          "internalType": "bool",
          "name": "",
          "type": "bool"
        }
      ],
      "stateMutability": "nonpayable",
      "type": "function"
    },
    {
      "inputs": [
        {
          "internalType": "uint256",
          "name": "_newThreshold",
          "type": "uint256"
        }
      ],
      "name": "setThresholdTokenAmount",
      "outputs": [
        {
          "internalType": "bool",
          "name": "",
          "type": "bool"
        }
      ],
      "stateMutability": "nonpayable",
      "type": "function"
    },
    {
      "inputs": [],
      "name": "setInitialDeposit",
      "outputs": [
        {
          "internalType": "bool",
          "name": "",
          "type": "bool"
        }
      ],
      "stateMutability": "nonpayable",
      "type": "function"
    },
    {
      "inputs": [
        {
          "internalType": "contract IYieldOpt",
          "name": "_yldOpt",
          "type": "address"
        }
      ],
      "name": "setYieldOpt",
      "outputs": [
        {
          "internalType": "bool",
          "name": "",
          "type": "bool"
        }
      ],
      "stateMutability": "nonpayable",
      "type": "function"
    },
    {
      "inputs": [
        {
          "internalType": "uint128",
          "name": "lockperiod",
          "type": "uint128"
        }
      ],
      "name": "setLockPeriod",
      "outputs": [
        {
          "internalType": "bool",
          "name": "",
          "type": "bool"
        }
      ],
      "stateMutability": "nonpayable",
      "type": "function"
    },
    {
      "inputs": [
        {
          "internalType": "uint128",
          "name": "_fees",
          "type": "uint128"
        }
      ],
      "name": "setWithdrawFees",
      "outputs": [
        {
          "internalType": "bool",
          "name": "",
          "type": "bool"
        }
      ],
      "stateMutability": "nonpayable",
      "type": "function"
    }
  ],
  "bytecode": "0x60806040526001805560006002556019600460006101000a8154816fffffffffffffffffffffffffffffffff02191690836fffffffffffffffffffffffffffffffff160217905550605f600460106101000a8154816fffffffffffffffffffffffffffffffff02191690836fffffffffffffffffffffffffffffffff1602179055506101f46011553480156200009457600080fd5b50604051620048ac380380620048ac8339818101604052810190620000ba91906200026f565b33600960006101000a81548173ffffffffffffffffffffffffffffffffffffffff021916908373ffffffffffffffffffffffffffffffffffffffff16021790555060005b60036fffffffffffffffffffffffffffffffff168160ff1610156200019057828160ff16600381106200012d57fe5b6020020151600a8260ff16600381106200014357fe5b0160006101000a81548173ffffffffffffffffffffffffffffffffffffffff021916908373ffffffffffffffffffffffffffffffffffffffff1602179055508080600101915050620000fe565b5080600d60006101000a81548173ffffffffffffffffffffffffffffffffffffffff021916908373ffffffffffffffffffffffffffffffffffffffff16021790555050506200034f565b600081519050620001eb8162000335565b92915050565b600082601f8301126200020357600080fd5b60036200021a6200021482620002de565b620002b0565b915081838560208402820111156200023157600080fd5b60005b838110156200026557816200024a8882620001da565b84526020840193506020830192505060018101905062000234565b5050505092915050565b600080608083850312156200028357600080fd5b60006200029385828601620001f1565b9250506060620002a685828601620001da565b9150509250929050565b6000604051905081810181811067ffffffffffffffff82111715620002d457600080fd5b8060405250919050565b600067ffffffffffffffff821115620002f657600080fd5b602082029050919050565b60006200030e8262000315565b9050919050565b600073ffffffffffffffffffffffffffffffffffffffff82169050919050565b620003408162000301565b81146200034c57600080fd5b50565b61454d806200035f6000396000f3fe608060405234801561001057600080fd5b50600436106101c45760003560e01c80638af81478116100f9578063b8b1068011610097578063d0e30db011610071578063d0e30db014610557578063db28bfd014610561578063eacd7afc14610591578063f83e9a20146105c1576101c4565b8063b8b10680146104eb578063c277b6571461051b578063c89eb03614610539576101c4565b8063905f692e116100d3578063905f692e1461043d5780639af1d35a1461046d578063a6d8fcb21461048b578063a70200bd146104bb576101c4565b80638af81478146103e35780638da5cb5b146104015780638e9b03261461041f576101c4565b806347d4a6a8116101665780636b9f1ef6116101405780636b9f1ef6146103235780636d6ea25714610353578063800012881461038357806381f433f0146103b3576101c4565b806347d4a6a8146102b957806352f6e238146102d557806369850424146102f3576101c4565b8063224a1418116101a2578063224a14181461023357806331805a2b1461024f57806332b72e0b1461027f5780633ccfd60b146102af576101c4565b80630d88122c146101c957806311e87188146101e5578063147453e914610203575b600080fd5b6101e360048036038101906101de9190613c3d565b6105df565b005b6101ed6106df565b6040516101fa91906141cc565b60405180910390f35b61021d60048036038101906102189190613ca2565b61072a565b60405161022a919061431d565b60405180910390f35b61024d60048036038101906102489190613c3d565b610995565b005b61026960048036038101906102649190613d59565b610ae9565b604051610276919061431d565b60405180910390f35b61029960048036038101906102949190613d07565b610b01565b6040516102a691906141e7565b60405180910390f35b6102b7610ba7565b005b6102d360048036038101906102ce9190613c3d565b610cee565b005b6102dd61169e565b6040516102ea91906141e7565b60405180910390f35b61030d60048036038101906103089190613d59565b61171a565b60405161031a919061431d565b60405180910390f35b61033d60048036038101906103389190613d30565b611732565b60405161034a91906141e7565b60405180910390f35b61036d60048036038101906103689190613d59565b6117d0565b60405161037a919061431d565b60405180910390f35b61039d60048036038101906103989190613c66565b6117e8565b6040516103aa91906141e7565b60405180910390f35b6103cd60048036038101906103c89190613d30565b61197b565b6040516103da91906141e7565b60405180910390f35b6103eb611a19565b6040516103f8919061431d565b60405180910390f35b610409611a25565b60405161041691906140ad565b60405180910390f35b610427611a4b565b6040516104349190614302565b60405180910390f35b61045760048036038101906104529190613bd8565b611a6d565b60405161046491906141e7565b60405180910390f35b610475611a8d565b6040516104829190614302565b60405180910390f35b6104a560048036038101906104a09190613c01565b611aaf565b6040516104b2919061431d565b60405180910390f35b6104d560048036038101906104d09190613d30565b611cba565b6040516104e291906141e7565b60405180910390f35b61050560048036038101906105009190613d59565b611d58565b60405161051291906141e7565b60405180910390f35b610523611dc4565b60405161053091906141cc565b60405180910390f35b610541611e0f565b60405161054e919061431d565b60405180910390f35b61055f611e15565b005b61057b60048036038101906105769190613d59565b6121e9565b604051610588919061431d565b60405180910390f35b6105ab60048036038101906105a69190613c66565b612201565b6040516105b891906141e7565b60405180910390f35b6105c9612398565b6040516105d69190614302565b60405180910390f35b6000610623826003806020026040519081016040528092919082600360200280828437600081840152601f19601f820116905080830192505050505050600061072a565b11610663576040517f08c379a000000000000000000000000000000000000000000000000000000000815260040161065a90614202565b60405180910390fd5b6106a3816003806020026040519081016040528092919082600360200280828437600081840152601f19601f8201169050808301925050505050506123ba565b7fe7f2330a99451f199f91ed2ac09887e25894cb0e14021fe5d29bc959e7283d0e33826040516106d492919061411a565b60405180910390a150565b6106e7613902565b6005600380602002604051908101604052809291908260038015610720576020028201915b81548152602001906001019080831161070c575b5050505050905090565b6000806000806000806107e4600d60009054906101000a900473ffffffffffffffffffffffffffffffffffffffff1673ffffffffffffffffffffffffffffffffffffffff166318160ddd6040518163ffffffff1660e01b815260040160206040518083038186803b15801561079e57600080fd5b505afa1580156107b2573d6000803e3d6000fd5b505050506040513d601f19601f820116820180604052508101906107d69190613d82565b670de0b6b3a7640000612756565b905060005b60036fffffffffffffffffffffffffffffffff168160ff16101561092157600a8160ff166003811061081757fe5b0160009054906101000a900473ffffffffffffffffffffffffffffffffffffffff1673ffffffffffffffffffffffffffffffffffffffff1663313ce5676040518163ffffffff1660e01b815260040160206040518083038186803b15801561087e57600080fd5b505afa158015610892573d6000803e3d6000fd5b505050506040513d601f19601f820116820180604052508101906108b69190613dab565b60ff1693506108ec601b8260ff16600381106108ce57fe5b015460058360ff16600381106108e057fe5b01540185600a0a612756565b85019450610910898260ff166003811061090257fe5b602002015185600a0a612756565b8301925080806001019150506107e9565b5061093561092f8386612756565b82612876565b945060011515871515141561098757612710600460009054906101000a90046fffffffffffffffffffffffffffffffff166fffffffffffffffffffffffffffffffff1686028161098157fe5b04850194505b849550505050505092915050565b60005b60036fffffffffffffffffffffffffffffffff168160ff161015610ae5576000828260ff16600381106109c757fe5b602002013514610ad857600a8160ff16600381106109e157fe5b0160009054906101000a900473ffffffffffffffffffffffffffffffffffffffff1673ffffffffffffffffffffffffffffffffffffffff166323b872dd3330858560ff1660038110610a2f57fe5b60200201356040518463ffffffff1660e01b8152600401610a52939291906140e3565b602060405180830381600087803b158015610a6c57600080fd5b505af1158015610a80573d6000803e3d6000fd5b505050506040513d601f19601f82011682018060405250810190610aa49190613cde565b50818160ff1660038110610ab457fe5b602002013560058260ff1660038110610ac957fe5b01600082825401925050819055505b8080600101915050610998565b5050565b600e8160038110610af657fe5b016000915090505481565b6000600960009054906101000a900473ffffffffffffffffffffffffffffffffffffffff1673ffffffffffffffffffffffffffffffffffffffff163373ffffffffffffffffffffffffffffffffffffffff1614610b5d57600080fd5b81600860006101000a81548173ffffffffffffffffffffffffffffffffffffffff021916908373ffffffffffffffffffffffffffffffffffffffff16021790555060019050919050565b600960009054906101000a900473ffffffffffffffffffffffffffffffffffffffff1673ffffffffffffffffffffffffffffffffffffffff163373ffffffffffffffffffffffffffffffffffffffff1614610c0157600080fd5b6000805b60036fffffffffffffffffffffffffffffffff168160ff161015610c5657600060188260ff1660038110610c3557fe5b015414610c49578180600101925050610c56565b8080600101915050610c05565b5060008160ff1611610c9d576040517f08c379a0000000000000000000000000000000000000000000000000000000008152600401610c9490614222565b60405180910390fd5b610ce36018600380602002604051908101604052809291908260038015610cd9576020028201915b815481526020019060010190808311610cc5575b5050505050612952565b610ceb612a43565b50565b6000610d32826003806020026040519081016040528092919082600360200280828437600081840152601f19601f820116905080830192505050505050600061072a565b11610d72576040517f08c379a0000000000000000000000000000000000000000000000000000000008152600401610d6990614202565b60405180910390fd5b6000610db6826003806020026040519081016040528092919082600360200280828437600081840152601f19601f820116905080830192505050505050600161072a565b905080600d60009054906101000a900473ffffffffffffffffffffffffffffffffffffffff1673ffffffffffffffffffffffffffffffffffffffff166370a08231336040518263ffffffff1660e01b8152600401610e1491906140c8565b60206040518083038186803b158015610e2c57600080fd5b505afa158015610e40573d6000803e3d6000fd5b505050506040513d601f19601f82011682018060405250810190610e649190613d82565b1015610ea5576040517f08c379a0000000000000000000000000000000000000000000000000000000008152600401610e9c906142e2565b60405180910390fd5b610ead613902565b610eb5612a95565b9050600060019050600080600090505b60036fffffffffffffffffffffffffffffffff168160ff161015610f39576000868260ff1660038110610ef457fe5b60200201351115610f2c57858160ff1660038110610f0e57fe5b6020020135610f20338360ff16611aaf565b1015610f2b57600092505b5b8080600101915050610ec5565b5081610f7a576040517f08c379a0000000000000000000000000000000000000000000000000000000008152600401610f7190614242565b60405180910390fd5b60005b60036fffffffffffffffffffffffffffffffff168160ff161015610ffb57838160ff1660038110610faa57fe5b6020020151868260ff1660038110610fbe57fe5b6020020135108015610fe457506000868260ff1660038110610fdc57fe5b602002013514155b15610fee57600191505b8080600101915050610f7d565b50801561161d57600d60009054906101000a900473ffffffffffffffffffffffffffffffffffffffff1673ffffffffffffffffffffffffffffffffffffffff16639dc29fac33866040518363ffffffff1660e01b815260040161105f929190614143565b600060405180830381600087803b15801561107957600080fd5b505af115801561108d573d6000803e3d6000fd5b50505050600080600090505b60036fffffffffffffffffffffffffffffffff168160ff1610156115dd576000878260ff16600381106110c857fe5b602002013511156115d057600a8160ff16600381106110e357fe5b0160009054906101000a900473ffffffffffffffffffffffffffffffffffffffff1673ffffffffffffffffffffffffffffffffffffffff1663a9059cbb33898460ff166003811061113057fe5b60200201356040518363ffffffff1660e01b8152600401611152929190614143565b602060405180830381600087803b15801561116c57600080fd5b505af1158015611180573d6000803e3d6000fd5b505050506040513d601f19601f820116820180604052508101906111a49190613cde565b9150816111b057600080fd5b868160ff16600381106111bf57fe5b6020020135601360003373ffffffffffffffffffffffffffffffffffffffff1673ffffffffffffffffffffffffffffffffffffffff1681526020019081526020016000208260ff166003811061121157fe5b0160008282540392505081905550868160ff166003811061122e57fe5b602002013560058260ff166003811061124357fe5b01600082825403925050819055506000878260ff166003811061126257fe5b6020020135905060005b601460003373ffffffffffffffffffffffffffffffffffffffff1673ffffffffffffffffffffffffffffffffffffffff168152602001908152602001600020805490508160ff1610156115cd5760011515601460003373ffffffffffffffffffffffffffffffffffffffff1673ffffffffffffffffffffffffffffffffffffffff1681526020019081526020016000208260ff168154811061130a57fe5b90600052602060002090600802016007018460ff166003811061132957fe5b602091828204019190069054906101000a900460ff1615151415801561134f5750600082115b156115c057601460003373ffffffffffffffffffffffffffffffffffffffff1673ffffffffffffffffffffffffffffffffffffffff1681526020019081526020016000208160ff16815481106113a157fe5b90600052602060002090600802016003018360ff16600381106113c057fe5b0154821061153f57601460003373ffffffffffffffffffffffffffffffffffffffff1673ffffffffffffffffffffffffffffffffffffffff1681526020019081526020016000208160ff168154811061141557fe5b90600052602060002090600802016003018360ff166003811061143457fe5b0154820391506000601460003373ffffffffffffffffffffffffffffffffffffffff1673ffffffffffffffffffffffffffffffffffffffff1681526020019081526020016000208260ff168154811061148957fe5b90600052602060002090600802016003018460ff16600381106114a857fe5b01819055506001601460003373ffffffffffffffffffffffffffffffffffffffff1673ffffffffffffffffffffffffffffffffffffffff1681526020019081526020016000208260ff16815481106114fc57fe5b90600052602060002090600802016007018460ff166003811061151b57fe5b602091828204019190066101000a81548160ff0219169083151502179055506115bf565b81601460003373ffffffffffffffffffffffffffffffffffffffff1673ffffffffffffffffffffffffffffffffffffffff1681526020019081526020016000208260ff168154811061158d57fe5b90600052602060002090600802016003018460ff16600381106115ac57fe5b0160008282540392505081905550600091505b5b808060010191505061126c565b50505b8080600101915050611099565b507fe9c01f7dea3ef08b44263b3cf5963eb42309e5fb5bec9305dbe12b82f37b519c338760405161160f92919061411a565b60405180910390a150611697565b61165d856003806020026040519081016040528092919082600360200280828437600081840152601f19601f820116905080830192505050505050612bad565b7fe2d5e24e56e4f05473adb8bb616473de3894beab8011d32382a638d1d2617c93338660405161168e92919061411a565b60405180910390a15b5050505050565b6000600960009054906101000a900473ffffffffffffffffffffffffffffffffffffffff1673ffffffffffffffffffffffffffffffffffffffff163373ffffffffffffffffffffffffffffffffffffffff16146116fa57600080fd5b611702612a95565b6005906003611712929190613924565b506001905090565b6005816003811061172757fe5b016000915090505481565b6000600960009054906101000a900473ffffffffffffffffffffffffffffffffffffffff1673ffffffffffffffffffffffffffffffffffffffff163373ffffffffffffffffffffffffffffffffffffffff161461178e57600080fd5b81600460006101000a8154816fffffffffffffffffffffffffffffffff02191690836fffffffffffffffffffffffffffffffff16021790555060019050919050565b601b81600381106117dd57fe5b016000915090505481565b600080600090505b60036fffffffffffffffffffffffffffffffff168160ff161015611970576000848260ff166003811061181f57fe5b6020020151111561196357838160ff166003811061183957fe5b6020020151601b8260ff166003811061184e57fe5b0160008282540392505081905550838160ff166003811061186b57fe5b602002015160058260ff166003811061188057fe5b0160008282540192505081905550600a8160ff166003811061189e57fe5b0160009054906101000a900473ffffffffffffffffffffffffffffffffffffffff1673ffffffffffffffffffffffffffffffffffffffff166323b872dd8430878560ff16600381106118ec57fe5b60200201516040518463ffffffff1660e01b815260040161190f9392919061416c565b602060405180830381600087803b15801561192957600080fd5b505af115801561193d573d6000803e3d6000fd5b505050506040513d601f19601f820116820180604052508101906119619190613cde565b505b80806001019150506117f0565b506001905092915050565b6000600960009054906101000a900473ffffffffffffffffffffffffffffffffffffffff1673ffffffffffffffffffffffffffffffffffffffff163373ffffffffffffffffffffffffffffffffffffffff16146119d757600080fd5b81601260006101000a8154816fffffffffffffffffffffffffffffffff02191690836fffffffffffffffffffffffffffffffff16021790555060019050919050565b670de0b6b3a764000081565b600960009054906101000a900473ffffffffffffffffffffffffffffffffffffffff1681565b600460109054906101000a90046fffffffffffffffffffffffffffffffff1681565b60166020528060005260406000206000915054906101000a900460ff1681565b600460009054906101000a90046fffffffffffffffffffffffffffffffff1681565b6000806000905060005b601460008673ffffffffffffffffffffffffffffffffffffffff1673ffffffffffffffffffffffffffffffffffffffff168152602001908152602001600020805490508160ff161015611caf57601260009054906101000a90046fffffffffffffffffffffffffffffffff1662015180026fffffffffffffffffffffffffffffffff16601460008773ffffffffffffffffffffffffffffffffffffffff1673ffffffffffffffffffffffffffffffffffffffff1681526020019081526020016000208260ff1681548110611b8957fe5b9060005260206000209060080201600601544203118015611c2d575060011515601460008773ffffffffffffffffffffffffffffffffffffffff1673ffffffffffffffffffffffffffffffffffffffff1681526020019081526020016000208260ff1681548110611bf657fe5b90600052602060002090600802016007018560038110611c1257fe5b602091828204019190069054906101000a900460ff16151514155b15611ca257601460008673ffffffffffffffffffffffffffffffffffffffff1673ffffffffffffffffffffffffffffffffffffffff1681526020019081526020016000208160ff1681548110611c7f57fe5b90600052602060002090600802016003018460038110611c9b57fe5b0154820191505b8080600101915050611ab9565b508091505092915050565b6000600960009054906101000a900473ffffffffffffffffffffffffffffffffffffffff1673ffffffffffffffffffffffffffffffffffffffff163373ffffffffffffffffffffffffffffffffffffffff1614611d1657600080fd5b81600460106101000a8154816fffffffffffffffffffffffffffffffff02191690836fffffffffffffffffffffffffffffffff16021790555060019050919050565b6000600960009054906101000a900473ffffffffffffffffffffffffffffffffffffffff1673ffffffffffffffffffffffffffffffffffffffff163373ffffffffffffffffffffffffffffffffffffffff1614611db457600080fd5b8160118190555060019050919050565b611dcc613902565b601b600380602002604051908101604052809291908260038015611e05576020028201915b815481526020019060010190808311611df1575b5050505050905090565b60115481565b600960009054906101000a900473ffffffffffffffffffffffffffffffffffffffff1673ffffffffffffffffffffffffffffffffffffffff163373ffffffffffffffffffffffffffffffffffffffff1614611e6f57600080fd5b611e77613902565b611e7f612a95565b9050600080600090505b60036fffffffffffffffffffffffffffffffff168160ff16101561217557600a8160ff1660038110611eb757fe5b0160009054906101000a900473ffffffffffffffffffffffffffffffffffffffff1673ffffffffffffffffffffffffffffffffffffffff1663313ce5676040518163ffffffff1660e01b815260040160206040518083038186803b158015611f1e57600080fd5b505afa158015611f32573d6000803e3d6000fd5b505050506040513d601f19601f82011682018060405250810190611f569190613dab565b60ff16915081600a0a60115402838260ff1660038110611f7257fe5b6020020151111561214d57600e8160ff1660038110611f8d57fe5b0154838260ff1660038110611f9e57fe5b6020020181815101915081815250506064600460109054906101000a90046fffffffffffffffffffffffffffffffff166fffffffffffffffffffffffffffffffff16848360ff1660038110611fef57fe5b60200201510281611ffc57fe5b04838260ff166003811061200c57fe5b602002018181525050600e8160ff166003811061202557fe5b0154838260ff166003811061203657fe5b602002015103838260ff166003811061204b57fe5b602002018181525050600a8160ff166003811061206457fe5b0160009054906101000a900473ffffffffffffffffffffffffffffffffffffffff1673ffffffffffffffffffffffffffffffffffffffff1663a9059cbb600860009054906101000a900473ffffffffffffffffffffffffffffffffffffffff16858460ff16600381106120d357fe5b60200201516040518363ffffffff1660e01b81526004016120f59291906141a3565b602060405180830381600087803b15801561210f57600080fd5b505af1158015612123573d6000803e3d6000fd5b505050506040513d601f19601f820116820180604052508101906121479190613cde565b50612168565b6000838260ff166003811061215e57fe5b6020020181815250505b8080600101915050611e89565b506000805b60036fffffffffffffffffffffffffffffffff168160ff1610156121cd576000848260ff16600381106121a957fe5b6020020151146121c05781806001019250506121cd565b808060010191505061217a565b5060008160ff1611156121e4576121e383612d7c565b5b505050565b601881600381106121f657fe5b016000915090505481565b600061220c83612952565b60005b60036fffffffffffffffffffffffffffffffff168160ff16101561238d576000848260ff166003811061223e57fe5b6020020151111561238057838160ff166003811061225857fe5b6020020151601b8260ff166003811061226d57fe5b0160008282540192505081905550838160ff166003811061228a57fe5b602002015160058260ff166003811061229f57fe5b0160008282540392505081905550600a8160ff16600381106122bd57fe5b0160009054906101000a900473ffffffffffffffffffffffffffffffffffffffff1673ffffffffffffffffffffffffffffffffffffffff1663a9059cbb84868460ff166003811061230a57fe5b60200201516040518363ffffffff1660e01b815260040161232c9291906141a3565b602060405180830381600087803b15801561234657600080fd5b505af115801561235a573d6000803e3d6000fd5b505050506040513d601f19601f8201168201806040525081019061237e9190613cde565b505b808060010191505061220f565b506001905092915050565b601260009054906101000a90046fffffffffffffffffffffffffffffffff1681565b60006123c782600061072a565b9050600080600090505b60036fffffffffffffffffffffffffffffffff168160ff1610156125cf576000848260ff166003811061240057fe5b602002015111156125c257600a8160ff166003811061241b57fe5b0160009054906101000a900473ffffffffffffffffffffffffffffffffffffffff1673ffffffffffffffffffffffffffffffffffffffff166323b872dd3330878560ff166003811061246957fe5b60200201516040518463ffffffff1660e01b815260040161248c939291906140e3565b602060405180830381600087803b1580156124a657600080fd5b505af11580156124ba573d6000803e3d6000fd5b505050506040513d601f19601f820116820180604052508101906124de9190613cde565b915081612520576040517f08c379a000000000000000000000000000000000000000000000000000000000815260040161251790614282565b60405180910390fd5b838160ff166003811061252f57fe5b602002015160058260ff166003811061254457fe5b0160008282540192505081905550838160ff166003811061256157fe5b6020020151601360003373ffffffffffffffffffffffffffffffffffffffff1673ffffffffffffffffffffffffffffffffffffffff1681526020019081526020016000208260ff16600381106125b357fe5b01600082825401925050819055505b80806001019150506123d1565b50600d60009054906101000a900473ffffffffffffffffffffffffffffffffffffffff1673ffffffffffffffffffffffffffffffffffffffff166340c10f1933846040518363ffffffff1660e01b815260040161262d929190614143565b600060405180830381600087803b15801561264757600080fd5b505af115801561265b573d6000803e3d6000fd5b50505050612667613964565b61266f613986565b6040518060800160405280868152602001868152602001428152602001838152509050601460003373ffffffffffffffffffffffffffffffffffffffff1673ffffffffffffffffffffffffffffffffffffffff168152602001908152602001600020819080600181540180825580915050600190039060005260206000209060080201600090919091909150600082015181600001906003612712929190613924565b5060208201518160030190600361272a929190613924565b506040820151816006015560608201518160070190600361274c9291906139c0565b5050505050505050565b60008082141561279b576040517f08c379a0000000000000000000000000000000000000000000000000000000008152600401612792906142c2565b60405180910390fd5b6000670de0b6b3a76400008402905060008414806127c95750670de0b6b3a76400008482816127c657fe5b04145b612808576040517f08c379a00000000000000000000000000000000000000000000000000000000081526004016127ff90614262565b60405180910390fd5b60006002848161281457fe5b04820190508181101561285c576040517f08c379a000000000000000000000000000000000000000000000000000000000815260040161285390614262565b60405180910390fd5b600084828161286757fe5b04905080935050505092915050565b6000808284029050600084148061289557508284828161289257fe5b04145b6128d4576040517f08c379a00000000000000000000000000000000000000000000000000000000081526004016128cb906142a2565b60405180910390fd5b60006002670de0b6b3a7640000816128e857fe5b048201905081811015612930576040517f08c379a0000000000000000000000000000000000000000000000000000000008152600401612927906142a2565b60405180910390fd5b6000670de0b6b3a7640000828161294357fe5b04905080935050505092915050565b600860009054906101000a900473ffffffffffffffffffffffffffffffffffffffff1673ffffffffffffffffffffffffffffffffffffffff1663b1b8f1be826040518263ffffffff1660e01b81526004016129ad91906141cc565b600060405180830381600087803b1580156129c757600080fd5b505af11580156129db573d6000803e3d6000fd5b5050505060005b60036fffffffffffffffffffffffffffffffff168160ff161015612a3f57818160ff1660038110612a0f57fe5b6020020151600e8260ff1660038110612a2457fe5b016000828254039250508190555080806001019150506129e2565b5050565b6000601760009054906101000a900463ffffffff16905060005b8163ffffffff168160ff161015612a91576000612a78612e6d565b9050612a8381612f64565b508080600101915050612a5d565b5050565b612a9d613902565b612aa5613902565b60005b60036fffffffffffffffffffffffffffffffff168160ff161015612ba557600a8160ff1660038110612ad657fe5b0160009054906101000a900473ffffffffffffffffffffffffffffffffffffffff1673ffffffffffffffffffffffffffffffffffffffff166370a08231306040518263ffffffff1660e01b8152600401612b3091906140ad565b60206040518083038186803b158015612b4857600080fd5b505afa158015612b5c573d6000803e3d6000fd5b505050506040513d601f19601f82011682018060405250810190612b809190613d82565b828260ff1660038110612b8f57fe5b6020020181815250508080600101915050612aa8565b508091505090565b60005b60036fffffffffffffffffffffffffffffffff16811015612c87576000828260038110612bd957fe5b60200201511115612c7a57818160038110612bf057fe5b6020020151601560003373ffffffffffffffffffffffffffffffffffffffff1673ffffffffffffffffffffffffffffffffffffffff1681526020019081526020016000208260038110612c3f57fe5b0160008282540192505081905550818160038110612c5957fe5b602002015160188260038110612c6b57fe5b01600082825401925050819055505b8080600101915050612bb0565b5060011515601660003373ffffffffffffffffffffffffffffffffffffffff1673ffffffffffffffffffffffffffffffffffffffff16815260200190815260200160002060009054906101000a900460ff16151514612d79576001601760008282829054906101000a900463ffffffff160192506101000a81548163ffffffff021916908363ffffffff1602179055506001601660003373ffffffffffffffffffffffffffffffffffffffff1673ffffffffffffffffffffffffffffffffffffffff16815260200190815260200160002060006101000a81548160ff021916908315150217905550612d783361389b565b5b50565b600860009054906101000a900473ffffffffffffffffffffffffffffffffffffffff1673ffffffffffffffffffffffffffffffffffffffff1663d4e20b01826040518263ffffffff1660e01b8152600401612dd791906141cc565b600060405180830381600087803b158015612df157600080fd5b505af1158015612e05573d6000803e3d6000fd5b5050505060005b60036fffffffffffffffffffffffffffffffff168160ff161015612e6957818160ff1660038110612e3957fe5b6020020151600e8260ff1660038110612e4e57fe5b01600082825401925050819055508080600101915050612e0c565b5050565b60006001546002541015612e8057600080fd5b600080600154815260200190815260200160002060009054906101000a900473ffffffffffffffffffffffffffffffffffffffff16600360006101000a81548173ffffffffffffffffffffffffffffffffffffffff021916908373ffffffffffffffffffffffffffffffffffffffff160217905550600080600154815260200190815260200160002060006101000a81549073ffffffffffffffffffffffffffffffffffffffff021916905560018060008282540192505081905550600360009054906101000a900473ffffffffffffffffffffffffffffffffffffffff16905090565b600080612fec601560008573ffffffffffffffffffffffffffffffffffffffff1673ffffffffffffffffffffffffffffffffffffffff168152602001908152602001600020600380602002604051908101604052809291908260038015612fe0576020028201915b815481526020019060010190808311612fcc575b5050505050600161072a565b9050600d60009054906101000a900473ffffffffffffffffffffffffffffffffffffffff1673ffffffffffffffffffffffffffffffffffffffff16639dc29fac84836040518363ffffffff1660e01b815260040161304b9291906141a3565b600060405180830381600087803b15801561306557600080fd5b505af1158015613079573d6000803e3d6000fd5b5050505060005b60036fffffffffffffffffffffffffffffffff168160ff161015613895576000601560008673ffffffffffffffffffffffffffffffffffffffff1673ffffffffffffffffffffffffffffffffffffffff1681526020019081526020016000208260ff16600381106130ed57fe5b015411801561314a57506000601360008673ffffffffffffffffffffffffffffffffffffffff1673ffffffffffffffffffffffffffffffffffffffff1681526020019081526020016000208260ff166003811061314657fe5b0154115b1561388857600a8160ff166003811061315f57fe5b0160009054906101000a900473ffffffffffffffffffffffffffffffffffffffff1673ffffffffffffffffffffffffffffffffffffffff1663a9059cbb85601560008873ffffffffffffffffffffffffffffffffffffffff1673ffffffffffffffffffffffffffffffffffffffff1681526020019081526020016000208460ff16600381106131ea57fe5b01546040518363ffffffff1660e01b81526004016132099291906141a3565b602060405180830381600087803b15801561322357600080fd5b505af1158015613237573d6000803e3d6000fd5b505050506040513d601f19601f8201168201806040525081019061325b9190613cde565b92508261326757600080fd5b601560008573ffffffffffffffffffffffffffffffffffffffff1673ffffffffffffffffffffffffffffffffffffffff1681526020019081526020016000208160ff16600381106132b457fe5b0154601360008673ffffffffffffffffffffffffffffffffffffffff1673ffffffffffffffffffffffffffffffffffffffff1681526020019081526020016000208260ff166003811061330357fe5b0160008282540392505081905550601560008573ffffffffffffffffffffffffffffffffffffffff1673ffffffffffffffffffffffffffffffffffffffff1681526020019081526020016000208160ff166003811061335e57fe5b015460188260ff166003811061337057fe5b0160008282540392505081905550601560008573ffffffffffffffffffffffffffffffffffffffff1673ffffffffffffffffffffffffffffffffffffffff1681526020019081526020016000208160ff16600381106133cb57fe5b015460058260ff16600381106133dd57fe5b01600082825403925050819055506000601560008673ffffffffffffffffffffffffffffffffffffffff1673ffffffffffffffffffffffffffffffffffffffff1681526020019081526020016000208260ff166003811061343a57fe5b0154905060005b601460008773ffffffffffffffffffffffffffffffffffffffff1673ffffffffffffffffffffffffffffffffffffffff168152602001908152602001600020805490508160ff1610156137a25760011515601460008873ffffffffffffffffffffffffffffffffffffffff1673ffffffffffffffffffffffffffffffffffffffff1681526020019081526020016000208260ff16815481106134df57fe5b90600052602060002090600802016007018460ff16600381106134fe57fe5b602091828204019190069054906101000a900460ff161515141580156135245750600082115b1561379557601460008773ffffffffffffffffffffffffffffffffffffffff1673ffffffffffffffffffffffffffffffffffffffff1681526020019081526020016000208160ff168154811061357657fe5b90600052602060002090600802016003018360ff166003811061359557fe5b0154821061371457601460008773ffffffffffffffffffffffffffffffffffffffff1673ffffffffffffffffffffffffffffffffffffffff1681526020019081526020016000208160ff16815481106135ea57fe5b90600052602060002090600802016003018360ff166003811061360957fe5b0154820391506000601460008873ffffffffffffffffffffffffffffffffffffffff1673ffffffffffffffffffffffffffffffffffffffff1681526020019081526020016000208260ff168154811061365e57fe5b90600052602060002090600802016003018460ff166003811061367d57fe5b01819055506001601460008873ffffffffffffffffffffffffffffffffffffffff1673ffffffffffffffffffffffffffffffffffffffff1681526020019081526020016000208260ff16815481106136d157fe5b90600052602060002090600802016007018460ff16600381106136f057fe5b602091828204019190066101000a81548160ff021916908315150217905550613794565b81601460008873ffffffffffffffffffffffffffffffffffffffff1673ffffffffffffffffffffffffffffffffffffffff1681526020019081526020016000208260ff168154811061376257fe5b90600052602060002090600802016003018460ff166003811061378157fe5b0160008282540392505081905550600091505b5b8080600101915050613441565b506000601560008773ffffffffffffffffffffffffffffffffffffffff1673ffffffffffffffffffffffffffffffffffffffff1681526020019081526020016000208360ff16600381106137f257fe5b01819055506000601660008773ffffffffffffffffffffffffffffffffffffffff1673ffffffffffffffffffffffffffffffffffffffff16815260200190815260200160002060006101000a81548160ff0219169083151502179055506001601760008282829054906101000a900463ffffffff160392506101000a81548163ffffffff021916908363ffffffff160217905550505b8080600101915050613080565b50505050565b600160026000828254019250508190555080600080600254815260200190815260200160002060006101000a81548173ffffffffffffffffffffffffffffffffffffffff021916908373ffffffffffffffffffffffffffffffffffffffff16021790555050565b6040518060600160405280600390602082028036833780820191505090505090565b8260038101928215613953579160200282015b82811115613952578251825591602001919060010190613937565b5b5090506139609190613a59565b5090565b6040518060600160405280600390602082028036833780820191505090505090565b6040518060800160405280613999613902565b81526020016139a6613902565b8152602001600081526020016139ba613964565b81525090565b826003601f01602090048101928215613a485791602002820160005b83821115613a1957835183826101000a81548160ff02191690831515021790555092602001926001016020816000010492830192600103026139dc565b8015613a465782816101000a81549060ff0219169055600101602081600001049283019260010302613a19565b505b509050613a559190613a76565b5090565b5b80821115613a72576000816000905550600101613a5a565b5090565b5b80821115613a9a57600081816101000a81549060ff021916905550600101613a77565b5090565b600081359050613aad8161448d565b92915050565b600081905082602060030282011115613acb57600080fd5b92915050565b600082601f830112613ae257600080fd5b6003613af5613af082614365565b614338565b91508183856020840282011115613b0b57600080fd5b60005b83811015613b3b5781613b218882613b99565b845260208401935060208301925050600181019050613b0e565b5050505092915050565b600081359050613b54816144a4565b92915050565b600081519050613b69816144a4565b92915050565b600081359050613b7e816144bb565b92915050565b600081359050613b93816144d2565b92915050565b600081359050613ba8816144e9565b92915050565b600081519050613bbd816144e9565b92915050565b600081519050613bd281614500565b92915050565b600060208284031215613bea57600080fd5b6000613bf884828501613a9e565b91505092915050565b60008060408385031215613c1457600080fd5b6000613c2285828601613a9e565b9250506020613c3385828601613b99565b9150509250929050565b600060608284031215613c4f57600080fd5b6000613c5d84828501613ab3565b91505092915050565b60008060808385031215613c7957600080fd5b6000613c8785828601613ad1565b9250506060613c9885828601613a9e565b9150509250929050565b60008060808385031215613cb557600080fd5b6000613cc385828601613ad1565b9250506060613cd485828601613b45565b9150509250929050565b600060208284031215613cf057600080fd5b6000613cfe84828501613b5a565b91505092915050565b600060208284031215613d1957600080fd5b6000613d2784828501613b6f565b91505092915050565b600060208284031215613d4257600080fd5b6000613d5084828501613b84565b91505092915050565b600060208284031215613d6b57600080fd5b6000613d7984828501613b99565b91505092915050565b600060208284031215613d9457600080fd5b6000613da284828501613bae565b91505092915050565b600060208284031215613dbd57600080fd5b6000613dcb84828501613bc3565b91505092915050565b6000613de0838361408f565b60208301905092915050565b613df581614448565b82525050565b613e04816143c5565b82525050565b613e166060838361447e565b5050565b613e2381614391565b613e2d81846143a9565b9250613e3882614387565b8060005b83811015613e69578151613e508782613dd4565b9650613e5b8361439c565b925050600181019050613e3c565b505050505050565b613e7a816143d7565b82525050565b6000613e8d6012836143b4565b91507f7a65726f20746f6b656e7320737570706c7900000000000000000000000000006000830152602082019050919050565b6000613ecd6014836143b4565b91507f776974686472617720717565756520656d7074790000000000000000000000006000830152602082019050919050565b6000613f0d600b836143b4565b91507f6c6f636b20706572696f640000000000000000000000000000000000000000006000830152602082019050919050565b6000613f4d6010836143b4565b91507f4552525f4449565f494e5445524e414c000000000000000000000000000000006000830152602082019050919050565b6000613f8d6017836143b4565b91507f5472616e73666572206e6f74207375636365737366756c0000000000000000006000830152602082019050919050565b6000613fcd6010836143b4565b91507f4552525f4d554c5f4f564552464c4f57000000000000000000000000000000006000830152602082019050919050565b600061400d600c836143b4565b91507f4552525f4449565f5a45524f00000000000000000000000000000000000000006000830152602082019050919050565b600061404d6007836143b4565b91507f6c6f7720525054000000000000000000000000000000000000000000000000006000830152602082019050919050565b614089816143f5565b82525050565b61409881614431565b82525050565b6140a781614431565b82525050565b60006020820190506140c26000830184613dfb565b92915050565b60006020820190506140dd6000830184613dec565b92915050565b60006060820190506140f86000830186613dec565b6141056020830185613dfb565b614112604083018461409e565b949350505050565b600060808201905061412f6000830185613dec565b61413c6020830184613e0a565b9392505050565b60006040820190506141586000830185613dec565b614165602083018461409e565b9392505050565b60006060820190506141816000830186613dfb565b61418e6020830185613dfb565b61419b604083018461409e565b949350505050565b60006040820190506141b86000830185613dfb565b6141c5602083018461409e565b9392505050565b60006060820190506141e16000830184613e1a565b92915050565b60006020820190506141fc6000830184613e71565b92915050565b6000602082019050818103600083015261421b81613e80565b9050919050565b6000602082019050818103600083015261423b81613ec0565b9050919050565b6000602082019050818103600083015261425b81613f00565b9050919050565b6000602082019050818103600083015261427b81613f40565b9050919050565b6000602082019050818103600083015261429b81613f80565b9050919050565b600060208201905081810360008301526142bb81613fc0565b9050919050565b600060208201905081810360008301526142db81614000565b9050919050565b600060208201905081810360008301526142fb81614040565b9050919050565b60006020820190506143176000830184614080565b92915050565b6000602082019050614332600083018461409e565b92915050565b6000604051905081810181811067ffffffffffffffff8211171561435b57600080fd5b8060405250919050565b600067ffffffffffffffff82111561437c57600080fd5b602082029050919050565b6000819050919050565b600060039050919050565b6000602082019050919050565b600081905092915050565b600082825260208201905092915050565b60006143d082614411565b9050919050565b60008115159050919050565b60006143ee826143c5565b9050919050565b60006fffffffffffffffffffffffffffffffff82169050919050565b600073ffffffffffffffffffffffffffffffffffffffff82169050919050565b6000819050919050565b600060ff82169050919050565b60006144538261445a565b9050919050565b60006144658261446c565b9050919050565b600061447782614411565b9050919050565b82818337600083830152505050565b614496816143c5565b81146144a157600080fd5b50565b6144ad816143d7565b81146144b857600080fd5b50565b6144c4816143e3565b81146144cf57600080fd5b50565b6144db816143f5565b81146144e657600080fd5b50565b6144f281614431565b81146144fd57600080fd5b50565b6145098161443b565b811461451457600080fd5b5056fea264697066735822122037d1d4741029cf1bfc27815a9d0e9e7d00680a90b663410d4fe0c96dedbc9f4364736f6c634300060c0033",
  "immutableReferences": {},
  "source": "// SPDX-License-Identifier: UNLICENSED\r\npragma solidity ^0.6.0;\r\npragma experimental ABIEncoderV2;\r\n\r\nimport './MathLib.sol';\r\nimport './RoyaleLPstorage.sol';\r\n\r\n\r\ncontract RoyaleLP is RoyaleLPstorage, rNum {\r\n\r\n    modifier onlyOwner {\r\n        require(msg.sender == owner);\r\n        _;\r\n    }\r\n\r\n    constructor(\r\n        address[N_COINS] memory _tokens,\r\n        address _rpToken\r\n    ) public {\r\n        // Set owner\r\n        owner = msg.sender;\r\n\r\n        for(uint8 i=0; i<N_COINS; i++) {\r\n            tokens[i] = Erc20(_tokens[i]);\r\n        }\r\n\r\n        // Set RPT\r\n        rpToken = Erc20(_rpToken);\r\n    }\r\n    \r\n    /* EVENTS */\r\n    event userSupplied(\r\n        address user,\r\n        uint[N_COINS] amounts\r\n    );\r\n\r\n    event userRecieved(\r\n        address user,\r\n        uint[N_COINS] amounts\r\n    );\r\n\r\n    event userAddedToQ(\r\n        address user,\r\n        uint[N_COINS] amounts\r\n    );\r\n\r\n    event loanWithdrawn(\r\n        address by,\r\n        uint[N_COINS] requestedAmount,\r\n        uint[N_COINS] remainingAmount,\r\n        uint loanID\r\n    );\r\n\r\n    event loanFulfilled(\r\n        address by,\r\n        uint[N_COINS] requestedAmount,\r\n        uint[N_COINS] remainingAmount,\r\n        uint loanID\r\n    );\r\n\r\n    event loanRepayed(\r\n        address by,\r\n        uint[N_COINS] repayedAmount,\r\n        uint[N_COINS] amountRemaining,\r\n        uint loanID\r\n    );\r\n\r\n    event wholeLoanRepayed(\r\n        address by,\r\n        uint[N_COINS] repayedAmount,\r\n        uint[N_COINS] amountRemaining,\r\n        uint loanID\r\n    );\r\n\r\n\r\n    /* INTERNAL FUNCTIONS */\r\n\r\n    function _getBalances() internal view returns(uint256[N_COINS] memory) {\r\n        uint256[N_COINS] memory balances;\r\n\r\n        for(uint8 i=0; i<N_COINS; i++) {\r\n            balances[i] = tokens[i].balanceOf(address(this));\r\n        }\r\n\r\n        return balances;\r\n    }\r\n\r\n    function calcRptAmount(uint256[N_COINS] memory amounts, bool burn) public view returns(uint256) {\r\n        uint256 rptAmt;\r\n        uint256 total = 0;\r\n        uint256 decimal = 0;\r\n        uint256 totalSuppliedTokens;\r\n        uint256 totalRPTSupply;\r\n\r\n        totalRPTSupply = bdiv(rpToken.totalSupply(), 10**18);\r\n        \r\n        for(uint8 i=0; i<N_COINS; i++) {\r\n            decimal = tokens[i].decimals();\r\n            total += bdiv(selfBalance[i]+loanGiven[i], 10**decimal);\r\n            totalSuppliedTokens += bdiv(amounts[i], 10**decimal);\r\n        }\r\n\r\n        rptAmt = bmul(bdiv(totalSuppliedTokens, total), totalRPTSupply);\r\n\r\n        if(burn == true) {\r\n            rptAmt = rptAmt + (rptAmt * fees) / 10000;\r\n        }\r\n\r\n        return rptAmt;\r\n    }\r\n\r\n    // functions related to deposit and supply\r\n\r\n    // This function deposits the fund to Yield Optimizer\r\n    function _deposit(uint256[N_COINS] memory amounts) internal {\r\n        yldOpt.deposit(amounts);\r\n        \r\n        for(uint8 i=0; i<N_COINS; i++) {\r\n            YieldPoolBalance[i] += amounts[i];\r\n        }\r\n    }\r\n\r\n    function _supply(uint256[N_COINS] memory amounts) internal {\r\n        uint256 mintTokens;        \r\n        mintTokens = calcRptAmount(amounts, false);    \r\n        \r\n        bool result;\r\n        for(uint8 i=0; i<N_COINS; i++) {\r\n            if(amounts[i] > 0) {\r\n                result = tokens[i].transferFrom(\r\n                    msg.sender, \r\n                    address(this), \r\n                    amounts[i]\r\n                );\r\n                require(result,\"Transfer not successful\");\r\n                selfBalance[i] += amounts[i];\r\n                amountSupplied[msg.sender][i] += amounts[i];\r\n            }\r\n        }\r\n    \r\n        // rpToken.mint(msg.sender, mintTokens * 10**10);\r\n        rpToken.mint(msg.sender, mintTokens);\r\n\r\n        bool[N_COINS] memory falseArray;\r\n        depositDetails memory d = depositDetails(amounts, amounts, now, falseArray);\r\n        supplyTime[msg.sender].push(d);\r\n    }\r\n\r\n    // functions related to withdraw, withdraw queue and withdraw from Yield Optimizer\r\n\r\n    function _takeBack(address recipient) internal {\r\n        bool result;\r\n\r\n        uint256 burnAmt;\r\n\r\n        burnAmt = calcRptAmount(amountWithdraw[recipient], true);\r\n        rpToken.burn(recipient, burnAmt);\r\n\r\n        for(uint8 i=0; i<N_COINS; i++) {\r\n            if(\r\n                amountWithdraw[recipient][i] > 0 \r\n                && \r\n                amountSupplied[recipient][i] > 0\r\n            ) {\r\n                result = tokens[i].transfer(\r\n                    recipient,  \r\n                    amountWithdraw[recipient][i]\r\n                );\r\n                require(result);\r\n\r\n                amountSupplied[recipient][i] -= amountWithdraw[recipient][i];\r\n                totalWithdraw[i] -= amountWithdraw[recipient][i];\r\n                selfBalance[i] -= amountWithdraw[recipient][i];\r\n\r\n                uint x = amountWithdraw[recipient][i];\r\n                for(uint8 j=0; j<supplyTime[recipient].length; j++) {\r\n                    if(supplyTime[recipient][j].withdrawn[i] != true && x > 0) {\r\n                        if(x >= supplyTime[recipient][j].remAmt[i]) {\r\n                            x = x - supplyTime[recipient][j].remAmt[i];\r\n                            supplyTime[recipient][j].remAmt[i] = 0;\r\n                            supplyTime[recipient][j].withdrawn[i] = true;\r\n                        }\r\n                        else {\r\n                            supplyTime[recipient][j].remAmt[i] -= x;\r\n                            x = 0;\r\n                        }\r\n                    }\r\n                }\r\n\r\n                amountWithdraw[recipient][i] = 0;\r\n\r\n                isInQ[recipient] = false;\r\n                recipientCount -= 1;\r\n            }\r\n        }\r\n    }\r\n\r\n    // this will fulfill withdraw requests from the queue\r\n    function _giveBack() internal {\r\n        \r\n        uint32 counter = recipientCount;\r\n        for(uint8 i=0; i<counter; i++) {\r\n            address recipient = getFromQ();\r\n            _takeBack(recipient);\r\n        }\r\n\r\n    }\r\n\r\n    // this will add unfulfilled withdraw requests to the queue\r\n    function _takeBackQ(uint256[N_COINS] memory amounts) internal {\r\n        \r\n        for(uint256 i=0; i<N_COINS; i++) {\r\n            if(amounts[i] > 0) {\r\n                amountWithdraw[msg.sender][i] += amounts[i];\r\n                totalWithdraw[i] += amounts[i];\r\n            }\r\n        }\r\n\r\n        if(isInQ[msg.sender] != true) {\r\n            recipientCount += 1;\r\n            isInQ[msg.sender] = true;\r\n            addToQ(msg.sender);\r\n        }\r\n\r\n    }\r\n\r\n    // this will withdraw from Yield Optimizer into this contract\r\n    function _withdraw(uint256[N_COINS] memory amounts) internal {\r\n        yldOpt.withdraw(amounts);\r\n\r\n        for(uint8 i=0; i<N_COINS; i++) {\r\n            YieldPoolBalance[i] -= amounts[i];\r\n        }\r\n    }\r\n\r\n    function availableWithdraw(address addr, uint coin) public view returns(uint256) {\r\n\r\n        uint256 amount=0;\r\n        for(uint8 j=0; j<supplyTime[addr].length; j++) {\r\n            if(\r\n                ((now - supplyTime[addr][j].time) \r\n                > \r\n                (24 * 60 * 60 * lock_period))\r\n                &&\r\n                supplyTime[addr][j].withdrawn[coin] != true\r\n            ) {\r\n                amount += supplyTime[addr][j].remAmt[coin];\r\n            }\r\n        }\r\n\r\n        return amount;\r\n    }\r\n\r\n    /* USER FUNCTIONS (exposed to frontend) */\r\n\r\n    function supply(uint256[N_COINS] calldata amounts) external {\r\n        require(\r\n            calcRptAmount(amounts, false) > 0,\r\n            \"zero tokens supply\"\r\n        );\r\n        \r\n        _supply(amounts);\r\n\r\n        emit userSupplied(msg.sender, amounts);\r\n    }\r\n\r\n    function requestWithdraw(uint256[N_COINS] calldata amounts) external {\r\n        require(\r\n            calcRptAmount(amounts, false) > 0,\r\n            \"zero tokens supply\"\r\n        );\r\n\r\n        uint256 burnAmt;\r\n        burnAmt = calcRptAmount(amounts, true);\r\n        require(\r\n            rpToken.balanceOf(msg.sender) >= burnAmt, \r\n            \"low RPT\"\r\n        );\r\n        \r\n        uint256[N_COINS] memory poolBalance;\r\n        poolBalance = _getBalances();\r\n        \r\n        bool checkTime = true;\r\n        bool instant;\r\n        \r\n        // check if user is withdrawing before lock period\r\n        for(uint8 i=0; i<N_COINS; i++) {\r\n            if(amounts[i] > 0) {\r\n                if(availableWithdraw(msg.sender, i) < amounts[i]) {\r\n                    checkTime = false;\r\n                }\r\n            }\r\n        }\r\n        require(checkTime, \"lock period\");\r\n\r\n        // check if instant withdraw\r\n        for(uint8 i=0; i<N_COINS; i++) {\r\n            if(amounts[i] < poolBalance[i] && amounts[i] != 0) {\r\n                instant = true;\r\n            }\r\n        }\r\n\r\n        if(instant) {\r\n            rpToken.burn(msg.sender, burnAmt);\r\n            bool result;\r\n            for(uint8 i=0; i<N_COINS; i++) {\r\n                if(amounts[i] > 0) {\r\n                    result = tokens[i].transfer(msg.sender, amounts[i]);\r\n                    require(result);\r\n                    amountSupplied[msg.sender][i] -= amounts[i];\r\n                    selfBalance[i] -= amounts[i];\r\n                    \r\n                    uint x = amounts[i];\r\n                    for(uint8 j=0; j<supplyTime[msg.sender].length; j++) {\r\n                        if(supplyTime[msg.sender][j].withdrawn[i] != true && x > 0) {\r\n                            if(x >= supplyTime[msg.sender][j].remAmt[i]) {\r\n                                x = x - supplyTime[msg.sender][j].remAmt[i];\r\n                                supplyTime[msg.sender][j].remAmt[i] = 0;\r\n                                supplyTime[msg.sender][j].withdrawn[i] = true;\r\n                            }\r\n                            else {\r\n                                supplyTime[msg.sender][j].remAmt[i] -= x;\r\n                                x = 0;\r\n                            }\r\n                        }\r\n                    }\r\n\r\n                }\r\n            }\r\n\r\n            emit userRecieved(msg.sender, amounts);\r\n        } else {\r\n            _takeBackQ(amounts);\r\n\r\n            emit userAddedToQ(msg.sender, amounts);\r\n        }\r\n    }\r\n    \r\n    // Following two functions are called by rLoan Only\r\n    function _loanWithdraw(uint256[N_COINS] memory amounts, address _loanSeeker) public returns(bool) {\r\n        _withdraw(amounts);\r\n\r\n        for(uint8 i=0; i<N_COINS; i++) {\r\n            if(amounts[i] > 0) {\r\n                loanGiven[i] += amounts[i];\r\n                selfBalance[i] -= amounts[i];\r\n                tokens[i].transfer(_loanSeeker, amounts[i]);\r\n            }\r\n        }\r\n        return true;\r\n    }\r\n\r\n    function _loanRepayment(uint256[N_COINS] memory amounts, address _loanSeeker) public returns(bool) {\r\n        for(uint8 i=0; i<N_COINS; i++) {\r\n            if(amounts[i] > 0) {\r\n                loanGiven[i] -= amounts[i];\r\n                selfBalance[i] += amounts[i];\r\n                tokens[i].transferFrom(_loanSeeker, address(this), amounts[i]);\r\n            }\r\n        }\r\n        return true;\r\n    }\r\n\r\n    function getCurrentPoolBalance() external view returns(uint256[3] memory) {\r\n        return selfBalance;\r\n    }\r\n\r\n    function getTotalLoanGiven() external view returns(uint256[3] memory) {\r\n        return loanGiven;\r\n    }\r\n\r\n    // this function deposits without minting \r\n    function depsoitInRoyale(uint256[N_COINS] calldata amounts) external {\r\n        for(uint8 i=0;i<N_COINS;i++){\r\n            if(amounts[i]!=0){\r\n             tokens[i].transferFrom(msg.sender,address(this),amounts[i]);\r\n             selfBalance[i]+=amounts[i];\r\n            }\r\n        }\r\n    }\r\n\r\n\r\n    /* CORE FUNCTIONS (also exposed to frontend but to be called by owner only) */\r\n\r\n    function deposit() onlyOwner external {\r\n        uint256[N_COINS] memory amounts = _getBalances();\r\n        uint256 decimal;\r\n\r\n        for(uint8 i=0; i<N_COINS; i++) {\r\n            decimal = tokens[i].decimals();\r\n            if(amounts[i] > thresholdTokenAmount*10**decimal) {\r\n                amounts[i] += YieldPoolBalance[i];\r\n                amounts[i] = (amounts[i] * poolPart) / 100;\r\n                amounts[i] = amounts[i] - YieldPoolBalance[i];\r\n                tokens[i].transfer(address(yldOpt), amounts[i]);\r\n            }\r\n            else {\r\n                amounts[i] = 0;\r\n            }\r\n        }\r\n\r\n        uint8 counter = 0;\r\n        for(uint8 i=0; i<N_COINS; i++) {\r\n           if(amounts[i] != 0) {\r\n               counter++;\r\n               break;\r\n           }\r\n        }\r\n\r\n        if(counter > 0){\r\n            _deposit(amounts);\r\n        }\r\n    }\r\n\r\n    function withdraw() onlyOwner external {\r\n\r\n        uint8 counter = 0;\r\n        for(uint8 i=0; i<N_COINS; i++) {\r\n           if(totalWithdraw[i] != 0) {\r\n               counter++;\r\n               break;\r\n           }\r\n        }\r\n\r\n        require(counter > 0, \"withdraw queue empty\");\r\n\r\n        _withdraw(totalWithdraw);\r\n        _giveBack();\r\n    }\r\n\r\n    /* ADMIN FUNCTIONS */\r\n\r\n    function changePoolPart(uint128 _newPoolPart) external onlyOwner returns(bool) {\r\n        poolPart = _newPoolPart;\r\n        return true;\r\n    }\r\n\r\n    function setThresholdTokenAmount(uint256 _newThreshold) external onlyOwner returns(bool) {\r\n        thresholdTokenAmount = _newThreshold;\r\n        return true;\r\n    }\r\n\r\n    function setInitialDeposit() onlyOwner external returns(bool) {\r\n        selfBalance = _getBalances();\r\n        return true;\r\n    }\r\n\r\n    function setYieldOpt(IYieldOpt _yldOpt) onlyOwner external returns(bool) {\r\n        yldOpt = _yldOpt;\r\n        return true;\r\n    }\r\n\r\n    function setLockPeriod(uint128 lockperiod) onlyOwner external returns(bool) {\r\n        lock_period = lockperiod;\r\n        return true;\r\n    }\r\n\r\n    function setWithdrawFees(uint128 _fees) onlyOwner external returns(bool) {\r\n        fees = _fees;\r\n        return true;\r\n    }\r\n\r\n}",
  "sourcePath": "C:/Users/MayankVats/Desktop/WORK/blockchain/Royale/rlp/contracts/RoyaleLP.sol",
  "compiler": {
    "name": "solc",
    "version": "0.6.12+commit.27d51765.Emscripten.clang"
  },
  "schemaVersion": "3.3.2",
  "updatedAt": "2020-12-14T08:59:50.126Z",
  "devdoc": {
    "kind": "dev",
    "methods": {},
    "version": 1
  },
  "userdoc": {
    "kind": "user",
    "methods": {},
    "version": 1
  }
}