{
  "contractName": "RoyaleLPstorage",
  "abi": [
    {
      "inputs": [
        {
          "internalType": "uint256",
          "name": "",
          "type": "uint256"
        }
      ],
      "name": "YieldPoolBalance",
      "outputs": [
        {
          "internalType": "uint256",
          "name": "",
          "type": "uint256"
        }
      ],
      "stateMutability": "view",
      "type": "function"
    },
    {
      "inputs": [
        {
          "internalType": "address",
          "name": "",
          "type": "address"
        },
        {
          "internalType": "uint256",
          "name": "",
          "type": "uint256"
        }
      ],
      "name": "amountSupplied",
      "outputs": [
        {
          "internalType": "uint256",
          "name": "",
          "type": "uint256"
        }
      ],
      "stateMutability": "view",
      "type": "function"
    },
    {
      "inputs": [],
      "name": "fees",
      "outputs": [
        {
          "internalType": "uint128",
          "name": "",
          "type": "uint128"
        }
      ],
      "stateMutability": "view",
      "type": "function"
    },
    {
      "inputs": [
        {
          "internalType": "address",
          "name": "",
          "type": "address"
        }
      ],
      "name": "isInQ",
      "outputs": [
        {
          "internalType": "bool",
          "name": "",
          "type": "bool"
        }
      ],
      "stateMutability": "view",
      "type": "function"
    },
    {
      "inputs": [],
      "name": "loanContract",
      "outputs": [
        {
          "internalType": "address",
          "name": "",
          "type": "address"
        }
      ],
      "stateMutability": "view",
      "type": "function"
    },
    {
      "inputs": [
        {
          "internalType": "uint256",
          "name": "",
          "type": "uint256"
        }
      ],
      "name": "loanGiven",
      "outputs": [
        {
          "internalType": "uint256",
          "name": "",
          "type": "uint256"
        }
      ],
      "stateMutability": "view",
      "type": "function"
    },
    {
      "inputs": [],
      "name": "lock_period",
      "outputs": [
        {
          "internalType": "uint128",
          "name": "",
          "type": "uint128"
        }
      ],
      "stateMutability": "view",
      "type": "function"
    },
    {
      "inputs": [],
      "name": "owner",
      "outputs": [
        {
          "internalType": "address",
          "name": "",
          "type": "address"
        }
      ],
      "stateMutability": "view",
      "type": "function"
    },
    {
      "inputs": [],
      "name": "poolPart",
      "outputs": [
        {
          "internalType": "uint128",
          "name": "",
          "type": "uint128"
        }
      ],
      "stateMutability": "view",
      "type": "function"
    },
    {
      "inputs": [
        {
          "internalType": "uint256",
          "name": "",
          "type": "uint256"
        }
      ],
      "name": "profitFromYield",
      "outputs": [
        {
          "internalType": "uint256",
          "name": "",
          "type": "uint256"
        }
      ],
      "stateMutability": "view",
      "type": "function"
    },
    {
      "inputs": [
        {
          "internalType": "uint256",
          "name": "",
          "type": "uint256"
        }
      ],
      "name": "selfBalance",
      "outputs": [
        {
          "internalType": "uint256",
          "name": "",
          "type": "uint256"
        }
      ],
      "stateMutability": "view",
      "type": "function"
    },
    {
      "inputs": [],
      "name": "thresholdTokenAmount",
      "outputs": [
        {
          "internalType": "uint256",
          "name": "",
          "type": "uint256"
        }
      ],
      "stateMutability": "view",
      "type": "function"
    },
    {
      "inputs": [
        {
          "internalType": "uint256",
          "name": "",
          "type": "uint256"
        }
      ],
      "name": "totalWithdraw",
      "outputs": [
        {
          "internalType": "uint256",
          "name": "",
          "type": "uint256"
        }
      ],
      "stateMutability": "view",
      "type": "function"
    }
  ],
  "bytecode": "0x60806040526001805560006002556019600460006101000a8154816fffffffffffffffffffffffffffffffff02191690836fffffffffffffffffffffffffffffffff160217905550605f600460106101000a8154816fffffffffffffffffffffffffffffffff02191690836fffffffffffffffffffffffffffffffff1602179055506101f460115534801561009357600080fd5b5061059b806100a36000396000f3fe608060405234801561001057600080fd5b50600436106100cf5760003560e01c8063905f692e1161008c578063c89eb03611610066578063c89eb0361461031e578063d8c76af51461033c578063db28bfd01461037e578063f83e9a20146103c0576100cf565b8063905f692e146102325780639af1d35a1461028c578063c23177b2146102bc576100cf565b8063253f284b146100d457806331805a2b14610108578063698504241461014a5780636d6ea2571461018c5780638da5cb5b146101ce5780638e9b032614610202575b600080fd5b6100dc6103f0565b604051808273ffffffffffffffffffffffffffffffffffffffff16815260200191505060405180910390f35b6101346004803603602081101561011e57600080fd5b8101908080359060200190929190505050610416565b6040518082815260200191505060405180910390f35b6101766004803603602081101561016057600080fd5b810190808035906020019092919050505061042e565b6040518082815260200191505060405180910390f35b6101b8600480360360208110156101a257600080fd5b8101908080359060200190929190505050610446565b6040518082815260200191505060405180910390f35b6101d661045e565b604051808273ffffffffffffffffffffffffffffffffffffffff16815260200191505060405180910390f35b61020a610484565b60405180826fffffffffffffffffffffffffffffffff16815260200191505060405180910390f35b6102746004803603602081101561024857600080fd5b81019080803573ffffffffffffffffffffffffffffffffffffffff1690602001909291905050506104a6565b60405180821515815260200191505060405180910390f35b6102946104c6565b60405180826fffffffffffffffffffffffffffffffff16815260200191505060405180910390f35b610308600480360360408110156102d257600080fd5b81019080803573ffffffffffffffffffffffffffffffffffffffff169060200190929190803590602001909291905050506104e8565b6040518082815260200191505060405180910390f35b61032661050d565b6040518082815260200191505060405180910390f35b6103686004803603602081101561035257600080fd5b8101908080359060200190929190505050610513565b6040518082815260200191505060405180910390f35b6103aa6004803603602081101561039457600080fd5b810190808035906020019092919050505061052b565b6040518082815260200191505060405180910390f35b6103c8610543565b60405180826fffffffffffffffffffffffffffffffff16815260200191505060405180910390f35b602160009054906101000a900473ffffffffffffffffffffffffffffffffffffffff1681565b600e816003811061042357fe5b016000915090505481565b6005816003811061043b57fe5b016000915090505481565b601e816003811061045357fe5b016000915090505481565b600860009054906101000a900473ffffffffffffffffffffffffffffffffffffffff1681565b600460109054906101000a90046fffffffffffffffffffffffffffffffff1681565b60196020528060005260406000206000915054906101000a900460ff1681565b600460009054906101000a90046fffffffffffffffffffffffffffffffff1681565b6016602052816000526040600020816003811061050157fe5b01600091509150505481565b60115481565b6012816003811061052057fe5b016000915090505481565b601b816003811061053857fe5b016000915090505481565b601560009054906101000a90046fffffffffffffffffffffffffffffffff168156fea2646970667358221220747c42627813c7d2b54e9744c133ace6a96b5ccbc5461e19eccebd64b465e88264736f6c634300060c0033",
  "immutableReferences": {},
  "source": "// SPDX-License-Identifier: UNLICENSED\r\npragma solidity ^0.6.0;\r\n\r\nimport '../Interfaces/Erc20Interface.sol';\r\nimport '../Interfaces/ControllerInterface.sol';\r\nimport '../Interfaces/rStrategyInterface.sol';\r\n\r\ncontract WithdrawQueue {\r\n    mapping(uint256 => address) withdrawQ;\r\n    uint256 first = 1;\r\n    uint256 last = 0;\r\n    address data;\r\n\r\n    function addToQ(address addr) internal {\r\n        last += 1;\r\n        withdrawQ[last] = addr;\r\n    }\r\n\r\n    function getFromQ() internal returns(address) {\r\n        require(last >= first);\r\n\r\n        data = withdrawQ[first];\r\n\r\n        delete withdrawQ[first];\r\n        first += 1;\r\n\r\n        return data;\r\n    }\r\n}\r\n\r\ncontract RoyaleLPstorage  is WithdrawQueue {\r\n\r\n\r\n    //varaible for pool features\r\n\r\n    uint128 constant N_COINS = 3;\r\n\r\n    uint128 public fees = 25;\r\n\r\n    uint128 public poolPart = 95;\r\n\r\n    uint256[N_COINS] public selfBalance;\r\n\r\n    address public owner;\r\n\r\n    Erc20[N_COINS] tokens;\r\n\r\n    Erc20 rpToken;\r\n\r\n    //varaible for Yield Optimization\r\n\r\n    rControllerI controller;\r\n\r\n    uint[N_COINS] public YieldPoolBalance;\r\n\r\n    uint256 public thresholdTokenAmount = 500;\r\n\r\n    uint256[N_COINS] public profitFromYield;\r\n\r\n\r\n   //Varaible for user related to supply and withdraw\r\n    uint128 public lock_period;\r\n\r\n    struct depositDetails {\r\n        uint256[N_COINS] amount;\r\n        uint256[N_COINS] remAmt;\r\n        uint256 time;\r\n        bool[N_COINS] withdrawn;\r\n    }\r\n\r\n    mapping(address => uint256[N_COINS]) public amountSupplied;\r\n    mapping(address => depositDetails[]) supplyTime;\r\n\r\n    mapping(address => uint256[N_COINS]) amountWithdraw;\r\n    mapping(address => bool) public isInQ;\r\n    uint32 recipientCount;\r\n    uint256[N_COINS] public totalWithdraw;\r\n\r\n\r\n    //Varaible to store total loan given\r\n    uint256[N_COINS] public loanGiven;  \r\n\r\n\r\n    //varaible realated to loan contract\r\n\r\n     address public loanContract;\r\n}",
  "sourcePath": "C:\\Users\\MayankVats\\Desktop\\WORK\\blockchain\\Royale\\rlp\\contracts\\RoyaleLPstorage.sol",
  "compiler": {
    "name": "solc",
    "version": "0.6.12+commit.27d51765.Emscripten.clang"
  },
  "schemaVersion": "3.3.2",
  "updatedAt": "2020-12-29T04:30:01.456Z",
  "devdoc": {
    "kind": "dev",
    "methods": {},
    "version": 1
  },
  "userdoc": {
    "kind": "user",
    "methods": {},
    "version": 1
  }
}