{
  "contractName": "RoyaleLP",
  "abi": [
    {
      "inputs": [
        {
          "internalType": "address[3]",
          "name": "_tokens",
          "type": "address[3]"
        },
        {
          "internalType": "address",
          "name": "_rpToken",
          "type": "address"
        }
      ],
      "stateMutability": "nonpayable",
      "type": "constructor"
    },
    {
      "anonymous": false,
      "inputs": [
        {
          "indexed": false,
          "internalType": "address",
          "name": "user",
          "type": "address"
        },
        {
          "indexed": false,
          "internalType": "uint256[3]",
          "name": "amounts",
          "type": "uint256[3]"
        }
      ],
      "name": "userAddedToQ",
      "type": "event"
    },
    {
      "anonymous": false,
      "inputs": [
        {
          "indexed": false,
          "internalType": "address",
          "name": "user",
          "type": "address"
        },
        {
          "indexed": false,
          "internalType": "uint256[3]",
          "name": "amounts",
          "type": "uint256[3]"
        }
      ],
      "name": "userRecieved",
      "type": "event"
    },
    {
      "anonymous": false,
      "inputs": [
        {
          "indexed": false,
          "internalType": "address",
          "name": "user",
          "type": "address"
        },
        {
          "indexed": false,
          "internalType": "uint256[3]",
          "name": "amounts",
          "type": "uint256[3]"
        }
      ],
      "name": "userSupplied",
      "type": "event"
    },
    {
      "inputs": [],
      "name": "BASE_DECIMAL",
      "outputs": [
        {
          "internalType": "uint256",
          "name": "",
          "type": "uint256"
        }
      ],
      "stateMutability": "view",
      "type": "function"
    },
    {
      "inputs": [
        {
          "internalType": "uint256",
          "name": "",
          "type": "uint256"
        }
      ],
      "name": "YieldPoolBalance",
      "outputs": [
        {
          "internalType": "uint256",
          "name": "",
          "type": "uint256"
        }
      ],
      "stateMutability": "view",
      "type": "function"
    },
    {
      "inputs": [
        {
          "internalType": "address",
          "name": "",
          "type": "address"
        },
        {
          "internalType": "uint256",
          "name": "",
          "type": "uint256"
        }
      ],
      "name": "amountSupplied",
      "outputs": [
        {
          "internalType": "uint256",
          "name": "",
          "type": "uint256"
        }
      ],
      "stateMutability": "view",
      "type": "function"
    },
    {
      "inputs": [],
      "name": "fees",
      "outputs": [
        {
          "internalType": "uint128",
          "name": "",
          "type": "uint128"
        }
      ],
      "stateMutability": "view",
      "type": "function"
    },
    {
      "inputs": [
        {
          "internalType": "address",
          "name": "",
          "type": "address"
        }
      ],
      "name": "isInQ",
      "outputs": [
        {
          "internalType": "bool",
          "name": "",
          "type": "bool"
        }
      ],
      "stateMutability": "view",
      "type": "function"
    },
    {
      "inputs": [
        {
          "internalType": "uint256",
          "name": "",
          "type": "uint256"
        }
      ],
      "name": "loanGiven",
      "outputs": [
        {
          "internalType": "uint256",
          "name": "",
          "type": "uint256"
        }
      ],
      "stateMutability": "view",
      "type": "function"
    },
    {
      "inputs": [],
      "name": "lock_period",
      "outputs": [
        {
          "internalType": "uint128",
          "name": "",
          "type": "uint128"
        }
      ],
      "stateMutability": "view",
      "type": "function"
    },
    {
      "inputs": [],
      "name": "owner",
      "outputs": [
        {
          "internalType": "address",
          "name": "",
          "type": "address"
        }
      ],
      "stateMutability": "view",
      "type": "function"
    },
    {
      "inputs": [],
      "name": "poolPart",
      "outputs": [
        {
          "internalType": "uint128",
          "name": "",
          "type": "uint128"
        }
      ],
      "stateMutability": "view",
      "type": "function"
    },
    {
      "inputs": [
        {
          "internalType": "uint256",
          "name": "",
          "type": "uint256"
        }
      ],
      "name": "selfBalance",
      "outputs": [
        {
          "internalType": "uint256",
          "name": "",
          "type": "uint256"
        }
      ],
      "stateMutability": "view",
      "type": "function"
    },
    {
      "inputs": [],
      "name": "thresholdTokenAmount",
      "outputs": [
        {
          "internalType": "uint256",
          "name": "",
          "type": "uint256"
        }
      ],
      "stateMutability": "view",
      "type": "function"
    },
    {
      "inputs": [
        {
          "internalType": "uint256",
          "name": "",
          "type": "uint256"
        }
      ],
      "name": "totalWithdraw",
      "outputs": [
        {
          "internalType": "uint256",
          "name": "",
          "type": "uint256"
        }
      ],
      "stateMutability": "view",
      "type": "function"
    },
    {
      "inputs": [
        {
          "internalType": "uint256[3]",
          "name": "amounts",
          "type": "uint256[3]"
        },
        {
          "internalType": "bool",
          "name": "burn",
          "type": "bool"
        }
      ],
      "name": "calcRptAmount",
      "outputs": [
        {
          "internalType": "uint256",
          "name": "",
          "type": "uint256"
        }
      ],
      "stateMutability": "view",
      "type": "function"
    },
    {
      "inputs": [
        {
          "internalType": "address",
          "name": "addr",
          "type": "address"
        },
        {
          "internalType": "uint256",
          "name": "coin",
          "type": "uint256"
        }
      ],
      "name": "availableWithdraw",
      "outputs": [
        {
          "internalType": "uint256",
          "name": "",
          "type": "uint256"
        }
      ],
      "stateMutability": "view",
      "type": "function"
    },
    {
      "inputs": [
        {
          "internalType": "uint256[3]",
          "name": "amounts",
          "type": "uint256[3]"
        }
      ],
      "name": "supply",
      "outputs": [],
      "stateMutability": "nonpayable",
      "type": "function"
    },
    {
      "inputs": [
        {
          "internalType": "uint256[3]",
          "name": "amounts",
          "type": "uint256[3]"
        }
      ],
      "name": "requestWithdraw",
      "outputs": [],
      "stateMutability": "nonpayable",
      "type": "function"
    },
    {
      "inputs": [
        {
          "internalType": "uint256[3]",
          "name": "amounts",
          "type": "uint256[3]"
        },
        {
          "internalType": "address",
          "name": "_loanSeeker",
          "type": "address"
        }
      ],
      "name": "_loanWithdraw",
      "outputs": [
        {
          "internalType": "bool",
          "name": "",
          "type": "bool"
        }
      ],
      "stateMutability": "nonpayable",
      "type": "function"
    },
    {
      "inputs": [
        {
          "internalType": "uint256[3]",
          "name": "amounts",
          "type": "uint256[3]"
        },
        {
          "internalType": "address",
          "name": "_loanSeeker",
          "type": "address"
        }
      ],
      "name": "_loanRepayment",
      "outputs": [
        {
          "internalType": "bool",
          "name": "",
          "type": "bool"
        }
      ],
      "stateMutability": "nonpayable",
      "type": "function"
    },
    {
      "inputs": [],
      "name": "getCurrentPoolBalance",
      "outputs": [
        {
          "internalType": "uint256[3]",
          "name": "",
          "type": "uint256[3]"
        }
      ],
      "stateMutability": "view",
      "type": "function"
    },
    {
      "inputs": [],
      "name": "getTotalLoanGiven",
      "outputs": [
        {
          "internalType": "uint256[3]",
          "name": "",
          "type": "uint256[3]"
        }
      ],
      "stateMutability": "view",
      "type": "function"
    },
    {
      "inputs": [
        {
          "internalType": "uint256[3]",
          "name": "amounts",
          "type": "uint256[3]"
        }
      ],
      "name": "depsoitInRoyale",
      "outputs": [],
      "stateMutability": "nonpayable",
      "type": "function"
    },
    {
      "inputs": [],
      "name": "deposit",
      "outputs": [],
      "stateMutability": "nonpayable",
      "type": "function"
    },
    {
      "inputs": [],
      "name": "withdraw",
      "outputs": [],
      "stateMutability": "nonpayable",
      "type": "function"
    },
    {
      "inputs": [
        {
          "internalType": "uint128",
          "name": "_newPoolPart",
          "type": "uint128"
        }
      ],
      "name": "changePoolPart",
      "outputs": [
        {
          "internalType": "bool",
          "name": "",
          "type": "bool"
        }
      ],
      "stateMutability": "nonpayable",
      "type": "function"
    },
    {
      "inputs": [
        {
          "internalType": "uint256",
          "name": "_newThreshold",
          "type": "uint256"
        }
      ],
      "name": "setThresholdTokenAmount",
      "outputs": [
        {
          "internalType": "bool",
          "name": "",
          "type": "bool"
        }
      ],
      "stateMutability": "nonpayable",
      "type": "function"
    },
    {
      "inputs": [],
      "name": "setInitialDeposit",
      "outputs": [
        {
          "internalType": "bool",
          "name": "",
          "type": "bool"
        }
      ],
      "stateMutability": "nonpayable",
      "type": "function"
    },
    {
      "inputs": [
        {
          "internalType": "contract rControllerI",
          "name": "_controller",
          "type": "address"
        }
      ],
      "name": "setController",
      "outputs": [
        {
          "internalType": "bool",
          "name": "",
          "type": "bool"
        }
      ],
      "stateMutability": "nonpayable",
      "type": "function"
    },
    {
      "inputs": [
        {
          "internalType": "uint128",
          "name": "lockperiod",
          "type": "uint128"
        }
      ],
      "name": "setLockPeriod",
      "outputs": [
        {
          "internalType": "bool",
          "name": "",
          "type": "bool"
        }
      ],
      "stateMutability": "nonpayable",
      "type": "function"
    },
    {
      "inputs": [
        {
          "internalType": "uint128",
          "name": "_fees",
          "type": "uint128"
        }
      ],
      "name": "setWithdrawFees",
      "outputs": [
        {
          "internalType": "bool",
          "name": "",
          "type": "bool"
        }
      ],
      "stateMutability": "nonpayable",
      "type": "function"
    }
  ],
  "bytecode": "0x60806040526001805560006002556019600460006101000a8154816fffffffffffffffffffffffffffffffff02191690836fffffffffffffffffffffffffffffffff160217905550605f600460106101000a8154816fffffffffffffffffffffffffffffffff02191690836fffffffffffffffffffffffffffffffff1602179055506101f46011553480156200009457600080fd5b5060405162004ac638038062004ac68339818101604052810190620000ba91906200026f565b33600960006101000a81548173ffffffffffffffffffffffffffffffffffffffff021916908373ffffffffffffffffffffffffffffffffffffffff16021790555060005b60036fffffffffffffffffffffffffffffffff168160ff1610156200019057828160ff16600381106200012d57fe5b6020020151600a8260ff16600381106200014357fe5b0160006101000a81548173ffffffffffffffffffffffffffffffffffffffff021916908373ffffffffffffffffffffffffffffffffffffffff1602179055508080600101915050620000fe565b5080600d60006101000a81548173ffffffffffffffffffffffffffffffffffffffff021916908373ffffffffffffffffffffffffffffffffffffffff16021790555050506200034f565b600081519050620001eb8162000335565b92915050565b600082601f8301126200020357600080fd5b60036200021a6200021482620002de565b620002b0565b915081838560208402820111156200023157600080fd5b60005b838110156200026557816200024a8882620001da565b84526020840193506020830192505060018101905062000234565b5050505092915050565b600080608083850312156200028357600080fd5b60006200029385828601620001f1565b9250506060620002a685828601620001da565b9150509250929050565b6000604051905081810181811067ffffffffffffffff82111715620002d457600080fd5b8060405250919050565b600067ffffffffffffffff821115620002f657600080fd5b602082029050919050565b60006200030e8262000315565b9050919050565b600073ffffffffffffffffffffffffffffffffffffffff82169050919050565b620003408162000301565b81146200034c57600080fd5b50565b614767806200035f6000396000f3fe608060405234801561001057600080fd5b50600436106101cf5760003560e01c80638da5cb5b11610104578063b8b10680116100a2578063d0e30db011610071578063d0e30db014610592578063db28bfd01461059c578063eacd7afc146105cc578063f83e9a20146105fc576101cf565b8063b8b10680146104f6578063c23177b214610526578063c277b65714610556578063c89eb03614610574576101cf565b806392eefe9b116100de57806392eefe9b146104485780639af1d35a14610478578063a6d8fcb214610496578063a70200bd146104c6576101cf565b80638da5cb5b146103dc5780638e9b0326146103fa578063905f692e14610418576101cf565b806352f6e238116101715780636d6ea2571161014b5780636d6ea2571461032e578063800012881461035e57806381f433f01461038e5780638af81478146103be576101cf565b806352f6e238146102b057806369850424146102ce5780636b9f1ef6146102fe576101cf565b8063224a1418116101ad578063224a14181461023e57806331805a2b1461025a5780633ccfd60b1461028a57806347d4a6a814610294576101cf565b80630d88122c146101d457806311e87188146101f0578063147453e91461020e575b600080fd5b6101ee60048036038101906101e99190613e0c565b61061a565b005b6101f861071a565b604051610205919061439b565b60405180910390f35b61022860048036038101906102239190613e71565b610765565b60405161023591906144ec565b60405180910390f35b61025860048036038101906102539190613e0c565b6109d0565b005b610274600480360381019061026f9190613f28565b610b24565b60405161028191906144ec565b60405180910390f35b610292610b3c565b005b6102ae60048036038101906102a99190613e0c565b610c83565b005b6102b8611633565b6040516102c591906143b6565b60405180910390f35b6102e860048036038101906102e39190613f28565b6116af565b6040516102f591906144ec565b60405180910390f35b61031860048036038101906103139190613eff565b6116c7565b60405161032591906143b6565b60405180910390f35b61034860048036038101906103439190613f28565b611765565b60405161035591906144ec565b60405180910390f35b61037860048036038101906103739190613e35565b61177d565b60405161038591906143b6565b60405180910390f35b6103a860048036038101906103a39190613eff565b611910565b6040516103b591906143b6565b60405180910390f35b6103c66119ae565b6040516103d391906144ec565b60405180910390f35b6103e46119ba565b6040516103f1919061427c565b60405180910390f35b6104026119e0565b60405161040f91906144d1565b60405180910390f35b610432600480360381019061042d9190613d7e565b611a02565b60405161043f91906143b6565b60405180910390f35b610462600480360381019061045d9190613ed6565b611a22565b60405161046f91906143b6565b60405180910390f35b610480611ac8565b60405161048d91906144d1565b60405180910390f35b6104b060048036038101906104ab9190613da7565b611aea565b6040516104bd91906144ec565b60405180910390f35b6104e060048036038101906104db9190613eff565b611cf5565b6040516104ed91906143b6565b60405180910390f35b610510600480360381019061050b9190613f28565b611d93565b60405161051d91906143b6565b60405180910390f35b610540600480360381019061053b9190613da7565b611dff565b60405161054d91906144ec565b60405180910390f35b61055e611e24565b60405161056b919061439b565b60405180910390f35b61057c611e6f565b60405161058991906144ec565b60405180910390f35b61059a611e75565b005b6105b660048036038101906105b19190613f28565b6122e4565b6040516105c391906144ec565b60405180910390f35b6105e660048036038101906105e19190613e35565b6122fc565b6040516105f391906143b6565b60405180910390f35b610604612493565b60405161061191906144d1565b60405180910390f35b600061065e826003806020026040519081016040528092919082600360200280828437600081840152601f19601f8201169050808301925050505050506000610765565b1161069e576040517f08c379a0000000000000000000000000000000000000000000000000000000008152600401610695906143d1565b60405180910390fd5b6106de816003806020026040519081016040528092919082600360200280828437600081840152601f19601f8201169050808301925050505050506124b5565b7fe7f2330a99451f199f91ed2ac09887e25894cb0e14021fe5d29bc959e7283d0e338260405161070f9291906142e9565b60405180910390a150565b6107226139fd565b600560038060200260405190810160405280929190826003801561075b576020028201915b815481526020019060010190808311610747575b5050505050905090565b60008060008060008061081f600d60009054906101000a900473ffffffffffffffffffffffffffffffffffffffff1673ffffffffffffffffffffffffffffffffffffffff166318160ddd6040518163ffffffff1660e01b815260040160206040518083038186803b1580156107d957600080fd5b505afa1580156107ed573d6000803e3d6000fd5b505050506040513d601f19601f820116820180604052508101906108119190613f51565b670de0b6b3a7640000612851565b905060005b60036fffffffffffffffffffffffffffffffff168160ff16101561095c57600a8160ff166003811061085257fe5b0160009054906101000a900473ffffffffffffffffffffffffffffffffffffffff1673ffffffffffffffffffffffffffffffffffffffff1663313ce5676040518163ffffffff1660e01b815260040160206040518083038186803b1580156108b957600080fd5b505afa1580156108cd573d6000803e3d6000fd5b505050506040513d601f19601f820116820180604052508101906108f19190613f7a565b60ff169350610927601b8260ff166003811061090957fe5b015460058360ff166003811061091b57fe5b01540185600a0a612851565b8501945061094b898260ff166003811061093d57fe5b602002015185600a0a612851565b830192508080600101915050610824565b5061097061096a8386612851565b82612971565b94506001151587151514156109c257612710600460009054906101000a90046fffffffffffffffffffffffffffffffff166fffffffffffffffffffffffffffffffff168602816109bc57fe5b04850194505b849550505050505092915050565b60005b60036fffffffffffffffffffffffffffffffff168160ff161015610b20576000828260ff1660038110610a0257fe5b602002013514610b1357600a8160ff1660038110610a1c57fe5b0160009054906101000a900473ffffffffffffffffffffffffffffffffffffffff1673ffffffffffffffffffffffffffffffffffffffff166323b872dd3330858560ff1660038110610a6a57fe5b60200201356040518463ffffffff1660e01b8152600401610a8d939291906142b2565b602060405180830381600087803b158015610aa757600080fd5b505af1158015610abb573d6000803e3d6000fd5b505050506040513d601f19601f82011682018060405250810190610adf9190613ead565b50818160ff1660038110610aef57fe5b602002013560058260ff1660038110610b0457fe5b01600082825401925050819055505b80806001019150506109d3565b5050565b600e8160038110610b3157fe5b016000915090505481565b600960009054906101000a900473ffffffffffffffffffffffffffffffffffffffff1673ffffffffffffffffffffffffffffffffffffffff163373ffffffffffffffffffffffffffffffffffffffff1614610b9657600080fd5b6000805b60036fffffffffffffffffffffffffffffffff168160ff161015610beb57600060188260ff1660038110610bca57fe5b015414610bde578180600101925050610beb565b8080600101915050610b9a565b5060008160ff1611610c32576040517f08c379a0000000000000000000000000000000000000000000000000000000008152600401610c29906143f1565b60405180910390fd5b610c786018600380602002604051908101604052809291908260038015610c6e576020028201915b815481526020019060010190808311610c5a575b5050505050612a4d565b610c80612b3e565b50565b6000610cc7826003806020026040519081016040528092919082600360200280828437600081840152601f19601f8201169050808301925050505050506000610765565b11610d07576040517f08c379a0000000000000000000000000000000000000000000000000000000008152600401610cfe906143d1565b60405180910390fd5b6000610d4b826003806020026040519081016040528092919082600360200280828437600081840152601f19601f8201169050808301925050505050506001610765565b905080600d60009054906101000a900473ffffffffffffffffffffffffffffffffffffffff1673ffffffffffffffffffffffffffffffffffffffff166370a08231336040518263ffffffff1660e01b8152600401610da99190614297565b60206040518083038186803b158015610dc157600080fd5b505afa158015610dd5573d6000803e3d6000fd5b505050506040513d601f19601f82011682018060405250810190610df99190613f51565b1015610e3a576040517f08c379a0000000000000000000000000000000000000000000000000000000008152600401610e31906144b1565b60405180910390fd5b610e426139fd565b610e4a612b90565b9050600060019050600080600090505b60036fffffffffffffffffffffffffffffffff168160ff161015610ece576000868260ff1660038110610e8957fe5b60200201351115610ec157858160ff1660038110610ea357fe5b6020020135610eb5338360ff16611aea565b1015610ec057600092505b5b8080600101915050610e5a565b5081610f0f576040517f08c379a0000000000000000000000000000000000000000000000000000000008152600401610f0690614411565b60405180910390fd5b60005b60036fffffffffffffffffffffffffffffffff168160ff161015610f9057838160ff1660038110610f3f57fe5b6020020151868260ff1660038110610f5357fe5b6020020135108015610f7957506000868260ff1660038110610f7157fe5b602002013514155b15610f8357600191505b8080600101915050610f12565b5080156115b257600d60009054906101000a900473ffffffffffffffffffffffffffffffffffffffff1673ffffffffffffffffffffffffffffffffffffffff16639dc29fac33866040518363ffffffff1660e01b8152600401610ff4929190614312565b600060405180830381600087803b15801561100e57600080fd5b505af1158015611022573d6000803e3d6000fd5b50505050600080600090505b60036fffffffffffffffffffffffffffffffff168160ff161015611572576000878260ff166003811061105d57fe5b6020020135111561156557600a8160ff166003811061107857fe5b0160009054906101000a900473ffffffffffffffffffffffffffffffffffffffff1673ffffffffffffffffffffffffffffffffffffffff1663a9059cbb33898460ff16600381106110c557fe5b60200201356040518363ffffffff1660e01b81526004016110e7929190614312565b602060405180830381600087803b15801561110157600080fd5b505af1158015611115573d6000803e3d6000fd5b505050506040513d601f19601f820116820180604052508101906111399190613ead565b91508161114557600080fd5b868160ff166003811061115457fe5b6020020135601360003373ffffffffffffffffffffffffffffffffffffffff1673ffffffffffffffffffffffffffffffffffffffff1681526020019081526020016000208260ff16600381106111a657fe5b0160008282540392505081905550868160ff16600381106111c357fe5b602002013560058260ff16600381106111d857fe5b01600082825403925050819055506000878260ff16600381106111f757fe5b6020020135905060005b601460003373ffffffffffffffffffffffffffffffffffffffff1673ffffffffffffffffffffffffffffffffffffffff168152602001908152602001600020805490508160ff1610156115625760011515601460003373ffffffffffffffffffffffffffffffffffffffff1673ffffffffffffffffffffffffffffffffffffffff1681526020019081526020016000208260ff168154811061129f57fe5b90600052602060002090600802016007018460ff16600381106112be57fe5b602091828204019190069054906101000a900460ff161515141580156112e45750600082115b1561155557601460003373ffffffffffffffffffffffffffffffffffffffff1673ffffffffffffffffffffffffffffffffffffffff1681526020019081526020016000208160ff168154811061133657fe5b90600052602060002090600802016003018360ff166003811061135557fe5b015482106114d457601460003373ffffffffffffffffffffffffffffffffffffffff1673ffffffffffffffffffffffffffffffffffffffff1681526020019081526020016000208160ff16815481106113aa57fe5b90600052602060002090600802016003018360ff16600381106113c957fe5b0154820391506000601460003373ffffffffffffffffffffffffffffffffffffffff1673ffffffffffffffffffffffffffffffffffffffff1681526020019081526020016000208260ff168154811061141e57fe5b90600052602060002090600802016003018460ff166003811061143d57fe5b01819055506001601460003373ffffffffffffffffffffffffffffffffffffffff1673ffffffffffffffffffffffffffffffffffffffff1681526020019081526020016000208260ff168154811061149157fe5b90600052602060002090600802016007018460ff16600381106114b057fe5b602091828204019190066101000a81548160ff021916908315150217905550611554565b81601460003373ffffffffffffffffffffffffffffffffffffffff1673ffffffffffffffffffffffffffffffffffffffff1681526020019081526020016000208260ff168154811061152257fe5b90600052602060002090600802016003018460ff166003811061154157fe5b0160008282540392505081905550600091505b5b8080600101915050611201565b50505b808060010191505061102e565b507fe9c01f7dea3ef08b44263b3cf5963eb42309e5fb5bec9305dbe12b82f37b519c33876040516115a49291906142e9565b60405180910390a15061162c565b6115f2856003806020026040519081016040528092919082600360200280828437600081840152601f19601f820116905080830192505050505050612ca8565b7fe2d5e24e56e4f05473adb8bb616473de3894beab8011d32382a638d1d2617c9333866040516116239291906142e9565b60405180910390a15b5050505050565b6000600960009054906101000a900473ffffffffffffffffffffffffffffffffffffffff1673ffffffffffffffffffffffffffffffffffffffff163373ffffffffffffffffffffffffffffffffffffffff161461168f57600080fd5b611697612b90565b60059060036116a7929190613a1f565b506001905090565b600581600381106116bc57fe5b016000915090505481565b6000600960009054906101000a900473ffffffffffffffffffffffffffffffffffffffff1673ffffffffffffffffffffffffffffffffffffffff163373ffffffffffffffffffffffffffffffffffffffff161461172357600080fd5b81600460006101000a8154816fffffffffffffffffffffffffffffffff02191690836fffffffffffffffffffffffffffffffff16021790555060019050919050565b601b816003811061177257fe5b016000915090505481565b600080600090505b60036fffffffffffffffffffffffffffffffff168160ff161015611905576000848260ff16600381106117b457fe5b602002015111156118f857838160ff16600381106117ce57fe5b6020020151601b8260ff16600381106117e357fe5b0160008282540392505081905550838160ff166003811061180057fe5b602002015160058260ff166003811061181557fe5b0160008282540192505081905550600a8160ff166003811061183357fe5b0160009054906101000a900473ffffffffffffffffffffffffffffffffffffffff1673ffffffffffffffffffffffffffffffffffffffff166323b872dd8430878560ff166003811061188157fe5b60200201516040518463ffffffff1660e01b81526004016118a49392919061433b565b602060405180830381600087803b1580156118be57600080fd5b505af11580156118d2573d6000803e3d6000fd5b505050506040513d601f19601f820116820180604052508101906118f69190613ead565b505b8080600101915050611785565b506001905092915050565b6000600960009054906101000a900473ffffffffffffffffffffffffffffffffffffffff1673ffffffffffffffffffffffffffffffffffffffff163373ffffffffffffffffffffffffffffffffffffffff161461196c57600080fd5b81601260006101000a8154816fffffffffffffffffffffffffffffffff02191690836fffffffffffffffffffffffffffffffff16021790555060019050919050565b670de0b6b3a764000081565b600960009054906101000a900473ffffffffffffffffffffffffffffffffffffffff1681565b600460109054906101000a90046fffffffffffffffffffffffffffffffff1681565b60166020528060005260406000206000915054906101000a900460ff1681565b6000600960009054906101000a900473ffffffffffffffffffffffffffffffffffffffff1673ffffffffffffffffffffffffffffffffffffffff163373ffffffffffffffffffffffffffffffffffffffff1614611a7e57600080fd5b81600860006101000a81548173ffffffffffffffffffffffffffffffffffffffff021916908373ffffffffffffffffffffffffffffffffffffffff16021790555060019050919050565b600460009054906101000a90046fffffffffffffffffffffffffffffffff1681565b6000806000905060005b601460008673ffffffffffffffffffffffffffffffffffffffff1673ffffffffffffffffffffffffffffffffffffffff168152602001908152602001600020805490508160ff161015611cea57601260009054906101000a90046fffffffffffffffffffffffffffffffff1662015180026fffffffffffffffffffffffffffffffff16601460008773ffffffffffffffffffffffffffffffffffffffff1673ffffffffffffffffffffffffffffffffffffffff1681526020019081526020016000208260ff1681548110611bc457fe5b9060005260206000209060080201600601544203118015611c68575060011515601460008773ffffffffffffffffffffffffffffffffffffffff1673ffffffffffffffffffffffffffffffffffffffff1681526020019081526020016000208260ff1681548110611c3157fe5b90600052602060002090600802016007018560038110611c4d57fe5b602091828204019190069054906101000a900460ff16151514155b15611cdd57601460008673ffffffffffffffffffffffffffffffffffffffff1673ffffffffffffffffffffffffffffffffffffffff1681526020019081526020016000208160ff1681548110611cba57fe5b90600052602060002090600802016003018460038110611cd657fe5b0154820191505b8080600101915050611af4565b508091505092915050565b6000600960009054906101000a900473ffffffffffffffffffffffffffffffffffffffff1673ffffffffffffffffffffffffffffffffffffffff163373ffffffffffffffffffffffffffffffffffffffff1614611d5157600080fd5b81600460106101000a8154816fffffffffffffffffffffffffffffffff02191690836fffffffffffffffffffffffffffffffff16021790555060019050919050565b6000600960009054906101000a900473ffffffffffffffffffffffffffffffffffffffff1673ffffffffffffffffffffffffffffffffffffffff163373ffffffffffffffffffffffffffffffffffffffff1614611def57600080fd5b8160118190555060019050919050565b60136020528160005260406000208160038110611e1857fe5b01600091509150505481565b611e2c6139fd565b601b600380602002604051908101604052809291908260038015611e65576020028201915b815481526020019060010190808311611e51575b5050505050905090565b60115481565b600960009054906101000a900473ffffffffffffffffffffffffffffffffffffffff1673ffffffffffffffffffffffffffffffffffffffff163373ffffffffffffffffffffffffffffffffffffffff1614611ecf57600080fd5b611ed76139fd565b611edf612b90565b90506000611eeb613a5f565b600860009054906101000a900473ffffffffffffffffffffffffffffffffffffffff1673ffffffffffffffffffffffffffffffffffffffff1663b49a60bb6040518163ffffffff1660e01b8152600401606060405180830381600087803b158015611f5557600080fd5b505af1158015611f69573d6000803e3d6000fd5b505050506040513d601f19601f82011682018060405250810190611f8d9190613de3565b905060005b60036fffffffffffffffffffffffffffffffff168160ff16101561226f57600a8160ff1660038110611fc057fe5b0160009054906101000a900473ffffffffffffffffffffffffffffffffffffffff1673ffffffffffffffffffffffffffffffffffffffff1663313ce5676040518163ffffffff1660e01b815260040160206040518083038186803b15801561202757600080fd5b505afa15801561203b573d6000803e3d6000fd5b505050506040513d601f19601f8201168201806040525081019061205f9190613f7a565b60ff16925082600a0a60115402848260ff166003811061207b57fe5b6020020151111561224757600e8160ff166003811061209657fe5b0154848260ff16600381106120a757fe5b6020020181815101915081815250506064600460109054906101000a90046fffffffffffffffffffffffffffffffff166fffffffffffffffffffffffffffffffff16858360ff16600381106120f857fe5b6020020151028161210557fe5b04848260ff166003811061211557fe5b602002018181525050600e8160ff166003811061212e57fe5b0154848260ff166003811061213f57fe5b602002015103848260ff166003811061215457fe5b602002018181525050600a8160ff166003811061216d57fe5b0160009054906101000a900473ffffffffffffffffffffffffffffffffffffffff1673ffffffffffffffffffffffffffffffffffffffff1663a9059cbb838360ff16600381106121b957fe5b6020020151868460ff16600381106121cd57fe5b60200201516040518363ffffffff1660e01b81526004016121ef929190614372565b602060405180830381600087803b15801561220957600080fd5b505af115801561221d573d6000803e3d6000fd5b505050506040513d601f19601f820116820180604052508101906122419190613ead565b50612262565b6000848260ff166003811061225857fe5b6020020181815250505b8080600101915050611f92565b506000805b60036fffffffffffffffffffffffffffffffff168160ff1610156122c7576000858260ff16600381106122a357fe5b6020020151146122ba5781806001019250506122c7565b8080600101915050612274565b5060008160ff1611156122de576122dd84612e77565b5b50505050565b601881600381106122f157fe5b016000915090505481565b600061230783612a4d565b60005b60036fffffffffffffffffffffffffffffffff168160ff161015612488576000848260ff166003811061233957fe5b6020020151111561247b57838160ff166003811061235357fe5b6020020151601b8260ff166003811061236857fe5b0160008282540192505081905550838160ff166003811061238557fe5b602002015160058260ff166003811061239a57fe5b0160008282540392505081905550600a8160ff16600381106123b857fe5b0160009054906101000a900473ffffffffffffffffffffffffffffffffffffffff1673ffffffffffffffffffffffffffffffffffffffff1663a9059cbb84868460ff166003811061240557fe5b60200201516040518363ffffffff1660e01b8152600401612427929190614372565b602060405180830381600087803b15801561244157600080fd5b505af1158015612455573d6000803e3d6000fd5b505050506040513d601f19601f820116820180604052508101906124799190613ead565b505b808060010191505061230a565b506001905092915050565b601260009054906101000a90046fffffffffffffffffffffffffffffffff1681565b60006124c2826000610765565b9050600080600090505b60036fffffffffffffffffffffffffffffffff168160ff1610156126ca576000848260ff16600381106124fb57fe5b602002015111156126bd57600a8160ff166003811061251657fe5b0160009054906101000a900473ffffffffffffffffffffffffffffffffffffffff1673ffffffffffffffffffffffffffffffffffffffff166323b872dd3330878560ff166003811061256457fe5b60200201516040518463ffffffff1660e01b8152600401612587939291906142b2565b602060405180830381600087803b1580156125a157600080fd5b505af11580156125b5573d6000803e3d6000fd5b505050506040513d601f19601f820116820180604052508101906125d99190613ead565b91508161261b576040517f08c379a000000000000000000000000000000000000000000000000000000000815260040161261290614451565b60405180910390fd5b838160ff166003811061262a57fe5b602002015160058260ff166003811061263f57fe5b0160008282540192505081905550838160ff166003811061265c57fe5b6020020151601360003373ffffffffffffffffffffffffffffffffffffffff1673ffffffffffffffffffffffffffffffffffffffff1681526020019081526020016000208260ff16600381106126ae57fe5b01600082825401925050819055505b80806001019150506124cc565b50600d60009054906101000a900473ffffffffffffffffffffffffffffffffffffffff1673ffffffffffffffffffffffffffffffffffffffff166340c10f1933846040518363ffffffff1660e01b8152600401612728929190614312565b600060405180830381600087803b15801561274257600080fd5b505af1158015612756573d6000803e3d6000fd5b50505050612762613a81565b61276a613aa3565b6040518060800160405280868152602001868152602001428152602001838152509050601460003373ffffffffffffffffffffffffffffffffffffffff1673ffffffffffffffffffffffffffffffffffffffff16815260200190815260200160002081908060018154018082558091505060019003906000526020600020906008020160009091909190915060008201518160000190600361280d929190613a1f565b50602082015181600301906003612825929190613a1f565b5060408201518160060155606082015181600701906003612847929190613add565b5050505050505050565b600080821415612896576040517f08c379a000000000000000000000000000000000000000000000000000000000815260040161288d90614491565b60405180910390fd5b6000670de0b6b3a76400008402905060008414806128c45750670de0b6b3a76400008482816128c157fe5b04145b612903576040517f08c379a00000000000000000000000000000000000000000000000000000000081526004016128fa90614431565b60405180910390fd5b60006002848161290f57fe5b048201905081811015612957576040517f08c379a000000000000000000000000000000000000000000000000000000000815260040161294e90614431565b60405180910390fd5b600084828161296257fe5b04905080935050505092915050565b6000808284029050600084148061299057508284828161298d57fe5b04145b6129cf576040517f08c379a00000000000000000000000000000000000000000000000000000000081526004016129c690614471565b60405180910390fd5b60006002670de0b6b3a7640000816129e357fe5b048201905081811015612a2b576040517f08c379a0000000000000000000000000000000000000000000000000000000008152600401612a2290614471565b60405180910390fd5b6000670de0b6b3a76400008281612a3e57fe5b04905080935050505092915050565b600860009054906101000a900473ffffffffffffffffffffffffffffffffffffffff1673ffffffffffffffffffffffffffffffffffffffff1663b1b8f1be826040518263ffffffff1660e01b8152600401612aa8919061439b565b600060405180830381600087803b158015612ac257600080fd5b505af1158015612ad6573d6000803e3d6000fd5b5050505060005b60036fffffffffffffffffffffffffffffffff168160ff161015612b3a57818160ff1660038110612b0a57fe5b6020020151600e8260ff1660038110612b1f57fe5b01600082825403925050819055508080600101915050612add565b5050565b6000601760009054906101000a900463ffffffff16905060005b8163ffffffff168160ff161015612b8c576000612b73612f68565b9050612b7e8161305f565b508080600101915050612b58565b5050565b612b986139fd565b612ba06139fd565b60005b60036fffffffffffffffffffffffffffffffff168160ff161015612ca057600a8160ff1660038110612bd157fe5b0160009054906101000a900473ffffffffffffffffffffffffffffffffffffffff1673ffffffffffffffffffffffffffffffffffffffff166370a08231306040518263ffffffff1660e01b8152600401612c2b919061427c565b60206040518083038186803b158015612c4357600080fd5b505afa158015612c57573d6000803e3d6000fd5b505050506040513d601f19601f82011682018060405250810190612c7b9190613f51565b828260ff1660038110612c8a57fe5b6020020181815250508080600101915050612ba3565b508091505090565b60005b60036fffffffffffffffffffffffffffffffff16811015612d82576000828260038110612cd457fe5b60200201511115612d7557818160038110612ceb57fe5b6020020151601560003373ffffffffffffffffffffffffffffffffffffffff1673ffffffffffffffffffffffffffffffffffffffff1681526020019081526020016000208260038110612d3a57fe5b0160008282540192505081905550818160038110612d5457fe5b602002015160188260038110612d6657fe5b01600082825401925050819055505b8080600101915050612cab565b5060011515601660003373ffffffffffffffffffffffffffffffffffffffff1673ffffffffffffffffffffffffffffffffffffffff16815260200190815260200160002060009054906101000a900460ff16151514612e74576001601760008282829054906101000a900463ffffffff160192506101000a81548163ffffffff021916908363ffffffff1602179055506001601660003373ffffffffffffffffffffffffffffffffffffffff1673ffffffffffffffffffffffffffffffffffffffff16815260200190815260200160002060006101000a81548160ff021916908315150217905550612e7333613996565b5b50565b600860009054906101000a900473ffffffffffffffffffffffffffffffffffffffff1673ffffffffffffffffffffffffffffffffffffffff1663d4e20b01826040518263ffffffff1660e01b8152600401612ed2919061439b565b600060405180830381600087803b158015612eec57600080fd5b505af1158015612f00573d6000803e3d6000fd5b5050505060005b60036fffffffffffffffffffffffffffffffff168160ff161015612f6457818160ff1660038110612f3457fe5b6020020151600e8260ff1660038110612f4957fe5b01600082825401925050819055508080600101915050612f07565b5050565b60006001546002541015612f7b57600080fd5b600080600154815260200190815260200160002060009054906101000a900473ffffffffffffffffffffffffffffffffffffffff16600360006101000a81548173ffffffffffffffffffffffffffffffffffffffff021916908373ffffffffffffffffffffffffffffffffffffffff160217905550600080600154815260200190815260200160002060006101000a81549073ffffffffffffffffffffffffffffffffffffffff021916905560018060008282540192505081905550600360009054906101000a900473ffffffffffffffffffffffffffffffffffffffff16905090565b6000806130e7601560008573ffffffffffffffffffffffffffffffffffffffff1673ffffffffffffffffffffffffffffffffffffffff1681526020019081526020016000206003806020026040519081016040528092919082600380156130db576020028201915b8154815260200190600101908083116130c7575b50505050506001610765565b9050600d60009054906101000a900473ffffffffffffffffffffffffffffffffffffffff1673ffffffffffffffffffffffffffffffffffffffff16639dc29fac84836040518363ffffffff1660e01b8152600401613146929190614372565b600060405180830381600087803b15801561316057600080fd5b505af1158015613174573d6000803e3d6000fd5b5050505060005b60036fffffffffffffffffffffffffffffffff168160ff161015613990576000601560008673ffffffffffffffffffffffffffffffffffffffff1673ffffffffffffffffffffffffffffffffffffffff1681526020019081526020016000208260ff16600381106131e857fe5b015411801561324557506000601360008673ffffffffffffffffffffffffffffffffffffffff1673ffffffffffffffffffffffffffffffffffffffff1681526020019081526020016000208260ff166003811061324157fe5b0154115b1561398357600a8160ff166003811061325a57fe5b0160009054906101000a900473ffffffffffffffffffffffffffffffffffffffff1673ffffffffffffffffffffffffffffffffffffffff1663a9059cbb85601560008873ffffffffffffffffffffffffffffffffffffffff1673ffffffffffffffffffffffffffffffffffffffff1681526020019081526020016000208460ff16600381106132e557fe5b01546040518363ffffffff1660e01b8152600401613304929190614372565b602060405180830381600087803b15801561331e57600080fd5b505af1158015613332573d6000803e3d6000fd5b505050506040513d601f19601f820116820180604052508101906133569190613ead565b92508261336257600080fd5b601560008573ffffffffffffffffffffffffffffffffffffffff1673ffffffffffffffffffffffffffffffffffffffff1681526020019081526020016000208160ff16600381106133af57fe5b0154601360008673ffffffffffffffffffffffffffffffffffffffff1673ffffffffffffffffffffffffffffffffffffffff1681526020019081526020016000208260ff16600381106133fe57fe5b0160008282540392505081905550601560008573ffffffffffffffffffffffffffffffffffffffff1673ffffffffffffffffffffffffffffffffffffffff1681526020019081526020016000208160ff166003811061345957fe5b015460188260ff166003811061346b57fe5b0160008282540392505081905550601560008573ffffffffffffffffffffffffffffffffffffffff1673ffffffffffffffffffffffffffffffffffffffff1681526020019081526020016000208160ff16600381106134c657fe5b015460058260ff16600381106134d857fe5b01600082825403925050819055506000601560008673ffffffffffffffffffffffffffffffffffffffff1673ffffffffffffffffffffffffffffffffffffffff1681526020019081526020016000208260ff166003811061353557fe5b0154905060005b601460008773ffffffffffffffffffffffffffffffffffffffff1673ffffffffffffffffffffffffffffffffffffffff168152602001908152602001600020805490508160ff16101561389d5760011515601460008873ffffffffffffffffffffffffffffffffffffffff1673ffffffffffffffffffffffffffffffffffffffff1681526020019081526020016000208260ff16815481106135da57fe5b90600052602060002090600802016007018460ff16600381106135f957fe5b602091828204019190069054906101000a900460ff1615151415801561361f5750600082115b1561389057601460008773ffffffffffffffffffffffffffffffffffffffff1673ffffffffffffffffffffffffffffffffffffffff1681526020019081526020016000208160ff168154811061367157fe5b90600052602060002090600802016003018360ff166003811061369057fe5b0154821061380f57601460008773ffffffffffffffffffffffffffffffffffffffff1673ffffffffffffffffffffffffffffffffffffffff1681526020019081526020016000208160ff16815481106136e557fe5b90600052602060002090600802016003018360ff166003811061370457fe5b0154820391506000601460008873ffffffffffffffffffffffffffffffffffffffff1673ffffffffffffffffffffffffffffffffffffffff1681526020019081526020016000208260ff168154811061375957fe5b90600052602060002090600802016003018460ff166003811061377857fe5b01819055506001601460008873ffffffffffffffffffffffffffffffffffffffff1673ffffffffffffffffffffffffffffffffffffffff1681526020019081526020016000208260ff16815481106137cc57fe5b90600052602060002090600802016007018460ff16600381106137eb57fe5b602091828204019190066101000a81548160ff02191690831515021790555061388f565b81601460008873ffffffffffffffffffffffffffffffffffffffff1673ffffffffffffffffffffffffffffffffffffffff1681526020019081526020016000208260ff168154811061385d57fe5b90600052602060002090600802016003018460ff166003811061387c57fe5b0160008282540392505081905550600091505b5b808060010191505061353c565b506000601560008773ffffffffffffffffffffffffffffffffffffffff1673ffffffffffffffffffffffffffffffffffffffff1681526020019081526020016000208360ff16600381106138ed57fe5b01819055506000601660008773ffffffffffffffffffffffffffffffffffffffff1673ffffffffffffffffffffffffffffffffffffffff16815260200190815260200160002060006101000a81548160ff0219169083151502179055506001601760008282829054906101000a900463ffffffff160392506101000a81548163ffffffff021916908363ffffffff160217905550505b808060010191505061317b565b50505050565b600160026000828254019250508190555080600080600254815260200190815260200160002060006101000a81548173ffffffffffffffffffffffffffffffffffffffff021916908373ffffffffffffffffffffffffffffffffffffffff16021790555050565b6040518060600160405280600390602082028036833780820191505090505090565b8260038101928215613a4e579160200282015b82811115613a4d578251825591602001919060010190613a32565b5b509050613a5b9190613b76565b5090565b6040518060600160405280600390602082028036833780820191505090505090565b6040518060600160405280600390602082028036833780820191505090505090565b6040518060800160405280613ab66139fd565b8152602001613ac36139fd565b815260200160008152602001613ad7613a81565b81525090565b826003601f01602090048101928215613b655791602002820160005b83821115613b3657835183826101000a81548160ff0219169083151502179055509260200192600101602081600001049283019260010302613af9565b8015613b635782816101000a81549060ff0219169055600101602081600001049283019260010302613b36565b505b509050613b729190613b93565b5090565b5b80821115613b8f576000816000905550600101613b77565b5090565b5b80821115613bb757600081816101000a81549060ff021916905550600101613b94565b5090565b600081359050613bca81614690565b92915050565b600082601f830112613be157600080fd5b6003613bf4613bef82614534565b614507565b91508183856020840282011115613c0a57600080fd5b60005b83811015613c3a5781613c208882613d15565b845260208401935060208301925050600181019050613c0d565b5050505092915050565b600081905082602060030282011115613c5c57600080fd5b92915050565b600082601f830112613c7357600080fd5b6003613c86613c8182614556565b614507565b91508183856020840282011115613c9c57600080fd5b60005b83811015613ccc5781613cb28882613d3f565b845260208401935060208301925050600181019050613c9f565b5050505092915050565b600081359050613ce5816146a7565b92915050565b600081519050613cfa816146a7565b92915050565b600081359050613d0f816146be565b92915050565b600081519050613d24816146d5565b92915050565b600081359050613d39816146ec565b92915050565b600081359050613d4e81614703565b92915050565b600081519050613d6381614703565b92915050565b600081519050613d788161471a565b92915050565b600060208284031215613d9057600080fd5b6000613d9e84828501613bbb565b91505092915050565b60008060408385031215613dba57600080fd5b6000613dc885828601613bbb565b9250506020613dd985828601613d3f565b9150509250929050565b600060608284031215613df557600080fd5b6000613e0384828501613bd0565b91505092915050565b600060608284031215613e1e57600080fd5b6000613e2c84828501613c44565b91505092915050565b60008060808385031215613e4857600080fd5b6000613e5685828601613c62565b9250506060613e6785828601613bbb565b9150509250929050565b60008060808385031215613e8457600080fd5b6000613e9285828601613c62565b9250506060613ea385828601613cd6565b9150509250929050565b600060208284031215613ebf57600080fd5b6000613ecd84828501613ceb565b91505092915050565b600060208284031215613ee857600080fd5b6000613ef684828501613d00565b91505092915050565b600060208284031215613f1157600080fd5b6000613f1f84828501613d2a565b91505092915050565b600060208284031215613f3a57600080fd5b6000613f4884828501613d3f565b91505092915050565b600060208284031215613f6357600080fd5b6000613f7184828501613d54565b91505092915050565b600060208284031215613f8c57600080fd5b6000613f9a84828501613d69565b91505092915050565b6000613faf838361425e565b60208301905092915050565b613fc48161464b565b82525050565b613fd3816145b6565b82525050565b613fe560608383614681565b5050565b613ff281614582565b613ffc818461459a565b925061400782614578565b8060005b8381101561403857815161401f8782613fa3565b965061402a8361458d565b92505060018101905061400b565b505050505050565b614049816145c8565b82525050565b600061405c6012836145a5565b91507f7a65726f20746f6b656e7320737570706c7900000000000000000000000000006000830152602082019050919050565b600061409c6014836145a5565b91507f776974686472617720717565756520656d7074790000000000000000000000006000830152602082019050919050565b60006140dc600b836145a5565b91507f6c6f636b20706572696f640000000000000000000000000000000000000000006000830152602082019050919050565b600061411c6010836145a5565b91507f4552525f4449565f494e5445524e414c000000000000000000000000000000006000830152602082019050919050565b600061415c6017836145a5565b91507f5472616e73666572206e6f74207375636365737366756c0000000000000000006000830152602082019050919050565b600061419c6010836145a5565b91507f4552525f4d554c5f4f564552464c4f57000000000000000000000000000000006000830152602082019050919050565b60006141dc600c836145a5565b91507f4552525f4449565f5a45524f00000000000000000000000000000000000000006000830152602082019050919050565b600061421c6007836145a5565b91507f6c6f7720525054000000000000000000000000000000000000000000000000006000830152602082019050919050565b614258816145f8565b82525050565b61426781614634565b82525050565b61427681614634565b82525050565b60006020820190506142916000830184613fca565b92915050565b60006020820190506142ac6000830184613fbb565b92915050565b60006060820190506142c76000830186613fbb565b6142d46020830185613fca565b6142e1604083018461426d565b949350505050565b60006080820190506142fe6000830185613fbb565b61430b6020830184613fd9565b9392505050565b60006040820190506143276000830185613fbb565b614334602083018461426d565b9392505050565b60006060820190506143506000830186613fca565b61435d6020830185613fca565b61436a604083018461426d565b949350505050565b60006040820190506143876000830185613fca565b614394602083018461426d565b9392505050565b60006060820190506143b06000830184613fe9565b92915050565b60006020820190506143cb6000830184614040565b92915050565b600060208201905081810360008301526143ea8161404f565b9050919050565b6000602082019050818103600083015261440a8161408f565b9050919050565b6000602082019050818103600083015261442a816140cf565b9050919050565b6000602082019050818103600083015261444a8161410f565b9050919050565b6000602082019050818103600083015261446a8161414f565b9050919050565b6000602082019050818103600083015261448a8161418f565b9050919050565b600060208201905081810360008301526144aa816141cf565b9050919050565b600060208201905081810360008301526144ca8161420f565b9050919050565b60006020820190506144e6600083018461424f565b92915050565b6000602082019050614501600083018461426d565b92915050565b6000604051905081810181811067ffffffffffffffff8211171561452a57600080fd5b8060405250919050565b600067ffffffffffffffff82111561454b57600080fd5b602082029050919050565b600067ffffffffffffffff82111561456d57600080fd5b602082029050919050565b6000819050919050565b600060039050919050565b6000602082019050919050565b600081905092915050565b600082825260208201905092915050565b60006145c182614614565b9050919050565b60008115159050919050565b60006145df826145b6565b9050919050565b60006145f1826145b6565b9050919050565b60006fffffffffffffffffffffffffffffffff82169050919050565b600073ffffffffffffffffffffffffffffffffffffffff82169050919050565b6000819050919050565b600060ff82169050919050565b60006146568261465d565b9050919050565b60006146688261466f565b9050919050565b600061467a82614614565b9050919050565b82818337600083830152505050565b614699816145b6565b81146146a457600080fd5b50565b6146b0816145c8565b81146146bb57600080fd5b50565b6146c7816145d4565b81146146d257600080fd5b50565b6146de816145e6565b81146146e957600080fd5b50565b6146f5816145f8565b811461470057600080fd5b50565b61470c81614634565b811461471757600080fd5b50565b6147238161463e565b811461472e57600080fd5b5056fea264697066735822122023c2cc274c5da18d271ba3007b563020be4eabdbeafc1d71d8057056cb574c7864736f6c634300060c0033",
  "immutableReferences": {},
  "source": "// SPDX-License-Identifier: UNLICENSED\r\npragma solidity ^0.6.0;\r\npragma experimental ABIEncoderV2;\r\n\r\nimport './MathLib.sol';\r\nimport './RoyaleLPstorage.sol';\r\n\r\n\r\ncontract RoyaleLP is RoyaleLPstorage, rNum {\r\n\r\n    modifier onlyOwner {\r\n        require(msg.sender == owner);\r\n        _;\r\n    }\r\n\r\n    constructor(\r\n        address[N_COINS] memory _tokens,\r\n        address _rpToken\r\n    ) public {\r\n        // Set owner\r\n        owner = msg.sender;\r\n\r\n        for(uint8 i=0; i<N_COINS; i++) {\r\n            tokens[i] = Erc20(_tokens[i]);\r\n        }\r\n\r\n        // Set RPT\r\n        rpToken = Erc20(_rpToken);\r\n    }\r\n    \r\n    /* EVENTS */\r\n    event userSupplied(\r\n        address user,\r\n        uint[N_COINS] amounts\r\n    );\r\n\r\n    event userRecieved(\r\n        address user,\r\n        uint[N_COINS] amounts\r\n    );\r\n\r\n    event userAddedToQ(\r\n        address user,\r\n        uint[N_COINS] amounts\r\n    );\r\n\r\n    /* INTERNAL FUNCTIONS */\r\n\r\n    function _getBalances() internal view returns(uint256[N_COINS] memory) {\r\n        uint256[N_COINS] memory balances;\r\n\r\n        for(uint8 i=0; i<N_COINS; i++) {\r\n            balances[i] = tokens[i].balanceOf(address(this));\r\n        }\r\n\r\n        return balances;\r\n    }\r\n\r\n    function calcRptAmount(uint256[N_COINS] memory amounts, bool burn) public view returns(uint256) {\r\n        uint256 rptAmt;\r\n        uint256 total = 0;\r\n        uint256 decimal = 0;\r\n        uint256 totalSuppliedTokens;\r\n        uint256 totalRPTSupply;\r\n\r\n        totalRPTSupply = bdiv(rpToken.totalSupply(), 10**18);\r\n        \r\n        for(uint8 i=0; i<N_COINS; i++) {\r\n            decimal = tokens[i].decimals();\r\n            total += bdiv(selfBalance[i]+loanGiven[i], 10**decimal);\r\n            totalSuppliedTokens += bdiv(amounts[i], 10**decimal);\r\n        }\r\n\r\n        rptAmt = bmul(bdiv(totalSuppliedTokens, total), totalRPTSupply);\r\n\r\n        if(burn == true) {\r\n            rptAmt = rptAmt + (rptAmt * fees) / 10000;\r\n        }\r\n\r\n        return rptAmt;\r\n    }\r\n\r\n    // functions related to deposit and supply\r\n\r\n    // This function deposits the fund to Yield Optimizer\r\n    function _deposit(uint256[N_COINS] memory amounts) internal {\r\n        controller.deposit(amounts);\r\n        \r\n        for(uint8 i=0; i<N_COINS; i++) {\r\n            YieldPoolBalance[i] += amounts[i];\r\n        }\r\n    }\r\n\r\n    function _supply(uint256[N_COINS] memory amounts) internal {\r\n        uint256 mintTokens;        \r\n        mintTokens = calcRptAmount(amounts, false);    \r\n        \r\n        bool result;\r\n        for(uint8 i=0; i<N_COINS; i++) {\r\n            if(amounts[i] > 0) {\r\n                result = tokens[i].transferFrom(\r\n                    msg.sender, \r\n                    address(this), \r\n                    amounts[i]\r\n                );\r\n                require(result,\"Transfer not successful\");\r\n                selfBalance[i] += amounts[i];\r\n                amountSupplied[msg.sender][i] += amounts[i];\r\n            }\r\n        }\r\n    \r\n        // rpToken.mint(msg.sender, mintTokens * 10**10);\r\n        rpToken.mint(msg.sender, mintTokens);\r\n\r\n        bool[N_COINS] memory falseArray;\r\n        depositDetails memory d = depositDetails(amounts, amounts, now, falseArray);\r\n        supplyTime[msg.sender].push(d);\r\n    }\r\n\r\n    // functions related to withdraw, withdraw queue and withdraw from Yield Optimizer\r\n\r\n    function _takeBack(address recipient) internal {\r\n        bool result;\r\n\r\n        uint256 burnAmt;\r\n\r\n        burnAmt = calcRptAmount(amountWithdraw[recipient], true);\r\n        rpToken.burn(recipient, burnAmt);\r\n\r\n        for(uint8 i=0; i<N_COINS; i++) {\r\n            if(\r\n                amountWithdraw[recipient][i] > 0 \r\n                && \r\n                amountSupplied[recipient][i] > 0\r\n            ) {\r\n                result = tokens[i].transfer(\r\n                    recipient,  \r\n                    amountWithdraw[recipient][i]\r\n                );\r\n                require(result);\r\n\r\n                amountSupplied[recipient][i] -= amountWithdraw[recipient][i];\r\n                totalWithdraw[i] -= amountWithdraw[recipient][i];\r\n                selfBalance[i] -= amountWithdraw[recipient][i];\r\n\r\n                uint x = amountWithdraw[recipient][i];\r\n                for(uint8 j=0; j<supplyTime[recipient].length; j++) {\r\n                    if(supplyTime[recipient][j].withdrawn[i] != true && x > 0) {\r\n                        if(x >= supplyTime[recipient][j].remAmt[i]) {\r\n                            x = x - supplyTime[recipient][j].remAmt[i];\r\n                            supplyTime[recipient][j].remAmt[i] = 0;\r\n                            supplyTime[recipient][j].withdrawn[i] = true;\r\n                        }\r\n                        else {\r\n                            supplyTime[recipient][j].remAmt[i] -= x;\r\n                            x = 0;\r\n                        }\r\n                    }\r\n                }\r\n\r\n                amountWithdraw[recipient][i] = 0;\r\n\r\n                isInQ[recipient] = false;\r\n                recipientCount -= 1;\r\n            }\r\n        }\r\n    }\r\n\r\n    // this will fulfill withdraw requests from the queue\r\n    function _giveBack() internal {\r\n        \r\n        uint32 counter = recipientCount;\r\n        for(uint8 i=0; i<counter; i++) {\r\n            address recipient = getFromQ();\r\n            _takeBack(recipient);\r\n        }\r\n\r\n    }\r\n\r\n    // this will add unfulfilled withdraw requests to the queue\r\n    function _takeBackQ(uint256[N_COINS] memory amounts) internal {\r\n        \r\n        for(uint256 i=0; i<N_COINS; i++) {\r\n            if(amounts[i] > 0) {\r\n                amountWithdraw[msg.sender][i] += amounts[i];\r\n                totalWithdraw[i] += amounts[i];\r\n            }\r\n        }\r\n\r\n        if(isInQ[msg.sender] != true) {\r\n            recipientCount += 1;\r\n            isInQ[msg.sender] = true;\r\n            addToQ(msg.sender);\r\n        }\r\n\r\n    }\r\n\r\n    // this will withdraw from Yield Optimizer into this contract\r\n    function _withdraw(uint256[N_COINS] memory amounts) internal {\r\n        controller.withdraw(amounts);\r\n\r\n        for(uint8 i=0; i<N_COINS; i++) {\r\n            YieldPoolBalance[i] -= amounts[i];\r\n        }\r\n    }\r\n\r\n    function availableWithdraw(address addr, uint coin) public view returns(uint256) {\r\n\r\n        uint256 amount=0;\r\n        for(uint8 j=0; j<supplyTime[addr].length; j++) {\r\n            if(\r\n                ((now - supplyTime[addr][j].time) \r\n                > \r\n                (24 * 60 * 60 * lock_period))\r\n                &&\r\n                supplyTime[addr][j].withdrawn[coin] != true\r\n            ) {\r\n                amount += supplyTime[addr][j].remAmt[coin];\r\n            }\r\n        }\r\n\r\n        return amount;\r\n    }\r\n\r\n    /* USER FUNCTIONS (exposed to frontend) */\r\n\r\n    function supply(uint256[N_COINS] calldata amounts) external {\r\n        require(\r\n            calcRptAmount(amounts, false) > 0,\r\n            \"zero tokens supply\"\r\n        );\r\n        \r\n        _supply(amounts);\r\n\r\n        emit userSupplied(msg.sender, amounts);\r\n    }\r\n\r\n    function requestWithdraw(uint256[N_COINS] calldata amounts) external {\r\n        require(\r\n            calcRptAmount(amounts, false) > 0,\r\n            \"zero tokens supply\"\r\n        );\r\n\r\n        uint256 burnAmt;\r\n        burnAmt = calcRptAmount(amounts, true);\r\n        require(\r\n            rpToken.balanceOf(msg.sender) >= burnAmt, \r\n            \"low RPT\"\r\n        );\r\n        \r\n        uint256[N_COINS] memory poolBalance;\r\n        poolBalance = _getBalances();\r\n        \r\n        bool checkTime = true;\r\n        bool instant;\r\n        \r\n        // check if user is withdrawing before lock period\r\n        for(uint8 i=0; i<N_COINS; i++) {\r\n            if(amounts[i] > 0) {\r\n                if(availableWithdraw(msg.sender, i) < amounts[i]) {\r\n                    checkTime = false;\r\n                }\r\n            }\r\n        }\r\n        require(checkTime, \"lock period\");\r\n\r\n        // check if instant withdraw\r\n        for(uint8 i=0; i<N_COINS; i++) {\r\n            if(amounts[i] < poolBalance[i] && amounts[i] != 0) {\r\n                instant = true;\r\n            }\r\n        }\r\n\r\n        if(instant) {\r\n            rpToken.burn(msg.sender, burnAmt);\r\n            bool result;\r\n            for(uint8 i=0; i<N_COINS; i++) {\r\n                if(amounts[i] > 0) {\r\n                    result = tokens[i].transfer(msg.sender, amounts[i]);\r\n                    require(result);\r\n                    amountSupplied[msg.sender][i] -= amounts[i];\r\n                    selfBalance[i] -= amounts[i];\r\n                    \r\n                    uint x = amounts[i];\r\n                    for(uint8 j=0; j<supplyTime[msg.sender].length; j++) {\r\n                        if(supplyTime[msg.sender][j].withdrawn[i] != true && x > 0) {\r\n                            if(x >= supplyTime[msg.sender][j].remAmt[i]) {\r\n                                x = x - supplyTime[msg.sender][j].remAmt[i];\r\n                                supplyTime[msg.sender][j].remAmt[i] = 0;\r\n                                supplyTime[msg.sender][j].withdrawn[i] = true;\r\n                            }\r\n                            else {\r\n                                supplyTime[msg.sender][j].remAmt[i] -= x;\r\n                                x = 0;\r\n                            }\r\n                        }\r\n                    }\r\n\r\n                }\r\n            }\r\n\r\n            emit userRecieved(msg.sender, amounts);\r\n        } else {\r\n            _takeBackQ(amounts);\r\n\r\n            emit userAddedToQ(msg.sender, amounts);\r\n        }\r\n    }\r\n    \r\n    // Following two functions are called by rLoan Only\r\n    function _loanWithdraw(uint256[N_COINS] memory amounts, address _loanSeeker) public returns(bool) {\r\n        _withdraw(amounts);\r\n\r\n        for(uint8 i=0; i<N_COINS; i++) {\r\n            if(amounts[i] > 0) {\r\n                loanGiven[i] += amounts[i];\r\n                selfBalance[i] -= amounts[i];\r\n                tokens[i].transfer(_loanSeeker, amounts[i]);\r\n            }\r\n        }\r\n        return true;\r\n    }\r\n\r\n    function _loanRepayment(uint256[N_COINS] memory amounts, address _loanSeeker) public returns(bool) {\r\n        for(uint8 i=0; i<N_COINS; i++) {\r\n            if(amounts[i] > 0) {\r\n                loanGiven[i] -= amounts[i];\r\n                selfBalance[i] += amounts[i];\r\n                tokens[i].transferFrom(_loanSeeker, address(this), amounts[i]);\r\n            }\r\n        }\r\n        return true;\r\n    }\r\n\r\n    function getCurrentPoolBalance() external view returns(uint256[3] memory) {\r\n        return selfBalance;\r\n    }\r\n\r\n    function getTotalLoanGiven() external view returns(uint256[3] memory) {\r\n        return loanGiven;\r\n    }\r\n\r\n    // this function deposits without minting \r\n    function depsoitInRoyale(uint256[N_COINS] calldata amounts) external {\r\n        for(uint8 i=0;i<N_COINS;i++){\r\n            if(amounts[i]!=0){\r\n             tokens[i].transferFrom(msg.sender,address(this),amounts[i]);\r\n             selfBalance[i]+=amounts[i];\r\n            }\r\n        }\r\n    }\r\n\r\n\r\n    /* CORE FUNCTIONS (also exposed to frontend but to be called by owner only) */\r\n\r\n    function deposit() onlyOwner external {\r\n        uint256[N_COINS] memory amounts = _getBalances();\r\n        uint256 decimal;\r\n\r\n        rStrategyI[3] memory strat = controller.getStrategies();\r\n\r\n        for(uint8 i=0; i<N_COINS; i++) {\r\n            decimal = tokens[i].decimals();\r\n            if(amounts[i] > thresholdTokenAmount*10**decimal) {\r\n                amounts[i] += YieldPoolBalance[i];\r\n                amounts[i] = (amounts[i] * poolPart) / 100;\r\n                amounts[i] = amounts[i] - YieldPoolBalance[i];\r\n                tokens[i].transfer(address(strat[i]), amounts[i]);\r\n            }\r\n            else {\r\n                amounts[i] = 0;\r\n            }\r\n        }\r\n\r\n        uint8 counter = 0;\r\n        for(uint8 i=0; i<N_COINS; i++) {\r\n           if(amounts[i] != 0) {\r\n               counter++;\r\n               break;\r\n           }\r\n        }\r\n\r\n        if(counter > 0){\r\n            _deposit(amounts);\r\n        }\r\n    }\r\n\r\n    function withdraw() onlyOwner external {\r\n\r\n        uint8 counter = 0;\r\n        for(uint8 i=0; i<N_COINS; i++) {\r\n           if(totalWithdraw[i] != 0) {\r\n               counter++;\r\n               break;\r\n           }\r\n        }\r\n\r\n        require(counter > 0, \"withdraw queue empty\");\r\n\r\n        _withdraw(totalWithdraw);\r\n        _giveBack();\r\n    }\r\n\r\n    /* ADMIN FUNCTIONS */\r\n\r\n    function changePoolPart(uint128 _newPoolPart) external onlyOwner returns(bool) {\r\n        poolPart = _newPoolPart;\r\n        return true;\r\n    }\r\n\r\n    function setThresholdTokenAmount(uint256 _newThreshold) external onlyOwner returns(bool) {\r\n        thresholdTokenAmount = _newThreshold;\r\n        return true;\r\n    }\r\n\r\n    function setInitialDeposit() onlyOwner external returns(bool) {\r\n        selfBalance = _getBalances();\r\n        return true;\r\n    }\r\n\r\n    function setController(rControllerI _controller) onlyOwner external returns(bool) {\r\n        controller = _controller;\r\n        return true;\r\n    }\r\n\r\n    function setLockPeriod(uint128 lockperiod) onlyOwner external returns(bool) {\r\n        lock_period = lockperiod;\r\n        return true;\r\n    }\r\n\r\n    function setWithdrawFees(uint128 _fees) onlyOwner external returns(bool) {\r\n        fees = _fees;\r\n        return true;\r\n    }\r\n\r\n}",
  "sourcePath": "C:/Users/MayankVats/Desktop/WORK/blockchain/Royale/rlp/contracts/RoyaleLP.sol",
  "compiler": {
    "name": "solc",
    "version": "0.6.12+commit.27d51765.Emscripten.clang"
  },
  "schemaVersion": "3.3.2",
  "updatedAt": "2020-12-22T05:29:03.789Z",
  "devdoc": {
    "kind": "dev",
    "methods": {},
    "version": 1
  },
  "userdoc": {
    "kind": "user",
    "methods": {},
    "version": 1
  }
}