{
  "contractName": "RoyaleLP",
  "abi": [
    {
      "inputs": [
        {
          "internalType": "address[3]",
          "name": "_tokens",
          "type": "address[3]"
        },
        {
          "internalType": "address",
          "name": "_rpToken",
          "type": "address"
        }
      ],
      "stateMutability": "nonpayable",
      "type": "constructor"
    },
    {
      "anonymous": false,
      "inputs": [
        {
          "indexed": false,
          "internalType": "address",
          "name": "user",
          "type": "address"
        },
        {
          "indexed": false,
          "internalType": "uint256[3]",
          "name": "amounts",
          "type": "uint256[3]"
        }
      ],
      "name": "userAddedToQ",
      "type": "event"
    },
    {
      "anonymous": false,
      "inputs": [
        {
          "indexed": false,
          "internalType": "address",
          "name": "user",
          "type": "address"
        },
        {
          "indexed": false,
          "internalType": "uint256[3]",
          "name": "amounts",
          "type": "uint256[3]"
        }
      ],
      "name": "userRecieved",
      "type": "event"
    },
    {
      "anonymous": false,
      "inputs": [
        {
          "indexed": false,
          "internalType": "address",
          "name": "user",
          "type": "address"
        },
        {
          "indexed": false,
          "internalType": "uint256[3]",
          "name": "amounts",
          "type": "uint256[3]"
        }
      ],
      "name": "userSupplied",
      "type": "event"
    },
    {
      "inputs": [],
      "name": "BASE_DECIMAL",
      "outputs": [
        {
          "internalType": "uint256",
          "name": "",
          "type": "uint256"
        }
      ],
      "stateMutability": "view",
      "type": "function"
    },
    {
      "inputs": [
        {
          "internalType": "uint256",
          "name": "",
          "type": "uint256"
        }
      ],
      "name": "YieldPoolBalance",
      "outputs": [
        {
          "internalType": "uint256",
          "name": "",
          "type": "uint256"
        }
      ],
      "stateMutability": "view",
      "type": "function"
    },
    {
      "inputs": [
        {
          "internalType": "address",
          "name": "",
          "type": "address"
        },
        {
          "internalType": "uint256",
          "name": "",
          "type": "uint256"
        }
      ],
      "name": "amountSupplied",
      "outputs": [
        {
          "internalType": "uint256",
          "name": "",
          "type": "uint256"
        }
      ],
      "stateMutability": "view",
      "type": "function"
    },
    {
      "inputs": [],
      "name": "fees",
      "outputs": [
        {
          "internalType": "uint128",
          "name": "",
          "type": "uint128"
        }
      ],
      "stateMutability": "view",
      "type": "function"
    },
    {
      "inputs": [
        {
          "internalType": "address",
          "name": "",
          "type": "address"
        }
      ],
      "name": "isInQ",
      "outputs": [
        {
          "internalType": "bool",
          "name": "",
          "type": "bool"
        }
      ],
      "stateMutability": "view",
      "type": "function"
    },
    {
      "inputs": [],
      "name": "loanContract",
      "outputs": [
        {
          "internalType": "address",
          "name": "",
          "type": "address"
        }
      ],
      "stateMutability": "view",
      "type": "function"
    },
    {
      "inputs": [
        {
          "internalType": "uint256",
          "name": "",
          "type": "uint256"
        }
      ],
      "name": "loanGiven",
      "outputs": [
        {
          "internalType": "uint256",
          "name": "",
          "type": "uint256"
        }
      ],
      "stateMutability": "view",
      "type": "function"
    },
    {
      "inputs": [],
      "name": "lock_period",
      "outputs": [
        {
          "internalType": "uint128",
          "name": "",
          "type": "uint128"
        }
      ],
      "stateMutability": "view",
      "type": "function"
    },
    {
      "inputs": [],
      "name": "owner",
      "outputs": [
        {
          "internalType": "address",
          "name": "",
          "type": "address"
        }
      ],
      "stateMutability": "view",
      "type": "function"
    },
    {
      "inputs": [],
      "name": "poolPart",
      "outputs": [
        {
          "internalType": "uint128",
          "name": "",
          "type": "uint128"
        }
      ],
      "stateMutability": "view",
      "type": "function"
    },
    {
      "inputs": [
        {
          "internalType": "uint256",
          "name": "",
          "type": "uint256"
        }
      ],
      "name": "selfBalance",
      "outputs": [
        {
          "internalType": "uint256",
          "name": "",
          "type": "uint256"
        }
      ],
      "stateMutability": "view",
      "type": "function"
    },
    {
      "inputs": [],
      "name": "thresholdTokenAmount",
      "outputs": [
        {
          "internalType": "uint256",
          "name": "",
          "type": "uint256"
        }
      ],
      "stateMutability": "view",
      "type": "function"
    },
    {
      "inputs": [
        {
          "internalType": "uint256",
          "name": "",
          "type": "uint256"
        }
      ],
      "name": "totalWithdraw",
      "outputs": [
        {
          "internalType": "uint256",
          "name": "",
          "type": "uint256"
        }
      ],
      "stateMutability": "view",
      "type": "function"
    },
    {
      "inputs": [
        {
          "internalType": "uint256[3]",
          "name": "amounts",
          "type": "uint256[3]"
        },
        {
          "internalType": "bool",
          "name": "burn",
          "type": "bool"
        }
      ],
      "name": "calcRptAmount",
      "outputs": [
        {
          "internalType": "uint256",
          "name": "",
          "type": "uint256"
        }
      ],
      "stateMutability": "view",
      "type": "function"
    },
    {
      "inputs": [
        {
          "internalType": "address",
          "name": "addr",
          "type": "address"
        },
        {
          "internalType": "uint256",
          "name": "coin",
          "type": "uint256"
        }
      ],
      "name": "availableWithdraw",
      "outputs": [
        {
          "internalType": "uint256",
          "name": "",
          "type": "uint256"
        }
      ],
      "stateMutability": "view",
      "type": "function"
    },
    {
      "inputs": [
        {
          "internalType": "uint256[3]",
          "name": "amounts",
          "type": "uint256[3]"
        }
      ],
      "name": "supply",
      "outputs": [],
      "stateMutability": "nonpayable",
      "type": "function"
    },
    {
      "inputs": [
        {
          "internalType": "uint256[3]",
          "name": "amounts",
          "type": "uint256[3]"
        }
      ],
      "name": "requestWithdraw",
      "outputs": [],
      "stateMutability": "nonpayable",
      "type": "function"
    },
    {
      "inputs": [
        {
          "internalType": "uint256[3]",
          "name": "amounts",
          "type": "uint256[3]"
        },
        {
          "internalType": "address",
          "name": "_loanSeeker",
          "type": "address"
        }
      ],
      "name": "_loanWithdraw",
      "outputs": [
        {
          "internalType": "bool",
          "name": "",
          "type": "bool"
        }
      ],
      "stateMutability": "nonpayable",
      "type": "function"
    },
    {
      "inputs": [
        {
          "internalType": "uint256[3]",
          "name": "amounts",
          "type": "uint256[3]"
        },
        {
          "internalType": "address",
          "name": "_loanSeeker",
          "type": "address"
        }
      ],
      "name": "_loanRepayment",
      "outputs": [
        {
          "internalType": "bool",
          "name": "",
          "type": "bool"
        }
      ],
      "stateMutability": "nonpayable",
      "type": "function"
    },
    {
      "inputs": [
        {
          "internalType": "uint256[3]",
          "name": "amounts",
          "type": "uint256[3]"
        }
      ],
      "name": "depsoitInRoyale",
      "outputs": [],
      "stateMutability": "nonpayable",
      "type": "function"
    },
    {
      "inputs": [],
      "name": "deposit",
      "outputs": [],
      "stateMutability": "nonpayable",
      "type": "function"
    },
    {
      "inputs": [],
      "name": "withdraw",
      "outputs": [],
      "stateMutability": "nonpayable",
      "type": "function"
    },
    {
      "inputs": [],
      "name": "rebalance",
      "outputs": [],
      "stateMutability": "nonpayable",
      "type": "function"
    },
    {
      "inputs": [],
      "name": "getCurrentPoolBalance",
      "outputs": [
        {
          "internalType": "uint256[3]",
          "name": "",
          "type": "uint256[3]"
        }
      ],
      "stateMutability": "view",
      "type": "function"
    },
    {
      "inputs": [],
      "name": "getTotalLoanGiven",
      "outputs": [
        {
          "internalType": "uint256[3]",
          "name": "",
          "type": "uint256[3]"
        }
      ],
      "stateMutability": "view",
      "type": "function"
    },
    {
      "inputs": [
        {
          "internalType": "address",
          "name": "_loanContract",
          "type": "address"
        }
      ],
      "name": "setLoanContract",
      "outputs": [
        {
          "internalType": "bool",
          "name": "",
          "type": "bool"
        }
      ],
      "stateMutability": "nonpayable",
      "type": "function"
    },
    {
      "inputs": [
        {
          "internalType": "uint128",
          "name": "_newPoolPart",
          "type": "uint128"
        }
      ],
      "name": "changePoolPart",
      "outputs": [
        {
          "internalType": "bool",
          "name": "",
          "type": "bool"
        }
      ],
      "stateMutability": "nonpayable",
      "type": "function"
    },
    {
      "inputs": [
        {
          "internalType": "uint256",
          "name": "_newThreshold",
          "type": "uint256"
        }
      ],
      "name": "setThresholdTokenAmount",
      "outputs": [
        {
          "internalType": "bool",
          "name": "",
          "type": "bool"
        }
      ],
      "stateMutability": "nonpayable",
      "type": "function"
    },
    {
      "inputs": [],
      "name": "setInitialDeposit",
      "outputs": [
        {
          "internalType": "bool",
          "name": "",
          "type": "bool"
        }
      ],
      "stateMutability": "nonpayable",
      "type": "function"
    },
    {
      "inputs": [
        {
          "internalType": "contract rControllerI",
          "name": "_controller",
          "type": "address"
        }
      ],
      "name": "setController",
      "outputs": [
        {
          "internalType": "bool",
          "name": "",
          "type": "bool"
        }
      ],
      "stateMutability": "nonpayable",
      "type": "function"
    },
    {
      "inputs": [
        {
          "internalType": "uint128",
          "name": "lockperiod",
          "type": "uint128"
        }
      ],
      "name": "setLockPeriod",
      "outputs": [
        {
          "internalType": "bool",
          "name": "",
          "type": "bool"
        }
      ],
      "stateMutability": "nonpayable",
      "type": "function"
    },
    {
      "inputs": [
        {
          "internalType": "uint128",
          "name": "_fees",
          "type": "uint128"
        }
      ],
      "name": "setWithdrawFees",
      "outputs": [
        {
          "internalType": "bool",
          "name": "",
          "type": "bool"
        }
      ],
      "stateMutability": "nonpayable",
      "type": "function"
    }
  ],
  "bytecode": "0x60806040526001805560006002556019600460006101000a8154816fffffffffffffffffffffffffffffffff02191690836fffffffffffffffffffffffffffffffff160217905550605f600460106101000a8154816fffffffffffffffffffffffffffffffff02191690836fffffffffffffffffffffffffffffffff1602179055506101f46011553480156200009457600080fd5b506040516200517c3803806200517c8339818101604052810190620000ba91906200026f565b33600860006101000a81548173ffffffffffffffffffffffffffffffffffffffff021916908373ffffffffffffffffffffffffffffffffffffffff16021790555060005b60036fffffffffffffffffffffffffffffffff168160ff1610156200019057828160ff16600381106200012d57fe5b602002015160098260ff16600381106200014357fe5b0160006101000a81548173ffffffffffffffffffffffffffffffffffffffff021916908373ffffffffffffffffffffffffffffffffffffffff1602179055508080600101915050620000fe565b5080600c60006101000a81548173ffffffffffffffffffffffffffffffffffffffff021916908373ffffffffffffffffffffffffffffffffffffffff16021790555050506200034f565b600081519050620001eb8162000335565b92915050565b600082601f8301126200020357600080fd5b60036200021a6200021482620002de565b620002b0565b915081838560208402820111156200023157600080fd5b60005b838110156200026557816200024a8882620001da565b84526020840193506020830192505060018101905062000234565b5050505092915050565b600080608083850312156200028357600080fd5b60006200029385828601620001f1565b9250506060620002a685828601620001da565b9150509250929050565b6000604051905081810181811067ffffffffffffffff82111715620002d457600080fd5b8060405250919050565b600067ffffffffffffffff821115620002f657600080fd5b602082029050919050565b60006200030e8262000315565b9050919050565b600073ffffffffffffffffffffffffffffffffffffffff82169050919050565b620003408162000301565b81146200034c57600080fd5b50565b614e1d806200035f6000396000f3fe608060405234801561001057600080fd5b50600436106101f05760003560e01c80638af814781161010f578063b8b10680116100a2578063d0e30db011610071578063d0e30db01461060b578063db28bfd014610615578063eacd7afc14610645578063f83e9a2014610675576101f0565b8063b8b106801461056f578063c23177b21461059f578063c277b657146105cf578063c89eb036146105ed576101f0565b806392eefe9b116100de57806392eefe9b146104c15780639af1d35a146104f1578063a6d8fcb21461050f578063a70200bd1461053f576101f0565b80638af81478146104375780638da5cb5b146104555780638e9b032614610473578063905f692e14610491576101f0565b806347d4a6a8116101875780636d6ea257116101565780636d6ea2571461039d5780637d7c2a1c146103cd57806380001288146103d757806381f433f014610407576101f0565b806347d4a6a81461030357806352f6e2381461031f578063698504241461033d5780636b9f1ef61461036d576101f0565b8063253f284b116101c3578063253f284b1461027b57806331805a2b1461029957806331d38806146102c95780633ccfd60b146102f9576101f0565b80630d88122c146101f557806311e8718814610211578063147453e91461022f578063224a14181461025f575b600080fd5b61020f600480360381019061020a91906144c2565b610693565b005b610219610793565b6040516102269190614a51565b60405180910390f35b61024960048036038101906102449190614527565b6107de565b6040516102569190614ba2565b60405180910390f35b610279600480360381019061027491906144c2565b610a49565b005b610283610b9d565b6040516102909190614932565b60405180910390f35b6102b360048036038101906102ae91906145de565b610bc3565b6040516102c09190614ba2565b60405180910390f35b6102e360048036038101906102de9190614434565b610bdb565b6040516102f09190614a6c565b60405180910390f35b610301610c7d565b005b61031d600480360381019061031891906144c2565b610dc4565b005b610327611774565b6040516103349190614a6c565b60405180910390f35b610357600480360381019061035291906145de565b6117f0565b6040516103649190614ba2565b60405180910390f35b610387600480360381019061038291906145b5565b611808565b6040516103949190614a6c565b60405180910390f35b6103b760048036038101906103b291906145de565b6118a6565b6040516103c49190614ba2565b60405180910390f35b6103d56118be565b005b6103f160048036038101906103ec91906144eb565b611cd2565b6040516103fe9190614a6c565b60405180910390f35b610421600480360381019061041c91906145b5565b611f14565b60405161042e9190614a6c565b60405180910390f35b61043f611fb2565b60405161044c9190614ba2565b60405180910390f35b61045d611fbe565b60405161046a9190614932565b60405180910390f35b61047b611fe4565b6040516104889190614b87565b60405180910390f35b6104ab60048036038101906104a69190614434565b612006565b6040516104b89190614a6c565b60405180910390f35b6104db60048036038101906104d6919061458c565b612026565b6040516104e89190614a6c565b60405180910390f35b6104f96120cc565b6040516105069190614b87565b60405180910390f35b6105296004803603810190610524919061445d565b6120ee565b6040516105369190614ba2565b60405180910390f35b610559600480360381019061055491906145b5565b6122f9565b6040516105669190614a6c565b60405180910390f35b610589600480360381019061058491906145de565b612397565b6040516105969190614a6c565b60405180910390f35b6105b960048036038101906105b4919061445d565b612403565b6040516105c69190614ba2565b60405180910390f35b6105d7612428565b6040516105e49190614a51565b60405180910390f35b6105f5612473565b6040516106029190614ba2565b60405180910390f35b610613612479565b005b61062f600480360381019061062a91906145de565b6128e8565b60405161063c9190614ba2565b60405180910390f35b61065f600480360381019061065a91906144eb565b612900565b60405161066c9190614a6c565b60405180910390f35b61067d612b49565b60405161068a9190614b87565b60405180910390f35b60006106d7826003806020026040519081016040528092919082600360200280828437600081840152601f19601f82011690508083019250505050505060006107de565b11610717576040517f08c379a000000000000000000000000000000000000000000000000000000000815260040161070e90614a87565b60405180910390fd5b610757816003806020026040519081016040528092919082600360200280828437600081840152601f19601f820116905080830192505050505050612b6b565b7fe7f2330a99451f199f91ed2ac09887e25894cb0e14021fe5d29bc959e7283d0e338260405161078892919061499f565b60405180910390a150565b61079b6140b3565b60056003806020026040519081016040528092919082600380156107d4576020028201915b8154815260200190600101908083116107c0575b5050505050905090565b600080600080600080610898600c60009054906101000a900473ffffffffffffffffffffffffffffffffffffffff1673ffffffffffffffffffffffffffffffffffffffff166318160ddd6040518163ffffffff1660e01b815260040160206040518083038186803b15801561085257600080fd5b505afa158015610866573d6000803e3d6000fd5b505050506040513d601f19601f8201168201806040525081019061088a9190614607565b670de0b6b3a7640000612f07565b905060005b60036fffffffffffffffffffffffffffffffff168160ff1610156109d55760098160ff16600381106108cb57fe5b0160009054906101000a900473ffffffffffffffffffffffffffffffffffffffff1673ffffffffffffffffffffffffffffffffffffffff1663313ce5676040518163ffffffff1660e01b815260040160206040518083038186803b15801561093257600080fd5b505afa158015610946573d6000803e3d6000fd5b505050506040513d601f19601f8201168201806040525081019061096a9190614630565b60ff1693506109a0601b8260ff166003811061098257fe5b015460058360ff166003811061099457fe5b01540185600a0a612f07565b850194506109c4898260ff16600381106109b657fe5b602002015185600a0a612f07565b83019250808060010191505061089d565b506109e96109e38386612f07565b82613027565b9450600115158715151415610a3b57612710600460009054906101000a90046fffffffffffffffffffffffffffffffff166fffffffffffffffffffffffffffffffff16860281610a3557fe5b04850194505b849550505050505092915050565b60005b60036fffffffffffffffffffffffffffffffff168160ff161015610b99576000828260ff1660038110610a7b57fe5b602002013514610b8c5760098160ff1660038110610a9557fe5b0160009054906101000a900473ffffffffffffffffffffffffffffffffffffffff1673ffffffffffffffffffffffffffffffffffffffff166323b872dd3330858560ff1660038110610ae357fe5b60200201356040518463ffffffff1660e01b8152600401610b0693929190614968565b602060405180830381600087803b158015610b2057600080fd5b505af1158015610b34573d6000803e3d6000fd5b505050506040513d601f19601f82011682018060405250810190610b589190614563565b50818160ff1660038110610b6857fe5b602002013560058260ff1660038110610b7d57fe5b01600082825401925050819055505b8080600101915050610a4c565b5050565b601e60009054906101000a900473ffffffffffffffffffffffffffffffffffffffff1681565b600e8160038110610bd057fe5b016000915090505481565b6000600860009054906101000a900473ffffffffffffffffffffffffffffffffffffffff1673ffffffffffffffffffffffffffffffffffffffff163373ffffffffffffffffffffffffffffffffffffffff1614610c3757600080fd5b81601e60006101000a81548173ffffffffffffffffffffffffffffffffffffffff021916908373ffffffffffffffffffffffffffffffffffffffff160217905550919050565b600860009054906101000a900473ffffffffffffffffffffffffffffffffffffffff1673ffffffffffffffffffffffffffffffffffffffff163373ffffffffffffffffffffffffffffffffffffffff1614610cd757600080fd5b6000805b60036fffffffffffffffffffffffffffffffff168160ff161015610d2c57600060188260ff1660038110610d0b57fe5b015414610d1f578180600101925050610d2c565b8080600101915050610cdb565b5060008160ff1611610d73576040517f08c379a0000000000000000000000000000000000000000000000000000000008152600401610d6a90614aa7565b60405180910390fd5b610db96018600380602002604051908101604052809291908260038015610daf576020028201915b815481526020019060010190808311610d9b575b5050505050613103565b610dc16131f4565b50565b6000610e08826003806020026040519081016040528092919082600360200280828437600081840152601f19601f82011690508083019250505050505060006107de565b11610e48576040517f08c379a0000000000000000000000000000000000000000000000000000000008152600401610e3f90614a87565b60405180910390fd5b6000610e8c826003806020026040519081016040528092919082600360200280828437600081840152601f19601f82011690508083019250505050505060016107de565b905080600c60009054906101000a900473ffffffffffffffffffffffffffffffffffffffff1673ffffffffffffffffffffffffffffffffffffffff166370a08231336040518263ffffffff1660e01b8152600401610eea919061494d565b60206040518083038186803b158015610f0257600080fd5b505afa158015610f16573d6000803e3d6000fd5b505050506040513d601f19601f82011682018060405250810190610f3a9190614607565b1015610f7b576040517f08c379a0000000000000000000000000000000000000000000000000000000008152600401610f7290614b67565b60405180910390fd5b610f836140b3565b610f8b613246565b9050600060019050600080600090505b60036fffffffffffffffffffffffffffffffff168160ff16101561100f576000868260ff1660038110610fca57fe5b6020020135111561100257858160ff1660038110610fe457fe5b6020020135610ff6338360ff166120ee565b101561100157600092505b5b8080600101915050610f9b565b5081611050576040517f08c379a000000000000000000000000000000000000000000000000000000000815260040161104790614ac7565b60405180910390fd5b60005b60036fffffffffffffffffffffffffffffffff168160ff1610156110d157838160ff166003811061108057fe5b6020020151868260ff166003811061109457fe5b60200201351080156110ba57506000868260ff16600381106110b257fe5b602002013514155b156110c457600191505b8080600101915050611053565b5080156116f357600c60009054906101000a900473ffffffffffffffffffffffffffffffffffffffff1673ffffffffffffffffffffffffffffffffffffffff16639dc29fac33866040518363ffffffff1660e01b81526004016111359291906149c8565b600060405180830381600087803b15801561114f57600080fd5b505af1158015611163573d6000803e3d6000fd5b50505050600080600090505b60036fffffffffffffffffffffffffffffffff168160ff1610156116b3576000878260ff166003811061119e57fe5b602002013511156116a65760098160ff16600381106111b957fe5b0160009054906101000a900473ffffffffffffffffffffffffffffffffffffffff1673ffffffffffffffffffffffffffffffffffffffff1663a9059cbb33898460ff166003811061120657fe5b60200201356040518363ffffffff1660e01b81526004016112289291906149c8565b602060405180830381600087803b15801561124257600080fd5b505af1158015611256573d6000803e3d6000fd5b505050506040513d601f19601f8201168201806040525081019061127a9190614563565b91508161128657600080fd5b868160ff166003811061129557fe5b6020020135601360003373ffffffffffffffffffffffffffffffffffffffff1673ffffffffffffffffffffffffffffffffffffffff1681526020019081526020016000208260ff16600381106112e757fe5b0160008282540392505081905550868160ff166003811061130457fe5b602002013560058260ff166003811061131957fe5b01600082825403925050819055506000878260ff166003811061133857fe5b6020020135905060005b601460003373ffffffffffffffffffffffffffffffffffffffff1673ffffffffffffffffffffffffffffffffffffffff168152602001908152602001600020805490508160ff1610156116a35760011515601460003373ffffffffffffffffffffffffffffffffffffffff1673ffffffffffffffffffffffffffffffffffffffff1681526020019081526020016000208260ff16815481106113e057fe5b90600052602060002090600802016007018460ff16600381106113ff57fe5b602091828204019190069054906101000a900460ff161515141580156114255750600082115b1561169657601460003373ffffffffffffffffffffffffffffffffffffffff1673ffffffffffffffffffffffffffffffffffffffff1681526020019081526020016000208160ff168154811061147757fe5b90600052602060002090600802016003018360ff166003811061149657fe5b0154821061161557601460003373ffffffffffffffffffffffffffffffffffffffff1673ffffffffffffffffffffffffffffffffffffffff1681526020019081526020016000208160ff16815481106114eb57fe5b90600052602060002090600802016003018360ff166003811061150a57fe5b0154820391506000601460003373ffffffffffffffffffffffffffffffffffffffff1673ffffffffffffffffffffffffffffffffffffffff1681526020019081526020016000208260ff168154811061155f57fe5b90600052602060002090600802016003018460ff166003811061157e57fe5b01819055506001601460003373ffffffffffffffffffffffffffffffffffffffff1673ffffffffffffffffffffffffffffffffffffffff1681526020019081526020016000208260ff16815481106115d257fe5b90600052602060002090600802016007018460ff16600381106115f157fe5b602091828204019190066101000a81548160ff021916908315150217905550611695565b81601460003373ffffffffffffffffffffffffffffffffffffffff1673ffffffffffffffffffffffffffffffffffffffff1681526020019081526020016000208260ff168154811061166357fe5b90600052602060002090600802016003018460ff166003811061168257fe5b0160008282540392505081905550600091505b5b8080600101915050611342565b50505b808060010191505061116f565b507fe9c01f7dea3ef08b44263b3cf5963eb42309e5fb5bec9305dbe12b82f37b519c33876040516116e592919061499f565b60405180910390a15061176d565b611733856003806020026040519081016040528092919082600360200280828437600081840152601f19601f82011690508083019250505050505061335e565b7fe2d5e24e56e4f05473adb8bb616473de3894beab8011d32382a638d1d2617c93338660405161176492919061499f565b60405180910390a15b5050505050565b6000600860009054906101000a900473ffffffffffffffffffffffffffffffffffffffff1673ffffffffffffffffffffffffffffffffffffffff163373ffffffffffffffffffffffffffffffffffffffff16146117d057600080fd5b6117d8613246565b60059060036117e89291906140d5565b506001905090565b600581600381106117fd57fe5b016000915090505481565b6000600860009054906101000a900473ffffffffffffffffffffffffffffffffffffffff1673ffffffffffffffffffffffffffffffffffffffff163373ffffffffffffffffffffffffffffffffffffffff161461186457600080fd5b81600460006101000a8154816fffffffffffffffffffffffffffffffff02191690836fffffffffffffffffffffffffffffffff16021790555060019050919050565b601b81600381106118b357fe5b016000915090505481565b600860009054906101000a900473ffffffffffffffffffffffffffffffffffffffff1673ffffffffffffffffffffffffffffffffffffffff163373ffffffffffffffffffffffffffffffffffffffff161461191857600080fd5b6119206140b3565b611928613246565b905060006119346140b3565b61193c6140b3565b611944614115565b600d60009054906101000a900473ffffffffffffffffffffffffffffffffffffffff1673ffffffffffffffffffffffffffffffffffffffff1663b49a60bb6040518163ffffffff1660e01b8152600401606060405180830381600087803b1580156119ae57600080fd5b505af11580156119c2573d6000803e3d6000fd5b505050506040513d601f19601f820116820180604052508101906119e69190614499565b905060005b60036fffffffffffffffffffffffffffffffff168160ff161015611bf8576000611a31611a2a60058460ff1660038110611a2157fe5b01546005613027565b6064612f07565b9050868260ff1660038110611a4257fe5b6020020151811115611a8157868260ff1660038110611a5d57fe5b60200201518103858360ff1660038110611a7357fe5b602002018181525050611bea565b868260ff1660038110611a9057fe5b6020020151811015611bb45780878360ff1660038110611aac57fe5b602002015103848360ff1660038110611ac157fe5b60200201818152505060098260ff1660038110611ada57fe5b0160009054906101000a900473ffffffffffffffffffffffffffffffffffffffff1673ffffffffffffffffffffffffffffffffffffffff1663a9059cbb848460ff1660038110611b2657fe5b6020020151868560ff1660038110611b3a57fe5b60200201516040518363ffffffff1660e01b8152600401611b5c929190614a28565b602060405180830381600087803b158015611b7657600080fd5b505af1158015611b8a573d6000803e3d6000fd5b505050506040513d601f19601f82011682018060405250810190611bae9190614563565b50611be9565b6000858360ff1660038110611bc557fe5b6020020181815250506000848360ff1660038110611bdf57fe5b6020020181815250505b5b5080806001019150506119eb565b506000805b60036fffffffffffffffffffffffffffffffff168160ff161015611c4d576000848260ff1660038110611c2c57fe5b60200201511115611c405760019150611c4d565b8080600101915050611bfd565b508015611c6257611c5d8361352d565b600090505b60005b60036fffffffffffffffffffffffffffffffff168160ff161015611cb5576000858260ff1660038110611c9457fe5b60200201511115611ca85760019150611cb5565b8080600101915050611c65565b508015611cca57611cc584613103565b600090505b505050505050565b6000600860009054906101000a900473ffffffffffffffffffffffffffffffffffffffff1673ffffffffffffffffffffffffffffffffffffffff163373ffffffffffffffffffffffffffffffffffffffff161480611d7d5750601e60009054906101000a900473ffffffffffffffffffffffffffffffffffffffff1673ffffffffffffffffffffffffffffffffffffffff163373ffffffffffffffffffffffffffffffffffffffff16145b611d8657600080fd5b60005b60036fffffffffffffffffffffffffffffffff168160ff161015611f09576000848260ff1660038110611db857fe5b60200201511115611efc57838160ff1660038110611dd257fe5b6020020151601b8260ff1660038110611de757fe5b0160008282540392505081905550838160ff1660038110611e0457fe5b602002015160058260ff1660038110611e1957fe5b016000828254019250508190555060098160ff1660038110611e3757fe5b0160009054906101000a900473ffffffffffffffffffffffffffffffffffffffff1673ffffffffffffffffffffffffffffffffffffffff166323b872dd8430878560ff1660038110611e8557fe5b60200201516040518463ffffffff1660e01b8152600401611ea8939291906149f1565b602060405180830381600087803b158015611ec257600080fd5b505af1158015611ed6573d6000803e3d6000fd5b505050506040513d601f19601f82011682018060405250810190611efa9190614563565b505b8080600101915050611d89565b506001905092915050565b6000600860009054906101000a900473ffffffffffffffffffffffffffffffffffffffff1673ffffffffffffffffffffffffffffffffffffffff163373ffffffffffffffffffffffffffffffffffffffff1614611f7057600080fd5b81601260006101000a8154816fffffffffffffffffffffffffffffffff02191690836fffffffffffffffffffffffffffffffff16021790555060019050919050565b670de0b6b3a764000081565b600860009054906101000a900473ffffffffffffffffffffffffffffffffffffffff1681565b600460109054906101000a90046fffffffffffffffffffffffffffffffff1681565b60166020528060005260406000206000915054906101000a900460ff1681565b6000600860009054906101000a900473ffffffffffffffffffffffffffffffffffffffff1673ffffffffffffffffffffffffffffffffffffffff163373ffffffffffffffffffffffffffffffffffffffff161461208257600080fd5b81600d60006101000a81548173ffffffffffffffffffffffffffffffffffffffff021916908373ffffffffffffffffffffffffffffffffffffffff16021790555060019050919050565b600460009054906101000a90046fffffffffffffffffffffffffffffffff1681565b6000806000905060005b601460008673ffffffffffffffffffffffffffffffffffffffff1673ffffffffffffffffffffffffffffffffffffffff168152602001908152602001600020805490508160ff1610156122ee57601260009054906101000a90046fffffffffffffffffffffffffffffffff1662015180026fffffffffffffffffffffffffffffffff16601460008773ffffffffffffffffffffffffffffffffffffffff1673ffffffffffffffffffffffffffffffffffffffff1681526020019081526020016000208260ff16815481106121c857fe5b906000526020600020906008020160060154420311801561226c575060011515601460008773ffffffffffffffffffffffffffffffffffffffff1673ffffffffffffffffffffffffffffffffffffffff1681526020019081526020016000208260ff168154811061223557fe5b9060005260206000209060080201600701856003811061225157fe5b602091828204019190069054906101000a900460ff16151514155b156122e157601460008673ffffffffffffffffffffffffffffffffffffffff1673ffffffffffffffffffffffffffffffffffffffff1681526020019081526020016000208160ff16815481106122be57fe5b906000526020600020906008020160030184600381106122da57fe5b0154820191505b80806001019150506120f8565b508091505092915050565b6000600860009054906101000a900473ffffffffffffffffffffffffffffffffffffffff1673ffffffffffffffffffffffffffffffffffffffff163373ffffffffffffffffffffffffffffffffffffffff161461235557600080fd5b81600460106101000a8154816fffffffffffffffffffffffffffffffff02191690836fffffffffffffffffffffffffffffffff16021790555060019050919050565b6000600860009054906101000a900473ffffffffffffffffffffffffffffffffffffffff1673ffffffffffffffffffffffffffffffffffffffff163373ffffffffffffffffffffffffffffffffffffffff16146123f357600080fd5b8160118190555060019050919050565b6013602052816000526040600020816003811061241c57fe5b01600091509150505481565b6124306140b3565b601b600380602002604051908101604052809291908260038015612469576020028201915b815481526020019060010190808311612455575b5050505050905090565b60115481565b600860009054906101000a900473ffffffffffffffffffffffffffffffffffffffff1673ffffffffffffffffffffffffffffffffffffffff163373ffffffffffffffffffffffffffffffffffffffff16146124d357600080fd5b6124db6140b3565b6124e3613246565b905060006124ef614115565b600d60009054906101000a900473ffffffffffffffffffffffffffffffffffffffff1673ffffffffffffffffffffffffffffffffffffffff1663b49a60bb6040518163ffffffff1660e01b8152600401606060405180830381600087803b15801561255957600080fd5b505af115801561256d573d6000803e3d6000fd5b505050506040513d601f19601f820116820180604052508101906125919190614499565b905060005b60036fffffffffffffffffffffffffffffffff168160ff1610156128735760098160ff16600381106125c457fe5b0160009054906101000a900473ffffffffffffffffffffffffffffffffffffffff1673ffffffffffffffffffffffffffffffffffffffff1663313ce5676040518163ffffffff1660e01b815260040160206040518083038186803b15801561262b57600080fd5b505afa15801561263f573d6000803e3d6000fd5b505050506040513d601f19601f820116820180604052508101906126639190614630565b60ff16925082600a0a60115402848260ff166003811061267f57fe5b6020020151111561284b57600e8160ff166003811061269a57fe5b0154848260ff16600381106126ab57fe5b6020020181815101915081815250506064600460109054906101000a90046fffffffffffffffffffffffffffffffff166fffffffffffffffffffffffffffffffff16858360ff16600381106126fc57fe5b6020020151028161270957fe5b04848260ff166003811061271957fe5b602002018181525050600e8160ff166003811061273257fe5b0154848260ff166003811061274357fe5b602002015103848260ff166003811061275857fe5b60200201818152505060098160ff166003811061277157fe5b0160009054906101000a900473ffffffffffffffffffffffffffffffffffffffff1673ffffffffffffffffffffffffffffffffffffffff1663a9059cbb838360ff16600381106127bd57fe5b6020020151868460ff16600381106127d157fe5b60200201516040518363ffffffff1660e01b81526004016127f3929190614a28565b602060405180830381600087803b15801561280d57600080fd5b505af1158015612821573d6000803e3d6000fd5b505050506040513d601f19601f820116820180604052508101906128459190614563565b50612866565b6000848260ff166003811061285c57fe5b6020020181815250505b8080600101915050612596565b506000805b60036fffffffffffffffffffffffffffffffff168160ff1610156128cb576000858260ff16600381106128a757fe5b6020020151146128be5781806001019250506128cb565b8080600101915050612878565b5060008160ff1611156128e2576128e18461352d565b5b50505050565b601881600381106128f557fe5b016000915090505481565b6000600860009054906101000a900473ffffffffffffffffffffffffffffffffffffffff1673ffffffffffffffffffffffffffffffffffffffff163373ffffffffffffffffffffffffffffffffffffffff1614806129ab5750601e60009054906101000a900473ffffffffffffffffffffffffffffffffffffffff1673ffffffffffffffffffffffffffffffffffffffff163373ffffffffffffffffffffffffffffffffffffffff16145b6129b457600080fd5b6129bd83613103565b60005b60036fffffffffffffffffffffffffffffffff168160ff161015612b3e576000848260ff16600381106129ef57fe5b60200201511115612b3157838160ff1660038110612a0957fe5b6020020151601b8260ff1660038110612a1e57fe5b0160008282540192505081905550838160ff1660038110612a3b57fe5b602002015160058260ff1660038110612a5057fe5b016000828254039250508190555060098160ff1660038110612a6e57fe5b0160009054906101000a900473ffffffffffffffffffffffffffffffffffffffff1673ffffffffffffffffffffffffffffffffffffffff1663a9059cbb84868460ff1660038110612abb57fe5b60200201516040518363ffffffff1660e01b8152600401612add929190614a28565b602060405180830381600087803b158015612af757600080fd5b505af1158015612b0b573d6000803e3d6000fd5b505050506040513d601f19601f82011682018060405250810190612b2f9190614563565b505b80806001019150506129c0565b506001905092915050565b601260009054906101000a90046fffffffffffffffffffffffffffffffff1681565b6000612b788260006107de565b9050600080600090505b60036fffffffffffffffffffffffffffffffff168160ff161015612d80576000848260ff1660038110612bb157fe5b60200201511115612d735760098160ff1660038110612bcc57fe5b0160009054906101000a900473ffffffffffffffffffffffffffffffffffffffff1673ffffffffffffffffffffffffffffffffffffffff166323b872dd3330878560ff1660038110612c1a57fe5b60200201516040518463ffffffff1660e01b8152600401612c3d93929190614968565b602060405180830381600087803b158015612c5757600080fd5b505af1158015612c6b573d6000803e3d6000fd5b505050506040513d601f19601f82011682018060405250810190612c8f9190614563565b915081612cd1576040517f08c379a0000000000000000000000000000000000000000000000000000000008152600401612cc890614b07565b60405180910390fd5b838160ff1660038110612ce057fe5b602002015160058260ff1660038110612cf557fe5b0160008282540192505081905550838160ff1660038110612d1257fe5b6020020151601360003373ffffffffffffffffffffffffffffffffffffffff1673ffffffffffffffffffffffffffffffffffffffff1681526020019081526020016000208260ff1660038110612d6457fe5b01600082825401925050819055505b8080600101915050612b82565b50600c60009054906101000a900473ffffffffffffffffffffffffffffffffffffffff1673ffffffffffffffffffffffffffffffffffffffff166340c10f1933846040518363ffffffff1660e01b8152600401612dde9291906149c8565b600060405180830381600087803b158015612df857600080fd5b505af1158015612e0c573d6000803e3d6000fd5b50505050612e18614137565b612e20614159565b6040518060800160405280868152602001868152602001428152602001838152509050601460003373ffffffffffffffffffffffffffffffffffffffff1673ffffffffffffffffffffffffffffffffffffffff168152602001908152602001600020819080600181540180825580915050600190039060005260206000209060080201600090919091909150600082015181600001906003612ec39291906140d5565b50602082015181600301906003612edb9291906140d5565b5060408201518160060155606082015181600701906003612efd929190614193565b5050505050505050565b600080821415612f4c576040517f08c379a0000000000000000000000000000000000000000000000000000000008152600401612f4390614b47565b60405180910390fd5b6000670de0b6b3a7640000840290506000841480612f7a5750670de0b6b3a7640000848281612f7757fe5b04145b612fb9576040517f08c379a0000000000000000000000000000000000000000000000000000000008152600401612fb090614ae7565b60405180910390fd5b600060028481612fc557fe5b04820190508181101561300d576040517f08c379a000000000000000000000000000000000000000000000000000000000815260040161300490614ae7565b60405180910390fd5b600084828161301857fe5b04905080935050505092915050565b6000808284029050600084148061304657508284828161304357fe5b04145b613085576040517f08c379a000000000000000000000000000000000000000000000000000000000815260040161307c90614b27565b60405180910390fd5b60006002670de0b6b3a76400008161309957fe5b0482019050818110156130e1576040517f08c379a00000000000000000000000000000000000000000000000000000000081526004016130d890614b27565b60405180910390fd5b6000670de0b6b3a764000082816130f457fe5b04905080935050505092915050565b600d60009054906101000a900473ffffffffffffffffffffffffffffffffffffffff1673ffffffffffffffffffffffffffffffffffffffff1663b1b8f1be826040518263ffffffff1660e01b815260040161315e9190614a51565b600060405180830381600087803b15801561317857600080fd5b505af115801561318c573d6000803e3d6000fd5b5050505060005b60036fffffffffffffffffffffffffffffffff168160ff1610156131f057818160ff16600381106131c057fe5b6020020151600e8260ff16600381106131d557fe5b01600082825403925050819055508080600101915050613193565b5050565b6000601760009054906101000a900463ffffffff16905060005b8163ffffffff168160ff16101561324257600061322961361e565b905061323481613715565b50808060010191505061320e565b5050565b61324e6140b3565b6132566140b3565b60005b60036fffffffffffffffffffffffffffffffff168160ff1610156133565760098160ff166003811061328757fe5b0160009054906101000a900473ffffffffffffffffffffffffffffffffffffffff1673ffffffffffffffffffffffffffffffffffffffff166370a08231306040518263ffffffff1660e01b81526004016132e19190614932565b60206040518083038186803b1580156132f957600080fd5b505afa15801561330d573d6000803e3d6000fd5b505050506040513d601f19601f820116820180604052508101906133319190614607565b828260ff166003811061334057fe5b6020020181815250508080600101915050613259565b508091505090565b60005b60036fffffffffffffffffffffffffffffffff1681101561343857600082826003811061338a57fe5b6020020151111561342b578181600381106133a157fe5b6020020151601560003373ffffffffffffffffffffffffffffffffffffffff1673ffffffffffffffffffffffffffffffffffffffff16815260200190815260200160002082600381106133f057fe5b016000828254019250508190555081816003811061340a57fe5b60200201516018826003811061341c57fe5b01600082825401925050819055505b8080600101915050613361565b5060011515601660003373ffffffffffffffffffffffffffffffffffffffff1673ffffffffffffffffffffffffffffffffffffffff16815260200190815260200160002060009054906101000a900460ff1615151461352a576001601760008282829054906101000a900463ffffffff160192506101000a81548163ffffffff021916908363ffffffff1602179055506001601660003373ffffffffffffffffffffffffffffffffffffffff1673ffffffffffffffffffffffffffffffffffffffff16815260200190815260200160002060006101000a81548160ff0219169083151502179055506135293361404c565b5b50565b600d60009054906101000a900473ffffffffffffffffffffffffffffffffffffffff1673ffffffffffffffffffffffffffffffffffffffff1663d4e20b01826040518263ffffffff1660e01b81526004016135889190614a51565b600060405180830381600087803b1580156135a257600080fd5b505af11580156135b6573d6000803e3d6000fd5b5050505060005b60036fffffffffffffffffffffffffffffffff168160ff16101561361a57818160ff16600381106135ea57fe5b6020020151600e8260ff16600381106135ff57fe5b016000828254019250508190555080806001019150506135bd565b5050565b6000600154600254101561363157600080fd5b600080600154815260200190815260200160002060009054906101000a900473ffffffffffffffffffffffffffffffffffffffff16600360006101000a81548173ffffffffffffffffffffffffffffffffffffffff021916908373ffffffffffffffffffffffffffffffffffffffff160217905550600080600154815260200190815260200160002060006101000a81549073ffffffffffffffffffffffffffffffffffffffff021916905560018060008282540192505081905550600360009054906101000a900473ffffffffffffffffffffffffffffffffffffffff16905090565b60008061379d601560008573ffffffffffffffffffffffffffffffffffffffff1673ffffffffffffffffffffffffffffffffffffffff168152602001908152602001600020600380602002604051908101604052809291908260038015613791576020028201915b81548152602001906001019080831161377d575b505050505060016107de565b9050600c60009054906101000a900473ffffffffffffffffffffffffffffffffffffffff1673ffffffffffffffffffffffffffffffffffffffff16639dc29fac84836040518363ffffffff1660e01b81526004016137fc929190614a28565b600060405180830381600087803b15801561381657600080fd5b505af115801561382a573d6000803e3d6000fd5b5050505060005b60036fffffffffffffffffffffffffffffffff168160ff161015614046576000601560008673ffffffffffffffffffffffffffffffffffffffff1673ffffffffffffffffffffffffffffffffffffffff1681526020019081526020016000208260ff166003811061389e57fe5b01541180156138fb57506000601360008673ffffffffffffffffffffffffffffffffffffffff1673ffffffffffffffffffffffffffffffffffffffff1681526020019081526020016000208260ff16600381106138f757fe5b0154115b156140395760098160ff166003811061391057fe5b0160009054906101000a900473ffffffffffffffffffffffffffffffffffffffff1673ffffffffffffffffffffffffffffffffffffffff1663a9059cbb85601560008873ffffffffffffffffffffffffffffffffffffffff1673ffffffffffffffffffffffffffffffffffffffff1681526020019081526020016000208460ff166003811061399b57fe5b01546040518363ffffffff1660e01b81526004016139ba929190614a28565b602060405180830381600087803b1580156139d457600080fd5b505af11580156139e8573d6000803e3d6000fd5b505050506040513d601f19601f82011682018060405250810190613a0c9190614563565b925082613a1857600080fd5b601560008573ffffffffffffffffffffffffffffffffffffffff1673ffffffffffffffffffffffffffffffffffffffff1681526020019081526020016000208160ff1660038110613a6557fe5b0154601360008673ffffffffffffffffffffffffffffffffffffffff1673ffffffffffffffffffffffffffffffffffffffff1681526020019081526020016000208260ff1660038110613ab457fe5b0160008282540392505081905550601560008573ffffffffffffffffffffffffffffffffffffffff1673ffffffffffffffffffffffffffffffffffffffff1681526020019081526020016000208160ff1660038110613b0f57fe5b015460188260ff1660038110613b2157fe5b0160008282540392505081905550601560008573ffffffffffffffffffffffffffffffffffffffff1673ffffffffffffffffffffffffffffffffffffffff1681526020019081526020016000208160ff1660038110613b7c57fe5b015460058260ff1660038110613b8e57fe5b01600082825403925050819055506000601560008673ffffffffffffffffffffffffffffffffffffffff1673ffffffffffffffffffffffffffffffffffffffff1681526020019081526020016000208260ff1660038110613beb57fe5b0154905060005b601460008773ffffffffffffffffffffffffffffffffffffffff1673ffffffffffffffffffffffffffffffffffffffff168152602001908152602001600020805490508160ff161015613f535760011515601460008873ffffffffffffffffffffffffffffffffffffffff1673ffffffffffffffffffffffffffffffffffffffff1681526020019081526020016000208260ff1681548110613c9057fe5b90600052602060002090600802016007018460ff1660038110613caf57fe5b602091828204019190069054906101000a900460ff16151514158015613cd55750600082115b15613f4657601460008773ffffffffffffffffffffffffffffffffffffffff1673ffffffffffffffffffffffffffffffffffffffff1681526020019081526020016000208160ff1681548110613d2757fe5b90600052602060002090600802016003018360ff1660038110613d4657fe5b01548210613ec557601460008773ffffffffffffffffffffffffffffffffffffffff1673ffffffffffffffffffffffffffffffffffffffff1681526020019081526020016000208160ff1681548110613d9b57fe5b90600052602060002090600802016003018360ff1660038110613dba57fe5b0154820391506000601460008873ffffffffffffffffffffffffffffffffffffffff1673ffffffffffffffffffffffffffffffffffffffff1681526020019081526020016000208260ff1681548110613e0f57fe5b90600052602060002090600802016003018460ff1660038110613e2e57fe5b01819055506001601460008873ffffffffffffffffffffffffffffffffffffffff1673ffffffffffffffffffffffffffffffffffffffff1681526020019081526020016000208260ff1681548110613e8257fe5b90600052602060002090600802016007018460ff1660038110613ea157fe5b602091828204019190066101000a81548160ff021916908315150217905550613f45565b81601460008873ffffffffffffffffffffffffffffffffffffffff1673ffffffffffffffffffffffffffffffffffffffff1681526020019081526020016000208260ff1681548110613f1357fe5b90600052602060002090600802016003018460ff1660038110613f3257fe5b0160008282540392505081905550600091505b5b8080600101915050613bf2565b506000601560008773ffffffffffffffffffffffffffffffffffffffff1673ffffffffffffffffffffffffffffffffffffffff1681526020019081526020016000208360ff1660038110613fa357fe5b01819055506000601660008773ffffffffffffffffffffffffffffffffffffffff1673ffffffffffffffffffffffffffffffffffffffff16815260200190815260200160002060006101000a81548160ff0219169083151502179055506001601760008282829054906101000a900463ffffffff160392506101000a81548163ffffffff021916908363ffffffff160217905550505b8080600101915050613831565b50505050565b600160026000828254019250508190555080600080600254815260200190815260200160002060006101000a81548173ffffffffffffffffffffffffffffffffffffffff021916908373ffffffffffffffffffffffffffffffffffffffff16021790555050565b6040518060600160405280600390602082028036833780820191505090505090565b8260038101928215614104579160200282015b828111156141035782518255916020019190600101906140e8565b5b509050614111919061422c565b5090565b6040518060600160405280600390602082028036833780820191505090505090565b6040518060600160405280600390602082028036833780820191505090505090565b604051806080016040528061416c6140b3565b81526020016141796140b3565b81526020016000815260200161418d614137565b81525090565b826003601f0160209004810192821561421b5791602002820160005b838211156141ec57835183826101000a81548160ff02191690831515021790555092602001926001016020816000010492830192600103026141af565b80156142195782816101000a81549060ff02191690556001016020816000010492830192600103026141ec565b505b5090506142289190614249565b5090565b5b8082111561424557600081600090555060010161422d565b5090565b5b8082111561426d57600081816101000a81549060ff02191690555060010161424a565b5090565b60008135905061428081614d46565b92915050565b600082601f83011261429757600080fd5b60036142aa6142a582614bea565b614bbd565b915081838560208402820111156142c057600080fd5b60005b838110156142f057816142d688826143cb565b8452602084019350602083019250506001810190506142c3565b5050505092915050565b60008190508260206003028201111561431257600080fd5b92915050565b600082601f83011261432957600080fd5b600361433c61433782614c0c565b614bbd565b9150818385602084028201111561435257600080fd5b60005b83811015614382578161436888826143f5565b845260208401935060208301925050600181019050614355565b5050505092915050565b60008135905061439b81614d5d565b92915050565b6000815190506143b081614d5d565b92915050565b6000813590506143c581614d74565b92915050565b6000815190506143da81614d8b565b92915050565b6000813590506143ef81614da2565b92915050565b60008135905061440481614db9565b92915050565b60008151905061441981614db9565b92915050565b60008151905061442e81614dd0565b92915050565b60006020828403121561444657600080fd5b600061445484828501614271565b91505092915050565b6000806040838503121561447057600080fd5b600061447e85828601614271565b925050602061448f858286016143f5565b9150509250929050565b6000606082840312156144ab57600080fd5b60006144b984828501614286565b91505092915050565b6000606082840312156144d457600080fd5b60006144e2848285016142fa565b91505092915050565b600080608083850312156144fe57600080fd5b600061450c85828601614318565b925050606061451d85828601614271565b9150509250929050565b6000806080838503121561453a57600080fd5b600061454885828601614318565b92505060606145598582860161438c565b9150509250929050565b60006020828403121561457557600080fd5b6000614583848285016143a1565b91505092915050565b60006020828403121561459e57600080fd5b60006145ac848285016143b6565b91505092915050565b6000602082840312156145c757600080fd5b60006145d5848285016143e0565b91505092915050565b6000602082840312156145f057600080fd5b60006145fe848285016143f5565b91505092915050565b60006020828403121561461957600080fd5b60006146278482850161440a565b91505092915050565b60006020828403121561464257600080fd5b60006146508482850161441f565b91505092915050565b60006146658383614914565b60208301905092915050565b61467a81614d01565b82525050565b61468981614c6c565b82525050565b61469b60608383614d37565b5050565b6146a881614c38565b6146b28184614c50565b92506146bd82614c2e565b8060005b838110156146ee5781516146d58782614659565b96506146e083614c43565b9250506001810190506146c1565b505050505050565b6146ff81614c7e565b82525050565b6000614712601283614c5b565b91507f7a65726f20746f6b656e7320737570706c7900000000000000000000000000006000830152602082019050919050565b6000614752601483614c5b565b91507f776974686472617720717565756520656d7074790000000000000000000000006000830152602082019050919050565b6000614792600b83614c5b565b91507f6c6f636b20706572696f640000000000000000000000000000000000000000006000830152602082019050919050565b60006147d2601083614c5b565b91507f4552525f4449565f494e5445524e414c000000000000000000000000000000006000830152602082019050919050565b6000614812601783614c5b565b91507f5472616e73666572206e6f74207375636365737366756c0000000000000000006000830152602082019050919050565b6000614852601083614c5b565b91507f4552525f4d554c5f4f564552464c4f57000000000000000000000000000000006000830152602082019050919050565b6000614892600c83614c5b565b91507f4552525f4449565f5a45524f00000000000000000000000000000000000000006000830152602082019050919050565b60006148d2600783614c5b565b91507f6c6f7720525054000000000000000000000000000000000000000000000000006000830152602082019050919050565b61490e81614cae565b82525050565b61491d81614cea565b82525050565b61492c81614cea565b82525050565b60006020820190506149476000830184614680565b92915050565b60006020820190506149626000830184614671565b92915050565b600060608201905061497d6000830186614671565b61498a6020830185614680565b6149976040830184614923565b949350505050565b60006080820190506149b46000830185614671565b6149c1602083018461468f565b9392505050565b60006040820190506149dd6000830185614671565b6149ea6020830184614923565b9392505050565b6000606082019050614a066000830186614680565b614a136020830185614680565b614a206040830184614923565b949350505050565b6000604082019050614a3d6000830185614680565b614a4a6020830184614923565b9392505050565b6000606082019050614a66600083018461469f565b92915050565b6000602082019050614a8160008301846146f6565b92915050565b60006020820190508181036000830152614aa081614705565b9050919050565b60006020820190508181036000830152614ac081614745565b9050919050565b60006020820190508181036000830152614ae081614785565b9050919050565b60006020820190508181036000830152614b00816147c5565b9050919050565b60006020820190508181036000830152614b2081614805565b9050919050565b60006020820190508181036000830152614b4081614845565b9050919050565b60006020820190508181036000830152614b6081614885565b9050919050565b60006020820190508181036000830152614b80816148c5565b9050919050565b6000602082019050614b9c6000830184614905565b92915050565b6000602082019050614bb76000830184614923565b92915050565b6000604051905081810181811067ffffffffffffffff82111715614be057600080fd5b8060405250919050565b600067ffffffffffffffff821115614c0157600080fd5b602082029050919050565b600067ffffffffffffffff821115614c2357600080fd5b602082029050919050565b6000819050919050565b600060039050919050565b6000602082019050919050565b600081905092915050565b600082825260208201905092915050565b6000614c7782614cca565b9050919050565b60008115159050919050565b6000614c9582614c6c565b9050919050565b6000614ca782614c6c565b9050919050565b60006fffffffffffffffffffffffffffffffff82169050919050565b600073ffffffffffffffffffffffffffffffffffffffff82169050919050565b6000819050919050565b600060ff82169050919050565b6000614d0c82614d13565b9050919050565b6000614d1e82614d25565b9050919050565b6000614d3082614cca565b9050919050565b82818337600083830152505050565b614d4f81614c6c565b8114614d5a57600080fd5b50565b614d6681614c7e565b8114614d7157600080fd5b50565b614d7d81614c8a565b8114614d8857600080fd5b50565b614d9481614c9c565b8114614d9f57600080fd5b50565b614dab81614cae565b8114614db657600080fd5b50565b614dc281614cea565b8114614dcd57600080fd5b50565b614dd981614cf4565b8114614de457600080fd5b5056fea26469706673582212206eae9d7bdb3622637ca1d0f82ddd4ab30403796721399e964153c848cd88f84864736f6c634300060c0033",
  "immutableReferences": {},
  "source": "// SPDX-License-Identifier: UNLICENSED\r\npragma solidity ^0.6.0;\r\npragma experimental ABIEncoderV2;\r\n\r\nimport './MathLib.sol';\r\nimport './RoyaleLPstorage.sol';\r\n\r\n\r\ncontract RoyaleLP is RoyaleLPstorage, rNum {\r\n\r\n    modifier onlyOwner {\r\n        require(msg.sender == owner);\r\n        _;\r\n    }\r\n\r\n     modifier onlyAuthorized {\r\n        require(msg.sender == owner || msg.sender==loanContract);\r\n        _;\r\n    }\r\n\r\n    constructor(\r\n        address[N_COINS] memory _tokens,\r\n        address _rpToken\r\n    ) public {\r\n        owner = msg.sender;\r\n\r\n        for(uint8 i=0; i<N_COINS; i++) {\r\n            tokens[i] = Erc20(_tokens[i]);\r\n        }\r\n        rpToken = Erc20(_rpToken);\r\n    }\r\n    \r\n    /* EVENTS */\r\n    event userSupplied(\r\n        address user,\r\n        uint[N_COINS] amounts\r\n    );\r\n\r\n    event userRecieved(\r\n        address user,\r\n        uint[N_COINS] amounts\r\n    );\r\n\r\n    event userAddedToQ(\r\n        address user,\r\n        uint[N_COINS] amounts\r\n    );\r\n\r\n    /* INTERNAL FUNCTIONS */\r\n\r\n    function _getBalances() internal view returns(uint256[N_COINS] memory) {\r\n        uint256[N_COINS] memory balances;\r\n\r\n        for(uint8 i=0; i<N_COINS; i++) {\r\n            balances[i] = tokens[i].balanceOf(address(this));\r\n        }\r\n\r\n        return balances;\r\n    }\r\n\r\n\r\n\r\n    // functions related to deposit and supply\r\n\r\n\r\n\r\n\r\n    // This function deposits the fund to Yield Optimizer\r\n    function _deposit(uint256[N_COINS] memory amounts) internal {\r\n        controller.deposit(amounts);\r\n        \r\n        for(uint8 i=0; i<N_COINS; i++) {\r\n            YieldPoolBalance[i] += amounts[i];\r\n        }\r\n    }\r\n\r\n\r\n\r\n    //Internal Calculation For User Supply \r\n\r\n    function _supply(uint256[N_COINS] memory amounts) internal {\r\n        uint256 mintTokens;        \r\n        mintTokens = calcRptAmount(amounts, false);    \r\n        \r\n        bool result;\r\n        for(uint8 i=0; i<N_COINS; i++) {\r\n            if(amounts[i] > 0) {\r\n                result = tokens[i].transferFrom(\r\n                    msg.sender, \r\n                    address(this), \r\n                    amounts[i]\r\n                );\r\n                require(result,\"Transfer not successful\");\r\n                selfBalance[i] += amounts[i];\r\n                amountSupplied[msg.sender][i] += amounts[i];\r\n            }\r\n        }\r\n        rpToken.mint(msg.sender, mintTokens);\r\n        bool[N_COINS] memory falseArray;\r\n        depositDetails memory d = depositDetails(amounts, amounts, now, falseArray);\r\n        supplyTime[msg.sender].push(d);\r\n    }\r\n\r\n\r\n\r\n    // functions related to withdraw, withdraw queue and withdraw from Yield Optimizer\r\n    function _takeBack(address recipient) internal {\r\n        bool result;\r\n\r\n        uint256 burnAmt;\r\n\r\n        burnAmt = calcRptAmount(amountWithdraw[recipient], true);\r\n        rpToken.burn(recipient, burnAmt);\r\n\r\n        for(uint8 i=0; i<N_COINS; i++) {\r\n            if(\r\n                amountWithdraw[recipient][i] > 0 \r\n                && \r\n                amountSupplied[recipient][i] > 0\r\n            ) {\r\n                result = tokens[i].transfer(\r\n                    recipient,  \r\n                    amountWithdraw[recipient][i]\r\n                );\r\n                require(result);\r\n\r\n                amountSupplied[recipient][i] -= amountWithdraw[recipient][i];\r\n                totalWithdraw[i] -= amountWithdraw[recipient][i];\r\n                selfBalance[i] -= amountWithdraw[recipient][i];\r\n\r\n                uint x = amountWithdraw[recipient][i];\r\n                for(uint8 j=0; j<supplyTime[recipient].length; j++) {\r\n                    if(supplyTime[recipient][j].withdrawn[i] != true && x > 0) {\r\n                        if(x >= supplyTime[recipient][j].remAmt[i]) {\r\n                            x = x - supplyTime[recipient][j].remAmt[i];\r\n                            supplyTime[recipient][j].remAmt[i] = 0;\r\n                            supplyTime[recipient][j].withdrawn[i] = true;\r\n                        }\r\n                        else {\r\n                            supplyTime[recipient][j].remAmt[i] -= x;\r\n                            x = 0;\r\n                        }\r\n                    }\r\n                }\r\n\r\n                amountWithdraw[recipient][i] = 0;\r\n\r\n                isInQ[recipient] = false;\r\n                recipientCount -= 1;\r\n            }\r\n        }\r\n    }\r\n\r\n\r\n\r\n\r\n    // this will fulfill withdraw requests from the queue\r\n    function _giveBack() internal {\r\n        \r\n        uint32 counter = recipientCount;\r\n        for(uint8 i=0; i<counter; i++) {\r\n            address recipient = getFromQ();\r\n            _takeBack(recipient);\r\n        }\r\n\r\n    }\r\n\r\n\r\n\r\n\r\n\r\n    // this will add unfulfilled withdraw requests to the queue\r\n    function _takeBackQ(uint256[N_COINS] memory amounts) internal {\r\n        \r\n        for(uint256 i=0; i<N_COINS; i++) {\r\n            if(amounts[i] > 0) {\r\n                amountWithdraw[msg.sender][i] += amounts[i];\r\n                totalWithdraw[i] += amounts[i];\r\n            }\r\n        }\r\n\r\n        if(isInQ[msg.sender] != true) {\r\n            recipientCount += 1;\r\n            isInQ[msg.sender] = true;\r\n            addToQ(msg.sender);\r\n        }\r\n\r\n    }\r\n\r\n\r\n\r\n\r\n    // this will withdraw from Yield Optimizer into this contract\r\n    function _withdraw(uint256[N_COINS] memory amounts) internal {\r\n        controller.withdraw(amounts);\r\n\r\n        for(uint8 i=0; i<N_COINS; i++) {\r\n            YieldPoolBalance[i] -= amounts[i];\r\n        }\r\n    }\r\n\r\n\r\n\r\n\r\n    //public function  for utilities\r\n\r\n\r\n   //This function calculate RPT to be mint or burn\r\n    function calcRptAmount(uint256[N_COINS] memory amounts, bool burn) public view returns(uint256) {\r\n        uint256 rptAmt;\r\n        uint256 total = 0;\r\n        uint256 decimal = 0;\r\n        uint256 totalSuppliedTokens;\r\n        uint256 totalRPTSupply;\r\n\r\n        totalRPTSupply = bdiv(rpToken.totalSupply(), 10**18);\r\n        \r\n        for(uint8 i=0; i<N_COINS; i++) {\r\n            decimal = tokens[i].decimals();\r\n            total += bdiv(selfBalance[i]+loanGiven[i], 10**decimal);\r\n            totalSuppliedTokens += bdiv(amounts[i], 10**decimal);\r\n        }\r\n\r\n        rptAmt = bmul(bdiv(totalSuppliedTokens, total), totalRPTSupply);\r\n\r\n        if(burn == true) {\r\n            rptAmt = rptAmt + (rptAmt * fees) / 10000;\r\n        }\r\n\r\n        return rptAmt;\r\n    }\r\n\r\n\r\n\r\n\r\n\r\n    //function to check available amount to withdraw for user\r\n    function availableWithdraw(address addr, uint coin) public view returns(uint256) {\r\n\r\n        uint256 amount=0;\r\n        for(uint8 j=0; j<supplyTime[addr].length; j++) {\r\n            if(\r\n                ((now - supplyTime[addr][j].time) \r\n                > \r\n                (24 * 60 * 60 * lock_period))\r\n                &&\r\n                supplyTime[addr][j].withdrawn[coin] != true\r\n            ) {\r\n                amount += supplyTime[addr][j].remAmt[coin];\r\n            }\r\n        }\r\n\r\n        return amount;\r\n    }\r\n\r\n\r\n\r\n\r\n    /* USER FUNCTIONS (exposed to frontend) */\r\n\r\n    function supply(uint256[N_COINS] calldata amounts) external {\r\n        require(\r\n            calcRptAmount(amounts, false) > 0,\r\n            \"zero tokens supply\"\r\n        );\r\n        \r\n        _supply(amounts);\r\n\r\n        emit userSupplied(msg.sender, amounts);\r\n    }\r\n\r\n\r\n\r\n\r\n\r\n    function requestWithdraw(uint256[N_COINS] calldata amounts) external {\r\n        require(\r\n            calcRptAmount(amounts, false) > 0,\r\n            \"zero tokens supply\"\r\n        );\r\n\r\n        uint256 burnAmt;\r\n        burnAmt = calcRptAmount(amounts, true);\r\n        require(\r\n            rpToken.balanceOf(msg.sender) >= burnAmt, \r\n            \"low RPT\"\r\n        );\r\n        \r\n        uint256[N_COINS] memory poolBalance;\r\n        poolBalance = _getBalances();\r\n        \r\n        bool checkTime = true;\r\n        bool instant;\r\n        \r\n        // check if user is withdrawing before lock period\r\n        for(uint8 i=0; i<N_COINS; i++) {\r\n            if(amounts[i] > 0) {\r\n                if(availableWithdraw(msg.sender, i) < amounts[i]) {\r\n                    checkTime = false;\r\n                }\r\n            }\r\n        }\r\n        require(checkTime, \"lock period\");\r\n\r\n        // check if instant withdraw\r\n        for(uint8 i=0; i<N_COINS; i++) {\r\n            if(amounts[i] < poolBalance[i] && amounts[i] != 0) {\r\n                instant = true;\r\n            }\r\n        }\r\n\r\n        if(instant) {\r\n            rpToken.burn(msg.sender, burnAmt);\r\n            bool result;\r\n            for(uint8 i=0; i<N_COINS; i++) {\r\n                if(amounts[i] > 0) {\r\n                    result = tokens[i].transfer(msg.sender, amounts[i]);\r\n                    require(result);\r\n                    amountSupplied[msg.sender][i] -= amounts[i];\r\n                    selfBalance[i] -= amounts[i];\r\n                    \r\n                    uint x = amounts[i];\r\n                    for(uint8 j=0; j<supplyTime[msg.sender].length; j++) {\r\n                        if(supplyTime[msg.sender][j].withdrawn[i] != true && x > 0) {\r\n                            if(x >= supplyTime[msg.sender][j].remAmt[i]) {\r\n                                x = x - supplyTime[msg.sender][j].remAmt[i];\r\n                                supplyTime[msg.sender][j].remAmt[i] = 0;\r\n                                supplyTime[msg.sender][j].withdrawn[i] = true;\r\n                            }\r\n                            else {\r\n                                supplyTime[msg.sender][j].remAmt[i] -= x;\r\n                                x = 0;\r\n                            }\r\n                        }\r\n                    }\r\n\r\n                }\r\n            }\r\n\r\n            emit userRecieved(msg.sender, amounts);\r\n        } else {\r\n            _takeBackQ(amounts);\r\n\r\n            emit userAddedToQ(msg.sender, amounts);\r\n        }\r\n    }\r\n\r\n\r\n\r\n    \r\n    // Following two functions are called by rLoan Only\r\n    function _loanWithdraw(uint256[N_COINS] memory amounts, address _loanSeeker) public onlyAuthorized returns(bool) {\r\n        _withdraw(amounts);\r\n\r\n        for(uint8 i=0; i<N_COINS; i++) {\r\n            if(amounts[i] > 0) {\r\n                loanGiven[i] += amounts[i];\r\n                selfBalance[i] -= amounts[i];\r\n                tokens[i].transfer(_loanSeeker, amounts[i]);\r\n            }\r\n        }\r\n        return true;\r\n    }\r\n\r\n\r\n\r\n\r\n\r\n\r\n    //Function only called by multisig contract for transfering tokens\r\n    function _loanRepayment(uint256[N_COINS] memory amounts, address _loanSeeker) public onlyAuthorized returns(bool) {\r\n        for(uint8 i=0; i<N_COINS; i++) {\r\n            if(amounts[i] > 0) {\r\n                loanGiven[i] -= amounts[i];\r\n                selfBalance[i] += amounts[i];\r\n                tokens[i].transferFrom(_loanSeeker, address(this), amounts[i]);\r\n            }\r\n        }\r\n        return true;\r\n    }\r\n\r\n\r\n\r\n\r\n\r\n\r\n\r\n    // this function deposits without minting RPT\r\n    function depsoitInRoyale(uint256[N_COINS] calldata amounts) external {\r\n        for(uint8 i=0;i<N_COINS;i++){\r\n            if(amounts[i]!=0){\r\n             tokens[i].transferFrom(msg.sender,address(this),amounts[i]);\r\n             selfBalance[i]+=amounts[i];\r\n            }\r\n        }\r\n    }\r\n\r\n\r\n\r\n\r\n\r\n    /* CORE FUNCTIONS (also exposed to frontend but to be called by owner only) */\r\n\r\n\r\n\r\n   //function for deposit in pool for yield\r\n    function deposit() onlyOwner external {\r\n        uint256[N_COINS] memory amounts = _getBalances();\r\n        uint256 decimal;\r\n\r\n        rStrategyI[3] memory strat = controller.getStrategies();\r\n\r\n        for(uint8 i=0; i<N_COINS; i++) {\r\n            decimal = tokens[i].decimals();\r\n            if(amounts[i] > thresholdTokenAmount*10**decimal) {\r\n                amounts[i] += YieldPoolBalance[i];\r\n                amounts[i] = (amounts[i] * poolPart) / 100;\r\n                amounts[i] = amounts[i] - YieldPoolBalance[i];\r\n                tokens[i].transfer(address(strat[i]), amounts[i]);\r\n            }\r\n            else {\r\n                amounts[i] = 0;\r\n            }\r\n        }\r\n\r\n        uint8 counter = 0;\r\n        for(uint8 i=0; i<N_COINS; i++) {\r\n           if(amounts[i] != 0) {\r\n               counter++;\r\n               break;\r\n           }\r\n        }\r\n\r\n        if(counter > 0){\r\n            _deposit(amounts);\r\n        }\r\n    }\r\n\r\n\r\n\r\n\r\n    //Function available in ui for owner , withdrawing from Pool(curve or any other)\r\n    function withdraw() onlyOwner external {\r\n\r\n        uint8 counter = 0;\r\n        for(uint8 i=0; i<N_COINS; i++) {\r\n           if(totalWithdraw[i] != 0) {\r\n               counter++;\r\n               break;\r\n           }\r\n        }\r\n\r\n        require(counter > 0, \"withdraw queue empty\");\r\n\r\n        _withdraw(totalWithdraw);\r\n        _giveBack();\r\n    }\r\n\r\n\r\n    //function for rebalancing pool(ratio)\r\n\r\n    function rebalance() onlyOwner external{\r\n        uint256[N_COINS] memory currentAmount = _getBalances();\r\n        uint256 decimal;\r\n        uint256[N_COINS] memory amountToWithdraw;\r\n        uint256[N_COINS] memory amountToDeposit;\r\n        rStrategyI[3] memory strat = controller.getStrategies();\r\n\r\n        for(uint8 i=0;i<N_COINS;i++){\r\n           uint256 a= bdiv(bmul(selfBalance[i],(100-95)),100);\r\n           if(a>currentAmount[i]){\r\n              amountToWithdraw[i] = a-currentAmount[i];\r\n           }\r\n           else if(a<currentAmount[i]){\r\n               amountToDeposit[i]=currentAmount[i]-a;\r\n               tokens[i].transfer(address(strat[i]), amountToDeposit[i]);\r\n           }\r\n           else{\r\n               amountToWithdraw[i]=0;\r\n               amountToDeposit[i]=0;\r\n           }\r\n        }\r\n        bool check=false;\r\n        for(uint8 i=0;i<N_COINS;i++){\r\n            if(amountToDeposit[i]>0){\r\n                  check=true;\r\n                  break;\r\n            }\r\n        }\r\n        if(check){\r\n             _deposit(amountToDeposit);\r\n             check=false;\r\n        }\r\n        for(uint8 i=0;i<N_COINS;i++){\r\n            if(amountToWithdraw[i]>0){\r\n                  check=true;\r\n                  break;\r\n            }\r\n        }\r\n        if(check){\r\n             _withdraw(amountToWithdraw);\r\n             check=false;\r\n        }\r\n\r\n    }\r\n\r\n\r\n\r\n\r\n\r\n\r\n    /* ADMIN FUNCTIONS */\r\n\r\n    \r\n    function getCurrentPoolBalance() external view returns(uint256[3] memory) {\r\n        return selfBalance;\r\n    }\r\n\r\n\r\n    function getTotalLoanGiven() external view returns(uint256[3] memory) {\r\n        return loanGiven;\r\n    }\r\n\r\n    function setLoanContract(address _loanContract)external onlyOwner returns(bool){\r\n        loanContract=_loanContract;\r\n    }\r\n\r\n\r\n    function changePoolPart(uint128 _newPoolPart) external onlyOwner returns(bool) {\r\n        poolPart = _newPoolPart;\r\n        return true;\r\n    }\r\n\r\n    \r\n\r\n    function setThresholdTokenAmount(uint256 _newThreshold) external onlyOwner returns(bool) {\r\n        thresholdTokenAmount = _newThreshold;\r\n        return true;\r\n    }\r\n\r\n    function setInitialDeposit() onlyOwner external returns(bool) {\r\n        selfBalance = _getBalances();\r\n        return true;\r\n    }\r\n\r\n    function setController(rControllerI _controller) onlyOwner external returns(bool) {\r\n        controller = _controller;\r\n        return true;\r\n    }\r\n\r\n    function setLockPeriod(uint128 lockperiod) onlyOwner external returns(bool) {\r\n        lock_period = lockperiod;\r\n        return true;\r\n    }\r\n\r\n    function setWithdrawFees(uint128 _fees) onlyOwner external returns(bool) {\r\n        fees = _fees;\r\n        return true;\r\n    }\r\n\r\n}",
  "sourcePath": "C:/Users/vishn/OneDrive/Desktop/TempRoyakle/rlp/contracts/RoyaleLP.sol",
  "compiler": {
    "name": "solc",
    "version": "0.6.12+commit.27d51765.Emscripten.clang"
  },
  "schemaVersion": "3.3.2",
  "updatedAt": "2020-12-21T07:35:43.644Z",
  "devdoc": {
    "kind": "dev",
    "methods": {},
    "version": 1
  },
  "userdoc": {
    "kind": "user",
    "methods": {},
    "version": 1
  }
}