{
  "contractName": "RoyaleLP",
  "abi": [
    {
      "inputs": [
        {
          "internalType": "address[3]",
          "name": "_tokens",
          "type": "address[3]"
        },
        {
          "internalType": "address",
          "name": "_rpToken",
          "type": "address"
        }
      ],
      "stateMutability": "nonpayable",
      "type": "constructor"
    },
    {
      "anonymous": false,
      "inputs": [
        {
          "indexed": false,
          "internalType": "address",
          "name": "user",
          "type": "address"
        },
        {
          "indexed": false,
          "internalType": "uint256[3]",
          "name": "amounts",
          "type": "uint256[3]"
        }
      ],
      "name": "userAddedToQ",
      "type": "event"
    },
    {
      "anonymous": false,
      "inputs": [
        {
          "indexed": false,
          "internalType": "address",
          "name": "user",
          "type": "address"
        },
        {
          "indexed": false,
          "internalType": "uint256[3]",
          "name": "amounts",
          "type": "uint256[3]"
        }
      ],
      "name": "userRecieved",
      "type": "event"
    },
    {
      "anonymous": false,
      "inputs": [
        {
          "indexed": false,
          "internalType": "address",
          "name": "user",
          "type": "address"
        },
        {
          "indexed": false,
          "internalType": "uint256[3]",
          "name": "amounts",
          "type": "uint256[3]"
        }
      ],
      "name": "userSupplied",
      "type": "event"
    },
    {
      "inputs": [],
      "name": "BASE_DECIMAL",
      "outputs": [
        {
          "internalType": "uint256",
          "name": "",
          "type": "uint256"
        }
      ],
      "stateMutability": "view",
      "type": "function"
    },
    {
      "inputs": [
        {
          "internalType": "uint256",
          "name": "",
          "type": "uint256"
        }
      ],
      "name": "YieldPoolBalance",
      "outputs": [
        {
          "internalType": "uint256",
          "name": "",
          "type": "uint256"
        }
      ],
      "stateMutability": "view",
      "type": "function"
    },
    {
      "inputs": [
        {
          "internalType": "address",
          "name": "",
          "type": "address"
        },
        {
          "internalType": "uint256",
          "name": "",
          "type": "uint256"
        }
      ],
      "name": "amountSupplied",
      "outputs": [
        {
          "internalType": "uint256",
          "name": "",
          "type": "uint256"
        }
      ],
      "stateMutability": "view",
      "type": "function"
    },
    {
      "inputs": [],
      "name": "fees",
      "outputs": [
        {
          "internalType": "uint128",
          "name": "",
          "type": "uint128"
        }
      ],
      "stateMutability": "view",
      "type": "function"
    },
    {
      "inputs": [
        {
          "internalType": "address",
          "name": "",
          "type": "address"
        }
      ],
      "name": "isInQ",
      "outputs": [
        {
          "internalType": "bool",
          "name": "",
          "type": "bool"
        }
      ],
      "stateMutability": "view",
      "type": "function"
    },
    {
      "inputs": [],
      "name": "loanContract",
      "outputs": [
        {
          "internalType": "address",
          "name": "",
          "type": "address"
        }
      ],
      "stateMutability": "view",
      "type": "function"
    },
    {
      "inputs": [
        {
          "internalType": "uint256",
          "name": "",
          "type": "uint256"
        }
      ],
      "name": "loanGiven",
      "outputs": [
        {
          "internalType": "uint256",
          "name": "",
          "type": "uint256"
        }
      ],
      "stateMutability": "view",
      "type": "function"
    },
    {
      "inputs": [],
      "name": "lock_period",
      "outputs": [
        {
          "internalType": "uint128",
          "name": "",
          "type": "uint128"
        }
      ],
      "stateMutability": "view",
      "type": "function"
    },
    {
      "inputs": [],
      "name": "owner",
      "outputs": [
        {
          "internalType": "address",
          "name": "",
          "type": "address"
        }
      ],
      "stateMutability": "view",
      "type": "function"
    },
    {
      "inputs": [],
      "name": "poolPart",
      "outputs": [
        {
          "internalType": "uint128",
          "name": "",
          "type": "uint128"
        }
      ],
      "stateMutability": "view",
      "type": "function"
    },
    {
      "inputs": [
        {
          "internalType": "uint256",
          "name": "",
          "type": "uint256"
        }
      ],
      "name": "profitFromYield",
      "outputs": [
        {
          "internalType": "uint256",
          "name": "",
          "type": "uint256"
        }
      ],
      "stateMutability": "view",
      "type": "function"
    },
    {
      "inputs": [
        {
          "internalType": "uint256",
          "name": "",
          "type": "uint256"
        }
      ],
      "name": "selfBalance",
      "outputs": [
        {
          "internalType": "uint256",
          "name": "",
          "type": "uint256"
        }
      ],
      "stateMutability": "view",
      "type": "function"
    },
    {
      "inputs": [],
      "name": "thresholdTokenAmount",
      "outputs": [
        {
          "internalType": "uint256",
          "name": "",
          "type": "uint256"
        }
      ],
      "stateMutability": "view",
      "type": "function"
    },
    {
      "inputs": [
        {
          "internalType": "uint256",
          "name": "",
          "type": "uint256"
        }
      ],
      "name": "totalWithdraw",
      "outputs": [
        {
          "internalType": "uint256",
          "name": "",
          "type": "uint256"
        }
      ],
      "stateMutability": "view",
      "type": "function"
    },
    {
      "inputs": [
        {
          "internalType": "uint256[3]",
          "name": "amounts",
          "type": "uint256[3]"
        }
      ],
      "name": "calcRptAmount",
      "outputs": [
        {
          "internalType": "uint256",
          "name": "",
          "type": "uint256"
        }
      ],
      "stateMutability": "view",
      "type": "function"
    },
    {
      "inputs": [
        {
          "internalType": "address",
          "name": "addr",
          "type": "address"
        },
        {
          "internalType": "uint256",
          "name": "coin",
          "type": "uint256"
        }
      ],
      "name": "availableWithdraw",
      "outputs": [
        {
          "internalType": "uint256",
          "name": "",
          "type": "uint256"
        }
      ],
      "stateMutability": "view",
      "type": "function"
    },
    {
      "inputs": [
        {
          "internalType": "uint256[3]",
          "name": "amounts",
          "type": "uint256[3]"
        }
      ],
      "name": "supply",
      "outputs": [],
      "stateMutability": "nonpayable",
      "type": "function"
    },
    {
      "inputs": [
        {
          "internalType": "uint256[3]",
          "name": "amounts",
          "type": "uint256[3]"
        }
      ],
      "name": "requestWithdraw",
      "outputs": [],
      "stateMutability": "nonpayable",
      "type": "function"
    },
    {
      "inputs": [
        {
          "internalType": "uint256[3]",
          "name": "amounts",
          "type": "uint256[3]"
        },
        {
          "internalType": "address",
          "name": "_loanSeeker",
          "type": "address"
        }
      ],
      "name": "_loanWithdraw",
      "outputs": [
        {
          "internalType": "bool",
          "name": "",
          "type": "bool"
        }
      ],
      "stateMutability": "nonpayable",
      "type": "function"
    },
    {
      "inputs": [
        {
          "internalType": "uint256[3]",
          "name": "amounts",
          "type": "uint256[3]"
        },
        {
          "internalType": "address",
          "name": "_loanSeeker",
          "type": "address"
        }
      ],
      "name": "_loanRepayment",
      "outputs": [
        {
          "internalType": "bool",
          "name": "",
          "type": "bool"
        }
      ],
      "stateMutability": "nonpayable",
      "type": "function"
    },
    {
      "inputs": [
        {
          "internalType": "uint256[3]",
          "name": "amounts",
          "type": "uint256[3]"
        }
      ],
      "name": "depsoitInRoyale",
      "outputs": [],
      "stateMutability": "nonpayable",
      "type": "function"
    },
    {
      "inputs": [],
      "name": "deposit",
      "outputs": [],
      "stateMutability": "nonpayable",
      "type": "function"
    },
    {
      "inputs": [],
      "name": "withdraw",
      "outputs": [],
      "stateMutability": "nonpayable",
      "type": "function"
    },
    {
      "inputs": [],
      "name": "rebalance",
      "outputs": [],
      "stateMutability": "nonpayable",
      "type": "function"
    },
    {
      "inputs": [],
      "name": "getTotalPoolBalance",
      "outputs": [
        {
          "internalType": "uint256[3]",
          "name": "",
          "type": "uint256[3]"
        }
      ],
      "stateMutability": "view",
      "type": "function"
    },
    {
      "inputs": [],
      "name": "getTotalLoanGiven",
      "outputs": [
        {
          "internalType": "uint256[3]",
          "name": "",
          "type": "uint256[3]"
        }
      ],
      "stateMutability": "view",
      "type": "function"
    },
    {
      "inputs": [
        {
          "internalType": "address",
          "name": "_loanContract",
          "type": "address"
        }
      ],
      "name": "setLoanContract",
      "outputs": [
        {
          "internalType": "bool",
          "name": "",
          "type": "bool"
        }
      ],
      "stateMutability": "nonpayable",
      "type": "function"
    },
    {
      "inputs": [
        {
          "internalType": "uint128",
          "name": "_newPoolPart",
          "type": "uint128"
        }
      ],
      "name": "changePoolPart",
      "outputs": [
        {
          "internalType": "bool",
          "name": "",
          "type": "bool"
        }
      ],
      "stateMutability": "nonpayable",
      "type": "function"
    },
    {
      "inputs": [],
      "name": "getYieldProfit",
      "outputs": [],
      "stateMutability": "nonpayable",
      "type": "function"
    },
    {
      "inputs": [
        {
          "internalType": "uint256",
          "name": "_newThreshold",
          "type": "uint256"
        }
      ],
      "name": "setThresholdTokenAmount",
      "outputs": [
        {
          "internalType": "bool",
          "name": "",
          "type": "bool"
        }
      ],
      "stateMutability": "nonpayable",
      "type": "function"
    },
    {
      "inputs": [],
      "name": "setInitialDeposit",
      "outputs": [
        {
          "internalType": "bool",
          "name": "",
          "type": "bool"
        }
      ],
      "stateMutability": "nonpayable",
      "type": "function"
    },
    {
      "inputs": [
        {
          "internalType": "contract rControllerI",
          "name": "_controller",
          "type": "address"
        }
      ],
      "name": "setController",
      "outputs": [
        {
          "internalType": "bool",
          "name": "",
          "type": "bool"
        }
      ],
      "stateMutability": "nonpayable",
      "type": "function"
    },
    {
      "inputs": [
        {
          "internalType": "uint128",
          "name": "lockperiod",
          "type": "uint128"
        }
      ],
      "name": "setLockPeriod",
      "outputs": [
        {
          "internalType": "bool",
          "name": "",
          "type": "bool"
        }
      ],
      "stateMutability": "nonpayable",
      "type": "function"
    },
    {
      "inputs": [
        {
          "internalType": "uint128",
          "name": "_fees",
          "type": "uint128"
        }
      ],
      "name": "setWithdrawFees",
      "outputs": [
        {
          "internalType": "bool",
          "name": "",
          "type": "bool"
        }
      ],
      "stateMutability": "nonpayable",
      "type": "function"
    }
  ],
  "bytecode": "0x60806040526001805560006002556019600460006101000a8154816fffffffffffffffffffffffffffffffff02191690836fffffffffffffffffffffffffffffffff160217905550605f600460106101000a8154816fffffffffffffffffffffffffffffffff02191690836fffffffffffffffffffffffffffffffff1602179055506101f46011553480156200009457600080fd5b5060405162005637380380620056378339818101604052810190620000ba91906200026f565b33600860006101000a81548173ffffffffffffffffffffffffffffffffffffffff021916908373ffffffffffffffffffffffffffffffffffffffff16021790555060005b60036fffffffffffffffffffffffffffffffff168160ff1610156200019057828160ff16600381106200012d57fe5b602002015160098260ff16600381106200014357fe5b0160006101000a81548173ffffffffffffffffffffffffffffffffffffffff021916908373ffffffffffffffffffffffffffffffffffffffff1602179055508080600101915050620000fe565b5080600c60006101000a81548173ffffffffffffffffffffffffffffffffffffffff021916908373ffffffffffffffffffffffffffffffffffffffff16021790555050506200034f565b600081519050620001eb8162000335565b92915050565b600082601f8301126200020357600080fd5b60036200021a6200021482620002de565b620002b0565b915081838560208402820111156200023157600080fd5b60005b838110156200026557816200024a8882620001da565b84526020840193506020830192505060018101905062000234565b5050505092915050565b600080608083850312156200028357600080fd5b60006200029385828601620001f1565b9250506060620002a685828601620001da565b9150509250929050565b6000604051905081810181811067ffffffffffffffff82111715620002d457600080fd5b8060405250919050565b600067ffffffffffffffff821115620002f657600080fd5b602082029050919050565b60006200030e8262000315565b9050919050565b600073ffffffffffffffffffffffffffffffffffffffff82169050919050565b620003408162000301565b81146200034c57600080fd5b50565b6152d8806200035f6000396000f3fe608060405234801561001057600080fd5b50600436106102065760003560e01c80638da5cb5b1161011a578063b8b10680116100ad578063d0e30db01161007c578063d0e30db01461062b578063d8c76af514610635578063db28bfd014610665578063eacd7afc14610695578063f83e9a20146106c557610206565b8063b8b106801461058f578063c23177b2146105bf578063c277b657146105ef578063c89eb0361461060d57610206565b8063960731b6116100e9578063960731b6146104e15780639af1d35a14610511578063a6d8fcb21461052f578063a70200bd1461055f57610206565b80638da5cb5b146104455780638e9b032614610463578063905f692e1461048157806392eefe9b146104b157610206565b806347d4a6a81161019d5780636d6ea2571161016c5780636d6ea2571461038d5780637d7c2a1c146103bd57806380001288146103c757806381f433f0146103f75780638af814781461042757610206565b806347d4a6a8146102f357806352f6e2381461030f578063698504241461032d5780636b9f1ef61461035d57610206565b80632f1fefe3116101d95780632f1fefe31461027f57806331805a2b1461028957806331d38806146102b95780633ccfd60b146102e957610206565b80630d88122c1461020b578063224a141814610227578063233fc9a214610243578063253f284b14610261575b600080fd5b61022560048036038101906102209190614907565b6106e3565b005b610241600480360381019061023c9190614907565b6107e1565b005b61024b610935565b6040516102589190614eec565b60405180910390f35b610269610980565b6040516102769190614dcd565b60405180910390f35b6102876109a6565b005b6102a3600480360381019061029e9190614a39565b610b14565b6040516102b0919061505d565b60405180910390f35b6102d360048036038101906102ce9190614879565b610b2c565b6040516102e09190614f07565b60405180910390f35b6102f1610bce565b005b61030d60048036038101906103089190614907565b610d1d565b005b61031761170e565b6040516103249190614f07565b60405180910390f35b61034760048036038101906103429190614a39565b61178a565b604051610354919061505d565b60405180910390f35b61037760048036038101906103729190614a10565b6117a2565b6040516103849190614f07565b60405180910390f35b6103a760048036038101906103a29190614a39565b611840565b6040516103b4919061505d565b60405180910390f35b6103c5611858565b005b6103e160048036038101906103dc9190614982565b611dc8565b6040516103ee9190614f07565b60405180910390f35b610411600480360381019061040c9190614a10565b612040565b60405161041e9190614f07565b60405180910390f35b61042f6120de565b60405161043c919061505d565b60405180910390f35b61044d6120ea565b60405161045a9190614dcd565b60405180910390f35b61046b612110565b6040516104789190615042565b60405180910390f35b61049b60048036038101906104969190614879565b612132565b6040516104a89190614f07565b60405180910390f35b6104cb60048036038101906104c691906149e7565b612152565b6040516104d89190614f07565b60405180910390f35b6104fb60048036038101906104f69190614930565b6121f8565b604051610508919061505d565b60405180910390f35b610519612412565b6040516105269190615042565b60405180910390f35b610549600480360381019061054491906148a2565b612434565b604051610556919061505d565b60405180910390f35b61057960048036038101906105749190614a10565b61263f565b6040516105869190614f07565b60405180910390f35b6105a960048036038101906105a49190614a39565b6126dd565b6040516105b69190614f07565b60405180910390f35b6105d960048036038101906105d491906148a2565b612749565b6040516105e6919061505d565b60405180910390f35b6105f761276e565b6040516106049190614eec565b60405180910390f35b6106156127b9565b604051610622919061505d565b60405180910390f35b6106336127bf565b005b61064f600480360381019061064a9190614a39565b612c2e565b60405161065c919061505d565b60405180910390f35b61067f600480360381019061067a9190614a39565b612c46565b60405161068c919061505d565b60405180910390f35b6106af60048036038101906106aa9190614982565b612c5e565b6040516106bc9190614f07565b60405180910390f35b6106cd612edd565b6040516106da9190615042565b60405180910390f35b6000610725826003806020026040519081016040528092919082600360200280828437600081840152601f19601f8201169050808301925050505050506121f8565b11610765576040517f08c379a000000000000000000000000000000000000000000000000000000000815260040161075c90614f22565b60405180910390fd5b6107a5816003806020026040519081016040528092919082600360200280828437600081840152601f19601f820116905080830192505050505050612eff565b7fe7f2330a99451f199f91ed2ac09887e25894cb0e14021fe5d29bc959e7283d0e33826040516107d6929190614e3a565b60405180910390a150565b60005b60036fffffffffffffffffffffffffffffffff168160ff161015610931576000828260ff166003811061081357fe5b6020020135146109245760098160ff166003811061082d57fe5b0160009054906101000a900473ffffffffffffffffffffffffffffffffffffffff1673ffffffffffffffffffffffffffffffffffffffff166323b872dd3330858560ff166003811061087b57fe5b60200201356040518463ffffffff1660e01b815260040161089e93929190614e03565b602060405180830381600087803b1580156108b857600080fd5b505af11580156108cc573d6000803e3d6000fd5b505050506040513d601f19601f820116820180604052508101906108f091906149be565b50818160ff166003811061090057fe5b602002013560058260ff166003811061091557fe5b01600082825401925050819055505b80806001019150506107e4565b5050565b61093d614499565b6005600380602002604051908101604052809291908260038015610976576020028201915b815481526020019060010190808311610962575b5050505050905090565b602160009054906101000a900473ffffffffffffffffffffffffffffffffffffffff1681565b600860009054906101000a900473ffffffffffffffffffffffffffffffffffffffff1673ffffffffffffffffffffffffffffffffffffffff163373ffffffffffffffffffffffffffffffffffffffff1614610a0057600080fd5b600d60009054906101000a900473ffffffffffffffffffffffffffffffffffffffff1673ffffffffffffffffffffffffffffffffffffffff1663a9a4cbcc6040518163ffffffff1660e01b8152600401606060405180830381600087803b158015610a6a57600080fd5b505af1158015610a7e573d6000803e3d6000fd5b505050506040513d601f19601f82011682018060405250810190610aa29190614959565b6012906003610ab29291906144bb565b5060005b60036fffffffffffffffffffffffffffffffff168160ff161015610b115760128160ff1660038110610ae457fe5b015460058260ff1660038110610af657fe5b01600082825401925050819055508080600101915050610ab6565b50565b600e8160038110610b2157fe5b016000915090505481565b6000600860009054906101000a900473ffffffffffffffffffffffffffffffffffffffff1673ffffffffffffffffffffffffffffffffffffffff163373ffffffffffffffffffffffffffffffffffffffff1614610b8857600080fd5b81602160006101000a81548173ffffffffffffffffffffffffffffffffffffffff021916908373ffffffffffffffffffffffffffffffffffffffff160217905550919050565b600860009054906101000a900473ffffffffffffffffffffffffffffffffffffffff1673ffffffffffffffffffffffffffffffffffffffff163373ffffffffffffffffffffffffffffffffffffffff1614610c2857600080fd5b6000805b60036fffffffffffffffffffffffffffffffff168160ff161015610c7d576000601b8260ff1660038110610c5c57fe5b015414610c70578180600101925050610c7d565b8080600101915050610c2c565b5060008160ff1611610cc4576040517f08c379a0000000000000000000000000000000000000000000000000000000008152600401610cbb90614f42565b60405180910390fd5b610d0a601b600380602002604051908101604052809291908260038015610d00576020028201915b815481526020019060010190808311610cec575b5050505050613299565b610d1261338a565b610d1a6133dc565b50565b6000610d5f826003806020026040519081016040528092919082600360200280828437600081840152601f19601f8201169050808301925050505050506121f8565b11610d9f576040517f08c379a0000000000000000000000000000000000000000000000000000000008152600401610d9690614f22565b60405180910390fd5b6000610de1826003806020026040519081016040528092919082600360200280828437600081840152601f19601f8201169050808301925050505050506121f8565b905080600c60009054906101000a900473ffffffffffffffffffffffffffffffffffffffff1673ffffffffffffffffffffffffffffffffffffffff166370a08231336040518263ffffffff1660e01b8152600401610e3f9190614de8565b60206040518083038186803b158015610e5757600080fd5b505afa158015610e6b573d6000803e3d6000fd5b505050506040513d601f19601f82011682018060405250810190610e8f9190614a62565b1015610ed0576040517f08c379a0000000000000000000000000000000000000000000000000000000008152600401610ec790615022565b60405180910390fd5b610ed8614499565b610ee06133ed565b9050600060019050600080600090505b60036fffffffffffffffffffffffffffffffff168160ff161015610f64576000868260ff1660038110610f1f57fe5b60200201351115610f5757858160ff1660038110610f3957fe5b6020020135610f4b338360ff16612434565b1015610f5657600092505b5b8080600101915050610ef0565b5081610fa5576040517f08c379a0000000000000000000000000000000000000000000000000000000008152600401610f9c90614f82565b60405180910390fd5b60005b60036fffffffffffffffffffffffffffffffff168160ff16101561102657838160ff1660038110610fd557fe5b6020020151868260ff1660038110610fe957fe5b602002013510801561100f57506000868260ff166003811061100757fe5b602002013514155b1561101957600191505b8080600101915050610fa8565b50801561168d57600c60009054906101000a900473ffffffffffffffffffffffffffffffffffffffff1673ffffffffffffffffffffffffffffffffffffffff16639dc29fac33866040518363ffffffff1660e01b815260040161108a929190614e63565b600060405180830381600087803b1580156110a457600080fd5b505af11580156110b8573d6000803e3d6000fd5b50505050600080600090505b60036fffffffffffffffffffffffffffffffff168160ff16101561164d576000878260ff16600381106110f357fe5b60200201351115611640576000612710600460009054906101000a90046fffffffffffffffffffffffffffffffff166fffffffffffffffffffffffffffffffff16898460ff166003811061114357fe5b6020020135028161115057fe5b04888360ff166003811061116057fe5b602002013503905060098260ff166003811061117857fe5b0160009054906101000a900473ffffffffffffffffffffffffffffffffffffffff1673ffffffffffffffffffffffffffffffffffffffff1663a9059cbb33836040518363ffffffff1660e01b81526004016111d4929190614e63565b602060405180830381600087803b1580156111ee57600080fd5b505af1158015611202573d6000803e3d6000fd5b505050506040513d601f19601f8201168201806040525081019061122691906149be565b92508261123257600080fd5b878260ff166003811061124157fe5b6020020135601660003373ffffffffffffffffffffffffffffffffffffffff1673ffffffffffffffffffffffffffffffffffffffff1681526020019081526020016000208360ff166003811061129357fe5b01600082825403925050819055508060058360ff16600381106112b257fe5b01600082825403925050819055506000888360ff16600381106112d157fe5b6020020135905060005b601760003373ffffffffffffffffffffffffffffffffffffffff1673ffffffffffffffffffffffffffffffffffffffff168152602001908152602001600020805490508160ff16101561163c5760011515601760003373ffffffffffffffffffffffffffffffffffffffff1673ffffffffffffffffffffffffffffffffffffffff1681526020019081526020016000208260ff168154811061137957fe5b90600052602060002090600802016007018560ff166003811061139857fe5b602091828204019190069054906101000a900460ff161515141580156113be5750600082115b1561162f57601760003373ffffffffffffffffffffffffffffffffffffffff1673ffffffffffffffffffffffffffffffffffffffff1681526020019081526020016000208160ff168154811061141057fe5b90600052602060002090600802016003018460ff166003811061142f57fe5b015482106115ae57601760003373ffffffffffffffffffffffffffffffffffffffff1673ffffffffffffffffffffffffffffffffffffffff1681526020019081526020016000208160ff168154811061148457fe5b90600052602060002090600802016003018460ff16600381106114a357fe5b0154820391506000601760003373ffffffffffffffffffffffffffffffffffffffff1673ffffffffffffffffffffffffffffffffffffffff1681526020019081526020016000208260ff16815481106114f857fe5b90600052602060002090600802016003018560ff166003811061151757fe5b01819055506001601760003373ffffffffffffffffffffffffffffffffffffffff1673ffffffffffffffffffffffffffffffffffffffff1681526020019081526020016000208260ff168154811061156b57fe5b90600052602060002090600802016007018560ff166003811061158a57fe5b602091828204019190066101000a81548160ff02191690831515021790555061162e565b81601760003373ffffffffffffffffffffffffffffffffffffffff1673ffffffffffffffffffffffffffffffffffffffff1681526020019081526020016000208260ff16815481106115fc57fe5b90600052602060002090600802016003018560ff166003811061161b57fe5b0160008282540392505081905550600091505b5b80806001019150506112db565b5050505b80806001019150506110c4565b507fe9c01f7dea3ef08b44263b3cf5963eb42309e5fb5bec9305dbe12b82f37b519c338760405161167f929190614e3a565b60405180910390a150611707565b6116cd856003806020026040519081016040528092919082600360200280828437600081840152601f19601f820116905080830192505050505050613505565b7fe2d5e24e56e4f05473adb8bb616473de3894beab8011d32382a638d1d2617c9333866040516116fe929190614e3a565b60405180910390a15b5050505050565b6000600860009054906101000a900473ffffffffffffffffffffffffffffffffffffffff1673ffffffffffffffffffffffffffffffffffffffff163373ffffffffffffffffffffffffffffffffffffffff161461176a57600080fd5b6117726133ed565b60059060036117829291906144bb565b506001905090565b6005816003811061179757fe5b016000915090505481565b6000600860009054906101000a900473ffffffffffffffffffffffffffffffffffffffff1673ffffffffffffffffffffffffffffffffffffffff163373ffffffffffffffffffffffffffffffffffffffff16146117fe57600080fd5b81600460006101000a8154816fffffffffffffffffffffffffffffffff02191690836fffffffffffffffffffffffffffffffff16021790555060019050919050565b601e816003811061184d57fe5b016000915090505481565b600860009054906101000a900473ffffffffffffffffffffffffffffffffffffffff1673ffffffffffffffffffffffffffffffffffffffff163373ffffffffffffffffffffffffffffffffffffffff16146118b257600080fd5b6118ba614499565b6118c26133ed565b90506118cc614499565b6118d4614499565b6118dc6144fb565b600d60009054906101000a900473ffffffffffffffffffffffffffffffffffffffff1673ffffffffffffffffffffffffffffffffffffffff1663b49a60bb6040518163ffffffff1660e01b8152600401606060405180830381600087803b15801561194657600080fd5b505af115801561195a573d6000803e3d6000fd5b505050506040513d601f19601f8201168201806040525081019061197e91906148de565b905060005b60036fffffffffffffffffffffffffffffffff168160ff161015611cef57600060098260ff16600381106119b357fe5b0160009054906101000a900473ffffffffffffffffffffffffffffffffffffffff1673ffffffffffffffffffffffffffffffffffffffff1663313ce5676040518163ffffffff1660e01b815260040160206040518083038186803b158015611a1a57600080fd5b505afa158015611a2e573d6000803e3d6000fd5b505050506040513d601f19601f82011682018060405250810190611a529190614a8b565b60ff16905060006064600460109054906101000a90046fffffffffffffffffffffffffffffffff166064036fffffffffffffffffffffffffffffffff1660058560ff1660038110611a9f57fe5b01540281611aa957fe5b049050868360ff1660038110611abb57fe5b6020020151811115611b3657868360ff1660038110611ad657fe5b60200201518103868460ff1660038110611aec57fe5b60200201818152505081600a0a603202868460ff1660038110611b0b57fe5b60200201511015611b31576000868460ff1660038110611b2757fe5b6020020181815250505b611ce0565b868360ff1660038110611b4557fe5b6020020151811015611caa5780878460ff1660038110611b6157fe5b602002015103858460ff1660038110611b7657fe5b60200201818152505081600a0a603202858460ff1660038110611b9557fe5b60200201511015611bbf576000858460ff1660038110611bb157fe5b602002018181525050611ca5565b60098360ff1660038110611bcf57fe5b0160009054906101000a900473ffffffffffffffffffffffffffffffffffffffff1673ffffffffffffffffffffffffffffffffffffffff1663a9059cbb858560ff1660038110611c1b57fe5b6020020151878660ff1660038110611c2f57fe5b60200201516040518363ffffffff1660e01b8152600401611c51929190614ec3565b602060405180830381600087803b158015611c6b57600080fd5b505af1158015611c7f573d6000803e3d6000fd5b505050506040513d601f19601f82011682018060405250810190611ca391906149be565b505b611cdf565b6000868460ff1660038110611cbb57fe5b6020020181815250506000858460ff1660038110611cd557fe5b6020020181815250505b5b50508080600101915050611983565b506000805b60036fffffffffffffffffffffffffffffffff168160ff161015611d44576000848260ff1660038110611d2357fe5b60200201511115611d375760019150611d44565b8080600101915050611cf4565b508015611d5957611d54836136d4565b600090505b60005b60036fffffffffffffffffffffffffffffffff168160ff161015611dac576000858260ff1660038110611d8b57fe5b60200201511115611d9f5760019150611dac565b8080600101915050611d5c565b508015611dc157611dbc84613299565b600090505b5050505050565b6000600860009054906101000a900473ffffffffffffffffffffffffffffffffffffffff1673ffffffffffffffffffffffffffffffffffffffff163373ffffffffffffffffffffffffffffffffffffffff161480611e735750602160009054906101000a900473ffffffffffffffffffffffffffffffffffffffff1673ffffffffffffffffffffffffffffffffffffffff163373ffffffffffffffffffffffffffffffffffffffff16145b611eb2576040517f08c379a0000000000000000000000000000000000000000000000000000000008152600401611ea990614fa2565b60405180910390fd5b60005b60036fffffffffffffffffffffffffffffffff168160ff161015612035576000848260ff1660038110611ee457fe5b6020020151111561202857838160ff1660038110611efe57fe5b6020020151601e8260ff1660038110611f1357fe5b0160008282540392505081905550838160ff1660038110611f3057fe5b602002015160058260ff1660038110611f4557fe5b016000828254019250508190555060098160ff1660038110611f6357fe5b0160009054906101000a900473ffffffffffffffffffffffffffffffffffffffff1673ffffffffffffffffffffffffffffffffffffffff166323b872dd8430878560ff1660038110611fb157fe5b60200201516040518463ffffffff1660e01b8152600401611fd493929190614e8c565b602060405180830381600087803b158015611fee57600080fd5b505af1158015612002573d6000803e3d6000fd5b505050506040513d601f19601f8201168201806040525081019061202691906149be565b505b8080600101915050611eb5565b506001905092915050565b6000600860009054906101000a900473ffffffffffffffffffffffffffffffffffffffff1673ffffffffffffffffffffffffffffffffffffffff163373ffffffffffffffffffffffffffffffffffffffff161461209c57600080fd5b81601560006101000a8154816fffffffffffffffffffffffffffffffff02191690836fffffffffffffffffffffffffffffffff16021790555060019050919050565b670de0b6b3a764000081565b600860009054906101000a900473ffffffffffffffffffffffffffffffffffffffff1681565b600460109054906101000a90046fffffffffffffffffffffffffffffffff1681565b60196020528060005260406000206000915054906101000a900460ff1681565b6000600860009054906101000a900473ffffffffffffffffffffffffffffffffffffffff1673ffffffffffffffffffffffffffffffffffffffff163373ffffffffffffffffffffffffffffffffffffffff16146121ae57600080fd5b81600d60006101000a81548173ffffffffffffffffffffffffffffffffffffffff021916908373ffffffffffffffffffffffffffffffffffffffff16021790555060019050919050565b6000806000806000806122b2600c60009054906101000a900473ffffffffffffffffffffffffffffffffffffffff1673ffffffffffffffffffffffffffffffffffffffff166318160ddd6040518163ffffffff1660e01b815260040160206040518083038186803b15801561226c57600080fd5b505afa158015612280573d6000803e3d6000fd5b505050506040513d601f19601f820116820180604052508101906122a49190614a62565b670de0b6b3a76400006137c5565b905060005b60036fffffffffffffffffffffffffffffffff168160ff1610156123ef5760098160ff16600381106122e557fe5b0160009054906101000a900473ffffffffffffffffffffffffffffffffffffffff1673ffffffffffffffffffffffffffffffffffffffff1663313ce5676040518163ffffffff1660e01b815260040160206040518083038186803b15801561234c57600080fd5b505afa158015612360573d6000803e3d6000fd5b505050506040513d601f19601f820116820180604052508101906123849190614a8b565b60ff1693506123ba601e8260ff166003811061239c57fe5b015460058360ff16600381106123ae57fe5b01540185600a0a6137c5565b850194506123de888260ff16600381106123d057fe5b602002015185600a0a6137c5565b8301925080806001019150506122b7565b506124036123fd83866137c5565b826138e5565b94508495505050505050919050565b600460009054906101000a90046fffffffffffffffffffffffffffffffff1681565b6000806000905060005b601760008673ffffffffffffffffffffffffffffffffffffffff1673ffffffffffffffffffffffffffffffffffffffff168152602001908152602001600020805490508160ff16101561263457601560009054906101000a90046fffffffffffffffffffffffffffffffff1662015180026fffffffffffffffffffffffffffffffff16601760008773ffffffffffffffffffffffffffffffffffffffff1673ffffffffffffffffffffffffffffffffffffffff1681526020019081526020016000208260ff168154811061250e57fe5b90600052602060002090600802016006015442031180156125b2575060011515601760008773ffffffffffffffffffffffffffffffffffffffff1673ffffffffffffffffffffffffffffffffffffffff1681526020019081526020016000208260ff168154811061257b57fe5b9060005260206000209060080201600701856003811061259757fe5b602091828204019190069054906101000a900460ff16151514155b1561262757601760008673ffffffffffffffffffffffffffffffffffffffff1673ffffffffffffffffffffffffffffffffffffffff1681526020019081526020016000208160ff168154811061260457fe5b9060005260206000209060080201600301846003811061262057fe5b0154820191505b808060010191505061243e565b508091505092915050565b6000600860009054906101000a900473ffffffffffffffffffffffffffffffffffffffff1673ffffffffffffffffffffffffffffffffffffffff163373ffffffffffffffffffffffffffffffffffffffff161461269b57600080fd5b81600460106101000a8154816fffffffffffffffffffffffffffffffff02191690836fffffffffffffffffffffffffffffffff16021790555060019050919050565b6000600860009054906101000a900473ffffffffffffffffffffffffffffffffffffffff1673ffffffffffffffffffffffffffffffffffffffff163373ffffffffffffffffffffffffffffffffffffffff161461273957600080fd5b8160118190555060019050919050565b6016602052816000526040600020816003811061276257fe5b01600091509150505481565b612776614499565b601e6003806020026040519081016040528092919082600380156127af576020028201915b81548152602001906001019080831161279b575b5050505050905090565b60115481565b600860009054906101000a900473ffffffffffffffffffffffffffffffffffffffff1673ffffffffffffffffffffffffffffffffffffffff163373ffffffffffffffffffffffffffffffffffffffff161461281957600080fd5b612821614499565b6128296133ed565b905060006128356144fb565b600d60009054906101000a900473ffffffffffffffffffffffffffffffffffffffff1673ffffffffffffffffffffffffffffffffffffffff1663b49a60bb6040518163ffffffff1660e01b8152600401606060405180830381600087803b15801561289f57600080fd5b505af11580156128b3573d6000803e3d6000fd5b505050506040513d601f19601f820116820180604052508101906128d791906148de565b905060005b60036fffffffffffffffffffffffffffffffff168160ff161015612bb95760098160ff166003811061290a57fe5b0160009054906101000a900473ffffffffffffffffffffffffffffffffffffffff1673ffffffffffffffffffffffffffffffffffffffff1663313ce5676040518163ffffffff1660e01b815260040160206040518083038186803b15801561297157600080fd5b505afa158015612985573d6000803e3d6000fd5b505050506040513d601f19601f820116820180604052508101906129a99190614a8b565b60ff16925082600a0a60115402848260ff16600381106129c557fe5b60200201511115612b9157600e8160ff16600381106129e057fe5b0154848260ff16600381106129f157fe5b6020020181815101915081815250506064600460109054906101000a90046fffffffffffffffffffffffffffffffff166fffffffffffffffffffffffffffffffff16858360ff1660038110612a4257fe5b60200201510281612a4f57fe5b04848260ff1660038110612a5f57fe5b602002018181525050600e8160ff1660038110612a7857fe5b0154848260ff1660038110612a8957fe5b602002015103848260ff1660038110612a9e57fe5b60200201818152505060098160ff1660038110612ab757fe5b0160009054906101000a900473ffffffffffffffffffffffffffffffffffffffff1673ffffffffffffffffffffffffffffffffffffffff1663a9059cbb838360ff1660038110612b0357fe5b6020020151868460ff1660038110612b1757fe5b60200201516040518363ffffffff1660e01b8152600401612b39929190614ec3565b602060405180830381600087803b158015612b5357600080fd5b505af1158015612b67573d6000803e3d6000fd5b505050506040513d601f19601f82011682018060405250810190612b8b91906149be565b50612bac565b6000848260ff1660038110612ba257fe5b6020020181815250505b80806001019150506128dc565b506000805b60036fffffffffffffffffffffffffffffffff168160ff161015612c11576000858260ff1660038110612bed57fe5b602002015114612c04578180600101925050612c11565b8080600101915050612bbe565b5060008160ff161115612c2857612c27846136d4565b5b50505050565b60128160038110612c3b57fe5b016000915090505481565b601b8160038110612c5357fe5b016000915090505481565b6000600860009054906101000a900473ffffffffffffffffffffffffffffffffffffffff1673ffffffffffffffffffffffffffffffffffffffff163373ffffffffffffffffffffffffffffffffffffffff161480612d095750602160009054906101000a900473ffffffffffffffffffffffffffffffffffffffff1673ffffffffffffffffffffffffffffffffffffffff163373ffffffffffffffffffffffffffffffffffffffff16145b612d48576040517f08c379a0000000000000000000000000000000000000000000000000000000008152600401612d3f90614fa2565b60405180910390fd5b612d5183613299565b60005b60036fffffffffffffffffffffffffffffffff168160ff161015612ed2576000848260ff1660038110612d8357fe5b60200201511115612ec557838160ff1660038110612d9d57fe5b6020020151601e8260ff1660038110612db257fe5b0160008282540192505081905550838160ff1660038110612dcf57fe5b602002015160058260ff1660038110612de457fe5b016000828254039250508190555060098160ff1660038110612e0257fe5b0160009054906101000a900473ffffffffffffffffffffffffffffffffffffffff1673ffffffffffffffffffffffffffffffffffffffff1663a9059cbb84868460ff1660038110612e4f57fe5b60200201516040518363ffffffff1660e01b8152600401612e71929190614ec3565b602060405180830381600087803b158015612e8b57600080fd5b505af1158015612e9f573d6000803e3d6000fd5b505050506040513d601f19601f82011682018060405250810190612ec391906149be565b505b8080600101915050612d54565b506001905092915050565b601560009054906101000a90046fffffffffffffffffffffffffffffffff1681565b6000612f0a826121f8565b9050600080600090505b60036fffffffffffffffffffffffffffffffff168160ff161015613112576000848260ff1660038110612f4357fe5b602002015111156131055760098160ff1660038110612f5e57fe5b0160009054906101000a900473ffffffffffffffffffffffffffffffffffffffff1673ffffffffffffffffffffffffffffffffffffffff166323b872dd3330878560ff1660038110612fac57fe5b60200201516040518463ffffffff1660e01b8152600401612fcf93929190614e03565b602060405180830381600087803b158015612fe957600080fd5b505af1158015612ffd573d6000803e3d6000fd5b505050506040513d601f19601f8201168201806040525081019061302191906149be565b915081613063576040517f08c379a000000000000000000000000000000000000000000000000000000000815260040161305a90614fc2565b60405180910390fd5b838160ff166003811061307257fe5b602002015160058260ff166003811061308757fe5b0160008282540192505081905550838160ff16600381106130a457fe5b6020020151601660003373ffffffffffffffffffffffffffffffffffffffff1673ffffffffffffffffffffffffffffffffffffffff1681526020019081526020016000208260ff16600381106130f657fe5b01600082825401925050819055505b8080600101915050612f14565b50600c60009054906101000a900473ffffffffffffffffffffffffffffffffffffffff1673ffffffffffffffffffffffffffffffffffffffff166340c10f1933846040518363ffffffff1660e01b8152600401613170929190614e63565b600060405180830381600087803b15801561318a57600080fd5b505af115801561319e573d6000803e3d6000fd5b505050506131aa61451d565b6131b261453f565b6040518060800160405280868152602001868152602001428152602001838152509050601760003373ffffffffffffffffffffffffffffffffffffffff1673ffffffffffffffffffffffffffffffffffffffff1681526020019081526020016000208190806001815401808255809150506001900390600052602060002090600802016000909190919091506000820151816000019060036132559291906144bb565b5060208201518160030190600361326d9291906144bb565b506040820151816006015560608201518160070190600361328f929190614579565b5050505050505050565b600d60009054906101000a900473ffffffffffffffffffffffffffffffffffffffff1673ffffffffffffffffffffffffffffffffffffffff1663b1b8f1be826040518263ffffffff1660e01b81526004016132f49190614eec565b600060405180830381600087803b15801561330e57600080fd5b505af1158015613322573d6000803e3d6000fd5b5050505060005b60036fffffffffffffffffffffffffffffffff168160ff16101561338657818160ff166003811061335657fe5b6020020151600e8260ff166003811061336b57fe5b01600082825403925050819055508080600101915050613329565b5050565b6000601a60009054906101000a900463ffffffff16905060005b8163ffffffff168160ff1610156133d85760006133bf6139c1565b90506133ca81613ab8565b5080806001019150506133a4565b5050565b600180819055506000600281905550565b6133f5614499565b6133fd614499565b60005b60036fffffffffffffffffffffffffffffffff168160ff1610156134fd5760098160ff166003811061342e57fe5b0160009054906101000a900473ffffffffffffffffffffffffffffffffffffffff1673ffffffffffffffffffffffffffffffffffffffff166370a08231306040518263ffffffff1660e01b81526004016134889190614dcd565b60206040518083038186803b1580156134a057600080fd5b505afa1580156134b4573d6000803e3d6000fd5b505050506040513d601f19601f820116820180604052508101906134d89190614a62565b828260ff16600381106134e757fe5b6020020181815250508080600101915050613400565b508091505090565b60005b60036fffffffffffffffffffffffffffffffff168110156135df57600082826003811061353157fe5b602002015111156135d25781816003811061354857fe5b6020020151601860003373ffffffffffffffffffffffffffffffffffffffff1673ffffffffffffffffffffffffffffffffffffffff168152602001908152602001600020826003811061359757fe5b01600082825401925050819055508181600381106135b157fe5b6020020151601b82600381106135c357fe5b01600082825401925050819055505b8080600101915050613508565b5060011515601960003373ffffffffffffffffffffffffffffffffffffffff1673ffffffffffffffffffffffffffffffffffffffff16815260200190815260200160002060009054906101000a900460ff161515146136d1576001601a60008282829054906101000a900463ffffffff160192506101000a81548163ffffffff021916908363ffffffff1602179055506001601960003373ffffffffffffffffffffffffffffffffffffffff1673ffffffffffffffffffffffffffffffffffffffff16815260200190815260200160002060006101000a81548160ff0219169083151502179055506136d033614432565b5b50565b600d60009054906101000a900473ffffffffffffffffffffffffffffffffffffffff1673ffffffffffffffffffffffffffffffffffffffff1663d4e20b01826040518263ffffffff1660e01b815260040161372f9190614eec565b600060405180830381600087803b15801561374957600080fd5b505af115801561375d573d6000803e3d6000fd5b5050505060005b60036fffffffffffffffffffffffffffffffff168160ff1610156137c157818160ff166003811061379157fe5b6020020151600e8260ff16600381106137a657fe5b01600082825401925050819055508080600101915050613764565b5050565b60008082141561380a576040517f08c379a000000000000000000000000000000000000000000000000000000000815260040161380190615002565b60405180910390fd5b6000670de0b6b3a76400008402905060008414806138385750670de0b6b3a764000084828161383557fe5b04145b613877576040517f08c379a000000000000000000000000000000000000000000000000000000000815260040161386e90614f62565b60405180910390fd5b60006002848161388357fe5b0482019050818110156138cb576040517f08c379a00000000000000000000000000000000000000000000000000000000081526004016138c290614f62565b60405180910390fd5b60008482816138d657fe5b04905080935050505092915050565b6000808284029050600084148061390457508284828161390157fe5b04145b613943576040517f08c379a000000000000000000000000000000000000000000000000000000000815260040161393a90614fe2565b60405180910390fd5b60006002670de0b6b3a76400008161395757fe5b04820190508181101561399f576040517f08c379a000000000000000000000000000000000000000000000000000000000815260040161399690614fe2565b60405180910390fd5b6000670de0b6b3a764000082816139b257fe5b04905080935050505092915050565b600060015460025410156139d457600080fd5b600080600154815260200190815260200160002060009054906101000a900473ffffffffffffffffffffffffffffffffffffffff16600360006101000a81548173ffffffffffffffffffffffffffffffffffffffff021916908373ffffffffffffffffffffffffffffffffffffffff160217905550600080600154815260200190815260200160002060006101000a81549073ffffffffffffffffffffffffffffffffffffffff021916905560018060008282540192505081905550600360009054906101000a900473ffffffffffffffffffffffffffffffffffffffff16905090565b600080613b3e601860008573ffffffffffffffffffffffffffffffffffffffff1673ffffffffffffffffffffffffffffffffffffffff168152602001908152602001600020600380602002604051908101604052809291908260038015613b34576020028201915b815481526020019060010190808311613b20575b50505050506121f8565b9050600c60009054906101000a900473ffffffffffffffffffffffffffffffffffffffff1673ffffffffffffffffffffffffffffffffffffffff16639dc29fac84836040518363ffffffff1660e01b8152600401613b9d929190614ec3565b600060405180830381600087803b158015613bb757600080fd5b505af1158015613bcb573d6000803e3d6000fd5b5050505060005b60036fffffffffffffffffffffffffffffffff168160ff16101561439d576000601860008673ffffffffffffffffffffffffffffffffffffffff1673ffffffffffffffffffffffffffffffffffffffff1681526020019081526020016000208260ff1660038110613c3f57fe5b0154118015613c9c57506000601660008673ffffffffffffffffffffffffffffffffffffffff1673ffffffffffffffffffffffffffffffffffffffff1681526020019081526020016000208260ff1660038110613c9857fe5b0154115b15614390576000612710600460009054906101000a90046fffffffffffffffffffffffffffffffff166fffffffffffffffffffffffffffffffff16601860008873ffffffffffffffffffffffffffffffffffffffff1673ffffffffffffffffffffffffffffffffffffffff1681526020019081526020016000208460ff1660038110613d2457fe5b01540281613d2e57fe5b04601860008773ffffffffffffffffffffffffffffffffffffffff1673ffffffffffffffffffffffffffffffffffffffff1681526020019081526020016000208360ff1660038110613d7c57fe5b015403905060098260ff1660038110613d9157fe5b0160009054906101000a900473ffffffffffffffffffffffffffffffffffffffff1673ffffffffffffffffffffffffffffffffffffffff1663a9059cbb86836040518363ffffffff1660e01b8152600401613ded929190614ec3565b602060405180830381600087803b158015613e0757600080fd5b505af1158015613e1b573d6000803e3d6000fd5b505050506040513d601f19601f82011682018060405250810190613e3f91906149be565b935083613e4b57600080fd5b601860008673ffffffffffffffffffffffffffffffffffffffff1673ffffffffffffffffffffffffffffffffffffffff1681526020019081526020016000208260ff1660038110613e9857fe5b0154601660008773ffffffffffffffffffffffffffffffffffffffff1673ffffffffffffffffffffffffffffffffffffffff1681526020019081526020016000208360ff1660038110613ee757fe5b0160008282540392505081905550601860008673ffffffffffffffffffffffffffffffffffffffff1673ffffffffffffffffffffffffffffffffffffffff1681526020019081526020016000208260ff1660038110613f4257fe5b0154601b8360ff1660038110613f5457fe5b01600082825403925050819055508060058360ff1660038110613f7357fe5b01600082825403925050819055506000601860008773ffffffffffffffffffffffffffffffffffffffff1673ffffffffffffffffffffffffffffffffffffffff1681526020019081526020016000208360ff1660038110613fd057fe5b0154905060005b601760008873ffffffffffffffffffffffffffffffffffffffff1673ffffffffffffffffffffffffffffffffffffffff168152602001908152602001600020805490508160ff1610156143385760011515601760008973ffffffffffffffffffffffffffffffffffffffff1673ffffffffffffffffffffffffffffffffffffffff1681526020019081526020016000208260ff168154811061407557fe5b90600052602060002090600802016007018560ff166003811061409457fe5b602091828204019190069054906101000a900460ff161515141580156140ba5750600082115b1561432b57601760008873ffffffffffffffffffffffffffffffffffffffff1673ffffffffffffffffffffffffffffffffffffffff1681526020019081526020016000208160ff168154811061410c57fe5b90600052602060002090600802016003018460ff166003811061412b57fe5b015482106142aa57601760008873ffffffffffffffffffffffffffffffffffffffff1673ffffffffffffffffffffffffffffffffffffffff1681526020019081526020016000208160ff168154811061418057fe5b90600052602060002090600802016003018460ff166003811061419f57fe5b0154820391506000601760008973ffffffffffffffffffffffffffffffffffffffff1673ffffffffffffffffffffffffffffffffffffffff1681526020019081526020016000208260ff16815481106141f457fe5b90600052602060002090600802016003018560ff166003811061421357fe5b01819055506001601760008973ffffffffffffffffffffffffffffffffffffffff1673ffffffffffffffffffffffffffffffffffffffff1681526020019081526020016000208260ff168154811061426757fe5b90600052602060002090600802016007018560ff166003811061428657fe5b602091828204019190066101000a81548160ff02191690831515021790555061432a565b81601760008973ffffffffffffffffffffffffffffffffffffffff1673ffffffffffffffffffffffffffffffffffffffff1681526020019081526020016000208260ff16815481106142f857fe5b90600052602060002090600802016003018560ff166003811061431757fe5b0160008282540392505081905550600091505b5b8080600101915050613fd7565b506000601860008873ffffffffffffffffffffffffffffffffffffffff1673ffffffffffffffffffffffffffffffffffffffff1681526020019081526020016000208460ff166003811061438857fe5b018190555050505b8080600101915050613bd2565b506000601960008573ffffffffffffffffffffffffffffffffffffffff1673ffffffffffffffffffffffffffffffffffffffff16815260200190815260200160002060006101000a81548160ff0219169083151502179055506001601a60008282829054906101000a900463ffffffff160392506101000a81548163ffffffff021916908363ffffffff160217905550505050565b600160026000828254019250508190555080600080600254815260200190815260200160002060006101000a81548173ffffffffffffffffffffffffffffffffffffffff021916908373ffffffffffffffffffffffffffffffffffffffff16021790555050565b6040518060600160405280600390602082028036833780820191505090505090565b82600381019282156144ea579160200282015b828111156144e95782518255916020019190600101906144ce565b5b5090506144f79190614612565b5090565b6040518060600160405280600390602082028036833780820191505090505090565b6040518060600160405280600390602082028036833780820191505090505090565b6040518060800160405280614552614499565b815260200161455f614499565b81526020016000815260200161457361451d565b81525090565b826003601f016020900481019282156146015791602002820160005b838211156145d257835183826101000a81548160ff0219169083151502179055509260200192600101602081600001049283019260010302614595565b80156145ff5782816101000a81549060ff02191690556001016020816000010492830192600103026145d2565b505b50905061460e919061462f565b5090565b5b8082111561462b576000816000905550600101614613565b5090565b5b8082111561465357600081816101000a81549060ff021916905550600101614630565b5090565b60008135905061466681615201565b92915050565b600082601f83011261467d57600080fd5b600361469061468b826150a5565b615078565b915081838560208402820111156146a657600080fd5b60005b838110156146d657816146bc8882614810565b8452602084019350602083019250506001810190506146a9565b5050505092915050565b6000819050826020600302820111156146f857600080fd5b92915050565b600082601f83011261470f57600080fd5b600361472261471d826150c7565b615078565b9150818385602084028201111561473857600080fd5b60005b83811015614768578161474e888261483a565b84526020840193506020830192505060018101905061473b565b5050505092915050565b600082601f83011261478357600080fd5b6003614796614791826150c7565b615078565b915081838560208402820111156147ac57600080fd5b60005b838110156147dc57816147c2888261484f565b8452602084019350602083019250506001810190506147af565b5050505092915050565b6000815190506147f581615218565b92915050565b60008135905061480a8161522f565b92915050565b60008151905061481f81615246565b92915050565b6000813590506148348161525d565b92915050565b60008135905061484981615274565b92915050565b60008151905061485e81615274565b92915050565b6000815190506148738161528b565b92915050565b60006020828403121561488b57600080fd5b600061489984828501614657565b91505092915050565b600080604083850312156148b557600080fd5b60006148c385828601614657565b92505060206148d48582860161483a565b9150509250929050565b6000606082840312156148f057600080fd5b60006148fe8482850161466c565b91505092915050565b60006060828403121561491957600080fd5b6000614927848285016146e0565b91505092915050565b60006060828403121561494257600080fd5b6000614950848285016146fe565b91505092915050565b60006060828403121561496b57600080fd5b600061497984828501614772565b91505092915050565b6000806080838503121561499557600080fd5b60006149a3858286016146fe565b92505060606149b485828601614657565b9150509250929050565b6000602082840312156149d057600080fd5b60006149de848285016147e6565b91505092915050565b6000602082840312156149f957600080fd5b6000614a07848285016147fb565b91505092915050565b600060208284031215614a2257600080fd5b6000614a3084828501614825565b91505092915050565b600060208284031215614a4b57600080fd5b6000614a598482850161483a565b91505092915050565b600060208284031215614a7457600080fd5b6000614a828482850161484f565b91505092915050565b600060208284031215614a9d57600080fd5b6000614aab84828501614864565b91505092915050565b6000614ac08383614daf565b60208301905092915050565b614ad5816151bc565b82525050565b614ae481615127565b82525050565b614af6606083836151f2565b5050565b614b03816150f3565b614b0d818461510b565b9250614b18826150e9565b8060005b83811015614b49578151614b308782614ab4565b9650614b3b836150fe565b925050600181019050614b1c565b505050505050565b614b5a81615139565b82525050565b6000614b6d601283615116565b91507f7a65726f20746f6b656e7320737570706c7900000000000000000000000000006000830152602082019050919050565b6000614bad601483615116565b91507f776974686472617720717565756520656d7074790000000000000000000000006000830152602082019050919050565b6000614bed601083615116565b91507f4552525f4449565f494e5445524e414c000000000000000000000000000000006000830152602082019050919050565b6000614c2d601a83615116565b91507f6c6f636b20706572696f64207c206e6f7420737570706c6965640000000000006000830152602082019050919050565b6000614c6d600e83615116565b91507f6e6f7420617574686f72697a65640000000000000000000000000000000000006000830152602082019050919050565b6000614cad601783615116565b91507f5472616e73666572206e6f74207375636365737366756c0000000000000000006000830152602082019050919050565b6000614ced601083615116565b91507f4552525f4d554c5f4f564552464c4f57000000000000000000000000000000006000830152602082019050919050565b6000614d2d600c83615116565b91507f4552525f4449565f5a45524f00000000000000000000000000000000000000006000830152602082019050919050565b6000614d6d600783615116565b91507f6c6f7720525054000000000000000000000000000000000000000000000000006000830152602082019050919050565b614da981615169565b82525050565b614db8816151a5565b82525050565b614dc7816151a5565b82525050565b6000602082019050614de26000830184614adb565b92915050565b6000602082019050614dfd6000830184614acc565b92915050565b6000606082019050614e186000830186614acc565b614e256020830185614adb565b614e326040830184614dbe565b949350505050565b6000608082019050614e4f6000830185614acc565b614e5c6020830184614aea565b9392505050565b6000604082019050614e786000830185614acc565b614e856020830184614dbe565b9392505050565b6000606082019050614ea16000830186614adb565b614eae6020830185614adb565b614ebb6040830184614dbe565b949350505050565b6000604082019050614ed86000830185614adb565b614ee56020830184614dbe565b9392505050565b6000606082019050614f016000830184614afa565b92915050565b6000602082019050614f1c6000830184614b51565b92915050565b60006020820190508181036000830152614f3b81614b60565b9050919050565b60006020820190508181036000830152614f5b81614ba0565b9050919050565b60006020820190508181036000830152614f7b81614be0565b9050919050565b60006020820190508181036000830152614f9b81614c20565b9050919050565b60006020820190508181036000830152614fbb81614c60565b9050919050565b60006020820190508181036000830152614fdb81614ca0565b9050919050565b60006020820190508181036000830152614ffb81614ce0565b9050919050565b6000602082019050818103600083015261501b81614d20565b9050919050565b6000602082019050818103600083015261503b81614d60565b9050919050565b60006020820190506150576000830184614da0565b92915050565b60006020820190506150726000830184614dbe565b92915050565b6000604051905081810181811067ffffffffffffffff8211171561509b57600080fd5b8060405250919050565b600067ffffffffffffffff8211156150bc57600080fd5b602082029050919050565b600067ffffffffffffffff8211156150de57600080fd5b602082029050919050565b6000819050919050565b600060039050919050565b6000602082019050919050565b600081905092915050565b600082825260208201905092915050565b600061513282615185565b9050919050565b60008115159050919050565b600061515082615127565b9050919050565b600061516282615127565b9050919050565b60006fffffffffffffffffffffffffffffffff82169050919050565b600073ffffffffffffffffffffffffffffffffffffffff82169050919050565b6000819050919050565b600060ff82169050919050565b60006151c7826151ce565b9050919050565b60006151d9826151e0565b9050919050565b60006151eb82615185565b9050919050565b82818337600083830152505050565b61520a81615127565b811461521557600080fd5b50565b61522181615139565b811461522c57600080fd5b50565b61523881615145565b811461524357600080fd5b50565b61524f81615157565b811461525a57600080fd5b50565b61526681615169565b811461527157600080fd5b50565b61527d816151a5565b811461528857600080fd5b50565b615294816151af565b811461529f57600080fd5b5056fea264697066735822122044d01fc64b0dfd1ab930842a3a664fad6f5f2ea474df0f8e55502e4edccd411564736f6c634300060c0033",
  "immutableReferences": {},
  "source": "// SPDX-License-Identifier: UNLICENSED\r\npragma solidity ^0.6.0;\r\npragma experimental ABIEncoderV2;\r\n\r\nimport './MathLib.sol';\r\nimport './RoyaleLPstorage.sol';\r\n\r\n\r\ncontract RoyaleLP is RoyaleLPstorage, rNum {\r\n\r\n    modifier onlyOwner {\r\n        require(msg.sender == owner);\r\n        _;\r\n    }\r\n\r\n    modifier onlyAuthorized {\r\n        require(msg.sender == owner || msg.sender == loanContract,\"not authorized\");\r\n        _;\r\n    }\r\n\r\n    constructor(\r\n        address[N_COINS] memory _tokens,\r\n        address _rpToken\r\n    ) public {\r\n        owner = msg.sender;\r\n\r\n        for(uint8 i=0; i<N_COINS; i++) {\r\n            tokens[i] = Erc20(_tokens[i]);\r\n        }\r\n        rpToken = Erc20(_rpToken);\r\n    }\r\n    \r\n    /* EVENTS */\r\n    event userSupplied(\r\n        address user,\r\n        uint[N_COINS] amounts\r\n    );\r\n\r\n    event userRecieved(\r\n        address user,\r\n        uint[N_COINS] amounts\r\n    );\r\n\r\n    event userAddedToQ(\r\n        address user,\r\n        uint[N_COINS] amounts\r\n    );\r\n\r\n    /* INTERNAL FUNCTIONS */\r\n\r\n    function _getBalances() internal view returns(uint256[N_COINS] memory) {\r\n        uint256[N_COINS] memory balances;\r\n\r\n        for(uint8 i=0; i<N_COINS; i++) {\r\n            balances[i] = tokens[i].balanceOf(address(this));\r\n        }\r\n\r\n        return balances;\r\n    }\r\n\r\n\r\n\r\n    // functions related to deposit and supply\r\n\r\n    // This function deposits the fund to Yield Optimizer\r\n    function _deposit(uint256[N_COINS] memory amounts) internal {\r\n        controller.deposit(amounts);\r\n        \r\n        for(uint8 i=0; i<N_COINS; i++) {\r\n            YieldPoolBalance[i] += amounts[i];\r\n        }\r\n    }\r\n\r\n\r\n\r\n    //Internal Calculation For User Supply \r\n\r\n    function _supply(uint256[N_COINS] memory amounts) internal {\r\n        uint256 mintTokens;        \r\n        mintTokens = calcRptAmount(amounts);    \r\n        \r\n        bool result;\r\n        for(uint8 i=0; i<N_COINS; i++) {\r\n            if(amounts[i] > 0) {\r\n                result = tokens[i].transferFrom(\r\n                    msg.sender, \r\n                    address(this), \r\n                    amounts[i]\r\n                );\r\n                require(result,\"Transfer not successful\");\r\n                selfBalance[i] += amounts[i];\r\n                amountSupplied[msg.sender][i] += amounts[i];\r\n            }\r\n        }\r\n        rpToken.mint(msg.sender, mintTokens);\r\n        bool[N_COINS] memory falseArray;\r\n        depositDetails memory d = depositDetails(amounts, amounts, now, falseArray);\r\n        supplyTime[msg.sender].push(d);\r\n    }\r\n\r\n\r\n\r\n    // functions related to withdraw, withdraw queue and withdraw from Yield Optimizer\r\n    function _takeBack(address recipient) internal {\r\n        bool result;\r\n\r\n        uint256 burnAmt;\r\n\r\n        burnAmt = calcRptAmount(amountWithdraw[recipient]);\r\n        rpToken.burn(recipient, burnAmt);\r\n\r\n        for(uint8 i=0; i<N_COINS; i++) {\r\n            if(\r\n                amountWithdraw[recipient][i] > 0 \r\n                && \r\n                amountSupplied[recipient][i] > 0\r\n            ) {\r\n                uint temp = amountWithdraw[recipient][i] - (amountWithdraw[recipient][i] * fees) / 10000;\r\n                result = tokens[i].transfer(\r\n                    recipient,  \r\n                    temp\r\n                );\r\n                require(result);\r\n                amountSupplied[recipient][i] -= amountWithdraw[recipient][i];\r\n                totalWithdraw[i] -= amountWithdraw[recipient][i];\r\n                selfBalance[i] -= temp;\r\n                uint x = amountWithdraw[recipient][i];\r\n                for(uint8 j=0; j<supplyTime[recipient].length; j++) {\r\n                    if(supplyTime[recipient][j].withdrawn[i] != true && x > 0) {\r\n                        if(x >= supplyTime[recipient][j].remAmt[i]) {\r\n                            x = x - supplyTime[recipient][j].remAmt[i];\r\n                            supplyTime[recipient][j].remAmt[i] = 0;\r\n                            supplyTime[recipient][j].withdrawn[i] = true;\r\n                        }\r\n                        else {\r\n                            supplyTime[recipient][j].remAmt[i] -= x;\r\n                            x = 0;\r\n                        }\r\n                    }\r\n                }\r\n\r\n                amountWithdraw[recipient][i] = 0;\r\n   \r\n            }\r\n        }\r\n        isInQ[recipient] = false;\r\n        recipientCount -= 1;\r\n    }\r\n\r\n\r\n\r\n\r\n    // this will fulfill withdraw requests from the queue\r\n    function _giveBack() internal {\r\n        \r\n        uint32 counter = recipientCount;\r\n        for(uint8 i=0; i<counter; i++) {\r\n            address recipient = getFromQ();\r\n            _takeBack(recipient);\r\n        }\r\n\r\n    }\r\n\r\n\r\n\r\n\r\n\r\n    // this will add unfulfilled withdraw requests to the queue\r\n    function _takeBackQ(uint256[N_COINS] memory amounts) internal {\r\n        \r\n        for(uint256 i=0; i<N_COINS; i++) {\r\n            if(amounts[i] > 0) {\r\n                amountWithdraw[msg.sender][i] += amounts[i];\r\n                totalWithdraw[i] += amounts[i];\r\n            }\r\n        }\r\n\r\n        if(isInQ[msg.sender] != true) {\r\n            recipientCount += 1;\r\n            isInQ[msg.sender] = true;\r\n            addToQ(msg.sender);\r\n        }\r\n\r\n    }\r\n\r\n\r\n\r\n\r\n    // this will withdraw from Yield Optimizer into this contract\r\n    function _withdraw(uint256[N_COINS] memory amounts) internal {\r\n        controller.withdraw(amounts);\r\n\r\n        for(uint8 i=0; i<N_COINS; i++) {\r\n            YieldPoolBalance[i] -= amounts[i];\r\n        }\r\n    }\r\n\r\n\r\n\r\n    //This function calculate RPT to be mint or burn\r\n    function calcRptAmount(uint256[N_COINS] memory amounts) public view returns(uint256) {\r\n        uint256 rptAmt;\r\n        uint256 total = 0;\r\n        uint256 decimal = 0;\r\n        uint256 totalSuppliedTokens;\r\n        uint256 totalRPTSupply;\r\n\r\n        totalRPTSupply = bdiv(rpToken.totalSupply(), 10**18);\r\n      \r\n        for(uint8 i=0; i<N_COINS; i++) {\r\n            decimal = tokens[i].decimals();\r\n            total += bdiv(selfBalance[i]+loanGiven[i], 10**decimal);\r\n            totalSuppliedTokens += bdiv(amounts[i], 10**decimal);\r\n        }\r\n     \r\n        rptAmt = bmul(bdiv(totalSuppliedTokens, total), totalRPTSupply);        \r\n\r\n        return rptAmt;\r\n    }\r\n\r\n\r\n\r\n    //function to check available amount to withdraw for user\r\n    function availableWithdraw(address addr, uint coin) public view returns(uint256) {\r\n\r\n        uint256 amount=0;\r\n        for(uint8 j=0; j<supplyTime[addr].length; j++) {\r\n            if(\r\n                ((now - supplyTime[addr][j].time) \r\n                > \r\n                (24 * 60 * 60 * lock_period))\r\n                &&\r\n                supplyTime[addr][j].withdrawn[coin] != true\r\n            ) {\r\n                amount += supplyTime[addr][j].remAmt[coin];\r\n            }\r\n        }\r\n\r\n        return amount;\r\n    }\r\n\r\n\r\n\r\n\r\n    /* USER FUNCTIONS (exposed to frontend) */\r\n\r\n    function supply(uint256[N_COINS] calldata amounts) external {\r\n        require(\r\n            calcRptAmount(amounts) > 0,\r\n            \"zero tokens supply\"\r\n        );\r\n        \r\n        _supply(amounts);\r\n\r\n        emit userSupplied(msg.sender, amounts);\r\n    }\r\n\r\n    function requestWithdraw(uint256[N_COINS] calldata amounts) external {\r\n        require(\r\n            calcRptAmount(amounts) > 0,\r\n            \"zero tokens supply\"\r\n        );\r\n\r\n        uint256 burnAmt;\r\n        burnAmt = calcRptAmount(amounts);\r\n        require(\r\n            rpToken.balanceOf(msg.sender) >= burnAmt, \r\n            \"low RPT\"\r\n        );\r\n        \r\n        uint256[N_COINS] memory poolBalance;\r\n        poolBalance = _getBalances();\r\n        \r\n        bool checkTime = true;\r\n        bool instant;\r\n        \r\n        // check if user is withdrawing before lock period\r\n        for(uint8 i=0; i<N_COINS; i++) {\r\n            if(amounts[i] > 0) {\r\n                if(availableWithdraw(msg.sender, i) < amounts[i]) {\r\n                    checkTime = false;\r\n                }\r\n            }\r\n        }\r\n        require(checkTime, \"lock period | not supplied\");\r\n\r\n        // check if instant withdraw\r\n        for(uint8 i=0; i<N_COINS; i++) {\r\n            if(amounts[i] < poolBalance[i] && amounts[i] != 0) {\r\n                instant = true;\r\n            }\r\n        }\r\n\r\n        if(instant) {\r\n            rpToken.burn(msg.sender, burnAmt);\r\n            bool result;\r\n            for(uint8 i=0; i<N_COINS; i++) {\r\n                if(amounts[i] > 0) {\r\n                    uint temp = amounts[i] - (amounts[i] * fees) / 10000;\r\n                    result = tokens[i].transfer(msg.sender, temp);\r\n                    require(result);\r\n                    amountSupplied[msg.sender][i] -= amounts[i];\r\n                    selfBalance[i] -= temp;\r\n                    \r\n                    uint x = amounts[i];\r\n                    for(uint8 j=0; j<supplyTime[msg.sender].length; j++) {\r\n                        if(supplyTime[msg.sender][j].withdrawn[i] != true && x > 0) {\r\n                            if(x >= supplyTime[msg.sender][j].remAmt[i]) {\r\n                                x = x - supplyTime[msg.sender][j].remAmt[i];\r\n                                supplyTime[msg.sender][j].remAmt[i] = 0;\r\n                                supplyTime[msg.sender][j].withdrawn[i] = true;\r\n                            }\r\n                            else {\r\n                                supplyTime[msg.sender][j].remAmt[i] -= x;\r\n                                x = 0;\r\n                            }\r\n                        }\r\n                    }\r\n\r\n                }\r\n            }\r\n\r\n            emit userRecieved(msg.sender, amounts);\r\n        } else {\r\n            _takeBackQ(amounts);\r\n\r\n            emit userAddedToQ(msg.sender, amounts);\r\n        }\r\n    }\r\n \r\n    // Following two functions are called by rLoan Only\r\n    function _loanWithdraw(\r\n        uint256[N_COINS] memory amounts, \r\n        address _loanSeeker\r\n    ) public onlyAuthorized returns(bool) {\r\n        _withdraw(amounts);\r\n\r\n        for(uint8 i=0; i<N_COINS; i++) {\r\n            if(amounts[i] > 0) {\r\n                loanGiven[i] += amounts[i];\r\n                selfBalance[i] -= amounts[i];\r\n                tokens[i].transfer(_loanSeeker, amounts[i]);\r\n            }\r\n        }\r\n        return true;\r\n    }\r\n\r\n    //Function only called by multisig contract for transfering tokens\r\n    function _loanRepayment(\r\n        uint256[N_COINS] memory amounts, \r\n        address _loanSeeker\r\n    ) public onlyAuthorized returns(bool) {\r\n        for(uint8 i=0; i<N_COINS; i++) {\r\n            if(amounts[i] > 0) {\r\n                loanGiven[i] -= amounts[i];\r\n                selfBalance[i] += amounts[i];\r\n                tokens[i].transferFrom(_loanSeeker, address(this), amounts[i]);\r\n            }\r\n        }\r\n        return true;\r\n    }\r\n\r\n    // this function deposits without minting RPT\r\n    function depsoitInRoyale(uint256[N_COINS] calldata amounts) external {\r\n        for(uint8 i=0;i<N_COINS;i++){\r\n            if(amounts[i]!=0){\r\n             tokens[i].transferFrom(msg.sender,address(this),amounts[i]);\r\n             selfBalance[i]+=amounts[i];\r\n            }\r\n        }\r\n    }\r\n\r\n\r\n    /* CORE FUNCTIONS (also exposed to frontend but to be called by owner only) */\r\n\r\n    //function for deposit in pool for yield\r\n    function deposit() onlyOwner external {\r\n        uint256[N_COINS] memory amounts = _getBalances();\r\n        uint256 decimal;\r\n\r\n        rStrategyI[3] memory strat = controller.getStrategies();\r\n\r\n        for(uint8 i=0; i<N_COINS; i++) {\r\n            decimal = tokens[i].decimals();\r\n            if(amounts[i] > thresholdTokenAmount*10**decimal) {\r\n                amounts[i] += YieldPoolBalance[i];\r\n                amounts[i] = (amounts[i] * poolPart) / 100;\r\n                amounts[i] = amounts[i] - YieldPoolBalance[i];\r\n                tokens[i].transfer(address(strat[i]), amounts[i]);\r\n            }\r\n            else {\r\n                amounts[i] = 0;\r\n            }\r\n        }\r\n\r\n        uint8 counter = 0;\r\n        for(uint8 i=0; i<N_COINS; i++) {\r\n           if(amounts[i] != 0) {\r\n               counter++;\r\n               break;\r\n           }\r\n        }\r\n\r\n        if(counter > 0){\r\n            _deposit(amounts);\r\n        }\r\n    }\r\n\r\n    //Function available in ui for owner , withdrawing from Pool(curve or any other)\r\n    function withdraw() onlyOwner external {\r\n\r\n        uint8 counter = 0;\r\n        for(uint8 i=0; i<N_COINS; i++) {\r\n           if(totalWithdraw[i] != 0) {\r\n               counter++;\r\n               break;\r\n           }\r\n        }\r\n\r\n        require(counter > 0, \"withdraw queue empty\");\r\n\r\n        _withdraw(totalWithdraw);\r\n        _giveBack();\r\n        resetQueue();\r\n    }\r\n\r\n    //function for rebalancing pool(ratio)      \r\n    function rebalance() onlyOwner external {\r\n        uint256[N_COINS] memory currentAmount = _getBalances();\r\n        uint256[N_COINS] memory amountToWithdraw;\r\n        uint256[N_COINS] memory amountToDeposit;\r\n\r\n        rStrategyI[3] memory strat = controller.getStrategies();\r\n\r\n        for(uint8 i=0;i<N_COINS;i++) {\r\n           uint256 decimal=tokens[i].decimals();\r\n           uint256 a = (selfBalance[i] * (100 - poolPart)) / 100;\r\n           if(a > currentAmount[i]) {\r\n              amountToWithdraw[i] = a - currentAmount[i];\r\n              if(amountToWithdraw[i]<(50*(10**decimal))){\r\n                  amountToWithdraw[i]=0;\r\n              }\r\n           }\r\n           else if(a < currentAmount[i]) {\r\n               amountToDeposit[i] = currentAmount[i] - a;\r\n               if(amountToDeposit[i]<(50*(10**decimal))){\r\n                   amountToDeposit[i]=0;\r\n               }\r\n               else{\r\n                  tokens[i].transfer(address(strat[i]), amountToDeposit[i]);\r\n               }\r\n           }\r\n           else {\r\n               amountToWithdraw[i] = 0;\r\n               amountToDeposit[i] = 0;\r\n           }\r\n        }\r\n\r\n        bool check=false;\r\n        for(uint8 i=0; i<N_COINS; i++) {\r\n            if(amountToDeposit[i] > 0) {\r\n                  check = true;\r\n                  break;\r\n            }\r\n        }\r\n\r\n        if(check){\r\n             _deposit(amountToDeposit);\r\n             check = false;\r\n        }\r\n\r\n        for(uint8 i=0; i<N_COINS; i++) {\r\n            if(amountToWithdraw[i] > 0) {\r\n                  check = true;\r\n                  break;\r\n            }\r\n        }\r\n        \r\n        if(check) {\r\n            _withdraw(amountToWithdraw);\r\n             check = false;\r\n        }\r\n\r\n    }\r\n\r\n\r\n    /* ADMIN FUNCTIONS */\r\n\r\n    \r\n    function getTotalPoolBalance() external view returns(uint256[3] memory) {\r\n        return selfBalance;\r\n    }\r\n\r\n    function getTotalLoanGiven() external view returns(uint256[3] memory) {\r\n        return loanGiven;\r\n    }\r\n\r\n    function setLoanContract(address _loanContract)external onlyOwner returns(bool){\r\n        loanContract=_loanContract;\r\n    }\r\n\r\n    function changePoolPart(uint128 _newPoolPart) external onlyOwner returns(bool) {\r\n        poolPart = _newPoolPart;\r\n        return true;\r\n    }\r\n\r\n    function getYieldProfit() external onlyOwner {\r\n        profitFromYield=controller.getTotalProfit();\r\n\r\n        for(uint8 i=0;i<N_COINS;i++){\r\n            selfBalance[i] += profitFromYield[i];\r\n        }\r\n    }\r\n\r\n    function setThresholdTokenAmount(uint256 _newThreshold) external onlyOwner returns(bool) {\r\n        thresholdTokenAmount = _newThreshold;\r\n        return true;\r\n    }\r\n\r\n    function setInitialDeposit() onlyOwner external returns(bool) {\r\n        selfBalance = _getBalances();\r\n        return true;\r\n    }\r\n\r\n    function setController(rControllerI _controller) onlyOwner external returns(bool) {\r\n        controller = _controller;\r\n        return true;\r\n    }\r\n\r\n    function setLockPeriod(uint128 lockperiod) onlyOwner external returns(bool) {\r\n        lock_period = lockperiod;\r\n        return true;\r\n    }\r\n\r\n    function setWithdrawFees(uint128 _fees) onlyOwner external returns(bool) {\r\n        fees = _fees;\r\n        return true;\r\n    }\r\n\r\n}",
  "sourcePath": "C:/Users/MayankVats/Desktop/WORK/blockchain/Royale/rlp/contracts/RoyaleLP.sol",
  "compiler": {
    "name": "solc",
    "version": "0.6.12+commit.27d51765.Emscripten.clang"
  },
  "schemaVersion": "3.3.2",
  "updatedAt": "2020-12-30T06:02:11.591Z",
  "devdoc": {
    "kind": "dev",
    "methods": {},
    "version": 1
  },
  "userdoc": {
    "kind": "user",
    "methods": {},
    "version": 1
  }
}