{
  "contractName": "RoyaleLP",
  "abi": [
    {
      "inputs": [
        {
          "internalType": "address[3]",
          "name": "_tokens",
          "type": "address[3]"
        },
        {
          "internalType": "address",
          "name": "_rpToken",
          "type": "address"
        }
      ],
      "stateMutability": "nonpayable",
      "type": "constructor"
    },
    {
      "anonymous": false,
      "inputs": [
        {
          "indexed": false,
          "internalType": "address",
          "name": "adder",
          "type": "address"
        },
        {
          "indexed": false,
          "internalType": "uint256",
          "name": "numberOfSignees",
          "type": "uint256"
        }
      ],
      "name": "addedRequiredSignee",
      "type": "event"
    },
    {
      "anonymous": false,
      "inputs": [
        {
          "indexed": false,
          "internalType": "uint256",
          "name": "loanID",
          "type": "uint256"
        }
      ],
      "name": "approved",
      "type": "event"
    },
    {
      "anonymous": false,
      "inputs": [
        {
          "indexed": false,
          "internalType": "address",
          "name": "by",
          "type": "address"
        },
        {
          "indexed": false,
          "internalType": "uint256[3]",
          "name": "requestedAmount",
          "type": "uint256[3]"
        },
        {
          "indexed": false,
          "internalType": "uint256[3]",
          "name": "remainingAmount",
          "type": "uint256[3]"
        },
        {
          "indexed": false,
          "internalType": "uint256",
          "name": "loanID",
          "type": "uint256"
        }
      ],
      "name": "loanFulfilled",
      "type": "event"
    },
    {
      "anonymous": false,
      "inputs": [
        {
          "indexed": false,
          "internalType": "address",
          "name": "by",
          "type": "address"
        },
        {
          "indexed": false,
          "internalType": "uint256[3]",
          "name": "repayedAmount",
          "type": "uint256[3]"
        },
        {
          "indexed": false,
          "internalType": "uint256[3]",
          "name": "amountRemaining",
          "type": "uint256[3]"
        },
        {
          "indexed": false,
          "internalType": "uint256",
          "name": "loanID",
          "type": "uint256"
        }
      ],
      "name": "loanRepayed",
      "type": "event"
    },
    {
      "anonymous": false,
      "inputs": [
        {
          "indexed": false,
          "internalType": "address",
          "name": "by",
          "type": "address"
        },
        {
          "indexed": false,
          "internalType": "uint256[3]",
          "name": "amounts",
          "type": "uint256[3]"
        },
        {
          "indexed": false,
          "internalType": "uint256",
          "name": "loanID",
          "type": "uint256"
        }
      ],
      "name": "loanRequested",
      "type": "event"
    },
    {
      "anonymous": false,
      "inputs": [
        {
          "indexed": false,
          "internalType": "address",
          "name": "by",
          "type": "address"
        },
        {
          "indexed": false,
          "internalType": "uint256[3]",
          "name": "requestedAmount",
          "type": "uint256[3]"
        },
        {
          "indexed": false,
          "internalType": "uint256[3]",
          "name": "remainingAmount",
          "type": "uint256[3]"
        },
        {
          "indexed": false,
          "internalType": "uint256",
          "name": "loanID",
          "type": "uint256"
        }
      ],
      "name": "loanWithdrawn",
      "type": "event"
    },
    {
      "anonymous": false,
      "inputs": [
        {
          "indexed": false,
          "internalType": "address",
          "name": "signee",
          "type": "address"
        },
        {
          "indexed": false,
          "internalType": "uint256",
          "name": "loanID",
          "type": "uint256"
        }
      ],
      "name": "signed",
      "type": "event"
    },
    {
      "anonymous": false,
      "inputs": [
        {
          "indexed": false,
          "internalType": "address",
          "name": "signee",
          "type": "address"
        }
      ],
      "name": "signeeAdded",
      "type": "event"
    },
    {
      "anonymous": false,
      "inputs": [
        {
          "indexed": false,
          "internalType": "address",
          "name": "signee",
          "type": "address"
        }
      ],
      "name": "signeeRemoved",
      "type": "event"
    },
    {
      "anonymous": false,
      "inputs": [
        {
          "indexed": false,
          "internalType": "address",
          "name": "user",
          "type": "address"
        },
        {
          "indexed": false,
          "internalType": "uint256[3]",
          "name": "amounts",
          "type": "uint256[3]"
        }
      ],
      "name": "userAddedToQ",
      "type": "event"
    },
    {
      "anonymous": false,
      "inputs": [
        {
          "indexed": false,
          "internalType": "address",
          "name": "user",
          "type": "address"
        },
        {
          "indexed": false,
          "internalType": "uint256[3]",
          "name": "amounts",
          "type": "uint256[3]"
        }
      ],
      "name": "userRecieved",
      "type": "event"
    },
    {
      "anonymous": false,
      "inputs": [
        {
          "indexed": false,
          "internalType": "address",
          "name": "user",
          "type": "address"
        },
        {
          "indexed": false,
          "internalType": "uint256[3]",
          "name": "amounts",
          "type": "uint256[3]"
        }
      ],
      "name": "userSupplied",
      "type": "event"
    },
    {
      "anonymous": false,
      "inputs": [
        {
          "indexed": false,
          "internalType": "address",
          "name": "by",
          "type": "address"
        },
        {
          "indexed": false,
          "internalType": "uint256[3]",
          "name": "repayedAmount",
          "type": "uint256[3]"
        },
        {
          "indexed": false,
          "internalType": "uint256[3]",
          "name": "amountRemaining",
          "type": "uint256[3]"
        },
        {
          "indexed": false,
          "internalType": "uint256",
          "name": "loanID",
          "type": "uint256"
        }
      ],
      "name": "wholeLoanRepayed",
      "type": "event"
    },
    {
      "inputs": [],
      "name": "BASE_DECIMAL",
      "outputs": [
        {
          "internalType": "uint256",
          "name": "",
          "type": "uint256"
        }
      ],
      "stateMutability": "view",
      "type": "function"
    },
    {
      "inputs": [],
      "name": "MAX_SIGNEE_COUNT",
      "outputs": [
        {
          "internalType": "uint256",
          "name": "",
          "type": "uint256"
        }
      ],
      "stateMutability": "view",
      "type": "function"
    },
    {
      "inputs": [
        {
          "internalType": "uint256",
          "name": "",
          "type": "uint256"
        }
      ],
      "name": "YieldPoolBalance",
      "outputs": [
        {
          "internalType": "uint256",
          "name": "",
          "type": "uint256"
        }
      ],
      "stateMutability": "view",
      "type": "function"
    },
    {
      "inputs": [
        {
          "internalType": "address",
          "name": "signee",
          "type": "address"
        }
      ],
      "name": "addSignee",
      "outputs": [],
      "stateMutability": "nonpayable",
      "type": "function"
    },
    {
      "inputs": [
        {
          "internalType": "uint256",
          "name": "_loanID",
          "type": "uint256"
        }
      ],
      "name": "checkLoanApproved",
      "outputs": [
        {
          "internalType": "bool",
          "name": "",
          "type": "bool"
        }
      ],
      "stateMutability": "view",
      "type": "function"
    },
    {
      "inputs": [
        {
          "internalType": "uint256",
          "name": "_loanID",
          "type": "uint256"
        }
      ],
      "name": "confirmLoan",
      "outputs": [],
      "stateMutability": "nonpayable",
      "type": "function"
    },
    {
      "inputs": [
        {
          "internalType": "address",
          "name": "",
          "type": "address"
        },
        {
          "internalType": "uint256",
          "name": "",
          "type": "uint256"
        }
      ],
      "name": "confirmations",
      "outputs": [
        {
          "internalType": "bool",
          "name": "",
          "type": "bool"
        }
      ],
      "stateMutability": "view",
      "type": "function"
    },
    {
      "inputs": [],
      "name": "fees",
      "outputs": [
        {
          "internalType": "uint128",
          "name": "",
          "type": "uint128"
        }
      ],
      "stateMutability": "view",
      "type": "function"
    },
    {
      "inputs": [
        {
          "internalType": "uint256",
          "name": "_loanID",
          "type": "uint256"
        }
      ],
      "name": "getTransactionDetail",
      "outputs": [
        {
          "components": [
            {
              "internalType": "uint256",
              "name": "transactionId",
              "type": "uint256"
            },
            {
              "internalType": "address",
              "name": "iGamingCompany",
              "type": "address"
            },
            {
              "internalType": "bool",
              "name": "isGamingCompanySigned",
              "type": "bool"
            },
            {
              "internalType": "uint256[3]",
              "name": "tokenAmounts",
              "type": "uint256[3]"
            },
            {
              "internalType": "uint256[3]",
              "name": "remAmt",
              "type": "uint256[3]"
            },
            {
              "internalType": "bool",
              "name": "approved",
              "type": "bool"
            },
            {
              "internalType": "bool",
              "name": "executed",
              "type": "bool"
            }
          ],
          "internalType": "struct RoyaleLPstorage.Transaction",
          "name": "",
          "type": "tuple"
        }
      ],
      "stateMutability": "view",
      "type": "function"
    },
    {
      "inputs": [
        {
          "internalType": "address",
          "name": "",
          "type": "address"
        }
      ],
      "name": "isInQ",
      "outputs": [
        {
          "internalType": "bool",
          "name": "",
          "type": "bool"
        }
      ],
      "stateMutability": "view",
      "type": "function"
    },
    {
      "inputs": [
        {
          "internalType": "address",
          "name": "",
          "type": "address"
        }
      ],
      "name": "isSignee",
      "outputs": [
        {
          "internalType": "bool",
          "name": "",
          "type": "bool"
        }
      ],
      "stateMutability": "view",
      "type": "function"
    },
    {
      "inputs": [],
      "name": "lock_period",
      "outputs": [
        {
          "internalType": "uint128",
          "name": "",
          "type": "uint128"
        }
      ],
      "stateMutability": "view",
      "type": "function"
    },
    {
      "inputs": [],
      "name": "owner",
      "outputs": [
        {
          "internalType": "address",
          "name": "",
          "type": "address"
        }
      ],
      "stateMutability": "view",
      "type": "function"
    },
    {
      "inputs": [],
      "name": "poolPart",
      "outputs": [
        {
          "internalType": "uint128",
          "name": "",
          "type": "uint128"
        }
      ],
      "stateMutability": "view",
      "type": "function"
    },
    {
      "inputs": [
        {
          "internalType": "address",
          "name": "signee",
          "type": "address"
        }
      ],
      "name": "removeSignee",
      "outputs": [],
      "stateMutability": "nonpayable",
      "type": "function"
    },
    {
      "inputs": [
        {
          "internalType": "uint256[3]",
          "name": "amounts",
          "type": "uint256[3]"
        }
      ],
      "name": "requestLoan",
      "outputs": [
        {
          "internalType": "uint256",
          "name": "",
          "type": "uint256"
        }
      ],
      "stateMutability": "nonpayable",
      "type": "function"
    },
    {
      "inputs": [],
      "name": "required",
      "outputs": [
        {
          "internalType": "uint256",
          "name": "",
          "type": "uint256"
        }
      ],
      "stateMutability": "view",
      "type": "function"
    },
    {
      "inputs": [
        {
          "internalType": "uint256",
          "name": "",
          "type": "uint256"
        }
      ],
      "name": "selfBalance",
      "outputs": [
        {
          "internalType": "uint256",
          "name": "",
          "type": "uint256"
        }
      ],
      "stateMutability": "view",
      "type": "function"
    },
    {
      "inputs": [
        {
          "internalType": "uint256",
          "name": "_required",
          "type": "uint256"
        }
      ],
      "name": "setRequiredSignee",
      "outputs": [],
      "stateMutability": "nonpayable",
      "type": "function"
    },
    {
      "inputs": [
        {
          "internalType": "uint256",
          "name": "_loanID",
          "type": "uint256"
        }
      ],
      "name": "signTransaction",
      "outputs": [],
      "stateMutability": "nonpayable",
      "type": "function"
    },
    {
      "inputs": [
        {
          "internalType": "uint256",
          "name": "",
          "type": "uint256"
        }
      ],
      "name": "signees",
      "outputs": [
        {
          "internalType": "address",
          "name": "",
          "type": "address"
        }
      ],
      "stateMutability": "view",
      "type": "function"
    },
    {
      "inputs": [],
      "name": "thresholdTokenAmount",
      "outputs": [
        {
          "internalType": "uint256",
          "name": "",
          "type": "uint256"
        }
      ],
      "stateMutability": "view",
      "type": "function"
    },
    {
      "inputs": [
        {
          "internalType": "uint256",
          "name": "",
          "type": "uint256"
        }
      ],
      "name": "totalWithdraw",
      "outputs": [
        {
          "internalType": "uint256",
          "name": "",
          "type": "uint256"
        }
      ],
      "stateMutability": "view",
      "type": "function"
    },
    {
      "inputs": [],
      "name": "transactionCount",
      "outputs": [
        {
          "internalType": "uint256",
          "name": "",
          "type": "uint256"
        }
      ],
      "stateMutability": "view",
      "type": "function"
    },
    {
      "inputs": [
        {
          "internalType": "uint256",
          "name": "",
          "type": "uint256"
        }
      ],
      "name": "transactions",
      "outputs": [
        {
          "internalType": "uint256",
          "name": "transactionId",
          "type": "uint256"
        },
        {
          "internalType": "address",
          "name": "iGamingCompany",
          "type": "address"
        },
        {
          "internalType": "bool",
          "name": "isGamingCompanySigned",
          "type": "bool"
        },
        {
          "internalType": "bool",
          "name": "approved",
          "type": "bool"
        },
        {
          "internalType": "bool",
          "name": "executed",
          "type": "bool"
        }
      ],
      "stateMutability": "view",
      "type": "function"
    },
    {
      "inputs": [
        {
          "internalType": "uint256[3]",
          "name": "amounts",
          "type": "uint256[3]"
        },
        {
          "internalType": "bool",
          "name": "burn",
          "type": "bool"
        }
      ],
      "name": "calcRptAmount",
      "outputs": [
        {
          "internalType": "uint256",
          "name": "",
          "type": "uint256"
        }
      ],
      "stateMutability": "view",
      "type": "function"
    },
    {
      "inputs": [
        {
          "internalType": "address",
          "name": "addr",
          "type": "address"
        },
        {
          "internalType": "uint256",
          "name": "coin",
          "type": "uint256"
        }
      ],
      "name": "availableWithdraw",
      "outputs": [
        {
          "internalType": "uint256",
          "name": "",
          "type": "uint256"
        }
      ],
      "stateMutability": "view",
      "type": "function"
    },
    {
      "inputs": [
        {
          "internalType": "uint256[3]",
          "name": "amounts",
          "type": "uint256[3]"
        }
      ],
      "name": "supply",
      "outputs": [],
      "stateMutability": "nonpayable",
      "type": "function"
    },
    {
      "inputs": [
        {
          "internalType": "uint256[3]",
          "name": "amounts",
          "type": "uint256[3]"
        }
      ],
      "name": "requestWithdraw",
      "outputs": [],
      "stateMutability": "nonpayable",
      "type": "function"
    },
    {
      "inputs": [
        {
          "internalType": "uint256[3]",
          "name": "amounts",
          "type": "uint256[3]"
        },
        {
          "internalType": "uint256",
          "name": "_loanID",
          "type": "uint256"
        }
      ],
      "name": "withdrawLoan",
      "outputs": [],
      "stateMutability": "nonpayable",
      "type": "function"
    },
    {
      "inputs": [
        {
          "internalType": "uint256[3]",
          "name": "_amounts",
          "type": "uint256[3]"
        },
        {
          "internalType": "uint256",
          "name": "_loanId",
          "type": "uint256"
        }
      ],
      "name": "repayLoan",
      "outputs": [],
      "stateMutability": "nonpayable",
      "type": "function"
    },
    {
      "inputs": [],
      "name": "deposit",
      "outputs": [],
      "stateMutability": "nonpayable",
      "type": "function"
    },
    {
      "inputs": [],
      "name": "withdraw",
      "outputs": [],
      "stateMutability": "nonpayable",
      "type": "function"
    },
    {
      "inputs": [
        {
          "internalType": "uint128",
          "name": "_newPoolPart",
          "type": "uint128"
        }
      ],
      "name": "changePoolPart",
      "outputs": [
        {
          "internalType": "bool",
          "name": "",
          "type": "bool"
        }
      ],
      "stateMutability": "nonpayable",
      "type": "function"
    },
    {
      "inputs": [
        {
          "internalType": "uint256",
          "name": "_newThreshold",
          "type": "uint256"
        }
      ],
      "name": "setThresholdTokenAmount",
      "outputs": [
        {
          "internalType": "bool",
          "name": "",
          "type": "bool"
        }
      ],
      "stateMutability": "nonpayable",
      "type": "function"
    },
    {
      "inputs": [],
      "name": "setInitialDeposit",
      "outputs": [
        {
          "internalType": "bool",
          "name": "",
          "type": "bool"
        }
      ],
      "stateMutability": "nonpayable",
      "type": "function"
    },
    {
      "inputs": [
        {
          "internalType": "contract IYieldOpt",
          "name": "_yldOpt",
          "type": "address"
        }
      ],
      "name": "setYieldOpt",
      "outputs": [
        {
          "internalType": "bool",
          "name": "",
          "type": "bool"
        }
      ],
      "stateMutability": "nonpayable",
      "type": "function"
    },
    {
      "inputs": [
        {
          "internalType": "uint128",
          "name": "lockperiod",
          "type": "uint128"
        }
      ],
      "name": "setLockPeriod",
      "outputs": [
        {
          "internalType": "bool",
          "name": "",
          "type": "bool"
        }
      ],
      "stateMutability": "nonpayable",
      "type": "function"
    },
    {
      "inputs": [
        {
          "internalType": "uint128",
          "name": "_fees",
          "type": "uint128"
        }
      ],
      "name": "setWithdrawFees",
      "outputs": [
        {
          "internalType": "bool",
          "name": "",
          "type": "bool"
        }
      ],
      "stateMutability": "nonpayable",
      "type": "function"
    }
  ],
  "bytecode": "0x60806040526001805560006002556019600460006101000a8154816fffffffffffffffffffffffffffffffff02191690836fffffffffffffffffffffffffffffffff160217905550605f600460106101000a8154816fffffffffffffffffffffffffffffffff02191690836fffffffffffffffffffffffffffffffff1602179055506101f460115560006021553480156200009957600080fd5b50604051620061e9380380620061e98339818101604052810190620000bf919062000274565b33600960006101000a81548173ffffffffffffffffffffffffffffffffffffffff021916908373ffffffffffffffffffffffffffffffffffffffff16021790555060005b60036fffffffffffffffffffffffffffffffff168160ff1610156200019557828160ff16600381106200013257fe5b6020020151600a8260ff16600381106200014857fe5b0160006101000a81548173ffffffffffffffffffffffffffffffffffffffff021916908373ffffffffffffffffffffffffffffffffffffffff160217905550808060010191505062000103565b5080600d60006101000a81548173ffffffffffffffffffffffffffffffffffffffff021916908373ffffffffffffffffffffffffffffffffffffffff160217905550505062000354565b600081519050620001f0816200033a565b92915050565b600082601f8301126200020857600080fd5b60036200021f6200021982620002e3565b620002b5565b915081838560208402820111156200023657600080fd5b60005b838110156200026a57816200024f8882620001df565b84526020840193506020830192505060018101905062000239565b5050505092915050565b600080608083850312156200028857600080fd5b60006200029885828601620001f6565b9250506060620002ab85828601620001df565b9150509250929050565b6000604051905081810181811067ffffffffffffffff82111715620002d957600080fd5b8060405250919050565b600067ffffffffffffffff821115620002fb57600080fd5b602082029050919050565b600062000313826200031a565b9050919050565b600073ffffffffffffffffffffffffffffffffffffffff82169050919050565b620003458162000306565b81146200035157600080fd5b50565b615e8580620003646000396000f3fe608060405234801561001057600080fd5b506004361061023d5760003560e01c80638da5cb5b1161013b578063b0580ce9116100b8578063d80a93d61161007c578063d80a93d614610716578063db28bfd014610746578063dc8452cd14610776578063f83e9a2014610794578063f84fd9ef146107b25761023d565b8063b0580ce914610684578063b77bf600146106a0578063b8b10680146106be578063c89eb036146106ee578063d0e30db01461070c5761023d565b80639b364162116100ff5780639b364162146105a85780639ff512fa146105c4578063a6d8fcb2146105f4578063a70200bd14610624578063ae8df6a6146106545761023d565b80638da5cb5b146104ea5780638e9b032614610508578063905f692e146105265780639ace38c2146105565780639af1d35a1461058a5761023d565b80633ccfd60b116101c957806362a945d11161018d57806362a945d11461040c578063698504241461043c5780636b9f1ef61461046c57806381f433f01461049c5780638af81478146104cc5761023d565b80633ccfd60b146103905780633d591bc21461039a57806347d4a6a8146103b657806352f6e238146103d25780635d9ec210146103f05761023d565b8063147453e911610210578063147453e9146102c65780631880432a146102f6578063277514e01461031457806331805a2b1461033057806332b72e0b146103605761023d565b80630385b5811461024257806304971367146102725780630d88122c1461028e5780630f8cdd88146102aa575b600080fd5b61025c600480360381019061025791906150a6565b6107e2565b604051610269919061599f565b60405180910390f35b61028c60048036038101906102879190615227565b610802565b005b6102a860048036038101906102a3919061510b565b6109d7565b005b6102c460048036038101906102bf91906150a6565b610ad7565b005b6102e060048036038101906102db9190615170565b610c26565b6040516102ed9190615b91565b60405180910390f35b6102fe610e7e565b60405161030b9190615b91565b60405180910390f35b61032e60048036038101906103299190615134565b610e83565b005b61034a60048036038101906103459190615227565b6113bc565b6040516103579190615b91565b60405180910390f35b61037a600480360381019061037591906151d5565b6113d4565b604051610387919061599f565b60405180910390f35b61039861147a565b005b6103b460048036038101906103af9190615134565b6115c1565b005b6103d060048036038101906103cb919061510b565b611978565b005b6103da612328565b6040516103e7919061599f565b60405180910390f35b61040a60048036038101906104059190615227565b6123a4565b005b6104266004803603810190610421919061510b565b6124cc565b6040516104339190615b91565b60405180910390f35b61045660048036038101906104519190615227565b61259a565b6040516104639190615b91565b60405180910390f35b610486600480360381019061048191906151fe565b6125b2565b604051610493919061599f565b60405180910390f35b6104b660048036038101906104b191906151fe565b612650565b6040516104c3919061599f565b60405180910390f35b6104d46126ee565b6040516104e19190615b91565b60405180910390f35b6104f26126fa565b6040516104ff919061581f565b60405180910390f35b610510612720565b60405161051d9190615b76565b60405180910390f35b610540600480360381019061053b91906150a6565b612742565b60405161054d919061599f565b60405180910390f35b610570600480360381019061056b9190615227565b612762565b604051610581959493929190615bac565b60405180910390f35b6105926127df565b60405161059f9190615b76565b60405180910390f35b6105c260048036038101906105bd91906150a6565b612801565b005b6105de60048036038101906105d99190615227565b612a89565b6040516105eb9190615b5a565b60405180910390f35b61060e600480360381019061060991906150cf565b612bf1565b60405161061b9190615b91565b60405180910390f35b61063e600480360381019061063991906151fe565b612dfc565b60405161064b919061599f565b60405180910390f35b61066e60048036038101906106699190615227565b612e9a565b60405161067b919061599f565b60405180910390f35b61069e60048036038101906106999190615227565b612ec7565b005b6106a8612fa3565b6040516106b59190615b91565b60405180910390f35b6106d860048036038101906106d39190615227565b612fa9565b6040516106e5919061599f565b60405180910390f35b6106f6613015565b6040516107039190615b91565b60405180910390f35b61071461301b565b005b610730600480360381019061072b9190615227565b6133ef565b60405161073d919061581f565b60405180910390f35b610760600480360381019061075b9190615227565b61342b565b60405161076d9190615b91565b60405180910390f35b61077e613443565b60405161078b9190615b91565b60405180910390f35b61079c613449565b6040516107a99190615b76565b60405180910390f35b6107cc60048036038101906107c791906150cf565b61346b565b6040516107d9919061599f565b60405180910390f35b601e6020528060005260406000206000915054906101000a900460ff1681565b33601e60008273ffffffffffffffffffffffffffffffffffffffff1673ffffffffffffffffffffffffffffffffffffffff16815260200190815260200160002060009054906101000a900460ff1661085957600080fd5b8160008111801561086c57506021548111155b61087557600080fd5b3383601c60008373ffffffffffffffffffffffffffffffffffffffff1673ffffffffffffffffffffffffffffffffffffffff168152602001908152602001600020600082815260200190815260200160002060009054906101000a900460ff16156108df57600080fd5b6001601c60003373ffffffffffffffffffffffffffffffffffffffff1673ffffffffffffffffffffffffffffffffffffffff168152602001908152602001600020600087815260200190815260200160002060006101000a81548160ff0219169083151502179055507f24e5bfa739656f6dd56210dbd8ccbfdabcae46f85752164562c69dffd61a320b3386604051610979929190615932565b60405180910390a161098a8561349a565b156109d057610998856135a8565b7f7d4061e68fab364906497bb959d95ad3f052a3978fed6ce9942a2b8f737aae54856040516109c79190615b91565b60405180910390a15b5050505050565b6000610a1b826003806020026040519081016040528092919082600360200280828437600081840152601f19601f8201169050808301925050505050506000610c26565b11610a5b576040517f08c379a0000000000000000000000000000000000000000000000000000000008152600401610a52906159ba565b60405180910390fd5b610a9b816003806020026040519081016040528092919082600360200280828437600081840152601f19601f8201169050808301925050505050506136b1565b7fe7f2330a99451f199f91ed2ac09887e25894cb0e14021fe5d29bc959e7283d0e3382604051610acc92919061588c565b60405180910390a150565b600960009054906101000a900473ffffffffffffffffffffffffffffffffffffffff1673ffffffffffffffffffffffffffffffffffffffff163373ffffffffffffffffffffffffffffffffffffffff1614610b3157600080fd5b6001601e60008373ffffffffffffffffffffffffffffffffffffffff1673ffffffffffffffffffffffffffffffffffffffff16815260200190815260200160002060006101000a81548160ff0219169083151502179055506020819080600181540180825580915050600190039060005260206000200160009091909190916101000a81548173ffffffffffffffffffffffffffffffffffffffff021916908373ffffffffffffffffffffffffffffffffffffffff1602179055507fa0aa61ae85a95577b5775982299a5bfc418ef90f41d6bb03a7f2d5a6f7738eaf81604051610c1b919061581f565b60405180910390a150565b600080600080600080610ce0600d60009054906101000a900473ffffffffffffffffffffffffffffffffffffffff1673ffffffffffffffffffffffffffffffffffffffff166318160ddd6040518163ffffffff1660e01b815260040160206040518083038186803b158015610c9a57600080fd5b505afa158015610cae573d6000803e3d6000fd5b505050506040513d601f19601f82011682018060405250810190610cd29190615250565b670de0b6b3a7640000613a17565b905060005b60036fffffffffffffffffffffffffffffffff168160ff161015610e0a57600a8160ff1660038110610d1357fe5b0160009054906101000a900473ffffffffffffffffffffffffffffffffffffffff1673ffffffffffffffffffffffffffffffffffffffff1663313ce5676040518163ffffffff1660e01b815260040160206040518083038186803b158015610d7a57600080fd5b505afa158015610d8e573d6000803e3d6000fd5b505050506040513d601f19601f82011682018060405250810190610db29190615279565b60ff169350610dd560058260ff1660038110610dca57fe5b015485600a0a613a17565b85019450610df9898260ff1660038110610deb57fe5b602002015185600a0a613a17565b830192508080600101915050610ce5565b50610e1e610e188386613a17565b82613b37565b9450600115158715151415610e7057612710600460009054906101000a90046fffffffffffffffffffffffffffffffff166fffffffffffffffffffffffffffffffff16860281610e6a57fe5b04850194505b849550505050505092915050565b603281565b3373ffffffffffffffffffffffffffffffffffffffff16601b600083815260200190815260200160002060010160009054906101000a900473ffffffffffffffffffffffffffffffffffffffff1673ffffffffffffffffffffffffffffffffffffffff1614610f27576040517f08c379a0000000000000000000000000000000000000000000000000000000008152600401610f1e90615a5a565b60405180910390fd5b601b600082815260200190815260200160002060080160009054906101000a900460ff16610f8a576040517f08c379a0000000000000000000000000000000000000000000000000000000008152600401610f8190615b3a565b60405180910390fd5b60005b60036fffffffffffffffffffffffffffffffff168160ff16101561103357828160ff1660038110610fba57fe5b6020020135601b60008481526020019081526020016000206005018260ff1660038110610fe357fe5b01541015611026576040517f08c379a000000000000000000000000000000000000000000000000000000000815260040161101d90615b3a565b60405180910390fd5b8080600101915050610f8d565b50611074826003806020026040519081016040528092919082600360200280828437600081840152601f19601f820116905080830192505050505050613c13565b6000805b60036fffffffffffffffffffffffffffffffff168160ff16101561120f576000848260ff16600381106110a757fe5b602002013511156111cb57600a8160ff16600381106110c257fe5b0160009054906101000a900473ffffffffffffffffffffffffffffffffffffffff1673ffffffffffffffffffffffffffffffffffffffff1663a9059cbb33868460ff166003811061110f57fe5b60200201356040518363ffffffff1660e01b8152600401611131929190615932565b602060405180830381600087803b15801561114b57600080fd5b505af115801561115f573d6000803e3d6000fd5b505050506040513d601f19601f8201168201806040525081019061118391906151ac565b50838160ff166003811061119357fe5b6020020135601b60008581526020019081526020016000206005018260ff16600381106111bc57fe5b01600082825403925050819055505b6000601b60008581526020019081526020016000206005018260ff16600381106111f157fe5b015414156112025781806001019250505b8080600101915050611078565b507f3fe87a796bb63522ae7b9008d51ff617ee24dbde9a0fac8ed85e5a29e78175563384601b60008681526020019081526020016000206005018560405161125a94939291906158b5565b60405180910390a160038160ff1614156113b7576001601b600084815260200190815260200160002060080160016101000a81548160ff0219169083151502179055506040518060600160405280838152602001600015158152602001601b6000858152602001908152602001600020600201600380602002604051908101604052809291908260038015611304576020028201915b8154815260200190600101908083116112f0575b5050505050815250601d60008481526020019081526020016000206000820151816000015560208201518160010160006101000a81548160ff021916908315150217905550604082015181600201906003611360929190614d2e565b509050507fc3fd3a068edf38e1a0ccd0f7e52aea669eb60f90dbb25026798e25db56f3a6f33384601b6000868152602001908152602001600020600201856040516113ae94939291906158b5565b60405180910390a15b505050565b600e81600381106113c957fe5b016000915090505481565b6000600960009054906101000a900473ffffffffffffffffffffffffffffffffffffffff1673ffffffffffffffffffffffffffffffffffffffff163373ffffffffffffffffffffffffffffffffffffffff161461143057600080fd5b81600860006101000a81548173ffffffffffffffffffffffffffffffffffffffff021916908373ffffffffffffffffffffffffffffffffffffffff16021790555060019050919050565b600960009054906101000a900473ffffffffffffffffffffffffffffffffffffffff1673ffffffffffffffffffffffffffffffffffffffff163373ffffffffffffffffffffffffffffffffffffffff16146114d457600080fd5b6000805b60036fffffffffffffffffffffffffffffffff168160ff16101561152957600060188260ff166003811061150857fe5b01541461151c578180600101925050611529565b80806001019150506114d8565b5060008160ff1611611570576040517f08c379a0000000000000000000000000000000000000000000000000000000008152600401611567906159da565b60405180910390fd5b6115b660186003806020026040519081016040528092919082600380156115ac576020028201915b815481526020019060010190808311611598575b5050505050613c13565b6115be613d04565b50565b602154811115611606576040517f08c379a00000000000000000000000000000000000000000000000000000000081526004016115fd90615a1a565b60405180910390fd5b3373ffffffffffffffffffffffffffffffffffffffff16601b600083815260200190815260200160002060010160009054906101000a900473ffffffffffffffffffffffffffffffffffffffff1673ffffffffffffffffffffffffffffffffffffffff16146116aa576040517f08c379a00000000000000000000000000000000000000000000000000000000081526004016116a190615a3a565b60405180910390fd5b601d600082815260200190815260200160002060010160009054906101000a900460ff161561170e576040517f08c379a000000000000000000000000000000000000000000000000000000000815260040161170590615aba565b60405180910390fd5b6000805b60036fffffffffffffffffffffffffffffffff1681101561189557600084826003811061173b57fe5b60200201351461188857600a816003811061175257fe5b0160009054906101000a900473ffffffffffffffffffffffffffffffffffffffff1673ffffffffffffffffffffffffffffffffffffffff166323b872dd333087856003811061179d57fe5b60200201356040518463ffffffff1660e01b81526004016117c093929190615855565b602060405180830381600087803b1580156117da57600080fd5b505af11580156117ee573d6000803e3d6000fd5b505050506040513d601f19601f8201168201806040525081019061181291906151ac565b5083816003811061181f57fe5b6020020135601d6000858152602001908152602001600020600201826003811061184557fe5b01600082825403925050819055506000601d6000858152602001908152602001600020600201826003811061187657fe5b015414156118875781806001019250505b5b8080600101915050611712565b507ffe337a99fc07b4422a06a40fb4728125523f3c0977d012d21e3eb9f89edfd3603384601d6000868152602001908152602001600020600201856040516118e094939291906158b5565b60405180910390a16003811415611973576001601d600084815260200190815260200160002060010160006101000a81548160ff0219169083151502179055507f57d01a01ec1287fb00888c92856cb0f45352809b7a5350fdd677ce76f78262993384601d60008681526020019081526020016000206002018560405161196a94939291906158b5565b60405180910390a15b505050565b60006119bc826003806020026040519081016040528092919082600360200280828437600081840152601f19601f8201169050808301925050505050506000610c26565b116119fc576040517f08c379a00000000000000000000000000000000000000000000000000000000081526004016119f3906159ba565b60405180910390fd5b6000611a40826003806020026040519081016040528092919082600360200280828437600081840152601f19601f8201169050808301925050505050506001610c26565b905080600d60009054906101000a900473ffffffffffffffffffffffffffffffffffffffff1673ffffffffffffffffffffffffffffffffffffffff166370a08231336040518263ffffffff1660e01b8152600401611a9e919061583a565b60206040518083038186803b158015611ab657600080fd5b505afa158015611aca573d6000803e3d6000fd5b505050506040513d601f19601f82011682018060405250810190611aee9190615250565b1015611b2f576040517f08c379a0000000000000000000000000000000000000000000000000000000008152600401611b2690615b1a565b60405180910390fd5b611b37614d6e565b611b3f613d56565b9050600060019050600080600090505b60036fffffffffffffffffffffffffffffffff168160ff161015611bc3576000868260ff1660038110611b7e57fe5b60200201351115611bb657858160ff1660038110611b9857fe5b6020020135611baa338360ff16612bf1565b1015611bb557600092505b5b8080600101915050611b4f565b5081611c04576040517f08c379a0000000000000000000000000000000000000000000000000000000008152600401611bfb906159fa565b60405180910390fd5b60005b60036fffffffffffffffffffffffffffffffff168160ff161015611c8557838160ff1660038110611c3457fe5b6020020151868260ff1660038110611c4857fe5b6020020135108015611c6e57506000868260ff1660038110611c6657fe5b602002013514155b15611c7857600191505b8080600101915050611c07565b5080156122a757600d60009054906101000a900473ffffffffffffffffffffffffffffffffffffffff1673ffffffffffffffffffffffffffffffffffffffff16639dc29fac33866040518363ffffffff1660e01b8152600401611ce9929190615932565b600060405180830381600087803b158015611d0357600080fd5b505af1158015611d17573d6000803e3d6000fd5b50505050600080600090505b60036fffffffffffffffffffffffffffffffff168160ff161015612267576000878260ff1660038110611d5257fe5b6020020135111561225a57600a8160ff1660038110611d6d57fe5b0160009054906101000a900473ffffffffffffffffffffffffffffffffffffffff1673ffffffffffffffffffffffffffffffffffffffff1663a9059cbb33898460ff1660038110611dba57fe5b60200201356040518363ffffffff1660e01b8152600401611ddc929190615932565b602060405180830381600087803b158015611df657600080fd5b505af1158015611e0a573d6000803e3d6000fd5b505050506040513d601f19601f82011682018060405250810190611e2e91906151ac565b915081611e3a57600080fd5b868160ff1660038110611e4957fe5b6020020135601360003373ffffffffffffffffffffffffffffffffffffffff1673ffffffffffffffffffffffffffffffffffffffff1681526020019081526020016000208260ff1660038110611e9b57fe5b0160008282540392505081905550868160ff1660038110611eb857fe5b602002013560058260ff1660038110611ecd57fe5b01600082825403925050819055506000878260ff1660038110611eec57fe5b6020020135905060005b601460003373ffffffffffffffffffffffffffffffffffffffff1673ffffffffffffffffffffffffffffffffffffffff168152602001908152602001600020805490508160ff1610156122575760011515601460003373ffffffffffffffffffffffffffffffffffffffff1673ffffffffffffffffffffffffffffffffffffffff1681526020019081526020016000208260ff1681548110611f9457fe5b90600052602060002090600802016007018460ff1660038110611fb357fe5b602091828204019190069054906101000a900460ff16151514158015611fd95750600082115b1561224a57601460003373ffffffffffffffffffffffffffffffffffffffff1673ffffffffffffffffffffffffffffffffffffffff1681526020019081526020016000208160ff168154811061202b57fe5b90600052602060002090600802016003018360ff166003811061204a57fe5b015482106121c957601460003373ffffffffffffffffffffffffffffffffffffffff1673ffffffffffffffffffffffffffffffffffffffff1681526020019081526020016000208160ff168154811061209f57fe5b90600052602060002090600802016003018360ff16600381106120be57fe5b0154820391506000601460003373ffffffffffffffffffffffffffffffffffffffff1673ffffffffffffffffffffffffffffffffffffffff1681526020019081526020016000208260ff168154811061211357fe5b90600052602060002090600802016003018460ff166003811061213257fe5b01819055506001601460003373ffffffffffffffffffffffffffffffffffffffff1673ffffffffffffffffffffffffffffffffffffffff1681526020019081526020016000208260ff168154811061218657fe5b90600052602060002090600802016007018460ff16600381106121a557fe5b602091828204019190066101000a81548160ff021916908315150217905550612249565b81601460003373ffffffffffffffffffffffffffffffffffffffff1673ffffffffffffffffffffffffffffffffffffffff1681526020019081526020016000208260ff168154811061221757fe5b90600052602060002090600802016003018460ff166003811061223657fe5b0160008282540392505081905550600091505b5b8080600101915050611ef6565b50505b8080600101915050611d23565b507fe9c01f7dea3ef08b44263b3cf5963eb42309e5fb5bec9305dbe12b82f37b519c338760405161229992919061588c565b60405180910390a150612321565b6122e7856003806020026040519081016040528092919082600360200280828437600081840152601f19601f820116905080830192505050505050613e6e565b7fe2d5e24e56e4f05473adb8bb616473de3894beab8011d32382a638d1d2617c93338660405161231892919061588c565b60405180910390a15b5050505050565b6000600960009054906101000a900473ffffffffffffffffffffffffffffffffffffffff1673ffffffffffffffffffffffffffffffffffffffff163373ffffffffffffffffffffffffffffffffffffffff161461238457600080fd5b61238c613d56565b600590600361239c929190614d2e565b506001905090565b3373ffffffffffffffffffffffffffffffffffffffff16601b600083815260200190815260200160002060010160009054906101000a900473ffffffffffffffffffffffffffffffffffffffff1673ffffffffffffffffffffffffffffffffffffffff161461241257600080fd5b6001601b600083815260200190815260200160002060010160146101000a81548160ff0219169083151502179055507f24e5bfa739656f6dd56210dbd8ccbfdabcae46f85752164562c69dffd61a320b3382604051612472929190615932565b60405180910390a16124838161349a565b156124c957612491816135a8565b7f7d4061e68fab364906497bb959d95ad3f052a3978fed6ce9942a2b8f737aae54816040516124c09190615b91565b60405180910390a15b50565b60006022546020805490501015612518576040517f08c379a000000000000000000000000000000000000000000000000000000000815260040161250f90615a7a565b60405180910390fd5b612558826003806020026040519081016040528092919082600360200280828437600081840152601f19601f82011690508083019250505050505061403d565b7f6825b4653b0626e0268f9c124dce0ea5cc6f826ccb2cf314459bd1c62cf011f7338360215460405161258d939291906158fb565b60405180910390a1919050565b600581600381106125a757fe5b016000915090505481565b6000600960009054906101000a900473ffffffffffffffffffffffffffffffffffffffff1673ffffffffffffffffffffffffffffffffffffffff163373ffffffffffffffffffffffffffffffffffffffff161461260e57600080fd5b81600460006101000a8154816fffffffffffffffffffffffffffffffff02191690836fffffffffffffffffffffffffffffffff16021790555060019050919050565b6000600960009054906101000a900473ffffffffffffffffffffffffffffffffffffffff1673ffffffffffffffffffffffffffffffffffffffff163373ffffffffffffffffffffffffffffffffffffffff16146126ac57600080fd5b81601260006101000a8154816fffffffffffffffffffffffffffffffff02191690836fffffffffffffffffffffffffffffffff16021790555060019050919050565b670de0b6b3a764000081565b600960009054906101000a900473ffffffffffffffffffffffffffffffffffffffff1681565b600460109054906101000a90046fffffffffffffffffffffffffffffffff1681565b60166020528060005260406000206000915054906101000a900460ff1681565b601b6020528060005260406000206000915090508060000154908060010160009054906101000a900473ffffffffffffffffffffffffffffffffffffffff16908060010160149054906101000a900460ff16908060080160009054906101000a900460ff16908060080160019054906101000a900460ff16905085565b600460009054906101000a90046fffffffffffffffffffffffffffffffff1681565b600960009054906101000a900473ffffffffffffffffffffffffffffffffffffffff1673ffffffffffffffffffffffffffffffffffffffff163373ffffffffffffffffffffffffffffffffffffffff161461285b57600080fd5b80601e60008273ffffffffffffffffffffffffffffffffffffffff1673ffffffffffffffffffffffffffffffffffffffff16815260200190815260200160002060009054906101000a900460ff166128b257600080fd5b6000601e60008473ffffffffffffffffffffffffffffffffffffffff1673ffffffffffffffffffffffffffffffffffffffff16815260200190815260200160002060006101000a81548160ff02191690831515021790555060005b600160208054905003811015612a2f578273ffffffffffffffffffffffffffffffffffffffff166020828154811061294157fe5b9060005260206000200160009054906101000a900473ffffffffffffffffffffffffffffffffffffffff1673ffffffffffffffffffffffffffffffffffffffff161415612a225760206001602080549050038154811061299d57fe5b9060005260206000200160009054906101000a900473ffffffffffffffffffffffffffffffffffffffff16602082815481106129d557fe5b9060005260206000200160006101000a81548173ffffffffffffffffffffffffffffffffffffffff021916908373ffffffffffffffffffffffffffffffffffffffff160217905550612a2f565b808060010191505061290d565b506020805490506022541115612a4e57612a4d602080549050612ec7565b5b7f95cd0920c0aa5e5da987ebe563a4f26fc5143a4c65e89cc8b1b3a23e2d7fa5ff82604051612a7d919061581f565b60405180910390a15050565b612a91614d90565b601b60008381526020019081526020016000206040518060e0016040529081600082015481526020016001820160009054906101000a900473ffffffffffffffffffffffffffffffffffffffff1673ffffffffffffffffffffffffffffffffffffffff1673ffffffffffffffffffffffffffffffffffffffff1681526020016001820160149054906101000a900460ff1615151515815260200160028201600380602002604051908101604052809291908260038015612b66576020028201915b815481526020019060010190808311612b52575b5050505050815260200160058201600380602002604051908101604052809291908260038015612bab576020028201915b815481526020019060010190808311612b97575b505050505081526020016008820160009054906101000a900460ff161515151581526020016008820160019054906101000a900460ff1615151515815250509050919050565b6000806000905060005b601460008673ffffffffffffffffffffffffffffffffffffffff1673ffffffffffffffffffffffffffffffffffffffff168152602001908152602001600020805490508160ff161015612df157601260009054906101000a90046fffffffffffffffffffffffffffffffff1662015180026fffffffffffffffffffffffffffffffff16601460008773ffffffffffffffffffffffffffffffffffffffff1673ffffffffffffffffffffffffffffffffffffffff1681526020019081526020016000208260ff1681548110612ccb57fe5b9060005260206000209060080201600601544203118015612d6f575060011515601460008773ffffffffffffffffffffffffffffffffffffffff1673ffffffffffffffffffffffffffffffffffffffff1681526020019081526020016000208260ff1681548110612d3857fe5b90600052602060002090600802016007018560038110612d5457fe5b602091828204019190069054906101000a900460ff16151514155b15612de457601460008673ffffffffffffffffffffffffffffffffffffffff1673ffffffffffffffffffffffffffffffffffffffff1681526020019081526020016000208160ff1681548110612dc157fe5b90600052602060002090600802016003018460038110612ddd57fe5b0154820191505b8080600101915050612bfb565b508091505092915050565b6000600960009054906101000a900473ffffffffffffffffffffffffffffffffffffffff1673ffffffffffffffffffffffffffffffffffffffff163373ffffffffffffffffffffffffffffffffffffffff1614612e5857600080fd5b81600460106101000a8154816fffffffffffffffffffffffffffffffff02191690836fffffffffffffffffffffffffffffffff16021790555060019050919050565b6000601b600083815260200190815260200160002060080160009054906101000a900460ff169050919050565b600960009054906101000a900473ffffffffffffffffffffffffffffffffffffffff1673ffffffffffffffffffffffffffffffffffffffff163373ffffffffffffffffffffffffffffffffffffffff1614612f2157600080fd5b6020805490508160328211158015612f395750818111155b8015612f46575060008114155b8015612f53575060008214155b612f5c57600080fd5b826022819055507f3eeb9a927605685a0c44838616e4c196655b47d4019656c814bbf5743d1e25cc33602254604051612f96929190615932565b60405180910390a1505050565b60215481565b6000600960009054906101000a900473ffffffffffffffffffffffffffffffffffffffff1673ffffffffffffffffffffffffffffffffffffffff163373ffffffffffffffffffffffffffffffffffffffff161461300557600080fd5b8160118190555060019050919050565b60115481565b600960009054906101000a900473ffffffffffffffffffffffffffffffffffffffff1673ffffffffffffffffffffffffffffffffffffffff163373ffffffffffffffffffffffffffffffffffffffff161461307557600080fd5b61307d614d6e565b613085613d56565b9050600080600090505b60036fffffffffffffffffffffffffffffffff168160ff16101561337b57600a8160ff16600381106130bd57fe5b0160009054906101000a900473ffffffffffffffffffffffffffffffffffffffff1673ffffffffffffffffffffffffffffffffffffffff1663313ce5676040518163ffffffff1660e01b815260040160206040518083038186803b15801561312457600080fd5b505afa158015613138573d6000803e3d6000fd5b505050506040513d601f19601f8201168201806040525081019061315c9190615279565b60ff16915081600a0a60115402838260ff166003811061317857fe5b6020020151111561335357600e8160ff166003811061319357fe5b0154838260ff16600381106131a457fe5b6020020181815101915081815250506064600460109054906101000a90046fffffffffffffffffffffffffffffffff166fffffffffffffffffffffffffffffffff16848360ff16600381106131f557fe5b6020020151028161320257fe5b04838260ff166003811061321257fe5b602002018181525050600e8160ff166003811061322b57fe5b0154838260ff166003811061323c57fe5b602002015103838260ff166003811061325157fe5b602002018181525050600a8160ff166003811061326a57fe5b0160009054906101000a900473ffffffffffffffffffffffffffffffffffffffff1673ffffffffffffffffffffffffffffffffffffffff1663a9059cbb600860009054906101000a900473ffffffffffffffffffffffffffffffffffffffff16858460ff16600381106132d957fe5b60200201516040518363ffffffff1660e01b81526004016132fb92919061595b565b602060405180830381600087803b15801561331557600080fd5b505af1158015613329573d6000803e3d6000fd5b505050506040513d601f19601f8201168201806040525081019061334d91906151ac565b5061336e565b6000838260ff166003811061336457fe5b6020020181815250505b808060010191505061308f565b506000805b60036fffffffffffffffffffffffffffffffff168160ff1610156133d3576000848260ff16600381106133af57fe5b6020020151146133c65781806001019250506133d3565b8080600101915050613380565b5060008160ff1611156133ea576133e9836141a8565b5b505050565b602081815481106133fc57fe5b906000526020600020016000915054906101000a900473ffffffffffffffffffffffffffffffffffffffff1681565b6018816003811061343857fe5b016000915090505481565b60225481565b601260009054906101000a90046fffffffffffffffffffffffffffffffff1681565b601c6020528160005260406000206020528060005260406000206000915091509054906101000a900460ff1681565b6000806000905060005b6020805490508110156135a057601c6000602083815481106134c257fe5b9060005260206000200160009054906101000a900473ffffffffffffffffffffffffffffffffffffffff1673ffffffffffffffffffffffffffffffffffffffff1673ffffffffffffffffffffffffffffffffffffffff168152602001908152602001600020600085815260200190815260200160002060009054906101000a900460ff1615613552576001820191505b602254821480156135835750601b600085815260200190815260200160002060010160149054906101000a900460ff165b15613593576001925050506135a3565b80806001019150506134a4565b50505b919050565b6001601b600083815260200190815260200160002060080160006101000a81548160ff021916908315150217905550601b6000828152602001908152602001600020600201601b6000838152602001908152602001600020600501906003613611929190614df5565b50601f6000601b600084815260200190815260200160002060010160009054906101000a900473ffffffffffffffffffffffffffffffffffffffff1673ffffffffffffffffffffffffffffffffffffffff1673ffffffffffffffffffffffffffffffffffffffff16815260200190815260200160002081908060018154018082558091505060019003906000526020600020016000909190919091505550565b60006136be826000610c26565b9050600080600090505b60036fffffffffffffffffffffffffffffffff168160ff161015613890576000848260ff16600381106136f757fe5b6020020151111561388357600a8160ff166003811061371257fe5b0160009054906101000a900473ffffffffffffffffffffffffffffffffffffffff1673ffffffffffffffffffffffffffffffffffffffff166323b872dd3330878560ff166003811061376057fe5b60200201516040518463ffffffff1660e01b815260040161378393929190615855565b602060405180830381600087803b15801561379d57600080fd5b505af11580156137b1573d6000803e3d6000fd5b505050506040513d601f19601f820116820180604052508101906137d591906151ac565b9150816137e157600080fd5b838160ff16600381106137f057fe5b602002015160058260ff166003811061380557fe5b0160008282540192505081905550838160ff166003811061382257fe5b6020020151601360003373ffffffffffffffffffffffffffffffffffffffff1673ffffffffffffffffffffffffffffffffffffffff1681526020019081526020016000208260ff166003811061387457fe5b01600082825401925050819055505b80806001019150506136c8565b50600d60009054906101000a900473ffffffffffffffffffffffffffffffffffffffff1673ffffffffffffffffffffffffffffffffffffffff166340c10f1933846040518363ffffffff1660e01b81526004016138ee929190615932565b600060405180830381600087803b15801561390857600080fd5b505af115801561391c573d6000803e3d6000fd5b50505050613928614e32565b613930614e54565b6040518060800160405280868152602001868152602001428152602001838152509050601460003373ffffffffffffffffffffffffffffffffffffffff1673ffffffffffffffffffffffffffffffffffffffff1681526020019081526020016000208190806001815401808255809150506001900390600052602060002090600802016000909190919091506000820151816000019060036139d3929190614d2e565b506020820151816003019060036139eb929190614d2e565b5060408201518160060155606082015181600701906003613a0d929190614e8e565b5050505050505050565b600080821415613a5c576040517f08c379a0000000000000000000000000000000000000000000000000000000008152600401613a5390615afa565b60405180910390fd5b6000670de0b6b3a7640000840290506000841480613a8a5750670de0b6b3a7640000848281613a8757fe5b04145b613ac9576040517f08c379a0000000000000000000000000000000000000000000000000000000008152600401613ac090615a9a565b60405180910390fd5b600060028481613ad557fe5b048201905081811015613b1d576040517f08c379a0000000000000000000000000000000000000000000000000000000008152600401613b1490615a9a565b60405180910390fd5b6000848281613b2857fe5b04905080935050505092915050565b60008082840290506000841480613b56575082848281613b5357fe5b04145b613b95576040517f08c379a0000000000000000000000000000000000000000000000000000000008152600401613b8c90615ada565b60405180910390fd5b60006002670de0b6b3a764000081613ba957fe5b048201905081811015613bf1576040517f08c379a0000000000000000000000000000000000000000000000000000000008152600401613be890615ada565b60405180910390fd5b6000670de0b6b3a76400008281613c0457fe5b04905080935050505092915050565b600860009054906101000a900473ffffffffffffffffffffffffffffffffffffffff1673ffffffffffffffffffffffffffffffffffffffff1663b1b8f1be826040518263ffffffff1660e01b8152600401613c6e9190615984565b600060405180830381600087803b158015613c8857600080fd5b505af1158015613c9c573d6000803e3d6000fd5b5050505060005b60036fffffffffffffffffffffffffffffffff168160ff161015613d0057818160ff1660038110613cd057fe5b6020020151600e8260ff1660038110613ce557fe5b01600082825403925050819055508080600101915050613ca3565b5050565b6000601760009054906101000a900463ffffffff16905060005b8163ffffffff168160ff161015613d52576000613d39614299565b9050613d4481614390565b508080600101915050613d1e565b5050565b613d5e614d6e565b613d66614d6e565b60005b60036fffffffffffffffffffffffffffffffff168160ff161015613e6657600a8160ff1660038110613d9757fe5b0160009054906101000a900473ffffffffffffffffffffffffffffffffffffffff1673ffffffffffffffffffffffffffffffffffffffff166370a08231306040518263ffffffff1660e01b8152600401613df1919061581f565b60206040518083038186803b158015613e0957600080fd5b505afa158015613e1d573d6000803e3d6000fd5b505050506040513d601f19601f82011682018060405250810190613e419190615250565b828260ff1660038110613e5057fe5b6020020181815250508080600101915050613d69565b508091505090565b60005b60036fffffffffffffffffffffffffffffffff16811015613f48576000828260038110613e9a57fe5b60200201511115613f3b57818160038110613eb157fe5b6020020151601560003373ffffffffffffffffffffffffffffffffffffffff1673ffffffffffffffffffffffffffffffffffffffff1681526020019081526020016000208260038110613f0057fe5b0160008282540192505081905550818160038110613f1a57fe5b602002015160188260038110613f2c57fe5b01600082825401925050819055505b8080600101915050613e71565b5060011515601660003373ffffffffffffffffffffffffffffffffffffffff1673ffffffffffffffffffffffffffffffffffffffff16815260200190815260200160002060009054906101000a900460ff1615151461403a576001601760008282829054906101000a900463ffffffff160192506101000a81548163ffffffff021916908363ffffffff1602179055506001601660003373ffffffffffffffffffffffffffffffffffffffff1673ffffffffffffffffffffffffffffffffffffffff16815260200190815260200160002060006101000a81548160ff02191690831515021790555061403933614cc7565b5b50565b614045614d6e565b6021600081548092919060010191905055506040518060e0016040528060215481526020013373ffffffffffffffffffffffffffffffffffffffff16815260200160001515815260200183815260200182815260200160001515815260200160001515815250601b600060215481526020019081526020016000206000820151816000015560208201518160010160006101000a81548173ffffffffffffffffffffffffffffffffffffffff021916908373ffffffffffffffffffffffffffffffffffffffff16021790555060408201518160010160146101000a81548160ff021916908315150217905550606082015181600201906003614148929190614d2e565b50608082015181600501906003614160929190614d2e565b5060a08201518160080160006101000a81548160ff02191690831515021790555060c08201518160080160016101000a81548160ff0219169083151502179055509050505050565b600860009054906101000a900473ffffffffffffffffffffffffffffffffffffffff1673ffffffffffffffffffffffffffffffffffffffff1663d4e20b01826040518263ffffffff1660e01b81526004016142039190615984565b600060405180830381600087803b15801561421d57600080fd5b505af1158015614231573d6000803e3d6000fd5b5050505060005b60036fffffffffffffffffffffffffffffffff168160ff16101561429557818160ff166003811061426557fe5b6020020151600e8260ff166003811061427a57fe5b01600082825401925050819055508080600101915050614238565b5050565b600060015460025410156142ac57600080fd5b600080600154815260200190815260200160002060009054906101000a900473ffffffffffffffffffffffffffffffffffffffff16600360006101000a81548173ffffffffffffffffffffffffffffffffffffffff021916908373ffffffffffffffffffffffffffffffffffffffff160217905550600080600154815260200190815260200160002060006101000a81549073ffffffffffffffffffffffffffffffffffffffff021916905560018060008282540192505081905550600360009054906101000a900473ffffffffffffffffffffffffffffffffffffffff16905090565b600080614418601560008573ffffffffffffffffffffffffffffffffffffffff1673ffffffffffffffffffffffffffffffffffffffff16815260200190815260200160002060038060200260405190810160405280929190826003801561440c576020028201915b8154815260200190600101908083116143f8575b50505050506001610c26565b9050600d60009054906101000a900473ffffffffffffffffffffffffffffffffffffffff1673ffffffffffffffffffffffffffffffffffffffff16639dc29fac84836040518363ffffffff1660e01b815260040161447792919061595b565b600060405180830381600087803b15801561449157600080fd5b505af11580156144a5573d6000803e3d6000fd5b5050505060005b60036fffffffffffffffffffffffffffffffff168160ff161015614cc1576000601560008673ffffffffffffffffffffffffffffffffffffffff1673ffffffffffffffffffffffffffffffffffffffff1681526020019081526020016000208260ff166003811061451957fe5b015411801561457657506000601360008673ffffffffffffffffffffffffffffffffffffffff1673ffffffffffffffffffffffffffffffffffffffff1681526020019081526020016000208260ff166003811061457257fe5b0154115b15614cb457600a8160ff166003811061458b57fe5b0160009054906101000a900473ffffffffffffffffffffffffffffffffffffffff1673ffffffffffffffffffffffffffffffffffffffff1663a9059cbb85601560008873ffffffffffffffffffffffffffffffffffffffff1673ffffffffffffffffffffffffffffffffffffffff1681526020019081526020016000208460ff166003811061461657fe5b01546040518363ffffffff1660e01b815260040161463592919061595b565b602060405180830381600087803b15801561464f57600080fd5b505af1158015614663573d6000803e3d6000fd5b505050506040513d601f19601f8201168201806040525081019061468791906151ac565b92508261469357600080fd5b601560008573ffffffffffffffffffffffffffffffffffffffff1673ffffffffffffffffffffffffffffffffffffffff1681526020019081526020016000208160ff16600381106146e057fe5b0154601360008673ffffffffffffffffffffffffffffffffffffffff1673ffffffffffffffffffffffffffffffffffffffff1681526020019081526020016000208260ff166003811061472f57fe5b0160008282540392505081905550601560008573ffffffffffffffffffffffffffffffffffffffff1673ffffffffffffffffffffffffffffffffffffffff1681526020019081526020016000208160ff166003811061478a57fe5b015460188260ff166003811061479c57fe5b0160008282540392505081905550601560008573ffffffffffffffffffffffffffffffffffffffff1673ffffffffffffffffffffffffffffffffffffffff1681526020019081526020016000208160ff16600381106147f757fe5b015460058260ff166003811061480957fe5b01600082825403925050819055506000601560008673ffffffffffffffffffffffffffffffffffffffff1673ffffffffffffffffffffffffffffffffffffffff1681526020019081526020016000208260ff166003811061486657fe5b0154905060005b601460008773ffffffffffffffffffffffffffffffffffffffff1673ffffffffffffffffffffffffffffffffffffffff168152602001908152602001600020805490508160ff161015614bce5760011515601460008873ffffffffffffffffffffffffffffffffffffffff1673ffffffffffffffffffffffffffffffffffffffff1681526020019081526020016000208260ff168154811061490b57fe5b90600052602060002090600802016007018460ff166003811061492a57fe5b602091828204019190069054906101000a900460ff161515141580156149505750600082115b15614bc157601460008773ffffffffffffffffffffffffffffffffffffffff1673ffffffffffffffffffffffffffffffffffffffff1681526020019081526020016000208160ff16815481106149a257fe5b90600052602060002090600802016003018360ff16600381106149c157fe5b01548210614b4057601460008773ffffffffffffffffffffffffffffffffffffffff1673ffffffffffffffffffffffffffffffffffffffff1681526020019081526020016000208160ff1681548110614a1657fe5b90600052602060002090600802016003018360ff1660038110614a3557fe5b0154820391506000601460008873ffffffffffffffffffffffffffffffffffffffff1673ffffffffffffffffffffffffffffffffffffffff1681526020019081526020016000208260ff1681548110614a8a57fe5b90600052602060002090600802016003018460ff1660038110614aa957fe5b01819055506001601460008873ffffffffffffffffffffffffffffffffffffffff1673ffffffffffffffffffffffffffffffffffffffff1681526020019081526020016000208260ff1681548110614afd57fe5b90600052602060002090600802016007018460ff1660038110614b1c57fe5b602091828204019190066101000a81548160ff021916908315150217905550614bc0565b81601460008873ffffffffffffffffffffffffffffffffffffffff1673ffffffffffffffffffffffffffffffffffffffff1681526020019081526020016000208260ff1681548110614b8e57fe5b90600052602060002090600802016003018460ff1660038110614bad57fe5b0160008282540392505081905550600091505b5b808060010191505061486d565b506000601560008773ffffffffffffffffffffffffffffffffffffffff1673ffffffffffffffffffffffffffffffffffffffff1681526020019081526020016000208360ff1660038110614c1e57fe5b01819055506000601660008773ffffffffffffffffffffffffffffffffffffffff1673ffffffffffffffffffffffffffffffffffffffff16815260200190815260200160002060006101000a81548160ff0219169083151502179055506001601760008282829054906101000a900463ffffffff160392506101000a81548163ffffffff021916908363ffffffff160217905550505b80806001019150506144ac565b50505050565b600160026000828254019250508190555080600080600254815260200190815260200160002060006101000a81548173ffffffffffffffffffffffffffffffffffffffff021916908373ffffffffffffffffffffffffffffffffffffffff16021790555050565b8260038101928215614d5d579160200282015b82811115614d5c578251825591602001919060010190614d41565b5b509050614d6a9190614f27565b5090565b6040518060600160405280600390602082028036833780820191505090505090565b6040518060e0016040528060008152602001600073ffffffffffffffffffffffffffffffffffffffff168152602001600015158152602001614dd0614d6e565b8152602001614ddd614d6e565b81526020016000151581526020016000151581525090565b8260038101928215614e21579182015b82811115614e20578254825591600101919060010190614e05565b5b509050614e2e9190614f27565b5090565b6040518060600160405280600390602082028036833780820191505090505090565b6040518060800160405280614e67614d6e565b8152602001614e74614d6e565b815260200160008152602001614e88614e32565b81525090565b826003601f01602090048101928215614f165791602002820160005b83821115614ee757835183826101000a81548160ff0219169083151502179055509260200192600101602081600001049283019260010302614eaa565b8015614f145782816101000a81549060ff0219169055600101602081600001049283019260010302614ee7565b505b509050614f239190614f44565b5090565b5b80821115614f40576000816000905550600101614f28565b5090565b5b80821115614f6857600081816101000a81549060ff021916905550600101614f45565b5090565b600081359050614f7b81615dc5565b92915050565b600081905082602060030282011115614f9957600080fd5b92915050565b600082601f830112614fb057600080fd5b6003614fc3614fbe82615c2c565b615bff565b91508183856020840282011115614fd957600080fd5b60005b838110156150095781614fef8882615067565b845260208401935060208301925050600181019050614fdc565b5050505092915050565b60008135905061502281615ddc565b92915050565b60008151905061503781615ddc565b92915050565b60008135905061504c81615df3565b92915050565b60008135905061506181615e0a565b92915050565b60008135905061507681615e21565b92915050565b60008151905061508b81615e21565b92915050565b6000815190506150a081615e38565b92915050565b6000602082840312156150b857600080fd5b60006150c684828501614f6c565b91505092915050565b600080604083850312156150e257600080fd5b60006150f085828601614f6c565b925050602061510185828601615067565b9150509250929050565b60006060828403121561511d57600080fd5b600061512b84828501614f81565b91505092915050565b6000806080838503121561514757600080fd5b600061515585828601614f81565b925050606061516685828601615067565b9150509250929050565b6000806080838503121561518357600080fd5b600061519185828601614f9f565b92505060606151a285828601615013565b9150509250929050565b6000602082840312156151be57600080fd5b60006151cc84828501615028565b91505092915050565b6000602082840312156151e757600080fd5b60006151f58482850161503d565b91505092915050565b60006020828403121561521057600080fd5b600061521e84828501615052565b91505092915050565b60006020828403121561523957600080fd5b600061524784828501615067565b91505092915050565b60006020828403121561526257600080fd5b60006152708482850161507c565b91505092915050565b60006020828403121561528b57600080fd5b600061529984828501615091565b91505092915050565b60006152ae8383615801565b60208301905092915050565b6152c381615d46565b82525050565b6152d281615cc3565b82525050565b6152e181615cc3565b82525050565b6152f360608383615d7c565b5050565b61530081615c62565b61530a8184615c92565b925061531582615c4e565b8060005b8381101561534657815161532d87826152a2565b965061533883615c78565b925050600181019050615319565b505050505050565b61535781615c62565b6153618184615c9d565b925061536c82615c4e565b8060005b8381101561539d57815161538487826152a2565b965061538f83615c78565b925050600181019050615370565b505050505050565b6153ae81615c6d565b6153b88184615c9d565b92506153c382615c58565b8060005b838110156153fb576153d882615da5565b6153e287826152a2565b96506153ed83615c85565b9250506001810190506153c7565b505050505050565b61540c81615cd5565b82525050565b61541b81615cd5565b82525050565b600061542e601283615ca8565b91507f7a65726f20746f6b656e7320737570706c7900000000000000000000000000006000830152602082019050919050565b600061546e601483615ca8565b91507f776974686472617720717565756520656d7074790000000000000000000000006000830152602082019050919050565b60006154ae600b83615ca8565b91507f6c6f636b20706572696f640000000000000000000000000000000000000000006000830152602082019050919050565b60006154ee600e83615ca8565b91507f696e76616c6964206c6f616e49440000000000000000000000000000000000006000830152602082019050919050565b600061552e601083615ca8565b91507f6e6f7420612076616c69642075736572000000000000000000000000000000006000830152602082019050919050565b600061556e601183615ca8565b91507f636f6d70616e79206e6f742d65786973740000000000000000000000000000006000830152602082019050919050565b60006155ae601483615ca8565b91507f696e73756666696369656e74207369676e6565730000000000000000000000006000830152602082019050919050565b60006155ee601083615ca8565b91507f4552525f4449565f494e5445524e414c000000000000000000000000000000006000830152602082019050919050565b600061562e600e83615ca8565b91507f72657061796d656e7420646f6e650000000000000000000000000000000000006000830152602082019050919050565b600061566e601083615ca8565b91507f4552525f4d554c5f4f564552464c4f57000000000000000000000000000000006000830152602082019050919050565b60006156ae600c83615ca8565b91507f4552525f4449565f5a45524f00000000000000000000000000000000000000006000830152602082019050919050565b60006156ee600783615ca8565b91507f6c6f7720525054000000000000000000000000000000000000000000000000006000830152602082019050919050565b600061572e600c83615ca8565b91507f6e6f7420617070726f76656400000000000000000000000000000000000000006000830152602082019050919050565b610160820160008201516157786000850182615801565b50602082015161578b60208501826152c9565b50604082015161579e6040850182615403565b5060608201516157b160608501826152f7565b5060808201516157c460c08501826152f7565b5060a08201516157d8610120850182615403565b5060c08201516157ec610140850182615403565b50505050565b6157fb81615cf3565b82525050565b61580a81615d2f565b82525050565b61581981615d2f565b82525050565b600060208201905061583460008301846152d8565b92915050565b600060208201905061584f60008301846152ba565b92915050565b600060608201905061586a60008301866152ba565b61587760208301856152d8565b6158846040830184615810565b949350505050565b60006080820190506158a160008301856152ba565b6158ae60208301846152e7565b9392505050565b6000610100820190506158cb60008301876152ba565b6158d860208301866152e7565b6158e560808301856153a5565b6158f260e0830184615810565b95945050505050565b600060a08201905061591060008301866152ba565b61591d60208301856152e7565b61592a6080830184615810565b949350505050565b600060408201905061594760008301856152ba565b6159546020830184615810565b9392505050565b600060408201905061597060008301856152d8565b61597d6020830184615810565b9392505050565b6000606082019050615999600083018461534e565b92915050565b60006020820190506159b46000830184615412565b92915050565b600060208201905081810360008301526159d381615421565b9050919050565b600060208201905081810360008301526159f381615461565b9050919050565b60006020820190508181036000830152615a13816154a1565b9050919050565b60006020820190508181036000830152615a33816154e1565b9050919050565b60006020820190508181036000830152615a5381615521565b9050919050565b60006020820190508181036000830152615a7381615561565b9050919050565b60006020820190508181036000830152615a93816155a1565b9050919050565b60006020820190508181036000830152615ab3816155e1565b9050919050565b60006020820190508181036000830152615ad381615621565b9050919050565b60006020820190508181036000830152615af381615661565b9050919050565b60006020820190508181036000830152615b13816156a1565b9050919050565b60006020820190508181036000830152615b33816156e1565b9050919050565b60006020820190508181036000830152615b5381615721565b9050919050565b600061016082019050615b706000830184615761565b92915050565b6000602082019050615b8b60008301846157f2565b92915050565b6000602082019050615ba66000830184615810565b92915050565b600060a082019050615bc16000830188615810565b615bce60208301876152d8565b615bdb6040830186615412565b615be86060830185615412565b615bf56080830184615412565b9695505050505050565b6000604051905081810181811067ffffffffffffffff82111715615c2257600080fd5b8060405250919050565b600067ffffffffffffffff821115615c4357600080fd5b602082029050919050565b6000819050919050565b6000819050919050565b600060039050919050565b600060039050919050565b6000602082019050919050565b6000600182019050919050565b600081905092915050565b600081905092915050565b600082825260208201905092915050565b6000819050919050565b6000615cce82615d0f565b9050919050565b60008115159050919050565b6000615cec82615cc3565b9050919050565b60006fffffffffffffffffffffffffffffffff82169050919050565b600073ffffffffffffffffffffffffffffffffffffffff82169050919050565b6000819050919050565b600060ff82169050919050565b6000615d5182615d58565b9050919050565b6000615d6382615d6a565b9050919050565b6000615d7582615d0f565b9050919050565b82818337600083830152505050565b6000615d9e615d9983615db8565b615cb9565b9050919050565b6000615db18254615d8b565b9050919050565b60008160001c9050919050565b615dce81615cc3565b8114615dd957600080fd5b50565b615de581615cd5565b8114615df057600080fd5b50565b615dfc81615ce1565b8114615e0757600080fd5b50565b615e1381615cf3565b8114615e1e57600080fd5b50565b615e2a81615d2f565b8114615e3557600080fd5b50565b615e4181615d39565b8114615e4c57600080fd5b5056fea26469706673582212209eff7e955b138397284f247722253377fcf6eb2d87bf833513481267a19f828a64736f6c634300060c0033",
  "immutableReferences": {},
  "source": "// SPDX-License-Identifier: UNLICENSED\r\npragma solidity ^0.6.0;\r\npragma experimental ABIEncoderV2;\r\n\r\nimport './MathLib.sol';\r\n\r\n// import './Erc20Interface.sol';\r\n// import './CurveInterface.sol';\r\n// import './RoyaleLPstorage.sol';\r\nimport './MultiSig.sol';\r\n\r\ncontract RoyaleLP is multiSig, rNum {\r\n\r\n    constructor(\r\n        address[N_COINS] memory _tokens,\r\n        address _rpToken\r\n    ) public {\r\n        // Set owner\r\n        owner = msg.sender;\r\n\r\n        for(uint8 i=0; i<N_COINS; i++) {\r\n            tokens[i] = Erc20(_tokens[i]);\r\n        }\r\n\r\n        // Set RPT\r\n        rpToken = Erc20(_rpToken);\r\n    }\r\n    \r\n    /* EVENTS */\r\n    event userSupplied(\r\n        address user,\r\n        uint[N_COINS] amounts\r\n    );\r\n\r\n    event userRecieved(\r\n        address user,\r\n        uint[N_COINS] amounts\r\n    );\r\n\r\n    event userAddedToQ(\r\n        address user,\r\n        uint[N_COINS] amounts\r\n    );\r\n\r\n    event loanWithdrawn(\r\n        address by,\r\n        uint[N_COINS] requestedAmount,\r\n        uint[N_COINS] remainingAmount,\r\n        uint loanID\r\n    );\r\n\r\n    event loanFulfilled(\r\n        address by,\r\n        uint[N_COINS] requestedAmount,\r\n        uint[N_COINS] remainingAmount,\r\n        uint loanID\r\n    );\r\n\r\n    event loanRepayed(\r\n        address by,\r\n        uint[N_COINS] repayedAmount,\r\n        uint[N_COINS] amountRemaining,\r\n        uint loanID\r\n    );\r\n\r\n    event wholeLoanRepayed(\r\n        address by,\r\n        uint[N_COINS] repayedAmount,\r\n        uint[N_COINS] amountRemaining,\r\n        uint loanID\r\n    );\r\n\r\n\r\n    /* INTERNAL FUNCTIONS */\r\n\r\n    function _getBalances() internal view returns(uint256[N_COINS] memory) {\r\n        uint256[N_COINS] memory balances;\r\n\r\n        for(uint8 i=0; i<N_COINS; i++) {\r\n            balances[i] = tokens[i].balanceOf(address(this));\r\n        }\r\n\r\n        return balances;\r\n    }\r\n\r\n    function calcRptAmount(uint256[N_COINS] memory amounts, bool burn) public view returns(uint256) {\r\n        uint256 rptAmt;\r\n        uint256 total = 0;\r\n        uint256 decimal = 0;\r\n        uint256 totalSuppliedTokens;\r\n        uint256 totalRPTSupply;\r\n\r\n        totalRPTSupply = bdiv(rpToken.totalSupply(), 10**18);\r\n        \r\n        for(uint8 i=0; i<N_COINS; i++) {\r\n            decimal = tokens[i].decimals();\r\n            total += bdiv(selfBalance[i], 10**decimal);\r\n            totalSuppliedTokens += bdiv(amounts[i], 10**decimal);\r\n        }\r\n\r\n        rptAmt = bmul(bdiv(totalSuppliedTokens, total), totalRPTSupply);\r\n\r\n        if(burn == true) {\r\n            rptAmt = rptAmt + (rptAmt * fees) / 10000;\r\n        }\r\n\r\n        return rptAmt;\r\n    }\r\n\r\n    // functions related to deposit and supply\r\n\r\n    // This function deposits the fund to Yield Optimizer\r\n    function _deposit(uint256[N_COINS] memory amounts) internal {\r\n        yldOpt.deposit(amounts);\r\n        \r\n        for(uint8 i=0; i<N_COINS; i++) {\r\n            YieldPoolBalance[i] += amounts[i];\r\n        }\r\n    }\r\n\r\n    function _supply(uint256[N_COINS] memory amounts) internal {\r\n        uint256 mintTokens;        \r\n        mintTokens = calcRptAmount(amounts, false);    \r\n        \r\n        bool result;\r\n        for(uint8 i=0; i<N_COINS; i++) {\r\n            if(amounts[i] > 0) {\r\n                result = tokens[i].transferFrom(\r\n                    msg.sender, \r\n                    address(this), \r\n                    amounts[i]\r\n                );\r\n                require(result);\r\n                selfBalance[i] += amounts[i];\r\n                amountSupplied[msg.sender][i] += amounts[i];\r\n            }\r\n        }\r\n    \r\n        // rpToken.mint(msg.sender, mintTokens * 10**10);\r\n        rpToken.mint(msg.sender, mintTokens);\r\n\r\n        bool[N_COINS] memory falseArray;\r\n        depositDetails memory d = depositDetails(amounts, amounts, now, falseArray);\r\n        supplyTime[msg.sender].push(d);\r\n    }\r\n\r\n    // functions related to withdraw, withdraw queue and withdraw from Yield Optimizer\r\n\r\n    function _takeBack(address recipient) internal {\r\n        bool result;\r\n\r\n        uint256 burnAmt;\r\n\r\n        burnAmt = calcRptAmount(amountWithdraw[recipient], true);\r\n        rpToken.burn(recipient, burnAmt);\r\n\r\n        for(uint8 i=0; i<N_COINS; i++) {\r\n            if(\r\n                amountWithdraw[recipient][i] > 0 \r\n                && \r\n                amountSupplied[recipient][i] > 0\r\n            ) {\r\n                result = tokens[i].transfer(\r\n                    recipient,  \r\n                    amountWithdraw[recipient][i]\r\n                );\r\n                require(result);\r\n\r\n                amountSupplied[recipient][i] -= amountWithdraw[recipient][i];\r\n                totalWithdraw[i] -= amountWithdraw[recipient][i];\r\n                selfBalance[i] -= amountWithdraw[recipient][i];\r\n\r\n                uint x = amountWithdraw[recipient][i];\r\n                for(uint8 j=0; j<supplyTime[recipient].length; j++) {\r\n                    if(supplyTime[recipient][j].withdrawn[i] != true && x > 0) {\r\n                        if(x >= supplyTime[recipient][j].remAmt[i]) {\r\n                            x = x - supplyTime[recipient][j].remAmt[i];\r\n                            supplyTime[recipient][j].remAmt[i] = 0;\r\n                            supplyTime[recipient][j].withdrawn[i] = true;\r\n                        }\r\n                        else {\r\n                            supplyTime[recipient][j].remAmt[i] -= x;\r\n                            x = 0;\r\n                        }\r\n                    }\r\n                }\r\n\r\n                amountWithdraw[recipient][i] = 0;\r\n\r\n                isInQ[recipient] = false;\r\n                recipientCount -= 1;\r\n            }\r\n        }\r\n    }\r\n\r\n    // this will fulfill withdraw requests from the queue\r\n    function _giveBack() internal {\r\n        \r\n        uint32 counter = recipientCount;\r\n        for(uint8 i=0; i<counter; i++) {\r\n            address recipient = getFromQ();\r\n            _takeBack(recipient);\r\n        }\r\n\r\n    }\r\n\r\n    // this will add unfulfilled withdraw requests to the queue\r\n    function _takeBackQ(uint256[N_COINS] memory amounts) internal {\r\n        \r\n        for(uint256 i=0; i<N_COINS; i++) {\r\n            if(amounts[i] > 0) {\r\n                amountWithdraw[msg.sender][i] += amounts[i];\r\n                totalWithdraw[i] += amounts[i];\r\n            }\r\n        }\r\n\r\n        if(isInQ[msg.sender] != true) {\r\n            recipientCount += 1;\r\n            isInQ[msg.sender] = true;\r\n            addToQ(msg.sender);\r\n        }\r\n\r\n    }\r\n\r\n    // this will withdraw from Yield Optimizer into this contract\r\n    function _withdraw(uint256[N_COINS] memory amounts) internal {\r\n        yldOpt.withdraw(amounts);\r\n\r\n        for(uint8 i=0; i<N_COINS; i++) {\r\n            YieldPoolBalance[i] -= amounts[i];\r\n        }\r\n    }\r\n\r\n    function availableWithdraw(address addr, uint coin) public view returns(uint256) {\r\n\r\n        uint256 amount=0;\r\n        for(uint8 j=0; j<supplyTime[addr].length; j++) {\r\n            if(\r\n                ((now - supplyTime[addr][j].time) \r\n                > \r\n                (24 * 60 * 60 * lock_period))\r\n                &&\r\n                supplyTime[addr][j].withdrawn[coin] != true\r\n            ) {\r\n                amount += supplyTime[addr][j].remAmt[coin];\r\n            }\r\n        }\r\n\r\n        return amount;\r\n    }\r\n\r\n    /* USER FUNCTIONS (exposed to frontend) */\r\n\r\n    function supply(uint256[N_COINS] calldata amounts) external {\r\n        require(\r\n            calcRptAmount(amounts, false) > 0,\r\n            \"zero tokens supply\"\r\n        );\r\n        \r\n        _supply(amounts);\r\n\r\n        emit userSupplied(msg.sender, amounts);\r\n    }\r\n\r\n    function requestWithdraw(uint256[N_COINS] calldata amounts) external {\r\n        require(\r\n            calcRptAmount(amounts, false) > 0,\r\n            \"zero tokens supply\"\r\n        );\r\n\r\n        uint256 burnAmt;\r\n        burnAmt = calcRptAmount(amounts, true);\r\n        require(\r\n            rpToken.balanceOf(msg.sender) >= burnAmt, \r\n            \"low RPT\"\r\n        );\r\n        \r\n        uint256[N_COINS] memory poolBalance;\r\n        poolBalance = _getBalances();\r\n        \r\n        bool checkTime = true;\r\n        bool instant;\r\n        \r\n        // check if user is withdrawing before lock period\r\n        for(uint8 i=0; i<N_COINS; i++) {\r\n            if(amounts[i] > 0) {\r\n                if(availableWithdraw(msg.sender, i) < amounts[i]) {\r\n                    checkTime = false;\r\n                }\r\n            }\r\n        }\r\n        require(checkTime, \"lock period\");\r\n\r\n        // check if instant withdraw\r\n        for(uint8 i=0; i<N_COINS; i++) {\r\n            if(amounts[i] < poolBalance[i] && amounts[i] != 0) {\r\n                instant = true;\r\n            }\r\n        }\r\n\r\n        if(instant) {\r\n            rpToken.burn(msg.sender, burnAmt);\r\n            bool result;\r\n            for(uint8 i=0; i<N_COINS; i++) {\r\n                if(amounts[i] > 0) {\r\n                    result = tokens[i].transfer(msg.sender, amounts[i]);\r\n                    require(result);\r\n                    amountSupplied[msg.sender][i] -= amounts[i];\r\n                    selfBalance[i] -= amounts[i];\r\n                    \r\n                    uint x = amounts[i];\r\n                    for(uint8 j=0; j<supplyTime[msg.sender].length; j++) {\r\n                        if(supplyTime[msg.sender][j].withdrawn[i] != true && x > 0) {\r\n                            if(x >= supplyTime[msg.sender][j].remAmt[i]) {\r\n                                x = x - supplyTime[msg.sender][j].remAmt[i];\r\n                                supplyTime[msg.sender][j].remAmt[i] = 0;\r\n                                supplyTime[msg.sender][j].withdrawn[i] = true;\r\n                            }\r\n                            else {\r\n                                supplyTime[msg.sender][j].remAmt[i] -= x;\r\n                                x = 0;\r\n                            }\r\n                        }\r\n                    }\r\n\r\n                }\r\n            }\r\n\r\n            emit userRecieved(msg.sender, amounts);\r\n        } else {\r\n            _takeBackQ(amounts);\r\n\r\n            emit userAddedToQ(msg.sender, amounts);\r\n        }\r\n    }\r\n\r\n    function withdrawLoan( \r\n        uint256[N_COINS] calldata amounts,\r\n        uint _loanID\r\n    ) external {\r\n\r\n        require(transactions[_loanID].iGamingCompany == msg.sender, \"company not-exist\");\r\n        require(transactions[_loanID].approved, \"not approved\");\r\n        \r\n        for(uint8 i=0; i<N_COINS; i++) {\r\n            require(\r\n                transactions[_loanID].remAmt[i] >= amounts[i], \r\n                \"not approved\"\r\n            );\r\n        }\r\n\r\n        _withdraw(amounts);\r\n\r\n        uint8 check = 0;\r\n        for(uint8 i=0; i<N_COINS; i++) {\r\n            if(amounts[i] > 0) {\r\n                tokens[i].transfer(msg.sender, amounts[i]);\r\n                transactions[_loanID].remAmt[i] -= amounts[i];\r\n            }\r\n\r\n            if(transactions[_loanID].remAmt[i] == 0) {\r\n                check++;\r\n            }\r\n        }\r\n\r\n        emit loanWithdrawn(msg.sender, amounts, transactions[_loanID].remAmt, _loanID);\r\n\r\n        if(check == 3) {\r\n            // Loan fulfilled, company used all its loan\r\n            transactions[_loanID].executed = true;\r\n            gamingCompanyRepayment[_loanID] = Repayment({\r\n                  transactionID: _loanID,\r\n                  isRepaymentDone: false,\r\n                  remainingTokenAmounts: transactions[_loanID].tokenAmounts\r\n            });\r\n\r\n            emit loanFulfilled(msg.sender, amounts, transactions[_loanID].tokenAmounts, _loanID);\r\n        }\r\n    }\r\n\r\n    function repayLoan(\r\n        uint256[N_COINS] calldata _amounts, \r\n        uint _loanId\r\n    ) external {\r\n        require(_loanId <= transactionCount, \"invalid loanID\");\r\n        require(transactions[_loanId].iGamingCompany == msg.sender, \"not a valid user\");\r\n        require(!gamingCompanyRepayment[_loanId].isRepaymentDone, \"repayment done\");\r\n        \r\n        uint counter = 0;\r\n        for(uint i=0; i<N_COINS; i++) {\r\n            if(_amounts[i]!=0) {\r\n                tokens[i].transferFrom(\r\n                    msg.sender,\r\n                    address(this),\r\n                    _amounts[i]\r\n                );\r\n                gamingCompanyRepayment[_loanId].remainingTokenAmounts[i] -= _amounts[i];\r\n                \r\n                if(gamingCompanyRepayment[_loanId].remainingTokenAmounts[i] == 0) {\r\n                    counter++;\r\n                }\r\n            }\r\n        }\r\n\r\n        emit loanRepayed(\r\n            msg.sender,\r\n            _amounts, \r\n            gamingCompanyRepayment[_loanId].remainingTokenAmounts,\r\n            _loanId\r\n        );\r\n\r\n        if(counter == 3){\r\n            gamingCompanyRepayment[_loanId].isRepaymentDone = true;\r\n\r\n            emit wholeLoanRepayed(\r\n                msg.sender,\r\n                _amounts, \r\n                gamingCompanyRepayment[_loanId].remainingTokenAmounts,\r\n                _loanId\r\n            );\r\n        }       \r\n    }\r\n\r\n    /* CORE FUNCTIONS (also exposed to frontend but to be called by owner only) */\r\n\r\n    function deposit() onlyOwner external {\r\n        uint256[N_COINS] memory amounts = _getBalances();\r\n        uint256 decimal;\r\n\r\n        for(uint8 i=0; i<N_COINS; i++) {\r\n            decimal = tokens[i].decimals();\r\n            if(amounts[i] > thresholdTokenAmount*10**decimal) {\r\n                amounts[i] += YieldPoolBalance[i];\r\n                amounts[i] = (amounts[i] * poolPart) / 100;\r\n                amounts[i] = amounts[i] - YieldPoolBalance[i];\r\n                tokens[i].transfer(address(yldOpt), amounts[i]);\r\n            }\r\n            else {\r\n                amounts[i] = 0;\r\n            }\r\n        }\r\n\r\n        uint8 counter = 0;\r\n        for(uint8 i=0; i<N_COINS; i++) {\r\n           if(amounts[i] != 0) {\r\n               counter++;\r\n               break;\r\n           }\r\n        }\r\n\r\n        if(counter > 0){\r\n            _deposit(amounts);\r\n        }\r\n    }\r\n\r\n    function withdraw() onlyOwner external {\r\n\r\n        uint8 counter = 0;\r\n        for(uint8 i=0; i<N_COINS; i++) {\r\n           if(totalWithdraw[i] != 0) {\r\n               counter++;\r\n               break;\r\n           }\r\n        }\r\n\r\n        require(counter > 0, \"withdraw queue empty\");\r\n\r\n        _withdraw(totalWithdraw);\r\n        _giveBack();\r\n    }\r\n\r\n    /* ADMIN FUNCTIONS */\r\n\r\n    function changePoolPart(uint128 _newPoolPart) external onlyOwner returns(bool) {\r\n        poolPart = _newPoolPart;\r\n        return true;\r\n    }\r\n\r\n    function setThresholdTokenAmount(uint256 _newThreshold) external onlyOwner returns(bool) {\r\n        thresholdTokenAmount = _newThreshold;\r\n        return true;\r\n    }\r\n\r\n    function setInitialDeposit() onlyOwner external returns(bool) {\r\n        selfBalance = _getBalances();\r\n        return true;\r\n    }\r\n\r\n    function setYieldOpt(IYieldOpt _yldOpt) onlyOwner external returns(bool) {\r\n        yldOpt = _yldOpt;\r\n        return true;\r\n    }\r\n\r\n    function setLockPeriod(uint128 lockperiod) onlyOwner external returns(bool) {\r\n        lock_period = lockperiod;\r\n        return true;\r\n    }\r\n\r\n    function setWithdrawFees(uint128 _fees) onlyOwner external returns(bool) {\r\n        fees = _fees;\r\n        return true;\r\n    }\r\n\r\n}",
  "sourcePath": "C:/Users/MayankVats/Desktop/WORK/blockchain/Royale/royale-contracts/contracts/RoyaleLP.sol",
  "compiler": {
    "name": "solc",
    "version": "0.6.12+commit.27d51765.Emscripten.clang"
  },
  "schemaVersion": "3.3.2",
  "updatedAt": "2020-12-14T04:25:54.389Z",
  "devdoc": {
    "kind": "dev",
    "methods": {},
    "version": 1
  },
  "userdoc": {
    "kind": "user",
    "methods": {},
    "version": 1
  }
}