{
  "contractName": "RoyaleLP",
  "abi": [
    {
      "inputs": [
        {
          "internalType": "address[3]",
          "name": "_tokens",
          "type": "address[3]"
        },
        {
          "internalType": "address",
          "name": "_rpToken",
          "type": "address"
        }
      ],
      "stateMutability": "nonpayable",
      "type": "constructor"
    },
    {
      "anonymous": false,
      "inputs": [
        {
          "indexed": false,
          "internalType": "address",
          "name": "by",
          "type": "address"
        },
        {
          "indexed": false,
          "internalType": "uint256[3]",
          "name": "requestedAmount",
          "type": "uint256[3]"
        },
        {
          "indexed": false,
          "internalType": "uint256[3]",
          "name": "remainingAmount",
          "type": "uint256[3]"
        },
        {
          "indexed": false,
          "internalType": "uint256",
          "name": "loanID",
          "type": "uint256"
        }
      ],
      "name": "loanFulfilled",
      "type": "event"
    },
    {
      "anonymous": false,
      "inputs": [
        {
          "indexed": false,
          "internalType": "address",
          "name": "by",
          "type": "address"
        },
        {
          "indexed": false,
          "internalType": "uint256[3]",
          "name": "repayedAmount",
          "type": "uint256[3]"
        },
        {
          "indexed": false,
          "internalType": "uint256[3]",
          "name": "amountRemaining",
          "type": "uint256[3]"
        },
        {
          "indexed": false,
          "internalType": "uint256",
          "name": "loanID",
          "type": "uint256"
        }
      ],
      "name": "loanRepayed",
      "type": "event"
    },
    {
      "anonymous": false,
      "inputs": [
        {
          "indexed": false,
          "internalType": "address",
          "name": "by",
          "type": "address"
        },
        {
          "indexed": false,
          "internalType": "uint256[3]",
          "name": "requestedAmount",
          "type": "uint256[3]"
        },
        {
          "indexed": false,
          "internalType": "uint256[3]",
          "name": "remainingAmount",
          "type": "uint256[3]"
        },
        {
          "indexed": false,
          "internalType": "uint256",
          "name": "loanID",
          "type": "uint256"
        }
      ],
      "name": "loanWithdrawn",
      "type": "event"
    },
    {
      "anonymous": false,
      "inputs": [
        {
          "indexed": false,
          "internalType": "address",
          "name": "user",
          "type": "address"
        },
        {
          "indexed": false,
          "internalType": "uint256[3]",
          "name": "amounts",
          "type": "uint256[3]"
        }
      ],
      "name": "userAddedToQ",
      "type": "event"
    },
    {
      "anonymous": false,
      "inputs": [
        {
          "indexed": false,
          "internalType": "address",
          "name": "user",
          "type": "address"
        },
        {
          "indexed": false,
          "internalType": "uint256[3]",
          "name": "amounts",
          "type": "uint256[3]"
        }
      ],
      "name": "userRecieved",
      "type": "event"
    },
    {
      "anonymous": false,
      "inputs": [
        {
          "indexed": false,
          "internalType": "address",
          "name": "user",
          "type": "address"
        },
        {
          "indexed": false,
          "internalType": "uint256[3]",
          "name": "amounts",
          "type": "uint256[3]"
        }
      ],
      "name": "userSupplied",
      "type": "event"
    },
    {
      "anonymous": false,
      "inputs": [
        {
          "indexed": false,
          "internalType": "address",
          "name": "by",
          "type": "address"
        },
        {
          "indexed": false,
          "internalType": "uint256[3]",
          "name": "repayedAmount",
          "type": "uint256[3]"
        },
        {
          "indexed": false,
          "internalType": "uint256[3]",
          "name": "amountRemaining",
          "type": "uint256[3]"
        },
        {
          "indexed": false,
          "internalType": "uint256",
          "name": "loanID",
          "type": "uint256"
        }
      ],
      "name": "wholeLoanRepayed",
      "type": "event"
    },
    {
      "inputs": [],
      "name": "BASE_DECIMAL",
      "outputs": [
        {
          "internalType": "uint256",
          "name": "",
          "type": "uint256"
        }
      ],
      "stateMutability": "view",
      "type": "function"
    },
    {
      "inputs": [
        {
          "internalType": "uint256",
          "name": "",
          "type": "uint256"
        }
      ],
      "name": "YieldPoolBalance",
      "outputs": [
        {
          "internalType": "uint256",
          "name": "",
          "type": "uint256"
        }
      ],
      "stateMutability": "view",
      "type": "function"
    },
    {
      "inputs": [],
      "name": "fees",
      "outputs": [
        {
          "internalType": "uint128",
          "name": "",
          "type": "uint128"
        }
      ],
      "stateMutability": "view",
      "type": "function"
    },
    {
      "inputs": [
        {
          "internalType": "address",
          "name": "",
          "type": "address"
        }
      ],
      "name": "isInQ",
      "outputs": [
        {
          "internalType": "bool",
          "name": "",
          "type": "bool"
        }
      ],
      "stateMutability": "view",
      "type": "function"
    },
    {
      "inputs": [
        {
          "internalType": "uint256",
          "name": "",
          "type": "uint256"
        }
      ],
      "name": "loanGiven",
      "outputs": [
        {
          "internalType": "uint256",
          "name": "",
          "type": "uint256"
        }
      ],
      "stateMutability": "view",
      "type": "function"
    },
    {
      "inputs": [],
      "name": "lock_period",
      "outputs": [
        {
          "internalType": "uint128",
          "name": "",
          "type": "uint128"
        }
      ],
      "stateMutability": "view",
      "type": "function"
    },
    {
      "inputs": [],
      "name": "owner",
      "outputs": [
        {
          "internalType": "address",
          "name": "",
          "type": "address"
        }
      ],
      "stateMutability": "view",
      "type": "function"
    },
    {
      "inputs": [],
      "name": "poolPart",
      "outputs": [
        {
          "internalType": "uint128",
          "name": "",
          "type": "uint128"
        }
      ],
      "stateMutability": "view",
      "type": "function"
    },
    {
      "inputs": [
        {
          "internalType": "uint256",
          "name": "",
          "type": "uint256"
        }
      ],
      "name": "selfBalance",
      "outputs": [
        {
          "internalType": "uint256",
          "name": "",
          "type": "uint256"
        }
      ],
      "stateMutability": "view",
      "type": "function"
    },
    {
      "inputs": [],
      "name": "thresholdTokenAmount",
      "outputs": [
        {
          "internalType": "uint256",
          "name": "",
          "type": "uint256"
        }
      ],
      "stateMutability": "view",
      "type": "function"
    },
    {
      "inputs": [
        {
          "internalType": "uint256",
          "name": "",
          "type": "uint256"
        }
      ],
      "name": "totalWithdraw",
      "outputs": [
        {
          "internalType": "uint256",
          "name": "",
          "type": "uint256"
        }
      ],
      "stateMutability": "view",
      "type": "function"
    },
    {
      "inputs": [
        {
          "internalType": "uint256[3]",
          "name": "amounts",
          "type": "uint256[3]"
        },
        {
          "internalType": "bool",
          "name": "burn",
          "type": "bool"
        }
      ],
      "name": "calcRptAmount",
      "outputs": [
        {
          "internalType": "uint256",
          "name": "",
          "type": "uint256"
        }
      ],
      "stateMutability": "view",
      "type": "function"
    },
    {
      "inputs": [
        {
          "internalType": "address",
          "name": "addr",
          "type": "address"
        },
        {
          "internalType": "uint256",
          "name": "coin",
          "type": "uint256"
        }
      ],
      "name": "availableWithdraw",
      "outputs": [
        {
          "internalType": "uint256",
          "name": "",
          "type": "uint256"
        }
      ],
      "stateMutability": "view",
      "type": "function"
    },
    {
      "inputs": [
        {
          "internalType": "uint256[3]",
          "name": "amounts",
          "type": "uint256[3]"
        }
      ],
      "name": "supply",
      "outputs": [],
      "stateMutability": "nonpayable",
      "type": "function"
    },
    {
      "inputs": [
        {
          "internalType": "uint256[3]",
          "name": "amounts",
          "type": "uint256[3]"
        }
      ],
      "name": "requestWithdraw",
      "outputs": [],
      "stateMutability": "nonpayable",
      "type": "function"
    },
    {
      "inputs": [
        {
          "internalType": "uint256[3]",
          "name": "amounts",
          "type": "uint256[3]"
        },
        {
          "internalType": "address",
          "name": "_loanSeeker",
          "type": "address"
        }
      ],
      "name": "_loanWithdraw",
      "outputs": [
        {
          "internalType": "bool",
          "name": "",
          "type": "bool"
        }
      ],
      "stateMutability": "nonpayable",
      "type": "function"
    },
    {
      "inputs": [
        {
          "internalType": "uint256[3]",
          "name": "amounts",
          "type": "uint256[3]"
        },
        {
          "internalType": "address",
          "name": "_loanSeeker",
          "type": "address"
        }
      ],
      "name": "_loanRepayment",
      "outputs": [
        {
          "internalType": "bool",
          "name": "",
          "type": "bool"
        }
      ],
      "stateMutability": "nonpayable",
      "type": "function"
    },
    {
      "inputs": [
        {
          "internalType": "uint256[3]",
          "name": "amounts",
          "type": "uint256[3]"
        }
      ],
      "name": "depsoitInRoyale",
      "outputs": [],
      "stateMutability": "nonpayable",
      "type": "function"
    },
    {
      "inputs": [],
      "name": "deposit",
      "outputs": [],
      "stateMutability": "nonpayable",
      "type": "function"
    },
    {
      "inputs": [],
      "name": "withdraw",
      "outputs": [],
      "stateMutability": "nonpayable",
      "type": "function"
    },
    {
      "inputs": [
        {
          "internalType": "uint128",
          "name": "_newPoolPart",
          "type": "uint128"
        }
      ],
      "name": "changePoolPart",
      "outputs": [
        {
          "internalType": "bool",
          "name": "",
          "type": "bool"
        }
      ],
      "stateMutability": "nonpayable",
      "type": "function"
    },
    {
      "inputs": [
        {
          "internalType": "uint256",
          "name": "_newThreshold",
          "type": "uint256"
        }
      ],
      "name": "setThresholdTokenAmount",
      "outputs": [
        {
          "internalType": "bool",
          "name": "",
          "type": "bool"
        }
      ],
      "stateMutability": "nonpayable",
      "type": "function"
    },
    {
      "inputs": [],
      "name": "setInitialDeposit",
      "outputs": [
        {
          "internalType": "bool",
          "name": "",
          "type": "bool"
        }
      ],
      "stateMutability": "nonpayable",
      "type": "function"
    },
    {
      "inputs": [
        {
          "internalType": "contract IYieldOpt",
          "name": "_yldOpt",
          "type": "address"
        }
      ],
      "name": "setYieldOpt",
      "outputs": [
        {
          "internalType": "bool",
          "name": "",
          "type": "bool"
        }
      ],
      "stateMutability": "nonpayable",
      "type": "function"
    },
    {
      "inputs": [
        {
          "internalType": "uint128",
          "name": "lockperiod",
          "type": "uint128"
        }
      ],
      "name": "setLockPeriod",
      "outputs": [
        {
          "internalType": "bool",
          "name": "",
          "type": "bool"
        }
      ],
      "stateMutability": "nonpayable",
      "type": "function"
    },
    {
      "inputs": [
        {
          "internalType": "uint128",
          "name": "_fees",
          "type": "uint128"
        }
      ],
      "name": "setWithdrawFees",
      "outputs": [
        {
          "internalType": "bool",
          "name": "",
          "type": "bool"
        }
      ],
      "stateMutability": "nonpayable",
      "type": "function"
    }
  ],
  "bytecode": "0x60806040526001805560006002556019600460006101000a8154816fffffffffffffffffffffffffffffffff02191690836fffffffffffffffffffffffffffffffff160217905550605f600460106101000a8154816fffffffffffffffffffffffffffffffff02191690836fffffffffffffffffffffffffffffffff1602179055506101f46011553480156200009457600080fd5b50604051620047a4380380620047a48339818101604052810190620000ba91906200026f565b33600960006101000a81548173ffffffffffffffffffffffffffffffffffffffff021916908373ffffffffffffffffffffffffffffffffffffffff16021790555060005b60036fffffffffffffffffffffffffffffffff168160ff1610156200019057828160ff16600381106200012d57fe5b6020020151600a8260ff16600381106200014357fe5b0160006101000a81548173ffffffffffffffffffffffffffffffffffffffff021916908373ffffffffffffffffffffffffffffffffffffffff1602179055508080600101915050620000fe565b5080600d60006101000a81548173ffffffffffffffffffffffffffffffffffffffff021916908373ffffffffffffffffffffffffffffffffffffffff16021790555050506200034f565b600081519050620001eb8162000335565b92915050565b600082601f8301126200020357600080fd5b60036200021a6200021482620002de565b620002b0565b915081838560208402820111156200023157600080fd5b60005b838110156200026557816200024a8882620001da565b84526020840193506020830192505060018101905062000234565b5050505092915050565b600080608083850312156200028357600080fd5b60006200029385828601620001f1565b9250506060620002a685828601620001da565b9150509250929050565b6000604051905081810181811067ffffffffffffffff82111715620002d457600080fd5b8060405250919050565b600067ffffffffffffffff821115620002f657600080fd5b602082029050919050565b60006200030e8262000315565b9050919050565b600073ffffffffffffffffffffffffffffffffffffffff82169050919050565b620003408162000301565b81146200034c57600080fd5b50565b614445806200035f6000396000f3fe608060405234801561001057600080fd5b506004361061018e5760003560e01c80638af81478116100de578063a70200bd11610097578063d0e30db011610071578063d0e30db0146104e5578063db28bfd0146104ef578063eacd7afc1461051f578063f83e9a201461054f5761018e565b8063a70200bd14610467578063b8b1068014610497578063c89eb036146104c75761018e565b80638af814781461038f5780638da5cb5b146103ad5780638e9b0326146103cb578063905f692e146103e95780639af1d35a14610419578063a6d8fcb2146104375761018e565b806347d4a6a81161014b5780636b9f1ef6116101255780636b9f1ef6146102cf5780636d6ea257146102ff578063800012881461032f57806381f433f01461035f5761018e565b806347d4a6a81461026557806352f6e23814610281578063698504241461029f5761018e565b80630d88122c14610193578063147453e9146101af578063224a1418146101df57806331805a2b146101fb57806332b72e0b1461022b5780633ccfd60b1461025b575b600080fd5b6101ad60048036038101906101a89190613b35565b61056d565b005b6101c960048036038101906101c49190613b9a565b61066d565b6040516101d69190614215565b60405180910390f35b6101f960048036038101906101f49190613b35565b6108d8565b005b61021560048036038101906102109190613c51565b610a2c565b6040516102229190614215565b60405180910390f35b61024560048036038101906102409190613bff565b610a44565b60405161025291906140df565b60405180910390f35b610263610aea565b005b61027f600480360381019061027a9190613b35565b610c31565b005b6102896115e1565b60405161029691906140df565b60405180910390f35b6102b960048036038101906102b49190613c51565b61165d565b6040516102c69190614215565b60405180910390f35b6102e960048036038101906102e49190613c28565b611675565b6040516102f691906140df565b60405180910390f35b61031960048036038101906103149190613c51565b611713565b6040516103269190614215565b60405180910390f35b61034960048036038101906103449190613b5e565b61172b565b60405161035691906140df565b60405180910390f35b61037960048036038101906103749190613c28565b6118be565b60405161038691906140df565b60405180910390f35b61039761195c565b6040516103a49190614215565b60405180910390f35b6103b5611968565b6040516103c29190613fa5565b60405180910390f35b6103d361198e565b6040516103e091906141fa565b60405180910390f35b61040360048036038101906103fe9190613ad0565b6119b0565b60405161041091906140df565b60405180910390f35b6104216119d0565b60405161042e91906141fa565b60405180910390f35b610451600480360381019061044c9190613af9565b6119f2565b60405161045e9190614215565b60405180910390f35b610481600480360381019061047c9190613c28565b611bfd565b60405161048e91906140df565b60405180910390f35b6104b160048036038101906104ac9190613c51565b611c9b565b6040516104be91906140df565b60405180910390f35b6104cf611d07565b6040516104dc9190614215565b60405180910390f35b6104ed611d0d565b005b61050960048036038101906105049190613c51565b6120e1565b6040516105169190614215565b60405180910390f35b61053960048036038101906105349190613b5e565b6120f9565b60405161054691906140df565b60405180910390f35b610557612290565b60405161056491906141fa565b60405180910390f35b60006105b1826003806020026040519081016040528092919082600360200280828437600081840152601f19601f820116905080830192505050505050600061066d565b116105f1576040517f08c379a00000000000000000000000000000000000000000000000000000000081526004016105e8906140fa565b60405180910390fd5b610631816003806020026040519081016040528092919082600360200280828437600081840152601f19601f8201169050808301925050505050506122b2565b7fe7f2330a99451f199f91ed2ac09887e25894cb0e14021fe5d29bc959e7283d0e3382604051610662929190614012565b60405180910390a150565b600080600080600080610727600d60009054906101000a900473ffffffffffffffffffffffffffffffffffffffff1673ffffffffffffffffffffffffffffffffffffffff166318160ddd6040518163ffffffff1660e01b815260040160206040518083038186803b1580156106e157600080fd5b505afa1580156106f5573d6000803e3d6000fd5b505050506040513d601f19601f820116820180604052508101906107199190613c7a565b670de0b6b3a764000061264e565b905060005b60036fffffffffffffffffffffffffffffffff168160ff16101561086457600a8160ff166003811061075a57fe5b0160009054906101000a900473ffffffffffffffffffffffffffffffffffffffff1673ffffffffffffffffffffffffffffffffffffffff1663313ce5676040518163ffffffff1660e01b815260040160206040518083038186803b1580156107c157600080fd5b505afa1580156107d5573d6000803e3d6000fd5b505050506040513d601f19601f820116820180604052508101906107f99190613ca3565b60ff16935061082f601b8260ff166003811061081157fe5b015460058360ff166003811061082357fe5b01540185600a0a61264e565b85019450610853898260ff166003811061084557fe5b602002015185600a0a61264e565b83019250808060010191505061072c565b50610878610872838661264e565b8261276e565b94506001151587151514156108ca57612710600460009054906101000a90046fffffffffffffffffffffffffffffffff166fffffffffffffffffffffffffffffffff168602816108c457fe5b04850194505b849550505050505092915050565b60005b60036fffffffffffffffffffffffffffffffff168160ff161015610a28576000828260ff166003811061090a57fe5b602002013514610a1b57600a8160ff166003811061092457fe5b0160009054906101000a900473ffffffffffffffffffffffffffffffffffffffff1673ffffffffffffffffffffffffffffffffffffffff166323b872dd3330858560ff166003811061097257fe5b60200201356040518463ffffffff1660e01b815260040161099593929190613fdb565b602060405180830381600087803b1580156109af57600080fd5b505af11580156109c3573d6000803e3d6000fd5b505050506040513d601f19601f820116820180604052508101906109e79190613bd6565b50818160ff16600381106109f757fe5b602002013560058260ff1660038110610a0c57fe5b01600082825401925050819055505b80806001019150506108db565b5050565b600e8160038110610a3957fe5b016000915090505481565b6000600960009054906101000a900473ffffffffffffffffffffffffffffffffffffffff1673ffffffffffffffffffffffffffffffffffffffff163373ffffffffffffffffffffffffffffffffffffffff1614610aa057600080fd5b81600860006101000a81548173ffffffffffffffffffffffffffffffffffffffff021916908373ffffffffffffffffffffffffffffffffffffffff16021790555060019050919050565b600960009054906101000a900473ffffffffffffffffffffffffffffffffffffffff1673ffffffffffffffffffffffffffffffffffffffff163373ffffffffffffffffffffffffffffffffffffffff1614610b4457600080fd5b6000805b60036fffffffffffffffffffffffffffffffff168160ff161015610b9957600060188260ff1660038110610b7857fe5b015414610b8c578180600101925050610b99565b8080600101915050610b48565b5060008160ff1611610be0576040517f08c379a0000000000000000000000000000000000000000000000000000000008152600401610bd79061411a565b60405180910390fd5b610c266018600380602002604051908101604052809291908260038015610c1c576020028201915b815481526020019060010190808311610c08575b505050505061284a565b610c2e61293b565b50565b6000610c75826003806020026040519081016040528092919082600360200280828437600081840152601f19601f820116905080830192505050505050600061066d565b11610cb5576040517f08c379a0000000000000000000000000000000000000000000000000000000008152600401610cac906140fa565b60405180910390fd5b6000610cf9826003806020026040519081016040528092919082600360200280828437600081840152601f19601f820116905080830192505050505050600161066d565b905080600d60009054906101000a900473ffffffffffffffffffffffffffffffffffffffff1673ffffffffffffffffffffffffffffffffffffffff166370a08231336040518263ffffffff1660e01b8152600401610d579190613fc0565b60206040518083038186803b158015610d6f57600080fd5b505afa158015610d83573d6000803e3d6000fd5b505050506040513d601f19601f82011682018060405250810190610da79190613c7a565b1015610de8576040517f08c379a0000000000000000000000000000000000000000000000000000000008152600401610ddf906141da565b60405180910390fd5b610df06137fa565b610df861298d565b9050600060019050600080600090505b60036fffffffffffffffffffffffffffffffff168160ff161015610e7c576000868260ff1660038110610e3757fe5b60200201351115610e6f57858160ff1660038110610e5157fe5b6020020135610e63338360ff166119f2565b1015610e6e57600092505b5b8080600101915050610e08565b5081610ebd576040517f08c379a0000000000000000000000000000000000000000000000000000000008152600401610eb49061413a565b60405180910390fd5b60005b60036fffffffffffffffffffffffffffffffff168160ff161015610f3e57838160ff1660038110610eed57fe5b6020020151868260ff1660038110610f0157fe5b6020020135108015610f2757506000868260ff1660038110610f1f57fe5b602002013514155b15610f3157600191505b8080600101915050610ec0565b50801561156057600d60009054906101000a900473ffffffffffffffffffffffffffffffffffffffff1673ffffffffffffffffffffffffffffffffffffffff16639dc29fac33866040518363ffffffff1660e01b8152600401610fa292919061403b565b600060405180830381600087803b158015610fbc57600080fd5b505af1158015610fd0573d6000803e3d6000fd5b50505050600080600090505b60036fffffffffffffffffffffffffffffffff168160ff161015611520576000878260ff166003811061100b57fe5b6020020135111561151357600a8160ff166003811061102657fe5b0160009054906101000a900473ffffffffffffffffffffffffffffffffffffffff1673ffffffffffffffffffffffffffffffffffffffff1663a9059cbb33898460ff166003811061107357fe5b60200201356040518363ffffffff1660e01b815260040161109592919061403b565b602060405180830381600087803b1580156110af57600080fd5b505af11580156110c3573d6000803e3d6000fd5b505050506040513d601f19601f820116820180604052508101906110e79190613bd6565b9150816110f357600080fd5b868160ff166003811061110257fe5b6020020135601360003373ffffffffffffffffffffffffffffffffffffffff1673ffffffffffffffffffffffffffffffffffffffff1681526020019081526020016000208260ff166003811061115457fe5b0160008282540392505081905550868160ff166003811061117157fe5b602002013560058260ff166003811061118657fe5b01600082825403925050819055506000878260ff16600381106111a557fe5b6020020135905060005b601460003373ffffffffffffffffffffffffffffffffffffffff1673ffffffffffffffffffffffffffffffffffffffff168152602001908152602001600020805490508160ff1610156115105760011515601460003373ffffffffffffffffffffffffffffffffffffffff1673ffffffffffffffffffffffffffffffffffffffff1681526020019081526020016000208260ff168154811061124d57fe5b90600052602060002090600802016007018460ff166003811061126c57fe5b602091828204019190069054906101000a900460ff161515141580156112925750600082115b1561150357601460003373ffffffffffffffffffffffffffffffffffffffff1673ffffffffffffffffffffffffffffffffffffffff1681526020019081526020016000208160ff16815481106112e457fe5b90600052602060002090600802016003018360ff166003811061130357fe5b0154821061148257601460003373ffffffffffffffffffffffffffffffffffffffff1673ffffffffffffffffffffffffffffffffffffffff1681526020019081526020016000208160ff168154811061135857fe5b90600052602060002090600802016003018360ff166003811061137757fe5b0154820391506000601460003373ffffffffffffffffffffffffffffffffffffffff1673ffffffffffffffffffffffffffffffffffffffff1681526020019081526020016000208260ff16815481106113cc57fe5b90600052602060002090600802016003018460ff16600381106113eb57fe5b01819055506001601460003373ffffffffffffffffffffffffffffffffffffffff1673ffffffffffffffffffffffffffffffffffffffff1681526020019081526020016000208260ff168154811061143f57fe5b90600052602060002090600802016007018460ff166003811061145e57fe5b602091828204019190066101000a81548160ff021916908315150217905550611502565b81601460003373ffffffffffffffffffffffffffffffffffffffff1673ffffffffffffffffffffffffffffffffffffffff1681526020019081526020016000208260ff16815481106114d057fe5b90600052602060002090600802016003018460ff16600381106114ef57fe5b0160008282540392505081905550600091505b5b80806001019150506111af565b50505b8080600101915050610fdc565b507fe9c01f7dea3ef08b44263b3cf5963eb42309e5fb5bec9305dbe12b82f37b519c3387604051611552929190614012565b60405180910390a1506115da565b6115a0856003806020026040519081016040528092919082600360200280828437600081840152601f19601f820116905080830192505050505050612aa5565b7fe2d5e24e56e4f05473adb8bb616473de3894beab8011d32382a638d1d2617c9333866040516115d1929190614012565b60405180910390a15b5050505050565b6000600960009054906101000a900473ffffffffffffffffffffffffffffffffffffffff1673ffffffffffffffffffffffffffffffffffffffff163373ffffffffffffffffffffffffffffffffffffffff161461163d57600080fd5b61164561298d565b600590600361165592919061381c565b506001905090565b6005816003811061166a57fe5b016000915090505481565b6000600960009054906101000a900473ffffffffffffffffffffffffffffffffffffffff1673ffffffffffffffffffffffffffffffffffffffff163373ffffffffffffffffffffffffffffffffffffffff16146116d157600080fd5b81600460006101000a8154816fffffffffffffffffffffffffffffffff02191690836fffffffffffffffffffffffffffffffff16021790555060019050919050565b601b816003811061172057fe5b016000915090505481565b600080600090505b60036fffffffffffffffffffffffffffffffff168160ff1610156118b3576000848260ff166003811061176257fe5b602002015111156118a657838160ff166003811061177c57fe5b6020020151601b8260ff166003811061179157fe5b0160008282540392505081905550838160ff16600381106117ae57fe5b602002015160058260ff16600381106117c357fe5b0160008282540192505081905550600a8160ff16600381106117e157fe5b0160009054906101000a900473ffffffffffffffffffffffffffffffffffffffff1673ffffffffffffffffffffffffffffffffffffffff166323b872dd8430878560ff166003811061182f57fe5b60200201516040518463ffffffff1660e01b815260040161185293929190614064565b602060405180830381600087803b15801561186c57600080fd5b505af1158015611880573d6000803e3d6000fd5b505050506040513d601f19601f820116820180604052508101906118a49190613bd6565b505b8080600101915050611733565b506001905092915050565b6000600960009054906101000a900473ffffffffffffffffffffffffffffffffffffffff1673ffffffffffffffffffffffffffffffffffffffff163373ffffffffffffffffffffffffffffffffffffffff161461191a57600080fd5b81601260006101000a8154816fffffffffffffffffffffffffffffffff02191690836fffffffffffffffffffffffffffffffff16021790555060019050919050565b670de0b6b3a764000081565b600960009054906101000a900473ffffffffffffffffffffffffffffffffffffffff1681565b600460109054906101000a90046fffffffffffffffffffffffffffffffff1681565b60166020528060005260406000206000915054906101000a900460ff1681565b600460009054906101000a90046fffffffffffffffffffffffffffffffff1681565b6000806000905060005b601460008673ffffffffffffffffffffffffffffffffffffffff1673ffffffffffffffffffffffffffffffffffffffff168152602001908152602001600020805490508160ff161015611bf257601260009054906101000a90046fffffffffffffffffffffffffffffffff1662015180026fffffffffffffffffffffffffffffffff16601460008773ffffffffffffffffffffffffffffffffffffffff1673ffffffffffffffffffffffffffffffffffffffff1681526020019081526020016000208260ff1681548110611acc57fe5b9060005260206000209060080201600601544203118015611b70575060011515601460008773ffffffffffffffffffffffffffffffffffffffff1673ffffffffffffffffffffffffffffffffffffffff1681526020019081526020016000208260ff1681548110611b3957fe5b90600052602060002090600802016007018560038110611b5557fe5b602091828204019190069054906101000a900460ff16151514155b15611be557601460008673ffffffffffffffffffffffffffffffffffffffff1673ffffffffffffffffffffffffffffffffffffffff1681526020019081526020016000208160ff1681548110611bc257fe5b90600052602060002090600802016003018460038110611bde57fe5b0154820191505b80806001019150506119fc565b508091505092915050565b6000600960009054906101000a900473ffffffffffffffffffffffffffffffffffffffff1673ffffffffffffffffffffffffffffffffffffffff163373ffffffffffffffffffffffffffffffffffffffff1614611c5957600080fd5b81600460106101000a8154816fffffffffffffffffffffffffffffffff02191690836fffffffffffffffffffffffffffffffff16021790555060019050919050565b6000600960009054906101000a900473ffffffffffffffffffffffffffffffffffffffff1673ffffffffffffffffffffffffffffffffffffffff163373ffffffffffffffffffffffffffffffffffffffff1614611cf757600080fd5b8160118190555060019050919050565b60115481565b600960009054906101000a900473ffffffffffffffffffffffffffffffffffffffff1673ffffffffffffffffffffffffffffffffffffffff163373ffffffffffffffffffffffffffffffffffffffff1614611d6757600080fd5b611d6f6137fa565b611d7761298d565b9050600080600090505b60036fffffffffffffffffffffffffffffffff168160ff16101561206d57600a8160ff1660038110611daf57fe5b0160009054906101000a900473ffffffffffffffffffffffffffffffffffffffff1673ffffffffffffffffffffffffffffffffffffffff1663313ce5676040518163ffffffff1660e01b815260040160206040518083038186803b158015611e1657600080fd5b505afa158015611e2a573d6000803e3d6000fd5b505050506040513d601f19601f82011682018060405250810190611e4e9190613ca3565b60ff16915081600a0a60115402838260ff1660038110611e6a57fe5b6020020151111561204557600e8160ff1660038110611e8557fe5b0154838260ff1660038110611e9657fe5b6020020181815101915081815250506064600460109054906101000a90046fffffffffffffffffffffffffffffffff166fffffffffffffffffffffffffffffffff16848360ff1660038110611ee757fe5b60200201510281611ef457fe5b04838260ff1660038110611f0457fe5b602002018181525050600e8160ff1660038110611f1d57fe5b0154838260ff1660038110611f2e57fe5b602002015103838260ff1660038110611f4357fe5b602002018181525050600a8160ff1660038110611f5c57fe5b0160009054906101000a900473ffffffffffffffffffffffffffffffffffffffff1673ffffffffffffffffffffffffffffffffffffffff1663a9059cbb600860009054906101000a900473ffffffffffffffffffffffffffffffffffffffff16858460ff1660038110611fcb57fe5b60200201516040518363ffffffff1660e01b8152600401611fed92919061409b565b602060405180830381600087803b15801561200757600080fd5b505af115801561201b573d6000803e3d6000fd5b505050506040513d601f19601f8201168201806040525081019061203f9190613bd6565b50612060565b6000838260ff166003811061205657fe5b6020020181815250505b8080600101915050611d81565b506000805b60036fffffffffffffffffffffffffffffffff168160ff1610156120c5576000848260ff16600381106120a157fe5b6020020151146120b85781806001019250506120c5565b8080600101915050612072565b5060008160ff1611156120dc576120db83612c74565b5b505050565b601881600381106120ee57fe5b016000915090505481565b60006121048361284a565b60005b60036fffffffffffffffffffffffffffffffff168160ff161015612285576000848260ff166003811061213657fe5b6020020151111561227857838160ff166003811061215057fe5b6020020151601b8260ff166003811061216557fe5b0160008282540192505081905550838160ff166003811061218257fe5b602002015160058260ff166003811061219757fe5b0160008282540392505081905550600a8160ff16600381106121b557fe5b0160009054906101000a900473ffffffffffffffffffffffffffffffffffffffff1673ffffffffffffffffffffffffffffffffffffffff1663a9059cbb84868460ff166003811061220257fe5b60200201516040518363ffffffff1660e01b815260040161222492919061409b565b602060405180830381600087803b15801561223e57600080fd5b505af1158015612252573d6000803e3d6000fd5b505050506040513d601f19601f820116820180604052508101906122769190613bd6565b505b8080600101915050612107565b506001905092915050565b601260009054906101000a90046fffffffffffffffffffffffffffffffff1681565b60006122bf82600061066d565b9050600080600090505b60036fffffffffffffffffffffffffffffffff168160ff1610156124c7576000848260ff16600381106122f857fe5b602002015111156124ba57600a8160ff166003811061231357fe5b0160009054906101000a900473ffffffffffffffffffffffffffffffffffffffff1673ffffffffffffffffffffffffffffffffffffffff166323b872dd3330878560ff166003811061236157fe5b60200201516040518463ffffffff1660e01b815260040161238493929190613fdb565b602060405180830381600087803b15801561239e57600080fd5b505af11580156123b2573d6000803e3d6000fd5b505050506040513d601f19601f820116820180604052508101906123d69190613bd6565b915081612418576040517f08c379a000000000000000000000000000000000000000000000000000000000815260040161240f9061417a565b60405180910390fd5b838160ff166003811061242757fe5b602002015160058260ff166003811061243c57fe5b0160008282540192505081905550838160ff166003811061245957fe5b6020020151601360003373ffffffffffffffffffffffffffffffffffffffff1673ffffffffffffffffffffffffffffffffffffffff1681526020019081526020016000208260ff16600381106124ab57fe5b01600082825401925050819055505b80806001019150506122c9565b50600d60009054906101000a900473ffffffffffffffffffffffffffffffffffffffff1673ffffffffffffffffffffffffffffffffffffffff166340c10f1933846040518363ffffffff1660e01b815260040161252592919061403b565b600060405180830381600087803b15801561253f57600080fd5b505af1158015612553573d6000803e3d6000fd5b5050505061255f61385c565b61256761387e565b6040518060800160405280868152602001868152602001428152602001838152509050601460003373ffffffffffffffffffffffffffffffffffffffff1673ffffffffffffffffffffffffffffffffffffffff16815260200190815260200160002081908060018154018082558091505060019003906000526020600020906008020160009091909190915060008201518160000190600361260a92919061381c565b5060208201518160030190600361262292919061381c565b50604082015181600601556060820151816007019060036126449291906138b8565b5050505050505050565b600080821415612693576040517f08c379a000000000000000000000000000000000000000000000000000000000815260040161268a906141ba565b60405180910390fd5b6000670de0b6b3a76400008402905060008414806126c15750670de0b6b3a76400008482816126be57fe5b04145b612700576040517f08c379a00000000000000000000000000000000000000000000000000000000081526004016126f79061415a565b60405180910390fd5b60006002848161270c57fe5b048201905081811015612754576040517f08c379a000000000000000000000000000000000000000000000000000000000815260040161274b9061415a565b60405180910390fd5b600084828161275f57fe5b04905080935050505092915050565b6000808284029050600084148061278d57508284828161278a57fe5b04145b6127cc576040517f08c379a00000000000000000000000000000000000000000000000000000000081526004016127c39061419a565b60405180910390fd5b60006002670de0b6b3a7640000816127e057fe5b048201905081811015612828576040517f08c379a000000000000000000000000000000000000000000000000000000000815260040161281f9061419a565b60405180910390fd5b6000670de0b6b3a7640000828161283b57fe5b04905080935050505092915050565b600860009054906101000a900473ffffffffffffffffffffffffffffffffffffffff1673ffffffffffffffffffffffffffffffffffffffff1663b1b8f1be826040518263ffffffff1660e01b81526004016128a591906140c4565b600060405180830381600087803b1580156128bf57600080fd5b505af11580156128d3573d6000803e3d6000fd5b5050505060005b60036fffffffffffffffffffffffffffffffff168160ff16101561293757818160ff166003811061290757fe5b6020020151600e8260ff166003811061291c57fe5b016000828254039250508190555080806001019150506128da565b5050565b6000601760009054906101000a900463ffffffff16905060005b8163ffffffff168160ff161015612989576000612970612d65565b905061297b81612e5c565b508080600101915050612955565b5050565b6129956137fa565b61299d6137fa565b60005b60036fffffffffffffffffffffffffffffffff168160ff161015612a9d57600a8160ff16600381106129ce57fe5b0160009054906101000a900473ffffffffffffffffffffffffffffffffffffffff1673ffffffffffffffffffffffffffffffffffffffff166370a08231306040518263ffffffff1660e01b8152600401612a289190613fa5565b60206040518083038186803b158015612a4057600080fd5b505afa158015612a54573d6000803e3d6000fd5b505050506040513d601f19601f82011682018060405250810190612a789190613c7a565b828260ff1660038110612a8757fe5b60200201818152505080806001019150506129a0565b508091505090565b60005b60036fffffffffffffffffffffffffffffffff16811015612b7f576000828260038110612ad157fe5b60200201511115612b7257818160038110612ae857fe5b6020020151601560003373ffffffffffffffffffffffffffffffffffffffff1673ffffffffffffffffffffffffffffffffffffffff1681526020019081526020016000208260038110612b3757fe5b0160008282540192505081905550818160038110612b5157fe5b602002015160188260038110612b6357fe5b01600082825401925050819055505b8080600101915050612aa8565b5060011515601660003373ffffffffffffffffffffffffffffffffffffffff1673ffffffffffffffffffffffffffffffffffffffff16815260200190815260200160002060009054906101000a900460ff16151514612c71576001601760008282829054906101000a900463ffffffff160192506101000a81548163ffffffff021916908363ffffffff1602179055506001601660003373ffffffffffffffffffffffffffffffffffffffff1673ffffffffffffffffffffffffffffffffffffffff16815260200190815260200160002060006101000a81548160ff021916908315150217905550612c7033613793565b5b50565b600860009054906101000a900473ffffffffffffffffffffffffffffffffffffffff1673ffffffffffffffffffffffffffffffffffffffff1663d4e20b01826040518263ffffffff1660e01b8152600401612ccf91906140c4565b600060405180830381600087803b158015612ce957600080fd5b505af1158015612cfd573d6000803e3d6000fd5b5050505060005b60036fffffffffffffffffffffffffffffffff168160ff161015612d6157818160ff1660038110612d3157fe5b6020020151600e8260ff1660038110612d4657fe5b01600082825401925050819055508080600101915050612d04565b5050565b60006001546002541015612d7857600080fd5b600080600154815260200190815260200160002060009054906101000a900473ffffffffffffffffffffffffffffffffffffffff16600360006101000a81548173ffffffffffffffffffffffffffffffffffffffff021916908373ffffffffffffffffffffffffffffffffffffffff160217905550600080600154815260200190815260200160002060006101000a81549073ffffffffffffffffffffffffffffffffffffffff021916905560018060008282540192505081905550600360009054906101000a900473ffffffffffffffffffffffffffffffffffffffff16905090565b600080612ee4601560008573ffffffffffffffffffffffffffffffffffffffff1673ffffffffffffffffffffffffffffffffffffffff168152602001908152602001600020600380602002604051908101604052809291908260038015612ed8576020028201915b815481526020019060010190808311612ec4575b5050505050600161066d565b9050600d60009054906101000a900473ffffffffffffffffffffffffffffffffffffffff1673ffffffffffffffffffffffffffffffffffffffff16639dc29fac84836040518363ffffffff1660e01b8152600401612f4392919061409b565b600060405180830381600087803b158015612f5d57600080fd5b505af1158015612f71573d6000803e3d6000fd5b5050505060005b60036fffffffffffffffffffffffffffffffff168160ff16101561378d576000601560008673ffffffffffffffffffffffffffffffffffffffff1673ffffffffffffffffffffffffffffffffffffffff1681526020019081526020016000208260ff1660038110612fe557fe5b015411801561304257506000601360008673ffffffffffffffffffffffffffffffffffffffff1673ffffffffffffffffffffffffffffffffffffffff1681526020019081526020016000208260ff166003811061303e57fe5b0154115b1561378057600a8160ff166003811061305757fe5b0160009054906101000a900473ffffffffffffffffffffffffffffffffffffffff1673ffffffffffffffffffffffffffffffffffffffff1663a9059cbb85601560008873ffffffffffffffffffffffffffffffffffffffff1673ffffffffffffffffffffffffffffffffffffffff1681526020019081526020016000208460ff16600381106130e257fe5b01546040518363ffffffff1660e01b815260040161310192919061409b565b602060405180830381600087803b15801561311b57600080fd5b505af115801561312f573d6000803e3d6000fd5b505050506040513d601f19601f820116820180604052508101906131539190613bd6565b92508261315f57600080fd5b601560008573ffffffffffffffffffffffffffffffffffffffff1673ffffffffffffffffffffffffffffffffffffffff1681526020019081526020016000208160ff16600381106131ac57fe5b0154601360008673ffffffffffffffffffffffffffffffffffffffff1673ffffffffffffffffffffffffffffffffffffffff1681526020019081526020016000208260ff16600381106131fb57fe5b0160008282540392505081905550601560008573ffffffffffffffffffffffffffffffffffffffff1673ffffffffffffffffffffffffffffffffffffffff1681526020019081526020016000208160ff166003811061325657fe5b015460188260ff166003811061326857fe5b0160008282540392505081905550601560008573ffffffffffffffffffffffffffffffffffffffff1673ffffffffffffffffffffffffffffffffffffffff1681526020019081526020016000208160ff16600381106132c357fe5b015460058260ff16600381106132d557fe5b01600082825403925050819055506000601560008673ffffffffffffffffffffffffffffffffffffffff1673ffffffffffffffffffffffffffffffffffffffff1681526020019081526020016000208260ff166003811061333257fe5b0154905060005b601460008773ffffffffffffffffffffffffffffffffffffffff1673ffffffffffffffffffffffffffffffffffffffff168152602001908152602001600020805490508160ff16101561369a5760011515601460008873ffffffffffffffffffffffffffffffffffffffff1673ffffffffffffffffffffffffffffffffffffffff1681526020019081526020016000208260ff16815481106133d757fe5b90600052602060002090600802016007018460ff16600381106133f657fe5b602091828204019190069054906101000a900460ff1615151415801561341c5750600082115b1561368d57601460008773ffffffffffffffffffffffffffffffffffffffff1673ffffffffffffffffffffffffffffffffffffffff1681526020019081526020016000208160ff168154811061346e57fe5b90600052602060002090600802016003018360ff166003811061348d57fe5b0154821061360c57601460008773ffffffffffffffffffffffffffffffffffffffff1673ffffffffffffffffffffffffffffffffffffffff1681526020019081526020016000208160ff16815481106134e257fe5b90600052602060002090600802016003018360ff166003811061350157fe5b0154820391506000601460008873ffffffffffffffffffffffffffffffffffffffff1673ffffffffffffffffffffffffffffffffffffffff1681526020019081526020016000208260ff168154811061355657fe5b90600052602060002090600802016003018460ff166003811061357557fe5b01819055506001601460008873ffffffffffffffffffffffffffffffffffffffff1673ffffffffffffffffffffffffffffffffffffffff1681526020019081526020016000208260ff16815481106135c957fe5b90600052602060002090600802016007018460ff16600381106135e857fe5b602091828204019190066101000a81548160ff02191690831515021790555061368c565b81601460008873ffffffffffffffffffffffffffffffffffffffff1673ffffffffffffffffffffffffffffffffffffffff1681526020019081526020016000208260ff168154811061365a57fe5b90600052602060002090600802016003018460ff166003811061367957fe5b0160008282540392505081905550600091505b5b8080600101915050613339565b506000601560008773ffffffffffffffffffffffffffffffffffffffff1673ffffffffffffffffffffffffffffffffffffffff1681526020019081526020016000208360ff16600381106136ea57fe5b01819055506000601660008773ffffffffffffffffffffffffffffffffffffffff1673ffffffffffffffffffffffffffffffffffffffff16815260200190815260200160002060006101000a81548160ff0219169083151502179055506001601760008282829054906101000a900463ffffffff160392506101000a81548163ffffffff021916908363ffffffff160217905550505b8080600101915050612f78565b50505050565b600160026000828254019250508190555080600080600254815260200190815260200160002060006101000a81548173ffffffffffffffffffffffffffffffffffffffff021916908373ffffffffffffffffffffffffffffffffffffffff16021790555050565b6040518060600160405280600390602082028036833780820191505090505090565b826003810192821561384b579160200282015b8281111561384a57825182559160200191906001019061382f565b5b5090506138589190613951565b5090565b6040518060600160405280600390602082028036833780820191505090505090565b60405180608001604052806138916137fa565b815260200161389e6137fa565b8152602001600081526020016138b261385c565b81525090565b826003601f016020900481019282156139405791602002820160005b8382111561391157835183826101000a81548160ff02191690831515021790555092602001926001016020816000010492830192600103026138d4565b801561393e5782816101000a81549060ff0219169055600101602081600001049283019260010302613911565b505b50905061394d919061396e565b5090565b5b8082111561396a576000816000905550600101613952565b5090565b5b8082111561399257600081816101000a81549060ff02191690555060010161396f565b5090565b6000813590506139a581614385565b92915050565b6000819050826020600302820111156139c357600080fd5b92915050565b600082601f8301126139da57600080fd5b60036139ed6139e88261425d565b614230565b91508183856020840282011115613a0357600080fd5b60005b83811015613a335781613a198882613a91565b845260208401935060208301925050600181019050613a06565b5050505092915050565b600081359050613a4c8161439c565b92915050565b600081519050613a618161439c565b92915050565b600081359050613a76816143b3565b92915050565b600081359050613a8b816143ca565b92915050565b600081359050613aa0816143e1565b92915050565b600081519050613ab5816143e1565b92915050565b600081519050613aca816143f8565b92915050565b600060208284031215613ae257600080fd5b6000613af084828501613996565b91505092915050565b60008060408385031215613b0c57600080fd5b6000613b1a85828601613996565b9250506020613b2b85828601613a91565b9150509250929050565b600060608284031215613b4757600080fd5b6000613b55848285016139ab565b91505092915050565b60008060808385031215613b7157600080fd5b6000613b7f858286016139c9565b9250506060613b9085828601613996565b9150509250929050565b60008060808385031215613bad57600080fd5b6000613bbb858286016139c9565b9250506060613bcc85828601613a3d565b9150509250929050565b600060208284031215613be857600080fd5b6000613bf684828501613a52565b91505092915050565b600060208284031215613c1157600080fd5b6000613c1f84828501613a67565b91505092915050565b600060208284031215613c3a57600080fd5b6000613c4884828501613a7c565b91505092915050565b600060208284031215613c6357600080fd5b6000613c7184828501613a91565b91505092915050565b600060208284031215613c8c57600080fd5b6000613c9a84828501613aa6565b91505092915050565b600060208284031215613cb557600080fd5b6000613cc384828501613abb565b91505092915050565b6000613cd88383613f87565b60208301905092915050565b613ced81614340565b82525050565b613cfc816142bd565b82525050565b613d0e60608383614376565b5050565b613d1b81614289565b613d2581846142a1565b9250613d308261427f565b8060005b83811015613d61578151613d488782613ccc565b9650613d5383614294565b925050600181019050613d34565b505050505050565b613d72816142cf565b82525050565b6000613d856012836142ac565b91507f7a65726f20746f6b656e7320737570706c7900000000000000000000000000006000830152602082019050919050565b6000613dc56014836142ac565b91507f776974686472617720717565756520656d7074790000000000000000000000006000830152602082019050919050565b6000613e05600b836142ac565b91507f6c6f636b20706572696f640000000000000000000000000000000000000000006000830152602082019050919050565b6000613e456010836142ac565b91507f4552525f4449565f494e5445524e414c000000000000000000000000000000006000830152602082019050919050565b6000613e856017836142ac565b91507f5472616e73666572206e6f74207375636365737366756c0000000000000000006000830152602082019050919050565b6000613ec56010836142ac565b91507f4552525f4d554c5f4f564552464c4f57000000000000000000000000000000006000830152602082019050919050565b6000613f05600c836142ac565b91507f4552525f4449565f5a45524f00000000000000000000000000000000000000006000830152602082019050919050565b6000613f456007836142ac565b91507f6c6f7720525054000000000000000000000000000000000000000000000000006000830152602082019050919050565b613f81816142ed565b82525050565b613f9081614329565b82525050565b613f9f81614329565b82525050565b6000602082019050613fba6000830184613cf3565b92915050565b6000602082019050613fd56000830184613ce4565b92915050565b6000606082019050613ff06000830186613ce4565b613ffd6020830185613cf3565b61400a6040830184613f96565b949350505050565b60006080820190506140276000830185613ce4565b6140346020830184613d02565b9392505050565b60006040820190506140506000830185613ce4565b61405d6020830184613f96565b9392505050565b60006060820190506140796000830186613cf3565b6140866020830185613cf3565b6140936040830184613f96565b949350505050565b60006040820190506140b06000830185613cf3565b6140bd6020830184613f96565b9392505050565b60006060820190506140d96000830184613d12565b92915050565b60006020820190506140f46000830184613d69565b92915050565b6000602082019050818103600083015261411381613d78565b9050919050565b6000602082019050818103600083015261413381613db8565b9050919050565b6000602082019050818103600083015261415381613df8565b9050919050565b6000602082019050818103600083015261417381613e38565b9050919050565b6000602082019050818103600083015261419381613e78565b9050919050565b600060208201905081810360008301526141b381613eb8565b9050919050565b600060208201905081810360008301526141d381613ef8565b9050919050565b600060208201905081810360008301526141f381613f38565b9050919050565b600060208201905061420f6000830184613f78565b92915050565b600060208201905061422a6000830184613f96565b92915050565b6000604051905081810181811067ffffffffffffffff8211171561425357600080fd5b8060405250919050565b600067ffffffffffffffff82111561427457600080fd5b602082029050919050565b6000819050919050565b600060039050919050565b6000602082019050919050565b600081905092915050565b600082825260208201905092915050565b60006142c882614309565b9050919050565b60008115159050919050565b60006142e6826142bd565b9050919050565b60006fffffffffffffffffffffffffffffffff82169050919050565b600073ffffffffffffffffffffffffffffffffffffffff82169050919050565b6000819050919050565b600060ff82169050919050565b600061434b82614352565b9050919050565b600061435d82614364565b9050919050565b600061436f82614309565b9050919050565b82818337600083830152505050565b61438e816142bd565b811461439957600080fd5b50565b6143a5816142cf565b81146143b057600080fd5b50565b6143bc816142db565b81146143c757600080fd5b50565b6143d3816142ed565b81146143de57600080fd5b50565b6143ea81614329565b81146143f557600080fd5b50565b61440181614333565b811461440c57600080fd5b5056fea26469706673582212207ef754589974234ec3ccd50819d1639f9ba94e469e7e5b70e0946b19d950b66464736f6c634300060c0033",
  "immutableReferences": {},
  "source": "// SPDX-License-Identifier: UNLICENSED\r\npragma solidity ^0.6.0;\r\npragma experimental ABIEncoderV2;\r\n\r\nimport './MathLib.sol';\r\n\r\n\r\nimport './RoyaleLPstorage.sol';\r\n\r\n\r\ncontract RoyaleLP is RoyaleLPstorage, rNum {\r\n\r\n    modifier onlyOwner {\r\n        require(msg.sender == owner);\r\n        _;\r\n    }\r\n\r\n    constructor(\r\n        address[N_COINS] memory _tokens,\r\n        address _rpToken\r\n    ) public {\r\n        // Set owner\r\n        owner = msg.sender;\r\n\r\n        for(uint8 i=0; i<N_COINS; i++) {\r\n            tokens[i] = Erc20(_tokens[i]);\r\n        }\r\n\r\n        // Set RPT\r\n        rpToken = Erc20(_rpToken);\r\n    }\r\n    \r\n    /* EVENTS */\r\n    event userSupplied(\r\n        address user,\r\n        uint[N_COINS] amounts\r\n    );\r\n\r\n    event userRecieved(\r\n        address user,\r\n        uint[N_COINS] amounts\r\n    );\r\n\r\n    event userAddedToQ(\r\n        address user,\r\n        uint[N_COINS] amounts\r\n    );\r\n\r\n    event loanWithdrawn(\r\n        address by,\r\n        uint[N_COINS] requestedAmount,\r\n        uint[N_COINS] remainingAmount,\r\n        uint loanID\r\n    );\r\n\r\n    event loanFulfilled(\r\n        address by,\r\n        uint[N_COINS] requestedAmount,\r\n        uint[N_COINS] remainingAmount,\r\n        uint loanID\r\n    );\r\n\r\n    event loanRepayed(\r\n        address by,\r\n        uint[N_COINS] repayedAmount,\r\n        uint[N_COINS] amountRemaining,\r\n        uint loanID\r\n    );\r\n\r\n    event wholeLoanRepayed(\r\n        address by,\r\n        uint[N_COINS] repayedAmount,\r\n        uint[N_COINS] amountRemaining,\r\n        uint loanID\r\n    );\r\n\r\n\r\n    /* INTERNAL FUNCTIONS */\r\n\r\n    function _getBalances() internal view returns(uint256[N_COINS] memory) {\r\n        uint256[N_COINS] memory balances;\r\n\r\n        for(uint8 i=0; i<N_COINS; i++) {\r\n            balances[i] = tokens[i].balanceOf(address(this));\r\n        }\r\n\r\n        return balances;\r\n    }\r\n\r\n    function calcRptAmount(uint256[N_COINS] memory amounts, bool burn) public view returns(uint256) {\r\n        uint256 rptAmt;\r\n        uint256 total = 0;\r\n        uint256 decimal = 0;\r\n        uint256 totalSuppliedTokens;\r\n        uint256 totalRPTSupply;\r\n\r\n        totalRPTSupply = bdiv(rpToken.totalSupply(), 10**18);\r\n        \r\n        for(uint8 i=0; i<N_COINS; i++) {\r\n            decimal = tokens[i].decimals();\r\n            total += bdiv(selfBalance[i]+loanGiven[i], 10**decimal);\r\n            totalSuppliedTokens += bdiv(amounts[i], 10**decimal);\r\n        }\r\n\r\n        rptAmt = bmul(bdiv(totalSuppliedTokens, total), totalRPTSupply);\r\n\r\n        if(burn == true) {\r\n            rptAmt = rptAmt + (rptAmt * fees) / 10000;\r\n        }\r\n\r\n        return rptAmt;\r\n    }\r\n\r\n    // functions related to deposit and supply\r\n\r\n    // This function deposits the fund to Yield Optimizer\r\n    function _deposit(uint256[N_COINS] memory amounts) internal {\r\n        yldOpt.deposit(amounts);\r\n        \r\n        for(uint8 i=0; i<N_COINS; i++) {\r\n            YieldPoolBalance[i] += amounts[i];\r\n        }\r\n    }\r\n\r\n    function _supply(uint256[N_COINS] memory amounts) internal {\r\n        uint256 mintTokens;        \r\n        mintTokens = calcRptAmount(amounts, false);    \r\n        \r\n        bool result;\r\n        for(uint8 i=0; i<N_COINS; i++) {\r\n            if(amounts[i] > 0) {\r\n                result = tokens[i].transferFrom(\r\n                    msg.sender, \r\n                    address(this), \r\n                    amounts[i]\r\n                );\r\n                require(result,\"Transfer not successful\");\r\n                selfBalance[i] += amounts[i];\r\n                amountSupplied[msg.sender][i] += amounts[i];\r\n            }\r\n        }\r\n    \r\n        // rpToken.mint(msg.sender, mintTokens * 10**10);\r\n        rpToken.mint(msg.sender, mintTokens);\r\n\r\n        bool[N_COINS] memory falseArray;\r\n        depositDetails memory d = depositDetails(amounts, amounts, now, falseArray);\r\n        supplyTime[msg.sender].push(d);\r\n    }\r\n\r\n    // functions related to withdraw, withdraw queue and withdraw from Yield Optimizer\r\n\r\n    function _takeBack(address recipient) internal {\r\n        bool result;\r\n\r\n        uint256 burnAmt;\r\n\r\n        burnAmt = calcRptAmount(amountWithdraw[recipient], true);\r\n        rpToken.burn(recipient, burnAmt);\r\n\r\n        for(uint8 i=0; i<N_COINS; i++) {\r\n            if(\r\n                amountWithdraw[recipient][i] > 0 \r\n                && \r\n                amountSupplied[recipient][i] > 0\r\n            ) {\r\n                result = tokens[i].transfer(\r\n                    recipient,  \r\n                    amountWithdraw[recipient][i]\r\n                );\r\n                require(result);\r\n\r\n                amountSupplied[recipient][i] -= amountWithdraw[recipient][i];\r\n                totalWithdraw[i] -= amountWithdraw[recipient][i];\r\n                selfBalance[i] -= amountWithdraw[recipient][i];\r\n\r\n                uint x = amountWithdraw[recipient][i];\r\n                for(uint8 j=0; j<supplyTime[recipient].length; j++) {\r\n                    if(supplyTime[recipient][j].withdrawn[i] != true && x > 0) {\r\n                        if(x >= supplyTime[recipient][j].remAmt[i]) {\r\n                            x = x - supplyTime[recipient][j].remAmt[i];\r\n                            supplyTime[recipient][j].remAmt[i] = 0;\r\n                            supplyTime[recipient][j].withdrawn[i] = true;\r\n                        }\r\n                        else {\r\n                            supplyTime[recipient][j].remAmt[i] -= x;\r\n                            x = 0;\r\n                        }\r\n                    }\r\n                }\r\n\r\n                amountWithdraw[recipient][i] = 0;\r\n\r\n                isInQ[recipient] = false;\r\n                recipientCount -= 1;\r\n            }\r\n        }\r\n    }\r\n\r\n    // this will fulfill withdraw requests from the queue\r\n    function _giveBack() internal {\r\n        \r\n        uint32 counter = recipientCount;\r\n        for(uint8 i=0; i<counter; i++) {\r\n            address recipient = getFromQ();\r\n            _takeBack(recipient);\r\n        }\r\n\r\n    }\r\n\r\n    // this will add unfulfilled withdraw requests to the queue\r\n    function _takeBackQ(uint256[N_COINS] memory amounts) internal {\r\n        \r\n        for(uint256 i=0; i<N_COINS; i++) {\r\n            if(amounts[i] > 0) {\r\n                amountWithdraw[msg.sender][i] += amounts[i];\r\n                totalWithdraw[i] += amounts[i];\r\n            }\r\n        }\r\n\r\n        if(isInQ[msg.sender] != true) {\r\n            recipientCount += 1;\r\n            isInQ[msg.sender] = true;\r\n            addToQ(msg.sender);\r\n        }\r\n\r\n    }\r\n\r\n    // this will withdraw from Yield Optimizer into this contract\r\n    function _withdraw(uint256[N_COINS] memory amounts) internal {\r\n        yldOpt.withdraw(amounts);\r\n\r\n        for(uint8 i=0; i<N_COINS; i++) {\r\n            YieldPoolBalance[i] -= amounts[i];\r\n        }\r\n    }\r\n\r\n    function availableWithdraw(address addr, uint coin) public view returns(uint256) {\r\n\r\n        uint256 amount=0;\r\n        for(uint8 j=0; j<supplyTime[addr].length; j++) {\r\n            if(\r\n                ((now - supplyTime[addr][j].time) \r\n                > \r\n                (24 * 60 * 60 * lock_period))\r\n                &&\r\n                supplyTime[addr][j].withdrawn[coin] != true\r\n            ) {\r\n                amount += supplyTime[addr][j].remAmt[coin];\r\n            }\r\n        }\r\n\r\n        return amount;\r\n    }\r\n\r\n    /* USER FUNCTIONS (exposed to frontend) */\r\n\r\n    function supply(uint256[N_COINS] calldata amounts) external {\r\n        require(\r\n            calcRptAmount(amounts, false) > 0,\r\n            \"zero tokens supply\"\r\n        );\r\n        \r\n        _supply(amounts);\r\n\r\n        emit userSupplied(msg.sender, amounts);\r\n    }\r\n\r\n    function requestWithdraw(uint256[N_COINS] calldata amounts) external {\r\n        require(\r\n            calcRptAmount(amounts, false) > 0,\r\n            \"zero tokens supply\"\r\n        );\r\n\r\n        uint256 burnAmt;\r\n        burnAmt = calcRptAmount(amounts, true);\r\n        require(\r\n            rpToken.balanceOf(msg.sender) >= burnAmt, \r\n            \"low RPT\"\r\n        );\r\n        \r\n        uint256[N_COINS] memory poolBalance;\r\n        poolBalance = _getBalances();\r\n        \r\n        bool checkTime = true;\r\n        bool instant;\r\n        \r\n        // check if user is withdrawing before lock period\r\n        for(uint8 i=0; i<N_COINS; i++) {\r\n            if(amounts[i] > 0) {\r\n                if(availableWithdraw(msg.sender, i) < amounts[i]) {\r\n                    checkTime = false;\r\n                }\r\n            }\r\n        }\r\n        require(checkTime, \"lock period\");\r\n\r\n        // check if instant withdraw\r\n        for(uint8 i=0; i<N_COINS; i++) {\r\n            if(amounts[i] < poolBalance[i] && amounts[i] != 0) {\r\n                instant = true;\r\n            }\r\n        }\r\n\r\n        if(instant) {\r\n            rpToken.burn(msg.sender, burnAmt);\r\n            bool result;\r\n            for(uint8 i=0; i<N_COINS; i++) {\r\n                if(amounts[i] > 0) {\r\n                    result = tokens[i].transfer(msg.sender, amounts[i]);\r\n                    require(result);\r\n                    amountSupplied[msg.sender][i] -= amounts[i];\r\n                    selfBalance[i] -= amounts[i];\r\n                    \r\n                    uint x = amounts[i];\r\n                    for(uint8 j=0; j<supplyTime[msg.sender].length; j++) {\r\n                        if(supplyTime[msg.sender][j].withdrawn[i] != true && x > 0) {\r\n                            if(x >= supplyTime[msg.sender][j].remAmt[i]) {\r\n                                x = x - supplyTime[msg.sender][j].remAmt[i];\r\n                                supplyTime[msg.sender][j].remAmt[i] = 0;\r\n                                supplyTime[msg.sender][j].withdrawn[i] = true;\r\n                            }\r\n                            else {\r\n                                supplyTime[msg.sender][j].remAmt[i] -= x;\r\n                                x = 0;\r\n                            }\r\n                        }\r\n                    }\r\n\r\n                }\r\n            }\r\n\r\n            emit userRecieved(msg.sender, amounts);\r\n        } else {\r\n            _takeBackQ(amounts);\r\n\r\n            emit userAddedToQ(msg.sender, amounts);\r\n        }\r\n    }\r\n function _loanWithdraw(uint256[N_COINS] memory amounts,address _loanSeeker)public returns(bool){\r\n        _withdraw(amounts);\r\n        for(uint8 i=0; i<N_COINS; i++) {\r\n            if(amounts[i] > 0) {\r\n                loanGiven[i] +=amounts[i];\r\n                selfBalance[i] -=amounts[i];\r\n                tokens[i].transfer(_loanSeeker, amounts[i]);\r\n                \r\n\r\n            }\r\n        }\r\n        return true;\r\n    }\r\n\r\n    function _loanRepayment(uint256[N_COINS] memory amounts,address _loanSeeker)public returns(bool){\r\n        for(uint8 i=0; i<N_COINS; i++) {\r\n            if(amounts[i] > 0) {\r\n                loanGiven[i] -=amounts[i];\r\n                selfBalance[i] +=amounts[i];\r\n                tokens[i].transferFrom(_loanSeeker,address(this),amounts[i]);\r\n\r\n            }\r\n        }\r\n        return true;\r\n    }\r\n\r\nfunction depsoitInRoyale(uint256[N_COINS] calldata amounts)external {\r\n        for(uint8 i=0;i<N_COINS;i++){\r\n            if(amounts[i]!=0){\r\n             tokens[i].transferFrom(msg.sender,address(this),amounts[i]);\r\n             selfBalance[i]+=amounts[i];\r\n            }\r\n        }\r\n    }\r\n\r\n\r\n    /* CORE FUNCTIONS (also exposed to frontend but to be called by owner only) */\r\n\r\n    function deposit() onlyOwner external {\r\n        uint256[N_COINS] memory amounts = _getBalances();\r\n        uint256 decimal;\r\n\r\n        for(uint8 i=0; i<N_COINS; i++) {\r\n            decimal = tokens[i].decimals();\r\n            if(amounts[i] > thresholdTokenAmount*10**decimal) {\r\n                amounts[i] += YieldPoolBalance[i];\r\n                amounts[i] = (amounts[i] * poolPart) / 100;\r\n                amounts[i] = amounts[i] - YieldPoolBalance[i];\r\n                tokens[i].transfer(address(yldOpt), amounts[i]);\r\n            }\r\n            else {\r\n                amounts[i] = 0;\r\n            }\r\n        }\r\n\r\n        uint8 counter = 0;\r\n        for(uint8 i=0; i<N_COINS; i++) {\r\n           if(amounts[i] != 0) {\r\n               counter++;\r\n               break;\r\n           }\r\n        }\r\n\r\n        if(counter > 0){\r\n            _deposit(amounts);\r\n        }\r\n    }\r\n\r\n    function withdraw() onlyOwner external {\r\n\r\n        uint8 counter = 0;\r\n        for(uint8 i=0; i<N_COINS; i++) {\r\n           if(totalWithdraw[i] != 0) {\r\n               counter++;\r\n               break;\r\n           }\r\n        }\r\n\r\n        require(counter > 0, \"withdraw queue empty\");\r\n\r\n        _withdraw(totalWithdraw);\r\n        _giveBack();\r\n    }\r\n\r\n    /* ADMIN FUNCTIONS */\r\n\r\n    function changePoolPart(uint128 _newPoolPart) external onlyOwner returns(bool) {\r\n        poolPart = _newPoolPart;\r\n        return true;\r\n    }\r\n\r\n    function setThresholdTokenAmount(uint256 _newThreshold) external onlyOwner returns(bool) {\r\n        thresholdTokenAmount = _newThreshold;\r\n        return true;\r\n    }\r\n\r\n    function setInitialDeposit() onlyOwner external returns(bool) {\r\n        selfBalance = _getBalances();\r\n        return true;\r\n    }\r\n\r\n    function setYieldOpt(IYieldOpt _yldOpt) onlyOwner external returns(bool) {\r\n        yldOpt = _yldOpt;\r\n        return true;\r\n    }\r\n\r\n    function setLockPeriod(uint128 lockperiod) onlyOwner external returns(bool) {\r\n        lock_period = lockperiod;\r\n        return true;\r\n    }\r\n\r\n    function setWithdrawFees(uint128 _fees) onlyOwner external returns(bool) {\r\n        fees = _fees;\r\n        return true;\r\n    }\r\n\r\n}",
  "sourcePath": "C:/Users/vishn/OneDrive/Desktop/TempRoyakle/rlp/contracts/RoyaleLP.sol",
  "compiler": {
    "name": "solc",
    "version": "0.6.12+commit.27d51765.Emscripten.clang"
  },
  "schemaVersion": "3.3.2",
  "updatedAt": "2020-12-14T06:50:09.610Z",
  "devdoc": {
    "kind": "dev",
    "methods": {},
    "version": 1
  },
  "userdoc": {
    "kind": "user",
    "methods": {},
    "version": 1
  }
}