{
  "contractName": "RoyaleLP",
  "abi": [
    {
      "inputs": [
        {
          "internalType": "address[3]",
          "name": "_tokens",
          "type": "address[3]"
        },
        {
          "internalType": "address",
          "name": "_rpToken",
          "type": "address"
        }
      ],
      "stateMutability": "nonpayable",
      "type": "constructor"
    },
    {
      "anonymous": false,
      "inputs": [
        {
          "indexed": false,
          "internalType": "address",
          "name": "user",
          "type": "address"
        },
        {
          "indexed": false,
          "internalType": "uint256[3]",
          "name": "amounts",
          "type": "uint256[3]"
        }
      ],
      "name": "userAddedToQ",
      "type": "event"
    },
    {
      "anonymous": false,
      "inputs": [
        {
          "indexed": false,
          "internalType": "address",
          "name": "user",
          "type": "address"
        },
        {
          "indexed": false,
          "internalType": "uint256[3]",
          "name": "amounts",
          "type": "uint256[3]"
        }
      ],
      "name": "userRecieved",
      "type": "event"
    },
    {
      "anonymous": false,
      "inputs": [
        {
          "indexed": false,
          "internalType": "address",
          "name": "user",
          "type": "address"
        },
        {
          "indexed": false,
          "internalType": "uint256[3]",
          "name": "amounts",
          "type": "uint256[3]"
        }
      ],
      "name": "userSupplied",
      "type": "event"
    },
    {
      "inputs": [],
      "name": "BASE_DECIMAL",
      "outputs": [
        {
          "internalType": "uint256",
          "name": "",
          "type": "uint256"
        }
      ],
      "stateMutability": "view",
      "type": "function"
    },
    {
      "inputs": [
        {
          "internalType": "uint256",
          "name": "",
          "type": "uint256"
        }
      ],
      "name": "YieldPoolBalance",
      "outputs": [
        {
          "internalType": "uint256",
          "name": "",
          "type": "uint256"
        }
      ],
      "stateMutability": "view",
      "type": "function"
    },
    {
      "inputs": [
        {
          "internalType": "address",
          "name": "",
          "type": "address"
        },
        {
          "internalType": "uint256",
          "name": "",
          "type": "uint256"
        }
      ],
      "name": "amountSupplied",
      "outputs": [
        {
          "internalType": "uint256",
          "name": "",
          "type": "uint256"
        }
      ],
      "stateMutability": "view",
      "type": "function"
    },
    {
      "inputs": [],
      "name": "fees",
      "outputs": [
        {
          "internalType": "uint128",
          "name": "",
          "type": "uint128"
        }
      ],
      "stateMutability": "view",
      "type": "function"
    },
    {
      "inputs": [
        {
          "internalType": "address",
          "name": "",
          "type": "address"
        }
      ],
      "name": "isInQ",
      "outputs": [
        {
          "internalType": "bool",
          "name": "",
          "type": "bool"
        }
      ],
      "stateMutability": "view",
      "type": "function"
    },
    {
      "inputs": [
        {
          "internalType": "uint256",
          "name": "",
          "type": "uint256"
        }
      ],
      "name": "loanGiven",
      "outputs": [
        {
          "internalType": "uint256",
          "name": "",
          "type": "uint256"
        }
      ],
      "stateMutability": "view",
      "type": "function"
    },
    {
      "inputs": [],
      "name": "lock_period",
      "outputs": [
        {
          "internalType": "uint128",
          "name": "",
          "type": "uint128"
        }
      ],
      "stateMutability": "view",
      "type": "function"
    },
    {
      "inputs": [],
      "name": "owner",
      "outputs": [
        {
          "internalType": "address",
          "name": "",
          "type": "address"
        }
      ],
      "stateMutability": "view",
      "type": "function"
    },
    {
      "inputs": [],
      "name": "poolPart",
      "outputs": [
        {
          "internalType": "uint128",
          "name": "",
          "type": "uint128"
        }
      ],
      "stateMutability": "view",
      "type": "function"
    },
    {
      "inputs": [
        {
          "internalType": "uint256",
          "name": "",
          "type": "uint256"
        }
      ],
      "name": "selfBalance",
      "outputs": [
        {
          "internalType": "uint256",
          "name": "",
          "type": "uint256"
        }
      ],
      "stateMutability": "view",
      "type": "function"
    },
    {
      "inputs": [],
      "name": "thresholdTokenAmount",
      "outputs": [
        {
          "internalType": "uint256",
          "name": "",
          "type": "uint256"
        }
      ],
      "stateMutability": "view",
      "type": "function"
    },
    {
      "inputs": [
        {
          "internalType": "uint256",
          "name": "",
          "type": "uint256"
        }
      ],
      "name": "totalWithdraw",
      "outputs": [
        {
          "internalType": "uint256",
          "name": "",
          "type": "uint256"
        }
      ],
      "stateMutability": "view",
      "type": "function"
    },
    {
      "inputs": [
        {
          "internalType": "uint256[3]",
          "name": "amounts",
          "type": "uint256[3]"
        },
        {
          "internalType": "bool",
          "name": "burn",
          "type": "bool"
        }
      ],
      "name": "calcRptAmount",
      "outputs": [
        {
          "internalType": "uint256",
          "name": "",
          "type": "uint256"
        }
      ],
      "stateMutability": "view",
      "type": "function"
    },
    {
      "inputs": [
        {
          "internalType": "address",
          "name": "addr",
          "type": "address"
        },
        {
          "internalType": "uint256",
          "name": "coin",
          "type": "uint256"
        }
      ],
      "name": "availableWithdraw",
      "outputs": [
        {
          "internalType": "uint256",
          "name": "",
          "type": "uint256"
        }
      ],
      "stateMutability": "view",
      "type": "function"
    },
    {
      "inputs": [
        {
          "internalType": "uint256[3]",
          "name": "amounts",
          "type": "uint256[3]"
        }
      ],
      "name": "supply",
      "outputs": [],
      "stateMutability": "nonpayable",
      "type": "function"
    },
    {
      "inputs": [
        {
          "internalType": "uint256[3]",
          "name": "amounts",
          "type": "uint256[3]"
        }
      ],
      "name": "requestWithdraw",
      "outputs": [],
      "stateMutability": "nonpayable",
      "type": "function"
    },
    {
      "inputs": [
        {
          "internalType": "uint256[3]",
          "name": "amounts",
          "type": "uint256[3]"
        },
        {
          "internalType": "address",
          "name": "_loanSeeker",
          "type": "address"
        }
      ],
      "name": "_loanWithdraw",
      "outputs": [
        {
          "internalType": "bool",
          "name": "",
          "type": "bool"
        }
      ],
      "stateMutability": "nonpayable",
      "type": "function"
    },
    {
      "inputs": [
        {
          "internalType": "uint256[3]",
          "name": "amounts",
          "type": "uint256[3]"
        },
        {
          "internalType": "address",
          "name": "_loanSeeker",
          "type": "address"
        }
      ],
      "name": "_loanRepayment",
      "outputs": [
        {
          "internalType": "bool",
          "name": "",
          "type": "bool"
        }
      ],
      "stateMutability": "nonpayable",
      "type": "function"
    },
    {
      "inputs": [],
      "name": "getCurrentPoolBalance",
      "outputs": [
        {
          "internalType": "uint256[3]",
          "name": "",
          "type": "uint256[3]"
        }
      ],
      "stateMutability": "view",
      "type": "function"
    },
    {
      "inputs": [],
      "name": "getTotalLoanGiven",
      "outputs": [
        {
          "internalType": "uint256[3]",
          "name": "",
          "type": "uint256[3]"
        }
      ],
      "stateMutability": "view",
      "type": "function"
    },
    {
      "inputs": [
        {
          "internalType": "uint256[3]",
          "name": "amounts",
          "type": "uint256[3]"
        }
      ],
      "name": "depsoitInRoyale",
      "outputs": [],
      "stateMutability": "nonpayable",
      "type": "function"
    },
    {
      "inputs": [],
      "name": "deposit",
      "outputs": [],
      "stateMutability": "nonpayable",
      "type": "function"
    },
    {
      "inputs": [],
      "name": "withdraw",
      "outputs": [],
      "stateMutability": "nonpayable",
      "type": "function"
    },
    {
      "inputs": [
        {
          "internalType": "uint128",
          "name": "_newPoolPart",
          "type": "uint128"
        }
      ],
      "name": "changePoolPart",
      "outputs": [
        {
          "internalType": "bool",
          "name": "",
          "type": "bool"
        }
      ],
      "stateMutability": "nonpayable",
      "type": "function"
    },
    {
      "inputs": [
        {
          "internalType": "uint256",
          "name": "_newThreshold",
          "type": "uint256"
        }
      ],
      "name": "setThresholdTokenAmount",
      "outputs": [
        {
          "internalType": "bool",
          "name": "",
          "type": "bool"
        }
      ],
      "stateMutability": "nonpayable",
      "type": "function"
    },
    {
      "inputs": [],
      "name": "setInitialDeposit",
      "outputs": [
        {
          "internalType": "bool",
          "name": "",
          "type": "bool"
        }
      ],
      "stateMutability": "nonpayable",
      "type": "function"
    },
    {
      "inputs": [
        {
          "internalType": "contract IYieldOpt",
          "name": "_yldOpt",
          "type": "address"
        }
      ],
      "name": "setYieldOpt",
      "outputs": [
        {
          "internalType": "bool",
          "name": "",
          "type": "bool"
        }
      ],
      "stateMutability": "nonpayable",
      "type": "function"
    },
    {
      "inputs": [
        {
          "internalType": "uint128",
          "name": "lockperiod",
          "type": "uint128"
        }
      ],
      "name": "setLockPeriod",
      "outputs": [
        {
          "internalType": "bool",
          "name": "",
          "type": "bool"
        }
      ],
      "stateMutability": "nonpayable",
      "type": "function"
    },
    {
      "inputs": [
        {
          "internalType": "uint128",
          "name": "_fees",
          "type": "uint128"
        }
      ],
      "name": "setWithdrawFees",
      "outputs": [
        {
          "internalType": "bool",
          "name": "",
          "type": "bool"
        }
      ],
      "stateMutability": "nonpayable",
      "type": "function"
    }
  ],
  "bytecode": "0x60806040526001805560006002556019600460006101000a8154816fffffffffffffffffffffffffffffffff02191690836fffffffffffffffffffffffffffffffff160217905550605f600460106101000a8154816fffffffffffffffffffffffffffffffff02191690836fffffffffffffffffffffffffffffffff1602179055506101f46011553480156200009457600080fd5b506040516200490c3803806200490c8339818101604052810190620000ba91906200026f565b33600960006101000a81548173ffffffffffffffffffffffffffffffffffffffff021916908373ffffffffffffffffffffffffffffffffffffffff16021790555060005b60036fffffffffffffffffffffffffffffffff168160ff1610156200019057828160ff16600381106200012d57fe5b6020020151600a8260ff16600381106200014357fe5b0160006101000a81548173ffffffffffffffffffffffffffffffffffffffff021916908373ffffffffffffffffffffffffffffffffffffffff1602179055508080600101915050620000fe565b5080600d60006101000a81548173ffffffffffffffffffffffffffffffffffffffff021916908373ffffffffffffffffffffffffffffffffffffffff16021790555050506200034f565b600081519050620001eb8162000335565b92915050565b600082601f8301126200020357600080fd5b60036200021a6200021482620002de565b620002b0565b915081838560208402820111156200023157600080fd5b60005b838110156200026557816200024a8882620001da565b84526020840193506020830192505060018101905062000234565b5050505092915050565b600080608083850312156200028357600080fd5b60006200029385828601620001f1565b9250506060620002a685828601620001da565b9150509250929050565b6000604051905081810181811067ffffffffffffffff82111715620002d457600080fd5b8060405250919050565b600067ffffffffffffffff821115620002f657600080fd5b602082029050919050565b60006200030e8262000315565b9050919050565b600073ffffffffffffffffffffffffffffffffffffffff82169050919050565b620003408162000301565b81146200034c57600080fd5b50565b6145ad806200035f6000396000f3fe608060405234801561001057600080fd5b50600436106101cf5760003560e01c80638af8147811610104578063b8b10680116100a2578063d0e30db011610071578063d0e30db014610592578063db28bfd01461059c578063eacd7afc146105cc578063f83e9a20146105fc576101cf565b8063b8b10680146104f6578063c23177b214610526578063c277b65714610556578063c89eb03614610574576101cf565b8063905f692e116100de578063905f692e146104485780639af1d35a14610478578063a6d8fcb214610496578063a70200bd146104c6576101cf565b80638af81478146103ee5780638da5cb5b1461040c5780638e9b03261461042a576101cf565b806347d4a6a8116101715780636b9f1ef61161014b5780636b9f1ef61461032e5780636d6ea2571461035e578063800012881461038e57806381f433f0146103be576101cf565b806347d4a6a8146102c457806352f6e238146102e057806369850424146102fe576101cf565b8063224a1418116101ad578063224a14181461023e57806331805a2b1461025a57806332b72e0b1461028a5780633ccfd60b146102ba576101cf565b80630d88122c146101d457806311e87188146101f0578063147453e91461020e575b600080fd5b6101ee60048036038101906101e99190613c9d565b61061a565b005b6101f861071a565b604051610205919061422c565b60405180910390f35b61022860048036038101906102239190613d02565b610765565b604051610235919061437d565b60405180910390f35b61025860048036038101906102539190613c9d565b6109d0565b005b610274600480360381019061026f9190613db9565b610b24565b604051610281919061437d565b60405180910390f35b6102a4600480360381019061029f9190613d67565b610b3c565b6040516102b19190614247565b60405180910390f35b6102c2610be2565b005b6102de60048036038101906102d99190613c9d565b610d29565b005b6102e86116d9565b6040516102f59190614247565b60405180910390f35b61031860048036038101906103139190613db9565b611755565b604051610325919061437d565b60405180910390f35b61034860048036038101906103439190613d90565b61176d565b6040516103559190614247565b60405180910390f35b61037860048036038101906103739190613db9565b61180b565b604051610385919061437d565b60405180910390f35b6103a860048036038101906103a39190613cc6565b611823565b6040516103b59190614247565b60405180910390f35b6103d860048036038101906103d39190613d90565b6119b6565b6040516103e59190614247565b60405180910390f35b6103f6611a54565b604051610403919061437d565b60405180910390f35b610414611a60565b604051610421919061410d565b60405180910390f35b610432611a86565b60405161043f9190614362565b60405180910390f35b610462600480360381019061045d9190613c38565b611aa8565b60405161046f9190614247565b60405180910390f35b610480611ac8565b60405161048d9190614362565b60405180910390f35b6104b060048036038101906104ab9190613c61565b611aea565b6040516104bd919061437d565b60405180910390f35b6104e060048036038101906104db9190613d90565b611cf5565b6040516104ed9190614247565b60405180910390f35b610510600480360381019061050b9190613db9565b611d93565b60405161051d9190614247565b60405180910390f35b610540600480360381019061053b9190613c61565b611dff565b60405161054d919061437d565b60405180910390f35b61055e611e24565b60405161056b919061422c565b60405180910390f35b61057c611e6f565b604051610589919061437d565b60405180910390f35b61059a611e75565b005b6105b660048036038101906105b19190613db9565b612249565b6040516105c3919061437d565b60405180910390f35b6105e660048036038101906105e19190613cc6565b612261565b6040516105f39190614247565b60405180910390f35b6106046123f8565b6040516106119190614362565b60405180910390f35b600061065e826003806020026040519081016040528092919082600360200280828437600081840152601f19601f8201169050808301925050505050506000610765565b1161069e576040517f08c379a000000000000000000000000000000000000000000000000000000000815260040161069590614262565b60405180910390fd5b6106de816003806020026040519081016040528092919082600360200280828437600081840152601f19601f82011690508083019250505050505061241a565b7fe7f2330a99451f199f91ed2ac09887e25894cb0e14021fe5d29bc959e7283d0e338260405161070f92919061417a565b60405180910390a150565b610722613962565b600560038060200260405190810160405280929190826003801561075b576020028201915b815481526020019060010190808311610747575b5050505050905090565b60008060008060008061081f600d60009054906101000a900473ffffffffffffffffffffffffffffffffffffffff1673ffffffffffffffffffffffffffffffffffffffff166318160ddd6040518163ffffffff1660e01b815260040160206040518083038186803b1580156107d957600080fd5b505afa1580156107ed573d6000803e3d6000fd5b505050506040513d601f19601f820116820180604052508101906108119190613de2565b670de0b6b3a76400006127b6565b905060005b60036fffffffffffffffffffffffffffffffff168160ff16101561095c57600a8160ff166003811061085257fe5b0160009054906101000a900473ffffffffffffffffffffffffffffffffffffffff1673ffffffffffffffffffffffffffffffffffffffff1663313ce5676040518163ffffffff1660e01b815260040160206040518083038186803b1580156108b957600080fd5b505afa1580156108cd573d6000803e3d6000fd5b505050506040513d601f19601f820116820180604052508101906108f19190613e0b565b60ff169350610927601b8260ff166003811061090957fe5b015460058360ff166003811061091b57fe5b01540185600a0a6127b6565b8501945061094b898260ff166003811061093d57fe5b602002015185600a0a6127b6565b830192508080600101915050610824565b5061097061096a83866127b6565b826128d6565b94506001151587151514156109c257612710600460009054906101000a90046fffffffffffffffffffffffffffffffff166fffffffffffffffffffffffffffffffff168602816109bc57fe5b04850194505b849550505050505092915050565b60005b60036fffffffffffffffffffffffffffffffff168160ff161015610b20576000828260ff1660038110610a0257fe5b602002013514610b1357600a8160ff1660038110610a1c57fe5b0160009054906101000a900473ffffffffffffffffffffffffffffffffffffffff1673ffffffffffffffffffffffffffffffffffffffff166323b872dd3330858560ff1660038110610a6a57fe5b60200201356040518463ffffffff1660e01b8152600401610a8d93929190614143565b602060405180830381600087803b158015610aa757600080fd5b505af1158015610abb573d6000803e3d6000fd5b505050506040513d601f19601f82011682018060405250810190610adf9190613d3e565b50818160ff1660038110610aef57fe5b602002013560058260ff1660038110610b0457fe5b01600082825401925050819055505b80806001019150506109d3565b5050565b600e8160038110610b3157fe5b016000915090505481565b6000600960009054906101000a900473ffffffffffffffffffffffffffffffffffffffff1673ffffffffffffffffffffffffffffffffffffffff163373ffffffffffffffffffffffffffffffffffffffff1614610b9857600080fd5b81600860006101000a81548173ffffffffffffffffffffffffffffffffffffffff021916908373ffffffffffffffffffffffffffffffffffffffff16021790555060019050919050565b600960009054906101000a900473ffffffffffffffffffffffffffffffffffffffff1673ffffffffffffffffffffffffffffffffffffffff163373ffffffffffffffffffffffffffffffffffffffff1614610c3c57600080fd5b6000805b60036fffffffffffffffffffffffffffffffff168160ff161015610c9157600060188260ff1660038110610c7057fe5b015414610c84578180600101925050610c91565b8080600101915050610c40565b5060008160ff1611610cd8576040517f08c379a0000000000000000000000000000000000000000000000000000000008152600401610ccf90614282565b60405180910390fd5b610d1e6018600380602002604051908101604052809291908260038015610d14576020028201915b815481526020019060010190808311610d00575b50505050506129b2565b610d26612aa3565b50565b6000610d6d826003806020026040519081016040528092919082600360200280828437600081840152601f19601f8201169050808301925050505050506000610765565b11610dad576040517f08c379a0000000000000000000000000000000000000000000000000000000008152600401610da490614262565b60405180910390fd5b6000610df1826003806020026040519081016040528092919082600360200280828437600081840152601f19601f8201169050808301925050505050506001610765565b905080600d60009054906101000a900473ffffffffffffffffffffffffffffffffffffffff1673ffffffffffffffffffffffffffffffffffffffff166370a08231336040518263ffffffff1660e01b8152600401610e4f9190614128565b60206040518083038186803b158015610e6757600080fd5b505afa158015610e7b573d6000803e3d6000fd5b505050506040513d601f19601f82011682018060405250810190610e9f9190613de2565b1015610ee0576040517f08c379a0000000000000000000000000000000000000000000000000000000008152600401610ed790614342565b60405180910390fd5b610ee8613962565b610ef0612af5565b9050600060019050600080600090505b60036fffffffffffffffffffffffffffffffff168160ff161015610f74576000868260ff1660038110610f2f57fe5b60200201351115610f6757858160ff1660038110610f4957fe5b6020020135610f5b338360ff16611aea565b1015610f6657600092505b5b8080600101915050610f00565b5081610fb5576040517f08c379a0000000000000000000000000000000000000000000000000000000008152600401610fac906142a2565b60405180910390fd5b60005b60036fffffffffffffffffffffffffffffffff168160ff16101561103657838160ff1660038110610fe557fe5b6020020151868260ff1660038110610ff957fe5b602002013510801561101f57506000868260ff166003811061101757fe5b602002013514155b1561102957600191505b8080600101915050610fb8565b50801561165857600d60009054906101000a900473ffffffffffffffffffffffffffffffffffffffff1673ffffffffffffffffffffffffffffffffffffffff16639dc29fac33866040518363ffffffff1660e01b815260040161109a9291906141a3565b600060405180830381600087803b1580156110b457600080fd5b505af11580156110c8573d6000803e3d6000fd5b50505050600080600090505b60036fffffffffffffffffffffffffffffffff168160ff161015611618576000878260ff166003811061110357fe5b6020020135111561160b57600a8160ff166003811061111e57fe5b0160009054906101000a900473ffffffffffffffffffffffffffffffffffffffff1673ffffffffffffffffffffffffffffffffffffffff1663a9059cbb33898460ff166003811061116b57fe5b60200201356040518363ffffffff1660e01b815260040161118d9291906141a3565b602060405180830381600087803b1580156111a757600080fd5b505af11580156111bb573d6000803e3d6000fd5b505050506040513d601f19601f820116820180604052508101906111df9190613d3e565b9150816111eb57600080fd5b868160ff16600381106111fa57fe5b6020020135601360003373ffffffffffffffffffffffffffffffffffffffff1673ffffffffffffffffffffffffffffffffffffffff1681526020019081526020016000208260ff166003811061124c57fe5b0160008282540392505081905550868160ff166003811061126957fe5b602002013560058260ff166003811061127e57fe5b01600082825403925050819055506000878260ff166003811061129d57fe5b6020020135905060005b601460003373ffffffffffffffffffffffffffffffffffffffff1673ffffffffffffffffffffffffffffffffffffffff168152602001908152602001600020805490508160ff1610156116085760011515601460003373ffffffffffffffffffffffffffffffffffffffff1673ffffffffffffffffffffffffffffffffffffffff1681526020019081526020016000208260ff168154811061134557fe5b90600052602060002090600802016007018460ff166003811061136457fe5b602091828204019190069054906101000a900460ff1615151415801561138a5750600082115b156115fb57601460003373ffffffffffffffffffffffffffffffffffffffff1673ffffffffffffffffffffffffffffffffffffffff1681526020019081526020016000208160ff16815481106113dc57fe5b90600052602060002090600802016003018360ff16600381106113fb57fe5b0154821061157a57601460003373ffffffffffffffffffffffffffffffffffffffff1673ffffffffffffffffffffffffffffffffffffffff1681526020019081526020016000208160ff168154811061145057fe5b90600052602060002090600802016003018360ff166003811061146f57fe5b0154820391506000601460003373ffffffffffffffffffffffffffffffffffffffff1673ffffffffffffffffffffffffffffffffffffffff1681526020019081526020016000208260ff16815481106114c457fe5b90600052602060002090600802016003018460ff16600381106114e357fe5b01819055506001601460003373ffffffffffffffffffffffffffffffffffffffff1673ffffffffffffffffffffffffffffffffffffffff1681526020019081526020016000208260ff168154811061153757fe5b90600052602060002090600802016007018460ff166003811061155657fe5b602091828204019190066101000a81548160ff0219169083151502179055506115fa565b81601460003373ffffffffffffffffffffffffffffffffffffffff1673ffffffffffffffffffffffffffffffffffffffff1681526020019081526020016000208260ff16815481106115c857fe5b90600052602060002090600802016003018460ff16600381106115e757fe5b0160008282540392505081905550600091505b5b80806001019150506112a7565b50505b80806001019150506110d4565b507fe9c01f7dea3ef08b44263b3cf5963eb42309e5fb5bec9305dbe12b82f37b519c338760405161164a92919061417a565b60405180910390a1506116d2565b611698856003806020026040519081016040528092919082600360200280828437600081840152601f19601f820116905080830192505050505050612c0d565b7fe2d5e24e56e4f05473adb8bb616473de3894beab8011d32382a638d1d2617c9333866040516116c992919061417a565b60405180910390a15b5050505050565b6000600960009054906101000a900473ffffffffffffffffffffffffffffffffffffffff1673ffffffffffffffffffffffffffffffffffffffff163373ffffffffffffffffffffffffffffffffffffffff161461173557600080fd5b61173d612af5565b600590600361174d929190613984565b506001905090565b6005816003811061176257fe5b016000915090505481565b6000600960009054906101000a900473ffffffffffffffffffffffffffffffffffffffff1673ffffffffffffffffffffffffffffffffffffffff163373ffffffffffffffffffffffffffffffffffffffff16146117c957600080fd5b81600460006101000a8154816fffffffffffffffffffffffffffffffff02191690836fffffffffffffffffffffffffffffffff16021790555060019050919050565b601b816003811061181857fe5b016000915090505481565b600080600090505b60036fffffffffffffffffffffffffffffffff168160ff1610156119ab576000848260ff166003811061185a57fe5b6020020151111561199e57838160ff166003811061187457fe5b6020020151601b8260ff166003811061188957fe5b0160008282540392505081905550838160ff16600381106118a657fe5b602002015160058260ff16600381106118bb57fe5b0160008282540192505081905550600a8160ff16600381106118d957fe5b0160009054906101000a900473ffffffffffffffffffffffffffffffffffffffff1673ffffffffffffffffffffffffffffffffffffffff166323b872dd8430878560ff166003811061192757fe5b60200201516040518463ffffffff1660e01b815260040161194a939291906141cc565b602060405180830381600087803b15801561196457600080fd5b505af1158015611978573d6000803e3d6000fd5b505050506040513d601f19601f8201168201806040525081019061199c9190613d3e565b505b808060010191505061182b565b506001905092915050565b6000600960009054906101000a900473ffffffffffffffffffffffffffffffffffffffff1673ffffffffffffffffffffffffffffffffffffffff163373ffffffffffffffffffffffffffffffffffffffff1614611a1257600080fd5b81601260006101000a8154816fffffffffffffffffffffffffffffffff02191690836fffffffffffffffffffffffffffffffff16021790555060019050919050565b670de0b6b3a764000081565b600960009054906101000a900473ffffffffffffffffffffffffffffffffffffffff1681565b600460109054906101000a90046fffffffffffffffffffffffffffffffff1681565b60166020528060005260406000206000915054906101000a900460ff1681565b600460009054906101000a90046fffffffffffffffffffffffffffffffff1681565b6000806000905060005b601460008673ffffffffffffffffffffffffffffffffffffffff1673ffffffffffffffffffffffffffffffffffffffff168152602001908152602001600020805490508160ff161015611cea57601260009054906101000a90046fffffffffffffffffffffffffffffffff1662015180026fffffffffffffffffffffffffffffffff16601460008773ffffffffffffffffffffffffffffffffffffffff1673ffffffffffffffffffffffffffffffffffffffff1681526020019081526020016000208260ff1681548110611bc457fe5b9060005260206000209060080201600601544203118015611c68575060011515601460008773ffffffffffffffffffffffffffffffffffffffff1673ffffffffffffffffffffffffffffffffffffffff1681526020019081526020016000208260ff1681548110611c3157fe5b90600052602060002090600802016007018560038110611c4d57fe5b602091828204019190069054906101000a900460ff16151514155b15611cdd57601460008673ffffffffffffffffffffffffffffffffffffffff1673ffffffffffffffffffffffffffffffffffffffff1681526020019081526020016000208160ff1681548110611cba57fe5b90600052602060002090600802016003018460038110611cd657fe5b0154820191505b8080600101915050611af4565b508091505092915050565b6000600960009054906101000a900473ffffffffffffffffffffffffffffffffffffffff1673ffffffffffffffffffffffffffffffffffffffff163373ffffffffffffffffffffffffffffffffffffffff1614611d5157600080fd5b81600460106101000a8154816fffffffffffffffffffffffffffffffff02191690836fffffffffffffffffffffffffffffffff16021790555060019050919050565b6000600960009054906101000a900473ffffffffffffffffffffffffffffffffffffffff1673ffffffffffffffffffffffffffffffffffffffff163373ffffffffffffffffffffffffffffffffffffffff1614611def57600080fd5b8160118190555060019050919050565b60136020528160005260406000208160038110611e1857fe5b01600091509150505481565b611e2c613962565b601b600380602002604051908101604052809291908260038015611e65576020028201915b815481526020019060010190808311611e51575b5050505050905090565b60115481565b600960009054906101000a900473ffffffffffffffffffffffffffffffffffffffff1673ffffffffffffffffffffffffffffffffffffffff163373ffffffffffffffffffffffffffffffffffffffff1614611ecf57600080fd5b611ed7613962565b611edf612af5565b9050600080600090505b60036fffffffffffffffffffffffffffffffff168160ff1610156121d557600a8160ff1660038110611f1757fe5b0160009054906101000a900473ffffffffffffffffffffffffffffffffffffffff1673ffffffffffffffffffffffffffffffffffffffff1663313ce5676040518163ffffffff1660e01b815260040160206040518083038186803b158015611f7e57600080fd5b505afa158015611f92573d6000803e3d6000fd5b505050506040513d601f19601f82011682018060405250810190611fb69190613e0b565b60ff16915081600a0a60115402838260ff1660038110611fd257fe5b602002015111156121ad57600e8160ff1660038110611fed57fe5b0154838260ff1660038110611ffe57fe5b6020020181815101915081815250506064600460109054906101000a90046fffffffffffffffffffffffffffffffff166fffffffffffffffffffffffffffffffff16848360ff166003811061204f57fe5b6020020151028161205c57fe5b04838260ff166003811061206c57fe5b602002018181525050600e8160ff166003811061208557fe5b0154838260ff166003811061209657fe5b602002015103838260ff16600381106120ab57fe5b602002018181525050600a8160ff16600381106120c457fe5b0160009054906101000a900473ffffffffffffffffffffffffffffffffffffffff1673ffffffffffffffffffffffffffffffffffffffff1663a9059cbb600860009054906101000a900473ffffffffffffffffffffffffffffffffffffffff16858460ff166003811061213357fe5b60200201516040518363ffffffff1660e01b8152600401612155929190614203565b602060405180830381600087803b15801561216f57600080fd5b505af1158015612183573d6000803e3d6000fd5b505050506040513d601f19601f820116820180604052508101906121a79190613d3e565b506121c8565b6000838260ff16600381106121be57fe5b6020020181815250505b8080600101915050611ee9565b506000805b60036fffffffffffffffffffffffffffffffff168160ff16101561222d576000848260ff166003811061220957fe5b60200201511461222057818060010192505061222d565b80806001019150506121da565b5060008160ff1611156122445761224383612ddc565b5b505050565b6018816003811061225657fe5b016000915090505481565b600061226c836129b2565b60005b60036fffffffffffffffffffffffffffffffff168160ff1610156123ed576000848260ff166003811061229e57fe5b602002015111156123e057838160ff16600381106122b857fe5b6020020151601b8260ff16600381106122cd57fe5b0160008282540192505081905550838160ff16600381106122ea57fe5b602002015160058260ff16600381106122ff57fe5b0160008282540392505081905550600a8160ff166003811061231d57fe5b0160009054906101000a900473ffffffffffffffffffffffffffffffffffffffff1673ffffffffffffffffffffffffffffffffffffffff1663a9059cbb84868460ff166003811061236a57fe5b60200201516040518363ffffffff1660e01b815260040161238c929190614203565b602060405180830381600087803b1580156123a657600080fd5b505af11580156123ba573d6000803e3d6000fd5b505050506040513d601f19601f820116820180604052508101906123de9190613d3e565b505b808060010191505061226f565b506001905092915050565b601260009054906101000a90046fffffffffffffffffffffffffffffffff1681565b6000612427826000610765565b9050600080600090505b60036fffffffffffffffffffffffffffffffff168160ff16101561262f576000848260ff166003811061246057fe5b6020020151111561262257600a8160ff166003811061247b57fe5b0160009054906101000a900473ffffffffffffffffffffffffffffffffffffffff1673ffffffffffffffffffffffffffffffffffffffff166323b872dd3330878560ff16600381106124c957fe5b60200201516040518463ffffffff1660e01b81526004016124ec93929190614143565b602060405180830381600087803b15801561250657600080fd5b505af115801561251a573d6000803e3d6000fd5b505050506040513d601f19601f8201168201806040525081019061253e9190613d3e565b915081612580576040517f08c379a0000000000000000000000000000000000000000000000000000000008152600401612577906142e2565b60405180910390fd5b838160ff166003811061258f57fe5b602002015160058260ff16600381106125a457fe5b0160008282540192505081905550838160ff16600381106125c157fe5b6020020151601360003373ffffffffffffffffffffffffffffffffffffffff1673ffffffffffffffffffffffffffffffffffffffff1681526020019081526020016000208260ff166003811061261357fe5b01600082825401925050819055505b8080600101915050612431565b50600d60009054906101000a900473ffffffffffffffffffffffffffffffffffffffff1673ffffffffffffffffffffffffffffffffffffffff166340c10f1933846040518363ffffffff1660e01b815260040161268d9291906141a3565b600060405180830381600087803b1580156126a757600080fd5b505af11580156126bb573d6000803e3d6000fd5b505050506126c76139c4565b6126cf6139e6565b6040518060800160405280868152602001868152602001428152602001838152509050601460003373ffffffffffffffffffffffffffffffffffffffff1673ffffffffffffffffffffffffffffffffffffffff168152602001908152602001600020819080600181540180825580915050600190039060005260206000209060080201600090919091909150600082015181600001906003612772929190613984565b5060208201518160030190600361278a929190613984565b50604082015181600601556060820151816007019060036127ac929190613a20565b5050505050505050565b6000808214156127fb576040517f08c379a00000000000000000000000000000000000000000000000000000000081526004016127f290614322565b60405180910390fd5b6000670de0b6b3a76400008402905060008414806128295750670de0b6b3a764000084828161282657fe5b04145b612868576040517f08c379a000000000000000000000000000000000000000000000000000000000815260040161285f906142c2565b60405180910390fd5b60006002848161287457fe5b0482019050818110156128bc576040517f08c379a00000000000000000000000000000000000000000000000000000000081526004016128b3906142c2565b60405180910390fd5b60008482816128c757fe5b04905080935050505092915050565b600080828402905060008414806128f55750828482816128f257fe5b04145b612934576040517f08c379a000000000000000000000000000000000000000000000000000000000815260040161292b90614302565b60405180910390fd5b60006002670de0b6b3a76400008161294857fe5b048201905081811015612990576040517f08c379a000000000000000000000000000000000000000000000000000000000815260040161298790614302565b60405180910390fd5b6000670de0b6b3a764000082816129a357fe5b04905080935050505092915050565b600860009054906101000a900473ffffffffffffffffffffffffffffffffffffffff1673ffffffffffffffffffffffffffffffffffffffff1663b1b8f1be826040518263ffffffff1660e01b8152600401612a0d919061422c565b600060405180830381600087803b158015612a2757600080fd5b505af1158015612a3b573d6000803e3d6000fd5b5050505060005b60036fffffffffffffffffffffffffffffffff168160ff161015612a9f57818160ff1660038110612a6f57fe5b6020020151600e8260ff1660038110612a8457fe5b01600082825403925050819055508080600101915050612a42565b5050565b6000601760009054906101000a900463ffffffff16905060005b8163ffffffff168160ff161015612af1576000612ad8612ecd565b9050612ae381612fc4565b508080600101915050612abd565b5050565b612afd613962565b612b05613962565b60005b60036fffffffffffffffffffffffffffffffff168160ff161015612c0557600a8160ff1660038110612b3657fe5b0160009054906101000a900473ffffffffffffffffffffffffffffffffffffffff1673ffffffffffffffffffffffffffffffffffffffff166370a08231306040518263ffffffff1660e01b8152600401612b90919061410d565b60206040518083038186803b158015612ba857600080fd5b505afa158015612bbc573d6000803e3d6000fd5b505050506040513d601f19601f82011682018060405250810190612be09190613de2565b828260ff1660038110612bef57fe5b6020020181815250508080600101915050612b08565b508091505090565b60005b60036fffffffffffffffffffffffffffffffff16811015612ce7576000828260038110612c3957fe5b60200201511115612cda57818160038110612c5057fe5b6020020151601560003373ffffffffffffffffffffffffffffffffffffffff1673ffffffffffffffffffffffffffffffffffffffff1681526020019081526020016000208260038110612c9f57fe5b0160008282540192505081905550818160038110612cb957fe5b602002015160188260038110612ccb57fe5b01600082825401925050819055505b8080600101915050612c10565b5060011515601660003373ffffffffffffffffffffffffffffffffffffffff1673ffffffffffffffffffffffffffffffffffffffff16815260200190815260200160002060009054906101000a900460ff16151514612dd9576001601760008282829054906101000a900463ffffffff160192506101000a81548163ffffffff021916908363ffffffff1602179055506001601660003373ffffffffffffffffffffffffffffffffffffffff1673ffffffffffffffffffffffffffffffffffffffff16815260200190815260200160002060006101000a81548160ff021916908315150217905550612dd8336138fb565b5b50565b600860009054906101000a900473ffffffffffffffffffffffffffffffffffffffff1673ffffffffffffffffffffffffffffffffffffffff1663d4e20b01826040518263ffffffff1660e01b8152600401612e37919061422c565b600060405180830381600087803b158015612e5157600080fd5b505af1158015612e65573d6000803e3d6000fd5b5050505060005b60036fffffffffffffffffffffffffffffffff168160ff161015612ec957818160ff1660038110612e9957fe5b6020020151600e8260ff1660038110612eae57fe5b01600082825401925050819055508080600101915050612e6c565b5050565b60006001546002541015612ee057600080fd5b600080600154815260200190815260200160002060009054906101000a900473ffffffffffffffffffffffffffffffffffffffff16600360006101000a81548173ffffffffffffffffffffffffffffffffffffffff021916908373ffffffffffffffffffffffffffffffffffffffff160217905550600080600154815260200190815260200160002060006101000a81549073ffffffffffffffffffffffffffffffffffffffff021916905560018060008282540192505081905550600360009054906101000a900473ffffffffffffffffffffffffffffffffffffffff16905090565b60008061304c601560008573ffffffffffffffffffffffffffffffffffffffff1673ffffffffffffffffffffffffffffffffffffffff168152602001908152602001600020600380602002604051908101604052809291908260038015613040576020028201915b81548152602001906001019080831161302c575b50505050506001610765565b9050600d60009054906101000a900473ffffffffffffffffffffffffffffffffffffffff1673ffffffffffffffffffffffffffffffffffffffff16639dc29fac84836040518363ffffffff1660e01b81526004016130ab929190614203565b600060405180830381600087803b1580156130c557600080fd5b505af11580156130d9573d6000803e3d6000fd5b5050505060005b60036fffffffffffffffffffffffffffffffff168160ff1610156138f5576000601560008673ffffffffffffffffffffffffffffffffffffffff1673ffffffffffffffffffffffffffffffffffffffff1681526020019081526020016000208260ff166003811061314d57fe5b01541180156131aa57506000601360008673ffffffffffffffffffffffffffffffffffffffff1673ffffffffffffffffffffffffffffffffffffffff1681526020019081526020016000208260ff16600381106131a657fe5b0154115b156138e857600a8160ff16600381106131bf57fe5b0160009054906101000a900473ffffffffffffffffffffffffffffffffffffffff1673ffffffffffffffffffffffffffffffffffffffff1663a9059cbb85601560008873ffffffffffffffffffffffffffffffffffffffff1673ffffffffffffffffffffffffffffffffffffffff1681526020019081526020016000208460ff166003811061324a57fe5b01546040518363ffffffff1660e01b8152600401613269929190614203565b602060405180830381600087803b15801561328357600080fd5b505af1158015613297573d6000803e3d6000fd5b505050506040513d601f19601f820116820180604052508101906132bb9190613d3e565b9250826132c757600080fd5b601560008573ffffffffffffffffffffffffffffffffffffffff1673ffffffffffffffffffffffffffffffffffffffff1681526020019081526020016000208160ff166003811061331457fe5b0154601360008673ffffffffffffffffffffffffffffffffffffffff1673ffffffffffffffffffffffffffffffffffffffff1681526020019081526020016000208260ff166003811061336357fe5b0160008282540392505081905550601560008573ffffffffffffffffffffffffffffffffffffffff1673ffffffffffffffffffffffffffffffffffffffff1681526020019081526020016000208160ff16600381106133be57fe5b015460188260ff16600381106133d057fe5b0160008282540392505081905550601560008573ffffffffffffffffffffffffffffffffffffffff1673ffffffffffffffffffffffffffffffffffffffff1681526020019081526020016000208160ff166003811061342b57fe5b015460058260ff166003811061343d57fe5b01600082825403925050819055506000601560008673ffffffffffffffffffffffffffffffffffffffff1673ffffffffffffffffffffffffffffffffffffffff1681526020019081526020016000208260ff166003811061349a57fe5b0154905060005b601460008773ffffffffffffffffffffffffffffffffffffffff1673ffffffffffffffffffffffffffffffffffffffff168152602001908152602001600020805490508160ff1610156138025760011515601460008873ffffffffffffffffffffffffffffffffffffffff1673ffffffffffffffffffffffffffffffffffffffff1681526020019081526020016000208260ff168154811061353f57fe5b90600052602060002090600802016007018460ff166003811061355e57fe5b602091828204019190069054906101000a900460ff161515141580156135845750600082115b156137f557601460008773ffffffffffffffffffffffffffffffffffffffff1673ffffffffffffffffffffffffffffffffffffffff1681526020019081526020016000208160ff16815481106135d657fe5b90600052602060002090600802016003018360ff16600381106135f557fe5b0154821061377457601460008773ffffffffffffffffffffffffffffffffffffffff1673ffffffffffffffffffffffffffffffffffffffff1681526020019081526020016000208160ff168154811061364a57fe5b90600052602060002090600802016003018360ff166003811061366957fe5b0154820391506000601460008873ffffffffffffffffffffffffffffffffffffffff1673ffffffffffffffffffffffffffffffffffffffff1681526020019081526020016000208260ff16815481106136be57fe5b90600052602060002090600802016003018460ff16600381106136dd57fe5b01819055506001601460008873ffffffffffffffffffffffffffffffffffffffff1673ffffffffffffffffffffffffffffffffffffffff1681526020019081526020016000208260ff168154811061373157fe5b90600052602060002090600802016007018460ff166003811061375057fe5b602091828204019190066101000a81548160ff0219169083151502179055506137f4565b81601460008873ffffffffffffffffffffffffffffffffffffffff1673ffffffffffffffffffffffffffffffffffffffff1681526020019081526020016000208260ff16815481106137c257fe5b90600052602060002090600802016003018460ff16600381106137e157fe5b0160008282540392505081905550600091505b5b80806001019150506134a1565b506000601560008773ffffffffffffffffffffffffffffffffffffffff1673ffffffffffffffffffffffffffffffffffffffff1681526020019081526020016000208360ff166003811061385257fe5b01819055506000601660008773ffffffffffffffffffffffffffffffffffffffff1673ffffffffffffffffffffffffffffffffffffffff16815260200190815260200160002060006101000a81548160ff0219169083151502179055506001601760008282829054906101000a900463ffffffff160392506101000a81548163ffffffff021916908363ffffffff160217905550505b80806001019150506130e0565b50505050565b600160026000828254019250508190555080600080600254815260200190815260200160002060006101000a81548173ffffffffffffffffffffffffffffffffffffffff021916908373ffffffffffffffffffffffffffffffffffffffff16021790555050565b6040518060600160405280600390602082028036833780820191505090505090565b82600381019282156139b3579160200282015b828111156139b2578251825591602001919060010190613997565b5b5090506139c09190613ab9565b5090565b6040518060600160405280600390602082028036833780820191505090505090565b60405180608001604052806139f9613962565b8152602001613a06613962565b815260200160008152602001613a1a6139c4565b81525090565b826003601f01602090048101928215613aa85791602002820160005b83821115613a7957835183826101000a81548160ff0219169083151502179055509260200192600101602081600001049283019260010302613a3c565b8015613aa65782816101000a81549060ff0219169055600101602081600001049283019260010302613a79565b505b509050613ab59190613ad6565b5090565b5b80821115613ad2576000816000905550600101613aba565b5090565b5b80821115613afa57600081816101000a81549060ff021916905550600101613ad7565b5090565b600081359050613b0d816144ed565b92915050565b600081905082602060030282011115613b2b57600080fd5b92915050565b600082601f830112613b4257600080fd5b6003613b55613b50826143c5565b614398565b91508183856020840282011115613b6b57600080fd5b60005b83811015613b9b5781613b818882613bf9565b845260208401935060208301925050600181019050613b6e565b5050505092915050565b600081359050613bb481614504565b92915050565b600081519050613bc981614504565b92915050565b600081359050613bde8161451b565b92915050565b600081359050613bf381614532565b92915050565b600081359050613c0881614549565b92915050565b600081519050613c1d81614549565b92915050565b600081519050613c3281614560565b92915050565b600060208284031215613c4a57600080fd5b6000613c5884828501613afe565b91505092915050565b60008060408385031215613c7457600080fd5b6000613c8285828601613afe565b9250506020613c9385828601613bf9565b9150509250929050565b600060608284031215613caf57600080fd5b6000613cbd84828501613b13565b91505092915050565b60008060808385031215613cd957600080fd5b6000613ce785828601613b31565b9250506060613cf885828601613afe565b9150509250929050565b60008060808385031215613d1557600080fd5b6000613d2385828601613b31565b9250506060613d3485828601613ba5565b9150509250929050565b600060208284031215613d5057600080fd5b6000613d5e84828501613bba565b91505092915050565b600060208284031215613d7957600080fd5b6000613d8784828501613bcf565b91505092915050565b600060208284031215613da257600080fd5b6000613db084828501613be4565b91505092915050565b600060208284031215613dcb57600080fd5b6000613dd984828501613bf9565b91505092915050565b600060208284031215613df457600080fd5b6000613e0284828501613c0e565b91505092915050565b600060208284031215613e1d57600080fd5b6000613e2b84828501613c23565b91505092915050565b6000613e4083836140ef565b60208301905092915050565b613e55816144a8565b82525050565b613e6481614425565b82525050565b613e76606083836144de565b5050565b613e83816143f1565b613e8d8184614409565b9250613e98826143e7565b8060005b83811015613ec9578151613eb08782613e34565b9650613ebb836143fc565b925050600181019050613e9c565b505050505050565b613eda81614437565b82525050565b6000613eed601283614414565b91507f7a65726f20746f6b656e7320737570706c7900000000000000000000000000006000830152602082019050919050565b6000613f2d601483614414565b91507f776974686472617720717565756520656d7074790000000000000000000000006000830152602082019050919050565b6000613f6d600b83614414565b91507f6c6f636b20706572696f640000000000000000000000000000000000000000006000830152602082019050919050565b6000613fad601083614414565b91507f4552525f4449565f494e5445524e414c000000000000000000000000000000006000830152602082019050919050565b6000613fed601783614414565b91507f5472616e73666572206e6f74207375636365737366756c0000000000000000006000830152602082019050919050565b600061402d601083614414565b91507f4552525f4d554c5f4f564552464c4f57000000000000000000000000000000006000830152602082019050919050565b600061406d600c83614414565b91507f4552525f4449565f5a45524f00000000000000000000000000000000000000006000830152602082019050919050565b60006140ad600783614414565b91507f6c6f7720525054000000000000000000000000000000000000000000000000006000830152602082019050919050565b6140e981614455565b82525050565b6140f881614491565b82525050565b61410781614491565b82525050565b60006020820190506141226000830184613e5b565b92915050565b600060208201905061413d6000830184613e4c565b92915050565b60006060820190506141586000830186613e4c565b6141656020830185613e5b565b61417260408301846140fe565b949350505050565b600060808201905061418f6000830185613e4c565b61419c6020830184613e6a565b9392505050565b60006040820190506141b86000830185613e4c565b6141c560208301846140fe565b9392505050565b60006060820190506141e16000830186613e5b565b6141ee6020830185613e5b565b6141fb60408301846140fe565b949350505050565b60006040820190506142186000830185613e5b565b61422560208301846140fe565b9392505050565b60006060820190506142416000830184613e7a565b92915050565b600060208201905061425c6000830184613ed1565b92915050565b6000602082019050818103600083015261427b81613ee0565b9050919050565b6000602082019050818103600083015261429b81613f20565b9050919050565b600060208201905081810360008301526142bb81613f60565b9050919050565b600060208201905081810360008301526142db81613fa0565b9050919050565b600060208201905081810360008301526142fb81613fe0565b9050919050565b6000602082019050818103600083015261431b81614020565b9050919050565b6000602082019050818103600083015261433b81614060565b9050919050565b6000602082019050818103600083015261435b816140a0565b9050919050565b600060208201905061437760008301846140e0565b92915050565b600060208201905061439260008301846140fe565b92915050565b6000604051905081810181811067ffffffffffffffff821117156143bb57600080fd5b8060405250919050565b600067ffffffffffffffff8211156143dc57600080fd5b602082029050919050565b6000819050919050565b600060039050919050565b6000602082019050919050565b600081905092915050565b600082825260208201905092915050565b600061443082614471565b9050919050565b60008115159050919050565b600061444e82614425565b9050919050565b60006fffffffffffffffffffffffffffffffff82169050919050565b600073ffffffffffffffffffffffffffffffffffffffff82169050919050565b6000819050919050565b600060ff82169050919050565b60006144b3826144ba565b9050919050565b60006144c5826144cc565b9050919050565b60006144d782614471565b9050919050565b82818337600083830152505050565b6144f681614425565b811461450157600080fd5b50565b61450d81614437565b811461451857600080fd5b50565b61452481614443565b811461452f57600080fd5b50565b61453b81614455565b811461454657600080fd5b50565b61455281614491565b811461455d57600080fd5b50565b6145698161449b565b811461457457600080fd5b5056fea2646970667358221220f12fdf110ee656cf7d4942a45d7129ea39db86ddf16e62e0a6c78002b2885bba64736f6c634300060c0033",
  "immutableReferences": {},
  "source": "// SPDX-License-Identifier: UNLICENSED\r\npragma solidity ^0.6.0;\r\npragma experimental ABIEncoderV2;\r\n\r\nimport './MathLib.sol';\r\nimport './RoyaleLPstorage.sol';\r\n\r\n\r\ncontract RoyaleLP is RoyaleLPstorage, rNum {\r\n\r\n    modifier onlyOwner {\r\n        require(msg.sender == owner);\r\n        _;\r\n    }\r\n\r\n    constructor(\r\n        address[N_COINS] memory _tokens,\r\n        address _rpToken\r\n    ) public {\r\n        // Set owner\r\n        owner = msg.sender;\r\n\r\n        for(uint8 i=0; i<N_COINS; i++) {\r\n            tokens[i] = Erc20(_tokens[i]);\r\n        }\r\n\r\n        // Set RPT\r\n        rpToken = Erc20(_rpToken);\r\n    }\r\n    \r\n    /* EVENTS */\r\n    event userSupplied(\r\n        address user,\r\n        uint[N_COINS] amounts\r\n    );\r\n\r\n    event userRecieved(\r\n        address user,\r\n        uint[N_COINS] amounts\r\n    );\r\n\r\n    event userAddedToQ(\r\n        address user,\r\n        uint[N_COINS] amounts\r\n    );\r\n\r\n    /* INTERNAL FUNCTIONS */\r\n\r\n    function _getBalances() internal view returns(uint256[N_COINS] memory) {\r\n        uint256[N_COINS] memory balances;\r\n\r\n        for(uint8 i=0; i<N_COINS; i++) {\r\n            balances[i] = tokens[i].balanceOf(address(this));\r\n        }\r\n\r\n        return balances;\r\n    }\r\n\r\n    function calcRptAmount(uint256[N_COINS] memory amounts, bool burn) public view returns(uint256) {\r\n        uint256 rptAmt;\r\n        uint256 total = 0;\r\n        uint256 decimal = 0;\r\n        uint256 totalSuppliedTokens;\r\n        uint256 totalRPTSupply;\r\n\r\n        totalRPTSupply = bdiv(rpToken.totalSupply(), 10**18);\r\n        \r\n        for(uint8 i=0; i<N_COINS; i++) {\r\n            decimal = tokens[i].decimals();\r\n            total += bdiv(selfBalance[i]+loanGiven[i], 10**decimal);\r\n            totalSuppliedTokens += bdiv(amounts[i], 10**decimal);\r\n        }\r\n\r\n        rptAmt = bmul(bdiv(totalSuppliedTokens, total), totalRPTSupply);\r\n\r\n        if(burn == true) {\r\n            rptAmt = rptAmt + (rptAmt * fees) / 10000;\r\n        }\r\n\r\n        return rptAmt;\r\n    }\r\n\r\n    // functions related to deposit and supply\r\n\r\n    // This function deposits the fund to Yield Optimizer\r\n    function _deposit(uint256[N_COINS] memory amounts) internal {\r\n        yldOpt.deposit(amounts);\r\n        \r\n        for(uint8 i=0; i<N_COINS; i++) {\r\n            YieldPoolBalance[i] += amounts[i];\r\n        }\r\n    }\r\n\r\n    function _supply(uint256[N_COINS] memory amounts) internal {\r\n        uint256 mintTokens;        \r\n        mintTokens = calcRptAmount(amounts, false);    \r\n        \r\n        bool result;\r\n        for(uint8 i=0; i<N_COINS; i++) {\r\n            if(amounts[i] > 0) {\r\n                result = tokens[i].transferFrom(\r\n                    msg.sender, \r\n                    address(this), \r\n                    amounts[i]\r\n                );\r\n                require(result,\"Transfer not successful\");\r\n                selfBalance[i] += amounts[i];\r\n                amountSupplied[msg.sender][i] += amounts[i];\r\n            }\r\n        }\r\n    \r\n        // rpToken.mint(msg.sender, mintTokens * 10**10);\r\n        rpToken.mint(msg.sender, mintTokens);\r\n\r\n        bool[N_COINS] memory falseArray;\r\n        depositDetails memory d = depositDetails(amounts, amounts, now, falseArray);\r\n        supplyTime[msg.sender].push(d);\r\n    }\r\n\r\n    // functions related to withdraw, withdraw queue and withdraw from Yield Optimizer\r\n\r\n    function _takeBack(address recipient) internal {\r\n        bool result;\r\n\r\n        uint256 burnAmt;\r\n\r\n        burnAmt = calcRptAmount(amountWithdraw[recipient], true);\r\n        rpToken.burn(recipient, burnAmt);\r\n\r\n        for(uint8 i=0; i<N_COINS; i++) {\r\n            if(\r\n                amountWithdraw[recipient][i] > 0 \r\n                && \r\n                amountSupplied[recipient][i] > 0\r\n            ) {\r\n                result = tokens[i].transfer(\r\n                    recipient,  \r\n                    amountWithdraw[recipient][i]\r\n                );\r\n                require(result);\r\n\r\n                amountSupplied[recipient][i] -= amountWithdraw[recipient][i];\r\n                totalWithdraw[i] -= amountWithdraw[recipient][i];\r\n                selfBalance[i] -= amountWithdraw[recipient][i];\r\n\r\n                uint x = amountWithdraw[recipient][i];\r\n                for(uint8 j=0; j<supplyTime[recipient].length; j++) {\r\n                    if(supplyTime[recipient][j].withdrawn[i] != true && x > 0) {\r\n                        if(x >= supplyTime[recipient][j].remAmt[i]) {\r\n                            x = x - supplyTime[recipient][j].remAmt[i];\r\n                            supplyTime[recipient][j].remAmt[i] = 0;\r\n                            supplyTime[recipient][j].withdrawn[i] = true;\r\n                        }\r\n                        else {\r\n                            supplyTime[recipient][j].remAmt[i] -= x;\r\n                            x = 0;\r\n                        }\r\n                    }\r\n                }\r\n\r\n                amountWithdraw[recipient][i] = 0;\r\n\r\n                isInQ[recipient] = false;\r\n                recipientCount -= 1;\r\n            }\r\n        }\r\n    }\r\n\r\n    // this will fulfill withdraw requests from the queue\r\n    function _giveBack() internal {\r\n        \r\n        uint32 counter = recipientCount;\r\n        for(uint8 i=0; i<counter; i++) {\r\n            address recipient = getFromQ();\r\n            _takeBack(recipient);\r\n        }\r\n\r\n    }\r\n\r\n    // this will add unfulfilled withdraw requests to the queue\r\n    function _takeBackQ(uint256[N_COINS] memory amounts) internal {\r\n        \r\n        for(uint256 i=0; i<N_COINS; i++) {\r\n            if(amounts[i] > 0) {\r\n                amountWithdraw[msg.sender][i] += amounts[i];\r\n                totalWithdraw[i] += amounts[i];\r\n            }\r\n        }\r\n\r\n        if(isInQ[msg.sender] != true) {\r\n            recipientCount += 1;\r\n            isInQ[msg.sender] = true;\r\n            addToQ(msg.sender);\r\n        }\r\n\r\n    }\r\n\r\n    // this will withdraw from Yield Optimizer into this contract\r\n    function _withdraw(uint256[N_COINS] memory amounts) internal {\r\n        yldOpt.withdraw(amounts);\r\n\r\n        for(uint8 i=0; i<N_COINS; i++) {\r\n            YieldPoolBalance[i] -= amounts[i];\r\n        }\r\n    }\r\n\r\n    function availableWithdraw(address addr, uint coin) public view returns(uint256) {\r\n\r\n        uint256 amount=0;\r\n        for(uint8 j=0; j<supplyTime[addr].length; j++) {\r\n            if(\r\n                ((now - supplyTime[addr][j].time) \r\n                > \r\n                (24 * 60 * 60 * lock_period))\r\n                &&\r\n                supplyTime[addr][j].withdrawn[coin] != true\r\n            ) {\r\n                amount += supplyTime[addr][j].remAmt[coin];\r\n            }\r\n        }\r\n\r\n        return amount;\r\n    }\r\n\r\n    /* USER FUNCTIONS (exposed to frontend) */\r\n\r\n    function supply(uint256[N_COINS] calldata amounts) external {\r\n        require(\r\n            calcRptAmount(amounts, false) > 0,\r\n            \"zero tokens supply\"\r\n        );\r\n        \r\n        _supply(amounts);\r\n\r\n        emit userSupplied(msg.sender, amounts);\r\n    }\r\n\r\n    function requestWithdraw(uint256[N_COINS] calldata amounts) external {\r\n        require(\r\n            calcRptAmount(amounts, false) > 0,\r\n            \"zero tokens supply\"\r\n        );\r\n\r\n        uint256 burnAmt;\r\n        burnAmt = calcRptAmount(amounts, true);\r\n        require(\r\n            rpToken.balanceOf(msg.sender) >= burnAmt, \r\n            \"low RPT\"\r\n        );\r\n        \r\n        uint256[N_COINS] memory poolBalance;\r\n        poolBalance = _getBalances();\r\n        \r\n        bool checkTime = true;\r\n        bool instant;\r\n        \r\n        // check if user is withdrawing before lock period\r\n        for(uint8 i=0; i<N_COINS; i++) {\r\n            if(amounts[i] > 0) {\r\n                if(availableWithdraw(msg.sender, i) < amounts[i]) {\r\n                    checkTime = false;\r\n                }\r\n            }\r\n        }\r\n        require(checkTime, \"lock period\");\r\n\r\n        // check if instant withdraw\r\n        for(uint8 i=0; i<N_COINS; i++) {\r\n            if(amounts[i] < poolBalance[i] && amounts[i] != 0) {\r\n                instant = true;\r\n            }\r\n        }\r\n\r\n        if(instant) {\r\n            rpToken.burn(msg.sender, burnAmt);\r\n            bool result;\r\n            for(uint8 i=0; i<N_COINS; i++) {\r\n                if(amounts[i] > 0) {\r\n                    result = tokens[i].transfer(msg.sender, amounts[i]);\r\n                    require(result);\r\n                    amountSupplied[msg.sender][i] -= amounts[i];\r\n                    selfBalance[i] -= amounts[i];\r\n                    \r\n                    uint x = amounts[i];\r\n                    for(uint8 j=0; j<supplyTime[msg.sender].length; j++) {\r\n                        if(supplyTime[msg.sender][j].withdrawn[i] != true && x > 0) {\r\n                            if(x >= supplyTime[msg.sender][j].remAmt[i]) {\r\n                                x = x - supplyTime[msg.sender][j].remAmt[i];\r\n                                supplyTime[msg.sender][j].remAmt[i] = 0;\r\n                                supplyTime[msg.sender][j].withdrawn[i] = true;\r\n                            }\r\n                            else {\r\n                                supplyTime[msg.sender][j].remAmt[i] -= x;\r\n                                x = 0;\r\n                            }\r\n                        }\r\n                    }\r\n\r\n                }\r\n            }\r\n\r\n            emit userRecieved(msg.sender, amounts);\r\n        } else {\r\n            _takeBackQ(amounts);\r\n\r\n            emit userAddedToQ(msg.sender, amounts);\r\n        }\r\n    }\r\n    \r\n    // Following two functions are called by rLoan Only\r\n    function _loanWithdraw(uint256[N_COINS] memory amounts, address _loanSeeker) public returns(bool) {\r\n        _withdraw(amounts);\r\n\r\n        for(uint8 i=0; i<N_COINS; i++) {\r\n            if(amounts[i] > 0) {\r\n                loanGiven[i] += amounts[i];\r\n                selfBalance[i] -= amounts[i];\r\n                tokens[i].transfer(_loanSeeker, amounts[i]);\r\n            }\r\n        }\r\n        return true;\r\n    }\r\n\r\n    function _loanRepayment(uint256[N_COINS] memory amounts, address _loanSeeker) public returns(bool) {\r\n        for(uint8 i=0; i<N_COINS; i++) {\r\n            if(amounts[i] > 0) {\r\n                loanGiven[i] -= amounts[i];\r\n                selfBalance[i] += amounts[i];\r\n                tokens[i].transferFrom(_loanSeeker, address(this), amounts[i]);\r\n            }\r\n        }\r\n        return true;\r\n    }\r\n\r\n    function getCurrentPoolBalance() external view returns(uint256[3] memory) {\r\n        return selfBalance;\r\n    }\r\n\r\n    function getTotalLoanGiven() external view returns(uint256[3] memory) {\r\n        return loanGiven;\r\n    }\r\n\r\n    // this function deposits without minting \r\n    function depsoitInRoyale(uint256[N_COINS] calldata amounts) external {\r\n        for(uint8 i=0;i<N_COINS;i++){\r\n            if(amounts[i]!=0){\r\n             tokens[i].transferFrom(msg.sender,address(this),amounts[i]);\r\n             selfBalance[i]+=amounts[i];\r\n            }\r\n        }\r\n    }\r\n\r\n\r\n    /* CORE FUNCTIONS (also exposed to frontend but to be called by owner only) */\r\n\r\n    function deposit() onlyOwner external {\r\n        uint256[N_COINS] memory amounts = _getBalances();\r\n        uint256 decimal;\r\n\r\n        for(uint8 i=0; i<N_COINS; i++) {\r\n            decimal = tokens[i].decimals();\r\n            if(amounts[i] > thresholdTokenAmount*10**decimal) {\r\n                amounts[i] += YieldPoolBalance[i];\r\n                amounts[i] = (amounts[i] * poolPart) / 100;\r\n                amounts[i] = amounts[i] - YieldPoolBalance[i];\r\n                tokens[i].transfer(address(yldOpt), amounts[i]);\r\n            }\r\n            else {\r\n                amounts[i] = 0;\r\n            }\r\n        }\r\n\r\n        uint8 counter = 0;\r\n        for(uint8 i=0; i<N_COINS; i++) {\r\n           if(amounts[i] != 0) {\r\n               counter++;\r\n               break;\r\n           }\r\n        }\r\n\r\n        if(counter > 0){\r\n            _deposit(amounts);\r\n        }\r\n    }\r\n\r\n    function withdraw() onlyOwner external {\r\n\r\n        uint8 counter = 0;\r\n        for(uint8 i=0; i<N_COINS; i++) {\r\n           if(totalWithdraw[i] != 0) {\r\n               counter++;\r\n               break;\r\n           }\r\n        }\r\n\r\n        require(counter > 0, \"withdraw queue empty\");\r\n\r\n        _withdraw(totalWithdraw);\r\n        _giveBack();\r\n    }\r\n\r\n    /* ADMIN FUNCTIONS */\r\n\r\n    function changePoolPart(uint128 _newPoolPart) external onlyOwner returns(bool) {\r\n        poolPart = _newPoolPart;\r\n        return true;\r\n    }\r\n\r\n    function setThresholdTokenAmount(uint256 _newThreshold) external onlyOwner returns(bool) {\r\n        thresholdTokenAmount = _newThreshold;\r\n        return true;\r\n    }\r\n\r\n    function setInitialDeposit() onlyOwner external returns(bool) {\r\n        selfBalance = _getBalances();\r\n        return true;\r\n    }\r\n\r\n    function setYieldOpt(IYieldOpt _yldOpt) onlyOwner external returns(bool) {\r\n        yldOpt = _yldOpt;\r\n        return true;\r\n    }\r\n\r\n    function setLockPeriod(uint128 lockperiod) onlyOwner external returns(bool) {\r\n        lock_period = lockperiod;\r\n        return true;\r\n    }\r\n\r\n    function setWithdrawFees(uint128 _fees) onlyOwner external returns(bool) {\r\n        fees = _fees;\r\n        return true;\r\n    }\r\n\r\n}",
  "sourcePath": "C:/Users/MayankVats/Desktop/WORK/blockchain/Royale/rlp/contracts/RoyaleLP.sol",
  "compiler": {
    "name": "solc",
    "version": "0.6.12+commit.27d51765.Emscripten.clang"
  },
  "schemaVersion": "3.3.2",
  "updatedAt": "2020-12-14T11:26:53.345Z",
  "devdoc": {
    "kind": "dev",
    "methods": {},
    "version": 1
  },
  "userdoc": {
    "kind": "user",
    "methods": {},
    "version": 1
  }
}