{
  "contractName": "RoyaleLP",
  "abi": [
    {
      "inputs": [
        {
          "internalType": "address[3]",
          "name": "_tokens",
          "type": "address[3]"
        },
        {
          "internalType": "address",
          "name": "_rpToken",
          "type": "address"
        }
      ],
      "stateMutability": "nonpayable",
      "type": "constructor"
    },
    {
      "anonymous": false,
      "inputs": [
        {
          "indexed": false,
          "internalType": "address",
          "name": "user",
          "type": "address"
        },
        {
          "indexed": false,
          "internalType": "uint256[3]",
          "name": "amounts",
          "type": "uint256[3]"
        }
      ],
      "name": "userAddedToQ",
      "type": "event"
    },
    {
      "anonymous": false,
      "inputs": [
        {
          "indexed": false,
          "internalType": "address",
          "name": "user",
          "type": "address"
        },
        {
          "indexed": false,
          "internalType": "uint256[3]",
          "name": "amounts",
          "type": "uint256[3]"
        }
      ],
      "name": "userRecieved",
      "type": "event"
    },
    {
      "anonymous": false,
      "inputs": [
        {
          "indexed": false,
          "internalType": "address",
          "name": "user",
          "type": "address"
        },
        {
          "indexed": false,
          "internalType": "uint256[3]",
          "name": "amounts",
          "type": "uint256[3]"
        }
      ],
      "name": "userSupplied",
      "type": "event"
    },
    {
      "inputs": [],
      "name": "BASE_DECIMAL",
      "outputs": [
        {
          "internalType": "uint256",
          "name": "",
          "type": "uint256"
        }
      ],
      "stateMutability": "view",
      "type": "function"
    },
    {
      "inputs": [
        {
          "internalType": "uint256",
          "name": "",
          "type": "uint256"
        }
      ],
      "name": "YieldPoolBalance",
      "outputs": [
        {
          "internalType": "uint256",
          "name": "",
          "type": "uint256"
        }
      ],
      "stateMutability": "view",
      "type": "function"
    },
    {
      "inputs": [
        {
          "internalType": "address",
          "name": "",
          "type": "address"
        },
        {
          "internalType": "uint256",
          "name": "",
          "type": "uint256"
        }
      ],
      "name": "amountSupplied",
      "outputs": [
        {
          "internalType": "uint256",
          "name": "",
          "type": "uint256"
        }
      ],
      "stateMutability": "view",
      "type": "function"
    },
    {
      "inputs": [],
      "name": "fees",
      "outputs": [
        {
          "internalType": "uint128",
          "name": "",
          "type": "uint128"
        }
      ],
      "stateMutability": "view",
      "type": "function"
    },
    {
      "inputs": [
        {
          "internalType": "address",
          "name": "",
          "type": "address"
        }
      ],
      "name": "isInQ",
      "outputs": [
        {
          "internalType": "bool",
          "name": "",
          "type": "bool"
        }
      ],
      "stateMutability": "view",
      "type": "function"
    },
    {
      "inputs": [],
      "name": "loanContract",
      "outputs": [
        {
          "internalType": "address",
          "name": "",
          "type": "address"
        }
      ],
      "stateMutability": "view",
      "type": "function"
    },
    {
      "inputs": [
        {
          "internalType": "uint256",
          "name": "",
          "type": "uint256"
        }
      ],
      "name": "loanGiven",
      "outputs": [
        {
          "internalType": "uint256",
          "name": "",
          "type": "uint256"
        }
      ],
      "stateMutability": "view",
      "type": "function"
    },
    {
      "inputs": [],
      "name": "lock_period",
      "outputs": [
        {
          "internalType": "uint128",
          "name": "",
          "type": "uint128"
        }
      ],
      "stateMutability": "view",
      "type": "function"
    },
    {
      "inputs": [],
      "name": "owner",
      "outputs": [
        {
          "internalType": "address",
          "name": "",
          "type": "address"
        }
      ],
      "stateMutability": "view",
      "type": "function"
    },
    {
      "inputs": [],
      "name": "poolPart",
      "outputs": [
        {
          "internalType": "uint128",
          "name": "",
          "type": "uint128"
        }
      ],
      "stateMutability": "view",
      "type": "function"
    },
    {
      "inputs": [
        {
          "internalType": "uint256",
          "name": "",
          "type": "uint256"
        }
      ],
      "name": "profitFromYield",
      "outputs": [
        {
          "internalType": "uint256",
          "name": "",
          "type": "uint256"
        }
      ],
      "stateMutability": "view",
      "type": "function"
    },
    {
      "inputs": [
        {
          "internalType": "uint256",
          "name": "",
          "type": "uint256"
        }
      ],
      "name": "selfBalance",
      "outputs": [
        {
          "internalType": "uint256",
          "name": "",
          "type": "uint256"
        }
      ],
      "stateMutability": "view",
      "type": "function"
    },
    {
      "inputs": [],
      "name": "thresholdTokenAmount",
      "outputs": [
        {
          "internalType": "uint256",
          "name": "",
          "type": "uint256"
        }
      ],
      "stateMutability": "view",
      "type": "function"
    },
    {
      "inputs": [
        {
          "internalType": "uint256",
          "name": "",
          "type": "uint256"
        }
      ],
      "name": "totalWithdraw",
      "outputs": [
        {
          "internalType": "uint256",
          "name": "",
          "type": "uint256"
        }
      ],
      "stateMutability": "view",
      "type": "function"
    },
    {
      "inputs": [],
      "name": "getBalances",
      "outputs": [
        {
          "internalType": "uint256[3]",
          "name": "",
          "type": "uint256[3]"
        }
      ],
      "stateMutability": "view",
      "type": "function"
    },
    {
      "inputs": [
        {
          "internalType": "uint256[3]",
          "name": "amounts",
          "type": "uint256[3]"
        }
      ],
      "name": "calcRptAmount",
      "outputs": [
        {
          "internalType": "uint256",
          "name": "",
          "type": "uint256"
        }
      ],
      "stateMutability": "view",
      "type": "function"
    },
    {
      "inputs": [
        {
          "internalType": "address",
          "name": "addr",
          "type": "address"
        },
        {
          "internalType": "uint256",
          "name": "coin",
          "type": "uint256"
        }
      ],
      "name": "availableWithdraw",
      "outputs": [
        {
          "internalType": "uint256",
          "name": "",
          "type": "uint256"
        }
      ],
      "stateMutability": "view",
      "type": "function"
    },
    {
      "inputs": [
        {
          "internalType": "uint256[3]",
          "name": "amounts",
          "type": "uint256[3]"
        }
      ],
      "name": "supply",
      "outputs": [],
      "stateMutability": "nonpayable",
      "type": "function"
    },
    {
      "inputs": [
        {
          "internalType": "uint256[3]",
          "name": "amounts",
          "type": "uint256[3]"
        }
      ],
      "name": "requestWithdraw",
      "outputs": [],
      "stateMutability": "nonpayable",
      "type": "function"
    },
    {
      "inputs": [
        {
          "internalType": "uint256[3]",
          "name": "amounts",
          "type": "uint256[3]"
        },
        {
          "internalType": "address",
          "name": "_loanSeeker",
          "type": "address"
        }
      ],
      "name": "_loanWithdraw",
      "outputs": [
        {
          "internalType": "bool",
          "name": "",
          "type": "bool"
        }
      ],
      "stateMutability": "nonpayable",
      "type": "function"
    },
    {
      "inputs": [
        {
          "internalType": "uint256[3]",
          "name": "amounts",
          "type": "uint256[3]"
        },
        {
          "internalType": "address",
          "name": "_loanSeeker",
          "type": "address"
        }
      ],
      "name": "_loanRepayment",
      "outputs": [
        {
          "internalType": "bool",
          "name": "",
          "type": "bool"
        }
      ],
      "stateMutability": "nonpayable",
      "type": "function"
    },
    {
      "inputs": [
        {
          "internalType": "uint256[3]",
          "name": "amounts",
          "type": "uint256[3]"
        }
      ],
      "name": "depsoitInRoyale",
      "outputs": [],
      "stateMutability": "nonpayable",
      "type": "function"
    },
    {
      "inputs": [],
      "name": "deposit",
      "outputs": [],
      "stateMutability": "nonpayable",
      "type": "function"
    },
    {
      "inputs": [],
      "name": "withdraw",
      "outputs": [],
      "stateMutability": "nonpayable",
      "type": "function"
    },
    {
      "inputs": [],
      "name": "rebalance",
      "outputs": [],
      "stateMutability": "nonpayable",
      "type": "function"
    },
    {
      "inputs": [],
      "name": "getTotalPoolBalance",
      "outputs": [
        {
          "internalType": "uint256[3]",
          "name": "",
          "type": "uint256[3]"
        }
      ],
      "stateMutability": "view",
      "type": "function"
    },
    {
      "inputs": [],
      "name": "getTotalLoanGiven",
      "outputs": [
        {
          "internalType": "uint256[3]",
          "name": "",
          "type": "uint256[3]"
        }
      ],
      "stateMutability": "view",
      "type": "function"
    },
    {
      "inputs": [
        {
          "internalType": "address",
          "name": "_loanContract",
          "type": "address"
        }
      ],
      "name": "setLoanContract",
      "outputs": [
        {
          "internalType": "bool",
          "name": "",
          "type": "bool"
        }
      ],
      "stateMutability": "nonpayable",
      "type": "function"
    },
    {
      "inputs": [
        {
          "internalType": "uint128",
          "name": "_newPoolPart",
          "type": "uint128"
        }
      ],
      "name": "changePoolPart",
      "outputs": [
        {
          "internalType": "bool",
          "name": "",
          "type": "bool"
        }
      ],
      "stateMutability": "nonpayable",
      "type": "function"
    },
    {
      "inputs": [],
      "name": "getYieldProfit",
      "outputs": [],
      "stateMutability": "nonpayable",
      "type": "function"
    },
    {
      "inputs": [
        {
          "internalType": "uint256",
          "name": "_newThreshold",
          "type": "uint256"
        }
      ],
      "name": "setThresholdTokenAmount",
      "outputs": [
        {
          "internalType": "bool",
          "name": "",
          "type": "bool"
        }
      ],
      "stateMutability": "nonpayable",
      "type": "function"
    },
    {
      "inputs": [],
      "name": "setInitialDeposit",
      "outputs": [
        {
          "internalType": "bool",
          "name": "",
          "type": "bool"
        }
      ],
      "stateMutability": "nonpayable",
      "type": "function"
    },
    {
      "inputs": [
        {
          "internalType": "contract rControllerI",
          "name": "_controller",
          "type": "address"
        }
      ],
      "name": "setController",
      "outputs": [
        {
          "internalType": "bool",
          "name": "",
          "type": "bool"
        }
      ],
      "stateMutability": "nonpayable",
      "type": "function"
    },
    {
      "inputs": [
        {
          "internalType": "uint128",
          "name": "lockperiod",
          "type": "uint128"
        }
      ],
      "name": "setLockPeriod",
      "outputs": [
        {
          "internalType": "bool",
          "name": "",
          "type": "bool"
        }
      ],
      "stateMutability": "nonpayable",
      "type": "function"
    },
    {
      "inputs": [
        {
          "internalType": "uint128",
          "name": "_fees",
          "type": "uint128"
        }
      ],
      "name": "setWithdrawFees",
      "outputs": [
        {
          "internalType": "bool",
          "name": "",
          "type": "bool"
        }
      ],
      "stateMutability": "nonpayable",
      "type": "function"
    }
  ],
  "bytecode": "0x60806040526001805560006002556019600460006101000a8154816fffffffffffffffffffffffffffffffff02191690836fffffffffffffffffffffffffffffffff160217905550605f600460106101000a8154816fffffffffffffffffffffffffffffffff02191690836fffffffffffffffffffffffffffffffff1602179055506101f460115561012c601560006101000a8154816fffffffffffffffffffffffffffffffff02191690836fffffffffffffffffffffffffffffffff160217905550348015620000cf57600080fd5b50604051620058e7380380620058e78339818101604052810190620000f59190620002aa565b33600860006101000a81548173ffffffffffffffffffffffffffffffffffffffff021916908373ffffffffffffffffffffffffffffffffffffffff16021790555060005b60036fffffffffffffffffffffffffffffffff168160ff161015620001cb57828160ff16600381106200016857fe5b602002015160098260ff16600381106200017e57fe5b0160006101000a81548173ffffffffffffffffffffffffffffffffffffffff021916908373ffffffffffffffffffffffffffffffffffffffff160217905550808060010191505062000139565b5080600c60006101000a81548173ffffffffffffffffffffffffffffffffffffffff021916908373ffffffffffffffffffffffffffffffffffffffff16021790555050506200038a565b600081519050620002268162000370565b92915050565b600082601f8301126200023e57600080fd5b6003620002556200024f8262000319565b620002eb565b915081838560208402820111156200026c57600080fd5b60005b83811015620002a0578162000285888262000215565b8452602084019350602083019250506001810190506200026f565b5050505092915050565b60008060808385031215620002be57600080fd5b6000620002ce858286016200022c565b9250506060620002e18582860162000215565b9150509250929050565b6000604051905081810181811067ffffffffffffffff821117156200030f57600080fd5b8060405250919050565b600067ffffffffffffffff8211156200033157600080fd5b602082029050919050565b6000620003498262000350565b9050919050565b600073ffffffffffffffffffffffffffffffffffffffff82169050919050565b6200037b816200033c565b81146200038757600080fd5b50565b61554d806200039a6000396000f3fe608060405234801561001057600080fd5b50600436106102105760003560e01c80638af8147811610125578063b8b10680116100ad578063d0e30db01161007c578063d0e30db014610653578063d8c76af51461065d578063db28bfd01461068d578063eacd7afc146106bd578063f83e9a20146106ed57610210565b8063b8b10680146105b7578063c23177b2146105e7578063c277b65714610617578063c89eb0361461063557610210565b806392eefe9b116100f457806392eefe9b146104d9578063960731b6146105095780639af1d35a14610539578063a6d8fcb214610557578063a70200bd1461058757610210565b80638af814781461044f5780638da5cb5b1461046d5780638e9b03261461048b578063905f692e146104a957610210565b80633ccfd60b116101a85780636b9f1ef6116101775780636b9f1ef6146103855780636d6ea257146103b55780637d7c2a1c146103e557806380001288146103ef57806381f433f01461041f57610210565b80633ccfd60b1461031157806347d4a6a81461031b57806352f6e23814610337578063698504241461035557610210565b8063253f284b116101e4578063253f284b146102895780632f1fefe3146102a757806331805a2b146102b157806331d38806146102e157610210565b8062113e08146102155780630d88122c14610233578063224a14181461024f578063233fc9a21461026b575b600080fd5b61021d61070b565b60405161022a9190615161565b60405180910390f35b61024d60048036038101906102489190614b7c565b610823565b005b61026960048036038101906102649190614b7c565b610921565b005b610273610a75565b6040516102809190615161565b60405180910390f35b610291610ac0565b60405161029e9190615042565b60405180910390f35b6102af610ae6565b005b6102cb60048036038101906102c69190614cae565b610c8a565b6040516102d891906152d2565b60405180910390f35b6102fb60048036038101906102f69190614aee565b610ca2565b604051610308919061517c565b60405180910390f35b610319610d7a565b005b61033560048036038101906103309190614b7c565b610eff565b005b61033f6118f0565b60405161034c919061517c565b60405180910390f35b61036f600480360381019061036a9190614cae565b6119a2565b60405161037c91906152d2565b60405180910390f35b61039f600480360381019061039a9190614c85565b6119ba565b6040516103ac919061517c565b60405180910390f35b6103cf60048036038101906103ca9190614cae565b611a8e565b6040516103dc91906152d2565b60405180910390f35b6103ed611aa6565b005b61040960048036038101906104049190614bf7565b61204c565b604051610416919061517c565b60405180910390f35b61043960048036038101906104349190614c85565b6122c4565b604051610446919061517c565b60405180910390f35b610457612398565b60405161046491906152d2565b60405180910390f35b6104756123a4565b6040516104829190615042565b60405180910390f35b6104936123ca565b6040516104a091906152b7565b60405180910390f35b6104c360048036038101906104be9190614aee565b6123ec565b6040516104d0919061517c565b60405180910390f35b6104f360048036038101906104ee9190614c5c565b61240c565b604051610500919061517c565b60405180910390f35b610523600480360381019061051e9190614ba5565b6124e8565b60405161053091906152d2565b60405180910390f35b610541612702565b60405161054e91906152b7565b60405180910390f35b610571600480360381019061056c9190614b17565b612724565b60405161057e91906152d2565b60405180910390f35b6105a1600480360381019061059c9190614c85565b61292a565b6040516105ae919061517c565b60405180910390f35b6105d160048036038101906105cc9190614cae565b6129fe565b6040516105de919061517c565b60405180910390f35b61060160048036038101906105fc9190614b17565b612aa0565b60405161060e91906152d2565b60405180910390f35b61061f612ac5565b60405161062c9190615161565b60405180910390f35b61063d612b10565b60405161064a91906152d2565b60405180910390f35b61065b612b16565b005b61067760048036038101906106729190614cae565b612fbb565b60405161068491906152d2565b60405180910390f35b6106a760048036038101906106a29190614cae565b612fd3565b6040516106b491906152d2565b60405180910390f35b6106d760048036038101906106d29190614bf7565b612feb565b6040516106e4919061517c565b60405180910390f35b6106f561326a565b60405161070291906152b7565b60405180910390f35b61071361470e565b61071b61470e565b60005b60036fffffffffffffffffffffffffffffffff168160ff16101561081b5760098160ff166003811061074c57fe5b0160009054906101000a900473ffffffffffffffffffffffffffffffffffffffff1673ffffffffffffffffffffffffffffffffffffffff166370a08231306040518263ffffffff1660e01b81526004016107a69190615042565b60206040518083038186803b1580156107be57600080fd5b505afa1580156107d2573d6000803e3d6000fd5b505050506040513d601f19601f820116820180604052508101906107f69190614cd7565b828260ff166003811061080557fe5b602002018181525050808060010191505061071e565b508091505090565b6000610865826003806020026040519081016040528092919082600360200280828437600081840152601f19601f8201169050808301925050505050506124e8565b116108a5576040517f08c379a000000000000000000000000000000000000000000000000000000000815260040161089c90615197565b60405180910390fd5b6108e5816003806020026040519081016040528092919082600360200280828437600081840152601f19601f82011690508083019250505050505061328c565b7fe7f2330a99451f199f91ed2ac09887e25894cb0e14021fe5d29bc959e7283d0e33826040516109169291906150af565b60405180910390a150565b60005b60036fffffffffffffffffffffffffffffffff168160ff161015610a71576000828260ff166003811061095357fe5b602002013514610a645760098160ff166003811061096d57fe5b0160009054906101000a900473ffffffffffffffffffffffffffffffffffffffff1673ffffffffffffffffffffffffffffffffffffffff166323b872dd3330858560ff16600381106109bb57fe5b60200201356040518463ffffffff1660e01b81526004016109de93929190615078565b602060405180830381600087803b1580156109f857600080fd5b505af1158015610a0c573d6000803e3d6000fd5b505050506040513d601f19601f82011682018060405250810190610a309190614c33565b50818160ff1660038110610a4057fe5b602002013560058260ff1660038110610a5557fe5b01600082825401925050819055505b8080600101915050610924565b5050565b610a7d61470e565b6005600380602002604051908101604052809291908260038015610ab6576020028201915b815481526020019060010190808311610aa2575b5050505050905090565b602160009054906101000a900473ffffffffffffffffffffffffffffffffffffffff1681565b600860009054906101000a900473ffffffffffffffffffffffffffffffffffffffff1673ffffffffffffffffffffffffffffffffffffffff163373ffffffffffffffffffffffffffffffffffffffff1614610b76576040517f08c379a0000000000000000000000000000000000000000000000000000000008152600401610b6d90615217565b60405180910390fd5b600d60009054906101000a900473ffffffffffffffffffffffffffffffffffffffff1673ffffffffffffffffffffffffffffffffffffffff1663a9a4cbcc6040518163ffffffff1660e01b8152600401606060405180830381600087803b158015610be057600080fd5b505af1158015610bf4573d6000803e3d6000fd5b505050506040513d601f19601f82011682018060405250810190610c189190614bce565b6012906003610c28929190614730565b5060005b60036fffffffffffffffffffffffffffffffff168160ff161015610c875760128160ff1660038110610c5a57fe5b015460058260ff1660038110610c6c57fe5b01600082825401925050819055508080600101915050610c2c565b50565b600e8160038110610c9757fe5b016000915090505481565b6000600860009054906101000a900473ffffffffffffffffffffffffffffffffffffffff1673ffffffffffffffffffffffffffffffffffffffff163373ffffffffffffffffffffffffffffffffffffffff1614610d34576040517f08c379a0000000000000000000000000000000000000000000000000000000008152600401610d2b90615217565b60405180910390fd5b81602160006101000a81548173ffffffffffffffffffffffffffffffffffffffff021916908373ffffffffffffffffffffffffffffffffffffffff160217905550919050565b600860009054906101000a900473ffffffffffffffffffffffffffffffffffffffff1673ffffffffffffffffffffffffffffffffffffffff163373ffffffffffffffffffffffffffffffffffffffff1614610e0a576040517f08c379a0000000000000000000000000000000000000000000000000000000008152600401610e0190615217565b60405180910390fd5b6000805b60036fffffffffffffffffffffffffffffffff168160ff161015610e5f576000601b8260ff1660038110610e3e57fe5b015414610e52578180600101925050610e5f565b8080600101915050610e0e565b5060008160ff1611610ea6576040517f08c379a0000000000000000000000000000000000000000000000000000000008152600401610e9d906151b7565b60405180910390fd5b610eec601b600380602002604051908101604052809291908260038015610ee2576020028201915b815481526020019060010190808311610ece575b5050505050613626565b610ef4613717565b610efc613769565b50565b6000610f41826003806020026040519081016040528092919082600360200280828437600081840152601f19601f8201169050808301925050505050506124e8565b11610f81576040517f08c379a0000000000000000000000000000000000000000000000000000000008152600401610f7890615197565b60405180910390fd5b6000610fc3826003806020026040519081016040528092919082600360200280828437600081840152601f19601f8201169050808301925050505050506124e8565b905080600c60009054906101000a900473ffffffffffffffffffffffffffffffffffffffff1673ffffffffffffffffffffffffffffffffffffffff166370a08231336040518263ffffffff1660e01b8152600401611021919061505d565b60206040518083038186803b15801561103957600080fd5b505afa15801561104d573d6000803e3d6000fd5b505050506040513d601f19601f820116820180604052508101906110719190614cd7565b10156110b2576040517f08c379a00000000000000000000000000000000000000000000000000000000081526004016110a990615297565b60405180910390fd5b6110ba61470e565b6110c261070b565b9050600060019050600080600090505b60036fffffffffffffffffffffffffffffffff168160ff161015611146576000868260ff166003811061110157fe5b6020020135111561113957858160ff166003811061111b57fe5b602002013561112d338360ff16612724565b101561113857600092505b5b80806001019150506110d2565b5081611187576040517f08c379a000000000000000000000000000000000000000000000000000000000815260040161117e906151f7565b60405180910390fd5b60005b60036fffffffffffffffffffffffffffffffff168160ff16101561120857838160ff16600381106111b757fe5b6020020151868260ff16600381106111cb57fe5b60200201351080156111f157506000868260ff16600381106111e957fe5b602002013514155b156111fb57600191505b808060010191505061118a565b50801561186f57600c60009054906101000a900473ffffffffffffffffffffffffffffffffffffffff1673ffffffffffffffffffffffffffffffffffffffff16639dc29fac33866040518363ffffffff1660e01b815260040161126c9291906150d8565b600060405180830381600087803b15801561128657600080fd5b505af115801561129a573d6000803e3d6000fd5b50505050600080600090505b60036fffffffffffffffffffffffffffffffff168160ff16101561182f576000878260ff16600381106112d557fe5b60200201351115611822576000612710600460009054906101000a90046fffffffffffffffffffffffffffffffff166fffffffffffffffffffffffffffffffff16898460ff166003811061132557fe5b6020020135028161133257fe5b04888360ff166003811061134257fe5b602002013503905060098260ff166003811061135a57fe5b0160009054906101000a900473ffffffffffffffffffffffffffffffffffffffff1673ffffffffffffffffffffffffffffffffffffffff1663a9059cbb33836040518363ffffffff1660e01b81526004016113b69291906150d8565b602060405180830381600087803b1580156113d057600080fd5b505af11580156113e4573d6000803e3d6000fd5b505050506040513d601f19601f820116820180604052508101906114089190614c33565b92508261141457600080fd5b878260ff166003811061142357fe5b6020020135601660003373ffffffffffffffffffffffffffffffffffffffff1673ffffffffffffffffffffffffffffffffffffffff1681526020019081526020016000208360ff166003811061147557fe5b01600082825403925050819055508060058360ff166003811061149457fe5b01600082825403925050819055506000888360ff16600381106114b357fe5b6020020135905060005b601760003373ffffffffffffffffffffffffffffffffffffffff1673ffffffffffffffffffffffffffffffffffffffff168152602001908152602001600020805490508160ff16101561181e5760011515601760003373ffffffffffffffffffffffffffffffffffffffff1673ffffffffffffffffffffffffffffffffffffffff1681526020019081526020016000208260ff168154811061155b57fe5b90600052602060002090600802016007018560ff166003811061157a57fe5b602091828204019190069054906101000a900460ff161515141580156115a05750600082115b1561181157601760003373ffffffffffffffffffffffffffffffffffffffff1673ffffffffffffffffffffffffffffffffffffffff1681526020019081526020016000208160ff16815481106115f257fe5b90600052602060002090600802016003018460ff166003811061161157fe5b0154821061179057601760003373ffffffffffffffffffffffffffffffffffffffff1673ffffffffffffffffffffffffffffffffffffffff1681526020019081526020016000208160ff168154811061166657fe5b90600052602060002090600802016003018460ff166003811061168557fe5b0154820391506000601760003373ffffffffffffffffffffffffffffffffffffffff1673ffffffffffffffffffffffffffffffffffffffff1681526020019081526020016000208260ff16815481106116da57fe5b90600052602060002090600802016003018560ff16600381106116f957fe5b01819055506001601760003373ffffffffffffffffffffffffffffffffffffffff1673ffffffffffffffffffffffffffffffffffffffff1681526020019081526020016000208260ff168154811061174d57fe5b90600052602060002090600802016007018560ff166003811061176c57fe5b602091828204019190066101000a81548160ff021916908315150217905550611810565b81601760003373ffffffffffffffffffffffffffffffffffffffff1673ffffffffffffffffffffffffffffffffffffffff1681526020019081526020016000208260ff16815481106117de57fe5b90600052602060002090600802016003018560ff16600381106117fd57fe5b0160008282540392505081905550600091505b5b80806001019150506114bd565b5050505b80806001019150506112a6565b507fe9c01f7dea3ef08b44263b3cf5963eb42309e5fb5bec9305dbe12b82f37b519c33876040516118619291906150af565b60405180910390a1506118e9565b6118af856003806020026040519081016040528092919082600360200280828437600081840152601f19601f82011690508083019250505050505061377a565b7fe2d5e24e56e4f05473adb8bb616473de3894beab8011d32382a638d1d2617c9333866040516118e09291906150af565b60405180910390a15b5050505050565b6000600860009054906101000a900473ffffffffffffffffffffffffffffffffffffffff1673ffffffffffffffffffffffffffffffffffffffff163373ffffffffffffffffffffffffffffffffffffffff1614611982576040517f08c379a000000000000000000000000000000000000000000000000000000000815260040161197990615217565b60405180910390fd5b61198a61070b565b600590600361199a929190614730565b506001905090565b600581600381106119af57fe5b016000915090505481565b6000600860009054906101000a900473ffffffffffffffffffffffffffffffffffffffff1673ffffffffffffffffffffffffffffffffffffffff163373ffffffffffffffffffffffffffffffffffffffff1614611a4c576040517f08c379a0000000000000000000000000000000000000000000000000000000008152600401611a4390615217565b60405180910390fd5b81600460006101000a8154816fffffffffffffffffffffffffffffffff02191690836fffffffffffffffffffffffffffffffff16021790555060019050919050565b601e8160038110611a9b57fe5b016000915090505481565b600860009054906101000a900473ffffffffffffffffffffffffffffffffffffffff1673ffffffffffffffffffffffffffffffffffffffff163373ffffffffffffffffffffffffffffffffffffffff1614611b36576040517f08c379a0000000000000000000000000000000000000000000000000000000008152600401611b2d90615217565b60405180910390fd5b611b3e61470e565b611b4661070b565b9050611b5061470e565b611b5861470e565b611b60614770565b600d60009054906101000a900473ffffffffffffffffffffffffffffffffffffffff1673ffffffffffffffffffffffffffffffffffffffff1663b49a60bb6040518163ffffffff1660e01b8152600401606060405180830381600087803b158015611bca57600080fd5b505af1158015611bde573d6000803e3d6000fd5b505050506040513d601f19601f82011682018060405250810190611c029190614b53565b905060005b60036fffffffffffffffffffffffffffffffff168160ff161015611f7357600060098260ff1660038110611c3757fe5b0160009054906101000a900473ffffffffffffffffffffffffffffffffffffffff1673ffffffffffffffffffffffffffffffffffffffff1663313ce5676040518163ffffffff1660e01b815260040160206040518083038186803b158015611c9e57600080fd5b505afa158015611cb2573d6000803e3d6000fd5b505050506040513d601f19601f82011682018060405250810190611cd69190614d00565b60ff16905060006064600460109054906101000a90046fffffffffffffffffffffffffffffffff166064036fffffffffffffffffffffffffffffffff1660058560ff1660038110611d2357fe5b01540281611d2d57fe5b049050868360ff1660038110611d3f57fe5b6020020151811115611dba57868360ff1660038110611d5a57fe5b60200201518103868460ff1660038110611d7057fe5b60200201818152505081600a0a603202868460ff1660038110611d8f57fe5b60200201511015611db5576000868460ff1660038110611dab57fe5b6020020181815250505b611f64565b868360ff1660038110611dc957fe5b6020020151811015611f2e5780878460ff1660038110611de557fe5b602002015103858460ff1660038110611dfa57fe5b60200201818152505081600a0a603202858460ff1660038110611e1957fe5b60200201511015611e43576000858460ff1660038110611e3557fe5b602002018181525050611f29565b60098360ff1660038110611e5357fe5b0160009054906101000a900473ffffffffffffffffffffffffffffffffffffffff1673ffffffffffffffffffffffffffffffffffffffff1663a9059cbb858560ff1660038110611e9f57fe5b6020020151878660ff1660038110611eb357fe5b60200201516040518363ffffffff1660e01b8152600401611ed5929190615138565b602060405180830381600087803b158015611eef57600080fd5b505af1158015611f03573d6000803e3d6000fd5b505050506040513d601f19601f82011682018060405250810190611f279190614c33565b505b611f63565b6000868460ff1660038110611f3f57fe5b6020020181815250506000858460ff1660038110611f5957fe5b6020020181815250505b5b50508080600101915050611c07565b506000805b60036fffffffffffffffffffffffffffffffff168160ff161015611fc8576000848260ff1660038110611fa757fe5b60200201511115611fbb5760019150611fc8565b8080600101915050611f78565b508015611fdd57611fd883613949565b600090505b60005b60036fffffffffffffffffffffffffffffffff168160ff161015612030576000858260ff166003811061200f57fe5b602002015111156120235760019150612030565b8080600101915050611fe0565b5080156120455761204084613626565b600090505b5050505050565b6000600860009054906101000a900473ffffffffffffffffffffffffffffffffffffffff1673ffffffffffffffffffffffffffffffffffffffff163373ffffffffffffffffffffffffffffffffffffffff1614806120f75750602160009054906101000a900473ffffffffffffffffffffffffffffffffffffffff1673ffffffffffffffffffffffffffffffffffffffff163373ffffffffffffffffffffffffffffffffffffffff16145b612136576040517f08c379a000000000000000000000000000000000000000000000000000000000815260040161212d90615217565b60405180910390fd5b60005b60036fffffffffffffffffffffffffffffffff168160ff1610156122b9576000848260ff166003811061216857fe5b602002015111156122ac57838160ff166003811061218257fe5b6020020151601e8260ff166003811061219757fe5b0160008282540392505081905550838160ff16600381106121b457fe5b602002015160058260ff16600381106121c957fe5b016000828254019250508190555060098160ff16600381106121e757fe5b0160009054906101000a900473ffffffffffffffffffffffffffffffffffffffff1673ffffffffffffffffffffffffffffffffffffffff166323b872dd8430878560ff166003811061223557fe5b60200201516040518463ffffffff1660e01b815260040161225893929190615101565b602060405180830381600087803b15801561227257600080fd5b505af1158015612286573d6000803e3d6000fd5b505050506040513d601f19601f820116820180604052508101906122aa9190614c33565b505b8080600101915050612139565b506001905092915050565b6000600860009054906101000a900473ffffffffffffffffffffffffffffffffffffffff1673ffffffffffffffffffffffffffffffffffffffff163373ffffffffffffffffffffffffffffffffffffffff1614612356576040517f08c379a000000000000000000000000000000000000000000000000000000000815260040161234d90615217565b60405180910390fd5b81601560006101000a8154816fffffffffffffffffffffffffffffffff02191690836fffffffffffffffffffffffffffffffff16021790555060019050919050565b670de0b6b3a764000081565b600860009054906101000a900473ffffffffffffffffffffffffffffffffffffffff1681565b600460109054906101000a90046fffffffffffffffffffffffffffffffff1681565b60196020528060005260406000206000915054906101000a900460ff1681565b6000600860009054906101000a900473ffffffffffffffffffffffffffffffffffffffff1673ffffffffffffffffffffffffffffffffffffffff163373ffffffffffffffffffffffffffffffffffffffff161461249e576040517f08c379a000000000000000000000000000000000000000000000000000000000815260040161249590615217565b60405180910390fd5b81600d60006101000a81548173ffffffffffffffffffffffffffffffffffffffff021916908373ffffffffffffffffffffffffffffffffffffffff16021790555060019050919050565b6000806000806000806125a2600c60009054906101000a900473ffffffffffffffffffffffffffffffffffffffff1673ffffffffffffffffffffffffffffffffffffffff166318160ddd6040518163ffffffff1660e01b815260040160206040518083038186803b15801561255c57600080fd5b505afa158015612570573d6000803e3d6000fd5b505050506040513d601f19601f820116820180604052508101906125949190614cd7565b670de0b6b3a7640000613a3a565b905060005b60036fffffffffffffffffffffffffffffffff168160ff1610156126df5760098160ff16600381106125d557fe5b0160009054906101000a900473ffffffffffffffffffffffffffffffffffffffff1673ffffffffffffffffffffffffffffffffffffffff1663313ce5676040518163ffffffff1660e01b815260040160206040518083038186803b15801561263c57600080fd5b505afa158015612650573d6000803e3d6000fd5b505050506040513d601f19601f820116820180604052508101906126749190614d00565b60ff1693506126aa601e8260ff166003811061268c57fe5b015460058360ff166003811061269e57fe5b01540185600a0a613a3a565b850194506126ce888260ff16600381106126c057fe5b602002015185600a0a613a3a565b8301925080806001019150506125a7565b506126f36126ed8386613a3a565b82613b5a565b94508495505050505050919050565b600460009054906101000a90046fffffffffffffffffffffffffffffffff1681565b6000806000905060005b601760008673ffffffffffffffffffffffffffffffffffffffff1673ffffffffffffffffffffffffffffffffffffffff168152602001908152602001600020805490508160ff16101561291f57601560009054906101000a90046fffffffffffffffffffffffffffffffff166fffffffffffffffffffffffffffffffff16601760008773ffffffffffffffffffffffffffffffffffffffff1673ffffffffffffffffffffffffffffffffffffffff1681526020019081526020016000208260ff16815481106127f957fe5b906000526020600020906008020160060154420311801561289d575060011515601760008773ffffffffffffffffffffffffffffffffffffffff1673ffffffffffffffffffffffffffffffffffffffff1681526020019081526020016000208260ff168154811061286657fe5b9060005260206000209060080201600701856003811061288257fe5b602091828204019190069054906101000a900460ff16151514155b1561291257601760008673ffffffffffffffffffffffffffffffffffffffff1673ffffffffffffffffffffffffffffffffffffffff1681526020019081526020016000208160ff16815481106128ef57fe5b9060005260206000209060080201600301846003811061290b57fe5b0154820191505b808060010191505061272e565b508091505092915050565b6000600860009054906101000a900473ffffffffffffffffffffffffffffffffffffffff1673ffffffffffffffffffffffffffffffffffffffff163373ffffffffffffffffffffffffffffffffffffffff16146129bc576040517f08c379a00000000000000000000000000000000000000000000000000000000081526004016129b390615217565b60405180910390fd5b81600460106101000a8154816fffffffffffffffffffffffffffffffff02191690836fffffffffffffffffffffffffffffffff16021790555060019050919050565b6000600860009054906101000a900473ffffffffffffffffffffffffffffffffffffffff1673ffffffffffffffffffffffffffffffffffffffff163373ffffffffffffffffffffffffffffffffffffffff1614612a90576040517f08c379a0000000000000000000000000000000000000000000000000000000008152600401612a8790615217565b60405180910390fd5b8160118190555060019050919050565b60166020528160005260406000208160038110612ab957fe5b01600091509150505481565b612acd61470e565b601e600380602002604051908101604052809291908260038015612b06576020028201915b815481526020019060010190808311612af2575b5050505050905090565b60115481565b600860009054906101000a900473ffffffffffffffffffffffffffffffffffffffff1673ffffffffffffffffffffffffffffffffffffffff163373ffffffffffffffffffffffffffffffffffffffff1614612ba6576040517f08c379a0000000000000000000000000000000000000000000000000000000008152600401612b9d90615217565b60405180910390fd5b612bae61470e565b612bb661070b565b90506000612bc2614770565b600d60009054906101000a900473ffffffffffffffffffffffffffffffffffffffff1673ffffffffffffffffffffffffffffffffffffffff1663b49a60bb6040518163ffffffff1660e01b8152600401606060405180830381600087803b158015612c2c57600080fd5b505af1158015612c40573d6000803e3d6000fd5b505050506040513d601f19601f82011682018060405250810190612c649190614b53565b905060005b60036fffffffffffffffffffffffffffffffff168160ff161015612f465760098160ff1660038110612c9757fe5b0160009054906101000a900473ffffffffffffffffffffffffffffffffffffffff1673ffffffffffffffffffffffffffffffffffffffff1663313ce5676040518163ffffffff1660e01b815260040160206040518083038186803b158015612cfe57600080fd5b505afa158015612d12573d6000803e3d6000fd5b505050506040513d601f19601f82011682018060405250810190612d369190614d00565b60ff16925082600a0a60115402848260ff1660038110612d5257fe5b60200201511115612f1e57600e8160ff1660038110612d6d57fe5b0154848260ff1660038110612d7e57fe5b6020020181815101915081815250506064600460109054906101000a90046fffffffffffffffffffffffffffffffff166fffffffffffffffffffffffffffffffff16858360ff1660038110612dcf57fe5b60200201510281612ddc57fe5b04848260ff1660038110612dec57fe5b602002018181525050600e8160ff1660038110612e0557fe5b0154848260ff1660038110612e1657fe5b602002015103848260ff1660038110612e2b57fe5b60200201818152505060098160ff1660038110612e4457fe5b0160009054906101000a900473ffffffffffffffffffffffffffffffffffffffff1673ffffffffffffffffffffffffffffffffffffffff1663a9059cbb838360ff1660038110612e9057fe5b6020020151868460ff1660038110612ea457fe5b60200201516040518363ffffffff1660e01b8152600401612ec6929190615138565b602060405180830381600087803b158015612ee057600080fd5b505af1158015612ef4573d6000803e3d6000fd5b505050506040513d601f19601f82011682018060405250810190612f189190614c33565b50612f39565b6000848260ff1660038110612f2f57fe5b6020020181815250505b8080600101915050612c69565b506000805b60036fffffffffffffffffffffffffffffffff168160ff161015612f9e576000858260ff1660038110612f7a57fe5b602002015114612f91578180600101925050612f9e565b8080600101915050612f4b565b5060008160ff161115612fb557612fb484613949565b5b50505050565b60128160038110612fc857fe5b016000915090505481565b601b8160038110612fe057fe5b016000915090505481565b6000600860009054906101000a900473ffffffffffffffffffffffffffffffffffffffff1673ffffffffffffffffffffffffffffffffffffffff163373ffffffffffffffffffffffffffffffffffffffff1614806130965750602160009054906101000a900473ffffffffffffffffffffffffffffffffffffffff1673ffffffffffffffffffffffffffffffffffffffff163373ffffffffffffffffffffffffffffffffffffffff16145b6130d5576040517f08c379a00000000000000000000000000000000000000000000000000000000081526004016130cc90615217565b60405180910390fd5b6130de83613626565b60005b60036fffffffffffffffffffffffffffffffff168160ff16101561325f576000848260ff166003811061311057fe5b6020020151111561325257838160ff166003811061312a57fe5b6020020151601e8260ff166003811061313f57fe5b0160008282540192505081905550838160ff166003811061315c57fe5b602002015160058260ff166003811061317157fe5b016000828254039250508190555060098160ff166003811061318f57fe5b0160009054906101000a900473ffffffffffffffffffffffffffffffffffffffff1673ffffffffffffffffffffffffffffffffffffffff1663a9059cbb84868460ff16600381106131dc57fe5b60200201516040518363ffffffff1660e01b81526004016131fe929190615138565b602060405180830381600087803b15801561321857600080fd5b505af115801561322c573d6000803e3d6000fd5b505050506040513d601f19601f820116820180604052508101906132509190614c33565b505b80806001019150506130e1565b506001905092915050565b601560009054906101000a90046fffffffffffffffffffffffffffffffff1681565b6000613297826124e8565b9050600080600090505b60036fffffffffffffffffffffffffffffffff168160ff16101561349f576000848260ff16600381106132d057fe5b602002015111156134925760098160ff16600381106132eb57fe5b0160009054906101000a900473ffffffffffffffffffffffffffffffffffffffff1673ffffffffffffffffffffffffffffffffffffffff166323b872dd3330878560ff166003811061333957fe5b60200201516040518463ffffffff1660e01b815260040161335c93929190615078565b602060405180830381600087803b15801561337657600080fd5b505af115801561338a573d6000803e3d6000fd5b505050506040513d601f19601f820116820180604052508101906133ae9190614c33565b9150816133f0576040517f08c379a00000000000000000000000000000000000000000000000000000000081526004016133e790615257565b60405180910390fd5b838160ff16600381106133ff57fe5b602002015160058260ff166003811061341457fe5b0160008282540192505081905550838160ff166003811061343157fe5b6020020151601660003373ffffffffffffffffffffffffffffffffffffffff1673ffffffffffffffffffffffffffffffffffffffff1681526020019081526020016000208260ff166003811061348357fe5b01600082825401925050819055505b80806001019150506132a1565b50600c60009054906101000a900473ffffffffffffffffffffffffffffffffffffffff1673ffffffffffffffffffffffffffffffffffffffff166340c10f1933846040518363ffffffff1660e01b81526004016134fd9291906150d8565b600060405180830381600087803b15801561351757600080fd5b505af115801561352b573d6000803e3d6000fd5b50505050613537614792565b61353f6147b4565b6040518060800160405280868152602001868152602001428152602001838152509050601760003373ffffffffffffffffffffffffffffffffffffffff1673ffffffffffffffffffffffffffffffffffffffff1681526020019081526020016000208190806001815401808255809150506001900390600052602060002090600802016000909190919091506000820151816000019060036135e2929190614730565b506020820151816003019060036135fa929190614730565b506040820151816006015560608201518160070190600361361c9291906147ee565b5050505050505050565b600d60009054906101000a900473ffffffffffffffffffffffffffffffffffffffff1673ffffffffffffffffffffffffffffffffffffffff1663b1b8f1be826040518263ffffffff1660e01b81526004016136819190615161565b600060405180830381600087803b15801561369b57600080fd5b505af11580156136af573d6000803e3d6000fd5b5050505060005b60036fffffffffffffffffffffffffffffffff168160ff16101561371357818160ff16600381106136e357fe5b6020020151600e8260ff16600381106136f857fe5b016000828254039250508190555080806001019150506136b6565b5050565b6000601a60009054906101000a900463ffffffff16905060005b8163ffffffff168160ff16101561376557600061374c613c36565b905061375781613d2d565b508080600101915050613731565b5050565b600180819055506000600281905550565b60005b60036fffffffffffffffffffffffffffffffff168110156138545760008282600381106137a657fe5b60200201511115613847578181600381106137bd57fe5b6020020151601860003373ffffffffffffffffffffffffffffffffffffffff1673ffffffffffffffffffffffffffffffffffffffff168152602001908152602001600020826003811061380c57fe5b016000828254019250508190555081816003811061382657fe5b6020020151601b826003811061383857fe5b01600082825401925050819055505b808060010191505061377d565b5060011515601960003373ffffffffffffffffffffffffffffffffffffffff1673ffffffffffffffffffffffffffffffffffffffff16815260200190815260200160002060009054906101000a900460ff16151514613946576001601a60008282829054906101000a900463ffffffff160192506101000a81548163ffffffff021916908363ffffffff1602179055506001601960003373ffffffffffffffffffffffffffffffffffffffff1673ffffffffffffffffffffffffffffffffffffffff16815260200190815260200160002060006101000a81548160ff021916908315150217905550613945336146a7565b5b50565b600d60009054906101000a900473ffffffffffffffffffffffffffffffffffffffff1673ffffffffffffffffffffffffffffffffffffffff1663d4e20b01826040518263ffffffff1660e01b81526004016139a49190615161565b600060405180830381600087803b1580156139be57600080fd5b505af11580156139d2573d6000803e3d6000fd5b5050505060005b60036fffffffffffffffffffffffffffffffff168160ff161015613a3657818160ff1660038110613a0657fe5b6020020151600e8260ff1660038110613a1b57fe5b016000828254019250508190555080806001019150506139d9565b5050565b600080821415613a7f576040517f08c379a0000000000000000000000000000000000000000000000000000000008152600401613a7690615277565b60405180910390fd5b6000670de0b6b3a7640000840290506000841480613aad5750670de0b6b3a7640000848281613aaa57fe5b04145b613aec576040517f08c379a0000000000000000000000000000000000000000000000000000000008152600401613ae3906151d7565b60405180910390fd5b600060028481613af857fe5b048201905081811015613b40576040517f08c379a0000000000000000000000000000000000000000000000000000000008152600401613b37906151d7565b60405180910390fd5b6000848281613b4b57fe5b04905080935050505092915050565b60008082840290506000841480613b79575082848281613b7657fe5b04145b613bb8576040517f08c379a0000000000000000000000000000000000000000000000000000000008152600401613baf90615237565b60405180910390fd5b60006002670de0b6b3a764000081613bcc57fe5b048201905081811015613c14576040517f08c379a0000000000000000000000000000000000000000000000000000000008152600401613c0b90615237565b60405180910390fd5b6000670de0b6b3a76400008281613c2757fe5b04905080935050505092915050565b60006001546002541015613c4957600080fd5b600080600154815260200190815260200160002060009054906101000a900473ffffffffffffffffffffffffffffffffffffffff16600360006101000a81548173ffffffffffffffffffffffffffffffffffffffff021916908373ffffffffffffffffffffffffffffffffffffffff160217905550600080600154815260200190815260200160002060006101000a81549073ffffffffffffffffffffffffffffffffffffffff021916905560018060008282540192505081905550600360009054906101000a900473ffffffffffffffffffffffffffffffffffffffff16905090565b600080613db3601860008573ffffffffffffffffffffffffffffffffffffffff1673ffffffffffffffffffffffffffffffffffffffff168152602001908152602001600020600380602002604051908101604052809291908260038015613da9576020028201915b815481526020019060010190808311613d95575b50505050506124e8565b9050600c60009054906101000a900473ffffffffffffffffffffffffffffffffffffffff1673ffffffffffffffffffffffffffffffffffffffff16639dc29fac84836040518363ffffffff1660e01b8152600401613e12929190615138565b600060405180830381600087803b158015613e2c57600080fd5b505af1158015613e40573d6000803e3d6000fd5b5050505060005b60036fffffffffffffffffffffffffffffffff168160ff161015614612576000601860008673ffffffffffffffffffffffffffffffffffffffff1673ffffffffffffffffffffffffffffffffffffffff1681526020019081526020016000208260ff1660038110613eb457fe5b0154118015613f1157506000601660008673ffffffffffffffffffffffffffffffffffffffff1673ffffffffffffffffffffffffffffffffffffffff1681526020019081526020016000208260ff1660038110613f0d57fe5b0154115b15614605576000612710600460009054906101000a90046fffffffffffffffffffffffffffffffff166fffffffffffffffffffffffffffffffff16601860008873ffffffffffffffffffffffffffffffffffffffff1673ffffffffffffffffffffffffffffffffffffffff1681526020019081526020016000208460ff1660038110613f9957fe5b01540281613fa357fe5b04601860008773ffffffffffffffffffffffffffffffffffffffff1673ffffffffffffffffffffffffffffffffffffffff1681526020019081526020016000208360ff1660038110613ff157fe5b015403905060098260ff166003811061400657fe5b0160009054906101000a900473ffffffffffffffffffffffffffffffffffffffff1673ffffffffffffffffffffffffffffffffffffffff1663a9059cbb86836040518363ffffffff1660e01b8152600401614062929190615138565b602060405180830381600087803b15801561407c57600080fd5b505af1158015614090573d6000803e3d6000fd5b505050506040513d601f19601f820116820180604052508101906140b49190614c33565b9350836140c057600080fd5b601860008673ffffffffffffffffffffffffffffffffffffffff1673ffffffffffffffffffffffffffffffffffffffff1681526020019081526020016000208260ff166003811061410d57fe5b0154601660008773ffffffffffffffffffffffffffffffffffffffff1673ffffffffffffffffffffffffffffffffffffffff1681526020019081526020016000208360ff166003811061415c57fe5b0160008282540392505081905550601860008673ffffffffffffffffffffffffffffffffffffffff1673ffffffffffffffffffffffffffffffffffffffff1681526020019081526020016000208260ff16600381106141b757fe5b0154601b8360ff16600381106141c957fe5b01600082825403925050819055508060058360ff16600381106141e857fe5b01600082825403925050819055506000601860008773ffffffffffffffffffffffffffffffffffffffff1673ffffffffffffffffffffffffffffffffffffffff1681526020019081526020016000208360ff166003811061424557fe5b0154905060005b601760008873ffffffffffffffffffffffffffffffffffffffff1673ffffffffffffffffffffffffffffffffffffffff168152602001908152602001600020805490508160ff1610156145ad5760011515601760008973ffffffffffffffffffffffffffffffffffffffff1673ffffffffffffffffffffffffffffffffffffffff1681526020019081526020016000208260ff16815481106142ea57fe5b90600052602060002090600802016007018560ff166003811061430957fe5b602091828204019190069054906101000a900460ff1615151415801561432f5750600082115b156145a057601760008873ffffffffffffffffffffffffffffffffffffffff1673ffffffffffffffffffffffffffffffffffffffff1681526020019081526020016000208160ff168154811061438157fe5b90600052602060002090600802016003018460ff16600381106143a057fe5b0154821061451f57601760008873ffffffffffffffffffffffffffffffffffffffff1673ffffffffffffffffffffffffffffffffffffffff1681526020019081526020016000208160ff16815481106143f557fe5b90600052602060002090600802016003018460ff166003811061441457fe5b0154820391506000601760008973ffffffffffffffffffffffffffffffffffffffff1673ffffffffffffffffffffffffffffffffffffffff1681526020019081526020016000208260ff168154811061446957fe5b90600052602060002090600802016003018560ff166003811061448857fe5b01819055506001601760008973ffffffffffffffffffffffffffffffffffffffff1673ffffffffffffffffffffffffffffffffffffffff1681526020019081526020016000208260ff16815481106144dc57fe5b90600052602060002090600802016007018560ff16600381106144fb57fe5b602091828204019190066101000a81548160ff02191690831515021790555061459f565b81601760008973ffffffffffffffffffffffffffffffffffffffff1673ffffffffffffffffffffffffffffffffffffffff1681526020019081526020016000208260ff168154811061456d57fe5b90600052602060002090600802016003018560ff166003811061458c57fe5b0160008282540392505081905550600091505b5b808060010191505061424c565b506000601860008873ffffffffffffffffffffffffffffffffffffffff1673ffffffffffffffffffffffffffffffffffffffff1681526020019081526020016000208460ff16600381106145fd57fe5b018190555050505b8080600101915050613e47565b506000601960008573ffffffffffffffffffffffffffffffffffffffff1673ffffffffffffffffffffffffffffffffffffffff16815260200190815260200160002060006101000a81548160ff0219169083151502179055506001601a60008282829054906101000a900463ffffffff160392506101000a81548163ffffffff021916908363ffffffff160217905550505050565b600160026000828254019250508190555080600080600254815260200190815260200160002060006101000a81548173ffffffffffffffffffffffffffffffffffffffff021916908373ffffffffffffffffffffffffffffffffffffffff16021790555050565b6040518060600160405280600390602082028036833780820191505090505090565b826003810192821561475f579160200282015b8281111561475e578251825591602001919060010190614743565b5b50905061476c9190614887565b5090565b6040518060600160405280600390602082028036833780820191505090505090565b6040518060600160405280600390602082028036833780820191505090505090565b60405180608001604052806147c761470e565b81526020016147d461470e565b8152602001600081526020016147e8614792565b81525090565b826003601f016020900481019282156148765791602002820160005b8382111561484757835183826101000a81548160ff021916908315150217905550926020019260010160208160000104928301926001030261480a565b80156148745782816101000a81549060ff0219169055600101602081600001049283019260010302614847565b505b50905061488391906148a4565b5090565b5b808211156148a0576000816000905550600101614888565b5090565b5b808211156148c857600081816101000a81549060ff0219169055506001016148a5565b5090565b6000813590506148db81615476565b92915050565b600082601f8301126148f257600080fd5b60036149056149008261531a565b6152ed565b9150818385602084028201111561491b57600080fd5b60005b8381101561494b57816149318882614a85565b84526020840193506020830192505060018101905061491e565b5050505092915050565b60008190508260206003028201111561496d57600080fd5b92915050565b600082601f83011261498457600080fd5b60036149976149928261533c565b6152ed565b915081838560208402820111156149ad57600080fd5b60005b838110156149dd57816149c38882614aaf565b8452602084019350602083019250506001810190506149b0565b5050505092915050565b600082601f8301126149f857600080fd5b6003614a0b614a068261533c565b6152ed565b91508183856020840282011115614a2157600080fd5b60005b83811015614a515781614a378882614ac4565b845260208401935060208301925050600181019050614a24565b5050505092915050565b600081519050614a6a8161548d565b92915050565b600081359050614a7f816154a4565b92915050565b600081519050614a94816154bb565b92915050565b600081359050614aa9816154d2565b92915050565b600081359050614abe816154e9565b92915050565b600081519050614ad3816154e9565b92915050565b600081519050614ae881615500565b92915050565b600060208284031215614b0057600080fd5b6000614b0e848285016148cc565b91505092915050565b60008060408385031215614b2a57600080fd5b6000614b38858286016148cc565b9250506020614b4985828601614aaf565b9150509250929050565b600060608284031215614b6557600080fd5b6000614b73848285016148e1565b91505092915050565b600060608284031215614b8e57600080fd5b6000614b9c84828501614955565b91505092915050565b600060608284031215614bb757600080fd5b6000614bc584828501614973565b91505092915050565b600060608284031215614be057600080fd5b6000614bee848285016149e7565b91505092915050565b60008060808385031215614c0a57600080fd5b6000614c1885828601614973565b9250506060614c29858286016148cc565b9150509250929050565b600060208284031215614c4557600080fd5b6000614c5384828501614a5b565b91505092915050565b600060208284031215614c6e57600080fd5b6000614c7c84828501614a70565b91505092915050565b600060208284031215614c9757600080fd5b6000614ca584828501614a9a565b91505092915050565b600060208284031215614cc057600080fd5b6000614cce84828501614aaf565b91505092915050565b600060208284031215614ce957600080fd5b6000614cf784828501614ac4565b91505092915050565b600060208284031215614d1257600080fd5b6000614d2084828501614ad9565b91505092915050565b6000614d358383615024565b60208301905092915050565b614d4a81615431565b82525050565b614d598161539c565b82525050565b614d6b60608383615467565b5050565b614d7881615368565b614d828184615380565b9250614d8d8261535e565b8060005b83811015614dbe578151614da58782614d29565b9650614db083615373565b925050600181019050614d91565b505050505050565b614dcf816153ae565b82525050565b6000614de260128361538b565b91507f7a65726f20746f6b656e7320737570706c7900000000000000000000000000006000830152602082019050919050565b6000614e2260148361538b565b91507f776974686472617720717565756520656d7074790000000000000000000000006000830152602082019050919050565b6000614e6260108361538b565b91507f4552525f4449565f494e5445524e414c000000000000000000000000000000006000830152602082019050919050565b6000614ea2601a8361538b565b91507f6c6f636b20706572696f64207c206e6f7420737570706c6965640000000000006000830152602082019050919050565b6000614ee2600e8361538b565b91507f6e6f7420617574686f72697a65640000000000000000000000000000000000006000830152602082019050919050565b6000614f2260108361538b565b91507f4552525f4d554c5f4f564552464c4f57000000000000000000000000000000006000830152602082019050919050565b6000614f6260148361538b565b91507f636f696e207472616e73666572206661696c65640000000000000000000000006000830152602082019050919050565b6000614fa2600c8361538b565b91507f4552525f4449565f5a45524f00000000000000000000000000000000000000006000830152602082019050919050565b6000614fe260078361538b565b91507f6c6f7720525054000000000000000000000000000000000000000000000000006000830152602082019050919050565b61501e816153de565b82525050565b61502d8161541a565b82525050565b61503c8161541a565b82525050565b60006020820190506150576000830184614d50565b92915050565b60006020820190506150726000830184614d41565b92915050565b600060608201905061508d6000830186614d41565b61509a6020830185614d50565b6150a76040830184615033565b949350505050565b60006080820190506150c46000830185614d41565b6150d16020830184614d5f565b9392505050565b60006040820190506150ed6000830185614d41565b6150fa6020830184615033565b9392505050565b60006060820190506151166000830186614d50565b6151236020830185614d50565b6151306040830184615033565b949350505050565b600060408201905061514d6000830185614d50565b61515a6020830184615033565b9392505050565b60006060820190506151766000830184614d6f565b92915050565b60006020820190506151916000830184614dc6565b92915050565b600060208201905081810360008301526151b081614dd5565b9050919050565b600060208201905081810360008301526151d081614e15565b9050919050565b600060208201905081810360008301526151f081614e55565b9050919050565b6000602082019050818103600083015261521081614e95565b9050919050565b6000602082019050818103600083015261523081614ed5565b9050919050565b6000602082019050818103600083015261525081614f15565b9050919050565b6000602082019050818103600083015261527081614f55565b9050919050565b6000602082019050818103600083015261529081614f95565b9050919050565b600060208201905081810360008301526152b081614fd5565b9050919050565b60006020820190506152cc6000830184615015565b92915050565b60006020820190506152e76000830184615033565b92915050565b6000604051905081810181811067ffffffffffffffff8211171561531057600080fd5b8060405250919050565b600067ffffffffffffffff82111561533157600080fd5b602082029050919050565b600067ffffffffffffffff82111561535357600080fd5b602082029050919050565b6000819050919050565b600060039050919050565b6000602082019050919050565b600081905092915050565b600082825260208201905092915050565b60006153a7826153fa565b9050919050565b60008115159050919050565b60006153c58261539c565b9050919050565b60006153d78261539c565b9050919050565b60006fffffffffffffffffffffffffffffffff82169050919050565b600073ffffffffffffffffffffffffffffffffffffffff82169050919050565b6000819050919050565b600060ff82169050919050565b600061543c82615443565b9050919050565b600061544e82615455565b9050919050565b6000615460826153fa565b9050919050565b82818337600083830152505050565b61547f8161539c565b811461548a57600080fd5b50565b615496816153ae565b81146154a157600080fd5b50565b6154ad816153ba565b81146154b857600080fd5b50565b6154c4816153cc565b81146154cf57600080fd5b50565b6154db816153de565b81146154e657600080fd5b50565b6154f28161541a565b81146154fd57600080fd5b50565b61550981615424565b811461551457600080fd5b5056fea2646970667358221220fdcc598b35d35cfe78ddccc54c1e64e681fe19abe0686b1648edf8c343150f4d64736f6c634300060c0033",
  "immutableReferences": {},
  "source": "// SPDX-License-Identifier: UNLICENSED\r\npragma solidity ^0.6.0;\r\npragma experimental ABIEncoderV2;\r\n\r\nimport './MathLib.sol';\r\nimport './RoyaleLPstorage.sol';\r\n\r\n\r\ncontract RoyaleLP is RoyaleLPstorage, rNum {\r\n\r\n    modifier onlyOwner {\r\n        require(msg.sender == owner, \"not authorized\");\r\n        _;\r\n    }\r\n\r\n    modifier onlyAuthorized {\r\n        require(\r\n            msg.sender == owner || msg.sender == loanContract,\r\n            \"not authorized\"\r\n        );\r\n        _;\r\n    }\r\n\r\n    constructor(\r\n        address[N_COINS] memory _tokens,\r\n        address _rpToken\r\n    ) public {\r\n        owner = msg.sender;\r\n\r\n        for(uint8 i=0; i<N_COINS; i++) {\r\n            tokens[i] = Erc20(_tokens[i]);\r\n        }\r\n        rpToken = Erc20(_rpToken);\r\n    }\r\n    \r\n    /* EVENTS */\r\n    event userSupplied(\r\n        address user,\r\n        uint[N_COINS] amounts\r\n    );\r\n\r\n    event userRecieved(\r\n        address user,\r\n        uint[N_COINS] amounts\r\n    );\r\n\r\n    event userAddedToQ(\r\n        address user,\r\n        uint[N_COINS] amounts\r\n    );\r\n\r\n    /* INTERNAL FUNCTIONS */\r\n\r\n    function getBalances() public view returns(uint256[N_COINS] memory) {\r\n        uint256[N_COINS] memory balances;\r\n\r\n        for(uint8 i=0; i<N_COINS; i++) {\r\n            balances[i] = tokens[i].balanceOf(address(this));\r\n        }\r\n\r\n        return balances;\r\n    }\r\n\r\n\r\n\r\n    // functions related to deposit and supply\r\n\r\n    // This function deposits the fund to Yield Optimizer\r\n    function _deposit(uint256[N_COINS] memory amounts) internal {\r\n        controller.deposit(amounts);\r\n        \r\n        for(uint8 i=0; i<N_COINS; i++) {\r\n            YieldPoolBalance[i] += amounts[i];\r\n        }\r\n    }\r\n\r\n\r\n\r\n    //Internal Calculation For User Supply \r\n\r\n    function _supply(uint256[N_COINS] memory amounts) internal {\r\n        uint256 mintTokens;        \r\n        mintTokens = calcRptAmount(amounts);    \r\n        \r\n        bool result;\r\n        for(uint8 i=0; i<N_COINS; i++) {\r\n            if(amounts[i] > 0) {\r\n                result = tokens[i].transferFrom(\r\n                    msg.sender, \r\n                    address(this), \r\n                    amounts[i]\r\n                );\r\n                require(result, \"coin transfer failed\");\r\n                selfBalance[i] += amounts[i];\r\n                amountSupplied[msg.sender][i] += amounts[i];\r\n            }\r\n        }\r\n        rpToken.mint(msg.sender, mintTokens);\r\n        bool[N_COINS] memory falseArray;\r\n        depositDetails memory d = depositDetails(amounts, amounts, now, falseArray);\r\n        supplyTime[msg.sender].push(d);\r\n    }\r\n\r\n\r\n\r\n    // functions related to withdraw, withdraw queue and withdraw from Yield Optimizer\r\n    function _takeBack(address recipient) internal {\r\n        bool result;\r\n\r\n        uint256 burnAmt;\r\n\r\n        burnAmt = calcRptAmount(amountWithdraw[recipient]);\r\n        rpToken.burn(recipient, burnAmt);\r\n\r\n        for(uint8 i=0; i<N_COINS; i++) {\r\n            if(\r\n                amountWithdraw[recipient][i] > 0 \r\n                && \r\n                amountSupplied[recipient][i] > 0\r\n            ) {\r\n                uint temp = amountWithdraw[recipient][i] - (amountWithdraw[recipient][i] * fees) / 10000;\r\n                result = tokens[i].transfer(\r\n                    recipient,  \r\n                    temp\r\n                );\r\n                require(result);\r\n                amountSupplied[recipient][i] -= amountWithdraw[recipient][i];\r\n                totalWithdraw[i] -= amountWithdraw[recipient][i];\r\n                selfBalance[i] -= temp;\r\n                uint x = amountWithdraw[recipient][i];\r\n                for(uint8 j=0; j<supplyTime[recipient].length; j++) {\r\n                    if(supplyTime[recipient][j].withdrawn[i] != true && x > 0) {\r\n                        if(x >= supplyTime[recipient][j].remAmt[i]) {\r\n                            x = x - supplyTime[recipient][j].remAmt[i];\r\n                            supplyTime[recipient][j].remAmt[i] = 0;\r\n                            supplyTime[recipient][j].withdrawn[i] = true;\r\n                        }\r\n                        else {\r\n                            supplyTime[recipient][j].remAmt[i] -= x;\r\n                            x = 0;\r\n                        }\r\n                    }\r\n                }\r\n\r\n                amountWithdraw[recipient][i] = 0;\r\n   \r\n            }\r\n        }\r\n        isInQ[recipient] = false;\r\n        recipientCount -= 1;\r\n    }\r\n\r\n\r\n\r\n\r\n    // this will fulfill withdraw requests from the queue\r\n    function _giveBack() internal {\r\n        \r\n        uint32 counter = recipientCount;\r\n        for(uint8 i=0; i<counter; i++) {\r\n            address recipient = getFromQ();\r\n            _takeBack(recipient);\r\n        }\r\n\r\n    }\r\n\r\n\r\n\r\n\r\n\r\n    // this will add unfulfilled withdraw requests to the queue\r\n    function _takeBackQ(uint256[N_COINS] memory amounts) internal {\r\n        \r\n        for(uint256 i=0; i<N_COINS; i++) {\r\n            if(amounts[i] > 0) {\r\n                amountWithdraw[msg.sender][i] += amounts[i];\r\n                totalWithdraw[i] += amounts[i];\r\n            }\r\n        }\r\n\r\n        if(isInQ[msg.sender] != true) {\r\n            recipientCount += 1;\r\n            isInQ[msg.sender] = true;\r\n            addToQ(msg.sender);\r\n        }\r\n\r\n    }\r\n\r\n\r\n\r\n\r\n    // this will withdraw from Yield Optimizer into this contract\r\n    function _withdraw(uint256[N_COINS] memory amounts) internal {\r\n        controller.withdraw(amounts);\r\n\r\n        for(uint8 i=0; i<N_COINS; i++) {\r\n            YieldPoolBalance[i] -= amounts[i];\r\n        }\r\n    }\r\n\r\n\r\n\r\n    //This function calculate RPT to be mint or burn\r\n    function calcRptAmount(uint256[N_COINS] memory amounts) public view returns(uint256) {\r\n        uint256 rptAmt;\r\n        uint256 total = 0;\r\n        uint256 decimal = 0;\r\n        uint256 totalSuppliedTokens;\r\n        uint256 totalRPTSupply;\r\n\r\n        totalRPTSupply = bdiv(rpToken.totalSupply(), 10**18);\r\n      \r\n        for(uint8 i=0; i<N_COINS; i++) {\r\n            decimal = tokens[i].decimals();\r\n            total += bdiv(selfBalance[i]+loanGiven[i], 10**decimal);\r\n            totalSuppliedTokens += bdiv(amounts[i], 10**decimal);\r\n        }\r\n     \r\n        rptAmt = bmul(bdiv(totalSuppliedTokens, total), totalRPTSupply);        \r\n\r\n        return rptAmt;\r\n    }\r\n\r\n\r\n\r\n    //function to check available amount to withdraw for user\r\n    function availableWithdraw(address addr, uint coin) public view returns(uint256) {\r\n\r\n        uint256 amount=0;\r\n        for(uint8 j=0; j<supplyTime[addr].length; j++) {\r\n            if(\r\n                ((now - supplyTime[addr][j].time) \r\n                > \r\n                (/*24 * 60 * 60 **/ lock_period))\r\n                &&\r\n                supplyTime[addr][j].withdrawn[coin] != true\r\n            ) {\r\n                amount += supplyTime[addr][j].remAmt[coin];\r\n            }\r\n        }\r\n\r\n        return amount;\r\n    }\r\n\r\n\r\n\r\n\r\n    /* USER FUNCTIONS (exposed to frontend) */\r\n\r\n    function supply(uint256[N_COINS] calldata amounts) external {\r\n        require(\r\n            calcRptAmount(amounts) > 0,\r\n            \"zero tokens supply\"\r\n        );\r\n        \r\n        _supply(amounts);\r\n\r\n        emit userSupplied(msg.sender, amounts);\r\n    }\r\n\r\n    function requestWithdraw(uint256[N_COINS] calldata amounts) external {\r\n        require(\r\n            calcRptAmount(amounts) > 0,\r\n            \"zero tokens supply\"\r\n        );\r\n\r\n        uint256 burnAmt;\r\n        burnAmt = calcRptAmount(amounts);\r\n        require(\r\n            rpToken.balanceOf(msg.sender) >= burnAmt, \r\n            \"low RPT\"\r\n        );\r\n        \r\n        uint256[N_COINS] memory poolBalance;\r\n        poolBalance = getBalances();\r\n        \r\n        bool checkTime = true;\r\n        bool instant;\r\n        \r\n        // check if user is withdrawing before lock period\r\n        for(uint8 i=0; i<N_COINS; i++) {\r\n            if(amounts[i] > 0) {\r\n                if(availableWithdraw(msg.sender, i) < amounts[i]) {\r\n                    checkTime = false;\r\n                }\r\n            }\r\n        }\r\n        require(checkTime, \"lock period | not supplied\");\r\n\r\n        // check if instant withdraw\r\n        for(uint8 i=0; i<N_COINS; i++) {\r\n            if(amounts[i] < poolBalance[i] && amounts[i] != 0) {\r\n                instant = true;\r\n            }\r\n        }\r\n\r\n        if(instant) {\r\n            rpToken.burn(msg.sender, burnAmt);\r\n            bool result;\r\n            for(uint8 i=0; i<N_COINS; i++) {\r\n                if(amounts[i] > 0) {\r\n                    uint temp = amounts[i] - (amounts[i] * fees) / 10000;\r\n                    result = tokens[i].transfer(msg.sender, temp);\r\n                    require(result);\r\n                    amountSupplied[msg.sender][i] -= amounts[i];\r\n                    selfBalance[i] -= temp;\r\n                    \r\n                    uint x = amounts[i];\r\n                    for(uint8 j=0; j<supplyTime[msg.sender].length; j++) {\r\n                        if(supplyTime[msg.sender][j].withdrawn[i] != true && x > 0) {\r\n                            if(x >= supplyTime[msg.sender][j].remAmt[i]) {\r\n                                x = x - supplyTime[msg.sender][j].remAmt[i];\r\n                                supplyTime[msg.sender][j].remAmt[i] = 0;\r\n                                supplyTime[msg.sender][j].withdrawn[i] = true;\r\n                            }\r\n                            else {\r\n                                supplyTime[msg.sender][j].remAmt[i] -= x;\r\n                                x = 0;\r\n                            }\r\n                        }\r\n                    }\r\n\r\n                }\r\n            }\r\n\r\n            emit userRecieved(msg.sender, amounts);\r\n        } else {\r\n            _takeBackQ(amounts);\r\n\r\n            emit userAddedToQ(msg.sender, amounts);\r\n        }\r\n    }\r\n \r\n    // Following two functions are called by rLoan Only\r\n    function _loanWithdraw(\r\n        uint256[N_COINS] memory amounts, \r\n        address _loanSeeker\r\n    ) public onlyAuthorized returns(bool) {\r\n        _withdraw(amounts);\r\n\r\n        for(uint8 i=0; i<N_COINS; i++) {\r\n            if(amounts[i] > 0) {\r\n                loanGiven[i] += amounts[i];\r\n                selfBalance[i] -= amounts[i];\r\n                tokens[i].transfer(_loanSeeker, amounts[i]);\r\n            }\r\n        }\r\n        return true;\r\n    }\r\n\r\n    //Function only called by multisig contract for transfering tokens\r\n    function _loanRepayment(\r\n        uint256[N_COINS] memory amounts, \r\n        address _loanSeeker\r\n    ) public onlyAuthorized returns(bool) {\r\n        for(uint8 i=0; i<N_COINS; i++) {\r\n            if(amounts[i] > 0) {\r\n                loanGiven[i] -= amounts[i];\r\n                selfBalance[i] += amounts[i];\r\n                tokens[i].transferFrom(_loanSeeker, address(this), amounts[i]);\r\n            }\r\n        }\r\n        return true;\r\n    }\r\n\r\n    // this function deposits without minting RPT\r\n    function depsoitInRoyale(uint256[N_COINS] calldata amounts) external {\r\n        for(uint8 i=0;i<N_COINS;i++){\r\n            if(amounts[i]!=0){\r\n             tokens[i].transferFrom(msg.sender,address(this),amounts[i]);\r\n             selfBalance[i]+=amounts[i];\r\n            }\r\n        }\r\n    }\r\n\r\n\r\n    /* CORE FUNCTIONS (called by owner only) */\r\n\r\n    //Deposit in the smart backed pool\r\n    function deposit() onlyOwner external {\r\n        uint256[N_COINS] memory amounts = getBalances();\r\n        uint256 decimal;\r\n\r\n        rStrategyI[3] memory strat = controller.getStrategies();\r\n\r\n        for(uint8 i=0; i<N_COINS; i++) {\r\n            decimal = tokens[i].decimals();\r\n            if(amounts[i] > thresholdTokenAmount*10**decimal) {\r\n                amounts[i] += YieldPoolBalance[i];\r\n                amounts[i] = (amounts[i] * poolPart) / 100;\r\n                amounts[i] = amounts[i] - YieldPoolBalance[i];\r\n                tokens[i].transfer(address(strat[i]), amounts[i]);\r\n            }\r\n            else {\r\n                amounts[i] = 0;\r\n            }\r\n        }\r\n\r\n        uint8 counter = 0;\r\n        for(uint8 i=0; i<N_COINS; i++) {\r\n           if(amounts[i] != 0) {\r\n               counter++;\r\n               break;\r\n           }\r\n        }\r\n\r\n        if(counter > 0){\r\n            _deposit(amounts);\r\n        }\r\n    }\r\n\r\n    //Withdraw from Pool\r\n    function withdraw() onlyOwner external {\r\n\r\n        uint8 counter = 0;\r\n        for(uint8 i=0; i<N_COINS; i++) {\r\n           if(totalWithdraw[i] != 0) {\r\n               counter++;\r\n               break;\r\n           }\r\n        }\r\n\r\n        require(counter > 0, \"withdraw queue empty\");\r\n\r\n        _withdraw(totalWithdraw);\r\n        _giveBack();\r\n        resetQueue();\r\n    }\r\n\r\n    //function for rebalancing pool(ratio)      \r\n    function rebalance() onlyOwner external {\r\n        uint256[N_COINS] memory currentAmount = getBalances();\r\n        uint256[N_COINS] memory amountToWithdraw;\r\n        uint256[N_COINS] memory amountToDeposit;\r\n\r\n        rStrategyI[3] memory strat = controller.getStrategies();\r\n\r\n        for(uint8 i=0;i<N_COINS;i++) {\r\n           uint256 decimal=tokens[i].decimals();\r\n           uint256 a = (selfBalance[i] * (100 - poolPart)) / 100;\r\n           if(a > currentAmount[i]) {\r\n              amountToWithdraw[i] = a - currentAmount[i];\r\n              if(amountToWithdraw[i]<(50*(10**decimal))){\r\n                  amountToWithdraw[i]=0;\r\n              }\r\n           }\r\n           else if(a < currentAmount[i]) {\r\n               amountToDeposit[i] = currentAmount[i] - a;\r\n               if(amountToDeposit[i]<(50*(10**decimal))){\r\n                   amountToDeposit[i]=0;\r\n               }\r\n               else{\r\n                  tokens[i].transfer(address(strat[i]), amountToDeposit[i]);\r\n               }\r\n           }\r\n           else {\r\n               amountToWithdraw[i] = 0;\r\n               amountToDeposit[i] = 0;\r\n           }\r\n        }\r\n\r\n        bool check=false;\r\n        for(uint8 i=0; i<N_COINS; i++) {\r\n            if(amountToDeposit[i] > 0) {\r\n                  check = true;\r\n                  break;\r\n            }\r\n        }\r\n\r\n        if(check){\r\n             _deposit(amountToDeposit);\r\n             check = false;\r\n        }\r\n\r\n        for(uint8 i=0; i<N_COINS; i++) {\r\n            if(amountToWithdraw[i] > 0) {\r\n                  check = true;\r\n                  break;\r\n            }\r\n        }\r\n        \r\n        if(check) {\r\n            _withdraw(amountToWithdraw);\r\n             check = false;\r\n        }\r\n\r\n    }\r\n\r\n\r\n    /* ADMIN FUNCTIONS */\r\n\r\n    \r\n    function getTotalPoolBalance() external view returns(uint256[3] memory) {\r\n        return selfBalance;\r\n    }\r\n\r\n    function getTotalLoanGiven() external view returns(uint256[3] memory) {\r\n        return loanGiven;\r\n    }\r\n\r\n    function setLoanContract(address _loanContract)external onlyOwner returns(bool){\r\n        loanContract=_loanContract;\r\n    }\r\n\r\n    function changePoolPart(uint128 _newPoolPart) external onlyOwner returns(bool) {\r\n        poolPart = _newPoolPart;\r\n        return true;\r\n    }\r\n\r\n    function getYieldProfit() external onlyOwner {\r\n        profitFromYield=controller.getTotalProfit();\r\n\r\n        for(uint8 i=0;i<N_COINS;i++){\r\n            selfBalance[i] += profitFromYield[i];\r\n        }\r\n    }\r\n\r\n    function setThresholdTokenAmount(uint256 _newThreshold) external onlyOwner returns(bool) {\r\n        thresholdTokenAmount = _newThreshold;\r\n        return true;\r\n    }\r\n\r\n    function setInitialDeposit() onlyOwner external returns(bool) {\r\n        selfBalance = getBalances();\r\n        return true;\r\n    }\r\n\r\n    function setController(rControllerI _controller) onlyOwner external returns(bool) {\r\n        controller = _controller;\r\n        return true;\r\n    }\r\n\r\n    function setLockPeriod(uint128 lockperiod) onlyOwner external returns(bool) {\r\n        lock_period = lockperiod;\r\n        return true;\r\n    }\r\n\r\n    function setWithdrawFees(uint128 _fees) onlyOwner external returns(bool) {\r\n        fees = _fees;\r\n        return true;\r\n    }\r\n\r\n}",
  "sourcePath": "C:/Users/MayankVats/Desktop/WORK/blockchain/Royale/rlp/contracts/RoyaleLP.sol",
  "compiler": {
    "name": "solc",
    "version": "0.6.12+commit.27d51765.Emscripten.clang"
  },
  "schemaVersion": "3.3.2",
  "updatedAt": "2020-12-30T11:10:56.809Z",
  "devdoc": {
    "kind": "dev",
    "methods": {},
    "version": 1
  },
  "userdoc": {
    "kind": "user",
    "methods": {},
    "version": 1
  }
}