{
  "contractName": "RoyaleLP",
  "abi": [
    {
      "inputs": [
        {
          "internalType": "address[3]",
          "name": "_tokens",
          "type": "address[3]"
        },
        {
          "internalType": "address",
          "name": "_rpToken",
          "type": "address"
        }
      ],
      "stateMutability": "nonpayable",
      "type": "constructor"
    },
    {
      "anonymous": false,
      "inputs": [
        {
          "indexed": false,
          "internalType": "address",
          "name": "user",
          "type": "address"
        },
        {
          "indexed": false,
          "internalType": "uint256[3]",
          "name": "amounts",
          "type": "uint256[3]"
        }
      ],
      "name": "userAddedToQ",
      "type": "event"
    },
    {
      "anonymous": false,
      "inputs": [
        {
          "indexed": false,
          "internalType": "address",
          "name": "user",
          "type": "address"
        },
        {
          "indexed": false,
          "internalType": "uint256[3]",
          "name": "amounts",
          "type": "uint256[3]"
        }
      ],
      "name": "userRecieved",
      "type": "event"
    },
    {
      "anonymous": false,
      "inputs": [
        {
          "indexed": false,
          "internalType": "address",
          "name": "user",
          "type": "address"
        },
        {
          "indexed": false,
          "internalType": "uint256[3]",
          "name": "amounts",
          "type": "uint256[3]"
        }
      ],
      "name": "userSupplied",
      "type": "event"
    },
    {
      "inputs": [],
      "name": "BASE_DECIMAL",
      "outputs": [
        {
          "internalType": "uint256",
          "name": "",
          "type": "uint256"
        }
      ],
      "stateMutability": "view",
      "type": "function"
    },
    {
      "inputs": [
        {
          "internalType": "uint256",
          "name": "",
          "type": "uint256"
        }
      ],
      "name": "YieldPoolBalance",
      "outputs": [
        {
          "internalType": "uint256",
          "name": "",
          "type": "uint256"
        }
      ],
      "stateMutability": "view",
      "type": "function"
    },
    {
      "inputs": [
        {
          "internalType": "address",
          "name": "",
          "type": "address"
        },
        {
          "internalType": "uint256",
          "name": "",
          "type": "uint256"
        }
      ],
      "name": "amountSupplied",
      "outputs": [
        {
          "internalType": "uint256",
          "name": "",
          "type": "uint256"
        }
      ],
      "stateMutability": "view",
      "type": "function"
    },
    {
      "inputs": [],
      "name": "fees",
      "outputs": [
        {
          "internalType": "uint128",
          "name": "",
          "type": "uint128"
        }
      ],
      "stateMutability": "view",
      "type": "function"
    },
    {
      "inputs": [
        {
          "internalType": "address",
          "name": "",
          "type": "address"
        }
      ],
      "name": "isInQ",
      "outputs": [
        {
          "internalType": "bool",
          "name": "",
          "type": "bool"
        }
      ],
      "stateMutability": "view",
      "type": "function"
    },
    {
      "inputs": [],
      "name": "loanContract",
      "outputs": [
        {
          "internalType": "address",
          "name": "",
          "type": "address"
        }
      ],
      "stateMutability": "view",
      "type": "function"
    },
    {
      "inputs": [
        {
          "internalType": "uint256",
          "name": "",
          "type": "uint256"
        }
      ],
      "name": "loanGiven",
      "outputs": [
        {
          "internalType": "uint256",
          "name": "",
          "type": "uint256"
        }
      ],
      "stateMutability": "view",
      "type": "function"
    },
    {
      "inputs": [],
      "name": "lock_period",
      "outputs": [
        {
          "internalType": "uint128",
          "name": "",
          "type": "uint128"
        }
      ],
      "stateMutability": "view",
      "type": "function"
    },
    {
      "inputs": [],
      "name": "owner",
      "outputs": [
        {
          "internalType": "address",
          "name": "",
          "type": "address"
        }
      ],
      "stateMutability": "view",
      "type": "function"
    },
    {
      "inputs": [],
      "name": "poolPart",
      "outputs": [
        {
          "internalType": "uint128",
          "name": "",
          "type": "uint128"
        }
      ],
      "stateMutability": "view",
      "type": "function"
    },
    {
      "inputs": [
        {
          "internalType": "uint256",
          "name": "",
          "type": "uint256"
        }
      ],
      "name": "profitFromYield",
      "outputs": [
        {
          "internalType": "uint256",
          "name": "",
          "type": "uint256"
        }
      ],
      "stateMutability": "view",
      "type": "function"
    },
    {
      "inputs": [
        {
          "internalType": "uint256",
          "name": "",
          "type": "uint256"
        }
      ],
      "name": "selfBalance",
      "outputs": [
        {
          "internalType": "uint256",
          "name": "",
          "type": "uint256"
        }
      ],
      "stateMutability": "view",
      "type": "function"
    },
    {
      "inputs": [],
      "name": "thresholdTokenAmount",
      "outputs": [
        {
          "internalType": "uint256",
          "name": "",
          "type": "uint256"
        }
      ],
      "stateMutability": "view",
      "type": "function"
    },
    {
      "inputs": [
        {
          "internalType": "uint256",
          "name": "",
          "type": "uint256"
        }
      ],
      "name": "totalWithdraw",
      "outputs": [
        {
          "internalType": "uint256",
          "name": "",
          "type": "uint256"
        }
      ],
      "stateMutability": "view",
      "type": "function"
    },
    {
      "inputs": [
        {
          "internalType": "uint256[3]",
          "name": "amounts",
          "type": "uint256[3]"
        },
        {
          "internalType": "bool",
          "name": "burn",
          "type": "bool"
        }
      ],
      "name": "calcRptAmount",
      "outputs": [
        {
          "internalType": "uint256",
          "name": "",
          "type": "uint256"
        }
      ],
      "stateMutability": "view",
      "type": "function"
    },
    {
      "inputs": [
        {
          "internalType": "address",
          "name": "addr",
          "type": "address"
        },
        {
          "internalType": "uint256",
          "name": "coin",
          "type": "uint256"
        }
      ],
      "name": "availableWithdraw",
      "outputs": [
        {
          "internalType": "uint256",
          "name": "",
          "type": "uint256"
        }
      ],
      "stateMutability": "view",
      "type": "function"
    },
    {
      "inputs": [
        {
          "internalType": "uint256[3]",
          "name": "amounts",
          "type": "uint256[3]"
        }
      ],
      "name": "supply",
      "outputs": [],
      "stateMutability": "nonpayable",
      "type": "function"
    },
    {
      "inputs": [
        {
          "internalType": "uint256[3]",
          "name": "amounts",
          "type": "uint256[3]"
        }
      ],
      "name": "requestWithdraw",
      "outputs": [],
      "stateMutability": "nonpayable",
      "type": "function"
    },
    {
      "inputs": [
        {
          "internalType": "uint256[3]",
          "name": "amounts",
          "type": "uint256[3]"
        },
        {
          "internalType": "address",
          "name": "_loanSeeker",
          "type": "address"
        }
      ],
      "name": "_loanWithdraw",
      "outputs": [
        {
          "internalType": "bool",
          "name": "",
          "type": "bool"
        }
      ],
      "stateMutability": "nonpayable",
      "type": "function"
    },
    {
      "inputs": [
        {
          "internalType": "uint256[3]",
          "name": "amounts",
          "type": "uint256[3]"
        },
        {
          "internalType": "address",
          "name": "_loanSeeker",
          "type": "address"
        }
      ],
      "name": "_loanRepayment",
      "outputs": [
        {
          "internalType": "bool",
          "name": "",
          "type": "bool"
        }
      ],
      "stateMutability": "nonpayable",
      "type": "function"
    },
    {
      "inputs": [
        {
          "internalType": "uint256[3]",
          "name": "amounts",
          "type": "uint256[3]"
        }
      ],
      "name": "depsoitInRoyale",
      "outputs": [],
      "stateMutability": "nonpayable",
      "type": "function"
    },
    {
      "inputs": [],
      "name": "deposit",
      "outputs": [],
      "stateMutability": "nonpayable",
      "type": "function"
    },
    {
      "inputs": [],
      "name": "withdraw",
      "outputs": [],
      "stateMutability": "nonpayable",
      "type": "function"
    },
    {
      "inputs": [],
      "name": "rebalance",
      "outputs": [],
      "stateMutability": "nonpayable",
      "type": "function"
    },
    {
      "inputs": [],
      "name": "getTotalPoolBalance",
      "outputs": [
        {
          "internalType": "uint256[3]",
          "name": "",
          "type": "uint256[3]"
        }
      ],
      "stateMutability": "view",
      "type": "function"
    },
    {
      "inputs": [],
      "name": "getTotalLoanGiven",
      "outputs": [
        {
          "internalType": "uint256[3]",
          "name": "",
          "type": "uint256[3]"
        }
      ],
      "stateMutability": "view",
      "type": "function"
    },
    {
      "inputs": [
        {
          "internalType": "address",
          "name": "_loanContract",
          "type": "address"
        }
      ],
      "name": "setLoanContract",
      "outputs": [
        {
          "internalType": "bool",
          "name": "",
          "type": "bool"
        }
      ],
      "stateMutability": "nonpayable",
      "type": "function"
    },
    {
      "inputs": [
        {
          "internalType": "uint128",
          "name": "_newPoolPart",
          "type": "uint128"
        }
      ],
      "name": "changePoolPart",
      "outputs": [
        {
          "internalType": "bool",
          "name": "",
          "type": "bool"
        }
      ],
      "stateMutability": "nonpayable",
      "type": "function"
    },
    {
      "inputs": [],
      "name": "getYieldProfit",
      "outputs": [],
      "stateMutability": "nonpayable",
      "type": "function"
    },
    {
      "inputs": [
        {
          "internalType": "uint256",
          "name": "_newThreshold",
          "type": "uint256"
        }
      ],
      "name": "setThresholdTokenAmount",
      "outputs": [
        {
          "internalType": "bool",
          "name": "",
          "type": "bool"
        }
      ],
      "stateMutability": "nonpayable",
      "type": "function"
    },
    {
      "inputs": [],
      "name": "setInitialDeposit",
      "outputs": [
        {
          "internalType": "bool",
          "name": "",
          "type": "bool"
        }
      ],
      "stateMutability": "nonpayable",
      "type": "function"
    },
    {
      "inputs": [
        {
          "internalType": "contract rControllerI",
          "name": "_controller",
          "type": "address"
        }
      ],
      "name": "setController",
      "outputs": [
        {
          "internalType": "bool",
          "name": "",
          "type": "bool"
        }
      ],
      "stateMutability": "nonpayable",
      "type": "function"
    },
    {
      "inputs": [
        {
          "internalType": "uint128",
          "name": "lockperiod",
          "type": "uint128"
        }
      ],
      "name": "setLockPeriod",
      "outputs": [
        {
          "internalType": "bool",
          "name": "",
          "type": "bool"
        }
      ],
      "stateMutability": "nonpayable",
      "type": "function"
    },
    {
      "inputs": [
        {
          "internalType": "uint128",
          "name": "_fees",
          "type": "uint128"
        }
      ],
      "name": "setWithdrawFees",
      "outputs": [
        {
          "internalType": "bool",
          "name": "",
          "type": "bool"
        }
      ],
      "stateMutability": "nonpayable",
      "type": "function"
    }
  ],
  "bytecode": "0x60806040526001805560006002556019600460006101000a8154816fffffffffffffffffffffffffffffffff02191690836fffffffffffffffffffffffffffffffff160217905550605f600460106101000a8154816fffffffffffffffffffffffffffffffff02191690836fffffffffffffffffffffffffffffffff1602179055506101f46011553480156200009457600080fd5b50604051620054e3380380620054e38339818101604052810190620000ba91906200026f565b33600860006101000a81548173ffffffffffffffffffffffffffffffffffffffff021916908373ffffffffffffffffffffffffffffffffffffffff16021790555060005b60036fffffffffffffffffffffffffffffffff168160ff1610156200019057828160ff16600381106200012d57fe5b602002015160098260ff16600381106200014357fe5b0160006101000a81548173ffffffffffffffffffffffffffffffffffffffff021916908373ffffffffffffffffffffffffffffffffffffffff1602179055508080600101915050620000fe565b5080600c60006101000a81548173ffffffffffffffffffffffffffffffffffffffff021916908373ffffffffffffffffffffffffffffffffffffffff16021790555050506200034f565b600081519050620001eb8162000335565b92915050565b600082601f8301126200020357600080fd5b60036200021a6200021482620002de565b620002b0565b915081838560208402820111156200023157600080fd5b60005b838110156200026557816200024a8882620001da565b84526020840193506020830192505060018101905062000234565b5050505092915050565b600080608083850312156200028357600080fd5b60006200029385828601620001f1565b9250506060620002a685828601620001da565b9150509250929050565b6000604051905081810181811067ffffffffffffffff82111715620002d457600080fd5b8060405250919050565b600067ffffffffffffffff821115620002f657600080fd5b602082029050919050565b60006200030e8262000315565b9050919050565b600073ffffffffffffffffffffffffffffffffffffffff82169050919050565b620003408162000301565b81146200034c57600080fd5b50565b615184806200035f6000396000f3fe608060405234801561001057600080fd5b50600436106102065760003560e01c80638af814781161011a578063b8b10680116100ad578063d0e30db01161007c578063d0e30db01461062b578063d8c76af514610635578063db28bfd014610665578063eacd7afc14610695578063f83e9a20146106c557610206565b8063b8b106801461058f578063c23177b2146105bf578063c277b657146105ef578063c89eb0361461060d57610206565b806392eefe9b116100e957806392eefe9b146104e15780639af1d35a14610511578063a6d8fcb21461052f578063a70200bd1461055f57610206565b80638af81478146104575780638da5cb5b146104755780638e9b032614610493578063905f692e146104b157610206565b80633ccfd60b1161019d5780636b9f1ef61161016c5780636b9f1ef61461038d5780636d6ea257146103bd5780637d7c2a1c146103ed57806380001288146103f757806381f433f01461042757610206565b80633ccfd60b1461031957806347d4a6a81461032357806352f6e2381461033f578063698504241461035d57610206565b8063253f284b116101d9578063253f284b146102915780632f1fefe3146102af57806331805a2b146102b957806331d38806146102e957610206565b80630d88122c1461020b578063147453e914610227578063224a141814610257578063233fc9a214610273575b600080fd5b610225600480360381019061022091906147a0565b6106e3565b005b610241600480360381019061023c919061482e565b6107e3565b60405161024e9190614f09565b60405180910390f35b610271600480360381019061026c91906147a0565b610a4e565b005b61027b610ba2565b6040516102889190614d98565b60405180910390f35b610299610bed565b6040516102a69190614c79565b60405180910390f35b6102b7610c13565b005b6102d360048036038101906102ce91906148e5565b610d81565b6040516102e09190614f09565b60405180910390f35b61030360048036038101906102fe9190614712565b610d99565b6040516103109190614db3565b60405180910390f35b610321610e3b565b005b61033d600480360381019061033891906147a0565b610f82565b005b610347611932565b6040516103549190614db3565b60405180910390f35b610377600480360381019061037291906148e5565b6119ae565b6040516103849190614f09565b60405180910390f35b6103a760048036038101906103a291906148bc565b6119c6565b6040516103b49190614db3565b60405180910390f35b6103d760048036038101906103d291906148e5565b611a64565b6040516103e49190614f09565b60405180910390f35b6103f5611a7c565b005b610411600480360381019061040c91906147f2565b611eb8565b60405161041e9190614db3565b60405180910390f35b610441600480360381019061043c91906148bc565b612130565b60405161044e9190614db3565b60405180910390f35b61045f6121ce565b60405161046c9190614f09565b60405180910390f35b61047d6121da565b60405161048a9190614c79565b60405180910390f35b61049b612200565b6040516104a89190614eee565b60405180910390f35b6104cb60048036038101906104c69190614712565b612222565b6040516104d89190614db3565b60405180910390f35b6104fb60048036038101906104f69190614893565b612242565b6040516105089190614db3565b60405180910390f35b6105196122e8565b6040516105269190614eee565b60405180910390f35b6105496004803603810190610544919061473b565b61230a565b6040516105569190614f09565b60405180910390f35b610579600480360381019061057491906148bc565b612515565b6040516105869190614db3565b60405180910390f35b6105a960048036038101906105a491906148e5565b6125b3565b6040516105b69190614db3565b60405180910390f35b6105d960048036038101906105d4919061473b565b61261f565b6040516105e69190614f09565b60405180910390f35b6105f7612644565b6040516106049190614d98565b60405180910390f35b61061561268f565b6040516106229190614f09565b60405180910390f35b610633612695565b005b61064f600480360381019061064a91906148e5565b612b04565b60405161065c9190614f09565b60405180910390f35b61067f600480360381019061067a91906148e5565b612b1c565b60405161068c9190614f09565b60405180910390f35b6106af60048036038101906106aa91906147f2565b612b34565b6040516106bc9190614db3565b60405180910390f35b6106cd612db3565b6040516106da9190614eee565b60405180910390f35b6000610727826003806020026040519081016040528092919082600360200280828437600081840152601f19601f82011690508083019250505050505060006107e3565b11610767576040517f08c379a000000000000000000000000000000000000000000000000000000000815260040161075e90614dce565b60405180910390fd5b6107a7816003806020026040519081016040528092919082600360200280828437600081840152601f19601f820116905080830192505050505050612dd5565b7fe7f2330a99451f199f91ed2ac09887e25894cb0e14021fe5d29bc959e7283d0e33826040516107d8929190614ce6565b60405180910390a150565b60008060008060008061089d600c60009054906101000a900473ffffffffffffffffffffffffffffffffffffffff1673ffffffffffffffffffffffffffffffffffffffff166318160ddd6040518163ffffffff1660e01b815260040160206040518083038186803b15801561085757600080fd5b505afa15801561086b573d6000803e3d6000fd5b505050506040513d601f19601f8201168201806040525081019061088f919061490e565b670de0b6b3a7640000613171565b905060005b60036fffffffffffffffffffffffffffffffff168160ff1610156109da5760098160ff16600381106108d057fe5b0160009054906101000a900473ffffffffffffffffffffffffffffffffffffffff1673ffffffffffffffffffffffffffffffffffffffff1663313ce5676040518163ffffffff1660e01b815260040160206040518083038186803b15801561093757600080fd5b505afa15801561094b573d6000803e3d6000fd5b505050506040513d601f19601f8201168201806040525081019061096f9190614937565b60ff1693506109a5601e8260ff166003811061098757fe5b015460058360ff166003811061099957fe5b01540185600a0a613171565b850194506109c9898260ff16600381106109bb57fe5b602002015185600a0a613171565b8301925080806001019150506108a2565b506109ee6109e88386613171565b82613291565b9450600115158715151415610a4057612710600460009054906101000a90046fffffffffffffffffffffffffffffffff166fffffffffffffffffffffffffffffffff16860281610a3a57fe5b04850194505b849550505050505092915050565b60005b60036fffffffffffffffffffffffffffffffff168160ff161015610b9e576000828260ff1660038110610a8057fe5b602002013514610b915760098160ff1660038110610a9a57fe5b0160009054906101000a900473ffffffffffffffffffffffffffffffffffffffff1673ffffffffffffffffffffffffffffffffffffffff166323b872dd3330858560ff1660038110610ae857fe5b60200201356040518463ffffffff1660e01b8152600401610b0b93929190614caf565b602060405180830381600087803b158015610b2557600080fd5b505af1158015610b39573d6000803e3d6000fd5b505050506040513d601f19601f82011682018060405250810190610b5d919061486a565b50818160ff1660038110610b6d57fe5b602002013560058260ff1660038110610b8257fe5b01600082825401925050819055505b8080600101915050610a51565b5050565b610baa61431d565b6005600380602002604051908101604052809291908260038015610be3576020028201915b815481526020019060010190808311610bcf575b5050505050905090565b602160009054906101000a900473ffffffffffffffffffffffffffffffffffffffff1681565b600860009054906101000a900473ffffffffffffffffffffffffffffffffffffffff1673ffffffffffffffffffffffffffffffffffffffff163373ffffffffffffffffffffffffffffffffffffffff1614610c6d57600080fd5b600d60009054906101000a900473ffffffffffffffffffffffffffffffffffffffff1673ffffffffffffffffffffffffffffffffffffffff1663a9a4cbcc6040518163ffffffff1660e01b8152600401606060405180830381600087803b158015610cd757600080fd5b505af1158015610ceb573d6000803e3d6000fd5b505050506040513d601f19601f82011682018060405250810190610d0f91906147c9565b6012906003610d1f92919061433f565b5060005b60036fffffffffffffffffffffffffffffffff168160ff161015610d7e5760128160ff1660038110610d5157fe5b015460058260ff1660038110610d6357fe5b01600082825401925050819055508080600101915050610d23565b50565b600e8160038110610d8e57fe5b016000915090505481565b6000600860009054906101000a900473ffffffffffffffffffffffffffffffffffffffff1673ffffffffffffffffffffffffffffffffffffffff163373ffffffffffffffffffffffffffffffffffffffff1614610df557600080fd5b81602160006101000a81548173ffffffffffffffffffffffffffffffffffffffff021916908373ffffffffffffffffffffffffffffffffffffffff160217905550919050565b600860009054906101000a900473ffffffffffffffffffffffffffffffffffffffff1673ffffffffffffffffffffffffffffffffffffffff163373ffffffffffffffffffffffffffffffffffffffff1614610e9557600080fd5b6000805b60036fffffffffffffffffffffffffffffffff168160ff161015610eea576000601b8260ff1660038110610ec957fe5b015414610edd578180600101925050610eea565b8080600101915050610e99565b5060008160ff1611610f31576040517f08c379a0000000000000000000000000000000000000000000000000000000008152600401610f2890614dee565b60405180910390fd5b610f77601b600380602002604051908101604052809291908260038015610f6d576020028201915b815481526020019060010190808311610f59575b505050505061336d565b610f7f61345e565b50565b6000610fc6826003806020026040519081016040528092919082600360200280828437600081840152601f19601f82011690508083019250505050505060006107e3565b11611006576040517f08c379a0000000000000000000000000000000000000000000000000000000008152600401610ffd90614dce565b60405180910390fd5b600061104a826003806020026040519081016040528092919082600360200280828437600081840152601f19601f82011690508083019250505050505060016107e3565b905080600c60009054906101000a900473ffffffffffffffffffffffffffffffffffffffff1673ffffffffffffffffffffffffffffffffffffffff166370a08231336040518263ffffffff1660e01b81526004016110a89190614c94565b60206040518083038186803b1580156110c057600080fd5b505afa1580156110d4573d6000803e3d6000fd5b505050506040513d601f19601f820116820180604052508101906110f8919061490e565b1015611139576040517f08c379a000000000000000000000000000000000000000000000000000000000815260040161113090614ece565b60405180910390fd5b61114161431d565b6111496134b0565b9050600060019050600080600090505b60036fffffffffffffffffffffffffffffffff168160ff1610156111cd576000868260ff166003811061118857fe5b602002013511156111c057858160ff16600381106111a257fe5b60200201356111b4338360ff1661230a565b10156111bf57600092505b5b8080600101915050611159565b508161120e576040517f08c379a000000000000000000000000000000000000000000000000000000000815260040161120590614e0e565b60405180910390fd5b60005b60036fffffffffffffffffffffffffffffffff168160ff16101561128f57838160ff166003811061123e57fe5b6020020151868260ff166003811061125257fe5b602002013510801561127857506000868260ff166003811061127057fe5b602002013514155b1561128257600191505b8080600101915050611211565b5080156118b157600c60009054906101000a900473ffffffffffffffffffffffffffffffffffffffff1673ffffffffffffffffffffffffffffffffffffffff16639dc29fac33866040518363ffffffff1660e01b81526004016112f3929190614d0f565b600060405180830381600087803b15801561130d57600080fd5b505af1158015611321573d6000803e3d6000fd5b50505050600080600090505b60036fffffffffffffffffffffffffffffffff168160ff161015611871576000878260ff166003811061135c57fe5b602002013511156118645760098160ff166003811061137757fe5b0160009054906101000a900473ffffffffffffffffffffffffffffffffffffffff1673ffffffffffffffffffffffffffffffffffffffff1663a9059cbb33898460ff16600381106113c457fe5b60200201356040518363ffffffff1660e01b81526004016113e6929190614d0f565b602060405180830381600087803b15801561140057600080fd5b505af1158015611414573d6000803e3d6000fd5b505050506040513d601f19601f82011682018060405250810190611438919061486a565b91508161144457600080fd5b868160ff166003811061145357fe5b6020020135601660003373ffffffffffffffffffffffffffffffffffffffff1673ffffffffffffffffffffffffffffffffffffffff1681526020019081526020016000208260ff16600381106114a557fe5b0160008282540392505081905550868160ff16600381106114c257fe5b602002013560058260ff16600381106114d757fe5b01600082825403925050819055506000878260ff16600381106114f657fe5b6020020135905060005b601760003373ffffffffffffffffffffffffffffffffffffffff1673ffffffffffffffffffffffffffffffffffffffff168152602001908152602001600020805490508160ff1610156118615760011515601760003373ffffffffffffffffffffffffffffffffffffffff1673ffffffffffffffffffffffffffffffffffffffff1681526020019081526020016000208260ff168154811061159e57fe5b90600052602060002090600802016007018460ff16600381106115bd57fe5b602091828204019190069054906101000a900460ff161515141580156115e35750600082115b1561185457601760003373ffffffffffffffffffffffffffffffffffffffff1673ffffffffffffffffffffffffffffffffffffffff1681526020019081526020016000208160ff168154811061163557fe5b90600052602060002090600802016003018360ff166003811061165457fe5b015482106117d357601760003373ffffffffffffffffffffffffffffffffffffffff1673ffffffffffffffffffffffffffffffffffffffff1681526020019081526020016000208160ff16815481106116a957fe5b90600052602060002090600802016003018360ff16600381106116c857fe5b0154820391506000601760003373ffffffffffffffffffffffffffffffffffffffff1673ffffffffffffffffffffffffffffffffffffffff1681526020019081526020016000208260ff168154811061171d57fe5b90600052602060002090600802016003018460ff166003811061173c57fe5b01819055506001601760003373ffffffffffffffffffffffffffffffffffffffff1673ffffffffffffffffffffffffffffffffffffffff1681526020019081526020016000208260ff168154811061179057fe5b90600052602060002090600802016007018460ff16600381106117af57fe5b602091828204019190066101000a81548160ff021916908315150217905550611853565b81601760003373ffffffffffffffffffffffffffffffffffffffff1673ffffffffffffffffffffffffffffffffffffffff1681526020019081526020016000208260ff168154811061182157fe5b90600052602060002090600802016003018460ff166003811061184057fe5b0160008282540392505081905550600091505b5b8080600101915050611500565b50505b808060010191505061132d565b507fe9c01f7dea3ef08b44263b3cf5963eb42309e5fb5bec9305dbe12b82f37b519c33876040516118a3929190614ce6565b60405180910390a15061192b565b6118f1856003806020026040519081016040528092919082600360200280828437600081840152601f19601f8201169050808301925050505050506135c8565b7fe2d5e24e56e4f05473adb8bb616473de3894beab8011d32382a638d1d2617c933386604051611922929190614ce6565b60405180910390a15b5050505050565b6000600860009054906101000a900473ffffffffffffffffffffffffffffffffffffffff1673ffffffffffffffffffffffffffffffffffffffff163373ffffffffffffffffffffffffffffffffffffffff161461198e57600080fd5b6119966134b0565b60059060036119a692919061433f565b506001905090565b600581600381106119bb57fe5b016000915090505481565b6000600860009054906101000a900473ffffffffffffffffffffffffffffffffffffffff1673ffffffffffffffffffffffffffffffffffffffff163373ffffffffffffffffffffffffffffffffffffffff1614611a2257600080fd5b81600460006101000a8154816fffffffffffffffffffffffffffffffff02191690836fffffffffffffffffffffffffffffffff16021790555060019050919050565b601e8160038110611a7157fe5b016000915090505481565b600860009054906101000a900473ffffffffffffffffffffffffffffffffffffffff1673ffffffffffffffffffffffffffffffffffffffff163373ffffffffffffffffffffffffffffffffffffffff1614611ad657600080fd5b611ade61431d565b611ae66134b0565b9050611af061431d565b611af861431d565b611b0061437f565b600d60009054906101000a900473ffffffffffffffffffffffffffffffffffffffff1673ffffffffffffffffffffffffffffffffffffffff1663b49a60bb6040518163ffffffff1660e01b8152600401606060405180830381600087803b158015611b6a57600080fd5b505af1158015611b7e573d6000803e3d6000fd5b505050506040513d601f19601f82011682018060405250810190611ba29190614777565b905060005b60036fffffffffffffffffffffffffffffffff168160ff161015611ddf5760006064600460109054906101000a90046fffffffffffffffffffffffffffffffff166064036fffffffffffffffffffffffffffffffff1660058460ff1660038110611c0d57fe5b01540281611c1757fe5b049050858260ff1660038110611c2957fe5b6020020151811115611c6857858260ff1660038110611c4457fe5b60200201518103858360ff1660038110611c5a57fe5b602002018181525050611dd1565b858260ff1660038110611c7757fe5b6020020151811015611d9b5780868360ff1660038110611c9357fe5b602002015103848360ff1660038110611ca857fe5b60200201818152505060098260ff1660038110611cc157fe5b0160009054906101000a900473ffffffffffffffffffffffffffffffffffffffff1673ffffffffffffffffffffffffffffffffffffffff1663a9059cbb848460ff1660038110611d0d57fe5b6020020151868560ff1660038110611d2157fe5b60200201516040518363ffffffff1660e01b8152600401611d43929190614d6f565b602060405180830381600087803b158015611d5d57600080fd5b505af1158015611d71573d6000803e3d6000fd5b505050506040513d601f19601f82011682018060405250810190611d95919061486a565b50611dd0565b6000858360ff1660038110611dac57fe5b6020020181815250506000848360ff1660038110611dc657fe5b6020020181815250505b5b508080600101915050611ba7565b506000805b60036fffffffffffffffffffffffffffffffff168160ff161015611e34576000848260ff1660038110611e1357fe5b60200201511115611e275760019150611e34565b8080600101915050611de4565b508015611e4957611e4483613797565b600090505b60005b60036fffffffffffffffffffffffffffffffff168160ff161015611e9c576000858260ff1660038110611e7b57fe5b60200201511115611e8f5760019150611e9c565b8080600101915050611e4c565b508015611eb157611eac8461336d565b600090505b5050505050565b6000600860009054906101000a900473ffffffffffffffffffffffffffffffffffffffff1673ffffffffffffffffffffffffffffffffffffffff163373ffffffffffffffffffffffffffffffffffffffff161480611f635750602160009054906101000a900473ffffffffffffffffffffffffffffffffffffffff1673ffffffffffffffffffffffffffffffffffffffff163373ffffffffffffffffffffffffffffffffffffffff16145b611fa2576040517f08c379a0000000000000000000000000000000000000000000000000000000008152600401611f9990614e4e565b60405180910390fd5b60005b60036fffffffffffffffffffffffffffffffff168160ff161015612125576000848260ff1660038110611fd457fe5b6020020151111561211857838160ff1660038110611fee57fe5b6020020151601e8260ff166003811061200357fe5b0160008282540392505081905550838160ff166003811061202057fe5b602002015160058260ff166003811061203557fe5b016000828254019250508190555060098160ff166003811061205357fe5b0160009054906101000a900473ffffffffffffffffffffffffffffffffffffffff1673ffffffffffffffffffffffffffffffffffffffff166323b872dd8430878560ff16600381106120a157fe5b60200201516040518463ffffffff1660e01b81526004016120c493929190614d38565b602060405180830381600087803b1580156120de57600080fd5b505af11580156120f2573d6000803e3d6000fd5b505050506040513d601f19601f82011682018060405250810190612116919061486a565b505b8080600101915050611fa5565b506001905092915050565b6000600860009054906101000a900473ffffffffffffffffffffffffffffffffffffffff1673ffffffffffffffffffffffffffffffffffffffff163373ffffffffffffffffffffffffffffffffffffffff161461218c57600080fd5b81601560006101000a8154816fffffffffffffffffffffffffffffffff02191690836fffffffffffffffffffffffffffffffff16021790555060019050919050565b670de0b6b3a764000081565b600860009054906101000a900473ffffffffffffffffffffffffffffffffffffffff1681565b600460109054906101000a90046fffffffffffffffffffffffffffffffff1681565b60196020528060005260406000206000915054906101000a900460ff1681565b6000600860009054906101000a900473ffffffffffffffffffffffffffffffffffffffff1673ffffffffffffffffffffffffffffffffffffffff163373ffffffffffffffffffffffffffffffffffffffff161461229e57600080fd5b81600d60006101000a81548173ffffffffffffffffffffffffffffffffffffffff021916908373ffffffffffffffffffffffffffffffffffffffff16021790555060019050919050565b600460009054906101000a90046fffffffffffffffffffffffffffffffff1681565b6000806000905060005b601760008673ffffffffffffffffffffffffffffffffffffffff1673ffffffffffffffffffffffffffffffffffffffff168152602001908152602001600020805490508160ff16101561250a57601560009054906101000a90046fffffffffffffffffffffffffffffffff1662015180026fffffffffffffffffffffffffffffffff16601760008773ffffffffffffffffffffffffffffffffffffffff1673ffffffffffffffffffffffffffffffffffffffff1681526020019081526020016000208260ff16815481106123e457fe5b9060005260206000209060080201600601544203118015612488575060011515601760008773ffffffffffffffffffffffffffffffffffffffff1673ffffffffffffffffffffffffffffffffffffffff1681526020019081526020016000208260ff168154811061245157fe5b9060005260206000209060080201600701856003811061246d57fe5b602091828204019190069054906101000a900460ff16151514155b156124fd57601760008673ffffffffffffffffffffffffffffffffffffffff1673ffffffffffffffffffffffffffffffffffffffff1681526020019081526020016000208160ff16815481106124da57fe5b906000526020600020906008020160030184600381106124f657fe5b0154820191505b8080600101915050612314565b508091505092915050565b6000600860009054906101000a900473ffffffffffffffffffffffffffffffffffffffff1673ffffffffffffffffffffffffffffffffffffffff163373ffffffffffffffffffffffffffffffffffffffff161461257157600080fd5b81600460106101000a8154816fffffffffffffffffffffffffffffffff02191690836fffffffffffffffffffffffffffffffff16021790555060019050919050565b6000600860009054906101000a900473ffffffffffffffffffffffffffffffffffffffff1673ffffffffffffffffffffffffffffffffffffffff163373ffffffffffffffffffffffffffffffffffffffff161461260f57600080fd5b8160118190555060019050919050565b6016602052816000526040600020816003811061263857fe5b01600091509150505481565b61264c61431d565b601e600380602002604051908101604052809291908260038015612685576020028201915b815481526020019060010190808311612671575b5050505050905090565b60115481565b600860009054906101000a900473ffffffffffffffffffffffffffffffffffffffff1673ffffffffffffffffffffffffffffffffffffffff163373ffffffffffffffffffffffffffffffffffffffff16146126ef57600080fd5b6126f761431d565b6126ff6134b0565b9050600061270b61437f565b600d60009054906101000a900473ffffffffffffffffffffffffffffffffffffffff1673ffffffffffffffffffffffffffffffffffffffff1663b49a60bb6040518163ffffffff1660e01b8152600401606060405180830381600087803b15801561277557600080fd5b505af1158015612789573d6000803e3d6000fd5b505050506040513d601f19601f820116820180604052508101906127ad9190614777565b905060005b60036fffffffffffffffffffffffffffffffff168160ff161015612a8f5760098160ff16600381106127e057fe5b0160009054906101000a900473ffffffffffffffffffffffffffffffffffffffff1673ffffffffffffffffffffffffffffffffffffffff1663313ce5676040518163ffffffff1660e01b815260040160206040518083038186803b15801561284757600080fd5b505afa15801561285b573d6000803e3d6000fd5b505050506040513d601f19601f8201168201806040525081019061287f9190614937565b60ff16925082600a0a60115402848260ff166003811061289b57fe5b60200201511115612a6757600e8160ff16600381106128b657fe5b0154848260ff16600381106128c757fe5b6020020181815101915081815250506064600460109054906101000a90046fffffffffffffffffffffffffffffffff166fffffffffffffffffffffffffffffffff16858360ff166003811061291857fe5b6020020151028161292557fe5b04848260ff166003811061293557fe5b602002018181525050600e8160ff166003811061294e57fe5b0154848260ff166003811061295f57fe5b602002015103848260ff166003811061297457fe5b60200201818152505060098160ff166003811061298d57fe5b0160009054906101000a900473ffffffffffffffffffffffffffffffffffffffff1673ffffffffffffffffffffffffffffffffffffffff1663a9059cbb838360ff16600381106129d957fe5b6020020151868460ff16600381106129ed57fe5b60200201516040518363ffffffff1660e01b8152600401612a0f929190614d6f565b602060405180830381600087803b158015612a2957600080fd5b505af1158015612a3d573d6000803e3d6000fd5b505050506040513d601f19601f82011682018060405250810190612a61919061486a565b50612a82565b6000848260ff1660038110612a7857fe5b6020020181815250505b80806001019150506127b2565b506000805b60036fffffffffffffffffffffffffffffffff168160ff161015612ae7576000858260ff1660038110612ac357fe5b602002015114612ada578180600101925050612ae7565b8080600101915050612a94565b5060008160ff161115612afe57612afd84613797565b5b50505050565b60128160038110612b1157fe5b016000915090505481565b601b8160038110612b2957fe5b016000915090505481565b6000600860009054906101000a900473ffffffffffffffffffffffffffffffffffffffff1673ffffffffffffffffffffffffffffffffffffffff163373ffffffffffffffffffffffffffffffffffffffff161480612bdf5750602160009054906101000a900473ffffffffffffffffffffffffffffffffffffffff1673ffffffffffffffffffffffffffffffffffffffff163373ffffffffffffffffffffffffffffffffffffffff16145b612c1e576040517f08c379a0000000000000000000000000000000000000000000000000000000008152600401612c1590614e4e565b60405180910390fd5b612c278361336d565b60005b60036fffffffffffffffffffffffffffffffff168160ff161015612da8576000848260ff1660038110612c5957fe5b60200201511115612d9b57838160ff1660038110612c7357fe5b6020020151601e8260ff1660038110612c8857fe5b0160008282540192505081905550838160ff1660038110612ca557fe5b602002015160058260ff1660038110612cba57fe5b016000828254039250508190555060098160ff1660038110612cd857fe5b0160009054906101000a900473ffffffffffffffffffffffffffffffffffffffff1673ffffffffffffffffffffffffffffffffffffffff1663a9059cbb84868460ff1660038110612d2557fe5b60200201516040518363ffffffff1660e01b8152600401612d47929190614d6f565b602060405180830381600087803b158015612d6157600080fd5b505af1158015612d75573d6000803e3d6000fd5b505050506040513d601f19601f82011682018060405250810190612d99919061486a565b505b8080600101915050612c2a565b506001905092915050565b601560009054906101000a90046fffffffffffffffffffffffffffffffff1681565b6000612de28260006107e3565b9050600080600090505b60036fffffffffffffffffffffffffffffffff168160ff161015612fea576000848260ff1660038110612e1b57fe5b60200201511115612fdd5760098160ff1660038110612e3657fe5b0160009054906101000a900473ffffffffffffffffffffffffffffffffffffffff1673ffffffffffffffffffffffffffffffffffffffff166323b872dd3330878560ff1660038110612e8457fe5b60200201516040518463ffffffff1660e01b8152600401612ea793929190614caf565b602060405180830381600087803b158015612ec157600080fd5b505af1158015612ed5573d6000803e3d6000fd5b505050506040513d601f19601f82011682018060405250810190612ef9919061486a565b915081612f3b576040517f08c379a0000000000000000000000000000000000000000000000000000000008152600401612f3290614e6e565b60405180910390fd5b838160ff1660038110612f4a57fe5b602002015160058260ff1660038110612f5f57fe5b0160008282540192505081905550838160ff1660038110612f7c57fe5b6020020151601660003373ffffffffffffffffffffffffffffffffffffffff1673ffffffffffffffffffffffffffffffffffffffff1681526020019081526020016000208260ff1660038110612fce57fe5b01600082825401925050819055505b8080600101915050612dec565b50600c60009054906101000a900473ffffffffffffffffffffffffffffffffffffffff1673ffffffffffffffffffffffffffffffffffffffff166340c10f1933846040518363ffffffff1660e01b8152600401613048929190614d0f565b600060405180830381600087803b15801561306257600080fd5b505af1158015613076573d6000803e3d6000fd5b505050506130826143a1565b61308a6143c3565b6040518060800160405280868152602001868152602001428152602001838152509050601760003373ffffffffffffffffffffffffffffffffffffffff1673ffffffffffffffffffffffffffffffffffffffff16815260200190815260200160002081908060018154018082558091505060019003906000526020600020906008020160009091909190915060008201518160000190600361312d92919061433f565b5060208201518160030190600361314592919061433f565b50604082015181600601556060820151816007019060036131679291906143fd565b5050505050505050565b6000808214156131b6576040517f08c379a00000000000000000000000000000000000000000000000000000000081526004016131ad90614eae565b60405180910390fd5b6000670de0b6b3a76400008402905060008414806131e45750670de0b6b3a76400008482816131e157fe5b04145b613223576040517f08c379a000000000000000000000000000000000000000000000000000000000815260040161321a90614e2e565b60405180910390fd5b60006002848161322f57fe5b048201905081811015613277576040517f08c379a000000000000000000000000000000000000000000000000000000000815260040161326e90614e2e565b60405180910390fd5b600084828161328257fe5b04905080935050505092915050565b600080828402905060008414806132b05750828482816132ad57fe5b04145b6132ef576040517f08c379a00000000000000000000000000000000000000000000000000000000081526004016132e690614e8e565b60405180910390fd5b60006002670de0b6b3a76400008161330357fe5b04820190508181101561334b576040517f08c379a000000000000000000000000000000000000000000000000000000000815260040161334290614e8e565b60405180910390fd5b6000670de0b6b3a7640000828161335e57fe5b04905080935050505092915050565b600d60009054906101000a900473ffffffffffffffffffffffffffffffffffffffff1673ffffffffffffffffffffffffffffffffffffffff1663b1b8f1be826040518263ffffffff1660e01b81526004016133c89190614d98565b600060405180830381600087803b1580156133e257600080fd5b505af11580156133f6573d6000803e3d6000fd5b5050505060005b60036fffffffffffffffffffffffffffffffff168160ff16101561345a57818160ff166003811061342a57fe5b6020020151600e8260ff166003811061343f57fe5b016000828254039250508190555080806001019150506133fd565b5050565b6000601a60009054906101000a900463ffffffff16905060005b8163ffffffff168160ff1610156134ac576000613493613888565b905061349e8161397f565b508080600101915050613478565b5050565b6134b861431d565b6134c061431d565b60005b60036fffffffffffffffffffffffffffffffff168160ff1610156135c05760098160ff16600381106134f157fe5b0160009054906101000a900473ffffffffffffffffffffffffffffffffffffffff1673ffffffffffffffffffffffffffffffffffffffff166370a08231306040518263ffffffff1660e01b815260040161354b9190614c79565b60206040518083038186803b15801561356357600080fd5b505afa158015613577573d6000803e3d6000fd5b505050506040513d601f19601f8201168201806040525081019061359b919061490e565b828260ff16600381106135aa57fe5b60200201818152505080806001019150506134c3565b508091505090565b60005b60036fffffffffffffffffffffffffffffffff168110156136a25760008282600381106135f457fe5b602002015111156136955781816003811061360b57fe5b6020020151601860003373ffffffffffffffffffffffffffffffffffffffff1673ffffffffffffffffffffffffffffffffffffffff168152602001908152602001600020826003811061365a57fe5b016000828254019250508190555081816003811061367457fe5b6020020151601b826003811061368657fe5b01600082825401925050819055505b80806001019150506135cb565b5060011515601960003373ffffffffffffffffffffffffffffffffffffffff1673ffffffffffffffffffffffffffffffffffffffff16815260200190815260200160002060009054906101000a900460ff16151514613794576001601a60008282829054906101000a900463ffffffff160192506101000a81548163ffffffff021916908363ffffffff1602179055506001601960003373ffffffffffffffffffffffffffffffffffffffff1673ffffffffffffffffffffffffffffffffffffffff16815260200190815260200160002060006101000a81548160ff021916908315150217905550613793336142b6565b5b50565b600d60009054906101000a900473ffffffffffffffffffffffffffffffffffffffff1673ffffffffffffffffffffffffffffffffffffffff1663d4e20b01826040518263ffffffff1660e01b81526004016137f29190614d98565b600060405180830381600087803b15801561380c57600080fd5b505af1158015613820573d6000803e3d6000fd5b5050505060005b60036fffffffffffffffffffffffffffffffff168160ff16101561388457818160ff166003811061385457fe5b6020020151600e8260ff166003811061386957fe5b01600082825401925050819055508080600101915050613827565b5050565b6000600154600254101561389b57600080fd5b600080600154815260200190815260200160002060009054906101000a900473ffffffffffffffffffffffffffffffffffffffff16600360006101000a81548173ffffffffffffffffffffffffffffffffffffffff021916908373ffffffffffffffffffffffffffffffffffffffff160217905550600080600154815260200190815260200160002060006101000a81549073ffffffffffffffffffffffffffffffffffffffff021916905560018060008282540192505081905550600360009054906101000a900473ffffffffffffffffffffffffffffffffffffffff16905090565b600080613a07601860008573ffffffffffffffffffffffffffffffffffffffff1673ffffffffffffffffffffffffffffffffffffffff1681526020019081526020016000206003806020026040519081016040528092919082600380156139fb576020028201915b8154815260200190600101908083116139e7575b505050505060016107e3565b9050600c60009054906101000a900473ffffffffffffffffffffffffffffffffffffffff1673ffffffffffffffffffffffffffffffffffffffff16639dc29fac84836040518363ffffffff1660e01b8152600401613a66929190614d6f565b600060405180830381600087803b158015613a8057600080fd5b505af1158015613a94573d6000803e3d6000fd5b5050505060005b60036fffffffffffffffffffffffffffffffff168160ff1610156142b0576000601860008673ffffffffffffffffffffffffffffffffffffffff1673ffffffffffffffffffffffffffffffffffffffff1681526020019081526020016000208260ff1660038110613b0857fe5b0154118015613b6557506000601660008673ffffffffffffffffffffffffffffffffffffffff1673ffffffffffffffffffffffffffffffffffffffff1681526020019081526020016000208260ff1660038110613b6157fe5b0154115b156142a35760098160ff1660038110613b7a57fe5b0160009054906101000a900473ffffffffffffffffffffffffffffffffffffffff1673ffffffffffffffffffffffffffffffffffffffff1663a9059cbb85601860008873ffffffffffffffffffffffffffffffffffffffff1673ffffffffffffffffffffffffffffffffffffffff1681526020019081526020016000208460ff1660038110613c0557fe5b01546040518363ffffffff1660e01b8152600401613c24929190614d6f565b602060405180830381600087803b158015613c3e57600080fd5b505af1158015613c52573d6000803e3d6000fd5b505050506040513d601f19601f82011682018060405250810190613c76919061486a565b925082613c8257600080fd5b601860008573ffffffffffffffffffffffffffffffffffffffff1673ffffffffffffffffffffffffffffffffffffffff1681526020019081526020016000208160ff1660038110613ccf57fe5b0154601660008673ffffffffffffffffffffffffffffffffffffffff1673ffffffffffffffffffffffffffffffffffffffff1681526020019081526020016000208260ff1660038110613d1e57fe5b0160008282540392505081905550601860008573ffffffffffffffffffffffffffffffffffffffff1673ffffffffffffffffffffffffffffffffffffffff1681526020019081526020016000208160ff1660038110613d7957fe5b0154601b8260ff1660038110613d8b57fe5b0160008282540392505081905550601860008573ffffffffffffffffffffffffffffffffffffffff1673ffffffffffffffffffffffffffffffffffffffff1681526020019081526020016000208160ff1660038110613de657fe5b015460058260ff1660038110613df857fe5b01600082825403925050819055506000601860008673ffffffffffffffffffffffffffffffffffffffff1673ffffffffffffffffffffffffffffffffffffffff1681526020019081526020016000208260ff1660038110613e5557fe5b0154905060005b601760008773ffffffffffffffffffffffffffffffffffffffff1673ffffffffffffffffffffffffffffffffffffffff168152602001908152602001600020805490508160ff1610156141bd5760011515601760008873ffffffffffffffffffffffffffffffffffffffff1673ffffffffffffffffffffffffffffffffffffffff1681526020019081526020016000208260ff1681548110613efa57fe5b90600052602060002090600802016007018460ff1660038110613f1957fe5b602091828204019190069054906101000a900460ff16151514158015613f3f5750600082115b156141b057601760008773ffffffffffffffffffffffffffffffffffffffff1673ffffffffffffffffffffffffffffffffffffffff1681526020019081526020016000208160ff1681548110613f9157fe5b90600052602060002090600802016003018360ff1660038110613fb057fe5b0154821061412f57601760008773ffffffffffffffffffffffffffffffffffffffff1673ffffffffffffffffffffffffffffffffffffffff1681526020019081526020016000208160ff168154811061400557fe5b90600052602060002090600802016003018360ff166003811061402457fe5b0154820391506000601760008873ffffffffffffffffffffffffffffffffffffffff1673ffffffffffffffffffffffffffffffffffffffff1681526020019081526020016000208260ff168154811061407957fe5b90600052602060002090600802016003018460ff166003811061409857fe5b01819055506001601760008873ffffffffffffffffffffffffffffffffffffffff1673ffffffffffffffffffffffffffffffffffffffff1681526020019081526020016000208260ff16815481106140ec57fe5b90600052602060002090600802016007018460ff166003811061410b57fe5b602091828204019190066101000a81548160ff0219169083151502179055506141af565b81601760008873ffffffffffffffffffffffffffffffffffffffff1673ffffffffffffffffffffffffffffffffffffffff1681526020019081526020016000208260ff168154811061417d57fe5b90600052602060002090600802016003018460ff166003811061419c57fe5b0160008282540392505081905550600091505b5b8080600101915050613e5c565b506000601860008773ffffffffffffffffffffffffffffffffffffffff1673ffffffffffffffffffffffffffffffffffffffff1681526020019081526020016000208360ff166003811061420d57fe5b01819055506000601960008773ffffffffffffffffffffffffffffffffffffffff1673ffffffffffffffffffffffffffffffffffffffff16815260200190815260200160002060006101000a81548160ff0219169083151502179055506001601a60008282829054906101000a900463ffffffff160392506101000a81548163ffffffff021916908363ffffffff160217905550505b8080600101915050613a9b565b50505050565b600160026000828254019250508190555080600080600254815260200190815260200160002060006101000a81548173ffffffffffffffffffffffffffffffffffffffff021916908373ffffffffffffffffffffffffffffffffffffffff16021790555050565b6040518060600160405280600390602082028036833780820191505090505090565b826003810192821561436e579160200282015b8281111561436d578251825591602001919060010190614352565b5b50905061437b9190614496565b5090565b6040518060600160405280600390602082028036833780820191505090505090565b6040518060600160405280600390602082028036833780820191505090505090565b60405180608001604052806143d661431d565b81526020016143e361431d565b8152602001600081526020016143f76143a1565b81525090565b826003601f016020900481019282156144855791602002820160005b8382111561445657835183826101000a81548160ff0219169083151502179055509260200192600101602081600001049283019260010302614419565b80156144835782816101000a81549060ff0219169055600101602081600001049283019260010302614456565b505b50905061449291906144b3565b5090565b5b808211156144af576000816000905550600101614497565b5090565b5b808211156144d757600081816101000a81549060ff0219169055506001016144b4565b5090565b6000813590506144ea816150ad565b92915050565b600082601f83011261450157600080fd5b600361451461450f82614f51565b614f24565b9150818385602084028201111561452a57600080fd5b60005b8381101561455a578161454088826146a9565b84526020840193506020830192505060018101905061452d565b5050505092915050565b60008190508260206003028201111561457c57600080fd5b92915050565b600082601f83011261459357600080fd5b60036145a66145a182614f73565b614f24565b915081838560208402820111156145bc57600080fd5b60005b838110156145ec57816145d288826146d3565b8452602084019350602083019250506001810190506145bf565b5050505092915050565b600082601f83011261460757600080fd5b600361461a61461582614f73565b614f24565b9150818385602084028201111561463057600080fd5b60005b83811015614660578161464688826146e8565b845260208401935060208301925050600181019050614633565b5050505092915050565b600081359050614679816150c4565b92915050565b60008151905061468e816150c4565b92915050565b6000813590506146a3816150db565b92915050565b6000815190506146b8816150f2565b92915050565b6000813590506146cd81615109565b92915050565b6000813590506146e281615120565b92915050565b6000815190506146f781615120565b92915050565b60008151905061470c81615137565b92915050565b60006020828403121561472457600080fd5b6000614732848285016144db565b91505092915050565b6000806040838503121561474e57600080fd5b600061475c858286016144db565b925050602061476d858286016146d3565b9150509250929050565b60006060828403121561478957600080fd5b6000614797848285016144f0565b91505092915050565b6000606082840312156147b257600080fd5b60006147c084828501614564565b91505092915050565b6000606082840312156147db57600080fd5b60006147e9848285016145f6565b91505092915050565b6000806080838503121561480557600080fd5b600061481385828601614582565b9250506060614824858286016144db565b9150509250929050565b6000806080838503121561484157600080fd5b600061484f85828601614582565b92505060606148608582860161466a565b9150509250929050565b60006020828403121561487c57600080fd5b600061488a8482850161467f565b91505092915050565b6000602082840312156148a557600080fd5b60006148b384828501614694565b91505092915050565b6000602082840312156148ce57600080fd5b60006148dc848285016146be565b91505092915050565b6000602082840312156148f757600080fd5b6000614905848285016146d3565b91505092915050565b60006020828403121561492057600080fd5b600061492e848285016146e8565b91505092915050565b60006020828403121561494957600080fd5b6000614957848285016146fd565b91505092915050565b600061496c8383614c5b565b60208301905092915050565b61498181615068565b82525050565b61499081614fd3565b82525050565b6149a26060838361509e565b5050565b6149af81614f9f565b6149b98184614fb7565b92506149c482614f95565b8060005b838110156149f55781516149dc8782614960565b96506149e783614faa565b9250506001810190506149c8565b505050505050565b614a0681614fe5565b82525050565b6000614a19601283614fc2565b91507f7a65726f20746f6b656e7320737570706c7900000000000000000000000000006000830152602082019050919050565b6000614a59601483614fc2565b91507f776974686472617720717565756520656d7074790000000000000000000000006000830152602082019050919050565b6000614a99600b83614fc2565b91507f6c6f636b20706572696f640000000000000000000000000000000000000000006000830152602082019050919050565b6000614ad9601083614fc2565b91507f4552525f4449565f494e5445524e414c000000000000000000000000000000006000830152602082019050919050565b6000614b19600e83614fc2565b91507f6e6f7420617574686f72697a65640000000000000000000000000000000000006000830152602082019050919050565b6000614b59601783614fc2565b91507f5472616e73666572206e6f74207375636365737366756c0000000000000000006000830152602082019050919050565b6000614b99601083614fc2565b91507f4552525f4d554c5f4f564552464c4f57000000000000000000000000000000006000830152602082019050919050565b6000614bd9600c83614fc2565b91507f4552525f4449565f5a45524f00000000000000000000000000000000000000006000830152602082019050919050565b6000614c19600783614fc2565b91507f6c6f7720525054000000000000000000000000000000000000000000000000006000830152602082019050919050565b614c5581615015565b82525050565b614c6481615051565b82525050565b614c7381615051565b82525050565b6000602082019050614c8e6000830184614987565b92915050565b6000602082019050614ca96000830184614978565b92915050565b6000606082019050614cc46000830186614978565b614cd16020830185614987565b614cde6040830184614c6a565b949350505050565b6000608082019050614cfb6000830185614978565b614d086020830184614996565b9392505050565b6000604082019050614d246000830185614978565b614d316020830184614c6a565b9392505050565b6000606082019050614d4d6000830186614987565b614d5a6020830185614987565b614d676040830184614c6a565b949350505050565b6000604082019050614d846000830185614987565b614d916020830184614c6a565b9392505050565b6000606082019050614dad60008301846149a6565b92915050565b6000602082019050614dc860008301846149fd565b92915050565b60006020820190508181036000830152614de781614a0c565b9050919050565b60006020820190508181036000830152614e0781614a4c565b9050919050565b60006020820190508181036000830152614e2781614a8c565b9050919050565b60006020820190508181036000830152614e4781614acc565b9050919050565b60006020820190508181036000830152614e6781614b0c565b9050919050565b60006020820190508181036000830152614e8781614b4c565b9050919050565b60006020820190508181036000830152614ea781614b8c565b9050919050565b60006020820190508181036000830152614ec781614bcc565b9050919050565b60006020820190508181036000830152614ee781614c0c565b9050919050565b6000602082019050614f036000830184614c4c565b92915050565b6000602082019050614f1e6000830184614c6a565b92915050565b6000604051905081810181811067ffffffffffffffff82111715614f4757600080fd5b8060405250919050565b600067ffffffffffffffff821115614f6857600080fd5b602082029050919050565b600067ffffffffffffffff821115614f8a57600080fd5b602082029050919050565b6000819050919050565b600060039050919050565b6000602082019050919050565b600081905092915050565b600082825260208201905092915050565b6000614fde82615031565b9050919050565b60008115159050919050565b6000614ffc82614fd3565b9050919050565b600061500e82614fd3565b9050919050565b60006fffffffffffffffffffffffffffffffff82169050919050565b600073ffffffffffffffffffffffffffffffffffffffff82169050919050565b6000819050919050565b600060ff82169050919050565b60006150738261507a565b9050919050565b60006150858261508c565b9050919050565b600061509782615031565b9050919050565b82818337600083830152505050565b6150b681614fd3565b81146150c157600080fd5b50565b6150cd81614fe5565b81146150d857600080fd5b50565b6150e481614ff1565b81146150ef57600080fd5b50565b6150fb81615003565b811461510657600080fd5b50565b61511281615015565b811461511d57600080fd5b50565b61512981615051565b811461513457600080fd5b50565b6151408161505b565b811461514b57600080fd5b5056fea2646970667358221220d552e3d7c9951b9c1493d603138c24531727c7453aa57270c8ce16652197e03064736f6c634300060c0033",
  "immutableReferences": {},
  "source": "// SPDX-License-Identifier: UNLICENSED\r\npragma solidity ^0.6.0;\r\npragma experimental ABIEncoderV2;\r\n\r\nimport './MathLib.sol';\r\nimport './RoyaleLPstorage.sol';\r\n\r\n\r\ncontract RoyaleLP is RoyaleLPstorage, rNum {\r\n\r\n    modifier onlyOwner {\r\n        require(msg.sender == owner);\r\n        _;\r\n    }\r\n\r\n    modifier onlyAuthorized {\r\n        require(msg.sender == owner || msg.sender == loanContract,\"not authorized\");\r\n        _;\r\n    }\r\n\r\n    constructor(\r\n        address[N_COINS] memory _tokens,\r\n        address _rpToken\r\n    ) public {\r\n        owner = msg.sender;\r\n\r\n        for(uint8 i=0; i<N_COINS; i++) {\r\n            tokens[i] = Erc20(_tokens[i]);\r\n        }\r\n        rpToken = Erc20(_rpToken);\r\n    }\r\n    \r\n    /* EVENTS */\r\n    event userSupplied(\r\n        address user,\r\n        uint[N_COINS] amounts\r\n    );\r\n\r\n    event userRecieved(\r\n        address user,\r\n        uint[N_COINS] amounts\r\n    );\r\n\r\n    event userAddedToQ(\r\n        address user,\r\n        uint[N_COINS] amounts\r\n    );\r\n\r\n    /* INTERNAL FUNCTIONS */\r\n\r\n    function _getBalances() internal view returns(uint256[N_COINS] memory) {\r\n        uint256[N_COINS] memory balances;\r\n\r\n        for(uint8 i=0; i<N_COINS; i++) {\r\n            balances[i] = tokens[i].balanceOf(address(this));\r\n        }\r\n\r\n        return balances;\r\n    }\r\n\r\n\r\n\r\n    // functions related to deposit and supply\r\n\r\n    // This function deposits the fund to Yield Optimizer\r\n    function _deposit(uint256[N_COINS] memory amounts) internal {\r\n        controller.deposit(amounts);\r\n        \r\n        for(uint8 i=0; i<N_COINS; i++) {\r\n            YieldPoolBalance[i] += amounts[i];\r\n        }\r\n    }\r\n\r\n\r\n\r\n    //Internal Calculation For User Supply \r\n\r\n    function _supply(uint256[N_COINS] memory amounts) internal {\r\n        uint256 mintTokens;        \r\n        mintTokens = calcRptAmount(amounts, false);    \r\n        \r\n        bool result;\r\n        for(uint8 i=0; i<N_COINS; i++) {\r\n            if(amounts[i] > 0) {\r\n                result = tokens[i].transferFrom(\r\n                    msg.sender, \r\n                    address(this), \r\n                    amounts[i]\r\n                );\r\n                require(result,\"Transfer not successful\");\r\n                selfBalance[i] += amounts[i];\r\n                amountSupplied[msg.sender][i] += amounts[i];\r\n            }\r\n        }\r\n        rpToken.mint(msg.sender, mintTokens);\r\n        bool[N_COINS] memory falseArray;\r\n        depositDetails memory d = depositDetails(amounts, amounts, now, falseArray);\r\n        supplyTime[msg.sender].push(d);\r\n    }\r\n\r\n\r\n\r\n    // functions related to withdraw, withdraw queue and withdraw from Yield Optimizer\r\n    function _takeBack(address recipient) internal {\r\n        bool result;\r\n\r\n        uint256 burnAmt;\r\n\r\n        burnAmt = calcRptAmount(amountWithdraw[recipient], true);\r\n        rpToken.burn(recipient, burnAmt);\r\n\r\n        for(uint8 i=0; i<N_COINS; i++) {\r\n            if(\r\n                amountWithdraw[recipient][i] > 0 \r\n                && \r\n                amountSupplied[recipient][i] > 0\r\n            ) {\r\n                result = tokens[i].transfer(\r\n                    recipient,  \r\n                    amountWithdraw[recipient][i]\r\n                );\r\n                require(result);\r\n\r\n                amountSupplied[recipient][i] -= amountWithdraw[recipient][i];\r\n                totalWithdraw[i] -= amountWithdraw[recipient][i];\r\n                selfBalance[i] -= amountWithdraw[recipient][i];\r\n\r\n                uint x = amountWithdraw[recipient][i];\r\n                for(uint8 j=0; j<supplyTime[recipient].length; j++) {\r\n                    if(supplyTime[recipient][j].withdrawn[i] != true && x > 0) {\r\n                        if(x >= supplyTime[recipient][j].remAmt[i]) {\r\n                            x = x - supplyTime[recipient][j].remAmt[i];\r\n                            supplyTime[recipient][j].remAmt[i] = 0;\r\n                            supplyTime[recipient][j].withdrawn[i] = true;\r\n                        }\r\n                        else {\r\n                            supplyTime[recipient][j].remAmt[i] -= x;\r\n                            x = 0;\r\n                        }\r\n                    }\r\n                }\r\n\r\n                amountWithdraw[recipient][i] = 0;\r\n\r\n                isInQ[recipient] = false;\r\n                recipientCount -= 1;\r\n            }\r\n        }\r\n    }\r\n\r\n\r\n\r\n\r\n    // this will fulfill withdraw requests from the queue\r\n    function _giveBack() internal {\r\n        \r\n        uint32 counter = recipientCount;\r\n        for(uint8 i=0; i<counter; i++) {\r\n            address recipient = getFromQ();\r\n            _takeBack(recipient);\r\n        }\r\n\r\n    }\r\n\r\n\r\n\r\n\r\n\r\n    // this will add unfulfilled withdraw requests to the queue\r\n    function _takeBackQ(uint256[N_COINS] memory amounts) internal {\r\n        \r\n        for(uint256 i=0; i<N_COINS; i++) {\r\n            if(amounts[i] > 0) {\r\n                amountWithdraw[msg.sender][i] += amounts[i];\r\n                totalWithdraw[i] += amounts[i];\r\n            }\r\n        }\r\n\r\n        if(isInQ[msg.sender] != true) {\r\n            recipientCount += 1;\r\n            isInQ[msg.sender] = true;\r\n            addToQ(msg.sender);\r\n        }\r\n\r\n    }\r\n\r\n\r\n\r\n\r\n    // this will withdraw from Yield Optimizer into this contract\r\n    function _withdraw(uint256[N_COINS] memory amounts) internal {\r\n        controller.withdraw(amounts);\r\n\r\n        for(uint8 i=0; i<N_COINS; i++) {\r\n            YieldPoolBalance[i] -= amounts[i];\r\n        }\r\n    }\r\n\r\n\r\n\r\n\r\n    //public function  for utilities\r\n\r\n\r\n   //This function calculate RPT to be mint or burn\r\n    function calcRptAmount(uint256[N_COINS] memory amounts, bool burn) public view returns(uint256) {\r\n        uint256 rptAmt;\r\n        uint256 total = 0;\r\n        uint256 decimal = 0;\r\n        uint256 totalSuppliedTokens;\r\n        uint256 totalRPTSupply;\r\n\r\n        totalRPTSupply = bdiv(rpToken.totalSupply(), 10**18);\r\n      \r\n        for(uint8 i=0; i<N_COINS; i++) {\r\n            \r\n            decimal = tokens[i].decimals();\r\n            total += bdiv(selfBalance[i]+loanGiven[i], 10**decimal);\r\n            totalSuppliedTokens += bdiv(amounts[i], 10**decimal);\r\n        }\r\n     \r\n        rptAmt = bmul(bdiv(totalSuppliedTokens, total), totalRPTSupply);        \r\n\r\n        if(burn == true) {\r\n            rptAmt = rptAmt + (rptAmt * fees) / 10000;\r\n        }\r\n\r\n        return rptAmt;\r\n    }\r\n\r\n\r\n\r\n    //function to check available amount to withdraw for user\r\n    function availableWithdraw(address addr, uint coin) public view returns(uint256) {\r\n\r\n        uint256 amount=0;\r\n        for(uint8 j=0; j<supplyTime[addr].length; j++) {\r\n            if(\r\n                ((now - supplyTime[addr][j].time) \r\n                > \r\n                (24 * 60 * 60 * lock_period))\r\n                &&\r\n                supplyTime[addr][j].withdrawn[coin] != true\r\n            ) {\r\n                amount += supplyTime[addr][j].remAmt[coin];\r\n            }\r\n        }\r\n\r\n        return amount;\r\n    }\r\n\r\n\r\n\r\n\r\n    /* USER FUNCTIONS (exposed to frontend) */\r\n\r\n    function supply(uint256[N_COINS] calldata amounts) external {\r\n        require(\r\n            calcRptAmount(amounts, false) > 0,\r\n            \"zero tokens supply\"\r\n        );\r\n        \r\n        _supply(amounts);\r\n\r\n        emit userSupplied(msg.sender, amounts);\r\n    }\r\n\r\n    function requestWithdraw(uint256[N_COINS] calldata amounts) external {\r\n        require(\r\n            calcRptAmount(amounts, false) > 0,\r\n            \"zero tokens supply\"\r\n        );\r\n\r\n        uint256 burnAmt;\r\n        burnAmt = calcRptAmount(amounts, true);\r\n        require(\r\n            rpToken.balanceOf(msg.sender) >= burnAmt, \r\n            \"low RPT\"\r\n        );\r\n        \r\n        uint256[N_COINS] memory poolBalance;\r\n        poolBalance = _getBalances();\r\n        \r\n        bool checkTime = true;\r\n        bool instant;\r\n        \r\n        // check if user is withdrawing before lock period\r\n        for(uint8 i=0; i<N_COINS; i++) {\r\n            if(amounts[i] > 0) {\r\n                if(availableWithdraw(msg.sender, i) < amounts[i]) {\r\n                    checkTime = false;\r\n                }\r\n            }\r\n        }\r\n        require(checkTime, \"lock period\");\r\n\r\n        // check if instant withdraw\r\n        for(uint8 i=0; i<N_COINS; i++) {\r\n            if(amounts[i] < poolBalance[i] && amounts[i] != 0) {\r\n                instant = true;\r\n            }\r\n        }\r\n\r\n        if(instant) {\r\n            rpToken.burn(msg.sender, burnAmt);\r\n            bool result;\r\n            for(uint8 i=0; i<N_COINS; i++) {\r\n                if(amounts[i] > 0) {\r\n                    result = tokens[i].transfer(msg.sender, amounts[i]);\r\n                    require(result);\r\n                    amountSupplied[msg.sender][i] -= amounts[i];\r\n                    selfBalance[i] -= amounts[i];\r\n                    \r\n                    uint x = amounts[i];\r\n                    for(uint8 j=0; j<supplyTime[msg.sender].length; j++) {\r\n                        if(supplyTime[msg.sender][j].withdrawn[i] != true && x > 0) {\r\n                            if(x >= supplyTime[msg.sender][j].remAmt[i]) {\r\n                                x = x - supplyTime[msg.sender][j].remAmt[i];\r\n                                supplyTime[msg.sender][j].remAmt[i] = 0;\r\n                                supplyTime[msg.sender][j].withdrawn[i] = true;\r\n                            }\r\n                            else {\r\n                                supplyTime[msg.sender][j].remAmt[i] -= x;\r\n                                x = 0;\r\n                            }\r\n                        }\r\n                    }\r\n\r\n                }\r\n            }\r\n\r\n            emit userRecieved(msg.sender, amounts);\r\n        } else {\r\n            _takeBackQ(amounts);\r\n\r\n            emit userAddedToQ(msg.sender, amounts);\r\n        }\r\n    }\r\n \r\n    // Following two functions are called by rLoan Only\r\n    function _loanWithdraw(uint256[N_COINS] memory amounts, address _loanSeeker) public onlyAuthorized returns(bool) {\r\n        _withdraw(amounts);\r\n\r\n        for(uint8 i=0; i<N_COINS; i++) {\r\n            if(amounts[i] > 0) {\r\n                loanGiven[i] += amounts[i];\r\n                selfBalance[i] -= amounts[i];\r\n                tokens[i].transfer(_loanSeeker, amounts[i]);\r\n            }\r\n        }\r\n        return true;\r\n    }\r\n\r\n    //Function only called by multisig contract for transfering tokens\r\n    function _loanRepayment(uint256[N_COINS] memory amounts, address _loanSeeker) public onlyAuthorized returns(bool) {\r\n        for(uint8 i=0; i<N_COINS; i++) {\r\n            if(amounts[i] > 0) {\r\n                loanGiven[i] -= amounts[i];\r\n                selfBalance[i] += amounts[i];\r\n                tokens[i].transferFrom(_loanSeeker, address(this), amounts[i]);\r\n            }\r\n        }\r\n        return true;\r\n    }\r\n\r\n    // this function deposits without minting RPT\r\n    function depsoitInRoyale(uint256[N_COINS] calldata amounts) external {\r\n        for(uint8 i=0;i<N_COINS;i++){\r\n            if(amounts[i]!=0){\r\n             tokens[i].transferFrom(msg.sender,address(this),amounts[i]);\r\n             selfBalance[i]+=amounts[i];\r\n            }\r\n        }\r\n    }\r\n\r\n\r\n    /* CORE FUNCTIONS (also exposed to frontend but to be called by owner only) */\r\n\r\n   //function for deposit in pool for yield\r\n    function deposit() onlyOwner external {\r\n        uint256[N_COINS] memory amounts = _getBalances();\r\n        uint256 decimal;\r\n\r\n        rStrategyI[3] memory strat = controller.getStrategies();\r\n\r\n        for(uint8 i=0; i<N_COINS; i++) {\r\n            decimal = tokens[i].decimals();\r\n            if(amounts[i] > thresholdTokenAmount*10**decimal) {\r\n                amounts[i] += YieldPoolBalance[i];\r\n                amounts[i] = (amounts[i] * poolPart) / 100;\r\n                amounts[i] = amounts[i] - YieldPoolBalance[i];\r\n                tokens[i].transfer(address(strat[i]), amounts[i]);\r\n            }\r\n            else {\r\n                amounts[i] = 0;\r\n            }\r\n        }\r\n\r\n        uint8 counter = 0;\r\n        for(uint8 i=0; i<N_COINS; i++) {\r\n           if(amounts[i] != 0) {\r\n               counter++;\r\n               break;\r\n           }\r\n        }\r\n\r\n        if(counter > 0){\r\n            _deposit(amounts);\r\n        }\r\n    }\r\n\r\n    //Function available in ui for owner , withdrawing from Pool(curve or any other)\r\n    function withdraw() onlyOwner external {\r\n\r\n        uint8 counter = 0;\r\n        for(uint8 i=0; i<N_COINS; i++) {\r\n           if(totalWithdraw[i] != 0) {\r\n               counter++;\r\n               break;\r\n           }\r\n        }\r\n\r\n        require(counter > 0, \"withdraw queue empty\");\r\n\r\n        _withdraw(totalWithdraw);\r\n        _giveBack();\r\n    }\r\n\r\n    //function for rebalancing pool(ratio)      \r\n    function rebalance() onlyOwner external{\r\n        uint256[N_COINS] memory currentAmount = _getBalances();\r\n        uint256[N_COINS] memory amountToWithdraw;\r\n        uint256[N_COINS] memory amountToDeposit;\r\n        rStrategyI[3] memory strat = controller.getStrategies();\r\n\r\n        for(uint8 i=0;i<N_COINS;i++) {\r\n           uint256 a = (selfBalance[i] * (100 - poolPart)) / 100;\r\n           if(a > currentAmount[i]) {\r\n              amountToWithdraw[i] = a - currentAmount[i];\r\n           }\r\n           else if(a < currentAmount[i]) {\r\n               amountToDeposit[i] = currentAmount[i] - a;\r\n               tokens[i].transfer(address(strat[i]), amountToDeposit[i]);\r\n           }\r\n           else {\r\n               amountToWithdraw[i] = 0;\r\n               amountToDeposit[i] = 0;\r\n           }\r\n        }\r\n\r\n        bool check=false;\r\n        for(uint8 i=0; i<N_COINS; i++) {\r\n            if(amountToDeposit[i] > 0) {\r\n                  check = true;\r\n                  break;\r\n            }\r\n        }\r\n\r\n        if(check){\r\n             _deposit(amountToDeposit);\r\n             check = false;\r\n        }\r\n\r\n        for(uint8 i=0; i<N_COINS; i++) {\r\n            if(amountToWithdraw[i] > 0) {\r\n                  check = true;\r\n                  break;\r\n            }\r\n        }\r\n        \r\n        if(check) {\r\n            _withdraw(amountToWithdraw);\r\n             check = false;\r\n        }\r\n\r\n    }\r\n\r\n\r\n    /* ADMIN FUNCTIONS */\r\n\r\n    \r\n    function getTotalPoolBalance() external view returns(uint256[3] memory) {\r\n        return selfBalance;\r\n    }\r\n\r\n\r\n    function getTotalLoanGiven() external view returns(uint256[3] memory) {\r\n        return loanGiven;\r\n    }\r\n\r\n    function setLoanContract(address _loanContract)external onlyOwner returns(bool){\r\n        loanContract=_loanContract;\r\n    }\r\n\r\n\r\n    function changePoolPart(uint128 _newPoolPart) external onlyOwner returns(bool) {\r\n        poolPart = _newPoolPart;\r\n        return true;\r\n    }\r\n\r\n    function getYieldProfit() external onlyOwner {\r\n        profitFromYield=controller.getTotalProfit();\r\n        for(uint8 i=0;i<N_COINS;i++){\r\n            selfBalance[i]+=profitFromYield[i];\r\n        }\r\n    }\r\n\r\n    function setThresholdTokenAmount(uint256 _newThreshold) external onlyOwner returns(bool) {\r\n        thresholdTokenAmount = _newThreshold;\r\n        return true;\r\n    }\r\n\r\n    function setInitialDeposit() onlyOwner external returns(bool) {\r\n        selfBalance = _getBalances();\r\n        return true;\r\n    }\r\n\r\n    function setController(rControllerI _controller) onlyOwner external returns(bool) {\r\n        controller = _controller;\r\n        return true;\r\n    }\r\n\r\n    function setLockPeriod(uint128 lockperiod) onlyOwner external returns(bool) {\r\n        lock_period = lockperiod;\r\n        return true;\r\n    }\r\n\r\n    function setWithdrawFees(uint128 _fees) onlyOwner external returns(bool) {\r\n        fees = _fees;\r\n        return true;\r\n    }\r\n\r\n}",
  "sourcePath": "C:/Users/vishn/OneDrive/Desktop/TempRoyakle/rlp/contracts/RoyaleLP.sol",
  "compiler": {
    "name": "solc",
    "version": "0.6.12+commit.27d51765.Emscripten.clang"
  },
  "schemaVersion": "3.3.2",
  "updatedAt": "2020-12-23T09:17:52.614Z",
  "devdoc": {
    "kind": "dev",
    "methods": {},
    "version": 1
  },
  "userdoc": {
    "kind": "user",
    "methods": {},
    "version": 1
  }
}