{
  "contractName": "RoyaleLP",
  "abi": [
    {
      "inputs": [
        {
          "internalType": "address[3]",
          "name": "_tokens",
          "type": "address[3]"
        },
        {
          "internalType": "address",
          "name": "_rpToken",
          "type": "address"
        }
      ],
      "stateMutability": "nonpayable",
      "type": "constructor"
    },
    {
      "anonymous": false,
      "inputs": [
        {
          "indexed": false,
          "internalType": "address",
          "name": "user",
          "type": "address"
        },
        {
          "indexed": false,
          "internalType": "uint256[3]",
          "name": "amounts",
          "type": "uint256[3]"
        }
      ],
      "name": "userAddedToQ",
      "type": "event"
    },
    {
      "anonymous": false,
      "inputs": [
        {
          "indexed": false,
          "internalType": "address",
          "name": "user",
          "type": "address"
        },
        {
          "indexed": false,
          "internalType": "uint256[3]",
          "name": "amounts",
          "type": "uint256[3]"
        }
      ],
      "name": "userRecieved",
      "type": "event"
    },
    {
      "anonymous": false,
      "inputs": [
        {
          "indexed": false,
          "internalType": "address",
          "name": "user",
          "type": "address"
        },
        {
          "indexed": false,
          "internalType": "uint256[3]",
          "name": "amounts",
          "type": "uint256[3]"
        }
      ],
      "name": "userSupplied",
      "type": "event"
    },
    {
      "inputs": [],
      "name": "BASE_DECIMAL",
      "outputs": [
        {
          "internalType": "uint256",
          "name": "",
          "type": "uint256"
        }
      ],
      "stateMutability": "view",
      "type": "function"
    },
    {
      "inputs": [
        {
          "internalType": "uint256",
          "name": "",
          "type": "uint256"
        }
      ],
      "name": "YieldPoolBalance",
      "outputs": [
        {
          "internalType": "uint256",
          "name": "",
          "type": "uint256"
        }
      ],
      "stateMutability": "view",
      "type": "function"
    },
    {
      "inputs": [
        {
          "internalType": "address",
          "name": "",
          "type": "address"
        },
        {
          "internalType": "uint256",
          "name": "",
          "type": "uint256"
        }
      ],
      "name": "amountSupplied",
      "outputs": [
        {
          "internalType": "uint256",
          "name": "",
          "type": "uint256"
        }
      ],
      "stateMutability": "view",
      "type": "function"
    },
    {
      "inputs": [],
      "name": "fees",
      "outputs": [
        {
          "internalType": "uint128",
          "name": "",
          "type": "uint128"
        }
      ],
      "stateMutability": "view",
      "type": "function"
    },
    {
      "inputs": [
        {
          "internalType": "address",
          "name": "",
          "type": "address"
        }
      ],
      "name": "isInQ",
      "outputs": [
        {
          "internalType": "bool",
          "name": "",
          "type": "bool"
        }
      ],
      "stateMutability": "view",
      "type": "function"
    },
    {
      "inputs": [],
      "name": "loanContract",
      "outputs": [
        {
          "internalType": "address",
          "name": "",
          "type": "address"
        }
      ],
      "stateMutability": "view",
      "type": "function"
    },
    {
      "inputs": [
        {
          "internalType": "uint256",
          "name": "",
          "type": "uint256"
        }
      ],
      "name": "loanGiven",
      "outputs": [
        {
          "internalType": "uint256",
          "name": "",
          "type": "uint256"
        }
      ],
      "stateMutability": "view",
      "type": "function"
    },
    {
      "inputs": [],
      "name": "lock_period",
      "outputs": [
        {
          "internalType": "uint128",
          "name": "",
          "type": "uint128"
        }
      ],
      "stateMutability": "view",
      "type": "function"
    },
    {
      "inputs": [],
      "name": "owner",
      "outputs": [
        {
          "internalType": "address",
          "name": "",
          "type": "address"
        }
      ],
      "stateMutability": "view",
      "type": "function"
    },
    {
      "inputs": [],
      "name": "poolPart",
      "outputs": [
        {
          "internalType": "uint128",
          "name": "",
          "type": "uint128"
        }
      ],
      "stateMutability": "view",
      "type": "function"
    },
    {
      "inputs": [
        {
          "internalType": "uint256",
          "name": "",
          "type": "uint256"
        }
      ],
      "name": "profitFromYield",
      "outputs": [
        {
          "internalType": "uint256",
          "name": "",
          "type": "uint256"
        }
      ],
      "stateMutability": "view",
      "type": "function"
    },
    {
      "inputs": [
        {
          "internalType": "uint256",
          "name": "",
          "type": "uint256"
        }
      ],
      "name": "selfBalance",
      "outputs": [
        {
          "internalType": "uint256",
          "name": "",
          "type": "uint256"
        }
      ],
      "stateMutability": "view",
      "type": "function"
    },
    {
      "inputs": [],
      "name": "thresholdTokenAmount",
      "outputs": [
        {
          "internalType": "uint256",
          "name": "",
          "type": "uint256"
        }
      ],
      "stateMutability": "view",
      "type": "function"
    },
    {
      "inputs": [
        {
          "internalType": "uint256",
          "name": "",
          "type": "uint256"
        }
      ],
      "name": "totalWithdraw",
      "outputs": [
        {
          "internalType": "uint256",
          "name": "",
          "type": "uint256"
        }
      ],
      "stateMutability": "view",
      "type": "function"
    },
    {
      "inputs": [
        {
          "internalType": "uint256[3]",
          "name": "amounts",
          "type": "uint256[3]"
        }
      ],
      "name": "calcRptAmount",
      "outputs": [
        {
          "internalType": "uint256",
          "name": "",
          "type": "uint256"
        }
      ],
      "stateMutability": "view",
      "type": "function"
    },
    {
      "inputs": [
        {
          "internalType": "address",
          "name": "addr",
          "type": "address"
        },
        {
          "internalType": "uint256",
          "name": "coin",
          "type": "uint256"
        }
      ],
      "name": "availableWithdraw",
      "outputs": [
        {
          "internalType": "uint256",
          "name": "",
          "type": "uint256"
        }
      ],
      "stateMutability": "view",
      "type": "function"
    },
    {
      "inputs": [
        {
          "internalType": "uint256[3]",
          "name": "amounts",
          "type": "uint256[3]"
        }
      ],
      "name": "supply",
      "outputs": [],
      "stateMutability": "nonpayable",
      "type": "function"
    },
    {
      "inputs": [
        {
          "internalType": "uint256[3]",
          "name": "amounts",
          "type": "uint256[3]"
        }
      ],
      "name": "requestWithdraw",
      "outputs": [],
      "stateMutability": "nonpayable",
      "type": "function"
    },
    {
      "inputs": [
        {
          "internalType": "uint256[3]",
          "name": "amounts",
          "type": "uint256[3]"
        },
        {
          "internalType": "address",
          "name": "_loanSeeker",
          "type": "address"
        }
      ],
      "name": "_loanWithdraw",
      "outputs": [
        {
          "internalType": "bool",
          "name": "",
          "type": "bool"
        }
      ],
      "stateMutability": "nonpayable",
      "type": "function"
    },
    {
      "inputs": [
        {
          "internalType": "uint256[3]",
          "name": "amounts",
          "type": "uint256[3]"
        },
        {
          "internalType": "address",
          "name": "_loanSeeker",
          "type": "address"
        }
      ],
      "name": "_loanRepayment",
      "outputs": [
        {
          "internalType": "bool",
          "name": "",
          "type": "bool"
        }
      ],
      "stateMutability": "nonpayable",
      "type": "function"
    },
    {
      "inputs": [
        {
          "internalType": "uint256[3]",
          "name": "amounts",
          "type": "uint256[3]"
        }
      ],
      "name": "depsoitInRoyale",
      "outputs": [],
      "stateMutability": "nonpayable",
      "type": "function"
    },
    {
      "inputs": [],
      "name": "deposit",
      "outputs": [],
      "stateMutability": "nonpayable",
      "type": "function"
    },
    {
      "inputs": [],
      "name": "withdraw",
      "outputs": [],
      "stateMutability": "nonpayable",
      "type": "function"
    },
    {
      "inputs": [],
      "name": "rebalance",
      "outputs": [],
      "stateMutability": "nonpayable",
      "type": "function"
    },
    {
      "inputs": [],
      "name": "getTotalPoolBalance",
      "outputs": [
        {
          "internalType": "uint256[3]",
          "name": "",
          "type": "uint256[3]"
        }
      ],
      "stateMutability": "view",
      "type": "function"
    },
    {
      "inputs": [],
      "name": "getTotalLoanGiven",
      "outputs": [
        {
          "internalType": "uint256[3]",
          "name": "",
          "type": "uint256[3]"
        }
      ],
      "stateMutability": "view",
      "type": "function"
    },
    {
      "inputs": [
        {
          "internalType": "address",
          "name": "_loanContract",
          "type": "address"
        }
      ],
      "name": "setLoanContract",
      "outputs": [
        {
          "internalType": "bool",
          "name": "",
          "type": "bool"
        }
      ],
      "stateMutability": "nonpayable",
      "type": "function"
    },
    {
      "inputs": [
        {
          "internalType": "uint128",
          "name": "_newPoolPart",
          "type": "uint128"
        }
      ],
      "name": "changePoolPart",
      "outputs": [
        {
          "internalType": "bool",
          "name": "",
          "type": "bool"
        }
      ],
      "stateMutability": "nonpayable",
      "type": "function"
    },
    {
      "inputs": [],
      "name": "getYieldProfit",
      "outputs": [],
      "stateMutability": "nonpayable",
      "type": "function"
    },
    {
      "inputs": [
        {
          "internalType": "uint256",
          "name": "_newThreshold",
          "type": "uint256"
        }
      ],
      "name": "setThresholdTokenAmount",
      "outputs": [
        {
          "internalType": "bool",
          "name": "",
          "type": "bool"
        }
      ],
      "stateMutability": "nonpayable",
      "type": "function"
    },
    {
      "inputs": [],
      "name": "setInitialDeposit",
      "outputs": [
        {
          "internalType": "bool",
          "name": "",
          "type": "bool"
        }
      ],
      "stateMutability": "nonpayable",
      "type": "function"
    },
    {
      "inputs": [
        {
          "internalType": "contract rControllerI",
          "name": "_controller",
          "type": "address"
        }
      ],
      "name": "setController",
      "outputs": [
        {
          "internalType": "bool",
          "name": "",
          "type": "bool"
        }
      ],
      "stateMutability": "nonpayable",
      "type": "function"
    },
    {
      "inputs": [
        {
          "internalType": "uint128",
          "name": "lockperiod",
          "type": "uint128"
        }
      ],
      "name": "setLockPeriod",
      "outputs": [
        {
          "internalType": "bool",
          "name": "",
          "type": "bool"
        }
      ],
      "stateMutability": "nonpayable",
      "type": "function"
    },
    {
      "inputs": [
        {
          "internalType": "uint128",
          "name": "_fees",
          "type": "uint128"
        }
      ],
      "name": "setWithdrawFees",
      "outputs": [
        {
          "internalType": "bool",
          "name": "",
          "type": "bool"
        }
      ],
      "stateMutability": "nonpayable",
      "type": "function"
    }
  ],
  "bytecode": "0x60806040526001805560006002556019600460006101000a8154816fffffffffffffffffffffffffffffffff02191690836fffffffffffffffffffffffffffffffff160217905550605f600460106101000a8154816fffffffffffffffffffffffffffffffff02191690836fffffffffffffffffffffffffffffffff1602179055506101f46011553480156200009457600080fd5b506040516200554b3803806200554b8339818101604052810190620000ba91906200026f565b33600860006101000a81548173ffffffffffffffffffffffffffffffffffffffff021916908373ffffffffffffffffffffffffffffffffffffffff16021790555060005b60036fffffffffffffffffffffffffffffffff168160ff1610156200019057828160ff16600381106200012d57fe5b602002015160098260ff16600381106200014357fe5b0160006101000a81548173ffffffffffffffffffffffffffffffffffffffff021916908373ffffffffffffffffffffffffffffffffffffffff1602179055508080600101915050620000fe565b5080600c60006101000a81548173ffffffffffffffffffffffffffffffffffffffff021916908373ffffffffffffffffffffffffffffffffffffffff16021790555050506200034f565b600081519050620001eb8162000335565b92915050565b600082601f8301126200020357600080fd5b60036200021a6200021482620002de565b620002b0565b915081838560208402820111156200023157600080fd5b60005b838110156200026557816200024a8882620001da565b84526020840193506020830192505060018101905062000234565b5050505092915050565b600080608083850312156200028357600080fd5b60006200029385828601620001f1565b9250506060620002a685828601620001da565b9150509250929050565b6000604051905081810181811067ffffffffffffffff82111715620002d457600080fd5b8060405250919050565b600067ffffffffffffffff821115620002f657600080fd5b602082029050919050565b60006200030e8262000315565b9050919050565b600073ffffffffffffffffffffffffffffffffffffffff82169050919050565b620003408162000301565b81146200034c57600080fd5b50565b6151ec806200035f6000396000f3fe608060405234801561001057600080fd5b50600436106102065760003560e01c80638da5cb5b1161011a578063b8b10680116100ad578063d0e30db01161007c578063d0e30db01461062b578063d8c76af514610635578063db28bfd014610665578063eacd7afc14610695578063f83e9a20146106c557610206565b8063b8b106801461058f578063c23177b2146105bf578063c277b657146105ef578063c89eb0361461060d57610206565b8063960731b6116100e9578063960731b6146104e15780639af1d35a14610511578063a6d8fcb21461052f578063a70200bd1461055f57610206565b80638da5cb5b146104455780638e9b032614610463578063905f692e1461048157806392eefe9b146104b157610206565b806347d4a6a81161019d5780636d6ea2571161016c5780636d6ea2571461038d5780637d7c2a1c146103bd57806380001288146103c757806381f433f0146103f75780638af814781461042757610206565b806347d4a6a8146102f357806352f6e2381461030f578063698504241461032d5780636b9f1ef61461035d57610206565b80632f1fefe3116101d95780632f1fefe31461027f57806331805a2b1461028957806331d38806146102b95780633ccfd60b146102e957610206565b80630d88122c1461020b578063224a141814610227578063233fc9a214610243578063253f284b14610261575b600080fd5b6102256004803603810190610220919061481b565b6106e3565b005b610241600480360381019061023c919061481b565b6107e1565b005b61024b610935565b6040516102589190614e00565b60405180910390f35b610269610980565b6040516102769190614ce1565b60405180910390f35b6102876109a6565b005b6102a3600480360381019061029e919061494d565b610b14565b6040516102b09190614f71565b60405180910390f35b6102d360048036038101906102ce919061478d565b610b2c565b6040516102e09190614e1b565b60405180910390f35b6102f1610bce565b005b61030d6004803603810190610308919061481b565b610d15565b005b610317611719565b6040516103249190614e1b565b60405180910390f35b6103476004803603810190610342919061494d565b611795565b6040516103549190614f71565b60405180910390f35b61037760048036038101906103729190614924565b6117ad565b6040516103849190614e1b565b60405180910390f35b6103a760048036038101906103a2919061494d565b61184b565b6040516103b49190614f71565b60405180910390f35b6103c5611863565b005b6103e160048036038101906103dc9190614896565b611c9f565b6040516103ee9190614e1b565b60405180910390f35b610411600480360381019061040c9190614924565b611f17565b60405161041e9190614e1b565b60405180910390f35b61042f611fb5565b60405161043c9190614f71565b60405180910390f35b61044d611fc1565b60405161045a9190614ce1565b60405180910390f35b61046b611fe7565b6040516104789190614f56565b60405180910390f35b61049b6004803603810190610496919061478d565b612009565b6040516104a89190614e1b565b60405180910390f35b6104cb60048036038101906104c691906148fb565b612029565b6040516104d89190614e1b565b60405180910390f35b6104fb60048036038101906104f69190614844565b6120cf565b6040516105089190614f71565b60405180910390f35b6105196122e9565b6040516105269190614f56565b60405180910390f35b610549600480360381019061054491906147b6565b61230b565b6040516105569190614f71565b60405180910390f35b61057960048036038101906105749190614924565b612516565b6040516105869190614e1b565b60405180910390f35b6105a960048036038101906105a4919061494d565b6125b4565b6040516105b69190614e1b565b60405180910390f35b6105d960048036038101906105d491906147b6565b612620565b6040516105e69190614f71565b60405180910390f35b6105f7612645565b6040516106049190614e00565b60405180910390f35b610615612690565b6040516106229190614f71565b60405180910390f35b610633612696565b005b61064f600480360381019061064a919061494d565b612b05565b60405161065c9190614f71565b60405180910390f35b61067f600480360381019061067a919061494d565b612b1d565b60405161068c9190614f71565b60405180910390f35b6106af60048036038101906106aa9190614896565b612b35565b6040516106bc9190614e1b565b60405180910390f35b6106cd612db4565b6040516106da9190614f56565b60405180910390f35b6000610725826003806020026040519081016040528092919082600360200280828437600081840152601f19601f8201169050808301925050505050506120cf565b11610765576040517f08c379a000000000000000000000000000000000000000000000000000000000815260040161075c90614e36565b60405180910390fd5b6107a5816003806020026040519081016040528092919082600360200280828437600081840152601f19601f820116905080830192505050505050612dd6565b7fe7f2330a99451f199f91ed2ac09887e25894cb0e14021fe5d29bc959e7283d0e33826040516107d6929190614d4e565b60405180910390a150565b60005b60036fffffffffffffffffffffffffffffffff168160ff161015610931576000828260ff166003811061081357fe5b6020020135146109245760098160ff166003811061082d57fe5b0160009054906101000a900473ffffffffffffffffffffffffffffffffffffffff1673ffffffffffffffffffffffffffffffffffffffff166323b872dd3330858560ff166003811061087b57fe5b60200201356040518463ffffffff1660e01b815260040161089e93929190614d17565b602060405180830381600087803b1580156108b857600080fd5b505af11580156108cc573d6000803e3d6000fd5b505050506040513d601f19601f820116820180604052508101906108f091906148d2565b50818160ff166003811061090057fe5b602002013560058260ff166003811061091557fe5b01600082825401925050819055505b80806001019150506107e4565b5050565b61093d6143ad565b6005600380602002604051908101604052809291908260038015610976576020028201915b815481526020019060010190808311610962575b5050505050905090565b602160009054906101000a900473ffffffffffffffffffffffffffffffffffffffff1681565b600860009054906101000a900473ffffffffffffffffffffffffffffffffffffffff1673ffffffffffffffffffffffffffffffffffffffff163373ffffffffffffffffffffffffffffffffffffffff1614610a0057600080fd5b600d60009054906101000a900473ffffffffffffffffffffffffffffffffffffffff1673ffffffffffffffffffffffffffffffffffffffff1663a9a4cbcc6040518163ffffffff1660e01b8152600401606060405180830381600087803b158015610a6a57600080fd5b505af1158015610a7e573d6000803e3d6000fd5b505050506040513d601f19601f82011682018060405250810190610aa2919061486d565b6012906003610ab29291906143cf565b5060005b60036fffffffffffffffffffffffffffffffff168160ff161015610b115760128160ff1660038110610ae457fe5b015460058260ff1660038110610af657fe5b01600082825401925050819055508080600101915050610ab6565b50565b600e8160038110610b2157fe5b016000915090505481565b6000600860009054906101000a900473ffffffffffffffffffffffffffffffffffffffff1673ffffffffffffffffffffffffffffffffffffffff163373ffffffffffffffffffffffffffffffffffffffff1614610b8857600080fd5b81602160006101000a81548173ffffffffffffffffffffffffffffffffffffffff021916908373ffffffffffffffffffffffffffffffffffffffff160217905550919050565b600860009054906101000a900473ffffffffffffffffffffffffffffffffffffffff1673ffffffffffffffffffffffffffffffffffffffff163373ffffffffffffffffffffffffffffffffffffffff1614610c2857600080fd5b6000805b60036fffffffffffffffffffffffffffffffff168160ff161015610c7d576000601b8260ff1660038110610c5c57fe5b015414610c70578180600101925050610c7d565b8080600101915050610c2c565b5060008160ff1611610cc4576040517f08c379a0000000000000000000000000000000000000000000000000000000008152600401610cbb90614e56565b60405180910390fd5b610d0a601b600380602002604051908101604052809291908260038015610d00576020028201915b815481526020019060010190808311610cec575b5050505050613170565b610d12613261565b50565b6000610d57826003806020026040519081016040528092919082600360200280828437600081840152601f19601f8201169050808301925050505050506120cf565b11610d97576040517f08c379a0000000000000000000000000000000000000000000000000000000008152600401610d8e90614e36565b60405180910390fd5b6000610dd9826003806020026040519081016040528092919082600360200280828437600081840152601f19601f8201169050808301925050505050506120cf565b905080600c60009054906101000a900473ffffffffffffffffffffffffffffffffffffffff1673ffffffffffffffffffffffffffffffffffffffff166370a08231336040518263ffffffff1660e01b8152600401610e379190614cfc565b60206040518083038186803b158015610e4f57600080fd5b505afa158015610e63573d6000803e3d6000fd5b505050506040513d601f19601f82011682018060405250810190610e879190614976565b1015610ec8576040517f08c379a0000000000000000000000000000000000000000000000000000000008152600401610ebf90614f36565b60405180910390fd5b610ed06143ad565b610ed86132b3565b9050600060019050600080600090505b60036fffffffffffffffffffffffffffffffff168160ff161015610f5c576000868260ff1660038110610f1757fe5b60200201351115610f4f57858160ff1660038110610f3157fe5b6020020135610f43338360ff1661230b565b1015610f4e57600092505b5b8080600101915050610ee8565b5081610f9d576040517f08c379a0000000000000000000000000000000000000000000000000000000008152600401610f9490614e96565b60405180910390fd5b60005b60036fffffffffffffffffffffffffffffffff168160ff16101561101e57838160ff1660038110610fcd57fe5b6020020151868260ff1660038110610fe157fe5b602002013510801561100757506000868260ff1660038110610fff57fe5b602002013514155b1561101157600191505b8080600101915050610fa0565b50801561169857600c60009054906101000a900473ffffffffffffffffffffffffffffffffffffffff1673ffffffffffffffffffffffffffffffffffffffff16639dc29fac33866040518363ffffffff1660e01b8152600401611082929190614d77565b600060405180830381600087803b15801561109c57600080fd5b505af11580156110b0573d6000803e3d6000fd5b50505050600080600090505b60036fffffffffffffffffffffffffffffffff168160ff161015611658576000878260ff16600381106110eb57fe5b6020020135111561164b576000612710600460009054906101000a90046fffffffffffffffffffffffffffffffff166fffffffffffffffffffffffffffffffff16898460ff166003811061113b57fe5b6020020135028161114857fe5b04888360ff166003811061115857fe5b602002013503905060098260ff166003811061117057fe5b0160009054906101000a900473ffffffffffffffffffffffffffffffffffffffff1673ffffffffffffffffffffffffffffffffffffffff1663a9059cbb33836040518363ffffffff1660e01b81526004016111cc929190614d77565b602060405180830381600087803b1580156111e657600080fd5b505af11580156111fa573d6000803e3d6000fd5b505050506040513d601f19601f8201168201806040525081019061121e91906148d2565b92508261122a57600080fd5b878260ff166003811061123957fe5b6020020135601660003373ffffffffffffffffffffffffffffffffffffffff1673ffffffffffffffffffffffffffffffffffffffff1681526020019081526020016000208360ff166003811061128b57fe5b0160008282540392505081905550878260ff16600381106112a857fe5b602002013560058360ff16600381106112bd57fe5b01600082825403925050819055506000888360ff16600381106112dc57fe5b6020020135905060005b601760003373ffffffffffffffffffffffffffffffffffffffff1673ffffffffffffffffffffffffffffffffffffffff168152602001908152602001600020805490508160ff1610156116475760011515601760003373ffffffffffffffffffffffffffffffffffffffff1673ffffffffffffffffffffffffffffffffffffffff1681526020019081526020016000208260ff168154811061138457fe5b90600052602060002090600802016007018560ff16600381106113a357fe5b602091828204019190069054906101000a900460ff161515141580156113c95750600082115b1561163a57601760003373ffffffffffffffffffffffffffffffffffffffff1673ffffffffffffffffffffffffffffffffffffffff1681526020019081526020016000208160ff168154811061141b57fe5b90600052602060002090600802016003018460ff166003811061143a57fe5b015482106115b957601760003373ffffffffffffffffffffffffffffffffffffffff1673ffffffffffffffffffffffffffffffffffffffff1681526020019081526020016000208160ff168154811061148f57fe5b90600052602060002090600802016003018460ff16600381106114ae57fe5b0154820391506000601760003373ffffffffffffffffffffffffffffffffffffffff1673ffffffffffffffffffffffffffffffffffffffff1681526020019081526020016000208260ff168154811061150357fe5b90600052602060002090600802016003018560ff166003811061152257fe5b01819055506001601760003373ffffffffffffffffffffffffffffffffffffffff1673ffffffffffffffffffffffffffffffffffffffff1681526020019081526020016000208260ff168154811061157657fe5b90600052602060002090600802016007018560ff166003811061159557fe5b602091828204019190066101000a81548160ff021916908315150217905550611639565b81601760003373ffffffffffffffffffffffffffffffffffffffff1673ffffffffffffffffffffffffffffffffffffffff1681526020019081526020016000208260ff168154811061160757fe5b90600052602060002090600802016003018560ff166003811061162657fe5b0160008282540392505081905550600091505b5b80806001019150506112e6565b5050505b80806001019150506110bc565b507fe9c01f7dea3ef08b44263b3cf5963eb42309e5fb5bec9305dbe12b82f37b519c338760405161168a929190614d4e565b60405180910390a150611712565b6116d8856003806020026040519081016040528092919082600360200280828437600081840152601f19601f8201169050808301925050505050506133cb565b7fe2d5e24e56e4f05473adb8bb616473de3894beab8011d32382a638d1d2617c933386604051611709929190614d4e565b60405180910390a15b5050505050565b6000600860009054906101000a900473ffffffffffffffffffffffffffffffffffffffff1673ffffffffffffffffffffffffffffffffffffffff163373ffffffffffffffffffffffffffffffffffffffff161461177557600080fd5b61177d6132b3565b600590600361178d9291906143cf565b506001905090565b600581600381106117a257fe5b016000915090505481565b6000600860009054906101000a900473ffffffffffffffffffffffffffffffffffffffff1673ffffffffffffffffffffffffffffffffffffffff163373ffffffffffffffffffffffffffffffffffffffff161461180957600080fd5b81600460006101000a8154816fffffffffffffffffffffffffffffffff02191690836fffffffffffffffffffffffffffffffff16021790555060019050919050565b601e816003811061185857fe5b016000915090505481565b600860009054906101000a900473ffffffffffffffffffffffffffffffffffffffff1673ffffffffffffffffffffffffffffffffffffffff163373ffffffffffffffffffffffffffffffffffffffff16146118bd57600080fd5b6118c56143ad565b6118cd6132b3565b90506118d76143ad565b6118df6143ad565b6118e761440f565b600d60009054906101000a900473ffffffffffffffffffffffffffffffffffffffff1673ffffffffffffffffffffffffffffffffffffffff1663b49a60bb6040518163ffffffff1660e01b8152600401606060405180830381600087803b15801561195157600080fd5b505af1158015611965573d6000803e3d6000fd5b505050506040513d601f19601f8201168201806040525081019061198991906147f2565b905060005b60036fffffffffffffffffffffffffffffffff168160ff161015611bc65760006064600460109054906101000a90046fffffffffffffffffffffffffffffffff166064036fffffffffffffffffffffffffffffffff1660058460ff16600381106119f457fe5b015402816119fe57fe5b049050858260ff1660038110611a1057fe5b6020020151811115611a4f57858260ff1660038110611a2b57fe5b60200201518103858360ff1660038110611a4157fe5b602002018181525050611bb8565b858260ff1660038110611a5e57fe5b6020020151811015611b825780868360ff1660038110611a7a57fe5b602002015103848360ff1660038110611a8f57fe5b60200201818152505060098260ff1660038110611aa857fe5b0160009054906101000a900473ffffffffffffffffffffffffffffffffffffffff1673ffffffffffffffffffffffffffffffffffffffff1663a9059cbb848460ff1660038110611af457fe5b6020020151868560ff1660038110611b0857fe5b60200201516040518363ffffffff1660e01b8152600401611b2a929190614dd7565b602060405180830381600087803b158015611b4457600080fd5b505af1158015611b58573d6000803e3d6000fd5b505050506040513d601f19601f82011682018060405250810190611b7c91906148d2565b50611bb7565b6000858360ff1660038110611b9357fe5b6020020181815250506000848360ff1660038110611bad57fe5b6020020181815250505b5b50808060010191505061198e565b506000805b60036fffffffffffffffffffffffffffffffff168160ff161015611c1b576000848260ff1660038110611bfa57fe5b60200201511115611c0e5760019150611c1b565b8080600101915050611bcb565b508015611c3057611c2b8361359a565b600090505b60005b60036fffffffffffffffffffffffffffffffff168160ff161015611c83576000858260ff1660038110611c6257fe5b60200201511115611c765760019150611c83565b8080600101915050611c33565b508015611c9857611c9384613170565b600090505b5050505050565b6000600860009054906101000a900473ffffffffffffffffffffffffffffffffffffffff1673ffffffffffffffffffffffffffffffffffffffff163373ffffffffffffffffffffffffffffffffffffffff161480611d4a5750602160009054906101000a900473ffffffffffffffffffffffffffffffffffffffff1673ffffffffffffffffffffffffffffffffffffffff163373ffffffffffffffffffffffffffffffffffffffff16145b611d89576040517f08c379a0000000000000000000000000000000000000000000000000000000008152600401611d8090614eb6565b60405180910390fd5b60005b60036fffffffffffffffffffffffffffffffff168160ff161015611f0c576000848260ff1660038110611dbb57fe5b60200201511115611eff57838160ff1660038110611dd557fe5b6020020151601e8260ff1660038110611dea57fe5b0160008282540392505081905550838160ff1660038110611e0757fe5b602002015160058260ff1660038110611e1c57fe5b016000828254019250508190555060098160ff1660038110611e3a57fe5b0160009054906101000a900473ffffffffffffffffffffffffffffffffffffffff1673ffffffffffffffffffffffffffffffffffffffff166323b872dd8430878560ff1660038110611e8857fe5b60200201516040518463ffffffff1660e01b8152600401611eab93929190614da0565b602060405180830381600087803b158015611ec557600080fd5b505af1158015611ed9573d6000803e3d6000fd5b505050506040513d601f19601f82011682018060405250810190611efd91906148d2565b505b8080600101915050611d8c565b506001905092915050565b6000600860009054906101000a900473ffffffffffffffffffffffffffffffffffffffff1673ffffffffffffffffffffffffffffffffffffffff163373ffffffffffffffffffffffffffffffffffffffff1614611f7357600080fd5b81601560006101000a8154816fffffffffffffffffffffffffffffffff02191690836fffffffffffffffffffffffffffffffff16021790555060019050919050565b670de0b6b3a764000081565b600860009054906101000a900473ffffffffffffffffffffffffffffffffffffffff1681565b600460109054906101000a90046fffffffffffffffffffffffffffffffff1681565b60196020528060005260406000206000915054906101000a900460ff1681565b6000600860009054906101000a900473ffffffffffffffffffffffffffffffffffffffff1673ffffffffffffffffffffffffffffffffffffffff163373ffffffffffffffffffffffffffffffffffffffff161461208557600080fd5b81600d60006101000a81548173ffffffffffffffffffffffffffffffffffffffff021916908373ffffffffffffffffffffffffffffffffffffffff16021790555060019050919050565b600080600080600080612189600c60009054906101000a900473ffffffffffffffffffffffffffffffffffffffff1673ffffffffffffffffffffffffffffffffffffffff166318160ddd6040518163ffffffff1660e01b815260040160206040518083038186803b15801561214357600080fd5b505afa158015612157573d6000803e3d6000fd5b505050506040513d601f19601f8201168201806040525081019061217b9190614976565b670de0b6b3a764000061368b565b905060005b60036fffffffffffffffffffffffffffffffff168160ff1610156122c65760098160ff16600381106121bc57fe5b0160009054906101000a900473ffffffffffffffffffffffffffffffffffffffff1673ffffffffffffffffffffffffffffffffffffffff1663313ce5676040518163ffffffff1660e01b815260040160206040518083038186803b15801561222357600080fd5b505afa158015612237573d6000803e3d6000fd5b505050506040513d601f19601f8201168201806040525081019061225b919061499f565b60ff169350612291601e8260ff166003811061227357fe5b015460058360ff166003811061228557fe5b01540185600a0a61368b565b850194506122b5888260ff16600381106122a757fe5b602002015185600a0a61368b565b83019250808060010191505061218e565b506122da6122d4838661368b565b826137ab565b94508495505050505050919050565b600460009054906101000a90046fffffffffffffffffffffffffffffffff1681565b6000806000905060005b601760008673ffffffffffffffffffffffffffffffffffffffff1673ffffffffffffffffffffffffffffffffffffffff168152602001908152602001600020805490508160ff16101561250b57601560009054906101000a90046fffffffffffffffffffffffffffffffff1662015180026fffffffffffffffffffffffffffffffff16601760008773ffffffffffffffffffffffffffffffffffffffff1673ffffffffffffffffffffffffffffffffffffffff1681526020019081526020016000208260ff16815481106123e557fe5b9060005260206000209060080201600601544203118015612489575060011515601760008773ffffffffffffffffffffffffffffffffffffffff1673ffffffffffffffffffffffffffffffffffffffff1681526020019081526020016000208260ff168154811061245257fe5b9060005260206000209060080201600701856003811061246e57fe5b602091828204019190069054906101000a900460ff16151514155b156124fe57601760008673ffffffffffffffffffffffffffffffffffffffff1673ffffffffffffffffffffffffffffffffffffffff1681526020019081526020016000208160ff16815481106124db57fe5b906000526020600020906008020160030184600381106124f757fe5b0154820191505b8080600101915050612315565b508091505092915050565b6000600860009054906101000a900473ffffffffffffffffffffffffffffffffffffffff1673ffffffffffffffffffffffffffffffffffffffff163373ffffffffffffffffffffffffffffffffffffffff161461257257600080fd5b81600460106101000a8154816fffffffffffffffffffffffffffffffff02191690836fffffffffffffffffffffffffffffffff16021790555060019050919050565b6000600860009054906101000a900473ffffffffffffffffffffffffffffffffffffffff1673ffffffffffffffffffffffffffffffffffffffff163373ffffffffffffffffffffffffffffffffffffffff161461261057600080fd5b8160118190555060019050919050565b6016602052816000526040600020816003811061263957fe5b01600091509150505481565b61264d6143ad565b601e600380602002604051908101604052809291908260038015612686576020028201915b815481526020019060010190808311612672575b5050505050905090565b60115481565b600860009054906101000a900473ffffffffffffffffffffffffffffffffffffffff1673ffffffffffffffffffffffffffffffffffffffff163373ffffffffffffffffffffffffffffffffffffffff16146126f057600080fd5b6126f86143ad565b6127006132b3565b9050600061270c61440f565b600d60009054906101000a900473ffffffffffffffffffffffffffffffffffffffff1673ffffffffffffffffffffffffffffffffffffffff1663b49a60bb6040518163ffffffff1660e01b8152600401606060405180830381600087803b15801561277657600080fd5b505af115801561278a573d6000803e3d6000fd5b505050506040513d601f19601f820116820180604052508101906127ae91906147f2565b905060005b60036fffffffffffffffffffffffffffffffff168160ff161015612a905760098160ff16600381106127e157fe5b0160009054906101000a900473ffffffffffffffffffffffffffffffffffffffff1673ffffffffffffffffffffffffffffffffffffffff1663313ce5676040518163ffffffff1660e01b815260040160206040518083038186803b15801561284857600080fd5b505afa15801561285c573d6000803e3d6000fd5b505050506040513d601f19601f82011682018060405250810190612880919061499f565b60ff16925082600a0a60115402848260ff166003811061289c57fe5b60200201511115612a6857600e8160ff16600381106128b757fe5b0154848260ff16600381106128c857fe5b6020020181815101915081815250506064600460109054906101000a90046fffffffffffffffffffffffffffffffff166fffffffffffffffffffffffffffffffff16858360ff166003811061291957fe5b6020020151028161292657fe5b04848260ff166003811061293657fe5b602002018181525050600e8160ff166003811061294f57fe5b0154848260ff166003811061296057fe5b602002015103848260ff166003811061297557fe5b60200201818152505060098160ff166003811061298e57fe5b0160009054906101000a900473ffffffffffffffffffffffffffffffffffffffff1673ffffffffffffffffffffffffffffffffffffffff1663a9059cbb838360ff16600381106129da57fe5b6020020151868460ff16600381106129ee57fe5b60200201516040518363ffffffff1660e01b8152600401612a10929190614dd7565b602060405180830381600087803b158015612a2a57600080fd5b505af1158015612a3e573d6000803e3d6000fd5b505050506040513d601f19601f82011682018060405250810190612a6291906148d2565b50612a83565b6000848260ff1660038110612a7957fe5b6020020181815250505b80806001019150506127b3565b506000805b60036fffffffffffffffffffffffffffffffff168160ff161015612ae8576000858260ff1660038110612ac457fe5b602002015114612adb578180600101925050612ae8565b8080600101915050612a95565b5060008160ff161115612aff57612afe8461359a565b5b50505050565b60128160038110612b1257fe5b016000915090505481565b601b8160038110612b2a57fe5b016000915090505481565b6000600860009054906101000a900473ffffffffffffffffffffffffffffffffffffffff1673ffffffffffffffffffffffffffffffffffffffff163373ffffffffffffffffffffffffffffffffffffffff161480612be05750602160009054906101000a900473ffffffffffffffffffffffffffffffffffffffff1673ffffffffffffffffffffffffffffffffffffffff163373ffffffffffffffffffffffffffffffffffffffff16145b612c1f576040517f08c379a0000000000000000000000000000000000000000000000000000000008152600401612c1690614eb6565b60405180910390fd5b612c2883613170565b60005b60036fffffffffffffffffffffffffffffffff168160ff161015612da9576000848260ff1660038110612c5a57fe5b60200201511115612d9c57838160ff1660038110612c7457fe5b6020020151601e8260ff1660038110612c8957fe5b0160008282540192505081905550838160ff1660038110612ca657fe5b602002015160058260ff1660038110612cbb57fe5b016000828254039250508190555060098160ff1660038110612cd957fe5b0160009054906101000a900473ffffffffffffffffffffffffffffffffffffffff1673ffffffffffffffffffffffffffffffffffffffff1663a9059cbb84868460ff1660038110612d2657fe5b60200201516040518363ffffffff1660e01b8152600401612d48929190614dd7565b602060405180830381600087803b158015612d6257600080fd5b505af1158015612d76573d6000803e3d6000fd5b505050506040513d601f19601f82011682018060405250810190612d9a91906148d2565b505b8080600101915050612c2b565b506001905092915050565b601560009054906101000a90046fffffffffffffffffffffffffffffffff1681565b6000612de1826120cf565b9050600080600090505b60036fffffffffffffffffffffffffffffffff168160ff161015612fe9576000848260ff1660038110612e1a57fe5b60200201511115612fdc5760098160ff1660038110612e3557fe5b0160009054906101000a900473ffffffffffffffffffffffffffffffffffffffff1673ffffffffffffffffffffffffffffffffffffffff166323b872dd3330878560ff1660038110612e8357fe5b60200201516040518463ffffffff1660e01b8152600401612ea693929190614d17565b602060405180830381600087803b158015612ec057600080fd5b505af1158015612ed4573d6000803e3d6000fd5b505050506040513d601f19601f82011682018060405250810190612ef891906148d2565b915081612f3a576040517f08c379a0000000000000000000000000000000000000000000000000000000008152600401612f3190614ed6565b60405180910390fd5b838160ff1660038110612f4957fe5b602002015160058260ff1660038110612f5e57fe5b0160008282540192505081905550838160ff1660038110612f7b57fe5b6020020151601660003373ffffffffffffffffffffffffffffffffffffffff1673ffffffffffffffffffffffffffffffffffffffff1681526020019081526020016000208260ff1660038110612fcd57fe5b01600082825401925050819055505b8080600101915050612deb565b50600c60009054906101000a900473ffffffffffffffffffffffffffffffffffffffff1673ffffffffffffffffffffffffffffffffffffffff166340c10f1933846040518363ffffffff1660e01b8152600401613047929190614d77565b600060405180830381600087803b15801561306157600080fd5b505af1158015613075573d6000803e3d6000fd5b50505050613081614431565b613089614453565b6040518060800160405280868152602001868152602001428152602001838152509050601760003373ffffffffffffffffffffffffffffffffffffffff1673ffffffffffffffffffffffffffffffffffffffff16815260200190815260200160002081908060018154018082558091505060019003906000526020600020906008020160009091909190915060008201518160000190600361312c9291906143cf565b506020820151816003019060036131449291906143cf565b506040820151816006015560608201518160070190600361316692919061448d565b5050505050505050565b600d60009054906101000a900473ffffffffffffffffffffffffffffffffffffffff1673ffffffffffffffffffffffffffffffffffffffff1663b1b8f1be826040518263ffffffff1660e01b81526004016131cb9190614e00565b600060405180830381600087803b1580156131e557600080fd5b505af11580156131f9573d6000803e3d6000fd5b5050505060005b60036fffffffffffffffffffffffffffffffff168160ff16101561325d57818160ff166003811061322d57fe5b6020020151600e8260ff166003811061324257fe5b01600082825403925050819055508080600101915050613200565b5050565b6000601a60009054906101000a900463ffffffff16905060005b8163ffffffff168160ff1610156132af576000613296613887565b90506132a18161397e565b50808060010191505061327b565b5050565b6132bb6143ad565b6132c36143ad565b60005b60036fffffffffffffffffffffffffffffffff168160ff1610156133c35760098160ff16600381106132f457fe5b0160009054906101000a900473ffffffffffffffffffffffffffffffffffffffff1673ffffffffffffffffffffffffffffffffffffffff166370a08231306040518263ffffffff1660e01b815260040161334e9190614ce1565b60206040518083038186803b15801561336657600080fd5b505afa15801561337a573d6000803e3d6000fd5b505050506040513d601f19601f8201168201806040525081019061339e9190614976565b828260ff16600381106133ad57fe5b60200201818152505080806001019150506132c6565b508091505090565b60005b60036fffffffffffffffffffffffffffffffff168110156134a55760008282600381106133f757fe5b602002015111156134985781816003811061340e57fe5b6020020151601860003373ffffffffffffffffffffffffffffffffffffffff1673ffffffffffffffffffffffffffffffffffffffff168152602001908152602001600020826003811061345d57fe5b016000828254019250508190555081816003811061347757fe5b6020020151601b826003811061348957fe5b01600082825401925050819055505b80806001019150506133ce565b5060011515601960003373ffffffffffffffffffffffffffffffffffffffff1673ffffffffffffffffffffffffffffffffffffffff16815260200190815260200160002060009054906101000a900460ff16151514613597576001601a60008282829054906101000a900463ffffffff160192506101000a81548163ffffffff021916908363ffffffff1602179055506001601960003373ffffffffffffffffffffffffffffffffffffffff1673ffffffffffffffffffffffffffffffffffffffff16815260200190815260200160002060006101000a81548160ff02191690831515021790555061359633614346565b5b50565b600d60009054906101000a900473ffffffffffffffffffffffffffffffffffffffff1673ffffffffffffffffffffffffffffffffffffffff1663d4e20b01826040518263ffffffff1660e01b81526004016135f59190614e00565b600060405180830381600087803b15801561360f57600080fd5b505af1158015613623573d6000803e3d6000fd5b5050505060005b60036fffffffffffffffffffffffffffffffff168160ff16101561368757818160ff166003811061365757fe5b6020020151600e8260ff166003811061366c57fe5b0160008282540192505081905550808060010191505061362a565b5050565b6000808214156136d0576040517f08c379a00000000000000000000000000000000000000000000000000000000081526004016136c790614f16565b60405180910390fd5b6000670de0b6b3a76400008402905060008414806136fe5750670de0b6b3a76400008482816136fb57fe5b04145b61373d576040517f08c379a000000000000000000000000000000000000000000000000000000000815260040161373490614e76565b60405180910390fd5b60006002848161374957fe5b048201905081811015613791576040517f08c379a000000000000000000000000000000000000000000000000000000000815260040161378890614e76565b60405180910390fd5b600084828161379c57fe5b04905080935050505092915050565b600080828402905060008414806137ca5750828482816137c757fe5b04145b613809576040517f08c379a000000000000000000000000000000000000000000000000000000000815260040161380090614ef6565b60405180910390fd5b60006002670de0b6b3a76400008161381d57fe5b048201905081811015613865576040517f08c379a000000000000000000000000000000000000000000000000000000000815260040161385c90614ef6565b60405180910390fd5b6000670de0b6b3a7640000828161387857fe5b04905080935050505092915050565b6000600154600254101561389a57600080fd5b600080600154815260200190815260200160002060009054906101000a900473ffffffffffffffffffffffffffffffffffffffff16600360006101000a81548173ffffffffffffffffffffffffffffffffffffffff021916908373ffffffffffffffffffffffffffffffffffffffff160217905550600080600154815260200190815260200160002060006101000a81549073ffffffffffffffffffffffffffffffffffffffff021916905560018060008282540192505081905550600360009054906101000a900473ffffffffffffffffffffffffffffffffffffffff16905090565b600080613a04601860008573ffffffffffffffffffffffffffffffffffffffff1673ffffffffffffffffffffffffffffffffffffffff1681526020019081526020016000206003806020026040519081016040528092919082600380156139fa576020028201915b8154815260200190600101908083116139e6575b50505050506120cf565b9050600c60009054906101000a900473ffffffffffffffffffffffffffffffffffffffff1673ffffffffffffffffffffffffffffffffffffffff16639dc29fac84836040518363ffffffff1660e01b8152600401613a63929190614dd7565b600060405180830381600087803b158015613a7d57600080fd5b505af1158015613a91573d6000803e3d6000fd5b5050505060005b60036fffffffffffffffffffffffffffffffff168160ff161015614340576000601860008673ffffffffffffffffffffffffffffffffffffffff1673ffffffffffffffffffffffffffffffffffffffff1681526020019081526020016000208260ff1660038110613b0557fe5b0154118015613b6257506000601660008673ffffffffffffffffffffffffffffffffffffffff1673ffffffffffffffffffffffffffffffffffffffff1681526020019081526020016000208260ff1660038110613b5e57fe5b0154115b15614333576000612710600460009054906101000a90046fffffffffffffffffffffffffffffffff166fffffffffffffffffffffffffffffffff16601860008873ffffffffffffffffffffffffffffffffffffffff1673ffffffffffffffffffffffffffffffffffffffff1681526020019081526020016000208460ff1660038110613bea57fe5b01540281613bf457fe5b04601860008773ffffffffffffffffffffffffffffffffffffffff1673ffffffffffffffffffffffffffffffffffffffff1681526020019081526020016000208360ff1660038110613c4257fe5b015403905060098260ff1660038110613c5757fe5b0160009054906101000a900473ffffffffffffffffffffffffffffffffffffffff1673ffffffffffffffffffffffffffffffffffffffff1663a9059cbb86836040518363ffffffff1660e01b8152600401613cb3929190614dd7565b602060405180830381600087803b158015613ccd57600080fd5b505af1158015613ce1573d6000803e3d6000fd5b505050506040513d601f19601f82011682018060405250810190613d0591906148d2565b935083613d1157600080fd5b601860008673ffffffffffffffffffffffffffffffffffffffff1673ffffffffffffffffffffffffffffffffffffffff1681526020019081526020016000208260ff1660038110613d5e57fe5b0154601660008773ffffffffffffffffffffffffffffffffffffffff1673ffffffffffffffffffffffffffffffffffffffff1681526020019081526020016000208360ff1660038110613dad57fe5b0160008282540392505081905550601860008673ffffffffffffffffffffffffffffffffffffffff1673ffffffffffffffffffffffffffffffffffffffff1681526020019081526020016000208260ff1660038110613e0857fe5b0154601b8360ff1660038110613e1a57fe5b0160008282540392505081905550601860008673ffffffffffffffffffffffffffffffffffffffff1673ffffffffffffffffffffffffffffffffffffffff1681526020019081526020016000208260ff1660038110613e7557fe5b015460058360ff1660038110613e8757fe5b01600082825403925050819055506000601860008773ffffffffffffffffffffffffffffffffffffffff1673ffffffffffffffffffffffffffffffffffffffff1681526020019081526020016000208360ff1660038110613ee457fe5b0154905060005b601760008873ffffffffffffffffffffffffffffffffffffffff1673ffffffffffffffffffffffffffffffffffffffff168152602001908152602001600020805490508160ff16101561424c5760011515601760008973ffffffffffffffffffffffffffffffffffffffff1673ffffffffffffffffffffffffffffffffffffffff1681526020019081526020016000208260ff1681548110613f8957fe5b90600052602060002090600802016007018560ff1660038110613fa857fe5b602091828204019190069054906101000a900460ff16151514158015613fce5750600082115b1561423f57601760008873ffffffffffffffffffffffffffffffffffffffff1673ffffffffffffffffffffffffffffffffffffffff1681526020019081526020016000208160ff168154811061402057fe5b90600052602060002090600802016003018460ff166003811061403f57fe5b015482106141be57601760008873ffffffffffffffffffffffffffffffffffffffff1673ffffffffffffffffffffffffffffffffffffffff1681526020019081526020016000208160ff168154811061409457fe5b90600052602060002090600802016003018460ff16600381106140b357fe5b0154820391506000601760008973ffffffffffffffffffffffffffffffffffffffff1673ffffffffffffffffffffffffffffffffffffffff1681526020019081526020016000208260ff168154811061410857fe5b90600052602060002090600802016003018560ff166003811061412757fe5b01819055506001601760008973ffffffffffffffffffffffffffffffffffffffff1673ffffffffffffffffffffffffffffffffffffffff1681526020019081526020016000208260ff168154811061417b57fe5b90600052602060002090600802016007018560ff166003811061419a57fe5b602091828204019190066101000a81548160ff02191690831515021790555061423e565b81601760008973ffffffffffffffffffffffffffffffffffffffff1673ffffffffffffffffffffffffffffffffffffffff1681526020019081526020016000208260ff168154811061420c57fe5b90600052602060002090600802016003018560ff166003811061422b57fe5b0160008282540392505081905550600091505b5b8080600101915050613eeb565b506000601860008873ffffffffffffffffffffffffffffffffffffffff1673ffffffffffffffffffffffffffffffffffffffff1681526020019081526020016000208460ff166003811061429c57fe5b01819055506000601960008873ffffffffffffffffffffffffffffffffffffffff1673ffffffffffffffffffffffffffffffffffffffff16815260200190815260200160002060006101000a81548160ff0219169083151502179055506001601a60008282829054906101000a900463ffffffff160392506101000a81548163ffffffff021916908363ffffffff16021790555050505b8080600101915050613a98565b50505050565b600160026000828254019250508190555080600080600254815260200190815260200160002060006101000a81548173ffffffffffffffffffffffffffffffffffffffff021916908373ffffffffffffffffffffffffffffffffffffffff16021790555050565b6040518060600160405280600390602082028036833780820191505090505090565b82600381019282156143fe579160200282015b828111156143fd5782518255916020019190600101906143e2565b5b50905061440b9190614526565b5090565b6040518060600160405280600390602082028036833780820191505090505090565b6040518060600160405280600390602082028036833780820191505090505090565b60405180608001604052806144666143ad565b81526020016144736143ad565b815260200160008152602001614487614431565b81525090565b826003601f016020900481019282156145155791602002820160005b838211156144e657835183826101000a81548160ff02191690831515021790555092602001926001016020816000010492830192600103026144a9565b80156145135782816101000a81549060ff02191690556001016020816000010492830192600103026144e6565b505b5090506145229190614543565b5090565b5b8082111561453f576000816000905550600101614527565b5090565b5b8082111561456757600081816101000a81549060ff021916905550600101614544565b5090565b60008135905061457a81615115565b92915050565b600082601f83011261459157600080fd5b60036145a461459f82614fb9565b614f8c565b915081838560208402820111156145ba57600080fd5b60005b838110156145ea57816145d08882614724565b8452602084019350602083019250506001810190506145bd565b5050505092915050565b60008190508260206003028201111561460c57600080fd5b92915050565b600082601f83011261462357600080fd5b600361463661463182614fdb565b614f8c565b9150818385602084028201111561464c57600080fd5b60005b8381101561467c5781614662888261474e565b84526020840193506020830192505060018101905061464f565b5050505092915050565b600082601f83011261469757600080fd5b60036146aa6146a582614fdb565b614f8c565b915081838560208402820111156146c057600080fd5b60005b838110156146f057816146d68882614763565b8452602084019350602083019250506001810190506146c3565b5050505092915050565b6000815190506147098161512c565b92915050565b60008135905061471e81615143565b92915050565b6000815190506147338161515a565b92915050565b60008135905061474881615171565b92915050565b60008135905061475d81615188565b92915050565b60008151905061477281615188565b92915050565b6000815190506147878161519f565b92915050565b60006020828403121561479f57600080fd5b60006147ad8482850161456b565b91505092915050565b600080604083850312156147c957600080fd5b60006147d78582860161456b565b92505060206147e88582860161474e565b9150509250929050565b60006060828403121561480457600080fd5b600061481284828501614580565b91505092915050565b60006060828403121561482d57600080fd5b600061483b848285016145f4565b91505092915050565b60006060828403121561485657600080fd5b600061486484828501614612565b91505092915050565b60006060828403121561487f57600080fd5b600061488d84828501614686565b91505092915050565b600080608083850312156148a957600080fd5b60006148b785828601614612565b92505060606148c88582860161456b565b9150509250929050565b6000602082840312156148e457600080fd5b60006148f2848285016146fa565b91505092915050565b60006020828403121561490d57600080fd5b600061491b8482850161470f565b91505092915050565b60006020828403121561493657600080fd5b600061494484828501614739565b91505092915050565b60006020828403121561495f57600080fd5b600061496d8482850161474e565b91505092915050565b60006020828403121561498857600080fd5b600061499684828501614763565b91505092915050565b6000602082840312156149b157600080fd5b60006149bf84828501614778565b91505092915050565b60006149d48383614cc3565b60208301905092915050565b6149e9816150d0565b82525050565b6149f88161503b565b82525050565b614a0a60608383615106565b5050565b614a1781615007565b614a21818461501f565b9250614a2c82614ffd565b8060005b83811015614a5d578151614a4487826149c8565b9650614a4f83615012565b925050600181019050614a30565b505050505050565b614a6e8161504d565b82525050565b6000614a8160128361502a565b91507f7a65726f20746f6b656e7320737570706c7900000000000000000000000000006000830152602082019050919050565b6000614ac160148361502a565b91507f776974686472617720717565756520656d7074790000000000000000000000006000830152602082019050919050565b6000614b0160108361502a565b91507f4552525f4449565f494e5445524e414c000000000000000000000000000000006000830152602082019050919050565b6000614b41601a8361502a565b91507f6c6f636b20706572696f64207c206e6f7420737570706c6965640000000000006000830152602082019050919050565b6000614b81600e8361502a565b91507f6e6f7420617574686f72697a65640000000000000000000000000000000000006000830152602082019050919050565b6000614bc160178361502a565b91507f5472616e73666572206e6f74207375636365737366756c0000000000000000006000830152602082019050919050565b6000614c0160108361502a565b91507f4552525f4d554c5f4f564552464c4f57000000000000000000000000000000006000830152602082019050919050565b6000614c41600c8361502a565b91507f4552525f4449565f5a45524f00000000000000000000000000000000000000006000830152602082019050919050565b6000614c8160078361502a565b91507f6c6f7720525054000000000000000000000000000000000000000000000000006000830152602082019050919050565b614cbd8161507d565b82525050565b614ccc816150b9565b82525050565b614cdb816150b9565b82525050565b6000602082019050614cf660008301846149ef565b92915050565b6000602082019050614d1160008301846149e0565b92915050565b6000606082019050614d2c60008301866149e0565b614d3960208301856149ef565b614d466040830184614cd2565b949350505050565b6000608082019050614d6360008301856149e0565b614d7060208301846149fe565b9392505050565b6000604082019050614d8c60008301856149e0565b614d996020830184614cd2565b9392505050565b6000606082019050614db560008301866149ef565b614dc260208301856149ef565b614dcf6040830184614cd2565b949350505050565b6000604082019050614dec60008301856149ef565b614df96020830184614cd2565b9392505050565b6000606082019050614e156000830184614a0e565b92915050565b6000602082019050614e306000830184614a65565b92915050565b60006020820190508181036000830152614e4f81614a74565b9050919050565b60006020820190508181036000830152614e6f81614ab4565b9050919050565b60006020820190508181036000830152614e8f81614af4565b9050919050565b60006020820190508181036000830152614eaf81614b34565b9050919050565b60006020820190508181036000830152614ecf81614b74565b9050919050565b60006020820190508181036000830152614eef81614bb4565b9050919050565b60006020820190508181036000830152614f0f81614bf4565b9050919050565b60006020820190508181036000830152614f2f81614c34565b9050919050565b60006020820190508181036000830152614f4f81614c74565b9050919050565b6000602082019050614f6b6000830184614cb4565b92915050565b6000602082019050614f866000830184614cd2565b92915050565b6000604051905081810181811067ffffffffffffffff82111715614faf57600080fd5b8060405250919050565b600067ffffffffffffffff821115614fd057600080fd5b602082029050919050565b600067ffffffffffffffff821115614ff257600080fd5b602082029050919050565b6000819050919050565b600060039050919050565b6000602082019050919050565b600081905092915050565b600082825260208201905092915050565b600061504682615099565b9050919050565b60008115159050919050565b60006150648261503b565b9050919050565b60006150768261503b565b9050919050565b60006fffffffffffffffffffffffffffffffff82169050919050565b600073ffffffffffffffffffffffffffffffffffffffff82169050919050565b6000819050919050565b600060ff82169050919050565b60006150db826150e2565b9050919050565b60006150ed826150f4565b9050919050565b60006150ff82615099565b9050919050565b82818337600083830152505050565b61511e8161503b565b811461512957600080fd5b50565b6151358161504d565b811461514057600080fd5b50565b61514c81615059565b811461515757600080fd5b50565b6151638161506b565b811461516e57600080fd5b50565b61517a8161507d565b811461518557600080fd5b50565b615191816150b9565b811461519c57600080fd5b50565b6151a8816150c3565b81146151b357600080fd5b5056fea26469706673582212204fd389c1939a06bd69df8343cf52e7e36ec76d1f0b1b95f905e36c3dfd171c8564736f6c634300060c0033",
  "immutableReferences": {},
  "source": "// SPDX-License-Identifier: UNLICENSED\r\npragma solidity ^0.6.0;\r\npragma experimental ABIEncoderV2;\r\n\r\nimport './MathLib.sol';\r\nimport './RoyaleLPstorage.sol';\r\n\r\n\r\ncontract RoyaleLP is RoyaleLPstorage, rNum {\r\n\r\n    modifier onlyOwner {\r\n        require(msg.sender == owner);\r\n        _;\r\n    }\r\n\r\n    modifier onlyAuthorized {\r\n        require(msg.sender == owner || msg.sender == loanContract,\"not authorized\");\r\n        _;\r\n    }\r\n\r\n    constructor(\r\n        address[N_COINS] memory _tokens,\r\n        address _rpToken\r\n    ) public {\r\n        owner = msg.sender;\r\n\r\n        for(uint8 i=0; i<N_COINS; i++) {\r\n            tokens[i] = Erc20(_tokens[i]);\r\n        }\r\n        rpToken = Erc20(_rpToken);\r\n    }\r\n    \r\n    /* EVENTS */\r\n    event userSupplied(\r\n        address user,\r\n        uint[N_COINS] amounts\r\n    );\r\n\r\n    event userRecieved(\r\n        address user,\r\n        uint[N_COINS] amounts\r\n    );\r\n\r\n    event userAddedToQ(\r\n        address user,\r\n        uint[N_COINS] amounts\r\n    );\r\n\r\n    /* INTERNAL FUNCTIONS */\r\n\r\n    function _getBalances() internal view returns(uint256[N_COINS] memory) {\r\n        uint256[N_COINS] memory balances;\r\n\r\n        for(uint8 i=0; i<N_COINS; i++) {\r\n            balances[i] = tokens[i].balanceOf(address(this));\r\n        }\r\n\r\n        return balances;\r\n    }\r\n\r\n\r\n\r\n    // functions related to deposit and supply\r\n\r\n    // This function deposits the fund to Yield Optimizer\r\n    function _deposit(uint256[N_COINS] memory amounts) internal {\r\n        controller.deposit(amounts);\r\n        \r\n        for(uint8 i=0; i<N_COINS; i++) {\r\n            YieldPoolBalance[i] += amounts[i];\r\n        }\r\n    }\r\n\r\n\r\n\r\n    //Internal Calculation For User Supply \r\n\r\n    function _supply(uint256[N_COINS] memory amounts) internal {\r\n        uint256 mintTokens;        \r\n        mintTokens = calcRptAmount(amounts);    \r\n        \r\n        bool result;\r\n        for(uint8 i=0; i<N_COINS; i++) {\r\n            if(amounts[i] > 0) {\r\n                result = tokens[i].transferFrom(\r\n                    msg.sender, \r\n                    address(this), \r\n                    amounts[i]\r\n                );\r\n                require(result,\"Transfer not successful\");\r\n                selfBalance[i] += amounts[i];\r\n                amountSupplied[msg.sender][i] += amounts[i];\r\n            }\r\n        }\r\n        rpToken.mint(msg.sender, mintTokens);\r\n        bool[N_COINS] memory falseArray;\r\n        depositDetails memory d = depositDetails(amounts, amounts, now, falseArray);\r\n        supplyTime[msg.sender].push(d);\r\n    }\r\n\r\n\r\n\r\n    // functions related to withdraw, withdraw queue and withdraw from Yield Optimizer\r\n    function _takeBack(address recipient) internal {\r\n        bool result;\r\n\r\n        uint256 burnAmt;\r\n\r\n        burnAmt = calcRptAmount(amountWithdraw[recipient]);\r\n        rpToken.burn(recipient, burnAmt);\r\n\r\n        for(uint8 i=0; i<N_COINS; i++) {\r\n            if(\r\n                amountWithdraw[recipient][i] > 0 \r\n                && \r\n                amountSupplied[recipient][i] > 0\r\n            ) {\r\n                uint temp = amountWithdraw[recipient][i] - (amountWithdraw[recipient][i] * fees) / 10000;\r\n                result = tokens[i].transfer(\r\n                    recipient,  \r\n                    temp\r\n                );\r\n                require(result);\r\n\r\n                amountSupplied[recipient][i] -= amountWithdraw[recipient][i];\r\n                totalWithdraw[i] -= amountWithdraw[recipient][i];\r\n                selfBalance[i] -= amountWithdraw[recipient][i];\r\n\r\n                uint x = amountWithdraw[recipient][i];\r\n                for(uint8 j=0; j<supplyTime[recipient].length; j++) {\r\n                    if(supplyTime[recipient][j].withdrawn[i] != true && x > 0) {\r\n                        if(x >= supplyTime[recipient][j].remAmt[i]) {\r\n                            x = x - supplyTime[recipient][j].remAmt[i];\r\n                            supplyTime[recipient][j].remAmt[i] = 0;\r\n                            supplyTime[recipient][j].withdrawn[i] = true;\r\n                        }\r\n                        else {\r\n                            supplyTime[recipient][j].remAmt[i] -= x;\r\n                            x = 0;\r\n                        }\r\n                    }\r\n                }\r\n\r\n                amountWithdraw[recipient][i] = 0;\r\n\r\n                isInQ[recipient] = false;\r\n                recipientCount -= 1;\r\n            }\r\n        }\r\n    }\r\n\r\n\r\n\r\n\r\n    // this will fulfill withdraw requests from the queue\r\n    function _giveBack() internal {\r\n        \r\n        uint32 counter = recipientCount;\r\n        for(uint8 i=0; i<counter; i++) {\r\n            address recipient = getFromQ();\r\n            _takeBack(recipient);\r\n        }\r\n\r\n    }\r\n\r\n\r\n\r\n\r\n\r\n    // this will add unfulfilled withdraw requests to the queue\r\n    function _takeBackQ(uint256[N_COINS] memory amounts) internal {\r\n        \r\n        for(uint256 i=0; i<N_COINS; i++) {\r\n            if(amounts[i] > 0) {\r\n                amountWithdraw[msg.sender][i] += amounts[i];\r\n                totalWithdraw[i] += amounts[i];\r\n            }\r\n        }\r\n\r\n        if(isInQ[msg.sender] != true) {\r\n            recipientCount += 1;\r\n            isInQ[msg.sender] = true;\r\n            addToQ(msg.sender);\r\n        }\r\n\r\n    }\r\n\r\n\r\n\r\n\r\n    // this will withdraw from Yield Optimizer into this contract\r\n    function _withdraw(uint256[N_COINS] memory amounts) internal {\r\n        controller.withdraw(amounts);\r\n\r\n        for(uint8 i=0; i<N_COINS; i++) {\r\n            YieldPoolBalance[i] -= amounts[i];\r\n        }\r\n    }\r\n\r\n\r\n\r\n    //This function calculate RPT to be mint or burn\r\n    function calcRptAmount(uint256[N_COINS] memory amounts) public view returns(uint256) {\r\n        uint256 rptAmt;\r\n        uint256 total = 0;\r\n        uint256 decimal = 0;\r\n        uint256 totalSuppliedTokens;\r\n        uint256 totalRPTSupply;\r\n\r\n        totalRPTSupply = bdiv(rpToken.totalSupply(), 10**18);\r\n      \r\n        for(uint8 i=0; i<N_COINS; i++) {\r\n            decimal = tokens[i].decimals();\r\n            total += bdiv(selfBalance[i]+loanGiven[i], 10**decimal);\r\n            totalSuppliedTokens += bdiv(amounts[i], 10**decimal);\r\n        }\r\n     \r\n        rptAmt = bmul(bdiv(totalSuppliedTokens, total), totalRPTSupply);        \r\n\r\n        return rptAmt;\r\n    }\r\n\r\n\r\n\r\n    //function to check available amount to withdraw for user\r\n    function availableWithdraw(address addr, uint coin) public view returns(uint256) {\r\n\r\n        uint256 amount=0;\r\n        for(uint8 j=0; j<supplyTime[addr].length; j++) {\r\n            if(\r\n                ((now - supplyTime[addr][j].time) \r\n                > \r\n                (24 * 60 * 60 * lock_period))\r\n                &&\r\n                supplyTime[addr][j].withdrawn[coin] != true\r\n            ) {\r\n                amount += supplyTime[addr][j].remAmt[coin];\r\n            }\r\n        }\r\n\r\n        return amount;\r\n    }\r\n\r\n\r\n\r\n\r\n    /* USER FUNCTIONS (exposed to frontend) */\r\n\r\n    function supply(uint256[N_COINS] calldata amounts) external {\r\n        require(\r\n            calcRptAmount(amounts) > 0,\r\n            \"zero tokens supply\"\r\n        );\r\n        \r\n        _supply(amounts);\r\n\r\n        emit userSupplied(msg.sender, amounts);\r\n    }\r\n\r\n    function requestWithdraw(uint256[N_COINS] calldata amounts) external {\r\n        require(\r\n            calcRptAmount(amounts) > 0,\r\n            \"zero tokens supply\"\r\n        );\r\n\r\n        uint256 burnAmt;\r\n        burnAmt = calcRptAmount(amounts);\r\n        require(\r\n            rpToken.balanceOf(msg.sender) >= burnAmt, \r\n            \"low RPT\"\r\n        );\r\n        \r\n        uint256[N_COINS] memory poolBalance;\r\n        poolBalance = _getBalances();\r\n        \r\n        bool checkTime = true;\r\n        bool instant;\r\n        \r\n        // check if user is withdrawing before lock period\r\n        for(uint8 i=0; i<N_COINS; i++) {\r\n            if(amounts[i] > 0) {\r\n                if(availableWithdraw(msg.sender, i) < amounts[i]) {\r\n                    checkTime = false;\r\n                }\r\n            }\r\n        }\r\n        require(checkTime, \"lock period | not supplied\");\r\n\r\n        // check if instant withdraw\r\n        for(uint8 i=0; i<N_COINS; i++) {\r\n            if(amounts[i] < poolBalance[i] && amounts[i] != 0) {\r\n                instant = true;\r\n            }\r\n        }\r\n\r\n        if(instant) {\r\n            rpToken.burn(msg.sender, burnAmt);\r\n            bool result;\r\n            for(uint8 i=0; i<N_COINS; i++) {\r\n                if(amounts[i] > 0) {\r\n                    uint temp = amounts[i] - (amounts[i] * fees) / 10000;\r\n                    result = tokens[i].transfer(msg.sender, temp);\r\n                    require(result);\r\n                    amountSupplied[msg.sender][i] -= amounts[i];\r\n                    selfBalance[i] -= amounts[i];\r\n                    \r\n                    uint x = amounts[i];\r\n                    for(uint8 j=0; j<supplyTime[msg.sender].length; j++) {\r\n                        if(supplyTime[msg.sender][j].withdrawn[i] != true && x > 0) {\r\n                            if(x >= supplyTime[msg.sender][j].remAmt[i]) {\r\n                                x = x - supplyTime[msg.sender][j].remAmt[i];\r\n                                supplyTime[msg.sender][j].remAmt[i] = 0;\r\n                                supplyTime[msg.sender][j].withdrawn[i] = true;\r\n                            }\r\n                            else {\r\n                                supplyTime[msg.sender][j].remAmt[i] -= x;\r\n                                x = 0;\r\n                            }\r\n                        }\r\n                    }\r\n\r\n                }\r\n            }\r\n\r\n            emit userRecieved(msg.sender, amounts);\r\n        } else {\r\n            _takeBackQ(amounts);\r\n\r\n            emit userAddedToQ(msg.sender, amounts);\r\n        }\r\n    }\r\n \r\n    // Following two functions are called by rLoan Only\r\n    function _loanWithdraw(uint256[N_COINS] memory amounts, address _loanSeeker) public onlyAuthorized returns(bool) {\r\n        _withdraw(amounts);\r\n\r\n        for(uint8 i=0; i<N_COINS; i++) {\r\n            if(amounts[i] > 0) {\r\n                loanGiven[i] += amounts[i];\r\n                selfBalance[i] -= amounts[i];\r\n                tokens[i].transfer(_loanSeeker, amounts[i]);\r\n            }\r\n        }\r\n        return true;\r\n    }\r\n\r\n    //Function only called by multisig contract for transfering tokens\r\n    function _loanRepayment(uint256[N_COINS] memory amounts, address _loanSeeker) public onlyAuthorized returns(bool) {\r\n        for(uint8 i=0; i<N_COINS; i++) {\r\n            if(amounts[i] > 0) {\r\n                loanGiven[i] -= amounts[i];\r\n                selfBalance[i] += amounts[i];\r\n                tokens[i].transferFrom(_loanSeeker, address(this), amounts[i]);\r\n            }\r\n        }\r\n        return true;\r\n    }\r\n\r\n    // this function deposits without minting RPT\r\n    function depsoitInRoyale(uint256[N_COINS] calldata amounts) external {\r\n        for(uint8 i=0;i<N_COINS;i++){\r\n            if(amounts[i]!=0){\r\n             tokens[i].transferFrom(msg.sender,address(this),amounts[i]);\r\n             selfBalance[i]+=amounts[i];\r\n            }\r\n        }\r\n    }\r\n\r\n\r\n    /* CORE FUNCTIONS (also exposed to frontend but to be called by owner only) */\r\n\r\n   //function for deposit in pool for yield\r\n    function deposit() onlyOwner external {\r\n        uint256[N_COINS] memory amounts = _getBalances();\r\n        uint256 decimal;\r\n\r\n        rStrategyI[3] memory strat = controller.getStrategies();\r\n\r\n        for(uint8 i=0; i<N_COINS; i++) {\r\n            decimal = tokens[i].decimals();\r\n            if(amounts[i] > thresholdTokenAmount*10**decimal) {\r\n                amounts[i] += YieldPoolBalance[i];\r\n                amounts[i] = (amounts[i] * poolPart) / 100;\r\n                amounts[i] = amounts[i] - YieldPoolBalance[i];\r\n                tokens[i].transfer(address(strat[i]), amounts[i]);\r\n            }\r\n            else {\r\n                amounts[i] = 0;\r\n            }\r\n        }\r\n\r\n        uint8 counter = 0;\r\n        for(uint8 i=0; i<N_COINS; i++) {\r\n           if(amounts[i] != 0) {\r\n               counter++;\r\n               break;\r\n           }\r\n        }\r\n\r\n        if(counter > 0){\r\n            _deposit(amounts);\r\n        }\r\n    }\r\n\r\n    //Function available in ui for owner , withdrawing from Pool(curve or any other)\r\n    function withdraw() onlyOwner external {\r\n\r\n        uint8 counter = 0;\r\n        for(uint8 i=0; i<N_COINS; i++) {\r\n           if(totalWithdraw[i] != 0) {\r\n               counter++;\r\n               break;\r\n           }\r\n        }\r\n\r\n        require(counter > 0, \"withdraw queue empty\");\r\n\r\n        _withdraw(totalWithdraw);\r\n        _giveBack();\r\n    }\r\n\r\n    //function for rebalancing pool(ratio)      \r\n    function rebalance() onlyOwner external {\r\n        uint256[N_COINS] memory currentAmount = _getBalances();\r\n        uint256[N_COINS] memory amountToWithdraw;\r\n        uint256[N_COINS] memory amountToDeposit;\r\n\r\n        rStrategyI[3] memory strat = controller.getStrategies();\r\n\r\n        for(uint8 i=0;i<N_COINS;i++) {\r\n           uint256 a = (selfBalance[i] * (100 - poolPart)) / 100;\r\n           if(a > currentAmount[i]) {\r\n              amountToWithdraw[i] = a - currentAmount[i];\r\n           }\r\n           else if(a < currentAmount[i]) {\r\n               amountToDeposit[i] = currentAmount[i] - a;\r\n               tokens[i].transfer(address(strat[i]), amountToDeposit[i]);\r\n           }\r\n           else {\r\n               amountToWithdraw[i] = 0;\r\n               amountToDeposit[i] = 0;\r\n           }\r\n        }\r\n\r\n        bool check=false;\r\n        for(uint8 i=0; i<N_COINS; i++) {\r\n            if(amountToDeposit[i] > 0) {\r\n                  check = true;\r\n                  break;\r\n            }\r\n        }\r\n\r\n        if(check){\r\n             _deposit(amountToDeposit);\r\n             check = false;\r\n        }\r\n\r\n        for(uint8 i=0; i<N_COINS; i++) {\r\n            if(amountToWithdraw[i] > 0) {\r\n                  check = true;\r\n                  break;\r\n            }\r\n        }\r\n        \r\n        if(check) {\r\n            _withdraw(amountToWithdraw);\r\n             check = false;\r\n        }\r\n\r\n    }\r\n\r\n\r\n    /* ADMIN FUNCTIONS */\r\n\r\n    \r\n    function getTotalPoolBalance() external view returns(uint256[3] memory) {\r\n        return selfBalance;\r\n    }\r\n\r\n\r\n    function getTotalLoanGiven() external view returns(uint256[3] memory) {\r\n        return loanGiven;\r\n    }\r\n\r\n    function setLoanContract(address _loanContract)external onlyOwner returns(bool){\r\n        loanContract=_loanContract;\r\n    }\r\n\r\n\r\n    function changePoolPart(uint128 _newPoolPart) external onlyOwner returns(bool) {\r\n        poolPart = _newPoolPart;\r\n        return true;\r\n    }\r\n\r\n    function getYieldProfit() external onlyOwner {\r\n        profitFromYield=controller.getTotalProfit();\r\n\r\n        for(uint8 i=0;i<N_COINS;i++){\r\n            selfBalance[i] += profitFromYield[i];\r\n        }\r\n    }\r\n\r\n    function setThresholdTokenAmount(uint256 _newThreshold) external onlyOwner returns(bool) {\r\n        thresholdTokenAmount = _newThreshold;\r\n        return true;\r\n    }\r\n\r\n    function setInitialDeposit() onlyOwner external returns(bool) {\r\n        selfBalance = _getBalances();\r\n        return true;\r\n    }\r\n\r\n    function setController(rControllerI _controller) onlyOwner external returns(bool) {\r\n        controller = _controller;\r\n        return true;\r\n    }\r\n\r\n    function setLockPeriod(uint128 lockperiod) onlyOwner external returns(bool) {\r\n        lock_period = lockperiod;\r\n        return true;\r\n    }\r\n\r\n    function setWithdrawFees(uint128 _fees) onlyOwner external returns(bool) {\r\n        fees = _fees;\r\n        return true;\r\n    }\r\n\r\n}",
  "sourcePath": "C:/Users/MayankVats/Desktop/WORK/blockchain/Royale/rlp/contracts/RoyaleLP.sol",
  "compiler": {
    "name": "solc",
    "version": "0.6.12+commit.27d51765.Emscripten.clang"
  },
  "schemaVersion": "3.3.2",
  "updatedAt": "2020-12-29T04:27:56.239Z",
  "devdoc": {
    "kind": "dev",
    "methods": {},
    "version": 1
  },
  "userdoc": {
    "kind": "user",
    "methods": {},
    "version": 1
  }
}