{
  "contractName": "RoyaleLP",
  "abi": [
    {
      "inputs": [
        {
          "internalType": "address[3]",
          "name": "_tokens",
          "type": "address[3]"
        },
        {
          "internalType": "address",
          "name": "_rpToken",
          "type": "address"
        }
      ],
      "stateMutability": "nonpayable",
      "type": "constructor"
    },
    {
      "inputs": [],
      "name": "BASE_DECIMAL",
      "outputs": [
        {
          "internalType": "uint256",
          "name": "",
          "type": "uint256"
        }
      ],
      "stateMutability": "view",
      "type": "function",
      "constant": true
    },
    {
      "inputs": [],
      "name": "MAX_SIGNEE_COUNT",
      "outputs": [
        {
          "internalType": "uint256",
          "name": "",
          "type": "uint256"
        }
      ],
      "stateMutability": "view",
      "type": "function",
      "constant": true
    },
    {
      "inputs": [
        {
          "internalType": "uint256",
          "name": "",
          "type": "uint256"
        }
      ],
      "name": "YieldPoolBalance",
      "outputs": [
        {
          "internalType": "uint256",
          "name": "",
          "type": "uint256"
        }
      ],
      "stateMutability": "view",
      "type": "function",
      "constant": true
    },
    {
      "inputs": [
        {
          "internalType": "address",
          "name": "signee",
          "type": "address"
        }
      ],
      "name": "addSignee",
      "outputs": [],
      "stateMutability": "nonpayable",
      "type": "function"
    },
    {
      "inputs": [
        {
          "internalType": "uint256",
          "name": "_loanID",
          "type": "uint256"
        }
      ],
      "name": "checkLoanApproved",
      "outputs": [
        {
          "internalType": "bool",
          "name": "",
          "type": "bool"
        }
      ],
      "stateMutability": "view",
      "type": "function",
      "constant": true
    },
    {
      "inputs": [
        {
          "internalType": "uint256",
          "name": "_loanID",
          "type": "uint256"
        }
      ],
      "name": "confirmLoan",
      "outputs": [],
      "stateMutability": "nonpayable",
      "type": "function"
    },
    {
      "inputs": [
        {
          "internalType": "address",
          "name": "",
          "type": "address"
        },
        {
          "internalType": "uint256",
          "name": "",
          "type": "uint256"
        }
      ],
      "name": "confirmations",
      "outputs": [
        {
          "internalType": "bool",
          "name": "",
          "type": "bool"
        }
      ],
      "stateMutability": "view",
      "type": "function",
      "constant": true
    },
    {
      "inputs": [],
      "name": "fees",
      "outputs": [
        {
          "internalType": "uint128",
          "name": "",
          "type": "uint128"
        }
      ],
      "stateMutability": "view",
      "type": "function",
      "constant": true
    },
    {
      "inputs": [
        {
          "internalType": "address",
          "name": "_address",
          "type": "address"
        }
      ],
      "name": "getAllLoans",
      "outputs": [
        {
          "internalType": "uint256[]",
          "name": "",
          "type": "uint256[]"
        }
      ],
      "stateMutability": "view",
      "type": "function",
      "constant": true
    },
    {
      "inputs": [
        {
          "internalType": "uint256",
          "name": "_loanID",
          "type": "uint256"
        }
      ],
      "name": "getTransactionDetail",
      "outputs": [
        {
          "components": [
            {
              "internalType": "uint256",
              "name": "transactionId",
              "type": "uint256"
            },
            {
              "internalType": "address",
              "name": "iGamingCompany",
              "type": "address"
            },
            {
              "internalType": "bool",
              "name": "isGamingCompanySigned",
              "type": "bool"
            },
            {
              "internalType": "uint256[3]",
              "name": "tokenAmounts",
              "type": "uint256[3]"
            },
            {
              "internalType": "uint256[3]",
              "name": "remAmt",
              "type": "uint256[3]"
            },
            {
              "internalType": "bool",
              "name": "approved",
              "type": "bool"
            },
            {
              "internalType": "bool",
              "name": "executed",
              "type": "bool"
            }
          ],
          "internalType": "struct RoyaleLPstorage.Transaction",
          "name": "",
          "type": "tuple"
        }
      ],
      "stateMutability": "view",
      "type": "function",
      "constant": true
    },
    {
      "inputs": [
        {
          "internalType": "address",
          "name": "",
          "type": "address"
        }
      ],
      "name": "isInQ",
      "outputs": [
        {
          "internalType": "bool",
          "name": "",
          "type": "bool"
        }
      ],
      "stateMutability": "view",
      "type": "function",
      "constant": true
    },
    {
      "inputs": [
        {
          "internalType": "address",
          "name": "",
          "type": "address"
        }
      ],
      "name": "isSignee",
      "outputs": [
        {
          "internalType": "bool",
          "name": "",
          "type": "bool"
        }
      ],
      "stateMutability": "view",
      "type": "function",
      "constant": true
    },
    {
      "inputs": [],
      "name": "owner",
      "outputs": [
        {
          "internalType": "address",
          "name": "",
          "type": "address"
        }
      ],
      "stateMutability": "view",
      "type": "function",
      "constant": true
    },
    {
      "inputs": [],
      "name": "poolPart",
      "outputs": [
        {
          "internalType": "uint128",
          "name": "",
          "type": "uint128"
        }
      ],
      "stateMutability": "view",
      "type": "function",
      "constant": true
    },
    {
      "inputs": [
        {
          "internalType": "address",
          "name": "signee",
          "type": "address"
        }
      ],
      "name": "removeSignee",
      "outputs": [],
      "stateMutability": "nonpayable",
      "type": "function"
    },
    {
      "inputs": [
        {
          "internalType": "uint256[3]",
          "name": "amounts",
          "type": "uint256[3]"
        }
      ],
      "name": "requestLoan",
      "outputs": [
        {
          "internalType": "uint256",
          "name": "",
          "type": "uint256"
        }
      ],
      "stateMutability": "nonpayable",
      "type": "function"
    },
    {
      "inputs": [],
      "name": "required",
      "outputs": [
        {
          "internalType": "uint256",
          "name": "",
          "type": "uint256"
        }
      ],
      "stateMutability": "view",
      "type": "function",
      "constant": true
    },
    {
      "inputs": [
        {
          "internalType": "uint256",
          "name": "",
          "type": "uint256"
        }
      ],
      "name": "selfBalance",
      "outputs": [
        {
          "internalType": "uint256",
          "name": "",
          "type": "uint256"
        }
      ],
      "stateMutability": "view",
      "type": "function",
      "constant": true
    },
    {
      "inputs": [
        {
          "internalType": "uint256",
          "name": "_required",
          "type": "uint256"
        }
      ],
      "name": "setRequiredSignee",
      "outputs": [],
      "stateMutability": "nonpayable",
      "type": "function"
    },
    {
      "inputs": [
        {
          "internalType": "uint256",
          "name": "_loanID",
          "type": "uint256"
        }
      ],
      "name": "signTransaction",
      "outputs": [],
      "stateMutability": "nonpayable",
      "type": "function"
    },
    {
      "inputs": [
        {
          "internalType": "uint256",
          "name": "",
          "type": "uint256"
        }
      ],
      "name": "signees",
      "outputs": [
        {
          "internalType": "address",
          "name": "",
          "type": "address"
        }
      ],
      "stateMutability": "view",
      "type": "function",
      "constant": true
    },
    {
      "inputs": [],
      "name": "thresholdTokenAmount",
      "outputs": [
        {
          "internalType": "uint256",
          "name": "",
          "type": "uint256"
        }
      ],
      "stateMutability": "view",
      "type": "function",
      "constant": true
    },
    {
      "inputs": [
        {
          "internalType": "uint256",
          "name": "",
          "type": "uint256"
        }
      ],
      "name": "totalWithdraw",
      "outputs": [
        {
          "internalType": "uint256",
          "name": "",
          "type": "uint256"
        }
      ],
      "stateMutability": "view",
      "type": "function",
      "constant": true
    },
    {
      "inputs": [],
      "name": "transactionCount",
      "outputs": [
        {
          "internalType": "uint256",
          "name": "",
          "type": "uint256"
        }
      ],
      "stateMutability": "view",
      "type": "function",
      "constant": true
    },
    {
      "inputs": [
        {
          "internalType": "uint256",
          "name": "",
          "type": "uint256"
        }
      ],
      "name": "transactions",
      "outputs": [
        {
          "internalType": "uint256",
          "name": "transactionId",
          "type": "uint256"
        },
        {
          "internalType": "address",
          "name": "iGamingCompany",
          "type": "address"
        },
        {
          "internalType": "bool",
          "name": "isGamingCompanySigned",
          "type": "bool"
        },
        {
          "internalType": "bool",
          "name": "approved",
          "type": "bool"
        },
        {
          "internalType": "bool",
          "name": "executed",
          "type": "bool"
        }
      ],
      "stateMutability": "view",
      "type": "function",
      "constant": true
    },
    {
      "inputs": [
        {
          "internalType": "uint256[3]",
          "name": "amounts",
          "type": "uint256[3]"
        }
      ],
      "name": "supply",
      "outputs": [],
      "stateMutability": "nonpayable",
      "type": "function"
    },
    {
      "inputs": [
        {
          "internalType": "uint256[3]",
          "name": "amounts",
          "type": "uint256[3]"
        }
      ],
      "name": "requestWithdraw",
      "outputs": [],
      "stateMutability": "nonpayable",
      "type": "function"
    },
    {
      "inputs": [
        {
          "internalType": "uint256[3]",
          "name": "amounts",
          "type": "uint256[3]"
        },
        {
          "internalType": "uint256",
          "name": "_loanID",
          "type": "uint256"
        }
      ],
      "name": "withdrawLoan",
      "outputs": [],
      "stateMutability": "nonpayable",
      "type": "function"
    },
    {
      "inputs": [
        {
          "internalType": "uint256[3]",
          "name": "_amounts",
          "type": "uint256[3]"
        },
        {
          "internalType": "uint256",
          "name": "_loanId",
          "type": "uint256"
        }
      ],
      "name": "repayLoan",
      "outputs": [],
      "stateMutability": "nonpayable",
      "type": "function"
    },
    {
      "inputs": [
        {
          "internalType": "uint256[3]",
          "name": "amounts",
          "type": "uint256[3]"
        }
      ],
      "name": "checkMintAmount",
      "outputs": [
        {
          "internalType": "uint256",
          "name": "",
          "type": "uint256"
        }
      ],
      "stateMutability": "view",
      "type": "function",
      "constant": true
    },
    {
      "inputs": [
        {
          "internalType": "uint256[3]",
          "name": "amounts",
          "type": "uint256[3]"
        }
      ],
      "name": "checkBurnAmount",
      "outputs": [
        {
          "internalType": "uint256",
          "name": "",
          "type": "uint256"
        }
      ],
      "stateMutability": "view",
      "type": "function",
      "constant": true
    },
    {
      "inputs": [],
      "name": "deposit",
      "outputs": [],
      "stateMutability": "nonpayable",
      "type": "function"
    },
    {
      "inputs": [],
      "name": "withdraw",
      "outputs": [],
      "stateMutability": "nonpayable",
      "type": "function"
    },
    {
      "inputs": [
        {
          "internalType": "uint128",
          "name": "_newPoolPart",
          "type": "uint128"
        }
      ],
      "name": "changePoolPart",
      "outputs": [],
      "stateMutability": "nonpayable",
      "type": "function"
    },
    {
      "inputs": [
        {
          "internalType": "uint256",
          "name": "_newThreshold",
          "type": "uint256"
        }
      ],
      "name": "setThresholdTokenAmount",
      "outputs": [],
      "stateMutability": "nonpayable",
      "type": "function"
    },
    {
      "inputs": [],
      "name": "setInitialDeposit",
      "outputs": [],
      "stateMutability": "nonpayable",
      "type": "function"
    },
    {
      "inputs": [
        {
          "internalType": "contract IYieldOpt",
          "name": "_yldOpt",
          "type": "address"
        }
      ],
      "name": "setYieldOpt",
      "outputs": [],
      "stateMutability": "nonpayable",
      "type": "function"
    }
  ],
  "bytecode": "0x60806040526001805560006002556019600460006101000a8154816fffffffffffffffffffffffffffffffff02191690836fffffffffffffffffffffffffffffffff160217905550605f600460106101000a8154816fffffffffffffffffffffffffffffffff02191690836fffffffffffffffffffffffffffffffff1602179055506101f4601155600e601260006101000a8154816fffffffffffffffffffffffffffffffff02191690836fffffffffffffffffffffffffffffffff1602179055506000602155348015620000d357600080fd5b50604051620057c2380380620057c28339818101604052810190620000f99190620002ae565b33600960006101000a81548173ffffffffffffffffffffffffffffffffffffffff021916908373ffffffffffffffffffffffffffffffffffffffff16021790555060005b60036fffffffffffffffffffffffffffffffff168160ff161015620001cf57828160ff16600381106200016c57fe5b6020020151600a8260ff16600381106200018257fe5b0160006101000a81548173ffffffffffffffffffffffffffffffffffffffff021916908373ffffffffffffffffffffffffffffffffffffffff16021790555080806001019150506200013d565b5080600d60006101000a81548173ffffffffffffffffffffffffffffffffffffffff021916908373ffffffffffffffffffffffffffffffffffffffff16021790555050506200038e565b6000815190506200022a8162000374565b92915050565b600082601f8301126200024257600080fd5b60036200025962000253826200031d565b620002ef565b915081838560208402820111156200027057600080fd5b60005b83811015620002a4578162000289888262000219565b84526020840193506020830192505060018101905062000273565b5050505092915050565b60008060808385031215620002c257600080fd5b6000620002d28582860162000230565b9250506060620002e58582860162000219565b9150509250929050565b6000604051905081810181811067ffffffffffffffff821117156200031357600080fd5b8060405250919050565b600067ffffffffffffffff8211156200033557600080fd5b602082029050919050565b60006200034d8262000354565b9050919050565b600073ffffffffffffffffffffffffffffffffffffffff82169050919050565b6200037f8162000340565b81146200038b57600080fd5b50565b615424806200039e6000396000f3fe608060405234801561001057600080fd5b50600436106102275760003560e01c80638da5cb5b11610130578063b0580ce9116100b8578063d80a93d61161007c578063d80a93d614610650578063da412b4d14610680578063db28bfd0146106b0578063dc8452cd146106e0578063f84fd9ef146106fe57610227565b8063b0580ce9146105d2578063b77bf600146105ee578063b8b106801461060c578063c89eb03614610628578063d0e30db01461064657610227565b80639af1d35a116100ff5780639af1d35a1461051c5780639b3641621461053a5780639ff512fa14610556578063a70200bd14610586578063ae8df6a6146105a257610227565b80638da5cb5b1461047c5780638e9b03261461049a578063905f692e146104b85780639ace38c2146104e857610227565b80633d591bc2116101b35780635d9ec210116101825780635d9ec210146103b257806362a945d1146103ce57806369850424146103fe5780638a409d111461042e5780638af814781461045e57610227565b80633d591bc21461034057806347d4a6a81461035c57806352f6e2381461037857806354d689ae1461038257610227565b80631880432a116101fa5780631880432a146102b0578063277514e0146102ce57806331805a2b146102ea57806332b72e0b1461031a5780633ccfd60b1461033657610227565b80630385b5811461022c578063049713671461025c5780630d88122c146102785780630f8cdd8814610294575b600080fd5b61024660048036038101906102419190614694565b61072e565b6040516102539190614f89565b60405180910390f35b610276600480360381019061027191906147d9565b61074e565b005b610292600480360381019061028d91906146f9565b6108b3565b005b6102ae60048036038101906102a99190614694565b61097a565b005b6102b8610a92565b6040516102c591906151bb565b60405180910390f35b6102e860048036038101906102e39190614722565b610a97565b005b61030460048036038101906102ff91906147d9565b610f2c565b60405161031191906151bb565b60405180910390f35b610334600480360381019061032f9190614787565b610f44565b005b61033e610fe2565b005b61035a60048036038101906103559190614722565b611129565b005b610376600480360381019061037191906146f9565b61143c565b005b610380611b63565b005b61039c60048036038101906103979190614694565b611bd8565b6040516103a99190614f67565b60405180910390f35b6103cc60048036038101906103c791906147d9565b611c6f565b005b6103e860048036038101906103e391906146f9565b611d27565b6040516103f591906151bb565b60405180910390f35b610418600480360381019061041391906147d9565b611db8565b60405161042591906151bb565b60405180910390f35b610448600480360381019061044391906146f9565b611dd0565b60405161045591906151bb565b60405180910390f35b610466611e20565b60405161047391906151bb565b60405180910390f35b610484611e2c565b6040516104919190614e8d565b60405180910390f35b6104a2611e52565b6040516104af91906151a0565b60405180910390f35b6104d260048036038101906104cd9190614694565b611e74565b6040516104df9190614f89565b60405180910390f35b61050260048036038101906104fd91906147d9565b611e94565b6040516105139594939291906151d6565b60405180910390f35b610524611f11565b60405161053191906151a0565b60405180910390f35b610554600480360381019061054f9190614694565b611f33565b005b610570600480360381019061056b91906147d9565b61212a565b60405161057d9190615184565b60405180910390f35b6105a0600480360381019061059b91906147b0565b612292565b005b6105bc60048036038101906105b791906147d9565b612328565b6040516105c99190614f89565b60405180910390f35b6105ec60048036038101906105e791906147d9565b612355565b005b6105f661239c565b60405161060391906151bb565b60405180910390f35b610626600480360381019061062191906147d9565b6123a2565b005b610630612406565b60405161063d91906151bb565b60405180910390f35b61064e61240c565b005b61066a600480360381019061066591906147d9565b6127e0565b6040516106779190614e8d565b60405180910390f35b61069a600480360381019061069591906146f9565b61281c565b6040516106a791906151bb565b60405180910390f35b6106ca60048036038101906106c591906147d9565b61286c565b6040516106d791906151bb565b60405180910390f35b6106e8612884565b6040516106f591906151bb565b60405180910390f35b610718600480360381019061071391906146bd565b61288a565b6040516107259190614f89565b60405180910390f35b601e6020528060005260406000206000915054906101000a900460ff1681565b33601e60008273ffffffffffffffffffffffffffffffffffffffff1673ffffffffffffffffffffffffffffffffffffffff16815260200190815260200160002060009054906101000a900460ff166107a557600080fd5b816000811180156107b857506021548111155b6107c157600080fd5b3383601c60008373ffffffffffffffffffffffffffffffffffffffff1673ffffffffffffffffffffffffffffffffffffffff168152602001908152602001600020600082815260200190815260200160002060009054906101000a900460ff161561082b57600080fd5b6001601c60003373ffffffffffffffffffffffffffffffffffffffff1673ffffffffffffffffffffffffffffffffffffffff168152602001908152602001600020600087815260200190815260200160002060006101000a81548160ff02191690831515021790555061089d856128b9565b156108ac576108ab856129c7565b5b5050505050565b60006108f7826003806020026040519081016040528092919082600360200280828437600081840152601f19601f8201169050808301925050505050506000612ad0565b11610937576040517f08c379a000000000000000000000000000000000000000000000000000000000815260040161092e90615024565b60405180910390fd5b610977816003806020026040519081016040528092919082600360200280828437600081840152601f19601f820116905080830192505050505050612d28565b50565b600960009054906101000a900473ffffffffffffffffffffffffffffffffffffffff1673ffffffffffffffffffffffffffffffffffffffff163373ffffffffffffffffffffffffffffffffffffffff16146109d457600080fd5b6001601e60008373ffffffffffffffffffffffffffffffffffffffff1673ffffffffffffffffffffffffffffffffffffffff16815260200190815260200160002060006101000a81548160ff0219169083151502179055506020819080600181540180825580915050600190039060005260206000200160009091909190916101000a81548173ffffffffffffffffffffffffffffffffffffffff021916908373ffffffffffffffffffffffffffffffffffffffff16021790555050565b603281565b3373ffffffffffffffffffffffffffffffffffffffff16601b600083815260200190815260200160002060010160009054906101000a900473ffffffffffffffffffffffffffffffffffffffff1673ffffffffffffffffffffffffffffffffffffffff1614610b3b576040517f08c379a0000000000000000000000000000000000000000000000000000000008152600401610b3290615004565b60405180910390fd5b601b600082815260200190815260200160002060080160009054906101000a900460ff16610b9e576040517f08c379a0000000000000000000000000000000000000000000000000000000008152600401610b9590615044565b60405180910390fd5b60005b60036fffffffffffffffffffffffffffffffff168160ff161015610c4757828160ff1660038110610bce57fe5b6020020135601b60008481526020019081526020016000206005018260ff1660038110610bf757fe5b01541015610c3a576040517f08c379a0000000000000000000000000000000000000000000000000000000008152600401610c3190615124565b60405180910390fd5b8080600101915050610ba1565b50610c88826003806020026040519081016040528092919082600360200280828437600081840152601f19601f82011690508083019250505050505061308e565b6000805b60036fffffffffffffffffffffffffffffffff168160ff161015610e23576000848260ff1660038110610cbb57fe5b60200201351115610ddf57600a8160ff1660038110610cd657fe5b0160009054906101000a900473ffffffffffffffffffffffffffffffffffffffff1673ffffffffffffffffffffffffffffffffffffffff1663a9059cbb33868460ff1660038110610d2357fe5b60200201356040518363ffffffff1660e01b8152600401610d45929190614efa565b602060405180830381600087803b158015610d5f57600080fd5b505af1158015610d73573d6000803e3d6000fd5b505050506040513d601f19601f82011682018060405250810190610d97919061475e565b50838160ff1660038110610da757fe5b6020020135601b60008581526020019081526020016000206005018260ff1660038110610dd057fe5b01600082825403925050819055505b6000601b60008581526020019081526020016000206005018260ff1660038110610e0557fe5b01541415610e165781806001019250505b8080600101915050610c8c565b5060038160ff161415610f27576001601b600084815260200190815260200160002060080160016101000a81548160ff0219169083151502179055506040518060600160405280838152602001600015158152602001601b6000858152602001908152602001600020600201600380602002604051908101604052809291908260038015610ec6576020028201915b815481526020019060010190808311610eb2575b5050505050815250601d60008481526020019081526020016000206000820151816000015560208201518160010160006101000a81548160ff021916908315150217905550604082015181600201906003610f229291906143a5565b509050505b505050565b600e8160038110610f3957fe5b016000915090505481565b600960009054906101000a900473ffffffffffffffffffffffffffffffffffffffff1673ffffffffffffffffffffffffffffffffffffffff163373ffffffffffffffffffffffffffffffffffffffff1614610f9e57600080fd5b80600860006101000a81548173ffffffffffffffffffffffffffffffffffffffff021916908373ffffffffffffffffffffffffffffffffffffffff16021790555050565b600960009054906101000a900473ffffffffffffffffffffffffffffffffffffffff1673ffffffffffffffffffffffffffffffffffffffff163373ffffffffffffffffffffffffffffffffffffffff161461103c57600080fd5b6000805b60036fffffffffffffffffffffffffffffffff168160ff16101561109157600060188260ff166003811061107057fe5b015414611084578180600101925050611091565b8080600101915050611040565b5060008160ff16116110d8576040517f08c379a00000000000000000000000000000000000000000000000000000000081526004016110cf90614fa4565b60405180910390fd5b61111e6018600380602002604051908101604052809291908260038015611114576020028201915b815481526020019060010190808311611100575b505050505061308e565b61112661317f565b50565b60215481111561116e576040517f08c379a000000000000000000000000000000000000000000000000000000000815260040161116590615164565b60405180910390fd5b3373ffffffffffffffffffffffffffffffffffffffff16601b600083815260200190815260200160002060010160009054906101000a900473ffffffffffffffffffffffffffffffffffffffff1673ffffffffffffffffffffffffffffffffffffffff1614611212576040517f08c379a000000000000000000000000000000000000000000000000000000000815260040161120990614fe4565b60405180910390fd5b601d600082815260200190815260200160002060010160009054906101000a900460ff1615611276576040517f08c379a000000000000000000000000000000000000000000000000000000000815260040161126d90615084565b60405180910390fd5b6000805b60036fffffffffffffffffffffffffffffffff168110156113fd5760008482600381106112a357fe5b6020020135146113f057600a81600381106112ba57fe5b0160009054906101000a900473ffffffffffffffffffffffffffffffffffffffff1673ffffffffffffffffffffffffffffffffffffffff166323b872dd333087856003811061130557fe5b60200201356040518463ffffffff1660e01b815260040161132893929190614ec3565b602060405180830381600087803b15801561134257600080fd5b505af1158015611356573d6000803e3d6000fd5b505050506040513d601f19601f8201168201806040525081019061137a919061475e565b5083816003811061138757fe5b6020020135601d600085815260200190815260200160002060020182600381106113ad57fe5b01600082825403925050819055506000601d600085815260200190815260200160002060020182600381106113de57fe5b015414156113ef5781806001019250505b5b808060010191505061127a565b506003811415611437576001601d600084815260200190815260200160002060010160006101000a81548160ff0219169083151502179055505b505050565b6000611480826003806020026040519081016040528092919082600360200280828437600081840152601f19601f8201169050808301925050505050506000612ad0565b116114c0576040517f08c379a00000000000000000000000000000000000000000000000000000000081526004016114b7906150c4565b60405180910390fd5b6000611504826003806020026040519081016040528092919082600360200280828437600081840152601f19601f8201169050808301925050505050506001612ad0565b905080600d60009054906101000a900473ffffffffffffffffffffffffffffffffffffffff1673ffffffffffffffffffffffffffffffffffffffff166370a08231336040518263ffffffff1660e01b81526004016115629190614ea8565b60206040518083038186803b15801561157a57600080fd5b505afa15801561158e573d6000803e3d6000fd5b505050506040513d601f19601f820116820180604052508101906115b29190614802565b10156115f3576040517f08c379a00000000000000000000000000000000000000000000000000000000081526004016115ea90614fc4565b60405180910390fd5b6115fb6143e5565b6116036131d1565b905061160d6143e5565b600060019050600080600090505b60036fffffffffffffffffffffffffffffffff168160ff16101561187c576000878260ff166003811061164a57fe5b6020020135111561186f5760005b601460003373ffffffffffffffffffffffffffffffffffffffff1673ffffffffffffffffffffffffffffffffffffffff168152602001908152602001600020805490508160ff16101561183a576000601460003373ffffffffffffffffffffffffffffffffffffffff1673ffffffffffffffffffffffffffffffffffffffff1681526020019081526020016000208260ff16815481106116f457fe5b906000526020600020906008020160060154420311801561179b575060011515601460003373ffffffffffffffffffffffffffffffffffffffff1673ffffffffffffffffffffffffffffffffffffffff1681526020019081526020016000208260ff168154811061176157fe5b90600052602060002090600802016007018360ff166003811061178057fe5b602091828204019190069054906101000a900460ff16151514155b1561182d57601460003373ffffffffffffffffffffffffffffffffffffffff1673ffffffffffffffffffffffffffffffffffffffff1681526020019081526020016000208160ff16815481106117ed57fe5b90600052602060002090600802016003018260ff166003811061180c57fe5b0154858360ff166003811061181d57fe5b6020020181815101915081815250505b8080600101915050611658565b50868160ff166003811061184a57fe5b6020020135848260ff166003811061185e57fe5b6020020151101561186e57600092505b5b808060010191505061161b565b50816118bd576040517f08c379a00000000000000000000000000000000000000000000000000000000081526004016118b490615144565b60405180910390fd5b60005b60036fffffffffffffffffffffffffffffffff168160ff16101561191e57848160ff16600381106118ed57fe5b6020020151878260ff166003811061190157fe5b6020020135101561191157600191505b80806001019150506118c0565b508015611b1a57600d60009054906101000a900473ffffffffffffffffffffffffffffffffffffffff1673ffffffffffffffffffffffffffffffffffffffff16639dc29fac33876040518363ffffffff1660e01b8152600401611982929190614efa565b600060405180830381600087803b15801561199c57600080fd5b505af11580156119b0573d6000803e3d6000fd5b50505050600080600090505b60036fffffffffffffffffffffffffffffffff168160ff161015611b13576000888260ff16600381106119eb57fe5b60200201351115611b0657600a8160ff1660038110611a0657fe5b0160009054906101000a900473ffffffffffffffffffffffffffffffffffffffff1673ffffffffffffffffffffffffffffffffffffffff1663a9059cbb338a8460ff1660038110611a5357fe5b60200201356040518363ffffffff1660e01b8152600401611a75929190614efa565b602060405180830381600087803b158015611a8f57600080fd5b505af1158015611aa3573d6000803e3d6000fd5b505050506040513d601f19601f82011682018060405250810190611ac7919061475e565b915081611ad357600080fd5b878160ff1660038110611ae257fe5b602002013560058260ff1660038110611af757fe5b01600082825403925050819055505b80806001019150506119bc565b5050611b5b565b611b5a866003806020026040519081016040528092919082600360200280828437600081840152601f19601f8201169050808301925050505050506132e9565b5b505050505050565b600960009054906101000a900473ffffffffffffffffffffffffffffffffffffffff1673ffffffffffffffffffffffffffffffffffffffff163373ffffffffffffffffffffffffffffffffffffffff1614611bbd57600080fd5b611bc56131d1565b6005906003611bd59291906143a5565b50565b6060601f60008373ffffffffffffffffffffffffffffffffffffffff1673ffffffffffffffffffffffffffffffffffffffff168152602001908152602001600020805480602002602001604051908101604052809291908181526020018280548015611c6357602002820191906000526020600020905b815481526020019060010190808311611c4f575b50505050509050919050565b3373ffffffffffffffffffffffffffffffffffffffff16601b600083815260200190815260200160002060010160009054906101000a900473ffffffffffffffffffffffffffffffffffffffff1673ffffffffffffffffffffffffffffffffffffffff1614611cdd57600080fd5b6001601b600083815260200190815260200160002060010160146101000a81548160ff021916908315150217905550611d15816128b9565b15611d2457611d23816129c7565b5b50565b60006022546020805490501015611d73576040517f08c379a0000000000000000000000000000000000000000000000000000000008152600401611d6a906150e4565b60405180910390fd5b611db3826003806020026040519081016040528092919082600360200280828437600081840152601f19601f8201169050808301925050505050506134b8565b919050565b60058160038110611dc557fe5b016000915090505481565b600080611e15836003806020026040519081016040528092919082600360200280828437600081840152601f19601f8201169050808301925050505050506001612ad0565b905080915050919050565b670de0b6b3a764000081565b600960009054906101000a900473ffffffffffffffffffffffffffffffffffffffff1681565b600460109054906101000a90046fffffffffffffffffffffffffffffffff1681565b60166020528060005260406000206000915054906101000a900460ff1681565b601b6020528060005260406000206000915090508060000154908060010160009054906101000a900473ffffffffffffffffffffffffffffffffffffffff16908060010160149054906101000a900460ff16908060080160009054906101000a900460ff16908060080160019054906101000a900460ff16905085565b600460009054906101000a90046fffffffffffffffffffffffffffffffff1681565b80601e60008273ffffffffffffffffffffffffffffffffffffffff1673ffffffffffffffffffffffffffffffffffffffff16815260200190815260200160002060009054906101000a900460ff16611f8a57600080fd5b6000601e60008473ffffffffffffffffffffffffffffffffffffffff1673ffffffffffffffffffffffffffffffffffffffff16815260200190815260200160002060006101000a81548160ff02191690831515021790555060005b600160208054905003811015612107578273ffffffffffffffffffffffffffffffffffffffff166020828154811061201957fe5b9060005260206000200160009054906101000a900473ffffffffffffffffffffffffffffffffffffffff1673ffffffffffffffffffffffffffffffffffffffff1614156120fa5760206001602080549050038154811061207557fe5b9060005260206000200160009054906101000a900473ffffffffffffffffffffffffffffffffffffffff16602082815481106120ad57fe5b9060005260206000200160006101000a81548173ffffffffffffffffffffffffffffffffffffffff021916908373ffffffffffffffffffffffffffffffffffffffff160217905550612107565b8080600101915050611fe5565b50602080549050602254111561212657612125602080549050612355565b5b5050565b612132614407565b601b60008381526020019081526020016000206040518060e0016040529081600082015481526020016001820160009054906101000a900473ffffffffffffffffffffffffffffffffffffffff1673ffffffffffffffffffffffffffffffffffffffff1673ffffffffffffffffffffffffffffffffffffffff1681526020016001820160149054906101000a900460ff1615151515815260200160028201600380602002604051908101604052809291908260038015612207576020028201915b8154815260200190600101908083116121f3575b505050505081526020016005820160038060200260405190810160405280929190826003801561224c576020028201915b815481526020019060010190808311612238575b505050505081526020016008820160009054906101000a900460ff161515151581526020016008820160019054906101000a900460ff1615151515815250509050919050565b600960009054906101000a900473ffffffffffffffffffffffffffffffffffffffff1673ffffffffffffffffffffffffffffffffffffffff163373ffffffffffffffffffffffffffffffffffffffff16146122ec57600080fd5b80600460106101000a8154816fffffffffffffffffffffffffffffffff02191690836fffffffffffffffffffffffffffffffff16021790555050565b6000601b600083815260200190815260200160002060080160009054906101000a900460ff169050919050565b602080549050816032821115801561236d5750818111155b801561237a575060008114155b8015612387575060008214155b61239057600080fd5b82602281905550505050565b60215481565b600960009054906101000a900473ffffffffffffffffffffffffffffffffffffffff1673ffffffffffffffffffffffffffffffffffffffff163373ffffffffffffffffffffffffffffffffffffffff16146123fc57600080fd5b8060118190555050565b60115481565b600960009054906101000a900473ffffffffffffffffffffffffffffffffffffffff1673ffffffffffffffffffffffffffffffffffffffff163373ffffffffffffffffffffffffffffffffffffffff161461246657600080fd5b61246e6143e5565b6124766131d1565b9050600080600090505b60036fffffffffffffffffffffffffffffffff168160ff16101561276c57600a8160ff16600381106124ae57fe5b0160009054906101000a900473ffffffffffffffffffffffffffffffffffffffff1673ffffffffffffffffffffffffffffffffffffffff1663313ce5676040518163ffffffff1660e01b815260040160206040518083038186803b15801561251557600080fd5b505afa158015612529573d6000803e3d6000fd5b505050506040513d601f19601f8201168201806040525081019061254d919061482b565b60ff16915081600a0a60115402838260ff166003811061256957fe5b6020020151111561274457600e8160ff166003811061258457fe5b0154838260ff166003811061259557fe5b6020020181815101915081815250506064600460109054906101000a90046fffffffffffffffffffffffffffffffff166fffffffffffffffffffffffffffffffff16848360ff16600381106125e657fe5b602002015102816125f357fe5b04838260ff166003811061260357fe5b602002018181525050600e8160ff166003811061261c57fe5b0154838260ff166003811061262d57fe5b602002015103838260ff166003811061264257fe5b602002018181525050600a8160ff166003811061265b57fe5b0160009054906101000a900473ffffffffffffffffffffffffffffffffffffffff1673ffffffffffffffffffffffffffffffffffffffff1663a9059cbb600860009054906101000a900473ffffffffffffffffffffffffffffffffffffffff16858460ff16600381106126ca57fe5b60200201516040518363ffffffff1660e01b81526004016126ec929190614f23565b602060405180830381600087803b15801561270657600080fd5b505af115801561271a573d6000803e3d6000fd5b505050506040513d601f19601f8201168201806040525081019061273e919061475e565b5061275f565b6000838260ff166003811061275557fe5b6020020181815250505b8080600101915050612480565b506000805b60036fffffffffffffffffffffffffffffffff168160ff1610156127c4576000848260ff16600381106127a057fe5b6020020151146127b75781806001019250506127c4565b8080600101915050612771565b5060008160ff1611156127db576127da83613623565b5b505050565b602081815481106127ed57fe5b906000526020600020016000915054906101000a900473ffffffffffffffffffffffffffffffffffffffff1681565b600080612861836003806020026040519081016040528092919082600360200280828437600081840152601f19601f8201169050808301925050505050506000612ad0565b905080915050919050565b6018816003811061287957fe5b016000915090505481565b60225481565b601c6020528160005260406000206020528060005260406000206000915091509054906101000a900460ff1681565b6000806000905060005b6020805490508110156129bf57601c6000602083815481106128e157fe5b9060005260206000200160009054906101000a900473ffffffffffffffffffffffffffffffffffffffff1673ffffffffffffffffffffffffffffffffffffffff1673ffffffffffffffffffffffffffffffffffffffff168152602001908152602001600020600085815260200190815260200160002060009054906101000a900460ff1615612971576001820191505b602254821480156129a25750601b600085815260200190815260200160002060010160149054906101000a900460ff165b156129b2576001925050506129c2565b80806001019150506128c3565b50505b919050565b6001601b600083815260200190815260200160002060080160006101000a81548160ff021916908315150217905550601b6000828152602001908152602001600020600201601b6000838152602001908152602001600020600501906003612a3092919061446c565b50601f6000601b600084815260200190815260200160002060010160009054906101000a900473ffffffffffffffffffffffffffffffffffffffff1673ffffffffffffffffffffffffffffffffffffffff1673ffffffffffffffffffffffffffffffffffffffff16815260200190815260200160002081908060018154018082558091505060019003906000526020600020016000909190919091505550565b600080600080600080612b8a600d60009054906101000a900473ffffffffffffffffffffffffffffffffffffffff1673ffffffffffffffffffffffffffffffffffffffff166318160ddd6040518163ffffffff1660e01b815260040160206040518083038186803b158015612b4457600080fd5b505afa158015612b58573d6000803e3d6000fd5b505050506040513d601f19601f82011682018060405250810190612b7c9190614802565b670de0b6b3a7640000613714565b905060005b60036fffffffffffffffffffffffffffffffff168160ff161015612cb457600a8160ff1660038110612bbd57fe5b0160009054906101000a900473ffffffffffffffffffffffffffffffffffffffff1673ffffffffffffffffffffffffffffffffffffffff1663313ce5676040518163ffffffff1660e01b815260040160206040518083038186803b158015612c2457600080fd5b505afa158015612c38573d6000803e3d6000fd5b505050506040513d601f19601f82011682018060405250810190612c5c919061482b565b60ff169350612c7f60058260ff1660038110612c7457fe5b015485600a0a613714565b85019450612ca3898260ff1660038110612c9557fe5b602002015185600a0a613714565b830192508080600101915050612b8f565b50612cc8612cc28386613714565b82613834565b9450600115158715151415612d1a57612710600460009054906101000a90046fffffffffffffffffffffffffffffffff166fffffffffffffffffffffffffffffffff16860281612d1457fe5b04850194505b849550505050505092915050565b6000612d35826000612ad0565b9050600080600090505b60036fffffffffffffffffffffffffffffffff168160ff161015612f07576000848260ff1660038110612d6e57fe5b60200201511115612efa57600a8160ff1660038110612d8957fe5b0160009054906101000a900473ffffffffffffffffffffffffffffffffffffffff1673ffffffffffffffffffffffffffffffffffffffff166323b872dd3330878560ff1660038110612dd757fe5b60200201516040518463ffffffff1660e01b8152600401612dfa93929190614ec3565b602060405180830381600087803b158015612e1457600080fd5b505af1158015612e28573d6000803e3d6000fd5b505050506040513d601f19601f82011682018060405250810190612e4c919061475e565b915081612e5857600080fd5b838160ff1660038110612e6757fe5b602002015160058260ff1660038110612e7c57fe5b0160008282540192505081905550838160ff1660038110612e9957fe5b6020020151601360003373ffffffffffffffffffffffffffffffffffffffff1673ffffffffffffffffffffffffffffffffffffffff1681526020019081526020016000208260ff1660038110612eeb57fe5b01600082825401925050819055505b8080600101915050612d3f565b50600d60009054906101000a900473ffffffffffffffffffffffffffffffffffffffff1673ffffffffffffffffffffffffffffffffffffffff166340c10f1933846040518363ffffffff1660e01b8152600401612f65929190614efa565b600060405180830381600087803b158015612f7f57600080fd5b505af1158015612f93573d6000803e3d6000fd5b50505050612f9f6144a9565b612fa76144cb565b6040518060800160405280868152602001868152602001428152602001838152509050601460003373ffffffffffffffffffffffffffffffffffffffff1673ffffffffffffffffffffffffffffffffffffffff16815260200190815260200160002081908060018154018082558091505060019003906000526020600020906008020160009091909190915060008201518160000190600361304a9291906143a5565b506020820151816003019060036130629291906143a5565b5060408201518160060155606082015181600701906003613084929190614505565b5050505050505050565b600860009054906101000a900473ffffffffffffffffffffffffffffffffffffffff1673ffffffffffffffffffffffffffffffffffffffff1663b1b8f1be826040518263ffffffff1660e01b81526004016130e99190614f4c565b600060405180830381600087803b15801561310357600080fd5b505af1158015613117573d6000803e3d6000fd5b5050505060005b60036fffffffffffffffffffffffffffffffff168160ff16101561317b57818160ff166003811061314b57fe5b6020020151600e8260ff166003811061316057fe5b0160008282540392505081905550808060010191505061311e565b5050565b6000601760009054906101000a900463ffffffff16905060005b8163ffffffff168160ff1610156131cd5760006131b4613910565b90506131bf81613a07565b508080600101915050613199565b5050565b6131d96143e5565b6131e16143e5565b60005b60036fffffffffffffffffffffffffffffffff168160ff1610156132e157600a8160ff166003811061321257fe5b0160009054906101000a900473ffffffffffffffffffffffffffffffffffffffff1673ffffffffffffffffffffffffffffffffffffffff166370a08231306040518263ffffffff1660e01b815260040161326c9190614e8d565b60206040518083038186803b15801561328457600080fd5b505afa158015613298573d6000803e3d6000fd5b505050506040513d601f19601f820116820180604052508101906132bc9190614802565b828260ff16600381106132cb57fe5b60200201818152505080806001019150506131e4565b508091505090565b60005b60036fffffffffffffffffffffffffffffffff168110156133c357600082826003811061331557fe5b602002015111156133b65781816003811061332c57fe5b6020020151601560003373ffffffffffffffffffffffffffffffffffffffff1673ffffffffffffffffffffffffffffffffffffffff168152602001908152602001600020826003811061337b57fe5b016000828254019250508190555081816003811061339557fe5b6020020151601882600381106133a757fe5b01600082825401925050819055505b80806001019150506132ec565b5060011515601660003373ffffffffffffffffffffffffffffffffffffffff1673ffffffffffffffffffffffffffffffffffffffff16815260200190815260200160002060009054906101000a900460ff161515146134b5576001601760008282829054906101000a900463ffffffff160192506101000a81548163ffffffff021916908363ffffffff1602179055506001601660003373ffffffffffffffffffffffffffffffffffffffff1673ffffffffffffffffffffffffffffffffffffffff16815260200190815260200160002060006101000a81548160ff0219169083151502179055506134b43361433e565b5b50565b6134c06143e5565b6021600081548092919060010191905055506040518060e0016040528060215481526020013373ffffffffffffffffffffffffffffffffffffffff16815260200160001515815260200183815260200182815260200160001515815260200160001515815250601b600060215481526020019081526020016000206000820151816000015560208201518160010160006101000a81548173ffffffffffffffffffffffffffffffffffffffff021916908373ffffffffffffffffffffffffffffffffffffffff16021790555060408201518160010160146101000a81548160ff0219169083151502179055506060820151816002019060036135c39291906143a5565b506080820151816005019060036135db9291906143a5565b5060a08201518160080160006101000a81548160ff02191690831515021790555060c08201518160080160016101000a81548160ff0219169083151502179055509050505050565b600860009054906101000a900473ffffffffffffffffffffffffffffffffffffffff1673ffffffffffffffffffffffffffffffffffffffff1663d4e20b01826040518263ffffffff1660e01b815260040161367e9190614f4c565b600060405180830381600087803b15801561369857600080fd5b505af11580156136ac573d6000803e3d6000fd5b5050505060005b60036fffffffffffffffffffffffffffffffff168160ff16101561371057818160ff16600381106136e057fe5b6020020151600e8260ff16600381106136f557fe5b016000828254019250508190555080806001019150506136b3565b5050565b600080821415613759576040517f08c379a000000000000000000000000000000000000000000000000000000000815260040161375090615104565b60405180910390fd5b6000670de0b6b3a76400008402905060008414806137875750670de0b6b3a764000084828161378457fe5b04145b6137c6576040517f08c379a00000000000000000000000000000000000000000000000000000000081526004016137bd90615064565b60405180910390fd5b6000600284816137d257fe5b04820190508181101561381a576040517f08c379a000000000000000000000000000000000000000000000000000000000815260040161381190615064565b60405180910390fd5b600084828161382557fe5b04905080935050505092915050565b6000808284029050600084148061385357508284828161385057fe5b04145b613892576040517f08c379a0000000000000000000000000000000000000000000000000000000008152600401613889906150a4565b60405180910390fd5b60006002670de0b6b3a7640000816138a657fe5b0482019050818110156138ee576040517f08c379a00000000000000000000000000000000000000000000000000000000081526004016138e5906150a4565b60405180910390fd5b6000670de0b6b3a7640000828161390157fe5b04905080935050505092915050565b6000600154600254101561392357600080fd5b600080600154815260200190815260200160002060009054906101000a900473ffffffffffffffffffffffffffffffffffffffff16600360006101000a81548173ffffffffffffffffffffffffffffffffffffffff021916908373ffffffffffffffffffffffffffffffffffffffff160217905550600080600154815260200190815260200160002060006101000a81549073ffffffffffffffffffffffffffffffffffffffff021916905560018060008282540192505081905550600360009054906101000a900473ffffffffffffffffffffffffffffffffffffffff16905090565b600080613a8f601560008573ffffffffffffffffffffffffffffffffffffffff1673ffffffffffffffffffffffffffffffffffffffff168152602001908152602001600020600380602002604051908101604052809291908260038015613a83576020028201915b815481526020019060010190808311613a6f575b50505050506001612ad0565b9050600d60009054906101000a900473ffffffffffffffffffffffffffffffffffffffff1673ffffffffffffffffffffffffffffffffffffffff16639dc29fac84836040518363ffffffff1660e01b8152600401613aee929190614f23565b600060405180830381600087803b158015613b0857600080fd5b505af1158015613b1c573d6000803e3d6000fd5b5050505060005b60036fffffffffffffffffffffffffffffffff168160ff161015614338576000601560008673ffffffffffffffffffffffffffffffffffffffff1673ffffffffffffffffffffffffffffffffffffffff1681526020019081526020016000208260ff1660038110613b9057fe5b0154118015613bed57506000601360008673ffffffffffffffffffffffffffffffffffffffff1673ffffffffffffffffffffffffffffffffffffffff1681526020019081526020016000208260ff1660038110613be957fe5b0154115b1561432b57600a8160ff1660038110613c0257fe5b0160009054906101000a900473ffffffffffffffffffffffffffffffffffffffff1673ffffffffffffffffffffffffffffffffffffffff1663a9059cbb85601560008873ffffffffffffffffffffffffffffffffffffffff1673ffffffffffffffffffffffffffffffffffffffff1681526020019081526020016000208460ff1660038110613c8d57fe5b01546040518363ffffffff1660e01b8152600401613cac929190614f23565b602060405180830381600087803b158015613cc657600080fd5b505af1158015613cda573d6000803e3d6000fd5b505050506040513d601f19601f82011682018060405250810190613cfe919061475e565b925082613d0a57600080fd5b601560008573ffffffffffffffffffffffffffffffffffffffff1673ffffffffffffffffffffffffffffffffffffffff1681526020019081526020016000208160ff1660038110613d5757fe5b0154601360008673ffffffffffffffffffffffffffffffffffffffff1673ffffffffffffffffffffffffffffffffffffffff1681526020019081526020016000208260ff1660038110613da657fe5b0160008282540392505081905550601560008573ffffffffffffffffffffffffffffffffffffffff1673ffffffffffffffffffffffffffffffffffffffff1681526020019081526020016000208160ff1660038110613e0157fe5b015460188260ff1660038110613e1357fe5b0160008282540392505081905550601560008573ffffffffffffffffffffffffffffffffffffffff1673ffffffffffffffffffffffffffffffffffffffff1681526020019081526020016000208160ff1660038110613e6e57fe5b015460058260ff1660038110613e8057fe5b01600082825403925050819055506000601560008673ffffffffffffffffffffffffffffffffffffffff1673ffffffffffffffffffffffffffffffffffffffff1681526020019081526020016000208260ff1660038110613edd57fe5b0154905060005b601460008773ffffffffffffffffffffffffffffffffffffffff1673ffffffffffffffffffffffffffffffffffffffff168152602001908152602001600020805490508160ff1610156142455760011515601460008873ffffffffffffffffffffffffffffffffffffffff1673ffffffffffffffffffffffffffffffffffffffff1681526020019081526020016000208260ff1681548110613f8257fe5b90600052602060002090600802016007018460ff1660038110613fa157fe5b602091828204019190069054906101000a900460ff16151514158015613fc75750600082115b1561423857601460008773ffffffffffffffffffffffffffffffffffffffff1673ffffffffffffffffffffffffffffffffffffffff1681526020019081526020016000208160ff168154811061401957fe5b90600052602060002090600802016003018360ff166003811061403857fe5b015482106141b757601460008773ffffffffffffffffffffffffffffffffffffffff1673ffffffffffffffffffffffffffffffffffffffff1681526020019081526020016000208160ff168154811061408d57fe5b90600052602060002090600802016003018360ff16600381106140ac57fe5b0154820391506000601460008873ffffffffffffffffffffffffffffffffffffffff1673ffffffffffffffffffffffffffffffffffffffff1681526020019081526020016000208260ff168154811061410157fe5b90600052602060002090600802016003018460ff166003811061412057fe5b01819055506001601460008873ffffffffffffffffffffffffffffffffffffffff1673ffffffffffffffffffffffffffffffffffffffff1681526020019081526020016000208260ff168154811061417457fe5b90600052602060002090600802016007018460ff166003811061419357fe5b602091828204019190066101000a81548160ff021916908315150217905550614237565b81601460008873ffffffffffffffffffffffffffffffffffffffff1673ffffffffffffffffffffffffffffffffffffffff1681526020019081526020016000208260ff168154811061420557fe5b90600052602060002090600802016003018460ff166003811061422457fe5b0160008282540392505081905550600091505b5b8080600101915050613ee4565b506000601560008773ffffffffffffffffffffffffffffffffffffffff1673ffffffffffffffffffffffffffffffffffffffff1681526020019081526020016000208360ff166003811061429557fe5b01819055506000601660008773ffffffffffffffffffffffffffffffffffffffff1673ffffffffffffffffffffffffffffffffffffffff16815260200190815260200160002060006101000a81548160ff0219169083151502179055506001601760008282829054906101000a900463ffffffff160392506101000a81548163ffffffff021916908363ffffffff160217905550505b8080600101915050613b23565b50505050565b600160026000828254019250508190555080600080600254815260200190815260200160002060006101000a81548173ffffffffffffffffffffffffffffffffffffffff021916908373ffffffffffffffffffffffffffffffffffffffff16021790555050565b82600381019282156143d4579160200282015b828111156143d35782518255916020019190600101906143b8565b5b5090506143e1919061459e565b5090565b6040518060600160405280600390602082028036833780820191505090505090565b6040518060e0016040528060008152602001600073ffffffffffffffffffffffffffffffffffffffff1681526020016000151581526020016144476143e5565b81526020016144546143e5565b81526020016000151581526020016000151581525090565b8260038101928215614498579182015b8281111561449757825482559160010191906001019061447c565b5b5090506144a5919061459e565b5090565b6040518060600160405280600390602082028036833780820191505090505090565b60405180608001604052806144de6143e5565b81526020016144eb6143e5565b8152602001600081526020016144ff6144a9565b81525090565b826003601f0160209004810192821561458d5791602002820160005b8382111561455e57835183826101000a81548160ff0219169083151502179055509260200192600101602081600001049283019260010302614521565b801561458b5782816101000a81549060ff021916905560010160208160000104928301926001030261455e565b505b50905061459a91906145bb565b5090565b5b808211156145b757600081600090555060010161459f565b5090565b5b808211156145df57600081816101000a81549060ff0219169055506001016145bc565b5090565b6000813590506145f281615364565b92915050565b60008190508260206003028201111561461057600080fd5b92915050565b6000815190506146258161537b565b92915050565b60008135905061463a81615392565b92915050565b60008135905061464f816153a9565b92915050565b600081359050614664816153c0565b92915050565b600081519050614679816153c0565b92915050565b60008151905061468e816153d7565b92915050565b6000602082840312156146a657600080fd5b60006146b4848285016145e3565b91505092915050565b600080604083850312156146d057600080fd5b60006146de858286016145e3565b92505060206146ef85828601614655565b9150509250929050565b60006060828403121561470b57600080fd5b6000614719848285016145f8565b91505092915050565b6000806080838503121561473557600080fd5b6000614743858286016145f8565b925050606061475485828601614655565b9150509250929050565b60006020828403121561477057600080fd5b600061477e84828501614616565b91505092915050565b60006020828403121561479957600080fd5b60006147a78482850161462b565b91505092915050565b6000602082840312156147c257600080fd5b60006147d084828501614640565b91505092915050565b6000602082840312156147eb57600080fd5b60006147f984828501614655565b91505092915050565b60006020828403121561481457600080fd5b60006148228482850161466a565b91505092915050565b60006020828403121561483d57600080fd5b600061484b8482850161467f565b91505092915050565b60006148608383614e6f565b60208301905092915050565b6148758161532e565b82525050565b614884816152ab565b82525050565b614893816152ab565b82525050565b6148a281615243565b6148ac8184615273565b92506148b782615229565b8060005b838110156148e85781516148cf8782614854565b96506148da83615259565b9250506001810190506148bb565b505050505050565b6148f981615243565b614903818461527e565b925061490e82615229565b8060005b8381101561493f5781516149268782614854565b965061493183615259565b925050600181019050614912565b505050505050565b60006149528261524e565b61495c8185615289565b935061496783615233565b8060005b8381101561499857815161497f8882614854565b975061498a83615266565b92505060018101905061496b565b5085935050505092915050565b6149ae816152bd565b82525050565b6149bd816152bd565b82525050565b60006149d060148361529a565b91507f776974686472617720717565756520656d7074790000000000000000000000006000830152602082019050919050565b6000614a1060108361529a565b91507f496e73756666696369656e7420525054000000000000000000000000000000006000830152602082019050919050565b6000614a5060108361529a565b91507f6e6f7420612076616c69642075736572000000000000000000000000000000006000830152602082019050919050565b6000614a9060118361529a565b91507f636f6d70616e79206e6f742d65786973740000000000000000000000000000006000830152602082019050919050565b6000614ad0601e8361529a565b91507f746f6b656e7320737570706c6965642063616e6e6f74206265207a65726f00006000830152602082019050919050565b6000614b1060158361529a565b91507f6e6f7420617070726f76656420666f72206c6f616e00000000000000000000006000830152602082019050919050565b6000614b5060108361529a565b91507f4552525f4449565f494e5445524e414c000000000000000000000000000000006000830152602082019050919050565b6000614b90600e8361529a565b91507f72657061796d656e7420646f6e650000000000000000000000000000000000006000830152602082019050919050565b6000614bd060108361529a565b91507f4552525f4d554c5f4f564552464c4f57000000000000000000000000000000006000830152602082019050919050565b6000614c10601f8361529a565b91507f746f6b656e73207265717565737465642063616e6e6f74206265207a65726f006000830152602082019050919050565b6000614c50601e8361529a565b91507f7369676e65657320617265206c657373207468616e20726571756972656400006000830152602082019050919050565b6000614c90600c8361529a565b91507f4552525f4449565f5a45524f00000000000000000000000000000000000000006000830152602082019050919050565b6000614cd060288361529a565b91507f616d6f756e7420726571756573746564206578636565647320616d6f756e742060008301527f617070726f7665640000000000000000000000000000000000000000000000006020830152604082019050919050565b6000614d3660228361529a565b91507f63616e6e6f74207769746864726177206265666f7265206c6f636b207065726960008301527f6f640000000000000000000000000000000000000000000000000000000000006020830152604082019050919050565b6000614d9c600e8361529a565b91507f456e7465722056616c69642049440000000000000000000000000000000000006000830152602082019050919050565b61016082016000820151614de66000850182614e6f565b506020820151614df9602085018261487b565b506040820151614e0c60408501826149a5565b506060820151614e1f6060850182614899565b506080820151614e3260c0850182614899565b5060a0820151614e466101208501826149a5565b5060c0820151614e5a6101408501826149a5565b50505050565b614e69816152db565b82525050565b614e7881615317565b82525050565b614e8781615317565b82525050565b6000602082019050614ea2600083018461488a565b92915050565b6000602082019050614ebd600083018461486c565b92915050565b6000606082019050614ed8600083018661486c565b614ee5602083018561488a565b614ef26040830184614e7e565b949350505050565b6000604082019050614f0f600083018561486c565b614f1c6020830184614e7e565b9392505050565b6000604082019050614f38600083018561488a565b614f456020830184614e7e565b9392505050565b6000606082019050614f6160008301846148f0565b92915050565b60006020820190508181036000830152614f818184614947565b905092915050565b6000602082019050614f9e60008301846149b4565b92915050565b60006020820190508181036000830152614fbd816149c3565b9050919050565b60006020820190508181036000830152614fdd81614a03565b9050919050565b60006020820190508181036000830152614ffd81614a43565b9050919050565b6000602082019050818103600083015261501d81614a83565b9050919050565b6000602082019050818103600083015261503d81614ac3565b9050919050565b6000602082019050818103600083015261505d81614b03565b9050919050565b6000602082019050818103600083015261507d81614b43565b9050919050565b6000602082019050818103600083015261509d81614b83565b9050919050565b600060208201905081810360008301526150bd81614bc3565b9050919050565b600060208201905081810360008301526150dd81614c03565b9050919050565b600060208201905081810360008301526150fd81614c43565b9050919050565b6000602082019050818103600083015261511d81614c83565b9050919050565b6000602082019050818103600083015261513d81614cc3565b9050919050565b6000602082019050818103600083015261515d81614d29565b9050919050565b6000602082019050818103600083015261517d81614d8f565b9050919050565b60006101608201905061519a6000830184614dcf565b92915050565b60006020820190506151b56000830184614e60565b92915050565b60006020820190506151d06000830184614e7e565b92915050565b600060a0820190506151eb6000830188614e7e565b6151f8602083018761488a565b61520560408301866149b4565b61521260608301856149b4565b61521f60808301846149b4565b9695505050505050565b6000819050919050565b6000819050602082019050919050565b600060039050919050565b600081519050919050565b6000602082019050919050565b6000602082019050919050565b600081905092915050565b600081905092915050565b600082825260208201905092915050565b600082825260208201905092915050565b60006152b6826152f7565b9050919050565b60008115159050919050565b60006152d4826152ab565b9050919050565b60006fffffffffffffffffffffffffffffffff82169050919050565b600073ffffffffffffffffffffffffffffffffffffffff82169050919050565b6000819050919050565b600060ff82169050919050565b600061533982615340565b9050919050565b600061534b82615352565b9050919050565b600061535d826152f7565b9050919050565b61536d816152ab565b811461537857600080fd5b50565b615384816152bd565b811461538f57600080fd5b50565b61539b816152c9565b81146153a657600080fd5b50565b6153b2816152db565b81146153bd57600080fd5b50565b6153c981615317565b81146153d457600080fd5b50565b6153e081615321565b81146153eb57600080fd5b5056fea2646970667358221220dc5f45870783582d84a56592a79143ed76da7f227ac63ee64f8dda45cdd0d04464736f6c634300060c0033",
  "immutableReferences": {},
  "source": "// SPDX-License-Identifier: UNLICENSED\r\npragma solidity ^0.6.0;\r\npragma experimental ABIEncoderV2;\r\n\r\nimport './MathLib.sol';\r\n\r\nimport './Erc20Interface.sol';\r\nimport './CurveInterface.sol';\r\nimport './RoyaleLPstorage.sol';\r\nimport './MultiSig.sol';\r\n\r\ncontract RoyaleLP is RoyaleLPstorage, multiSig, rNum {\r\n\r\n    constructor(\r\n        address[N_COINS] memory _tokens,\r\n        address _rpToken\r\n    ) public {\r\n        // Set owner\r\n        owner = msg.sender;\r\n\r\n        for(uint8 i=0; i<N_COINS; i++) {\r\n            tokens[i] = Erc20(_tokens[i]);\r\n        }\r\n\r\n        // Set RPT\r\n        rpToken = Erc20(_rpToken);\r\n    }\r\n    \r\n    /* INTERNAL FUNCTIONS */\r\n\r\n    function _getBalances() internal view returns(uint256[N_COINS] memory) {\r\n        uint256[N_COINS] memory balances;\r\n\r\n        for(uint8 i=0; i<N_COINS; i++) {\r\n            balances[i] = tokens[i].balanceOf(address(this));\r\n        }\r\n\r\n        return balances;\r\n    }\r\n\r\n    function _calcRptAmount(uint256[N_COINS] memory amounts, bool burn) internal view returns(uint256) {\r\n        uint256 rptAmt;\r\n        uint256 total = 0;\r\n        uint256 decimal = 0;\r\n        uint256 totalSuppliedTokens;\r\n        uint256 totalRPTSupply;\r\n\r\n        totalRPTSupply = bdiv(rpToken.totalSupply(), 10**18);\r\n        \r\n        for(uint8 i=0; i<N_COINS; i++) {\r\n            decimal = tokens[i].decimals();\r\n            total += bdiv(selfBalance[i], 10**decimal);\r\n            totalSuppliedTokens += bdiv(amounts[i], 10**decimal);\r\n        }\r\n\r\n        rptAmt = bmul(bdiv(totalSuppliedTokens, total), totalRPTSupply);\r\n\r\n        if(burn == true) {\r\n            rptAmt = rptAmt + (rptAmt * fees) / 10000;\r\n        }\r\n\r\n        return rptAmt;\r\n    }\r\n\r\n    // functions related to deposit and supply\r\n\r\n    // This function deposits the fund to 3POOL\r\n    function _deposit(uint256[N_COINS] memory amounts) internal {\r\n        yldOpt.deposit(amounts);\r\n        \r\n        for(uint8 i=0; i<N_COINS; i++) {\r\n            YieldPoolBalance[i] += amounts[i];\r\n        }\r\n    }\r\n\r\n    function _supply(uint256[N_COINS] memory amounts) internal {\r\n        uint256 mintTokens;        \r\n        mintTokens = _calcRptAmount(amounts, false);    \r\n        \r\n        bool result;\r\n        for(uint8 i=0; i<N_COINS; i++) {\r\n            if(amounts[i] > 0) {\r\n                result = tokens[i].transferFrom(\r\n                    msg.sender, \r\n                    address(this), \r\n                    amounts[i]\r\n                );\r\n                require(result);\r\n                selfBalance[i] += amounts[i];\r\n                amountSupplied[msg.sender][i] += amounts[i];\r\n            }\r\n        }\r\n    \r\n        // rpToken.mint(msg.sender, mintTokens * 10**10);\r\n        rpToken.mint(msg.sender, mintTokens);\r\n\r\n        bool[N_COINS] memory falseArray;\r\n        depositDetails memory d = depositDetails(amounts, amounts, now, falseArray);\r\n        supplyTime[msg.sender].push(d);\r\n    }\r\n\r\n    // functions related to withdraw, withdraw queue and withdraw from curve pool\r\n\r\n    function _takeBack(address recipient) internal {\r\n        bool result;\r\n\r\n        uint256 burnAmt;\r\n\r\n        burnAmt = _calcRptAmount(amountWithdraw[recipient], true);\r\n        rpToken.burn(recipient, burnAmt);\r\n\r\n        for(uint8 i=0; i<N_COINS; i++) {\r\n            if(\r\n                amountWithdraw[recipient][i] > 0 \r\n                && \r\n                amountSupplied[recipient][i] > 0\r\n            ) {\r\n                result = tokens[i].transfer(\r\n                    recipient,  \r\n                    amountWithdraw[recipient][i]\r\n                );\r\n                require(result);\r\n\r\n                amountSupplied[recipient][i] -= amountWithdraw[recipient][i];\r\n                totalWithdraw[i] -= amountWithdraw[recipient][i];\r\n                selfBalance[i] -= amountWithdraw[recipient][i];\r\n\r\n                uint x = amountWithdraw[recipient][i];\r\n                for(uint8 j=0; j<supplyTime[recipient].length; j++) {\r\n                    if(supplyTime[recipient][j].withdrawn[i] != true && x > 0) {\r\n                        if(x >= supplyTime[recipient][j].remAmt[i]) {\r\n                            x = x - supplyTime[recipient][j].remAmt[i];\r\n                            supplyTime[recipient][j].remAmt[i] = 0;\r\n                            supplyTime[recipient][j].withdrawn[i] = true;\r\n                        }\r\n                        else {\r\n                            supplyTime[recipient][j].remAmt[i] -= x;\r\n                            x = 0;\r\n                        }\r\n                    }\r\n                }\r\n\r\n                amountWithdraw[recipient][i] = 0;\r\n\r\n                isInQ[recipient] = false;\r\n                recipientCount -= 1;\r\n            }\r\n        }\r\n    }\r\n\r\n    // this will fulfill withdraw requests from the queue\r\n    function _giveBack() internal {\r\n        \r\n        uint32 counter = recipientCount;\r\n        for(uint8 i=0; i<counter; i++) {\r\n            address recipient = getFromQ();\r\n            _takeBack(recipient);\r\n        }\r\n\r\n    }\r\n\r\n    // this will add unfulfilled withdraw requests to the queue\r\n    function _takeBackQ(uint256[N_COINS] memory amounts) internal {\r\n        \r\n        for(uint256 i=0; i<N_COINS; i++) {\r\n            if(amounts[i] > 0) {\r\n                amountWithdraw[msg.sender][i] += amounts[i];\r\n                totalWithdraw[i] += amounts[i];\r\n            }\r\n        }\r\n\r\n        if(isInQ[msg.sender] != true) {\r\n            recipientCount += 1;\r\n            isInQ[msg.sender] = true;\r\n            addToQ(msg.sender);\r\n        }\r\n\r\n    }\r\n\r\n    // this will withdraw from Yield Optimizer into this contract\r\n    function _withdraw(uint256[N_COINS] memory amounts) internal {\r\n        yldOpt.withdraw(amounts);\r\n\r\n        for(uint8 i=0; i<N_COINS; i++) {\r\n            YieldPoolBalance[i] -= amounts[i];\r\n        }\r\n    }\r\n\r\n    /* USER FUNCTIONS (exposed to frontend) */\r\n\r\n    function supply(uint256[N_COINS] calldata amounts) external {\r\n        require(\r\n            _calcRptAmount(amounts, false) > 0,\r\n            \"tokens supplied cannot be zero\"\r\n        );\r\n        \r\n        _supply(amounts);\r\n    }\r\n\r\n    function requestWithdraw(uint256[N_COINS] calldata amounts) external {\r\n        require(\r\n            _calcRptAmount(amounts, false) > 0,\r\n            \"tokens requested cannot be zero\"\r\n        );\r\n\r\n        uint256 burnAmt;\r\n        burnAmt = _calcRptAmount(amounts, true);\r\n        require(\r\n            rpToken.balanceOf(msg.sender) >= burnAmt, \r\n            \"Insufficient RPT\"\r\n        );\r\n        \r\n        uint256[N_COINS] memory poolBalance;\r\n        poolBalance = _getBalances();\r\n\r\n        uint256[N_COINS] memory availableWithdraw;\r\n        \r\n        bool checkTime = true;\r\n        bool instant;\r\n        \r\n        // check if user is withdrawing before lock period\r\n        for(uint8 i=0; i<N_COINS; i++) {\r\n            if(amounts[i] > 0) {\r\n                for(uint8 j=0; j<supplyTime[msg.sender].length; j++) {\r\n                    if(\r\n                        (now - supplyTime[msg.sender][j].time) \r\n                        > \r\n                        (0) // (24 * 60 * 60 * lock_period)\r\n                        &&\r\n                        supplyTime[msg.sender][j].withdrawn[i] != true\r\n                    ) {\r\n                        availableWithdraw[i] += supplyTime[msg.sender][j].remAmt[i];\r\n                    }\r\n                }\r\n\r\n                if(availableWithdraw[i] < amounts[i]) {\r\n                    checkTime = false;\r\n                }\r\n            }\r\n        }\r\n        require(checkTime, \"cannot withdraw before lock period\");\r\n\r\n        // check if instant withdraw\r\n        for(uint8 i=0; i<N_COINS; i++) {\r\n            if(amounts[i] < poolBalance[i]) {\r\n                instant = true;\r\n            }\r\n        }\r\n\r\n        if(instant) {\r\n            rpToken.burn(msg.sender, burnAmt);\r\n            bool result;\r\n            for(uint8 i=0; i<N_COINS; i++) {\r\n                if(amounts[i] > 0) {\r\n                    result = tokens[i].transfer(msg.sender, amounts[i]);\r\n                    require(result);\r\n                    selfBalance[i] -= amounts[i];\r\n                }\r\n            }\r\n        } else {\r\n            _takeBackQ(amounts);\r\n        }\r\n    }\r\n\r\n    function withdrawLoan( \r\n        uint256[N_COINS] calldata amounts,\r\n        uint _loanID\r\n    ) external {\r\n\r\n        require(transactions[_loanID].iGamingCompany == msg.sender, \"company not-exist\");\r\n        require(transactions[_loanID].approved, \"not approved for loan\");\r\n        \r\n        for(uint8 i=0; i<N_COINS; i++) {\r\n            require(\r\n                transactions[_loanID].remAmt[i] >= amounts[i], \r\n                \"amount requested exceeds amount approved\"\r\n            );\r\n        }\r\n\r\n        _withdraw(amounts);\r\n\r\n        uint8 check = 0;\r\n        for(uint8 i=0; i<N_COINS; i++) {\r\n            if(amounts[i] > 0) {\r\n                tokens[i].transfer(msg.sender, amounts[i]);\r\n                transactions[_loanID].remAmt[i] -= amounts[i];\r\n            }\r\n\r\n            if(transactions[_loanID].remAmt[i] == 0) {\r\n                check++;\r\n            }\r\n        }\r\n\r\n        if(check == 3) {\r\n            // Loan fulfilled, company used all its loan\r\n            transactions[_loanID].executed = true;\r\n            gamingCompanyRepayment[_loanID] = Repayment({\r\n                  transactionID: _loanID,\r\n                  isRepaymentDone: false,\r\n                  remainingTokenAmounts: transactions[_loanID].tokenAmounts\r\n            });\r\n        }\r\n    }\r\n\r\n    function repayLoan(\r\n        uint256[N_COINS] calldata _amounts, \r\n        uint _loanId\r\n    ) external {\r\n        require(_loanId <= transactionCount, \"Enter Valid ID\");\r\n        require(transactions[_loanId].iGamingCompany == msg.sender, \"not a valid user\");\r\n        require(!gamingCompanyRepayment[_loanId].isRepaymentDone, \"repayment done\");\r\n        \r\n        uint counter = 0;\r\n        for(uint i=0; i<N_COINS; i++) {\r\n            if(_amounts[i]!=0) {\r\n                tokens[i].transferFrom(\r\n                    msg.sender,\r\n                    address(this),\r\n                    _amounts[i]\r\n                );\r\n                gamingCompanyRepayment[_loanId].remainingTokenAmounts[i] -= _amounts[i];\r\n                \r\n                if(gamingCompanyRepayment[_loanId].remainingTokenAmounts[i] == 0) {\r\n                    counter++;\r\n                }\r\n            }\r\n        }\r\n\r\n        if(counter == 3){\r\n            gamingCompanyRepayment[_loanId].isRepaymentDone=true;\r\n        }       \r\n    }\r\n\r\n    /* Some utility functions for front-end */\r\n\r\n    function checkMintAmount(uint256[N_COINS] calldata amounts) external view returns(uint256) {\r\n        uint256 result = _calcRptAmount(amounts, false);\r\n        return result;\r\n    }\r\n\r\n    function checkBurnAmount(uint256[N_COINS] calldata amounts) external view returns(uint256) {\r\n        uint256 result = _calcRptAmount(amounts, true);\r\n        return result;\r\n    }\r\n\r\n\r\n    /* CORE FUNCTIONS (also exposed to frontend but to be called by owner only) */\r\n\r\n    function deposit() onlyOwner external {\r\n        uint256[N_COINS] memory amounts = _getBalances();\r\n        uint256 decimal;\r\n\r\n        for(uint8 i=0; i<N_COINS; i++) {\r\n            decimal = tokens[i].decimals();\r\n            if(amounts[i] > thresholdTokenAmount*10**decimal) {\r\n                amounts[i] += YieldPoolBalance[i];\r\n                amounts[i] = (amounts[i] * poolPart) / 100;\r\n                amounts[i] = amounts[i] - YieldPoolBalance[i];\r\n                tokens[i].transfer(address(yldOpt), amounts[i]);\r\n            }\r\n            else {\r\n                amounts[i] = 0;\r\n            }\r\n        }\r\n\r\n        uint8 counter = 0;\r\n        for(uint8 i=0; i<N_COINS; i++) {\r\n           if(amounts[i] != 0) {\r\n               counter++;\r\n               break;\r\n           }\r\n        }\r\n\r\n        if(counter > 0){\r\n            _deposit(amounts);\r\n        }\r\n    }\r\n\r\n    function withdraw() onlyOwner external {\r\n\r\n        uint8 counter = 0;\r\n        for(uint8 i=0; i<N_COINS; i++) {\r\n           if(totalWithdraw[i] != 0) {\r\n               counter++;\r\n               break;\r\n           }\r\n        }\r\n\r\n        require(counter > 0, \"withdraw queue empty\");\r\n\r\n        _withdraw(totalWithdraw);\r\n        _giveBack();\r\n    }\r\n\r\n    /* ADMIN FUNCTIONS */\r\n\r\n    function changePoolPart(uint128 _newPoolPart) external onlyOwner {\r\n        poolPart = _newPoolPart;\r\n    }\r\n\r\n    function setThresholdTokenAmount(uint256 _newThreshold) external onlyOwner {\r\n        thresholdTokenAmount = _newThreshold;\r\n    }\r\n\r\n    function setInitialDeposit() onlyOwner external {\r\n        selfBalance = _getBalances();\r\n    }\r\n\r\n    function setYieldOpt(IYieldOpt _yldOpt) onlyOwner external {\r\n        yldOpt = _yldOpt;\r\n    }\r\n\r\n}",
  "sourcePath": "C:/Users/MayankVats/Desktop/WORK/blockchain/Royale/royale-contracts/contracts/RoyaleLP.sol",
  "compiler": {
    "name": "solc",
    "version": "0.6.12+commit.27d51765.Emscripten.clang"
  },
  "schemaVersion": "3.3.2",
  "updatedAt": "2020-12-10T06:41:10.303Z",
  "networkType": "ethereum",
  "devdoc": {
    "kind": "dev",
    "methods": {},
    "version": 1
  },
  "userdoc": {
    "kind": "user",
    "methods": {},
    "version": 1
  }
}