{
  "contractName": "RoyaleLPstorage",
  "abi": [
    {
      "inputs": [
        {
          "internalType": "uint256",
          "name": "",
          "type": "uint256"
        }
      ],
      "name": "YieldPoolBalance",
      "outputs": [
        {
          "internalType": "uint256",
          "name": "",
          "type": "uint256"
        }
      ],
      "stateMutability": "view",
      "type": "function"
    },
    {
      "inputs": [
        {
          "internalType": "address",
          "name": "",
          "type": "address"
        },
        {
          "internalType": "uint256",
          "name": "",
          "type": "uint256"
        }
      ],
      "name": "amountSupplied",
      "outputs": [
        {
          "internalType": "uint256",
          "name": "",
          "type": "uint256"
        }
      ],
      "stateMutability": "view",
      "type": "function"
    },
    {
      "inputs": [],
      "name": "fees",
      "outputs": [
        {
          "internalType": "uint128",
          "name": "",
          "type": "uint128"
        }
      ],
      "stateMutability": "view",
      "type": "function"
    },
    {
      "inputs": [
        {
          "internalType": "address",
          "name": "",
          "type": "address"
        }
      ],
      "name": "isInQ",
      "outputs": [
        {
          "internalType": "bool",
          "name": "",
          "type": "bool"
        }
      ],
      "stateMutability": "view",
      "type": "function"
    },
    {
      "inputs": [],
      "name": "loanContract",
      "outputs": [
        {
          "internalType": "address",
          "name": "",
          "type": "address"
        }
      ],
      "stateMutability": "view",
      "type": "function"
    },
    {
      "inputs": [
        {
          "internalType": "uint256",
          "name": "",
          "type": "uint256"
        }
      ],
      "name": "loanGiven",
      "outputs": [
        {
          "internalType": "uint256",
          "name": "",
          "type": "uint256"
        }
      ],
      "stateMutability": "view",
      "type": "function"
    },
    {
      "inputs": [],
      "name": "lock_period",
      "outputs": [
        {
          "internalType": "uint128",
          "name": "",
          "type": "uint128"
        }
      ],
      "stateMutability": "view",
      "type": "function"
    },
    {
      "inputs": [],
      "name": "owner",
      "outputs": [
        {
          "internalType": "address",
          "name": "",
          "type": "address"
        }
      ],
      "stateMutability": "view",
      "type": "function"
    },
    {
      "inputs": [],
      "name": "poolPart",
      "outputs": [
        {
          "internalType": "uint128",
          "name": "",
          "type": "uint128"
        }
      ],
      "stateMutability": "view",
      "type": "function"
    },
    {
      "inputs": [
        {
          "internalType": "uint256",
          "name": "",
          "type": "uint256"
        }
      ],
      "name": "selfBalance",
      "outputs": [
        {
          "internalType": "uint256",
          "name": "",
          "type": "uint256"
        }
      ],
      "stateMutability": "view",
      "type": "function"
    },
    {
      "inputs": [],
      "name": "thresholdTokenAmount",
      "outputs": [
        {
          "internalType": "uint256",
          "name": "",
          "type": "uint256"
        }
      ],
      "stateMutability": "view",
      "type": "function"
    },
    {
      "inputs": [
        {
          "internalType": "uint256",
          "name": "",
          "type": "uint256"
        }
      ],
      "name": "totalWithdraw",
      "outputs": [
        {
          "internalType": "uint256",
          "name": "",
          "type": "uint256"
        }
      ],
      "stateMutability": "view",
      "type": "function"
    }
  ],
  "bytecode": "0x60806040526001805560006002556019600460006101000a8154816fffffffffffffffffffffffffffffffff02191690836fffffffffffffffffffffffffffffffff160217905550605f600460106101000a8154816fffffffffffffffffffffffffffffffff02191690836fffffffffffffffffffffffffffffffff1602179055506101f460115534801561009357600080fd5b50610526806100a36000396000f3fe608060405234801561001057600080fd5b50600436106100b45760003560e01c8063905f692e11610071578063905f692e146102175780639af1d35a14610271578063c23177b2146102a1578063c89eb03614610303578063db28bfd014610321578063f83e9a2014610363576100b4565b8063253f284b146100b957806331805a2b146100ed578063698504241461012f5780636d6ea257146101715780638da5cb5b146101b35780638e9b0326146101e7575b600080fd5b6100c1610393565b604051808273ffffffffffffffffffffffffffffffffffffffff16815260200191505060405180910390f35b6101196004803603602081101561010357600080fd5b81019080803590602001909291905050506103b9565b6040518082815260200191505060405180910390f35b61015b6004803603602081101561014557600080fd5b81019080803590602001909291905050506103d1565b6040518082815260200191505060405180910390f35b61019d6004803603602081101561018757600080fd5b81019080803590602001909291905050506103e9565b6040518082815260200191505060405180910390f35b6101bb610401565b604051808273ffffffffffffffffffffffffffffffffffffffff16815260200191505060405180910390f35b6101ef610427565b60405180826fffffffffffffffffffffffffffffffff16815260200191505060405180910390f35b6102596004803603602081101561022d57600080fd5b81019080803573ffffffffffffffffffffffffffffffffffffffff169060200190929190505050610449565b60405180821515815260200191505060405180910390f35b610279610469565b60405180826fffffffffffffffffffffffffffffffff16815260200191505060405180910390f35b6102ed600480360360408110156102b757600080fd5b81019080803573ffffffffffffffffffffffffffffffffffffffff1690602001909291908035906020019092919050505061048b565b6040518082815260200191505060405180910390f35b61030b6104b0565b6040518082815260200191505060405180910390f35b61034d6004803603602081101561033757600080fd5b81019080803590602001909291905050506104b6565b6040518082815260200191505060405180910390f35b61036b6104ce565b60405180826fffffffffffffffffffffffffffffffff16815260200191505060405180910390f35b601e60009054906101000a900473ffffffffffffffffffffffffffffffffffffffff1681565b600e81600381106103c657fe5b016000915090505481565b600581600381106103de57fe5b016000915090505481565b601b81600381106103f657fe5b016000915090505481565b600860009054906101000a900473ffffffffffffffffffffffffffffffffffffffff1681565b600460109054906101000a90046fffffffffffffffffffffffffffffffff1681565b60166020528060005260406000206000915054906101000a900460ff1681565b600460009054906101000a90046fffffffffffffffffffffffffffffffff1681565b601360205281600052604060002081600381106104a457fe5b01600091509150505481565b60115481565b601881600381106104c357fe5b016000915090505481565b601260009054906101000a90046fffffffffffffffffffffffffffffffff168156fea2646970667358221220bf5ab787c705efc45724d57a9d564280b6ba8cf205dcc50f46465a3b513b837864736f6c634300060c0033",
  "immutableReferences": {},
  "source": "// SPDX-License-Identifier: UNLICENSED\r\npragma solidity ^0.6.0;\r\n\r\nimport '../Interfaces/Erc20Interface.sol';\r\nimport '../Interfaces/ControllerInterface.sol';\r\nimport '../Interfaces/rStrategyInterface.sol';\r\n\r\ncontract WithdrawQueue {\r\n    mapping(uint256 => address) withdrawQ;\r\n    uint256 first = 1;\r\n    uint256 last = 0;\r\n    address data;\r\n\r\n    function addToQ(address addr) internal {\r\n        last += 1;\r\n        withdrawQ[last] = addr;\r\n    }\r\n\r\n    function getFromQ() internal returns(address) {\r\n        require(last >= first);\r\n\r\n        data = withdrawQ[first];\r\n\r\n        delete withdrawQ[first];\r\n        first += 1;\r\n\r\n        return data;\r\n    }\r\n}\r\n\r\ncontract RoyaleLPstorage  is WithdrawQueue {\r\n\r\n\r\n    //varaible for pool features\r\n\r\n    uint128 constant N_COINS = 3;\r\n\r\n    uint128 public fees = 25;\r\n\r\n    uint128 public poolPart = 95;\r\n\r\n    uint256[N_COINS] public selfBalance;\r\n\r\n    address public owner;\r\n\r\n    Erc20[N_COINS] tokens;\r\n\r\n    Erc20 rpToken;\r\n\r\n    //varaible for Yield Optimization\r\n\r\n    rControllerI controller;\r\n\r\n    uint[N_COINS] public YieldPoolBalance;\r\n\r\n    uint256 public thresholdTokenAmount = 500;\r\n\r\n\r\n   //Varaible for user related to supply and withdraw\r\n    uint128 public lock_period;\r\n\r\n    struct depositDetails {\r\n        uint256[N_COINS] amount;\r\n        uint256[N_COINS] remAmt;\r\n        uint256 time;\r\n        bool[N_COINS] withdrawn;\r\n    }\r\n\r\n    mapping(address => uint256[N_COINS]) public amountSupplied;\r\n    mapping(address => depositDetails[]) supplyTime;\r\n\r\n    mapping(address => uint256[N_COINS]) amountWithdraw;\r\n    mapping(address => bool) public isInQ;\r\n    uint32 recipientCount;\r\n    uint256[N_COINS] public totalWithdraw;\r\n\r\n\r\n    //Varaible to store total loan given\r\n    uint256[N_COINS] public loanGiven;  \r\n\r\n\r\n    //varaible realated to loan contract\r\n\r\n     address public loanContract;\r\n}",
  "sourcePath": "C:\\Users\\vishn\\OneDrive\\Desktop\\TempRoyakle\\rlp\\contracts\\RoyaleLPstorage.sol",
  "compiler": {
    "name": "solc",
    "version": "0.6.12+commit.27d51765.Emscripten.clang"
  },
  "schemaVersion": "3.3.2",
  "updatedAt": "2020-12-21T07:35:43.684Z",
  "devdoc": {
    "kind": "dev",
    "methods": {},
    "version": 1
  },
  "userdoc": {
    "kind": "user",
    "methods": {},
    "version": 1
  }
}