{
  "contractName": "RoyaleLPstorage",
  "abi": [
    {
      "inputs": [
        {
          "internalType": "uint256",
          "name": "",
          "type": "uint256"
        }
      ],
      "name": "YieldPoolBalance",
      "outputs": [
        {
          "internalType": "uint256",
          "name": "",
          "type": "uint256"
        }
      ],
      "stateMutability": "view",
      "type": "function"
    },
    {
      "inputs": [
        {
          "internalType": "address",
          "name": "",
          "type": "address"
        },
        {
          "internalType": "uint256",
          "name": "",
          "type": "uint256"
        }
      ],
      "name": "amountSupplied",
      "outputs": [
        {
          "internalType": "uint256",
          "name": "",
          "type": "uint256"
        }
      ],
      "stateMutability": "view",
      "type": "function"
    },
    {
      "inputs": [],
      "name": "fees",
      "outputs": [
        {
          "internalType": "uint128",
          "name": "",
          "type": "uint128"
        }
      ],
      "stateMutability": "view",
      "type": "function"
    },
    {
      "inputs": [
        {
          "internalType": "address",
          "name": "",
          "type": "address"
        }
      ],
      "name": "isInQ",
      "outputs": [
        {
          "internalType": "bool",
          "name": "",
          "type": "bool"
        }
      ],
      "stateMutability": "view",
      "type": "function"
    },
    {
      "inputs": [
        {
          "internalType": "uint256",
          "name": "",
          "type": "uint256"
        }
      ],
      "name": "loanGiven",
      "outputs": [
        {
          "internalType": "uint256",
          "name": "",
          "type": "uint256"
        }
      ],
      "stateMutability": "view",
      "type": "function"
    },
    {
      "inputs": [],
      "name": "lock_period",
      "outputs": [
        {
          "internalType": "uint128",
          "name": "",
          "type": "uint128"
        }
      ],
      "stateMutability": "view",
      "type": "function"
    },
    {
      "inputs": [],
      "name": "owner",
      "outputs": [
        {
          "internalType": "address",
          "name": "",
          "type": "address"
        }
      ],
      "stateMutability": "view",
      "type": "function"
    },
    {
      "inputs": [],
      "name": "poolPart",
      "outputs": [
        {
          "internalType": "uint128",
          "name": "",
          "type": "uint128"
        }
      ],
      "stateMutability": "view",
      "type": "function"
    },
    {
      "inputs": [
        {
          "internalType": "uint256",
          "name": "",
          "type": "uint256"
        }
      ],
      "name": "selfBalance",
      "outputs": [
        {
          "internalType": "uint256",
          "name": "",
          "type": "uint256"
        }
      ],
      "stateMutability": "view",
      "type": "function"
    },
    {
      "inputs": [],
      "name": "thresholdTokenAmount",
      "outputs": [
        {
          "internalType": "uint256",
          "name": "",
          "type": "uint256"
        }
      ],
      "stateMutability": "view",
      "type": "function"
    },
    {
      "inputs": [
        {
          "internalType": "uint256",
          "name": "",
          "type": "uint256"
        }
      ],
      "name": "totalWithdraw",
      "outputs": [
        {
          "internalType": "uint256",
          "name": "",
          "type": "uint256"
        }
      ],
      "stateMutability": "view",
      "type": "function"
    }
  ],
  "bytecode": "0x60806040526001805560006002556019600460006101000a8154816fffffffffffffffffffffffffffffffff02191690836fffffffffffffffffffffffffffffffff160217905550605f600460106101000a8154816fffffffffffffffffffffffffffffffff02191690836fffffffffffffffffffffffffffffffff1602179055506101f460115534801561009357600080fd5b506104c1806100a36000396000f3fe608060405234801561001057600080fd5b50600436106100a95760003560e01c8063905f692e11610071578063905f692e146101d85780639af1d35a14610232578063c23177b214610262578063c89eb036146102c4578063db28bfd0146102e2578063f83e9a2014610324576100a9565b806331805a2b146100ae57806369850424146100f05780636d6ea257146101325780638da5cb5b146101745780638e9b0326146101a8575b600080fd5b6100da600480360360208110156100c457600080fd5b8101908080359060200190929190505050610354565b6040518082815260200191505060405180910390f35b61011c6004803603602081101561010657600080fd5b810190808035906020019092919050505061036c565b6040518082815260200191505060405180910390f35b61015e6004803603602081101561014857600080fd5b8101908080359060200190929190505050610384565b6040518082815260200191505060405180910390f35b61017c61039c565b604051808273ffffffffffffffffffffffffffffffffffffffff16815260200191505060405180910390f35b6101b06103c2565b60405180826fffffffffffffffffffffffffffffffff16815260200191505060405180910390f35b61021a600480360360208110156101ee57600080fd5b81019080803573ffffffffffffffffffffffffffffffffffffffff1690602001909291905050506103e4565b60405180821515815260200191505060405180910390f35b61023a610404565b60405180826fffffffffffffffffffffffffffffffff16815260200191505060405180910390f35b6102ae6004803603604081101561027857600080fd5b81019080803573ffffffffffffffffffffffffffffffffffffffff16906020019092919080359060200190929190505050610426565b6040518082815260200191505060405180910390f35b6102cc61044b565b6040518082815260200191505060405180910390f35b61030e600480360360208110156102f857600080fd5b8101908080359060200190929190505050610451565b6040518082815260200191505060405180910390f35b61032c610469565b60405180826fffffffffffffffffffffffffffffffff16815260200191505060405180910390f35b600e816003811061036157fe5b016000915090505481565b6005816003811061037957fe5b016000915090505481565b601b816003811061039157fe5b016000915090505481565b600960009054906101000a900473ffffffffffffffffffffffffffffffffffffffff1681565b600460109054906101000a90046fffffffffffffffffffffffffffffffff1681565b60166020528060005260406000206000915054906101000a900460ff1681565b600460009054906101000a90046fffffffffffffffffffffffffffffffff1681565b6013602052816000526040600020816003811061043f57fe5b01600091509150505481565b60115481565b6018816003811061045e57fe5b016000915090505481565b601260009054906101000a90046fffffffffffffffffffffffffffffffff168156fea2646970667358221220839bebb8de5bb8b56caeb5a38b2e8610d8f1bc9dd81524217c394745158d021e64736f6c634300060c0033",
  "immutableReferences": {},
  "source": "// SPDX-License-Identifier: UNLICENSED\r\npragma solidity ^0.6.0;\r\n\r\nimport './Interfaces/Erc20Interface.sol';\r\nimport './Interfaces/YieldOptInterface.sol';\r\n\r\ncontract WithdrawQueue {\r\n    mapping(uint256 => address) withdrawQ;\r\n    uint256 first = 1;\r\n    uint256 last = 0;\r\n    address data;\r\n\r\n    function addToQ(address addr) internal {\r\n        last += 1;\r\n        withdrawQ[last] = addr;\r\n    }\r\n\r\n    function getFromQ() internal returns(address) {\r\n        require(last >= first);\r\n\r\n        data = withdrawQ[first];\r\n\r\n        delete withdrawQ[first];\r\n        first += 1;\r\n\r\n        return data;\r\n    }\r\n}\r\n\r\ncontract RoyaleLPstorage  is WithdrawQueue {\r\n\r\n    uint128 constant N_COINS = 3;\r\n\r\n    uint128 public fees = 25;\r\n\r\n    uint128 public poolPart = 95;\r\n\r\n    uint256[N_COINS] public selfBalance;\r\n\r\n    IYieldOpt yldOpt;\r\n\r\n    address public owner;\r\n    // curvePool Pool;\r\n    Erc20[N_COINS] tokens;\r\n    // Erc20 PoolToken;\r\n    Erc20 rpToken;\r\n\r\n    uint[N_COINS] public YieldPoolBalance;\r\n\r\n    uint256 public thresholdTokenAmount = 500;\r\n\r\n    // Lock period in days\r\n    uint128 public lock_period;\r\n\r\n    struct depositDetails {\r\n        uint256[N_COINS] amount;\r\n        uint256[N_COINS] remAmt;\r\n        uint256 time;\r\n        bool[N_COINS] withdrawn;\r\n    }\r\n\r\n    mapping(address => uint256[N_COINS]) public amountSupplied;\r\n    mapping(address => depositDetails[]) supplyTime;\r\n\r\n    mapping(address => uint256[N_COINS]) amountWithdraw;\r\n    mapping(address => bool) public isInQ;\r\n    uint32 recipientCount;\r\n    uint256[N_COINS] public totalWithdraw;\r\n    uint256[N_COINS ] public loanGiven;  \r\n}",
  "sourcePath": "C:\\Users\\MayankVats\\Desktop\\WORK\\blockchain\\Royale\\rlp\\contracts\\RoyaleLPstorage.sol",
  "compiler": {
    "name": "solc",
    "version": "0.6.12+commit.27d51765.Emscripten.clang"
  },
  "schemaVersion": "3.3.2",
  "updatedAt": "2020-12-14T11:26:53.434Z",
  "devdoc": {
    "kind": "dev",
    "methods": {},
    "version": 1
  },
  "userdoc": {
    "kind": "user",
    "methods": {},
    "version": 1
  }
}