{
  "contractName": "RoyaleLP",
  "abi": [
    {
      "inputs": [
        {
          "internalType": "address[3]",
          "name": "_tokens",
          "type": "address[3]"
        },
        {
          "internalType": "address",
          "name": "_rpToken",
          "type": "address"
        },
        {
          "internalType": "address",
          "name": "_controller",
          "type": "address"
        }
      ],
      "stateMutability": "nonpayable",
      "type": "constructor"
    },
    {
      "anonymous": false,
      "inputs": [
        {
          "indexed": false,
          "internalType": "address",
          "name": "user",
          "type": "address"
        },
        {
          "indexed": false,
          "internalType": "uint256[3]",
          "name": "amounts",
          "type": "uint256[3]"
        }
      ],
      "name": "userAddedToQ",
      "type": "event"
    },
    {
      "anonymous": false,
      "inputs": [
        {
          "indexed": false,
          "internalType": "address",
          "name": "user",
          "type": "address"
        },
        {
          "indexed": false,
          "internalType": "uint256[3]",
          "name": "amounts",
          "type": "uint256[3]"
        }
      ],
      "name": "userRecieved",
      "type": "event"
    },
    {
      "anonymous": false,
      "inputs": [
        {
          "indexed": false,
          "internalType": "address",
          "name": "user",
          "type": "address"
        },
        {
          "indexed": false,
          "internalType": "uint256[3]",
          "name": "amounts",
          "type": "uint256[3]"
        }
      ],
      "name": "userSupplied",
      "type": "event"
    },
    {
      "inputs": [],
      "name": "BASE_DECIMAL",
      "outputs": [
        {
          "internalType": "uint256",
          "name": "",
          "type": "uint256"
        }
      ],
      "stateMutability": "view",
      "type": "function"
    },
    {
      "inputs": [
        {
          "internalType": "uint256",
          "name": "",
          "type": "uint256"
        }
      ],
      "name": "YieldPoolBalance",
      "outputs": [
        {
          "internalType": "uint256",
          "name": "",
          "type": "uint256"
        }
      ],
      "stateMutability": "view",
      "type": "function"
    },
    {
      "inputs": [
        {
          "internalType": "address",
          "name": "",
          "type": "address"
        },
        {
          "internalType": "uint256",
          "name": "",
          "type": "uint256"
        }
      ],
      "name": "amountSupplied",
      "outputs": [
        {
          "internalType": "uint256",
          "name": "",
          "type": "uint256"
        }
      ],
      "stateMutability": "view",
      "type": "function"
    },
    {
      "inputs": [],
      "name": "fees",
      "outputs": [
        {
          "internalType": "uint128",
          "name": "",
          "type": "uint128"
        }
      ],
      "stateMutability": "view",
      "type": "function"
    },
    {
      "inputs": [
        {
          "internalType": "address",
          "name": "",
          "type": "address"
        }
      ],
      "name": "isInQ",
      "outputs": [
        {
          "internalType": "bool",
          "name": "",
          "type": "bool"
        }
      ],
      "stateMutability": "view",
      "type": "function"
    },
    {
      "inputs": [
        {
          "internalType": "uint256",
          "name": "",
          "type": "uint256"
        }
      ],
      "name": "loanGiven",
      "outputs": [
        {
          "internalType": "uint256",
          "name": "",
          "type": "uint256"
        }
      ],
      "stateMutability": "view",
      "type": "function"
    },
    {
      "inputs": [],
      "name": "lock_period",
      "outputs": [
        {
          "internalType": "uint128",
          "name": "",
          "type": "uint128"
        }
      ],
      "stateMutability": "view",
      "type": "function"
    },
    {
      "inputs": [],
      "name": "owner",
      "outputs": [
        {
          "internalType": "address",
          "name": "",
          "type": "address"
        }
      ],
      "stateMutability": "view",
      "type": "function"
    },
    {
      "inputs": [],
      "name": "poolPart",
      "outputs": [
        {
          "internalType": "uint128",
          "name": "",
          "type": "uint128"
        }
      ],
      "stateMutability": "view",
      "type": "function"
    },
    {
      "inputs": [
        {
          "internalType": "uint256",
          "name": "",
          "type": "uint256"
        }
      ],
      "name": "selfBalance",
      "outputs": [
        {
          "internalType": "uint256",
          "name": "",
          "type": "uint256"
        }
      ],
      "stateMutability": "view",
      "type": "function"
    },
    {
      "inputs": [],
      "name": "thresholdTokenAmount",
      "outputs": [
        {
          "internalType": "uint256",
          "name": "",
          "type": "uint256"
        }
      ],
      "stateMutability": "view",
      "type": "function"
    },
    {
      "inputs": [
        {
          "internalType": "uint256",
          "name": "",
          "type": "uint256"
        }
      ],
      "name": "totalWithdraw",
      "outputs": [
        {
          "internalType": "uint256",
          "name": "",
          "type": "uint256"
        }
      ],
      "stateMutability": "view",
      "type": "function"
    },
    {
      "inputs": [
        {
          "internalType": "uint256[3]",
          "name": "amounts",
          "type": "uint256[3]"
        },
        {
          "internalType": "bool",
          "name": "burn",
          "type": "bool"
        }
      ],
      "name": "calcRptAmount",
      "outputs": [
        {
          "internalType": "uint256",
          "name": "",
          "type": "uint256"
        }
      ],
      "stateMutability": "view",
      "type": "function"
    },
    {
      "inputs": [
        {
          "internalType": "address",
          "name": "addr",
          "type": "address"
        },
        {
          "internalType": "uint256",
          "name": "coin",
          "type": "uint256"
        }
      ],
      "name": "availableWithdraw",
      "outputs": [
        {
          "internalType": "uint256",
          "name": "",
          "type": "uint256"
        }
      ],
      "stateMutability": "view",
      "type": "function"
    },
    {
      "inputs": [
        {
          "internalType": "uint256[3]",
          "name": "amounts",
          "type": "uint256[3]"
        }
      ],
      "name": "supply",
      "outputs": [],
      "stateMutability": "nonpayable",
      "type": "function"
    },
    {
      "inputs": [
        {
          "internalType": "uint256[3]",
          "name": "amounts",
          "type": "uint256[3]"
        }
      ],
      "name": "requestWithdraw",
      "outputs": [],
      "stateMutability": "nonpayable",
      "type": "function"
    },
    {
      "inputs": [
        {
          "internalType": "uint256[3]",
          "name": "amounts",
          "type": "uint256[3]"
        },
        {
          "internalType": "address",
          "name": "_loanSeeker",
          "type": "address"
        }
      ],
      "name": "_loanWithdraw",
      "outputs": [
        {
          "internalType": "bool",
          "name": "",
          "type": "bool"
        }
      ],
      "stateMutability": "nonpayable",
      "type": "function"
    },
    {
      "inputs": [
        {
          "internalType": "uint256[3]",
          "name": "amounts",
          "type": "uint256[3]"
        },
        {
          "internalType": "address",
          "name": "_loanSeeker",
          "type": "address"
        }
      ],
      "name": "_loanRepayment",
      "outputs": [
        {
          "internalType": "bool",
          "name": "",
          "type": "bool"
        }
      ],
      "stateMutability": "nonpayable",
      "type": "function"
    },
    {
      "inputs": [],
      "name": "getCurrentPoolBalance",
      "outputs": [
        {
          "internalType": "uint256[3]",
          "name": "",
          "type": "uint256[3]"
        }
      ],
      "stateMutability": "view",
      "type": "function"
    },
    {
      "inputs": [],
      "name": "getTotalLoanGiven",
      "outputs": [
        {
          "internalType": "uint256[3]",
          "name": "",
          "type": "uint256[3]"
        }
      ],
      "stateMutability": "view",
      "type": "function"
    },
    {
      "inputs": [
        {
          "internalType": "uint256[3]",
          "name": "amounts",
          "type": "uint256[3]"
        }
      ],
      "name": "depsoitInRoyale",
      "outputs": [],
      "stateMutability": "nonpayable",
      "type": "function"
    },
    {
      "inputs": [],
      "name": "deposit",
      "outputs": [],
      "stateMutability": "nonpayable",
      "type": "function"
    },
    {
      "inputs": [],
      "name": "withdraw",
      "outputs": [],
      "stateMutability": "nonpayable",
      "type": "function"
    },
    {
      "inputs": [
        {
          "internalType": "uint128",
          "name": "_newPoolPart",
          "type": "uint128"
        }
      ],
      "name": "changePoolPart",
      "outputs": [
        {
          "internalType": "bool",
          "name": "",
          "type": "bool"
        }
      ],
      "stateMutability": "nonpayable",
      "type": "function"
    },
    {
      "inputs": [
        {
          "internalType": "uint256",
          "name": "_newThreshold",
          "type": "uint256"
        }
      ],
      "name": "setThresholdTokenAmount",
      "outputs": [
        {
          "internalType": "bool",
          "name": "",
          "type": "bool"
        }
      ],
      "stateMutability": "nonpayable",
      "type": "function"
    },
    {
      "inputs": [],
      "name": "setInitialDeposit",
      "outputs": [
        {
          "internalType": "bool",
          "name": "",
          "type": "bool"
        }
      ],
      "stateMutability": "nonpayable",
      "type": "function"
    },
    {
      "inputs": [
        {
          "internalType": "uint128",
          "name": "lockperiod",
          "type": "uint128"
        }
      ],
      "name": "setLockPeriod",
      "outputs": [
        {
          "internalType": "bool",
          "name": "",
          "type": "bool"
        }
      ],
      "stateMutability": "nonpayable",
      "type": "function"
    },
    {
      "inputs": [
        {
          "internalType": "uint128",
          "name": "_fees",
          "type": "uint128"
        }
      ],
      "name": "setWithdrawFees",
      "outputs": [
        {
          "internalType": "bool",
          "name": "",
          "type": "bool"
        }
      ],
      "stateMutability": "nonpayable",
      "type": "function"
    }
  ],
  "bytecode": "0x60806040526001805560006002556019600460006101000a8154816fffffffffffffffffffffffffffffffff02191690836fffffffffffffffffffffffffffffffff160217905550605f600460106101000a8154816fffffffffffffffffffffffffffffffff02191690836fffffffffffffffffffffffffffffffff1602179055506101f46011553480156200009457600080fd5b50604051620049d5380380620049d58339818101604052810190620000ba9190620002b1565b33600860006101000a81548173ffffffffffffffffffffffffffffffffffffffff021916908373ffffffffffffffffffffffffffffffffffffffff16021790555080600d60006101000a81548173ffffffffffffffffffffffffffffffffffffffff021916908373ffffffffffffffffffffffffffffffffffffffff16021790555060005b60036fffffffffffffffffffffffffffffffff168160ff161015620001d157838160ff16600381106200016e57fe5b602002015160098260ff16600381106200018457fe5b0160006101000a81548173ffffffffffffffffffffffffffffffffffffffff021916908373ffffffffffffffffffffffffffffffffffffffff16021790555080806001019150506200013f565b5081600c60006101000a81548173ffffffffffffffffffffffffffffffffffffffff021916908373ffffffffffffffffffffffffffffffffffffffff160217905550505050620003a6565b6000815190506200022d816200038c565b92915050565b600082601f8301126200024557600080fd5b60036200025c620002568262000335565b62000307565b915081838560208402820111156200027357600080fd5b60005b83811015620002a757816200028c88826200021c565b84526020840193506020830192505060018101905062000276565b5050505092915050565b600080600060a08486031215620002c757600080fd5b6000620002d78682870162000233565b9350506060620002ea868287016200021c565b9250506080620002fd868287016200021c565b9150509250925092565b6000604051905081810181811067ffffffffffffffff821117156200032b57600080fd5b8060405250919050565b600067ffffffffffffffff8211156200034d57600080fd5b602082029050919050565b600062000365826200036c565b9050919050565b600073ffffffffffffffffffffffffffffffffffffffff82169050919050565b620003978162000358565b8114620003a357600080fd5b50565b61461f80620003b66000396000f3fe608060405234801561001057600080fd5b50600436106101c45760003560e01c80638da5cb5b116100f9578063c23177b211610097578063d0e30db011610071578063d0e30db014610557578063db28bfd014610561578063eacd7afc14610591578063f83e9a20146105c1576101c4565b8063c23177b2146104eb578063c277b6571461051b578063c89eb03614610539576101c4565b80639af1d35a116100d35780639af1d35a1461043d578063a6d8fcb21461045b578063a70200bd1461048b578063b8b10680146104bb576101c4565b80638da5cb5b146103d15780638e9b0326146103ef578063905f692e1461040d576101c4565b806352f6e238116101665780636d6ea257116101405780636d6ea25714610323578063800012881461035357806381f433f0146103835780638af81478146103b3576101c4565b806352f6e238146102a557806369850424146102c35780636b9f1ef6146102f3576101c4565b8063224a1418116101a2578063224a14181461023357806331805a2b1461024f5780633ccfd60b1461027f57806347d4a6a814610289576101c4565b80630d88122c146101c957806311e87188146101e5578063147453e914610203575b600080fd5b6101e360048036038101906101de9190613d16565b6105df565b005b6101ed6106df565b6040516101fa919061427c565b60405180910390f35b61021d60048036038101906102189190613d7b565b61072a565b60405161022a91906143cd565b60405180910390f35b61024d60048036038101906102489190613d16565b610995565b005b61026960048036038101906102649190613e09565b610ae9565b60405161027691906143cd565b60405180910390f35b610287610b01565b005b6102a3600480360381019061029e9190613d16565b610c48565b005b6102ad6115f8565b6040516102ba9190614297565b60405180910390f35b6102dd60048036038101906102d89190613e09565b611674565b6040516102ea91906143cd565b60405180910390f35b61030d60048036038101906103089190613de0565b61168c565b60405161031a9190614297565b60405180910390f35b61033d60048036038101906103389190613e09565b61172a565b60405161034a91906143cd565b60405180910390f35b61036d60048036038101906103689190613d3f565b611742565b60405161037a9190614297565b60405180910390f35b61039d60048036038101906103989190613de0565b6118d5565b6040516103aa9190614297565b60405180910390f35b6103bb611973565b6040516103c891906143cd565b60405180910390f35b6103d961197f565b6040516103e6919061415d565b60405180910390f35b6103f76119a5565b60405161040491906143b2565b60405180910390f35b61042760048036038101906104229190613c88565b6119c7565b6040516104349190614297565b60405180910390f35b6104456119e7565b60405161045291906143b2565b60405180910390f35b61047560048036038101906104709190613cb1565b611a09565b60405161048291906143cd565b60405180910390f35b6104a560048036038101906104a09190613de0565b611c14565b6040516104b29190614297565b60405180910390f35b6104d560048036038101906104d09190613e09565b611cb2565b6040516104e29190614297565b60405180910390f35b61050560048036038101906105009190613cb1565b611d1e565b60405161051291906143cd565b60405180910390f35b610523611d43565b604051610530919061427c565b60405180910390f35b610541611d8e565b60405161054e91906143cd565b60405180910390f35b61055f611d94565b005b61057b60048036038101906105769190613e09565b612203565b60405161058891906143cd565b60405180910390f35b6105ab60048036038101906105a69190613d3f565b61221b565b6040516105b89190614297565b60405180910390f35b6105c96123b2565b6040516105d691906143b2565b60405180910390f35b6000610623826003806020026040519081016040528092919082600360200280828437600081840152601f19601f820116905080830192505050505050600061072a565b11610663576040517f08c379a000000000000000000000000000000000000000000000000000000000815260040161065a906142b2565b60405180910390fd5b6106a3816003806020026040519081016040528092919082600360200280828437600081840152601f19601f8201169050808301925050505050506123d4565b7fe7f2330a99451f199f91ed2ac09887e25894cb0e14021fe5d29bc959e7283d0e33826040516106d49291906141ca565b60405180910390a150565b6106e761391c565b6005600380602002604051908101604052809291908260038015610720576020028201915b81548152602001906001019080831161070c575b5050505050905090565b6000806000806000806107e4600c60009054906101000a900473ffffffffffffffffffffffffffffffffffffffff1673ffffffffffffffffffffffffffffffffffffffff166318160ddd6040518163ffffffff1660e01b815260040160206040518083038186803b15801561079e57600080fd5b505afa1580156107b2573d6000803e3d6000fd5b505050506040513d601f19601f820116820180604052508101906107d69190613e32565b670de0b6b3a7640000612770565b905060005b60036fffffffffffffffffffffffffffffffff168160ff1610156109215760098160ff166003811061081757fe5b0160009054906101000a900473ffffffffffffffffffffffffffffffffffffffff1673ffffffffffffffffffffffffffffffffffffffff1663313ce5676040518163ffffffff1660e01b815260040160206040518083038186803b15801561087e57600080fd5b505afa158015610892573d6000803e3d6000fd5b505050506040513d601f19601f820116820180604052508101906108b69190613e5b565b60ff1693506108ec601b8260ff16600381106108ce57fe5b015460058360ff16600381106108e057fe5b01540185600a0a612770565b85019450610910898260ff166003811061090257fe5b602002015185600a0a612770565b8301925080806001019150506107e9565b5061093561092f8386612770565b82612890565b945060011515871515141561098757612710600460009054906101000a90046fffffffffffffffffffffffffffffffff166fffffffffffffffffffffffffffffffff1686028161098157fe5b04850194505b849550505050505092915050565b60005b60036fffffffffffffffffffffffffffffffff168160ff161015610ae5576000828260ff16600381106109c757fe5b602002013514610ad85760098160ff16600381106109e157fe5b0160009054906101000a900473ffffffffffffffffffffffffffffffffffffffff1673ffffffffffffffffffffffffffffffffffffffff166323b872dd3330858560ff1660038110610a2f57fe5b60200201356040518463ffffffff1660e01b8152600401610a5293929190614193565b602060405180830381600087803b158015610a6c57600080fd5b505af1158015610a80573d6000803e3d6000fd5b505050506040513d601f19601f82011682018060405250810190610aa49190613db7565b50818160ff1660038110610ab457fe5b602002013560058260ff1660038110610ac957fe5b01600082825401925050819055505b8080600101915050610998565b5050565b600e8160038110610af657fe5b016000915090505481565b600860009054906101000a900473ffffffffffffffffffffffffffffffffffffffff1673ffffffffffffffffffffffffffffffffffffffff163373ffffffffffffffffffffffffffffffffffffffff1614610b5b57600080fd5b6000805b60036fffffffffffffffffffffffffffffffff168160ff161015610bb057600060188260ff1660038110610b8f57fe5b015414610ba3578180600101925050610bb0565b8080600101915050610b5f565b5060008160ff1611610bf7576040517f08c379a0000000000000000000000000000000000000000000000000000000008152600401610bee906142d2565b60405180910390fd5b610c3d6018600380602002604051908101604052809291908260038015610c33576020028201915b815481526020019060010190808311610c1f575b505050505061296c565b610c45612a5d565b50565b6000610c8c826003806020026040519081016040528092919082600360200280828437600081840152601f19601f820116905080830192505050505050600061072a565b11610ccc576040517f08c379a0000000000000000000000000000000000000000000000000000000008152600401610cc3906142b2565b60405180910390fd5b6000610d10826003806020026040519081016040528092919082600360200280828437600081840152601f19601f820116905080830192505050505050600161072a565b905080600c60009054906101000a900473ffffffffffffffffffffffffffffffffffffffff1673ffffffffffffffffffffffffffffffffffffffff166370a08231336040518263ffffffff1660e01b8152600401610d6e9190614178565b60206040518083038186803b158015610d8657600080fd5b505afa158015610d9a573d6000803e3d6000fd5b505050506040513d601f19601f82011682018060405250810190610dbe9190613e32565b1015610dff576040517f08c379a0000000000000000000000000000000000000000000000000000000008152600401610df690614392565b60405180910390fd5b610e0761391c565b610e0f612aaf565b9050600060019050600080600090505b60036fffffffffffffffffffffffffffffffff168160ff161015610e93576000868260ff1660038110610e4e57fe5b60200201351115610e8657858160ff1660038110610e6857fe5b6020020135610e7a338360ff16611a09565b1015610e8557600092505b5b8080600101915050610e1f565b5081610ed4576040517f08c379a0000000000000000000000000000000000000000000000000000000008152600401610ecb906142f2565b60405180910390fd5b60005b60036fffffffffffffffffffffffffffffffff168160ff161015610f5557838160ff1660038110610f0457fe5b6020020151868260ff1660038110610f1857fe5b6020020135108015610f3e57506000868260ff1660038110610f3657fe5b602002013514155b15610f4857600191505b8080600101915050610ed7565b50801561157757600c60009054906101000a900473ffffffffffffffffffffffffffffffffffffffff1673ffffffffffffffffffffffffffffffffffffffff16639dc29fac33866040518363ffffffff1660e01b8152600401610fb99291906141f3565b600060405180830381600087803b158015610fd357600080fd5b505af1158015610fe7573d6000803e3d6000fd5b50505050600080600090505b60036fffffffffffffffffffffffffffffffff168160ff161015611537576000878260ff166003811061102257fe5b6020020135111561152a5760098160ff166003811061103d57fe5b0160009054906101000a900473ffffffffffffffffffffffffffffffffffffffff1673ffffffffffffffffffffffffffffffffffffffff1663a9059cbb33898460ff166003811061108a57fe5b60200201356040518363ffffffff1660e01b81526004016110ac9291906141f3565b602060405180830381600087803b1580156110c657600080fd5b505af11580156110da573d6000803e3d6000fd5b505050506040513d601f19601f820116820180604052508101906110fe9190613db7565b91508161110a57600080fd5b868160ff166003811061111957fe5b6020020135601360003373ffffffffffffffffffffffffffffffffffffffff1673ffffffffffffffffffffffffffffffffffffffff1681526020019081526020016000208260ff166003811061116b57fe5b0160008282540392505081905550868160ff166003811061118857fe5b602002013560058260ff166003811061119d57fe5b01600082825403925050819055506000878260ff16600381106111bc57fe5b6020020135905060005b601460003373ffffffffffffffffffffffffffffffffffffffff1673ffffffffffffffffffffffffffffffffffffffff168152602001908152602001600020805490508160ff1610156115275760011515601460003373ffffffffffffffffffffffffffffffffffffffff1673ffffffffffffffffffffffffffffffffffffffff1681526020019081526020016000208260ff168154811061126457fe5b90600052602060002090600802016007018460ff166003811061128357fe5b602091828204019190069054906101000a900460ff161515141580156112a95750600082115b1561151a57601460003373ffffffffffffffffffffffffffffffffffffffff1673ffffffffffffffffffffffffffffffffffffffff1681526020019081526020016000208160ff16815481106112fb57fe5b90600052602060002090600802016003018360ff166003811061131a57fe5b0154821061149957601460003373ffffffffffffffffffffffffffffffffffffffff1673ffffffffffffffffffffffffffffffffffffffff1681526020019081526020016000208160ff168154811061136f57fe5b90600052602060002090600802016003018360ff166003811061138e57fe5b0154820391506000601460003373ffffffffffffffffffffffffffffffffffffffff1673ffffffffffffffffffffffffffffffffffffffff1681526020019081526020016000208260ff16815481106113e357fe5b90600052602060002090600802016003018460ff166003811061140257fe5b01819055506001601460003373ffffffffffffffffffffffffffffffffffffffff1673ffffffffffffffffffffffffffffffffffffffff1681526020019081526020016000208260ff168154811061145657fe5b90600052602060002090600802016007018460ff166003811061147557fe5b602091828204019190066101000a81548160ff021916908315150217905550611519565b81601460003373ffffffffffffffffffffffffffffffffffffffff1673ffffffffffffffffffffffffffffffffffffffff1681526020019081526020016000208260ff16815481106114e757fe5b90600052602060002090600802016003018460ff166003811061150657fe5b0160008282540392505081905550600091505b5b80806001019150506111c6565b50505b8080600101915050610ff3565b507fe9c01f7dea3ef08b44263b3cf5963eb42309e5fb5bec9305dbe12b82f37b519c33876040516115699291906141ca565b60405180910390a1506115f1565b6115b7856003806020026040519081016040528092919082600360200280828437600081840152601f19601f820116905080830192505050505050612bc7565b7fe2d5e24e56e4f05473adb8bb616473de3894beab8011d32382a638d1d2617c9333866040516115e89291906141ca565b60405180910390a15b5050505050565b6000600860009054906101000a900473ffffffffffffffffffffffffffffffffffffffff1673ffffffffffffffffffffffffffffffffffffffff163373ffffffffffffffffffffffffffffffffffffffff161461165457600080fd5b61165c612aaf565b600590600361166c92919061393e565b506001905090565b6005816003811061168157fe5b016000915090505481565b6000600860009054906101000a900473ffffffffffffffffffffffffffffffffffffffff1673ffffffffffffffffffffffffffffffffffffffff163373ffffffffffffffffffffffffffffffffffffffff16146116e857600080fd5b81600460006101000a8154816fffffffffffffffffffffffffffffffff02191690836fffffffffffffffffffffffffffffffff16021790555060019050919050565b601b816003811061173757fe5b016000915090505481565b600080600090505b60036fffffffffffffffffffffffffffffffff168160ff1610156118ca576000848260ff166003811061177957fe5b602002015111156118bd57838160ff166003811061179357fe5b6020020151601b8260ff16600381106117a857fe5b0160008282540392505081905550838160ff16600381106117c557fe5b602002015160058260ff16600381106117da57fe5b016000828254019250508190555060098160ff16600381106117f857fe5b0160009054906101000a900473ffffffffffffffffffffffffffffffffffffffff1673ffffffffffffffffffffffffffffffffffffffff166323b872dd8430878560ff166003811061184657fe5b60200201516040518463ffffffff1660e01b81526004016118699392919061421c565b602060405180830381600087803b15801561188357600080fd5b505af1158015611897573d6000803e3d6000fd5b505050506040513d601f19601f820116820180604052508101906118bb9190613db7565b505b808060010191505061174a565b506001905092915050565b6000600860009054906101000a900473ffffffffffffffffffffffffffffffffffffffff1673ffffffffffffffffffffffffffffffffffffffff163373ffffffffffffffffffffffffffffffffffffffff161461193157600080fd5b81601260006101000a8154816fffffffffffffffffffffffffffffffff02191690836fffffffffffffffffffffffffffffffff16021790555060019050919050565b670de0b6b3a764000081565b600860009054906101000a900473ffffffffffffffffffffffffffffffffffffffff1681565b600460109054906101000a90046fffffffffffffffffffffffffffffffff1681565b60166020528060005260406000206000915054906101000a900460ff1681565b600460009054906101000a90046fffffffffffffffffffffffffffffffff1681565b6000806000905060005b601460008673ffffffffffffffffffffffffffffffffffffffff1673ffffffffffffffffffffffffffffffffffffffff168152602001908152602001600020805490508160ff161015611c0957601260009054906101000a90046fffffffffffffffffffffffffffffffff1662015180026fffffffffffffffffffffffffffffffff16601460008773ffffffffffffffffffffffffffffffffffffffff1673ffffffffffffffffffffffffffffffffffffffff1681526020019081526020016000208260ff1681548110611ae357fe5b9060005260206000209060080201600601544203118015611b87575060011515601460008773ffffffffffffffffffffffffffffffffffffffff1673ffffffffffffffffffffffffffffffffffffffff1681526020019081526020016000208260ff1681548110611b5057fe5b90600052602060002090600802016007018560038110611b6c57fe5b602091828204019190069054906101000a900460ff16151514155b15611bfc57601460008673ffffffffffffffffffffffffffffffffffffffff1673ffffffffffffffffffffffffffffffffffffffff1681526020019081526020016000208160ff1681548110611bd957fe5b90600052602060002090600802016003018460038110611bf557fe5b0154820191505b8080600101915050611a13565b508091505092915050565b6000600860009054906101000a900473ffffffffffffffffffffffffffffffffffffffff1673ffffffffffffffffffffffffffffffffffffffff163373ffffffffffffffffffffffffffffffffffffffff1614611c7057600080fd5b81600460106101000a8154816fffffffffffffffffffffffffffffffff02191690836fffffffffffffffffffffffffffffffff16021790555060019050919050565b6000600860009054906101000a900473ffffffffffffffffffffffffffffffffffffffff1673ffffffffffffffffffffffffffffffffffffffff163373ffffffffffffffffffffffffffffffffffffffff1614611d0e57600080fd5b8160118190555060019050919050565b60136020528160005260406000208160038110611d3757fe5b01600091509150505481565b611d4b61391c565b601b600380602002604051908101604052809291908260038015611d84576020028201915b815481526020019060010190808311611d70575b5050505050905090565b60115481565b600860009054906101000a900473ffffffffffffffffffffffffffffffffffffffff1673ffffffffffffffffffffffffffffffffffffffff163373ffffffffffffffffffffffffffffffffffffffff1614611dee57600080fd5b611df661391c565b611dfe612aaf565b90506000611e0a61397e565b600d60009054906101000a900473ffffffffffffffffffffffffffffffffffffffff1673ffffffffffffffffffffffffffffffffffffffff166383249ef96040518163ffffffff1660e01b8152600401606060405180830381600087803b158015611e7457600080fd5b505af1158015611e88573d6000803e3d6000fd5b505050506040513d601f19601f82011682018060405250810190611eac9190613ced565b905060005b60036fffffffffffffffffffffffffffffffff168160ff16101561218e5760098160ff1660038110611edf57fe5b0160009054906101000a900473ffffffffffffffffffffffffffffffffffffffff1673ffffffffffffffffffffffffffffffffffffffff1663313ce5676040518163ffffffff1660e01b815260040160206040518083038186803b158015611f4657600080fd5b505afa158015611f5a573d6000803e3d6000fd5b505050506040513d601f19601f82011682018060405250810190611f7e9190613e5b565b60ff16925082600a0a60115402848260ff1660038110611f9a57fe5b6020020151111561216657600e8160ff1660038110611fb557fe5b0154848260ff1660038110611fc657fe5b6020020181815101915081815250506064600460109054906101000a90046fffffffffffffffffffffffffffffffff166fffffffffffffffffffffffffffffffff16858360ff166003811061201757fe5b6020020151028161202457fe5b04848260ff166003811061203457fe5b602002018181525050600e8160ff166003811061204d57fe5b0154848260ff166003811061205e57fe5b602002015103848260ff166003811061207357fe5b60200201818152505060098160ff166003811061208c57fe5b0160009054906101000a900473ffffffffffffffffffffffffffffffffffffffff1673ffffffffffffffffffffffffffffffffffffffff1663a9059cbb838360ff16600381106120d857fe5b6020020151868460ff16600381106120ec57fe5b60200201516040518363ffffffff1660e01b815260040161210e929190614253565b602060405180830381600087803b15801561212857600080fd5b505af115801561213c573d6000803e3d6000fd5b505050506040513d601f19601f820116820180604052508101906121609190613db7565b50612181565b6000848260ff166003811061217757fe5b6020020181815250505b8080600101915050611eb1565b506000805b60036fffffffffffffffffffffffffffffffff168160ff1610156121e6576000858260ff16600381106121c257fe5b6020020151146121d95781806001019250506121e6565b8080600101915050612193565b5060008160ff1611156121fd576121fc84612d96565b5b50505050565b6018816003811061221057fe5b016000915090505481565b60006122268361296c565b60005b60036fffffffffffffffffffffffffffffffff168160ff1610156123a7576000848260ff166003811061225857fe5b6020020151111561239a57838160ff166003811061227257fe5b6020020151601b8260ff166003811061228757fe5b0160008282540192505081905550838160ff16600381106122a457fe5b602002015160058260ff16600381106122b957fe5b016000828254039250508190555060098160ff16600381106122d757fe5b0160009054906101000a900473ffffffffffffffffffffffffffffffffffffffff1673ffffffffffffffffffffffffffffffffffffffff1663a9059cbb84868460ff166003811061232457fe5b60200201516040518363ffffffff1660e01b8152600401612346929190614253565b602060405180830381600087803b15801561236057600080fd5b505af1158015612374573d6000803e3d6000fd5b505050506040513d601f19601f820116820180604052508101906123989190613db7565b505b8080600101915050612229565b506001905092915050565b601260009054906101000a90046fffffffffffffffffffffffffffffffff1681565b60006123e182600061072a565b9050600080600090505b60036fffffffffffffffffffffffffffffffff168160ff1610156125e9576000848260ff166003811061241a57fe5b602002015111156125dc5760098160ff166003811061243557fe5b0160009054906101000a900473ffffffffffffffffffffffffffffffffffffffff1673ffffffffffffffffffffffffffffffffffffffff166323b872dd3330878560ff166003811061248357fe5b60200201516040518463ffffffff1660e01b81526004016124a693929190614193565b602060405180830381600087803b1580156124c057600080fd5b505af11580156124d4573d6000803e3d6000fd5b505050506040513d601f19601f820116820180604052508101906124f89190613db7565b91508161253a576040517f08c379a000000000000000000000000000000000000000000000000000000000815260040161253190614332565b60405180910390fd5b838160ff166003811061254957fe5b602002015160058260ff166003811061255e57fe5b0160008282540192505081905550838160ff166003811061257b57fe5b6020020151601360003373ffffffffffffffffffffffffffffffffffffffff1673ffffffffffffffffffffffffffffffffffffffff1681526020019081526020016000208260ff16600381106125cd57fe5b01600082825401925050819055505b80806001019150506123eb565b50600c60009054906101000a900473ffffffffffffffffffffffffffffffffffffffff1673ffffffffffffffffffffffffffffffffffffffff166340c10f1933846040518363ffffffff1660e01b81526004016126479291906141f3565b600060405180830381600087803b15801561266157600080fd5b505af1158015612675573d6000803e3d6000fd5b505050506126816139a0565b6126896139c2565b6040518060800160405280868152602001868152602001428152602001838152509050601460003373ffffffffffffffffffffffffffffffffffffffff1673ffffffffffffffffffffffffffffffffffffffff16815260200190815260200160002081908060018154018082558091505060019003906000526020600020906008020160009091909190915060008201518160000190600361272c92919061393e565b5060208201518160030190600361274492919061393e565b50604082015181600601556060820151816007019060036127669291906139fc565b5050505050505050565b6000808214156127b5576040517f08c379a00000000000000000000000000000000000000000000000000000000081526004016127ac90614372565b60405180910390fd5b6000670de0b6b3a76400008402905060008414806127e35750670de0b6b3a76400008482816127e057fe5b04145b612822576040517f08c379a000000000000000000000000000000000000000000000000000000000815260040161281990614312565b60405180910390fd5b60006002848161282e57fe5b048201905081811015612876576040517f08c379a000000000000000000000000000000000000000000000000000000000815260040161286d90614312565b60405180910390fd5b600084828161288157fe5b04905080935050505092915050565b600080828402905060008414806128af5750828482816128ac57fe5b04145b6128ee576040517f08c379a00000000000000000000000000000000000000000000000000000000081526004016128e590614352565b60405180910390fd5b60006002670de0b6b3a76400008161290257fe5b04820190508181101561294a576040517f08c379a000000000000000000000000000000000000000000000000000000000815260040161294190614352565b60405180910390fd5b6000670de0b6b3a7640000828161295d57fe5b04905080935050505092915050565b600d60009054906101000a900473ffffffffffffffffffffffffffffffffffffffff1673ffffffffffffffffffffffffffffffffffffffff1663b1b8f1be826040518263ffffffff1660e01b81526004016129c7919061427c565b600060405180830381600087803b1580156129e157600080fd5b505af11580156129f5573d6000803e3d6000fd5b5050505060005b60036fffffffffffffffffffffffffffffffff168160ff161015612a5957818160ff1660038110612a2957fe5b6020020151600e8260ff1660038110612a3e57fe5b016000828254039250508190555080806001019150506129fc565b5050565b6000601760009054906101000a900463ffffffff16905060005b8163ffffffff168160ff161015612aab576000612a92612e87565b9050612a9d81612f7e565b508080600101915050612a77565b5050565b612ab761391c565b612abf61391c565b60005b60036fffffffffffffffffffffffffffffffff168160ff161015612bbf5760098160ff1660038110612af057fe5b0160009054906101000a900473ffffffffffffffffffffffffffffffffffffffff1673ffffffffffffffffffffffffffffffffffffffff166370a08231306040518263ffffffff1660e01b8152600401612b4a919061415d565b60206040518083038186803b158015612b6257600080fd5b505afa158015612b76573d6000803e3d6000fd5b505050506040513d601f19601f82011682018060405250810190612b9a9190613e32565b828260ff1660038110612ba957fe5b6020020181815250508080600101915050612ac2565b508091505090565b60005b60036fffffffffffffffffffffffffffffffff16811015612ca1576000828260038110612bf357fe5b60200201511115612c9457818160038110612c0a57fe5b6020020151601560003373ffffffffffffffffffffffffffffffffffffffff1673ffffffffffffffffffffffffffffffffffffffff1681526020019081526020016000208260038110612c5957fe5b0160008282540192505081905550818160038110612c7357fe5b602002015160188260038110612c8557fe5b01600082825401925050819055505b8080600101915050612bca565b5060011515601660003373ffffffffffffffffffffffffffffffffffffffff1673ffffffffffffffffffffffffffffffffffffffff16815260200190815260200160002060009054906101000a900460ff16151514612d93576001601760008282829054906101000a900463ffffffff160192506101000a81548163ffffffff021916908363ffffffff1602179055506001601660003373ffffffffffffffffffffffffffffffffffffffff1673ffffffffffffffffffffffffffffffffffffffff16815260200190815260200160002060006101000a81548160ff021916908315150217905550612d92336138b5565b5b50565b600d60009054906101000a900473ffffffffffffffffffffffffffffffffffffffff1673ffffffffffffffffffffffffffffffffffffffff1663d4e20b01826040518263ffffffff1660e01b8152600401612df1919061427c565b600060405180830381600087803b158015612e0b57600080fd5b505af1158015612e1f573d6000803e3d6000fd5b5050505060005b60036fffffffffffffffffffffffffffffffff168160ff161015612e8357818160ff1660038110612e5357fe5b6020020151600e8260ff1660038110612e6857fe5b01600082825401925050819055508080600101915050612e26565b5050565b60006001546002541015612e9a57600080fd5b600080600154815260200190815260200160002060009054906101000a900473ffffffffffffffffffffffffffffffffffffffff16600360006101000a81548173ffffffffffffffffffffffffffffffffffffffff021916908373ffffffffffffffffffffffffffffffffffffffff160217905550600080600154815260200190815260200160002060006101000a81549073ffffffffffffffffffffffffffffffffffffffff021916905560018060008282540192505081905550600360009054906101000a900473ffffffffffffffffffffffffffffffffffffffff16905090565b600080613006601560008573ffffffffffffffffffffffffffffffffffffffff1673ffffffffffffffffffffffffffffffffffffffff168152602001908152602001600020600380602002604051908101604052809291908260038015612ffa576020028201915b815481526020019060010190808311612fe6575b5050505050600161072a565b9050600c60009054906101000a900473ffffffffffffffffffffffffffffffffffffffff1673ffffffffffffffffffffffffffffffffffffffff16639dc29fac84836040518363ffffffff1660e01b8152600401613065929190614253565b600060405180830381600087803b15801561307f57600080fd5b505af1158015613093573d6000803e3d6000fd5b5050505060005b60036fffffffffffffffffffffffffffffffff168160ff1610156138af576000601560008673ffffffffffffffffffffffffffffffffffffffff1673ffffffffffffffffffffffffffffffffffffffff1681526020019081526020016000208260ff166003811061310757fe5b015411801561316457506000601360008673ffffffffffffffffffffffffffffffffffffffff1673ffffffffffffffffffffffffffffffffffffffff1681526020019081526020016000208260ff166003811061316057fe5b0154115b156138a25760098160ff166003811061317957fe5b0160009054906101000a900473ffffffffffffffffffffffffffffffffffffffff1673ffffffffffffffffffffffffffffffffffffffff1663a9059cbb85601560008873ffffffffffffffffffffffffffffffffffffffff1673ffffffffffffffffffffffffffffffffffffffff1681526020019081526020016000208460ff166003811061320457fe5b01546040518363ffffffff1660e01b8152600401613223929190614253565b602060405180830381600087803b15801561323d57600080fd5b505af1158015613251573d6000803e3d6000fd5b505050506040513d601f19601f820116820180604052508101906132759190613db7565b92508261328157600080fd5b601560008573ffffffffffffffffffffffffffffffffffffffff1673ffffffffffffffffffffffffffffffffffffffff1681526020019081526020016000208160ff16600381106132ce57fe5b0154601360008673ffffffffffffffffffffffffffffffffffffffff1673ffffffffffffffffffffffffffffffffffffffff1681526020019081526020016000208260ff166003811061331d57fe5b0160008282540392505081905550601560008573ffffffffffffffffffffffffffffffffffffffff1673ffffffffffffffffffffffffffffffffffffffff1681526020019081526020016000208160ff166003811061337857fe5b015460188260ff166003811061338a57fe5b0160008282540392505081905550601560008573ffffffffffffffffffffffffffffffffffffffff1673ffffffffffffffffffffffffffffffffffffffff1681526020019081526020016000208160ff16600381106133e557fe5b015460058260ff16600381106133f757fe5b01600082825403925050819055506000601560008673ffffffffffffffffffffffffffffffffffffffff1673ffffffffffffffffffffffffffffffffffffffff1681526020019081526020016000208260ff166003811061345457fe5b0154905060005b601460008773ffffffffffffffffffffffffffffffffffffffff1673ffffffffffffffffffffffffffffffffffffffff168152602001908152602001600020805490508160ff1610156137bc5760011515601460008873ffffffffffffffffffffffffffffffffffffffff1673ffffffffffffffffffffffffffffffffffffffff1681526020019081526020016000208260ff16815481106134f957fe5b90600052602060002090600802016007018460ff166003811061351857fe5b602091828204019190069054906101000a900460ff1615151415801561353e5750600082115b156137af57601460008773ffffffffffffffffffffffffffffffffffffffff1673ffffffffffffffffffffffffffffffffffffffff1681526020019081526020016000208160ff168154811061359057fe5b90600052602060002090600802016003018360ff16600381106135af57fe5b0154821061372e57601460008773ffffffffffffffffffffffffffffffffffffffff1673ffffffffffffffffffffffffffffffffffffffff1681526020019081526020016000208160ff168154811061360457fe5b90600052602060002090600802016003018360ff166003811061362357fe5b0154820391506000601460008873ffffffffffffffffffffffffffffffffffffffff1673ffffffffffffffffffffffffffffffffffffffff1681526020019081526020016000208260ff168154811061367857fe5b90600052602060002090600802016003018460ff166003811061369757fe5b01819055506001601460008873ffffffffffffffffffffffffffffffffffffffff1673ffffffffffffffffffffffffffffffffffffffff1681526020019081526020016000208260ff16815481106136eb57fe5b90600052602060002090600802016007018460ff166003811061370a57fe5b602091828204019190066101000a81548160ff0219169083151502179055506137ae565b81601460008873ffffffffffffffffffffffffffffffffffffffff1673ffffffffffffffffffffffffffffffffffffffff1681526020019081526020016000208260ff168154811061377c57fe5b90600052602060002090600802016003018460ff166003811061379b57fe5b0160008282540392505081905550600091505b5b808060010191505061345b565b506000601560008773ffffffffffffffffffffffffffffffffffffffff1673ffffffffffffffffffffffffffffffffffffffff1681526020019081526020016000208360ff166003811061380c57fe5b01819055506000601660008773ffffffffffffffffffffffffffffffffffffffff1673ffffffffffffffffffffffffffffffffffffffff16815260200190815260200160002060006101000a81548160ff0219169083151502179055506001601760008282829054906101000a900463ffffffff160392506101000a81548163ffffffff021916908363ffffffff160217905550505b808060010191505061309a565b50505050565b600160026000828254019250508190555080600080600254815260200190815260200160002060006101000a81548173ffffffffffffffffffffffffffffffffffffffff021916908373ffffffffffffffffffffffffffffffffffffffff16021790555050565b6040518060600160405280600390602082028036833780820191505090505090565b826003810192821561396d579160200282015b8281111561396c578251825591602001919060010190613951565b5b50905061397a9190613a95565b5090565b6040518060600160405280600390602082028036833780820191505090505090565b6040518060600160405280600390602082028036833780820191505090505090565b60405180608001604052806139d561391c565b81526020016139e261391c565b8152602001600081526020016139f66139a0565b81525090565b826003601f01602090048101928215613a845791602002820160005b83821115613a5557835183826101000a81548160ff0219169083151502179055509260200192600101602081600001049283019260010302613a18565b8015613a825782816101000a81549060ff0219169055600101602081600001049283019260010302613a55565b505b509050613a919190613ab2565b5090565b5b80821115613aae576000816000905550600101613a96565b5090565b5b80821115613ad657600081816101000a81549060ff021916905550600101613ab3565b5090565b600081359050613ae98161455f565b92915050565b600082601f830112613b0057600080fd5b6003613b13613b0e82614415565b6143e8565b91508183856020840282011115613b2957600080fd5b60005b83811015613b595781613b3f8882613c1f565b845260208401935060208301925050600181019050613b2c565b5050505092915050565b600081905082602060030282011115613b7b57600080fd5b92915050565b600082601f830112613b9257600080fd5b6003613ba5613ba082614437565b6143e8565b91508183856020840282011115613bbb57600080fd5b60005b83811015613beb5781613bd18882613c49565b845260208401935060208301925050600181019050613bbe565b5050505092915050565b600081359050613c0481614576565b92915050565b600081519050613c1981614576565b92915050565b600081519050613c2e8161458d565b92915050565b600081359050613c43816145a4565b92915050565b600081359050613c58816145bb565b92915050565b600081519050613c6d816145bb565b92915050565b600081519050613c82816145d2565b92915050565b600060208284031215613c9a57600080fd5b6000613ca884828501613ada565b91505092915050565b60008060408385031215613cc457600080fd5b6000613cd285828601613ada565b9250506020613ce385828601613c49565b9150509250929050565b600060608284031215613cff57600080fd5b6000613d0d84828501613aef565b91505092915050565b600060608284031215613d2857600080fd5b6000613d3684828501613b63565b91505092915050565b60008060808385031215613d5257600080fd5b6000613d6085828601613b81565b9250506060613d7185828601613ada565b9150509250929050565b60008060808385031215613d8e57600080fd5b6000613d9c85828601613b81565b9250506060613dad85828601613bf5565b9150509250929050565b600060208284031215613dc957600080fd5b6000613dd784828501613c0a565b91505092915050565b600060208284031215613df257600080fd5b6000613e0084828501613c34565b91505092915050565b600060208284031215613e1b57600080fd5b6000613e2984828501613c49565b91505092915050565b600060208284031215613e4457600080fd5b6000613e5284828501613c5e565b91505092915050565b600060208284031215613e6d57600080fd5b6000613e7b84828501613c73565b91505092915050565b6000613e90838361413f565b60208301905092915050565b613ea58161451a565b82525050565b613eb481614497565b82525050565b613ec660608383614550565b5050565b613ed381614463565b613edd818461447b565b9250613ee882614459565b8060005b83811015613f19578151613f008782613e84565b9650613f0b8361446e565b925050600181019050613eec565b505050505050565b613f2a816144a9565b82525050565b6000613f3d601283614486565b91507f7a65726f20746f6b656e7320737570706c7900000000000000000000000000006000830152602082019050919050565b6000613f7d601483614486565b91507f776974686472617720717565756520656d7074790000000000000000000000006000830152602082019050919050565b6000613fbd600b83614486565b91507f6c6f636b20706572696f640000000000000000000000000000000000000000006000830152602082019050919050565b6000613ffd601083614486565b91507f4552525f4449565f494e5445524e414c000000000000000000000000000000006000830152602082019050919050565b600061403d601783614486565b91507f5472616e73666572206e6f74207375636365737366756c0000000000000000006000830152602082019050919050565b600061407d601083614486565b91507f4552525f4d554c5f4f564552464c4f57000000000000000000000000000000006000830152602082019050919050565b60006140bd600c83614486565b91507f4552525f4449565f5a45524f00000000000000000000000000000000000000006000830152602082019050919050565b60006140fd600783614486565b91507f6c6f7720525054000000000000000000000000000000000000000000000000006000830152602082019050919050565b614139816144c7565b82525050565b61414881614503565b82525050565b61415781614503565b82525050565b60006020820190506141726000830184613eab565b92915050565b600060208201905061418d6000830184613e9c565b92915050565b60006060820190506141a86000830186613e9c565b6141b56020830185613eab565b6141c2604083018461414e565b949350505050565b60006080820190506141df6000830185613e9c565b6141ec6020830184613eba565b9392505050565b60006040820190506142086000830185613e9c565b614215602083018461414e565b9392505050565b60006060820190506142316000830186613eab565b61423e6020830185613eab565b61424b604083018461414e565b949350505050565b60006040820190506142686000830185613eab565b614275602083018461414e565b9392505050565b60006060820190506142916000830184613eca565b92915050565b60006020820190506142ac6000830184613f21565b92915050565b600060208201905081810360008301526142cb81613f30565b9050919050565b600060208201905081810360008301526142eb81613f70565b9050919050565b6000602082019050818103600083015261430b81613fb0565b9050919050565b6000602082019050818103600083015261432b81613ff0565b9050919050565b6000602082019050818103600083015261434b81614030565b9050919050565b6000602082019050818103600083015261436b81614070565b9050919050565b6000602082019050818103600083015261438b816140b0565b9050919050565b600060208201905081810360008301526143ab816140f0565b9050919050565b60006020820190506143c76000830184614130565b92915050565b60006020820190506143e2600083018461414e565b92915050565b6000604051905081810181811067ffffffffffffffff8211171561440b57600080fd5b8060405250919050565b600067ffffffffffffffff82111561442c57600080fd5b602082029050919050565b600067ffffffffffffffff82111561444e57600080fd5b602082029050919050565b6000819050919050565b600060039050919050565b6000602082019050919050565b600081905092915050565b600082825260208201905092915050565b60006144a2826144e3565b9050919050565b60008115159050919050565b60006144c082614497565b9050919050565b60006fffffffffffffffffffffffffffffffff82169050919050565b600073ffffffffffffffffffffffffffffffffffffffff82169050919050565b6000819050919050565b600060ff82169050919050565b60006145258261452c565b9050919050565b60006145378261453e565b9050919050565b6000614549826144e3565b9050919050565b82818337600083830152505050565b61456881614497565b811461457357600080fd5b50565b61457f816144a9565b811461458a57600080fd5b50565b614596816144b5565b81146145a157600080fd5b50565b6145ad816144c7565b81146145b857600080fd5b50565b6145c481614503565b81146145cf57600080fd5b50565b6145db8161450d565b81146145e657600080fd5b5056fea264697066735822122096fa58dd4f04a70ea6835590dbe080db5846e72168be168797f4535f873695e064736f6c634300060c0033",
  "immutableReferences": {},
  "source": "// SPDX-License-Identifier: UNLICENSED\r\npragma solidity ^0.6.0;\r\npragma experimental ABIEncoderV2;\r\n\r\nimport './MathLib.sol';\r\nimport './RoyaleLPstorage.sol';\r\n\r\n\r\n\r\ncontract RoyaleLP is RoyaleLPstorage, rNum {\r\n\r\n    modifier onlyOwner {\r\n        require(msg.sender == owner);\r\n        _;\r\n    }\r\n\r\n    constructor(\r\n        address[N_COINS] memory _tokens,\r\n        address _rpToken,\r\n        address _controller\r\n    ) public {\r\n        // Set owner\r\n        owner = msg.sender;\r\n        controller=Controller(_controller);\r\n        for(uint8 i=0; i<N_COINS; i++) {\r\n            tokens[i] = Erc20(_tokens[i]);\r\n        }\r\n\r\n        // Set RPT\r\n        rpToken = Erc20(_rpToken);\r\n    }\r\n    \r\n    /* EVENTS */\r\n    event userSupplied(\r\n        address user,\r\n        uint[N_COINS] amounts\r\n    );\r\n\r\n    event userRecieved(\r\n        address user,\r\n        uint[N_COINS] amounts\r\n    );\r\n\r\n    event userAddedToQ(\r\n        address user,\r\n        uint[N_COINS] amounts\r\n    );\r\n\r\n    /* INTERNAL FUNCTIONS */\r\n\r\n    function _getBalances() internal view returns(uint256[N_COINS] memory) {\r\n        uint256[N_COINS] memory balances;\r\n\r\n        for(uint8 i=0; i<N_COINS; i++) {\r\n            balances[i] = tokens[i].balanceOf(address(this));\r\n        }\r\n\r\n        return balances;\r\n    }\r\n\r\n    function calcRptAmount(uint256[N_COINS] memory amounts, bool burn) public view returns(uint256) {\r\n        uint256 rptAmt;\r\n        uint256 total = 0;\r\n        uint256 decimal = 0;\r\n        uint256 totalSuppliedTokens;\r\n        uint256 totalRPTSupply;\r\n\r\n        totalRPTSupply = bdiv(rpToken.totalSupply(), 10**18);\r\n        \r\n        for(uint8 i=0; i<N_COINS; i++) {\r\n            decimal = tokens[i].decimals();\r\n            total += bdiv(selfBalance[i]+loanGiven[i], 10**decimal);\r\n            totalSuppliedTokens += bdiv(amounts[i], 10**decimal);\r\n        }\r\n\r\n        rptAmt = bmul(bdiv(totalSuppliedTokens, total), totalRPTSupply);\r\n\r\n        if(burn == true) {\r\n            rptAmt = rptAmt + (rptAmt * fees) / 10000;\r\n        }\r\n\r\n        return rptAmt;\r\n    }\r\n\r\n    // functions related to deposit and supply\r\n\r\n    // This function deposits the fund to Yield Optimizer\r\n    function _deposit(uint256[N_COINS] memory amounts) internal {\r\n        controller.deposit(amounts);\r\n        \r\n        for(uint8 i=0; i<N_COINS; i++) {\r\n            YieldPoolBalance[i] += amounts[i];\r\n        }\r\n    }\r\n\r\n    function _supply(uint256[N_COINS] memory amounts) internal {\r\n        uint256 mintTokens;        \r\n        mintTokens = calcRptAmount(amounts, false);    \r\n        \r\n        bool result;\r\n        for(uint8 i=0; i<N_COINS; i++) {\r\n            if(amounts[i] > 0) {\r\n                result = tokens[i].transferFrom(\r\n                    msg.sender, \r\n                    address(this), \r\n                    amounts[i]\r\n                );\r\n                require(result,\"Transfer not successful\");\r\n                selfBalance[i] += amounts[i];\r\n                amountSupplied[msg.sender][i] += amounts[i];\r\n            }\r\n        }\r\n    \r\n        // rpToken.mint(msg.sender, mintTokens * 10**10);\r\n        rpToken.mint(msg.sender, mintTokens);\r\n\r\n        bool[N_COINS] memory falseArray;\r\n        depositDetails memory d = depositDetails(amounts, amounts, now, falseArray);\r\n        supplyTime[msg.sender].push(d);\r\n    }\r\n\r\n    // functions related to withdraw, withdraw queue and withdraw from Yield Optimizer\r\n\r\n    function _takeBack(address recipient) internal {\r\n        bool result;\r\n\r\n        uint256 burnAmt;\r\n\r\n        burnAmt = calcRptAmount(amountWithdraw[recipient], true);\r\n        rpToken.burn(recipient, burnAmt);\r\n\r\n        for(uint8 i=0; i<N_COINS; i++) {\r\n            if(\r\n                amountWithdraw[recipient][i] > 0 \r\n                && \r\n                amountSupplied[recipient][i] > 0\r\n            ) {\r\n                result = tokens[i].transfer(\r\n                    recipient,  \r\n                    amountWithdraw[recipient][i]\r\n                );\r\n                require(result);\r\n\r\n                amountSupplied[recipient][i] -= amountWithdraw[recipient][i];\r\n                totalWithdraw[i] -= amountWithdraw[recipient][i];\r\n                selfBalance[i] -= amountWithdraw[recipient][i];\r\n\r\n                uint x = amountWithdraw[recipient][i];\r\n                for(uint8 j=0; j<supplyTime[recipient].length; j++) {\r\n                    if(supplyTime[recipient][j].withdrawn[i] != true && x > 0) {\r\n                        if(x >= supplyTime[recipient][j].remAmt[i]) {\r\n                            x = x - supplyTime[recipient][j].remAmt[i];\r\n                            supplyTime[recipient][j].remAmt[i] = 0;\r\n                            supplyTime[recipient][j].withdrawn[i] = true;\r\n                        }\r\n                        else {\r\n                            supplyTime[recipient][j].remAmt[i] -= x;\r\n                            x = 0;\r\n                        }\r\n                    }\r\n                }\r\n\r\n                amountWithdraw[recipient][i] = 0;\r\n\r\n                isInQ[recipient] = false;\r\n                recipientCount -= 1;\r\n            }\r\n        }\r\n    }\r\n\r\n    // this will fulfill withdraw requests from the queue\r\n    function _giveBack() internal {\r\n        \r\n        uint32 counter = recipientCount;\r\n        for(uint8 i=0; i<counter; i++) {\r\n            address recipient = getFromQ();\r\n            _takeBack(recipient);\r\n        }\r\n\r\n    }\r\n\r\n    // this will add unfulfilled withdraw requests to the queue\r\n    function _takeBackQ(uint256[N_COINS] memory amounts) internal {\r\n        \r\n        for(uint256 i=0; i<N_COINS; i++) {\r\n            if(amounts[i] > 0) {\r\n                amountWithdraw[msg.sender][i] += amounts[i];\r\n                totalWithdraw[i] += amounts[i];\r\n            }\r\n        }\r\n\r\n        if(isInQ[msg.sender] != true) {\r\n            recipientCount += 1;\r\n            isInQ[msg.sender] = true;\r\n            addToQ(msg.sender);\r\n        }\r\n\r\n    }\r\n\r\n    // this will withdraw from Yield Optimizer into this contract\r\n    function _withdraw(uint256[N_COINS] memory amounts) internal {\r\n        controller.withdraw(amounts);\r\n\r\n        for(uint8 i=0; i<N_COINS; i++) {\r\n            YieldPoolBalance[i] -= amounts[i];\r\n        }\r\n    }\r\n\r\n    function availableWithdraw(address addr, uint coin) public view returns(uint256) {\r\n\r\n        uint256 amount=0;\r\n        for(uint8 j=0; j<supplyTime[addr].length; j++) {\r\n            if(\r\n                ((now - supplyTime[addr][j].time) \r\n                > \r\n                (24 * 60 * 60 * lock_period))\r\n                &&\r\n                supplyTime[addr][j].withdrawn[coin] != true\r\n            ) {\r\n                amount += supplyTime[addr][j].remAmt[coin];\r\n            }\r\n        }\r\n\r\n        return amount;\r\n    }\r\n\r\n    /* USER FUNCTIONS (exposed to frontend) */\r\n\r\n    function supply(uint256[N_COINS] calldata amounts) external {\r\n        require(\r\n            calcRptAmount(amounts, false) > 0,\r\n            \"zero tokens supply\"\r\n        );\r\n        \r\n        _supply(amounts);\r\n\r\n        emit userSupplied(msg.sender, amounts);\r\n    }\r\n\r\n    function requestWithdraw(uint256[N_COINS] calldata amounts) external {\r\n        require(\r\n            calcRptAmount(amounts, false) > 0,\r\n            \"zero tokens supply\"\r\n        );\r\n\r\n        uint256 burnAmt;\r\n        burnAmt = calcRptAmount(amounts, true);\r\n        require(\r\n            rpToken.balanceOf(msg.sender) >= burnAmt, \r\n            \"low RPT\"\r\n        );\r\n        \r\n        uint256[N_COINS] memory poolBalance;\r\n        poolBalance = _getBalances();\r\n        \r\n        bool checkTime = true;\r\n        bool instant;\r\n        \r\n        // check if user is withdrawing before lock period\r\n        for(uint8 i=0; i<N_COINS; i++) {\r\n            if(amounts[i] > 0) {\r\n                if(availableWithdraw(msg.sender, i) < amounts[i]) {\r\n                    checkTime = false;\r\n                }\r\n            }\r\n        }\r\n        require(checkTime, \"lock period\");\r\n\r\n        // check if instant withdraw\r\n        for(uint8 i=0; i<N_COINS; i++) {\r\n            if(amounts[i] < poolBalance[i] && amounts[i] != 0) {\r\n                instant = true;\r\n            }\r\n        }\r\n\r\n        if(instant) {\r\n            rpToken.burn(msg.sender, burnAmt);\r\n            bool result;\r\n            for(uint8 i=0; i<N_COINS; i++) {\r\n                if(amounts[i] > 0) {\r\n                    result = tokens[i].transfer(msg.sender, amounts[i]);\r\n                    require(result);\r\n                    amountSupplied[msg.sender][i] -= amounts[i];\r\n                    selfBalance[i] -= amounts[i];\r\n                    \r\n                    uint x = amounts[i];\r\n                    for(uint8 j=0; j<supplyTime[msg.sender].length; j++) {\r\n                        if(supplyTime[msg.sender][j].withdrawn[i] != true && x > 0) {\r\n                            if(x >= supplyTime[msg.sender][j].remAmt[i]) {\r\n                                x = x - supplyTime[msg.sender][j].remAmt[i];\r\n                                supplyTime[msg.sender][j].remAmt[i] = 0;\r\n                                supplyTime[msg.sender][j].withdrawn[i] = true;\r\n                            }\r\n                            else {\r\n                                supplyTime[msg.sender][j].remAmt[i] -= x;\r\n                                x = 0;\r\n                            }\r\n                        }\r\n                    }\r\n\r\n                }\r\n            }\r\n\r\n            emit userRecieved(msg.sender, amounts);\r\n        } else {\r\n            _takeBackQ(amounts);\r\n\r\n            emit userAddedToQ(msg.sender, amounts);\r\n        }\r\n    }\r\n    \r\n    // Following two functions are called by rLoan Only\r\n    function _loanWithdraw(uint256[N_COINS] memory amounts, address _loanSeeker) public returns(bool) {\r\n        _withdraw(amounts);\r\n\r\n        for(uint8 i=0; i<N_COINS; i++) {\r\n            if(amounts[i] > 0) {\r\n                loanGiven[i] += amounts[i];\r\n                selfBalance[i] -= amounts[i];\r\n                tokens[i].transfer(_loanSeeker, amounts[i]);\r\n            }\r\n        }\r\n        return true;\r\n    }\r\n\r\n    function _loanRepayment(uint256[N_COINS] memory amounts, address _loanSeeker) public returns(bool) {\r\n        for(uint8 i=0; i<N_COINS; i++) {\r\n            if(amounts[i] > 0) {\r\n                loanGiven[i] -= amounts[i];\r\n                selfBalance[i] += amounts[i];\r\n                tokens[i].transferFrom(_loanSeeker, address(this), amounts[i]);\r\n            }\r\n        }\r\n        return true;\r\n    }\r\n\r\n    function getCurrentPoolBalance() external view returns(uint256[3] memory) {\r\n        return selfBalance;\r\n    }\r\n\r\n    function getTotalLoanGiven() external view returns(uint256[3] memory) {\r\n        return loanGiven;\r\n    }\r\n\r\n    // this function deposits without minting \r\n    function depsoitInRoyale(uint256[N_COINS] calldata amounts) external {\r\n        for(uint8 i=0;i<N_COINS;i++){\r\n            if(amounts[i]!=0){\r\n             tokens[i].transferFrom(msg.sender,address(this),amounts[i]);\r\n             selfBalance[i]+=amounts[i];\r\n            }\r\n        }\r\n    }\r\n\r\n\r\n    /* CORE FUNCTIONS (also exposed to frontend but to be called by owner only) */\r\n\r\n    function deposit() onlyOwner external {\r\n        uint256[N_COINS] memory amounts = _getBalances();\r\n        uint256 decimal;\r\n\r\n        Strategy[3] memory s=controller.getCurrentStrategy(); \r\n\r\n        for(uint8 i=0; i<N_COINS; i++) {\r\n            decimal = tokens[i].decimals();\r\n            if(amounts[i] > thresholdTokenAmount*10**decimal) {\r\n                amounts[i] += YieldPoolBalance[i];\r\n                amounts[i] = (amounts[i] * poolPart) / 100;\r\n                amounts[i] = amounts[i] - YieldPoolBalance[i];\r\n                tokens[i].transfer(address(s[i]), amounts[i]);\r\n            }\r\n            else {\r\n                amounts[i] = 0;\r\n            }\r\n        }\r\n\r\n        uint8 counter = 0;\r\n        for(uint8 i=0; i<N_COINS; i++) {\r\n           if(amounts[i] != 0) {\r\n               counter++;\r\n               break;\r\n           }\r\n        }\r\n\r\n        if(counter > 0){\r\n            _deposit(amounts);\r\n        }\r\n    }\r\n\r\n    function withdraw() onlyOwner external {\r\n\r\n        uint8 counter = 0;\r\n        for(uint8 i=0; i<N_COINS; i++) {\r\n           if(totalWithdraw[i] != 0) {\r\n               counter++;\r\n               break;\r\n           }\r\n        }\r\n\r\n        require(counter > 0, \"withdraw queue empty\");\r\n\r\n        _withdraw(totalWithdraw);\r\n        _giveBack();\r\n    }\r\n\r\n    /* ADMIN FUNCTIONS */\r\n\r\n    function changePoolPart(uint128 _newPoolPart) external onlyOwner returns(bool) {\r\n        poolPart = _newPoolPart;\r\n        return true;\r\n    }\r\n\r\n    function setThresholdTokenAmount(uint256 _newThreshold) external onlyOwner returns(bool) {\r\n        thresholdTokenAmount = _newThreshold;\r\n        return true;\r\n    }\r\n\r\n    function setInitialDeposit() onlyOwner external returns(bool) {\r\n        selfBalance = _getBalances();\r\n        return true;\r\n    }\r\n\r\n\r\n    function setLockPeriod(uint128 lockperiod) onlyOwner external returns(bool) {\r\n        lock_period = lockperiod;\r\n        return true;\r\n    }\r\n\r\n    function setWithdrawFees(uint128 _fees) onlyOwner external returns(bool) {\r\n        fees = _fees;\r\n        return true;\r\n    }\r\n\r\n}",
  "sourcePath": "C:/Users/vishn/OneDrive/Desktop/TempRoyakle/rlp/contracts/RoyaleLP.sol",
  "compiler": {
    "name": "solc",
    "version": "0.6.12+commit.27d51765.Emscripten.clang"
  },
  "schemaVersion": "3.3.2",
  "updatedAt": "2020-12-17T06:05:04.517Z",
  "devdoc": {
    "kind": "dev",
    "methods": {},
    "version": 1
  },
  "userdoc": {
    "kind": "user",
    "methods": {},
    "version": 1
  }
}