{
  "contractName": "rUSDT3Pool",
  "abi": [
    {
      "inputs": [
        {
          "internalType": "address",
          "name": "_controller",
          "type": "address"
        },
        {
          "internalType": "address",
          "name": "_crvpool",
          "type": "address"
        },
        {
          "internalType": "address",
          "name": "_coin",
          "type": "address"
        },
        {
          "internalType": "address",
          "name": "_crvtoken",
          "type": "address"
        },
        {
          "internalType": "address",
          "name": "_royaLP",
          "type": "address"
        },
        {
          "internalType": "address",
          "name": "_gauge",
          "type": "address"
        }
      ],
      "stateMutability": "nonpayable",
      "type": "constructor"
    },
    {
      "inputs": [],
      "name": "Pool",
      "outputs": [
        {
          "internalType": "contract curvePool",
          "name": "",
          "type": "address"
        }
      ],
      "stateMutability": "view",
      "type": "function"
    },
    {
      "inputs": [],
      "name": "_perc",
      "outputs": [
        {
          "internalType": "uint8",
          "name": "",
          "type": "uint8"
        }
      ],
      "stateMutability": "view",
      "type": "function"
    },
    {
      "inputs": [],
      "name": "deposited3CRV",
      "outputs": [
        {
          "internalType": "uint256",
          "name": "",
          "type": "uint256"
        }
      ],
      "stateMutability": "view",
      "type": "function"
    },
    {
      "inputs": [],
      "name": "gauge",
      "outputs": [
        {
          "internalType": "contract PoolGauge",
          "name": "",
          "type": "address"
        }
      ],
      "stateMutability": "view",
      "type": "function"
    },
    {
      "inputs": [],
      "name": "owner",
      "outputs": [
        {
          "internalType": "address",
          "name": "",
          "type": "address"
        }
      ],
      "stateMutability": "view",
      "type": "function"
    },
    {
      "inputs": [
        {
          "internalType": "uint8",
          "name": "_percentage3CRV",
          "type": "uint8"
        }
      ],
      "name": "setPercentage",
      "outputs": [],
      "stateMutability": "nonpayable",
      "type": "function"
    },
    {
      "inputs": [
        {
          "internalType": "uint256",
          "name": "amount",
          "type": "uint256"
        }
      ],
      "name": "deposit",
      "outputs": [],
      "stateMutability": "nonpayable",
      "type": "function"
    },
    {
      "inputs": [
        {
          "internalType": "uint256",
          "name": "amount",
          "type": "uint256"
        }
      ],
      "name": "withdraw",
      "outputs": [],
      "stateMutability": "nonpayable",
      "type": "function"
    },
    {
      "inputs": [],
      "name": "withdrawAll",
      "outputs": [],
      "stateMutability": "nonpayable",
      "type": "function"
    },
    {
      "inputs": [],
      "name": "stakeLP",
      "outputs": [],
      "stateMutability": "nonpayable",
      "type": "function"
    },
    {
      "inputs": [],
      "name": "calculateProfit",
      "outputs": [
        {
          "internalType": "uint256",
          "name": "",
          "type": "uint256"
        }
      ],
      "stateMutability": "view",
      "type": "function"
    }
  ],
  "bytecode": "0x6080604052604b600860146101000a81548160ff021916908360ff16021790555034801561002c57600080fd5b50604051611b0e380380611b0e833981810160405260c081101561004f57600080fd5b8101908080519060200190929190805190602001909291908051906020019092919080519060200190929190805190602001909291908051906020019092919050505033600860006101000a81548173ffffffffffffffffffffffffffffffffffffffff021916908373ffffffffffffffffffffffffffffffffffffffff16021790555085600460006101000a81548173ffffffffffffffffffffffffffffffffffffffff021916908373ffffffffffffffffffffffffffffffffffffffff16021790555084600260006101000a81548173ffffffffffffffffffffffffffffffffffffffff021916908373ffffffffffffffffffffffffffffffffffffffff160217905550836000806101000a81548173ffffffffffffffffffffffffffffffffffffffff021916908373ffffffffffffffffffffffffffffffffffffffff16021790555082600160006101000a81548173ffffffffffffffffffffffffffffffffffffffff021916908373ffffffffffffffffffffffffffffffffffffffff16021790555081600560006101000a81548173ffffffffffffffffffffffffffffffffffffffff021916908373ffffffffffffffffffffffffffffffffffffffff16021790555080600360006101000a81548173ffffffffffffffffffffffffffffffffffffffff021916908373ffffffffffffffffffffffffffffffffffffffff1602179055505050505050506118a18061026d6000396000f3fe608060405234801561001057600080fd5b50600436106100a95760003560e01c806387db237c1161007157806387db237c146101555780638da5cb5b14610176578063a6f19c84146101aa578063b6b55f25146101de578063e236f16d1461020c578063f87bf3ca1461022a576100a9565b806307f3b8bb146100ae57806310ff582d146100e257806313e8ae10146100ec5780632e1a7d4d1461011d578063853828b61461014b575b600080fd5b6100b6610248565b604051808273ffffffffffffffffffffffffffffffffffffffff16815260200191505060405180910390f35b6100ea61026e565b005b61011b6004803603602081101561010257600080fd5b81019080803560ff1690602001909291905050506105f4565b005b6101496004803603602081101561013357600080fd5b810190808035906020019092919050505061072d565b005b610153610c60565b005b61015d6110aa565b604051808260ff16815260200191505060405180910390f35b61017e6110bd565b604051808273ffffffffffffffffffffffffffffffffffffffff16815260200191505060405180910390f35b6101b26110e3565b604051808273ffffffffffffffffffffffffffffffffffffffff16815260200191505060405180910390f35b61020a600480360360208110156101f457600080fd5b8101908080359060200190929190505050611109565b005b6102146115ba565b6040518082815260200191505060405180910390f35b6102326115c0565b6040518082815260200191505060405180910390f35b600260009054906101000a900473ffffffffffffffffffffffffffffffffffffffff1681565b600860009054906101000a900473ffffffffffffffffffffffffffffffffffffffff1673ffffffffffffffffffffffffffffffffffffffff163373ffffffffffffffffffffffffffffffffffffffff1614806103175750600460009054906101000a900473ffffffffffffffffffffffffffffffffffffffff1673ffffffffffffffffffffffffffffffffffffffff163373ffffffffffffffffffffffffffffffffffffffff16145b610389576040517f08c379a000000000000000000000000000000000000000000000000000000000815260040180806020018281038252600e8152602001807f6e6f7420617574686f72697a656400000000000000000000000000000000000081525060200191505060405180910390fd5b60006064600860149054906101000a900460ff1660ff16600954600160009054906101000a900473ffffffffffffffffffffffffffffffffffffffff1673ffffffffffffffffffffffffffffffffffffffff166370a08231306040518263ffffffff1660e01b8152600401808273ffffffffffffffffffffffffffffffffffffffff16815260200191505060206040518083038186803b15801561042c57600080fd5b505afa158015610440573d6000803e3d6000fd5b505050506040513d602081101561045657600080fd5b810190808051906020019092919050505001028161047057fe5b049050600160009054906101000a900473ffffffffffffffffffffffffffffffffffffffff1673ffffffffffffffffffffffffffffffffffffffff1663095ea7b3600360009054906101000a900473ffffffffffffffffffffffffffffffffffffffff16836040518363ffffffff1660e01b8152600401808373ffffffffffffffffffffffffffffffffffffffff16815260200182815260200192505050602060405180830381600087803b15801561052857600080fd5b505af115801561053c573d6000803e3d6000fd5b505050506040513d602081101561055257600080fd5b810190808051906020019092919050505050600360009054906101000a900473ffffffffffffffffffffffffffffffffffffffff1673ffffffffffffffffffffffffffffffffffffffff1663b6b55f25826040518263ffffffff1660e01b815260040180828152602001915050600060405180830381600087803b1580156105d957600080fd5b505af11580156105ed573d6000803e3d6000fd5b5050505050565b600860009054906101000a900473ffffffffffffffffffffffffffffffffffffffff1673ffffffffffffffffffffffffffffffffffffffff163373ffffffffffffffffffffffffffffffffffffffff16148061069d5750600460009054906101000a900473ffffffffffffffffffffffffffffffffffffffff1673ffffffffffffffffffffffffffffffffffffffff163373ffffffffffffffffffffffffffffffffffffffff16145b61070f576040517f08c379a000000000000000000000000000000000000000000000000000000000815260040180806020018281038252600e8152602001807f6e6f7420617574686f72697a656400000000000000000000000000000000000081525060200191505060405180910390fd5b80600860146101000a81548160ff021916908360ff16021790555050565b600860009054906101000a900473ffffffffffffffffffffffffffffffffffffffff1673ffffffffffffffffffffffffffffffffffffffff163373ffffffffffffffffffffffffffffffffffffffff1614806107d65750600460009054906101000a900473ffffffffffffffffffffffffffffffffffffffff1673ffffffffffffffffffffffffffffffffffffffff163373ffffffffffffffffffffffffffffffffffffffff16145b610848576040517f08c379a000000000000000000000000000000000000000000000000000000000815260040180806020018281038252600e8152602001807f6e6f7420617574686f72697a656400000000000000000000000000000000000081525060200191505060405180910390fd5b60008060008054906101000a900473ffffffffffffffffffffffffffffffffffffffff1673ffffffffffffffffffffffffffffffffffffffff1663313ce5676040518163ffffffff1660e01b815260040160206040518083038186803b1580156108b157600080fd5b505afa1580156108c5573d6000803e3d6000fd5b505050506040513d60208110156108db57600080fd5b810190808051906020019092919050505060ff16905080600a0a83816108fd57fe5b0491506064600283028161090d57fe5b0482019150600160009054906101000a900473ffffffffffffffffffffffffffffffffffffffff1673ffffffffffffffffffffffffffffffffffffffff1663313ce5676040518163ffffffff1660e01b815260040160206040518083038186803b15801561097a57600080fd5b505afa15801561098e573d6000803e3d6000fd5b505050506040513d60208110156109a457600080fd5b810190808051906020019092919050505060ff16905080600a0a82029150600260009054906101000a900473ffffffffffffffffffffffffffffffffffffffff1673ffffffffffffffffffffffffffffffffffffffff16639fdaea0c6040518060600160405280600081526020016000815260200186815250846040518363ffffffff1660e01b81526004018083600360200280838360005b83811015610a58578082015181840152602081019050610a3d565b5050505090500182815260200192505050600060405180830381600087803b158015610a8357600080fd5b505af1158015610a97573d6000803e3d6000fd5b5050505060008054906101000a900473ffffffffffffffffffffffffffffffffffffffff1673ffffffffffffffffffffffffffffffffffffffff1663a9059cbb600560009054906101000a900473ffffffffffffffffffffffffffffffffffffffff1660008054906101000a900473ffffffffffffffffffffffffffffffffffffffff1673ffffffffffffffffffffffffffffffffffffffff166370a08231306040518263ffffffff1660e01b8152600401808273ffffffffffffffffffffffffffffffffffffffff16815260200191505060206040518083038186803b158015610b8157600080fd5b505afa158015610b95573d6000803e3d6000fd5b505050506040513d6020811015610bab57600080fd5b81019080805190602001909291905050506040518363ffffffff1660e01b8152600401808373ffffffffffffffffffffffffffffffffffffffff16815260200182815260200192505050602060405180830381600087803b158015610c0f57600080fd5b505af1158015610c23573d6000803e3d6000fd5b505050506040513d6020811015610c3957600080fd5b81019080805190602001909291905050505082600660008282540392505081905550505050565b600860009054906101000a900473ffffffffffffffffffffffffffffffffffffffff1673ffffffffffffffffffffffffffffffffffffffff163373ffffffffffffffffffffffffffffffffffffffff161480610d095750600460009054906101000a900473ffffffffffffffffffffffffffffffffffffffff1673ffffffffffffffffffffffffffffffffffffffff163373ffffffffffffffffffffffffffffffffffffffff16145b610d7b576040517f08c379a000000000000000000000000000000000000000000000000000000000815260040180806020018281038252600e8152602001807f6e6f7420617574686f72697a656400000000000000000000000000000000000081525060200191505060405180910390fd5b6000600160009054906101000a900473ffffffffffffffffffffffffffffffffffffffff1673ffffffffffffffffffffffffffffffffffffffff166370a08231306040518263ffffffff1660e01b8152600401808273ffffffffffffffffffffffffffffffffffffffff16815260200191505060206040518083038186803b158015610e0657600080fd5b505afa158015610e1a573d6000803e3d6000fd5b505050506040513d6020811015610e3057600080fd5b810190808051906020019092919050505090506000600a60065481610e5157fe5b04600654039050600260009054906101000a900473ffffffffffffffffffffffffffffffffffffffff1673ffffffffffffffffffffffffffffffffffffffff16631a4d01d2836002846040518463ffffffff1660e01b8152600401808481526020018381526020018281526020019350505050600060405180830381600087803b158015610ede57600080fd5b505af1158015610ef2573d6000803e3d6000fd5b5050505060008054906101000a900473ffffffffffffffffffffffffffffffffffffffff1673ffffffffffffffffffffffffffffffffffffffff1663a9059cbb600460009054906101000a900473ffffffffffffffffffffffffffffffffffffffff1660008054906101000a900473ffffffffffffffffffffffffffffffffffffffff1673ffffffffffffffffffffffffffffffffffffffff166370a08231306040518263ffffffff1660e01b8152600401808273ffffffffffffffffffffffffffffffffffffffff16815260200191505060206040518083038186803b158015610fdc57600080fd5b505afa158015610ff0573d6000803e3d6000fd5b505050506040513d602081101561100657600080fd5b81019080805190602001909291905050506040518363ffffffff1660e01b8152600401808373ffffffffffffffffffffffffffffffffffffffff16815260200182815260200192505050602060405180830381600087803b15801561106a57600080fd5b505af115801561107e573d6000803e3d6000fd5b505050506040513d602081101561109457600080fd5b8101908080519060200190929190505050505050565b600860149054906101000a900460ff1681565b600860009054906101000a900473ffffffffffffffffffffffffffffffffffffffff1681565b600360009054906101000a900473ffffffffffffffffffffffffffffffffffffffff1681565b600860009054906101000a900473ffffffffffffffffffffffffffffffffffffffff1673ffffffffffffffffffffffffffffffffffffffff163373ffffffffffffffffffffffffffffffffffffffff1614806111b25750600460009054906101000a900473ffffffffffffffffffffffffffffffffffffffff1673ffffffffffffffffffffffffffffffffffffffff163373ffffffffffffffffffffffffffffffffffffffff16145b611224576040517f08c379a000000000000000000000000000000000000000000000000000000000815260040180806020018281038252600e8152602001807f6e6f7420617574686f72697a656400000000000000000000000000000000000081525060200191505060405180910390fd5b60008054906101000a900473ffffffffffffffffffffffffffffffffffffffff1673ffffffffffffffffffffffffffffffffffffffff1663095ea7b3600260009054906101000a900473ffffffffffffffffffffffffffffffffffffffff16836040518363ffffffff1660e01b8152600401808373ffffffffffffffffffffffffffffffffffffffff16815260200182815260200192505050602060405180830381600087803b1580156112d757600080fd5b505af11580156112eb573d6000803e3d6000fd5b505050506040513d602081101561130157600080fd5b8101908080519060200190929190505050506000600260009054906101000a900473ffffffffffffffffffffffffffffffffffffffff1673ffffffffffffffffffffffffffffffffffffffff16633883e119604051806060016040528060008152602001600081526020018581525060016040518363ffffffff1660e01b81526004018083600360200280838360005b838110156113ac578082015181840152602081019050611391565b5050505090500182151581526020019250505060206040518083038186803b1580156113d757600080fd5b505afa1580156113eb573d6000803e3d6000fd5b505050506040513d602081101561140157600080fd5b810190808051906020019092919050505090506064816063028161142157fe5b049050600260009054906101000a900473ffffffffffffffffffffffffffffffffffffffff1673ffffffffffffffffffffffffffffffffffffffff16634515cef36040518060600160405280600081526020016000815260200185815250836040518363ffffffff1660e01b81526004018083600360200280838360005b838110156114ba57808201518184015260208101905061149f565b5050505090500182815260200192505050600060405180830381600087803b1580156114e557600080fd5b505af11580156114f9573d6000803e3d6000fd5b50505050600260009054906101000a900473ffffffffffffffffffffffffffffffffffffffff1673ffffffffffffffffffffffffffffffffffffffff1663bb7b8b806040518163ffffffff1660e01b815260040160206040518083038186803b15801561156557600080fd5b505afa158015611579573d6000803e3d6000fd5b505050506040513d602081101561158f57600080fd5b8101908080519060200190929190505050600781905550816006600082825401925050819055505050565b60095481565b6000600860009054906101000a900473ffffffffffffffffffffffffffffffffffffffff1673ffffffffffffffffffffffffffffffffffffffff163373ffffffffffffffffffffffffffffffffffffffff16148061166b5750600460009054906101000a900473ffffffffffffffffffffffffffffffffffffffff1673ffffffffffffffffffffffffffffffffffffffff163373ffffffffffffffffffffffffffffffffffffffff16145b6116dd576040517f08c379a000000000000000000000000000000000000000000000000000000000815260040180806020018281038252600e8152602001807f6e6f7420617574686f72697a656400000000000000000000000000000000000081525060200191505060405180910390fd5b6000600260009054906101000a900473ffffffffffffffffffffffffffffffffffffffff1673ffffffffffffffffffffffffffffffffffffffff1663bb7b8b806040518163ffffffff1660e01b815260040160206040518083038186803b15801561174757600080fd5b505afa15801561175b573d6000803e3d6000fd5b505050506040513d602081101561177157600080fd5b810190808051906020019092919050505090506000670de0b6b3a76400006007548303600160009054906101000a900473ffffffffffffffffffffffffffffffffffffffff1673ffffffffffffffffffffffffffffffffffffffff166370a08231306040518263ffffffff1660e01b8152600401808273ffffffffffffffffffffffffffffffffffffffff16815260200191505060206040518083038186803b15801561181d57600080fd5b505afa158015611831573d6000803e3d6000fd5b505050506040513d602081101561184757600080fd5b8101908080519060200190929190505050028161186057fe5b04905080925050509056fea2646970667358221220ec60f7b289d999fd9afb3b1fee1588535015240d05a72f7dda2864903f3d1f7a64736f6c634300060c0033",
  "immutableReferences": {},
  "source": "// SPDX-License-Identifier: UNLICENSED\r\npragma solidity ^0.6.0;\r\n\r\nimport '../../Interfaces/CurveInterface.sol';\r\nimport '../../Interfaces/ERC20Interface.sol';\r\n\r\ncontract rUSDT3Pool {\r\n\r\n    Erc20 Coin;\r\n    Erc20 PoolToken;\r\n    curvePool public Pool;\r\n    PoolGauge public gauge;\r\n\r\n    address rControllerAddress;\r\n    address RoyaleLPaddr;\r\n\r\n    uint256 depositBal;\r\n\r\n    uint256 virtual_price;\r\n\r\n    address public owner;\r\n\r\n    uint8 public _perc=75;\r\n    uint256 public deposited3CRV;\r\n\r\n     modifier onlyAuthorized {\r\n        require(msg.sender == owner || msg.sender == rControllerAddress,\"not authorized\");\r\n        _;\r\n    }\r\n\r\n    constructor(\r\n        address _controller, \r\n        address _crvpool,\r\n        address _coin,\r\n        address _crvtoken,\r\n        address _royaLP,\r\n        address _gauge\r\n    ) public {\r\n        owner = msg.sender;\r\n        rControllerAddress = _controller;\r\n        Pool = curvePool(_crvpool);\r\n        Coin = Erc20(_coin);\r\n        PoolToken = Erc20(_crvtoken);\r\n        RoyaleLPaddr = _royaLP;\r\n        gauge = PoolGauge(_gauge);\r\n    }\r\n\r\n    function setPercentage(uint8 _percentage3CRV)external onlyAuthorized{\r\n        _perc=_percentage3CRV;\r\n    }\r\n\r\n\r\n    function deposit(uint amount) external onlyAuthorized {\r\n        Coin.approve(address(Pool), amount);\r\n        \r\n        uint mintAmount = Pool.calc_token_amount([0, 0, amount], true);\r\n        mintAmount = (99 * mintAmount) / 100;\r\n        Pool.add_liquidity([0, 0, amount], mintAmount);\r\n        virtual_price = Pool.get_virtual_price();\r\n        depositBal += amount;\r\n    }\r\n\r\n    function withdraw(uint amount) external onlyAuthorized{\r\n       \r\n\r\n        uint256 max_burn = 0;\r\n        uint256 decimal = 0;\r\n\r\n        decimal = Coin.decimals();\r\n        max_burn = amount / 10**decimal;\r\n\r\n        max_burn = max_burn + (max_burn * 2) / 100;\r\n        decimal = PoolToken.decimals();\r\n        max_burn = max_burn * 10**decimal;\r\n\r\n        Pool.remove_liquidity_imbalance([0, 0, amount], max_burn);\r\n        \r\n        Coin.transfer(RoyaleLPaddr, Coin.balanceOf(address(this)));\r\n        \r\n        depositBal -= amount;\r\n    }\r\n\r\n    function withdrawAll() external onlyAuthorized {\r\n        uint bal = PoolToken.balanceOf(address(this));\r\n\r\n        uint min_amount = depositBal - (depositBal / 10);\r\n        Pool.remove_liquidity_one_coin(bal, 2, min_amount);\r\n        Coin.transfer(rControllerAddress, Coin.balanceOf(address(this)));\r\n    }\r\n\r\n    function stakeLP() external onlyAuthorized {\r\n        uint depositAmt = ((PoolToken.balanceOf(address(this))+deposited3CRV) * _perc) / 100;\r\n        PoolToken.approve(address(gauge), depositAmt);\r\n        gauge.deposit(depositAmt);\r\n    }\r\n\r\n    function calculateProfit() external view onlyAuthorized returns(uint256) {\r\n         uint current_virtual_price = Pool.get_virtual_price();\r\n         uint profit = (PoolToken.balanceOf(address(this))*(current_virtual_price-virtual_price))/(10**18);\r\n         return profit;\r\n    }\r\n\r\n}",
  "sourcePath": "C:/Users/vishn/OneDrive/Desktop/TempRoyakle/rlp/contracts/rStrategies/rUSDT3Pool.sol",
  "compiler": {
    "name": "solc",
    "version": "0.6.12+commit.27d51765.Emscripten.clang"
  },
  "schemaVersion": "3.3.2",
  "updatedAt": "2020-12-22T10:05:55.786Z",
  "devdoc": {
    "kind": "dev",
    "methods": {},
    "version": 1
  },
  "userdoc": {
    "kind": "user",
    "methods": {},
    "version": 1
  }
}