{
  "contractName": "rUSDC3Pool",
  "abi": [
    {
      "inputs": [
        {
          "internalType": "address",
          "name": "_controller",
          "type": "address"
        },
        {
          "internalType": "address",
          "name": "_crvpool",
          "type": "address"
        },
        {
          "internalType": "address",
          "name": "_coin",
          "type": "address"
        },
        {
          "internalType": "address",
          "name": "_crvtoken",
          "type": "address"
        },
        {
          "internalType": "address",
          "name": "_royaLP",
          "type": "address"
        }
      ],
      "stateMutability": "nonpayable",
      "type": "constructor"
    },
    {
      "inputs": [],
      "name": "Pool",
      "outputs": [
        {
          "internalType": "contract curvePool",
          "name": "",
          "type": "address"
        }
      ],
      "stateMutability": "view",
      "type": "function"
    },
    {
      "inputs": [
        {
          "internalType": "uint256",
          "name": "amount",
          "type": "uint256"
        }
      ],
      "name": "deposit",
      "outputs": [],
      "stateMutability": "nonpayable",
      "type": "function"
    },
    {
      "inputs": [
        {
          "internalType": "uint256",
          "name": "amount",
          "type": "uint256"
        }
      ],
      "name": "withdraw",
      "outputs": [],
      "stateMutability": "nonpayable",
      "type": "function"
    },
    {
      "inputs": [],
      "name": "withdrawAll",
      "outputs": [],
      "stateMutability": "nonpayable",
      "type": "function"
    }
  ],
  "bytecode": "0x608060405234801561001057600080fd5b50604051610ec5380380610ec5833981810160405260a081101561003357600080fd5b81019080805190602001909291908051906020019092919080519060200190929190805190602001909291908051906020019092919050505084600360006101000a81548173ffffffffffffffffffffffffffffffffffffffff021916908373ffffffffffffffffffffffffffffffffffffffff16021790555080600460006101000a81548173ffffffffffffffffffffffffffffffffffffffff021916908373ffffffffffffffffffffffffffffffffffffffff16021790555083600260006101000a81548173ffffffffffffffffffffffffffffffffffffffff021916908373ffffffffffffffffffffffffffffffffffffffff160217905550826000806101000a81548173ffffffffffffffffffffffffffffffffffffffff021916908373ffffffffffffffffffffffffffffffffffffffff16021790555081600160006101000a81548173ffffffffffffffffffffffffffffffffffffffff021916908373ffffffffffffffffffffffffffffffffffffffff1602179055505050505050610d01806101c46000396000f3fe608060405234801561001057600080fd5b506004361061004c5760003560e01c806307f3b8bb146100515780632e1a7d4d14610085578063853828b6146100b3578063b6b55f25146100bd575b600080fd5b6100596100eb565b604051808273ffffffffffffffffffffffffffffffffffffffff16815260200191505060405180910390f35b6100b16004803603602081101561009b57600080fd5b8101908080359060200190929190505050610111565b005b6100bb6105ec565b005b6100e9600480360360208110156100d357600080fd5b810190808035906020019092919050505061091b565b005b600260009054906101000a900473ffffffffffffffffffffffffffffffffffffffff1681565b600360009054906101000a900473ffffffffffffffffffffffffffffffffffffffff1673ffffffffffffffffffffffffffffffffffffffff163373ffffffffffffffffffffffffffffffffffffffff16146101d4576040517f08c379a000000000000000000000000000000000000000000000000000000000815260040180806020018281038252600e8152602001807f6e6f7420617574686f72697a656400000000000000000000000000000000000081525060200191505060405180910390fd5b60008060008054906101000a900473ffffffffffffffffffffffffffffffffffffffff1673ffffffffffffffffffffffffffffffffffffffff1663313ce5676040518163ffffffff1660e01b815260040160206040518083038186803b15801561023d57600080fd5b505afa158015610251573d6000803e3d6000fd5b505050506040513d602081101561026757600080fd5b810190808051906020019092919050505060ff16905080600a0a838161028957fe5b0491506064600283028161029957fe5b0482019150600160009054906101000a900473ffffffffffffffffffffffffffffffffffffffff1673ffffffffffffffffffffffffffffffffffffffff1663313ce5676040518163ffffffff1660e01b815260040160206040518083038186803b15801561030657600080fd5b505afa15801561031a573d6000803e3d6000fd5b505050506040513d602081101561033057600080fd5b810190808051906020019092919050505060ff16905080600a0a82029150600260009054906101000a900473ffffffffffffffffffffffffffffffffffffffff1673ffffffffffffffffffffffffffffffffffffffff16639fdaea0c6040518060600160405280600081526020018681526020016000815250846040518363ffffffff1660e01b81526004018083600360200280838360005b838110156103e45780820151818401526020810190506103c9565b5050505090500182815260200192505050600060405180830381600087803b15801561040f57600080fd5b505af1158015610423573d6000803e3d6000fd5b5050505060008054906101000a900473ffffffffffffffffffffffffffffffffffffffff1673ffffffffffffffffffffffffffffffffffffffff1663a9059cbb600460009054906101000a900473ffffffffffffffffffffffffffffffffffffffff1660008054906101000a900473ffffffffffffffffffffffffffffffffffffffff1673ffffffffffffffffffffffffffffffffffffffff166370a08231306040518263ffffffff1660e01b8152600401808273ffffffffffffffffffffffffffffffffffffffff16815260200191505060206040518083038186803b15801561050d57600080fd5b505afa158015610521573d6000803e3d6000fd5b505050506040513d602081101561053757600080fd5b81019080805190602001909291905050506040518363ffffffff1660e01b8152600401808373ffffffffffffffffffffffffffffffffffffffff16815260200182815260200192505050602060405180830381600087803b15801561059b57600080fd5b505af11580156105af573d6000803e3d6000fd5b505050506040513d60208110156105c557600080fd5b81019080805190602001909291905050505082600560008282540392505081905550505050565b6000600160009054906101000a900473ffffffffffffffffffffffffffffffffffffffff1673ffffffffffffffffffffffffffffffffffffffff166370a08231306040518263ffffffff1660e01b8152600401808273ffffffffffffffffffffffffffffffffffffffff16815260200191505060206040518083038186803b15801561067757600080fd5b505afa15801561068b573d6000803e3d6000fd5b505050506040513d60208110156106a157600080fd5b810190808051906020019092919050505090506000600a600554816106c257fe5b04600554039050600260009054906101000a900473ffffffffffffffffffffffffffffffffffffffff1673ffffffffffffffffffffffffffffffffffffffff16631a4d01d2836001846040518463ffffffff1660e01b8152600401808481526020018381526020018281526020019350505050600060405180830381600087803b15801561074f57600080fd5b505af1158015610763573d6000803e3d6000fd5b5050505060008054906101000a900473ffffffffffffffffffffffffffffffffffffffff1673ffffffffffffffffffffffffffffffffffffffff1663a9059cbb600360009054906101000a900473ffffffffffffffffffffffffffffffffffffffff1660008054906101000a900473ffffffffffffffffffffffffffffffffffffffff1673ffffffffffffffffffffffffffffffffffffffff166370a08231306040518263ffffffff1660e01b8152600401808273ffffffffffffffffffffffffffffffffffffffff16815260200191505060206040518083038186803b15801561084d57600080fd5b505afa158015610861573d6000803e3d6000fd5b505050506040513d602081101561087757600080fd5b81019080805190602001909291905050506040518363ffffffff1660e01b8152600401808373ffffffffffffffffffffffffffffffffffffffff16815260200182815260200192505050602060405180830381600087803b1580156108db57600080fd5b505af11580156108ef573d6000803e3d6000fd5b505050506040513d602081101561090557600080fd5b8101908080519060200190929190505050505050565b600360009054906101000a900473ffffffffffffffffffffffffffffffffffffffff1673ffffffffffffffffffffffffffffffffffffffff163373ffffffffffffffffffffffffffffffffffffffff16146109de576040517f08c379a000000000000000000000000000000000000000000000000000000000815260040180806020018281038252600e8152602001807f6e6f7420617574686f72697a656400000000000000000000000000000000000081525060200191505060405180910390fd5b60008054906101000a900473ffffffffffffffffffffffffffffffffffffffff1673ffffffffffffffffffffffffffffffffffffffff1663095ea7b3600260009054906101000a900473ffffffffffffffffffffffffffffffffffffffff16836040518363ffffffff1660e01b8152600401808373ffffffffffffffffffffffffffffffffffffffff16815260200182815260200192505050602060405180830381600087803b158015610a9157600080fd5b505af1158015610aa5573d6000803e3d6000fd5b505050506040513d6020811015610abb57600080fd5b8101908080519060200190929190505050506000600260009054906101000a900473ffffffffffffffffffffffffffffffffffffffff1673ffffffffffffffffffffffffffffffffffffffff16633883e119604051806060016040528060008152602001858152602001600081525060016040518363ffffffff1660e01b81526004018083600360200280838360005b83811015610b66578082015181840152602081019050610b4b565b5050505090500182151581526020019250505060206040518083038186803b158015610b9157600080fd5b505afa158015610ba5573d6000803e3d6000fd5b505050506040513d6020811015610bbb57600080fd5b8101908080519060200190929190505050905060648160630281610bdb57fe5b049050600260009054906101000a900473ffffffffffffffffffffffffffffffffffffffff1673ffffffffffffffffffffffffffffffffffffffff16634515cef36040518060600160405280600081526020018581526020016000815250836040518363ffffffff1660e01b81526004018083600360200280838360005b83811015610c74578082015181840152602081019050610c59565b5050505090500182815260200192505050600060405180830381600087803b158015610c9f57600080fd5b505af1158015610cb3573d6000803e3d6000fd5b5050505081600560008282540192505081905550505056fea2646970667358221220320cadc78fb660c96538dd5a2ae0df951bee197fda18936aeb87f0cf68f13cf064736f6c634300060c0033",
  "immutableReferences": {},
  "source": "// SPDX-License-Identifier: UNLICENSED\r\npragma solidity ^0.6.0;\r\n\r\nimport '../Interfaces/CurveInterface.sol';\r\nimport '../Interfaces/ERC20Interface.sol';\r\n\r\ncontract rUSDC3Pool {\r\n\r\n    Erc20 Coin;\r\n    Erc20 PoolToken;\r\n    curvePool public Pool;\r\n\r\n    address rControllerAddress;\r\n    address RoyaleLPaddr;\r\n\r\n    uint256 depositBal;\r\n\r\n    constructor(\r\n        address _controller, \r\n        address _crvpool,\r\n        address _coin,\r\n        address _crvtoken,\r\n        address _royaLP\r\n    ) public {\r\n        rControllerAddress = _controller;\r\n        RoyaleLPaddr = _royaLP;\r\n        Pool = curvePool(_crvpool);\r\n        Coin = Erc20(_coin);\r\n        PoolToken = Erc20(_crvtoken);\r\n    }\r\n\r\n\r\n    function deposit(uint amount) external {\r\n        require(msg.sender == rControllerAddress, \"not authorized\");\r\n\r\n        Coin.approve(address(Pool), amount);\r\n        \r\n        uint mintAmount = Pool.calc_token_amount([0, amount, 0], true);\r\n        mintAmount = (99 * mintAmount) / 100;\r\n        Pool.add_liquidity([0, amount, 0], mintAmount);\r\n\r\n        depositBal += amount;\r\n    }\r\n\r\n    function withdraw(uint amount) external {\r\n        require(msg.sender == rControllerAddress, \"not authorized\");\r\n\r\n        uint256 max_burn = 0;\r\n        uint256 decimal = 0;\r\n\r\n        decimal = Coin.decimals();\r\n        max_burn = amount / 10**decimal;\r\n\r\n        max_burn = max_burn + (max_burn * 2) / 100;\r\n        decimal = PoolToken.decimals();\r\n        max_burn = max_burn * 10**decimal;\r\n\r\n        Pool.remove_liquidity_imbalance([0, amount, 0], max_burn);\r\n        \r\n        Coin.transfer(RoyaleLPaddr, Coin.balanceOf(address(this)));\r\n        \r\n        depositBal -= amount;\r\n    }\r\n\r\n    function withdrawAll() external {\r\n        \r\n        uint bal = PoolToken.balanceOf(address(this));\r\n\r\n        uint min_amount = depositBal - (depositBal / 10);\r\n        Pool.remove_liquidity_one_coin(bal, 1, min_amount);\r\n        Coin.transfer(rControllerAddress, Coin.balanceOf(address(this)));\r\n    }\r\n\r\n}",
  "sourcePath": "C:/Users/MayankVats/Desktop/WORK/blockchain/Royale/royale-contracts/contracts/rUSDC3Pool.sol",
  "compiler": {
    "name": "solc",
    "version": "0.6.12+commit.27d51765.Emscripten.clang"
  },
  "schemaVersion": "3.3.2",
  "updatedAt": "2020-12-18T05:16:39.601Z",
  "devdoc": {
    "kind": "dev",
    "methods": {},
    "version": 1
  },
  "userdoc": {
    "kind": "user",
    "methods": {},
    "version": 1
  }
}