{
  "contractName": "rUSDC3Pool",
  "abi": [
    {
      "inputs": [
        {
          "internalType": "address",
          "name": "_controller",
          "type": "address"
        },
        {
          "internalType": "address",
          "name": "_crvpool",
          "type": "address"
        },
        {
          "internalType": "address",
          "name": "_coin",
          "type": "address"
        },
        {
          "internalType": "address",
          "name": "_crvtoken",
          "type": "address"
        },
        {
          "internalType": "address",
          "name": "_royaLP",
          "type": "address"
        },
        {
          "internalType": "address",
          "name": "_gauge",
          "type": "address"
        }
      ],
      "stateMutability": "nonpayable",
      "type": "constructor"
    },
    {
      "inputs": [],
      "name": "Pool",
      "outputs": [
        {
          "internalType": "contract curvePool",
          "name": "",
          "type": "address"
        }
      ],
      "stateMutability": "view",
      "type": "function"
    },
    {
      "inputs": [],
      "name": "TEST",
      "outputs": [
        {
          "internalType": "bool",
          "name": "",
          "type": "bool"
        }
      ],
      "stateMutability": "view",
      "type": "function"
    },
    {
      "inputs": [],
      "name": "_perc",
      "outputs": [
        {
          "internalType": "uint8",
          "name": "",
          "type": "uint8"
        }
      ],
      "stateMutability": "view",
      "type": "function"
    },
    {
      "inputs": [],
      "name": "crvAddr",
      "outputs": [
        {
          "internalType": "address",
          "name": "",
          "type": "address"
        }
      ],
      "stateMutability": "view",
      "type": "function"
    },
    {
      "inputs": [],
      "name": "gauge",
      "outputs": [
        {
          "internalType": "contract PoolGauge",
          "name": "",
          "type": "address"
        }
      ],
      "stateMutability": "view",
      "type": "function"
    },
    {
      "inputs": [],
      "name": "minter",
      "outputs": [
        {
          "internalType": "contract Minter",
          "name": "",
          "type": "address"
        }
      ],
      "stateMutability": "view",
      "type": "function"
    },
    {
      "inputs": [],
      "name": "owner",
      "outputs": [
        {
          "internalType": "address",
          "name": "",
          "type": "address"
        }
      ],
      "stateMutability": "view",
      "type": "function"
    },
    {
      "inputs": [],
      "name": "uniAddr",
      "outputs": [
        {
          "internalType": "address",
          "name": "",
          "type": "address"
        }
      ],
      "stateMutability": "view",
      "type": "function"
    },
    {
      "inputs": [],
      "name": "wethAddr",
      "outputs": [
        {
          "internalType": "address",
          "name": "",
          "type": "address"
        }
      ],
      "stateMutability": "view",
      "type": "function"
    },
    {
      "inputs": [
        {
          "internalType": "uint8",
          "name": "_percentage3CRV",
          "type": "uint8"
        }
      ],
      "name": "set3CRVPercentage",
      "outputs": [],
      "stateMutability": "nonpayable",
      "type": "function"
    },
    {
      "inputs": [
        {
          "internalType": "uint256",
          "name": "amount",
          "type": "uint256"
        }
      ],
      "name": "deposit",
      "outputs": [],
      "stateMutability": "nonpayable",
      "type": "function"
    },
    {
      "inputs": [
        {
          "internalType": "uint256",
          "name": "amount",
          "type": "uint256"
        }
      ],
      "name": "withdraw",
      "outputs": [],
      "stateMutability": "nonpayable",
      "type": "function"
    },
    {
      "inputs": [],
      "name": "withdrawAll",
      "outputs": [],
      "stateMutability": "nonpayable",
      "type": "function"
    },
    {
      "inputs": [],
      "name": "stakeLP",
      "outputs": [],
      "stateMutability": "nonpayable",
      "type": "function"
    },
    {
      "inputs": [
        {
          "internalType": "uint256",
          "name": "_amount",
          "type": "uint256"
        }
      ],
      "name": "unstakeLP",
      "outputs": [],
      "stateMutability": "nonpayable",
      "type": "function"
    },
    {
      "inputs": [],
      "name": "calculateProfit",
      "outputs": [
        {
          "internalType": "uint256",
          "name": "",
          "type": "uint256"
        }
      ],
      "stateMutability": "view",
      "type": "function"
    },
    {
      "inputs": [],
      "name": "sellCRV",
      "outputs": [
        {
          "internalType": "uint256",
          "name": "",
          "type": "uint256"
        }
      ],
      "stateMutability": "nonpayable",
      "type": "function"
    }
  ],
  "bytecode": "0x60806040526001600460146101000a81548160ff021916908315150217905550604b600960006101000a81548160ff021916908360ff160217905550737a250d5630b4cf539739df2c5dacb4c659f2488d600b60006101000a81548173ffffffffffffffffffffffffffffffffffffffff021916908373ffffffffffffffffffffffffffffffffffffffff160217905550735ddbdbb1d1e691d2994d4a44470eb07dfcbd57c3600c60006101000a81548173ffffffffffffffffffffffffffffffffffffffff021916908373ffffffffffffffffffffffffffffffffffffffff16021790555073c02aaa39b223fe8d0a0e5c4f27ead9083c756cc2600d60006101000a81548173ffffffffffffffffffffffffffffffffffffffff021916908373ffffffffffffffffffffffffffffffffffffffff16021790555034801561014657600080fd5b50604051612a3f380380612a3f833981810160405260c081101561016957600080fd5b8101908080519060200190929190805190602001909291908051906020019092919080519060200190929190805190602001909291908051906020019092919050505033600960016101000a81548173ffffffffffffffffffffffffffffffffffffffff021916908373ffffffffffffffffffffffffffffffffffffffff16021790555085600560006101000a81548173ffffffffffffffffffffffffffffffffffffffff021916908373ffffffffffffffffffffffffffffffffffffffff16021790555084600260006101000a81548173ffffffffffffffffffffffffffffffffffffffff021916908373ffffffffffffffffffffffffffffffffffffffff160217905550836000806101000a81548173ffffffffffffffffffffffffffffffffffffffff021916908373ffffffffffffffffffffffffffffffffffffffff16021790555082600160006101000a81548173ffffffffffffffffffffffffffffffffffffffff021916908373ffffffffffffffffffffffffffffffffffffffff16021790555081600660006101000a81548173ffffffffffffffffffffffffffffffffffffffff021916908373ffffffffffffffffffffffffffffffffffffffff16021790555080600360006101000a81548173ffffffffffffffffffffffffffffffffffffffff021916908373ffffffffffffffffffffffffffffffffffffffff1602179055505050505050506126b8806103876000396000f3fe608060405234801561001057600080fd5b506004361061010b5760003560e01c8063853828b6116100a2578063a6f19c8411610071578063a6f19c84146102fc578063b6b55f2514610330578063bb72650e1461035e578063c47789981461037c578063f87bf3ca146103aa5761010b565b8063853828b61461026c57806387db237c146102765780638da5cb5b14610297578063956e9063146102cb5761010b565b806351d977a6116100de57806351d977a6146101b057806374b21fbe146101d05780637b158f38146102045780637d5aa5f4146102385761010b565b8063075461721461011057806307f3b8bb1461014457806310ff582d146101785780632e1a7d4d14610182575b600080fd5b6101186103c8565b604051808273ffffffffffffffffffffffffffffffffffffffff16815260200191505060405180910390f35b61014c6103ee565b604051808273ffffffffffffffffffffffffffffffffffffffff16815260200191505060405180910390f35b610180610414565b005b6101ae6004803603602081101561019857600080fd5b81019080803590602001909291905050506107ba565b005b6101b8610ced565b60405180821515815260200191505060405180910390f35b6101d8610d00565b604051808273ffffffffffffffffffffffffffffffffffffffff16815260200191505060405180910390f35b61020c610d26565b604051808273ffffffffffffffffffffffffffffffffffffffff16815260200191505060405180910390f35b610240610d4c565b604051808273ffffffffffffffffffffffffffffffffffffffff16815260200191505060405180910390f35b610274610d72565b005b61027e6111bc565b604051808260ff16815260200191505060405180910390f35b61029f6111cf565b604051808273ffffffffffffffffffffffffffffffffffffffff16815260200191505060405180910390f35b6102fa600480360360208110156102e157600080fd5b81019080803560ff1690602001909291905050506111f5565b005b61030461132e565b604051808273ffffffffffffffffffffffffffffffffffffffff16815260200191505060405180910390f35b61035c6004803603602081101561034657600080fd5b8101908080359060200190929190505050611354565b005b610366611805565b6040518082815260200191505060405180910390f35b6103a86004803603602081101561039257600080fd5b81019080803590602001909291905050506121a4565b005b6103b26123d7565b6040518082815260200191505060405180910390f35b600460009054906101000a900473ffffffffffffffffffffffffffffffffffffffff1681565b600260009054906101000a900473ffffffffffffffffffffffffffffffffffffffff1681565b600960019054906101000a900473ffffffffffffffffffffffffffffffffffffffff1673ffffffffffffffffffffffffffffffffffffffff163373ffffffffffffffffffffffffffffffffffffffff1614806104bd5750600560009054906101000a900473ffffffffffffffffffffffffffffffffffffffff1673ffffffffffffffffffffffffffffffffffffffff163373ffffffffffffffffffffffffffffffffffffffff16145b61052f576040517f08c379a000000000000000000000000000000000000000000000000000000000815260040180806020018281038252600e8152602001807f6e6f7420617574686f72697a656400000000000000000000000000000000000081525060200191505060405180910390fd5b60006064600960009054906101000a900460ff1660ff16600a54600160009054906101000a900473ffffffffffffffffffffffffffffffffffffffff1673ffffffffffffffffffffffffffffffffffffffff166370a08231306040518263ffffffff1660e01b8152600401808273ffffffffffffffffffffffffffffffffffffffff16815260200191505060206040518083038186803b1580156105d257600080fd5b505afa1580156105e6573d6000803e3d6000fd5b505050506040513d60208110156105fc57600080fd5b810190808051906020019092919050505001028161061657fe5b049050600a5481039050600081146107b757600160009054906101000a900473ffffffffffffffffffffffffffffffffffffffff1673ffffffffffffffffffffffffffffffffffffffff1663095ea7b3600360009054906101000a900473ffffffffffffffffffffffffffffffffffffffff16836040518363ffffffff1660e01b8152600401808373ffffffffffffffffffffffffffffffffffffffff16815260200182815260200192505050602060405180830381600087803b1580156106dd57600080fd5b505af11580156106f1573d6000803e3d6000fd5b505050506040513d602081101561070757600080fd5b810190808051906020019092919050505050600360009054906101000a900473ffffffffffffffffffffffffffffffffffffffff1673ffffffffffffffffffffffffffffffffffffffff1663b6b55f25826040518263ffffffff1660e01b815260040180828152602001915050600060405180830381600087803b15801561078e57600080fd5b505af11580156107a2573d6000803e3d6000fd5b5050505080600a600082825401925050819055505b50565b600960019054906101000a900473ffffffffffffffffffffffffffffffffffffffff1673ffffffffffffffffffffffffffffffffffffffff163373ffffffffffffffffffffffffffffffffffffffff1614806108635750600560009054906101000a900473ffffffffffffffffffffffffffffffffffffffff1673ffffffffffffffffffffffffffffffffffffffff163373ffffffffffffffffffffffffffffffffffffffff16145b6108d5576040517f08c379a000000000000000000000000000000000000000000000000000000000815260040180806020018281038252600e8152602001807f6e6f7420617574686f72697a656400000000000000000000000000000000000081525060200191505060405180910390fd5b60008060008054906101000a900473ffffffffffffffffffffffffffffffffffffffff1673ffffffffffffffffffffffffffffffffffffffff1663313ce5676040518163ffffffff1660e01b815260040160206040518083038186803b15801561093e57600080fd5b505afa158015610952573d6000803e3d6000fd5b505050506040513d602081101561096857600080fd5b810190808051906020019092919050505060ff16905080600a0a838161098a57fe5b0491506064600283028161099a57fe5b0482019150600160009054906101000a900473ffffffffffffffffffffffffffffffffffffffff1673ffffffffffffffffffffffffffffffffffffffff1663313ce5676040518163ffffffff1660e01b815260040160206040518083038186803b158015610a0757600080fd5b505afa158015610a1b573d6000803e3d6000fd5b505050506040513d6020811015610a3157600080fd5b810190808051906020019092919050505060ff16905080600a0a82029150600260009054906101000a900473ffffffffffffffffffffffffffffffffffffffff1673ffffffffffffffffffffffffffffffffffffffff16639fdaea0c6040518060600160405280600081526020018681526020016000815250846040518363ffffffff1660e01b81526004018083600360200280838360005b83811015610ae5578082015181840152602081019050610aca565b5050505090500182815260200192505050600060405180830381600087803b158015610b1057600080fd5b505af1158015610b24573d6000803e3d6000fd5b5050505060008054906101000a900473ffffffffffffffffffffffffffffffffffffffff1673ffffffffffffffffffffffffffffffffffffffff1663a9059cbb600660009054906101000a900473ffffffffffffffffffffffffffffffffffffffff1660008054906101000a900473ffffffffffffffffffffffffffffffffffffffff1673ffffffffffffffffffffffffffffffffffffffff166370a08231306040518263ffffffff1660e01b8152600401808273ffffffffffffffffffffffffffffffffffffffff16815260200191505060206040518083038186803b158015610c0e57600080fd5b505afa158015610c22573d6000803e3d6000fd5b505050506040513d6020811015610c3857600080fd5b81019080805190602001909291905050506040518363ffffffff1660e01b8152600401808373ffffffffffffffffffffffffffffffffffffffff16815260200182815260200192505050602060405180830381600087803b158015610c9c57600080fd5b505af1158015610cb0573d6000803e3d6000fd5b505050506040513d6020811015610cc657600080fd5b81019080805190602001909291905050505082600760008282540392505081905550505050565b600460149054906101000a900460ff1681565b600c60009054906101000a900473ffffffffffffffffffffffffffffffffffffffff1681565b600b60009054906101000a900473ffffffffffffffffffffffffffffffffffffffff1681565b600d60009054906101000a900473ffffffffffffffffffffffffffffffffffffffff1681565b600960019054906101000a900473ffffffffffffffffffffffffffffffffffffffff1673ffffffffffffffffffffffffffffffffffffffff163373ffffffffffffffffffffffffffffffffffffffff161480610e1b5750600560009054906101000a900473ffffffffffffffffffffffffffffffffffffffff1673ffffffffffffffffffffffffffffffffffffffff163373ffffffffffffffffffffffffffffffffffffffff16145b610e8d576040517f08c379a000000000000000000000000000000000000000000000000000000000815260040180806020018281038252600e8152602001807f6e6f7420617574686f72697a656400000000000000000000000000000000000081525060200191505060405180910390fd5b6000600160009054906101000a900473ffffffffffffffffffffffffffffffffffffffff1673ffffffffffffffffffffffffffffffffffffffff166370a08231306040518263ffffffff1660e01b8152600401808273ffffffffffffffffffffffffffffffffffffffff16815260200191505060206040518083038186803b158015610f1857600080fd5b505afa158015610f2c573d6000803e3d6000fd5b505050506040513d6020811015610f4257600080fd5b810190808051906020019092919050505090506000600a60075481610f6357fe5b04600754039050600260009054906101000a900473ffffffffffffffffffffffffffffffffffffffff1673ffffffffffffffffffffffffffffffffffffffff16631a4d01d2836001846040518463ffffffff1660e01b8152600401808481526020018381526020018281526020019350505050600060405180830381600087803b158015610ff057600080fd5b505af1158015611004573d6000803e3d6000fd5b5050505060008054906101000a900473ffffffffffffffffffffffffffffffffffffffff1673ffffffffffffffffffffffffffffffffffffffff1663a9059cbb600560009054906101000a900473ffffffffffffffffffffffffffffffffffffffff1660008054906101000a900473ffffffffffffffffffffffffffffffffffffffff1673ffffffffffffffffffffffffffffffffffffffff166370a08231306040518263ffffffff1660e01b8152600401808273ffffffffffffffffffffffffffffffffffffffff16815260200191505060206040518083038186803b1580156110ee57600080fd5b505afa158015611102573d6000803e3d6000fd5b505050506040513d602081101561111857600080fd5b81019080805190602001909291905050506040518363ffffffff1660e01b8152600401808373ffffffffffffffffffffffffffffffffffffffff16815260200182815260200192505050602060405180830381600087803b15801561117c57600080fd5b505af1158015611190573d6000803e3d6000fd5b505050506040513d60208110156111a657600080fd5b8101908080519060200190929190505050505050565b600960009054906101000a900460ff1681565b600960019054906101000a900473ffffffffffffffffffffffffffffffffffffffff1681565b600960019054906101000a900473ffffffffffffffffffffffffffffffffffffffff1673ffffffffffffffffffffffffffffffffffffffff163373ffffffffffffffffffffffffffffffffffffffff16148061129e5750600560009054906101000a900473ffffffffffffffffffffffffffffffffffffffff1673ffffffffffffffffffffffffffffffffffffffff163373ffffffffffffffffffffffffffffffffffffffff16145b611310576040517f08c379a000000000000000000000000000000000000000000000000000000000815260040180806020018281038252600e8152602001807f6e6f7420617574686f72697a656400000000000000000000000000000000000081525060200191505060405180910390fd5b80600960006101000a81548160ff021916908360ff16021790555050565b600360009054906101000a900473ffffffffffffffffffffffffffffffffffffffff1681565b600960019054906101000a900473ffffffffffffffffffffffffffffffffffffffff1673ffffffffffffffffffffffffffffffffffffffff163373ffffffffffffffffffffffffffffffffffffffff1614806113fd5750600560009054906101000a900473ffffffffffffffffffffffffffffffffffffffff1673ffffffffffffffffffffffffffffffffffffffff163373ffffffffffffffffffffffffffffffffffffffff16145b61146f576040517f08c379a000000000000000000000000000000000000000000000000000000000815260040180806020018281038252600e8152602001807f6e6f7420617574686f72697a656400000000000000000000000000000000000081525060200191505060405180910390fd5b60008054906101000a900473ffffffffffffffffffffffffffffffffffffffff1673ffffffffffffffffffffffffffffffffffffffff1663095ea7b3600260009054906101000a900473ffffffffffffffffffffffffffffffffffffffff16836040518363ffffffff1660e01b8152600401808373ffffffffffffffffffffffffffffffffffffffff16815260200182815260200192505050602060405180830381600087803b15801561152257600080fd5b505af1158015611536573d6000803e3d6000fd5b505050506040513d602081101561154c57600080fd5b8101908080519060200190929190505050506000600260009054906101000a900473ffffffffffffffffffffffffffffffffffffffff1673ffffffffffffffffffffffffffffffffffffffff16633883e119604051806060016040528060008152602001858152602001600081525060016040518363ffffffff1660e01b81526004018083600360200280838360005b838110156115f75780820151818401526020810190506115dc565b5050505090500182151581526020019250505060206040518083038186803b15801561162257600080fd5b505afa158015611636573d6000803e3d6000fd5b505050506040513d602081101561164c57600080fd5b810190808051906020019092919050505090506064816063028161166c57fe5b049050600260009054906101000a900473ffffffffffffffffffffffffffffffffffffffff1673ffffffffffffffffffffffffffffffffffffffff16634515cef36040518060600160405280600081526020018581526020016000815250836040518363ffffffff1660e01b81526004018083600360200280838360005b838110156117055780820151818401526020810190506116ea565b5050505090500182815260200192505050600060405180830381600087803b15801561173057600080fd5b505af1158015611744573d6000803e3d6000fd5b50505050600260009054906101000a900473ffffffffffffffffffffffffffffffffffffffff1673ffffffffffffffffffffffffffffffffffffffff1663bb7b8b806040518163ffffffff1660e01b815260040160206040518083038186803b1580156117b057600080fd5b505afa1580156117c4573d6000803e3d6000fd5b505050506040513d60208110156117da57600080fd5b8101908080519060200190929190505050600881905550816007600082825401925050819055505050565b6000600960019054906101000a900473ffffffffffffffffffffffffffffffffffffffff1673ffffffffffffffffffffffffffffffffffffffff163373ffffffffffffffffffffffffffffffffffffffff1614806118b05750600560009054906101000a900473ffffffffffffffffffffffffffffffffffffffff1673ffffffffffffffffffffffffffffffffffffffff163373ffffffffffffffffffffffffffffffffffffffff16145b611922576040517f08c379a000000000000000000000000000000000000000000000000000000000815260040180806020018281038252600e8152602001807f6e6f7420617574686f72697a656400000000000000000000000000000000000081525060200191505060405180910390fd5b6000600c60009054906101000a900473ffffffffffffffffffffffffffffffffffffffff1673ffffffffffffffffffffffffffffffffffffffff166370a08231306040518263ffffffff1660e01b8152600401808273ffffffffffffffffffffffffffffffffffffffff16815260200191505060206040518083038186803b1580156119ad57600080fd5b505afa1580156119c1573d6000803e3d6000fd5b505050506040513d60208110156119d757600080fd5b8101908080519060200190929190505050905060008060009054906101000a900473ffffffffffffffffffffffffffffffffffffffff1673ffffffffffffffffffffffffffffffffffffffff166370a08231306040518263ffffffff1660e01b8152600401808273ffffffffffffffffffffffffffffffffffffffff16815260200191505060206040518083038186803b158015611a7457600080fd5b505afa158015611a88573d6000803e3d6000fd5b505050506040513d6020811015611a9e57600080fd5b8101908080519060200190929190505050905060008211611b27576040517f08c379a00000000000000000000000000000000000000000000000000000000081526004018080602001828103825260108152602001807f696e73756666696369656e74204352560000000000000000000000000000000081525060200191505060405180910390fd5b600c60009054906101000a900473ffffffffffffffffffffffffffffffffffffffff1673ffffffffffffffffffffffffffffffffffffffff1663095ea7b3600b60009054906101000a900473ffffffffffffffffffffffffffffffffffffffff16846040518363ffffffff1660e01b8152600401808373ffffffffffffffffffffffffffffffffffffffff16815260200182815260200192505050602060405180830381600087803b158015611bdc57600080fd5b505af1158015611bf0573d6000803e3d6000fd5b505050506040513d6020811015611c0657600080fd5b8101908080519060200190929190505050506060600460149054906101000a900460ff1615611d5057600267ffffffffffffffff81118015611c4757600080fd5b50604051908082528060200260200182016040528015611c765781602001602082028036833780820191505090505b509050600c60009054906101000a900473ffffffffffffffffffffffffffffffffffffffff1681600081518110611ca957fe5b602002602001019073ffffffffffffffffffffffffffffffffffffffff16908173ffffffffffffffffffffffffffffffffffffffff168152505060008054906101000a900473ffffffffffffffffffffffffffffffffffffffff1681600181518110611d1157fe5b602002602001019073ffffffffffffffffffffffffffffffffffffffff16908173ffffffffffffffffffffffffffffffffffffffff1681525050611ed7565b600367ffffffffffffffff81118015611d6857600080fd5b50604051908082528060200260200182016040528015611d975781602001602082028036833780820191505090505b509050600c60009054906101000a900473ffffffffffffffffffffffffffffffffffffffff1681600081518110611dca57fe5b602002602001019073ffffffffffffffffffffffffffffffffffffffff16908173ffffffffffffffffffffffffffffffffffffffff1681525050600d60009054906101000a900473ffffffffffffffffffffffffffffffffffffffff1681600181518110611e3457fe5b602002602001019073ffffffffffffffffffffffffffffffffffffffff16908173ffffffffffffffffffffffffffffffffffffffff168152505060008054906101000a900473ffffffffffffffffffffffffffffffffffffffff1681600281518110611e9c57fe5b602002602001019073ffffffffffffffffffffffffffffffffffffffff16908173ffffffffffffffffffffffffffffffffffffffff16815250505b600b60009054906101000a900473ffffffffffffffffffffffffffffffffffffffff1673ffffffffffffffffffffffffffffffffffffffff166338ed1739846000843061070842016040518663ffffffff1660e01b815260040180868152602001858152602001806020018473ffffffffffffffffffffffffffffffffffffffff168152602001838152602001828103825285818151815260200191508051906020019060200280838360005b83811015611f9f578082015181840152602081019050611f84565b505050509050019650505050505050600060405180830381600087803b158015611fc857600080fd5b505af1158015611fdc573d6000803e3d6000fd5b5050505060008060009054906101000a900473ffffffffffffffffffffffffffffffffffffffff1673ffffffffffffffffffffffffffffffffffffffff166370a08231306040518263ffffffff1660e01b8152600401808273ffffffffffffffffffffffffffffffffffffffff16815260200191505060206040518083038186803b15801561206a57600080fd5b505afa15801561207e573d6000803e3d6000fd5b505050506040513d602081101561209457600080fd5b8101908080519060200190929190505050905060008054906101000a900473ffffffffffffffffffffffffffffffffffffffff1673ffffffffffffffffffffffffffffffffffffffff1663095ea7b3600560009054906101000a900473ffffffffffffffffffffffffffffffffffffffff168584036040518363ffffffff1660e01b8152600401808373ffffffffffffffffffffffffffffffffffffffff16815260200182815260200192505050602060405180830381600087803b15801561215c57600080fd5b505af1158015612170573d6000803e3d6000fd5b505050506040513d602081101561218657600080fd5b81019080805190602001909291905050505082810394505050505090565b600960019054906101000a900473ffffffffffffffffffffffffffffffffffffffff1673ffffffffffffffffffffffffffffffffffffffff163373ffffffffffffffffffffffffffffffffffffffff16148061224d5750600560009054906101000a900473ffffffffffffffffffffffffffffffffffffffff1673ffffffffffffffffffffffffffffffffffffffff163373ffffffffffffffffffffffffffffffffffffffff16145b6122bf576040517f08c379a000000000000000000000000000000000000000000000000000000000815260040180806020018281038252600e8152602001807f6e6f7420617574686f72697a656400000000000000000000000000000000000081525060200191505060405180910390fd5b80600a541015612337576040517f08c379a000000000000000000000000000000000000000000000000000000000815260040180806020018281038252601f8152602001807f596f752068617665206e6f74207374616b6564207468617420616d6f756e740081525060200191505060405180910390fd5b600360009054906101000a900473ffffffffffffffffffffffffffffffffffffffff1673ffffffffffffffffffffffffffffffffffffffff16632e1a7d4d826040518263ffffffff1660e01b815260040180828152602001915050600060405180830381600087803b1580156123ac57600080fd5b505af11580156123c0573d6000803e3d6000fd5b5050505080600a6000828254039250508190555050565b6000600960019054906101000a900473ffffffffffffffffffffffffffffffffffffffff1673ffffffffffffffffffffffffffffffffffffffff163373ffffffffffffffffffffffffffffffffffffffff1614806124825750600560009054906101000a900473ffffffffffffffffffffffffffffffffffffffff1673ffffffffffffffffffffffffffffffffffffffff163373ffffffffffffffffffffffffffffffffffffffff16145b6124f4576040517f08c379a000000000000000000000000000000000000000000000000000000000815260040180806020018281038252600e8152602001807f6e6f7420617574686f72697a656400000000000000000000000000000000000081525060200191505060405180910390fd5b6000600260009054906101000a900473ffffffffffffffffffffffffffffffffffffffff1673ffffffffffffffffffffffffffffffffffffffff1663bb7b8b806040518163ffffffff1660e01b815260040160206040518083038186803b15801561255e57600080fd5b505afa158015612572573d6000803e3d6000fd5b505050506040513d602081101561258857600080fd5b810190808051906020019092919050505090506000670de0b6b3a76400006008548303600160009054906101000a900473ffffffffffffffffffffffffffffffffffffffff1673ffffffffffffffffffffffffffffffffffffffff166370a08231306040518263ffffffff1660e01b8152600401808273ffffffffffffffffffffffffffffffffffffffff16815260200191505060206040518083038186803b15801561263457600080fd5b505afa158015612648573d6000803e3d6000fd5b505050506040513d602081101561265e57600080fd5b8101908080519060200190929190505050028161267757fe5b04905080925050509056fea26469706673582212207fbbee87eb9b0272919b3705e5b5bae8df53a3fc77541115d764bc55d89dab0764736f6c634300060c0033",
  "immutableReferences": {},
  "source": "// SPDX-License-Identifier: UNLICENSED\r\npragma solidity ^0.6.0;\r\n\r\nimport '../../Interfaces/CurveInterface.sol';\r\nimport '../../Interfaces/ERC20Interface.sol';\r\nimport '../../Interfaces/UniswapInterface.sol';\r\n\r\n\r\ncontract rUSDC3Pool {\r\n\r\n    Erc20 Coin;\r\n    Erc20 PoolToken;\r\n    curvePool public Pool;\r\n    PoolGauge public gauge;\r\n    Minter public minter;\r\n\r\n    bool public TEST = true;\r\n\r\n    address rControllerAddress;\r\n    address RoyaleLPaddr;\r\n\r\n    uint256 depositBal;\r\n    uint256 virtual_price;\r\n\r\n    uint8 public _perc=75;\r\n    \r\n    address public owner;\r\n\r\n    uint256 stakedAmt;\r\n\r\n    address public uniAddr  = address(0x7a250d5630B4cF539739dF2C5dAcb4c659F2488D);\r\n    address public crvAddr  = address(0x5dDBDBB1D1e691d2994d4A44470EB07dFCbd57C3);\r\n    address public wethAddr = address(0xC02aaA39b223FE8D0A0e5C4F27eAD9083C756Cc2);\r\n\r\n    modifier onlyAuthorized {\r\n        require(msg.sender == owner || msg.sender == rControllerAddress,\"not authorized\");\r\n        _;\r\n    }\r\n\r\n    constructor(\r\n        address _controller, \r\n        address _crvpool,\r\n        address _coin,\r\n        address _crvtoken,\r\n        address _royaLP,\r\n        address _gauge\r\n        // minter address\r\n    ) public {\r\n        owner = msg.sender;\r\n        rControllerAddress = _controller;\r\n        Pool = curvePool(_crvpool);\r\n        Coin = Erc20(_coin);\r\n        PoolToken = Erc20(_crvtoken);\r\n        RoyaleLPaddr = _royaLP;\r\n        gauge = PoolGauge(_gauge);\r\n    }\r\n\r\n\r\n    function set3CRVPercentage(uint8 _percentage3CRV)external onlyAuthorized{\r\n        _perc=_percentage3CRV;\r\n    }\r\n\r\n    function deposit(uint amount) external onlyAuthorized {\r\n        Coin.approve(address(Pool), amount);\r\n        \r\n        uint mintAmount = Pool.calc_token_amount([0, amount, 0], true);\r\n        mintAmount = (99 * mintAmount) / 100;\r\n        Pool.add_liquidity([0, amount, 0], mintAmount);\r\n        virtual_price = Pool.get_virtual_price();\r\n        depositBal += amount;\r\n    }\r\n\r\n    function withdraw(uint amount) external onlyAuthorized{\r\n        uint256 max_burn = 0;\r\n        uint256 decimal = 0;\r\n\r\n        decimal = Coin.decimals();\r\n        max_burn = amount / 10**decimal;\r\n\r\n        max_burn = max_burn + (max_burn * 2) / 100;\r\n        decimal = PoolToken.decimals();\r\n        max_burn = max_burn * 10**decimal;\r\n\r\n        Pool.remove_liquidity_imbalance([0, amount, 0], max_burn);\r\n        \r\n        Coin.transfer(RoyaleLPaddr, Coin.balanceOf(address(this)));\r\n        \r\n        depositBal -= amount;\r\n    }\r\n\r\n    function withdrawAll() external onlyAuthorized {\r\n        uint bal = PoolToken.balanceOf(address(this));\r\n\r\n        uint min_amount = depositBal - (depositBal / 10);\r\n        Pool.remove_liquidity_one_coin(bal, 1, min_amount);\r\n        Coin.transfer(rControllerAddress, Coin.balanceOf(address(this)));\r\n    }\r\n\r\n    function stakeLP() external onlyAuthorized {\r\n        uint depositAmt = ((PoolToken.balanceOf(address(this))+stakedAmt) * _perc) / 100;\r\n        depositAmt-=stakedAmt;\r\n         if(depositAmt!=0){\r\n           PoolToken.approve(address(gauge), depositAmt);\r\n           gauge.deposit(depositAmt);\r\n           stakedAmt+=depositAmt;\r\n        }\r\n    }\r\n\r\n   function unstakeLP(uint _amount) external onlyAuthorized {\r\n        require(stakedAmt>=_amount,\"You have not staked that amount\");\r\n        gauge.withdraw(_amount);\r\n        stakedAmt -=_amount;\r\n    }\r\n\r\n    function _claimCRV() internal  {\r\n        minter.mint(address(gauge));\r\n    }\r\n\r\n    function calculateProfit() external view onlyAuthorized returns(uint256) {\r\n         uint current_virtual_price = Pool.get_virtual_price();\r\n         uint profit = (PoolToken.balanceOf(address(this))*(current_virtual_price-virtual_price))/(10**18);\r\n         return profit;\r\n    }\r\n\r\n    function sellCRV() external onlyAuthorized returns(uint256) {\r\n        // _claimCRV();\r\n        uint256 crvAmt = Erc20(crvAddr).balanceOf(address(this));\r\n        uint256 prevCoin=Coin.balanceOf(address(this));\r\n\r\n        require(crvAmt > 0, \"insufficient CRV\");\r\n\r\n        Erc20(crvAddr).approve(uniAddr, crvAmt);\r\n\r\n        address[] memory path; \r\n\r\n        if(TEST) {\r\n            path = new address[](2);\r\n\r\n            path[0] = crvAddr;\r\n            path[1] = address(Coin);\r\n\r\n        } else {\r\n            path = new address[](3);\r\n\r\n            path[0] = crvAddr;\r\n            path[1] = wethAddr;\r\n            path[2] = address(Coin);\r\n        }\r\n\r\n\r\n        UniswapI(uniAddr).swapExactTokensForTokens(\r\n            crvAmt, \r\n            uint256(0), \r\n            path, \r\n            address(this), \r\n            now + 1800\r\n        );\r\n        uint256 postCoin=Coin.balanceOf(address(this));\r\n        Coin.approve(rControllerAddress,postCoin-prevCoin);\r\n        return (postCoin-prevCoin);\r\n    }\r\n\r\n}",
  "sourcePath": "C:/Users/MayankVats/Desktop/WORK/blockchain/Royale/rlp/contracts/rStrategies/rUSDC3Pool.sol",
  "compiler": {
    "name": "solc",
    "version": "0.6.12+commit.27d51765.Emscripten.clang"
  },
  "schemaVersion": "3.3.2",
  "updatedAt": "2020-12-30T09:23:03.398Z",
  "devdoc": {
    "kind": "dev",
    "methods": {},
    "version": 1
  },
  "userdoc": {
    "kind": "user",
    "methods": {},
    "version": 1
  }
}