{
  "contractName": "rUSDC3Pool",
  "abi": [
    {
      "inputs": [
        {
          "internalType": "address",
          "name": "_controller",
          "type": "address"
        },
        {
          "internalType": "address",
          "name": "_crvpool",
          "type": "address"
        },
        {
          "internalType": "address",
          "name": "_coin",
          "type": "address"
        },
        {
          "internalType": "address",
          "name": "_crvtoken",
          "type": "address"
        },
        {
          "internalType": "address",
          "name": "_royaLP",
          "type": "address"
        },
        {
          "internalType": "address",
          "name": "_gauge",
          "type": "address"
        }
      ],
      "stateMutability": "nonpayable",
      "type": "constructor"
    },
    {
      "inputs": [],
      "name": "Pool",
      "outputs": [
        {
          "internalType": "contract curvePool",
          "name": "",
          "type": "address"
        }
      ],
      "stateMutability": "view",
      "type": "function"
    },
    {
      "inputs": [],
      "name": "_perc",
      "outputs": [
        {
          "internalType": "uint8",
          "name": "",
          "type": "uint8"
        }
      ],
      "stateMutability": "view",
      "type": "function"
    },
    {
      "inputs": [],
      "name": "crvAddr",
      "outputs": [
        {
          "internalType": "address",
          "name": "",
          "type": "address"
        }
      ],
      "stateMutability": "view",
      "type": "function"
    },
    {
      "inputs": [],
      "name": "gauge",
      "outputs": [
        {
          "internalType": "contract PoolGauge",
          "name": "",
          "type": "address"
        }
      ],
      "stateMutability": "view",
      "type": "function"
    },
    {
      "inputs": [],
      "name": "minter",
      "outputs": [
        {
          "internalType": "contract Minter",
          "name": "",
          "type": "address"
        }
      ],
      "stateMutability": "view",
      "type": "function"
    },
    {
      "inputs": [],
      "name": "owner",
      "outputs": [
        {
          "internalType": "address",
          "name": "",
          "type": "address"
        }
      ],
      "stateMutability": "view",
      "type": "function"
    },
    {
      "inputs": [],
      "name": "uniAddr",
      "outputs": [
        {
          "internalType": "address",
          "name": "",
          "type": "address"
        }
      ],
      "stateMutability": "view",
      "type": "function"
    },
    {
      "inputs": [],
      "name": "wethAddr",
      "outputs": [
        {
          "internalType": "address",
          "name": "",
          "type": "address"
        }
      ],
      "stateMutability": "view",
      "type": "function"
    },
    {
      "inputs": [
        {
          "internalType": "uint8",
          "name": "_percentage3CRV",
          "type": "uint8"
        }
      ],
      "name": "set3CRVPercentage",
      "outputs": [],
      "stateMutability": "nonpayable",
      "type": "function"
    },
    {
      "inputs": [
        {
          "internalType": "uint256",
          "name": "amount",
          "type": "uint256"
        }
      ],
      "name": "deposit",
      "outputs": [],
      "stateMutability": "nonpayable",
      "type": "function"
    },
    {
      "inputs": [
        {
          "internalType": "uint256",
          "name": "amount",
          "type": "uint256"
        }
      ],
      "name": "withdraw",
      "outputs": [],
      "stateMutability": "nonpayable",
      "type": "function"
    },
    {
      "inputs": [],
      "name": "withdrawAll",
      "outputs": [],
      "stateMutability": "nonpayable",
      "type": "function"
    },
    {
      "inputs": [],
      "name": "stakeLP",
      "outputs": [],
      "stateMutability": "nonpayable",
      "type": "function"
    },
    {
      "inputs": [
        {
          "internalType": "uint256",
          "name": "_amount",
          "type": "uint256"
        }
      ],
      "name": "unstakeLP",
      "outputs": [],
      "stateMutability": "nonpayable",
      "type": "function"
    },
    {
      "inputs": [],
      "name": "calculateProfit",
      "outputs": [
        {
          "internalType": "uint256",
          "name": "",
          "type": "uint256"
        }
      ],
      "stateMutability": "view",
      "type": "function"
    },
    {
      "inputs": [],
      "name": "sellCRV",
      "outputs": [
        {
          "internalType": "uint256",
          "name": "",
          "type": "uint256"
        }
      ],
      "stateMutability": "nonpayable",
      "type": "function"
    }
  ],
  "bytecode": "0x6080604052604b600960006101000a81548160ff021916908360ff16021790555034801561002c57600080fd5b5060405161287f38038061287f833981810160405260c081101561004f57600080fd5b8101908080519060200190929190805190602001909291908051906020019092919080519060200190929190805190602001909291908051906020019092919050505033600960016101000a81548173ffffffffffffffffffffffffffffffffffffffff021916908373ffffffffffffffffffffffffffffffffffffffff16021790555085600560006101000a81548173ffffffffffffffffffffffffffffffffffffffff021916908373ffffffffffffffffffffffffffffffffffffffff16021790555084600260006101000a81548173ffffffffffffffffffffffffffffffffffffffff021916908373ffffffffffffffffffffffffffffffffffffffff160217905550836000806101000a81548173ffffffffffffffffffffffffffffffffffffffff021916908373ffffffffffffffffffffffffffffffffffffffff16021790555082600160006101000a81548173ffffffffffffffffffffffffffffffffffffffff021916908373ffffffffffffffffffffffffffffffffffffffff16021790555081600660006101000a81548173ffffffffffffffffffffffffffffffffffffffff021916908373ffffffffffffffffffffffffffffffffffffffff16021790555080600360006101000a81548173ffffffffffffffffffffffffffffffffffffffff021916908373ffffffffffffffffffffffffffffffffffffffff1602179055505050505050506126128061026d6000396000f3fe608060405234801561001057600080fd5b50600436106101005760003560e01c806387db237c11610097578063b6b55f2511610066578063b6b55f2514610305578063bb72650e14610333578063c477899814610351578063f87bf3ca1461037f57610100565b806387db237c1461024b5780638da5cb5b1461026c578063956e9063146102a0578063a6f19c84146102d157610100565b806374b21fbe116100d357806374b21fbe146101a55780637b158f38146101d95780637d5aa5f41461020d578063853828b61461024157610100565b8063075461721461010557806307f3b8bb1461013957806310ff582d1461016d5780632e1a7d4d14610177575b600080fd5b61010d61039d565b604051808273ffffffffffffffffffffffffffffffffffffffff16815260200191505060405180910390f35b6101416103c3565b604051808273ffffffffffffffffffffffffffffffffffffffff16815260200191505060405180910390f35b6101756103e9565b005b6101a36004803603602081101561018d57600080fd5b810190808035906020019092919050505061078f565b005b6101ad610cc2565b604051808273ffffffffffffffffffffffffffffffffffffffff16815260200191505060405180910390f35b6101e1610ce8565b604051808273ffffffffffffffffffffffffffffffffffffffff16815260200191505060405180910390f35b610215610d0e565b604051808273ffffffffffffffffffffffffffffffffffffffff16815260200191505060405180910390f35b610249610d34565b005b61025361117e565b604051808260ff16815260200191505060405180910390f35b610274611191565b604051808273ffffffffffffffffffffffffffffffffffffffff16815260200191505060405180910390f35b6102cf600480360360208110156102b657600080fd5b81019080803560ff1690602001909291905050506111b7565b005b6102d96112f0565b604051808273ffffffffffffffffffffffffffffffffffffffff16815260200191505060405180910390f35b6103316004803603602081101561031b57600080fd5b8101908080359060200190929190505050611316565b005b61033b6117c7565b6040518082815260200191505060405180910390f35b61037d6004803603602081101561036757600080fd5b8101908080359060200190929190505050612037565b005b61038761226a565b6040518082815260200191505060405180910390f35b600460009054906101000a900473ffffffffffffffffffffffffffffffffffffffff1681565b600260009054906101000a900473ffffffffffffffffffffffffffffffffffffffff1681565b600960019054906101000a900473ffffffffffffffffffffffffffffffffffffffff1673ffffffffffffffffffffffffffffffffffffffff163373ffffffffffffffffffffffffffffffffffffffff1614806104925750600560009054906101000a900473ffffffffffffffffffffffffffffffffffffffff1673ffffffffffffffffffffffffffffffffffffffff163373ffffffffffffffffffffffffffffffffffffffff16145b610504576040517f08c379a000000000000000000000000000000000000000000000000000000000815260040180806020018281038252600e8152602001807f6e6f7420617574686f72697a656400000000000000000000000000000000000081525060200191505060405180910390fd5b60006064600960009054906101000a900460ff1660ff16600a54600160009054906101000a900473ffffffffffffffffffffffffffffffffffffffff1673ffffffffffffffffffffffffffffffffffffffff166370a08231306040518263ffffffff1660e01b8152600401808273ffffffffffffffffffffffffffffffffffffffff16815260200191505060206040518083038186803b1580156105a757600080fd5b505afa1580156105bb573d6000803e3d6000fd5b505050506040513d60208110156105d157600080fd5b81019080805190602001909291905050500102816105eb57fe5b049050600a54810390506000811461078c57600160009054906101000a900473ffffffffffffffffffffffffffffffffffffffff1673ffffffffffffffffffffffffffffffffffffffff1663095ea7b3600360009054906101000a900473ffffffffffffffffffffffffffffffffffffffff16836040518363ffffffff1660e01b8152600401808373ffffffffffffffffffffffffffffffffffffffff16815260200182815260200192505050602060405180830381600087803b1580156106b257600080fd5b505af11580156106c6573d6000803e3d6000fd5b505050506040513d60208110156106dc57600080fd5b810190808051906020019092919050505050600360009054906101000a900473ffffffffffffffffffffffffffffffffffffffff1673ffffffffffffffffffffffffffffffffffffffff1663b6b55f25826040518263ffffffff1660e01b815260040180828152602001915050600060405180830381600087803b15801561076357600080fd5b505af1158015610777573d6000803e3d6000fd5b5050505080600a600082825401925050819055505b50565b600960019054906101000a900473ffffffffffffffffffffffffffffffffffffffff1673ffffffffffffffffffffffffffffffffffffffff163373ffffffffffffffffffffffffffffffffffffffff1614806108385750600560009054906101000a900473ffffffffffffffffffffffffffffffffffffffff1673ffffffffffffffffffffffffffffffffffffffff163373ffffffffffffffffffffffffffffffffffffffff16145b6108aa576040517f08c379a000000000000000000000000000000000000000000000000000000000815260040180806020018281038252600e8152602001807f6e6f7420617574686f72697a656400000000000000000000000000000000000081525060200191505060405180910390fd5b60008060008054906101000a900473ffffffffffffffffffffffffffffffffffffffff1673ffffffffffffffffffffffffffffffffffffffff1663313ce5676040518163ffffffff1660e01b815260040160206040518083038186803b15801561091357600080fd5b505afa158015610927573d6000803e3d6000fd5b505050506040513d602081101561093d57600080fd5b810190808051906020019092919050505060ff16905080600a0a838161095f57fe5b0491506064600283028161096f57fe5b0482019150600160009054906101000a900473ffffffffffffffffffffffffffffffffffffffff1673ffffffffffffffffffffffffffffffffffffffff1663313ce5676040518163ffffffff1660e01b815260040160206040518083038186803b1580156109dc57600080fd5b505afa1580156109f0573d6000803e3d6000fd5b505050506040513d6020811015610a0657600080fd5b810190808051906020019092919050505060ff16905080600a0a82029150600260009054906101000a900473ffffffffffffffffffffffffffffffffffffffff1673ffffffffffffffffffffffffffffffffffffffff16639fdaea0c6040518060600160405280600081526020018681526020016000815250846040518363ffffffff1660e01b81526004018083600360200280838360005b83811015610aba578082015181840152602081019050610a9f565b5050505090500182815260200192505050600060405180830381600087803b158015610ae557600080fd5b505af1158015610af9573d6000803e3d6000fd5b5050505060008054906101000a900473ffffffffffffffffffffffffffffffffffffffff1673ffffffffffffffffffffffffffffffffffffffff1663a9059cbb600660009054906101000a900473ffffffffffffffffffffffffffffffffffffffff1660008054906101000a900473ffffffffffffffffffffffffffffffffffffffff1673ffffffffffffffffffffffffffffffffffffffff166370a08231306040518263ffffffff1660e01b8152600401808273ffffffffffffffffffffffffffffffffffffffff16815260200191505060206040518083038186803b158015610be357600080fd5b505afa158015610bf7573d6000803e3d6000fd5b505050506040513d6020811015610c0d57600080fd5b81019080805190602001909291905050506040518363ffffffff1660e01b8152600401808373ffffffffffffffffffffffffffffffffffffffff16815260200182815260200192505050602060405180830381600087803b158015610c7157600080fd5b505af1158015610c85573d6000803e3d6000fd5b505050506040513d6020811015610c9b57600080fd5b81019080805190602001909291905050505082600760008282540392505081905550505050565b600c60009054906101000a900473ffffffffffffffffffffffffffffffffffffffff1681565b600b60009054906101000a900473ffffffffffffffffffffffffffffffffffffffff1681565b600d60009054906101000a900473ffffffffffffffffffffffffffffffffffffffff1681565b600960019054906101000a900473ffffffffffffffffffffffffffffffffffffffff1673ffffffffffffffffffffffffffffffffffffffff163373ffffffffffffffffffffffffffffffffffffffff161480610ddd5750600560009054906101000a900473ffffffffffffffffffffffffffffffffffffffff1673ffffffffffffffffffffffffffffffffffffffff163373ffffffffffffffffffffffffffffffffffffffff16145b610e4f576040517f08c379a000000000000000000000000000000000000000000000000000000000815260040180806020018281038252600e8152602001807f6e6f7420617574686f72697a656400000000000000000000000000000000000081525060200191505060405180910390fd5b6000600160009054906101000a900473ffffffffffffffffffffffffffffffffffffffff1673ffffffffffffffffffffffffffffffffffffffff166370a08231306040518263ffffffff1660e01b8152600401808273ffffffffffffffffffffffffffffffffffffffff16815260200191505060206040518083038186803b158015610eda57600080fd5b505afa158015610eee573d6000803e3d6000fd5b505050506040513d6020811015610f0457600080fd5b810190808051906020019092919050505090506000600a60075481610f2557fe5b04600754039050600260009054906101000a900473ffffffffffffffffffffffffffffffffffffffff1673ffffffffffffffffffffffffffffffffffffffff16631a4d01d2836001846040518463ffffffff1660e01b8152600401808481526020018381526020018281526020019350505050600060405180830381600087803b158015610fb257600080fd5b505af1158015610fc6573d6000803e3d6000fd5b5050505060008054906101000a900473ffffffffffffffffffffffffffffffffffffffff1673ffffffffffffffffffffffffffffffffffffffff1663a9059cbb600560009054906101000a900473ffffffffffffffffffffffffffffffffffffffff1660008054906101000a900473ffffffffffffffffffffffffffffffffffffffff1673ffffffffffffffffffffffffffffffffffffffff166370a08231306040518263ffffffff1660e01b8152600401808273ffffffffffffffffffffffffffffffffffffffff16815260200191505060206040518083038186803b1580156110b057600080fd5b505afa1580156110c4573d6000803e3d6000fd5b505050506040513d60208110156110da57600080fd5b81019080805190602001909291905050506040518363ffffffff1660e01b8152600401808373ffffffffffffffffffffffffffffffffffffffff16815260200182815260200192505050602060405180830381600087803b15801561113e57600080fd5b505af1158015611152573d6000803e3d6000fd5b505050506040513d602081101561116857600080fd5b8101908080519060200190929190505050505050565b600960009054906101000a900460ff1681565b600960019054906101000a900473ffffffffffffffffffffffffffffffffffffffff1681565b600960019054906101000a900473ffffffffffffffffffffffffffffffffffffffff1673ffffffffffffffffffffffffffffffffffffffff163373ffffffffffffffffffffffffffffffffffffffff1614806112605750600560009054906101000a900473ffffffffffffffffffffffffffffffffffffffff1673ffffffffffffffffffffffffffffffffffffffff163373ffffffffffffffffffffffffffffffffffffffff16145b6112d2576040517f08c379a000000000000000000000000000000000000000000000000000000000815260040180806020018281038252600e8152602001807f6e6f7420617574686f72697a656400000000000000000000000000000000000081525060200191505060405180910390fd5b80600960006101000a81548160ff021916908360ff16021790555050565b600360009054906101000a900473ffffffffffffffffffffffffffffffffffffffff1681565b600960019054906101000a900473ffffffffffffffffffffffffffffffffffffffff1673ffffffffffffffffffffffffffffffffffffffff163373ffffffffffffffffffffffffffffffffffffffff1614806113bf5750600560009054906101000a900473ffffffffffffffffffffffffffffffffffffffff1673ffffffffffffffffffffffffffffffffffffffff163373ffffffffffffffffffffffffffffffffffffffff16145b611431576040517f08c379a000000000000000000000000000000000000000000000000000000000815260040180806020018281038252600e8152602001807f6e6f7420617574686f72697a656400000000000000000000000000000000000081525060200191505060405180910390fd5b60008054906101000a900473ffffffffffffffffffffffffffffffffffffffff1673ffffffffffffffffffffffffffffffffffffffff1663095ea7b3600260009054906101000a900473ffffffffffffffffffffffffffffffffffffffff16836040518363ffffffff1660e01b8152600401808373ffffffffffffffffffffffffffffffffffffffff16815260200182815260200192505050602060405180830381600087803b1580156114e457600080fd5b505af11580156114f8573d6000803e3d6000fd5b505050506040513d602081101561150e57600080fd5b8101908080519060200190929190505050506000600260009054906101000a900473ffffffffffffffffffffffffffffffffffffffff1673ffffffffffffffffffffffffffffffffffffffff16633883e119604051806060016040528060008152602001858152602001600081525060016040518363ffffffff1660e01b81526004018083600360200280838360005b838110156115b957808201518184015260208101905061159e565b5050505090500182151581526020019250505060206040518083038186803b1580156115e457600080fd5b505afa1580156115f8573d6000803e3d6000fd5b505050506040513d602081101561160e57600080fd5b810190808051906020019092919050505090506064816063028161162e57fe5b049050600260009054906101000a900473ffffffffffffffffffffffffffffffffffffffff1673ffffffffffffffffffffffffffffffffffffffff16634515cef36040518060600160405280600081526020018581526020016000815250836040518363ffffffff1660e01b81526004018083600360200280838360005b838110156116c75780820151818401526020810190506116ac565b5050505090500182815260200192505050600060405180830381600087803b1580156116f257600080fd5b505af1158015611706573d6000803e3d6000fd5b50505050600260009054906101000a900473ffffffffffffffffffffffffffffffffffffffff1673ffffffffffffffffffffffffffffffffffffffff1663bb7b8b806040518163ffffffff1660e01b815260040160206040518083038186803b15801561177257600080fd5b505afa158015611786573d6000803e3d6000fd5b505050506040513d602081101561179c57600080fd5b8101908080519060200190929190505050600881905550816007600082825401925050819055505050565b6000600960019054906101000a900473ffffffffffffffffffffffffffffffffffffffff1673ffffffffffffffffffffffffffffffffffffffff163373ffffffffffffffffffffffffffffffffffffffff1614806118725750600560009054906101000a900473ffffffffffffffffffffffffffffffffffffffff1673ffffffffffffffffffffffffffffffffffffffff163373ffffffffffffffffffffffffffffffffffffffff16145b6118e4576040517f08c379a000000000000000000000000000000000000000000000000000000000815260040180806020018281038252600e8152602001807f6e6f7420617574686f72697a656400000000000000000000000000000000000081525060200191505060405180910390fd5b6118ec612515565b6000600c60009054906101000a900473ffffffffffffffffffffffffffffffffffffffff1673ffffffffffffffffffffffffffffffffffffffff166370a08231306040518263ffffffff1660e01b8152600401808273ffffffffffffffffffffffffffffffffffffffff16815260200191505060206040518083038186803b15801561197757600080fd5b505afa15801561198b573d6000803e3d6000fd5b505050506040513d60208110156119a157600080fd5b8101908080519060200190929190505050905060008060009054906101000a900473ffffffffffffffffffffffffffffffffffffffff1673ffffffffffffffffffffffffffffffffffffffff166370a08231306040518263ffffffff1660e01b8152600401808273ffffffffffffffffffffffffffffffffffffffff16815260200191505060206040518083038186803b158015611a3e57600080fd5b505afa158015611a52573d6000803e3d6000fd5b505050506040513d6020811015611a6857600080fd5b8101908080519060200190929190505050905060008211611af1576040517f08c379a00000000000000000000000000000000000000000000000000000000081526004018080602001828103825260108152602001807f696e73756666696369656e74204352560000000000000000000000000000000081525060200191505060405180910390fd5b600c60009054906101000a900473ffffffffffffffffffffffffffffffffffffffff1673ffffffffffffffffffffffffffffffffffffffff1663095ea7b3600b60009054906101000a900473ffffffffffffffffffffffffffffffffffffffff16846040518363ffffffff1660e01b8152600401808373ffffffffffffffffffffffffffffffffffffffff16815260200182815260200192505050602060405180830381600087803b158015611ba657600080fd5b505af1158015611bba573d6000803e3d6000fd5b505050506040513d6020811015611bd057600080fd5b8101908080519060200190929190505050506060600367ffffffffffffffff81118015611bfc57600080fd5b50604051908082528060200260200182016040528015611c2b5781602001602082028036833780820191505090505b509050600c60009054906101000a900473ffffffffffffffffffffffffffffffffffffffff1681600081518110611c5e57fe5b602002602001019073ffffffffffffffffffffffffffffffffffffffff16908173ffffffffffffffffffffffffffffffffffffffff1681525050600d60009054906101000a900473ffffffffffffffffffffffffffffffffffffffff1681600181518110611cc857fe5b602002602001019073ffffffffffffffffffffffffffffffffffffffff16908173ffffffffffffffffffffffffffffffffffffffff168152505060008054906101000a900473ffffffffffffffffffffffffffffffffffffffff1681600281518110611d3057fe5b602002602001019073ffffffffffffffffffffffffffffffffffffffff16908173ffffffffffffffffffffffffffffffffffffffff1681525050600b60009054906101000a900473ffffffffffffffffffffffffffffffffffffffff1673ffffffffffffffffffffffffffffffffffffffff166338ed1739846000843061070842016040518663ffffffff1660e01b815260040180868152602001858152602001806020018473ffffffffffffffffffffffffffffffffffffffff168152602001838152602001828103825285818151815260200191508051906020019060200280838360005b83811015611e32578082015181840152602081019050611e17565b505050509050019650505050505050600060405180830381600087803b158015611e5b57600080fd5b505af1158015611e6f573d6000803e3d6000fd5b5050505060008060009054906101000a900473ffffffffffffffffffffffffffffffffffffffff1673ffffffffffffffffffffffffffffffffffffffff166370a08231306040518263ffffffff1660e01b8152600401808273ffffffffffffffffffffffffffffffffffffffff16815260200191505060206040518083038186803b158015611efd57600080fd5b505afa158015611f11573d6000803e3d6000fd5b505050506040513d6020811015611f2757600080fd5b8101908080519060200190929190505050905060008054906101000a900473ffffffffffffffffffffffffffffffffffffffff1673ffffffffffffffffffffffffffffffffffffffff1663095ea7b3600560009054906101000a900473ffffffffffffffffffffffffffffffffffffffff168584036040518363ffffffff1660e01b8152600401808373ffffffffffffffffffffffffffffffffffffffff16815260200182815260200192505050602060405180830381600087803b158015611fef57600080fd5b505af1158015612003573d6000803e3d6000fd5b505050506040513d602081101561201957600080fd5b81019080805190602001909291905050505082810394505050505090565b600960019054906101000a900473ffffffffffffffffffffffffffffffffffffffff1673ffffffffffffffffffffffffffffffffffffffff163373ffffffffffffffffffffffffffffffffffffffff1614806120e05750600560009054906101000a900473ffffffffffffffffffffffffffffffffffffffff1673ffffffffffffffffffffffffffffffffffffffff163373ffffffffffffffffffffffffffffffffffffffff16145b612152576040517f08c379a000000000000000000000000000000000000000000000000000000000815260040180806020018281038252600e8152602001807f6e6f7420617574686f72697a656400000000000000000000000000000000000081525060200191505060405180910390fd5b80600a5410156121ca576040517f08c379a000000000000000000000000000000000000000000000000000000000815260040180806020018281038252601f8152602001807f596f752068617665206e6f74207374616b6564207468617420616d6f756e740081525060200191505060405180910390fd5b600360009054906101000a900473ffffffffffffffffffffffffffffffffffffffff1673ffffffffffffffffffffffffffffffffffffffff16632e1a7d4d826040518263ffffffff1660e01b815260040180828152602001915050600060405180830381600087803b15801561223f57600080fd5b505af1158015612253573d6000803e3d6000fd5b5050505080600a6000828254039250508190555050565b6000600960019054906101000a900473ffffffffffffffffffffffffffffffffffffffff1673ffffffffffffffffffffffffffffffffffffffff163373ffffffffffffffffffffffffffffffffffffffff1614806123155750600560009054906101000a900473ffffffffffffffffffffffffffffffffffffffff1673ffffffffffffffffffffffffffffffffffffffff163373ffffffffffffffffffffffffffffffffffffffff16145b612387576040517f08c379a000000000000000000000000000000000000000000000000000000000815260040180806020018281038252600e8152602001807f6e6f7420617574686f72697a656400000000000000000000000000000000000081525060200191505060405180910390fd5b6000600260009054906101000a900473ffffffffffffffffffffffffffffffffffffffff1673ffffffffffffffffffffffffffffffffffffffff1663bb7b8b806040518163ffffffff1660e01b815260040160206040518083038186803b1580156123f157600080fd5b505afa158015612405573d6000803e3d6000fd5b505050506040513d602081101561241b57600080fd5b810190808051906020019092919050505090506000670de0b6b3a76400006008548303600160009054906101000a900473ffffffffffffffffffffffffffffffffffffffff1673ffffffffffffffffffffffffffffffffffffffff166370a08231306040518263ffffffff1660e01b8152600401808273ffffffffffffffffffffffffffffffffffffffff16815260200191505060206040518083038186803b1580156124c757600080fd5b505afa1580156124db573d6000803e3d6000fd5b505050506040513d60208110156124f157600080fd5b8101908080519060200190929190505050028161250a57fe5b049050809250505090565b600460009054906101000a900473ffffffffffffffffffffffffffffffffffffffff1673ffffffffffffffffffffffffffffffffffffffff16636a627842600360009054906101000a900473ffffffffffffffffffffffffffffffffffffffff166040518263ffffffff1660e01b8152600401808273ffffffffffffffffffffffffffffffffffffffff168152602001915050600060405180830381600087803b1580156125c257600080fd5b505af11580156125d6573d6000803e3d6000fd5b5050505056fea2646970667358221220d9fb1c985ca517f64537c1e48294d8529db8075992932111404fd1147424446b64736f6c634300060c0033",
  "immutableReferences": {},
  "source": "// SPDX-License-Identifier: UNLICENSED\r\npragma solidity ^0.6.0;\r\n\r\nimport '../../Interfaces/CurveInterface.sol';\r\nimport '../../Interfaces/ERC20Interface.sol';\r\nimport '../../Interfaces/UniswapInterface.sol';\r\n\r\n\r\ncontract rUSDC3Pool {\r\n\r\n    Erc20 Coin;\r\n    Erc20 PoolToken;\r\n    curvePool public Pool;\r\n    PoolGauge public gauge;\r\n    Minter public minter;\r\n\r\n    address rControllerAddress;\r\n    address RoyaleLPaddr;\r\n\r\n    uint256 depositBal;\r\n    uint256 virtual_price;\r\n\r\n    uint8 public _perc=75;\r\n    \r\n    address public owner;\r\n\r\n    uint256 stakedAmt;\r\n\r\n    address public uniAddr;\r\n    address public crvAddr;\r\n    address public wethAddr;\r\n\r\n    modifier onlyAuthorized {\r\n        require(msg.sender == owner || msg.sender == rControllerAddress,\"not authorized\");\r\n        _;\r\n    }\r\n\r\n    constructor(\r\n        address _controller, \r\n        address _crvpool,\r\n        address _coin,\r\n        address _crvtoken,\r\n        address _royaLP,\r\n        address _gauge\r\n        // minter address\r\n    ) public {\r\n        owner = msg.sender;\r\n        rControllerAddress = _controller;\r\n        Pool = curvePool(_crvpool);\r\n        Coin = Erc20(_coin);\r\n        PoolToken = Erc20(_crvtoken);\r\n        RoyaleLPaddr = _royaLP;\r\n        gauge = PoolGauge(_gauge);\r\n    }\r\n\r\n\r\n    function set3CRVPercentage(uint8 _percentage3CRV)external onlyAuthorized{\r\n        _perc=_percentage3CRV;\r\n    }\r\n\r\n    function deposit(uint amount) external onlyAuthorized {\r\n        Coin.approve(address(Pool), amount);\r\n        \r\n        uint mintAmount = Pool.calc_token_amount([0, amount, 0], true);\r\n        mintAmount = (99 * mintAmount) / 100;\r\n        Pool.add_liquidity([0, amount, 0], mintAmount);\r\n        virtual_price = Pool.get_virtual_price();\r\n        depositBal += amount;\r\n    }\r\n\r\n    function withdraw(uint amount) external onlyAuthorized{\r\n        uint256 max_burn = 0;\r\n        uint256 decimal = 0;\r\n\r\n        decimal = Coin.decimals();\r\n        max_burn = amount / 10**decimal;\r\n\r\n        max_burn = max_burn + (max_burn * 2) / 100;\r\n        decimal = PoolToken.decimals();\r\n        max_burn = max_burn * 10**decimal;\r\n\r\n        Pool.remove_liquidity_imbalance([0, amount, 0], max_burn);\r\n        \r\n        Coin.transfer(RoyaleLPaddr, Coin.balanceOf(address(this)));\r\n        \r\n        depositBal -= amount;\r\n    }\r\n\r\n    function withdrawAll() external onlyAuthorized {\r\n        uint bal = PoolToken.balanceOf(address(this));\r\n\r\n        uint min_amount = depositBal - (depositBal / 10);\r\n        Pool.remove_liquidity_one_coin(bal, 1, min_amount);\r\n        Coin.transfer(rControllerAddress, Coin.balanceOf(address(this)));\r\n    }\r\n\r\n    function stakeLP() external onlyAuthorized {\r\n        uint depositAmt = ((PoolToken.balanceOf(address(this))+stakedAmt) * _perc) / 100;\r\n        depositAmt-=stakedAmt;\r\n         if(depositAmt!=0){\r\n           PoolToken.approve(address(gauge), depositAmt);\r\n           gauge.deposit(depositAmt);\r\n           stakedAmt+=depositAmt;\r\n        }\r\n    }\r\n\r\n   function unstakeLP(uint _amount) external onlyAuthorized {\r\n        require(stakedAmt>=_amount,\"You have not staked that amount\");\r\n        gauge.withdraw(_amount);\r\n        stakedAmt -=_amount;\r\n    }\r\n\r\n    function _claimCRV() internal  {\r\n        minter.mint(address(gauge));\r\n    }\r\n\r\n    function calculateProfit() external view onlyAuthorized returns(uint256) {\r\n         uint current_virtual_price = Pool.get_virtual_price();\r\n         uint profit = (PoolToken.balanceOf(address(this))*(current_virtual_price-virtual_price))/(10**18);\r\n         return profit;\r\n    }\r\n\r\n    function sellCRV() external onlyAuthorized returns(uint256) {\r\n        _claimCRV();\r\n        uint256 crvAmt = Erc20(crvAddr).balanceOf(address(this));\r\n        uint256 prevCoin=Coin.balanceOf(address(this));\r\n\r\n        require(crvAmt > 0, \"insufficient CRV\");\r\n\r\n        Erc20(crvAddr).approve(uniAddr, crvAmt);\r\n\r\n        address[] memory path = new address[](3);\r\n        path[0] = crvAddr;\r\n        path[1] = wethAddr;\r\n        path[2] = address(Coin);\r\n\r\n        UniswapI(uniAddr).swapExactTokensForTokens(\r\n            crvAmt, \r\n            uint256(0), \r\n            path, \r\n            address(this), \r\n            now + 1800\r\n        );\r\n        uint256 postCoin=Coin.balanceOf(address(this));\r\n        Coin.approve(rControllerAddress,postCoin-prevCoin);\r\n        return (postCoin-prevCoin);\r\n    }\r\n\r\n}",
  "sourcePath": "C:/Users/MayankVats/Desktop/WORK/blockchain/Royale/rlp/contracts/rStrategies/rUSDC3Pool.sol",
  "compiler": {
    "name": "solc",
    "version": "0.6.12+commit.27d51765.Emscripten.clang"
  },
  "schemaVersion": "3.3.2",
  "updatedAt": "2020-12-24T14:00:15.689Z",
  "devdoc": {
    "kind": "dev",
    "methods": {},
    "version": 1
  },
  "userdoc": {
    "kind": "user",
    "methods": {},
    "version": 1
  }
}