{
  "contractName": "StakingLots",
  "abi": [
    {
      "inputs": [
        {
          "internalType": "contract RoyaleToken",
          "name": "_roya",
          "type": "address"
        },
        {
          "internalType": "contract USDC",
          "name": "_usdc",
          "type": "address"
        }
      ],
      "stateMutability": "nonpayable",
      "type": "constructor"
    },
    {
      "inputs": [],
      "name": "depositedStakesCount",
      "outputs": [
        {
          "internalType": "uint256",
          "name": "",
          "type": "uint256"
        }
      ],
      "stateMutability": "view",
      "type": "function"
    },
    {
      "inputs": [],
      "name": "owner",
      "outputs": [
        {
          "internalType": "address",
          "name": "",
          "type": "address"
        }
      ],
      "stateMutability": "view",
      "type": "function"
    },
    {
      "inputs": [
        {
          "internalType": "uint256",
          "name": "",
          "type": "uint256"
        }
      ],
      "name": "stakeOptions",
      "outputs": [
        {
          "internalType": "string",
          "name": "stakeName",
          "type": "string"
        },
        {
          "internalType": "uint256",
          "name": "stakeID",
          "type": "uint256"
        },
        {
          "internalType": "uint256",
          "name": "interestPercentage",
          "type": "uint256"
        },
        {
          "internalType": "uint256",
          "name": "penaltyPercentage",
          "type": "uint256"
        },
        {
          "internalType": "uint8",
          "name": "durationDays",
          "type": "uint8"
        }
      ],
      "stateMutability": "view",
      "type": "function"
    },
    {
      "inputs": [],
      "name": "stakeOptionsCount",
      "outputs": [
        {
          "internalType": "uint256",
          "name": "",
          "type": "uint256"
        }
      ],
      "stateMutability": "view",
      "type": "function"
    },
    {
      "inputs": [
        {
          "internalType": "address",
          "name": "",
          "type": "address"
        },
        {
          "internalType": "uint256",
          "name": "",
          "type": "uint256"
        }
      ],
      "name": "stakes",
      "outputs": [
        {
          "internalType": "address",
          "name": "staker",
          "type": "address"
        },
        {
          "internalType": "uint256",
          "name": "stakeID",
          "type": "uint256"
        },
        {
          "internalType": "uint256",
          "name": "stakedAmount",
          "type": "uint256"
        },
        {
          "internalType": "uint256",
          "name": "startTimeStamp",
          "type": "uint256"
        },
        {
          "internalType": "uint256",
          "name": "initialStakedAmount",
          "type": "uint256"
        },
        {
          "internalType": "uint256",
          "name": "lastWithdrawTimestamp",
          "type": "uint256"
        }
      ],
      "stateMutability": "view",
      "type": "function"
    },
    {
      "inputs": [
        {
          "internalType": "contract RoyaleToken",
          "name": "_roya",
          "type": "address"
        }
      ],
      "name": "setRoyaContractAddress",
      "outputs": [],
      "stateMutability": "nonpayable",
      "type": "function"
    },
    {
      "inputs": [
        {
          "internalType": "contract USDC",
          "name": "_usdc",
          "type": "address"
        }
      ],
      "name": "setUSDCContractAddress",
      "outputs": [],
      "stateMutability": "nonpayable",
      "type": "function"
    },
    {
      "inputs": [
        {
          "internalType": "string",
          "name": "name",
          "type": "string"
        },
        {
          "internalType": "uint256",
          "name": "_interestPercentage",
          "type": "uint256"
        },
        {
          "internalType": "uint256",
          "name": "_penaltyPercentage",
          "type": "uint256"
        },
        {
          "internalType": "uint8",
          "name": "_duration",
          "type": "uint8"
        }
      ],
      "name": "addStakeOption",
      "outputs": [
        {
          "internalType": "bool",
          "name": "",
          "type": "bool"
        }
      ],
      "stateMutability": "nonpayable",
      "type": "function"
    },
    {
      "inputs": [
        {
          "internalType": "uint256",
          "name": "_amount",
          "type": "uint256"
        },
        {
          "internalType": "uint256",
          "name": "_stakeOptionID",
          "type": "uint256"
        }
      ],
      "name": "stakeRoya",
      "outputs": [
        {
          "internalType": "bool",
          "name": "",
          "type": "bool"
        }
      ],
      "stateMutability": "nonpayable",
      "type": "function"
    },
    {
      "inputs": [
        {
          "internalType": "address",
          "name": "staker",
          "type": "address"
        }
      ],
      "name": "getStakesCount",
      "outputs": [
        {
          "internalType": "uint256",
          "name": "",
          "type": "uint256"
        }
      ],
      "stateMutability": "view",
      "type": "function"
    },
    {
      "inputs": [
        {
          "internalType": "address",
          "name": "staker",
          "type": "address"
        },
        {
          "internalType": "uint256",
          "name": "stakeIndex",
          "type": "uint256"
        }
      ],
      "name": "getAccumulatedRewards",
      "outputs": [
        {
          "internalType": "uint256",
          "name": "",
          "type": "uint256"
        }
      ],
      "stateMutability": "view",
      "type": "function"
    },
    {
      "inputs": [
        {
          "internalType": "address",
          "name": "staker",
          "type": "address"
        },
        {
          "internalType": "uint256",
          "name": "stakeIndex",
          "type": "uint256"
        }
      ],
      "name": "claimRewards",
      "outputs": [
        {
          "internalType": "bool",
          "name": "",
          "type": "bool"
        }
      ],
      "stateMutability": "nonpayable",
      "type": "function"
    },
    {
      "inputs": [
        {
          "internalType": "uint256",
          "name": "_stakeIndex",
          "type": "uint256"
        }
      ],
      "name": "withdrawStakedRoya",
      "outputs": [],
      "stateMutability": "nonpayable",
      "type": "function"
    },
    {
      "inputs": [
        {
          "internalType": "uint256",
          "name": "_amount",
          "type": "uint256"
        },
        {
          "internalType": "uint256",
          "name": "_stakeIndex",
          "type": "uint256"
        }
      ],
      "name": "withdrawStakedRoyaWithPenalty",
      "outputs": [],
      "stateMutability": "nonpayable",
      "type": "function"
    }
  ],
  "bytecode": "0x6080604052600060035560006004553480156200001b57600080fd5b506040516200278138038062002781833981810160405260408110156200004157600080fd5b810190808051906020019092919080519060200190929190505050336000806101000a81548173ffffffffffffffffffffffffffffffffffffffff021916908373ffffffffffffffffffffffffffffffffffffffff16021790555081600160006101000a81548173ffffffffffffffffffffffffffffffffffffffff021916908373ffffffffffffffffffffffffffffffffffffffff16021790555080600260006101000a81548173ffffffffffffffffffffffffffffffffffffffff021916908373ffffffffffffffffffffffffffffffffffffffff1602179055506200012862000428565b6040518060a001604052806040518060400160405280600481526020017f4b696e670000000000000000000000000000000000000000000000000000000081525081526020016000815260200161271081526020016113888152602001600360ff1681525090506200019962000428565b6040518060a001604052806040518060400160405280600581526020017f517565656e00000000000000000000000000000000000000000000000000000081525081526020016001815260200161138881526020016107d08152602001600260ff1681525090506200020a62000428565b6040518060a001604052806040518060400160405280600581526020017f466c7573680000000000000000000000000000000000000000000000000000008152508152602001600281526020016107d081526020016103e88152602001600160ff16815250905060058390806001815401808255809150506001900390600052602060002090600502016000909190919091506000820151816000019080519060200190620002bb9291906200045a565b5060208201518160010155604082015181600201556060820151816003015560808201518160040160006101000a81548160ff021916908360ff160217905550505060058290806001815401808255809150506001900390600052602060002090600502016000909190919091506000820151816000019080519060200190620003479291906200045a565b5060208201518160010155604082015181600201556060820151816003015560808201518160040160006101000a81548160ff021916908360ff160217905550505060058190806001815401808255809150506001900390600052602060002090600502016000909190919091506000820151816000019080519060200190620003d39291906200045a565b5060208201518160010155604082015181600201556060820151816003015560808201518160040160006101000a81548160ff021916908360ff16021790555050506003600481905550505050505062000500565b6040518060a0016040528060608152602001600081526020016000815260200160008152602001600060ff1681525090565b828054600181600116156101000203166002900490600052602060002090601f016020900481019282601f106200049d57805160ff1916838001178555620004ce565b82800160010185558215620004ce579182015b82811115620004cd578251825591602001919060010190620004b0565b5b509050620004dd9190620004e1565b5090565b5b80821115620004fc576000816000905550600101620004e2565b5090565b61227180620005106000396000f3fe608060405234801561001057600080fd5b50600436106100ea5760003560e01c80638da5cb5b1161008c5780639bbdc2b3116100665780639bbdc2b3146104c6578063c0147b67146104e4578063f04b3db314610528578063f5bfcb06146105ee576100ea565b80638da5cb5b1461040057806391b04812146104345780639a99b4f014610462576100ea565b8063549b5bfc116100c8578063549b5bfc146101e357806356cc40b21461023b578063584b62a11461032d57806371297b02146103c8576100ea565b80633170c1ba146100ef578063378796cb14610133578063476d69c514610195575b600080fd5b6101316004803603602081101561010557600080fd5b81019080803573ffffffffffffffffffffffffffffffffffffffff16906020019092919050505061060c565b005b61017f6004803603604081101561014957600080fd5b81019080803573ffffffffffffffffffffffffffffffffffffffff169060200190929190803590602001909291905050506106a8565b6040518082815260200191505060405180910390f35b6101cb600480360360408110156101ab57600080fd5b81019080803590602001909291908035906020019092919050505061098d565b60405180821515815260200191505060405180910390f35b610225600480360360208110156101f957600080fd5b81019080803573ffffffffffffffffffffffffffffffffffffffff169060200190929190505050610e05565b6040518082815260200191505060405180910390f35b6103156004803603608081101561025157600080fd5b810190808035906020019064010000000081111561026e57600080fd5b82018360208201111561028057600080fd5b803590602001918460018302840111640100000000831117156102a257600080fd5b91908080601f016020809104026020016040519081016040528093929190818152602001838380828437600081840152601f19601f8201169050808301925050505050505091929192908035906020019092919080359060200190929190803560ff169060200190929190505050610e51565b60405180821515815260200191505060405180910390f35b6103796004803603604081101561034357600080fd5b81019080803573ffffffffffffffffffffffffffffffffffffffff16906020019092919080359060200190929190505050610f8d565b604051808773ffffffffffffffffffffffffffffffffffffffff168152602001868152602001858152602001848152602001838152602001828152602001965050505050505060405180910390f35b6103fe600480360360408110156103de57600080fd5b810190808035906020019092919080359060200190929190505050611003565b005b61040861164f565b604051808273ffffffffffffffffffffffffffffffffffffffff16815260200191505060405180910390f35b6104606004803603602081101561044a57600080fd5b8101908080359060200190929190505050611673565b005b6104ae6004803603604081101561047857600080fd5b81019080803573ffffffffffffffffffffffffffffffffffffffff16906020019092919080359060200190929190505050611d41565b60405180821515815260200191505060405180910390f35b6104ce611e86565b6040518082815260200191505060405180910390f35b610526600480360360208110156104fa57600080fd5b81019080803573ffffffffffffffffffffffffffffffffffffffff169060200190929190505050611e8c565b005b6105546004803603602081101561053e57600080fd5b8101908080359060200190929190505050611f28565b60405180806020018681526020018581526020018481526020018360ff168152602001828103825287818151815260200191508051906020019080838360005b838110156105af578082015181840152602081019050610594565b50505050905090810190601f1680156105dc5780820380516001836020036101000a031916815260200191505b50965050505050505060405180910390f35b6105f6612010565b6040518082815260200191505060405180910390f35b60008054906101000a900473ffffffffffffffffffffffffffffffffffffffff1673ffffffffffffffffffffffffffffffffffffffff163373ffffffffffffffffffffffffffffffffffffffff161461066457600080fd5b80600260006101000a81548173ffffffffffffffffffffffffffffffffffffffff021916908373ffffffffffffffffffffffffffffffffffffffff16021790555050565b60006106b2612120565b6005600660008673ffffffffffffffffffffffffffffffffffffffff1673ffffffffffffffffffffffffffffffffffffffff16815260200190815260200160002084815481106106fe57fe5b9060005260206000209060060201600101548154811061071a57fe5b90600052602060002090600502016040518060a0016040529081600082018054600181600116156101000203166002900480601f0160208091040260200160405190810160405280929190818152602001828054600181600116156101000203166002900480156107cc5780601f106107a1576101008083540402835291602001916107cc565b820191906000526020600020905b8154815290600101906020018083116107af57829003601f168201915b505050505081526020016001820154815260200160028201548152602001600382015481526020016004820160009054906101000a900460ff1660ff1660ff16815250509050600062015180600660008773ffffffffffffffffffffffffffffffffffffffff1673ffffffffffffffffffffffffffffffffffffffff168152602001908152602001600020858154811061086257fe5b90600052602060002090600602016005015442038161087d57fe5b049050600062015180600660008873ffffffffffffffffffffffffffffffffffffffff1673ffffffffffffffffffffffffffffffffffffffff16815260200190815260200160002086815481106108d057fe5b9060005260206000209060060201600301544203816108eb57fe5b049050826080015160ff1681111561090c57826080015160ff168103820391505b6000620591c8838560400151600660008b73ffffffffffffffffffffffffffffffffffffffff1673ffffffffffffffffffffffffffffffffffffffff168152602001908152602001600020898154811061096257fe5b90600052602060002090600602016002015402028161097d57fe5b0490508094505050505092915050565b6000808311610a04576040517f08c379a00000000000000000000000000000000000000000000000000000000081526004018080602001828103825260208152602001807f4465706f736974656420616d6f756e742063616e206e6f74206265207a65726f81525060200191505060405180910390fd5b600082118015610a1657506004548211155b610a88576040517f08c379a00000000000000000000000000000000000000000000000000000000081526004018080602001828103825260198152602001807f506c656173652063686f6f73652076616c6964207374616b650000000000000081525060200191505060405180910390fd5b82600160009054906101000a900473ffffffffffffffffffffffffffffffffffffffff1673ffffffffffffffffffffffffffffffffffffffff166370a08231336040518263ffffffff1660e01b8152600401808273ffffffffffffffffffffffffffffffffffffffff16815260200191505060206040518083038186803b158015610b1257600080fd5b505afa158015610b26573d6000803e3d6000fd5b505050506040513d6020811015610b3c57600080fd5b81019080805190602001909291905050501015610bc1576040517f08c379a00000000000000000000000000000000000000000000000000000000081526004018080602001828103825260148152602001807f496e73756666696369656e742062616c616e636500000000000000000000000081525060200191505060405180910390fd5b6000429050610bce612152565b6040518060c001604052803373ffffffffffffffffffffffffffffffffffffffff1681526020018581526020018681526020018381526020018681526020018381525090506000600160009054906101000a900473ffffffffffffffffffffffffffffffffffffffff1673ffffffffffffffffffffffffffffffffffffffff166323b872dd3330896040518463ffffffff1660e01b8152600401808473ffffffffffffffffffffffffffffffffffffffff1681526020018373ffffffffffffffffffffffffffffffffffffffff1681526020018281526020019350505050602060405180830381600087803b158015610cc657600080fd5b505af1158015610cda573d6000803e3d6000fd5b505050506040513d6020811015610cf057600080fd5b81019080805190602001909291905050509050600660003373ffffffffffffffffffffffffffffffffffffffff1673ffffffffffffffffffffffffffffffffffffffff16815260200190815260200160002082908060018154018082558091505060019003906000526020600020906006020160009091909190915060008201518160000160006101000a81548173ffffffffffffffffffffffffffffffffffffffff021916908373ffffffffffffffffffffffffffffffffffffffff1602179055506020820151816001015560408201518160020155606082015181600301556080820151816004015560a08201518160050155505060036000815480929190600101919050555080935050505092915050565b6000600660008373ffffffffffffffffffffffffffffffffffffffff1673ffffffffffffffffffffffffffffffffffffffff168152602001908152602001600020805490509050919050565b60008060009054906101000a900473ffffffffffffffffffffffffffffffffffffffff1673ffffffffffffffffffffffffffffffffffffffff163373ffffffffffffffffffffffffffffffffffffffff1614610eac57600080fd5b610eb4612120565b6040518060a0016040528087815260200160045481526020018681526020018581526020018460ff16815250905060058190806001815401808255809150506001900390600052602060002090600502016000909190919091506000820151816000019080519060200190610f2a92919061219e565b5060208201518160010155604082015181600201556060820151816003015560808201518160040160006101000a81548160ff021916908360ff160217905550505060016004540160048190555060045460058054905014915050949350505050565b60066020528160005260406000208181548110610fa657fe5b9060005260206000209060060201600091509150508060000160009054906101000a900473ffffffffffffffffffffffffffffffffffffffff16908060010154908060020154908060030154908060040154908060050154905086565b81600660003373ffffffffffffffffffffffffffffffffffffffff1673ffffffffffffffffffffffffffffffffffffffff168152602001908152602001600020828154811061104e57fe5b90600052602060002090600602016002015410156110d4576040517f08c379a00000000000000000000000000000000000000000000000000000000081526004018080602001828103825260128152602001807f4e6f7420656e6f7567682062616c616e6365000000000000000000000000000081525060200191505060405180910390fd5b600062015180600660003373ffffffffffffffffffffffffffffffffffffffff1673ffffffffffffffffffffffffffffffffffffffff168152602001908152602001600020838154811061112457fe5b90600052602060002090600602016003015442038161113f57fe5b0490506005600660003373ffffffffffffffffffffffffffffffffffffffff1673ffffffffffffffffffffffffffffffffffffffff168152602001908152602001600020838154811061118e57fe5b906000526020600020906006020160010154815481106111aa57fe5b906000526020600020906005020160040160009054906101000a900460ff1660ff16811015611241576040517f08c379a000000000000000000000000000000000000000000000000000000000815260040180806020018281038252601c8152602001807f5374616b65206475726174696f6e206e6f7420636f6d706c657465640000000081525060200191505060405180910390fd5b600061124d33846106a8565b905060006103e86005600660003373ffffffffffffffffffffffffffffffffffffffff1673ffffffffffffffffffffffffffffffffffffffff16815260200190815260200160002086815481106112a057fe5b906000526020600020906006020160010154815481106112bc57fe5b9060005260206000209060050201600301548602816112d757fe5b049050600260009054906101000a900473ffffffffffffffffffffffffffffffffffffffff1673ffffffffffffffffffffffffffffffffffffffff1663a9059cbb33846040518363ffffffff1660e01b8152600401808373ffffffffffffffffffffffffffffffffffffffff16815260200182815260200192505050602060405180830381600087803b15801561136d57600080fd5b505af1158015611381573d6000803e3d6000fd5b505050506040513d602081101561139757600080fd5b810190808051906020019092919050505050600160009054906101000a900473ffffffffffffffffffffffffffffffffffffffff1673ffffffffffffffffffffffffffffffffffffffff1663a9059cbb336113fb848961201690919063ffffffff16565b6040518363ffffffff1660e01b8152600401808373ffffffffffffffffffffffffffffffffffffffff16815260200182815260200192505050602060405180830381600087803b15801561144e57600080fd5b505af1158015611462573d6000803e3d6000fd5b505050506040513d602081101561147857600080fd5b810190808051906020019092919050505050600160009054906101000a900473ffffffffffffffffffffffffffffffffffffffff1673ffffffffffffffffffffffffffffffffffffffff1663a9059cbb60008054906101000a900473ffffffffffffffffffffffffffffffffffffffff16836040518363ffffffff1660e01b8152600401808373ffffffffffffffffffffffffffffffffffffffff16815260200182815260200192505050602060405180830381600087803b15801561153d57600080fd5b505af1158015611551573d6000803e3d6000fd5b505050506040513d602081101561156757600080fd5b81019080805190602001909291905050505042600660003373ffffffffffffffffffffffffffffffffffffffff1673ffffffffffffffffffffffffffffffffffffffff16815260200190815260200160002085815481106115c457fe5b90600052602060002090600602016005018190555061164785600660003373ffffffffffffffffffffffffffffffffffffffff1673ffffffffffffffffffffffffffffffffffffffff168152602001908152602001600020868154811061162757fe5b90600052602060002090600602016002015461201690919063ffffffff16565b505050505050565b60008054906101000a900473ffffffffffffffffffffffffffffffffffffffff1681565b6000600660003373ffffffffffffffffffffffffffffffffffffffff1673ffffffffffffffffffffffffffffffffffffffff16815260200190815260200160002082815481106116bf57fe5b9060005260206000209060060201600201549050600062015180600660003373ffffffffffffffffffffffffffffffffffffffff1673ffffffffffffffffffffffffffffffffffffffff168152602001908152602001600020848154811061172357fe5b90600052602060002090600602016003015442038161173e57fe5b0490506005600660003373ffffffffffffffffffffffffffffffffffffffff1673ffffffffffffffffffffffffffffffffffffffff168152602001908152602001600020848154811061178d57fe5b906000526020600020906006020160010154815481106117a957fe5b906000526020600020906005020160040160009054906101000a900460ff1660ff16811015611840576040517f08c379a000000000000000000000000000000000000000000000000000000000815260040180806020018281038252601c8152602001807f5374616b65206475726174696f6e206e6f7420636f6d706c657465640000000081525060200191505060405180910390fd5b600061184c33856106a8565b9050600260009054906101000a900473ffffffffffffffffffffffffffffffffffffffff1673ffffffffffffffffffffffffffffffffffffffff1663a9059cbb33836040518363ffffffff1660e01b8152600401808373ffffffffffffffffffffffffffffffffffffffff16815260200182815260200192505050602060405180830381600087803b1580156118e157600080fd5b505af11580156118f5573d6000803e3d6000fd5b505050506040513d602081101561190b57600080fd5b810190808051906020019092919050505050600160009054906101000a900473ffffffffffffffffffffffffffffffffffffffff1673ffffffffffffffffffffffffffffffffffffffff1663a9059cbb33856040518363ffffffff1660e01b8152600401808373ffffffffffffffffffffffffffffffffffffffff16815260200182815260200192505050602060405180830381600087803b1580156119b057600080fd5b505af11580156119c4573d6000803e3d6000fd5b505050506040513d60208110156119da57600080fd5b81019080805190602001909291905050505060008490505b6001600660003373ffffffffffffffffffffffffffffffffffffffff1673ffffffffffffffffffffffffffffffffffffffff1681526020019081526020016000208054905003811015611b9b57600660003373ffffffffffffffffffffffffffffffffffffffff1673ffffffffffffffffffffffffffffffffffffffff1681526020019081526020016000206001820181548110611a8c57fe5b9060005260206000209060060201600660003373ffffffffffffffffffffffffffffffffffffffff1673ffffffffffffffffffffffffffffffffffffffff1681526020019081526020016000208281548110611ae457fe5b90600052602060002090600602016000820160009054906101000a900473ffffffffffffffffffffffffffffffffffffffff168160000160006101000a81548173ffffffffffffffffffffffffffffffffffffffff021916908373ffffffffffffffffffffffffffffffffffffffff160217905550600182015481600101556002820154816002015560038201548160030155600482015481600401556005820154816005015590505080806001019150506119f2565b50600660003373ffffffffffffffffffffffffffffffffffffffff1673ffffffffffffffffffffffffffffffffffffffff1681526020019081526020016000206001600660003373ffffffffffffffffffffffffffffffffffffffff1673ffffffffffffffffffffffffffffffffffffffff168152602001908152602001600020805490500381548110611c2b57fe5b9060005260206000209060060201600080820160006101000a81549073ffffffffffffffffffffffffffffffffffffffff0219169055600182016000905560028201600090556003820160009055600482016000905560058201600090555050600660003373ffffffffffffffffffffffffffffffffffffffff1673ffffffffffffffffffffffffffffffffffffffff168152602001908152602001600020805480611cd357fe5b6001900381819060005260206000209060060201600080820160006101000a81549073ffffffffffffffffffffffffffffffffffffffff0219169055600182016000905560028201600090556003820160009055600482016000905560058201600090555050905550505050565b600080611d4e84846106a8565b9050600260009054906101000a900473ffffffffffffffffffffffffffffffffffffffff1673ffffffffffffffffffffffffffffffffffffffff1663a9059cbb85836040518363ffffffff1660e01b8152600401808373ffffffffffffffffffffffffffffffffffffffff16815260200182815260200192505050602060405180830381600087803b158015611de357600080fd5b505af1158015611df7573d6000803e3d6000fd5b505050506040513d6020811015611e0d57600080fd5b81019080805190602001909291905050505042600660008673ffffffffffffffffffffffffffffffffffffffff1673ffffffffffffffffffffffffffffffffffffffff1681526020019081526020016000208481548110611e6a57fe5b9060005260206000209060060201600501819055505092915050565b60035481565b60008054906101000a900473ffffffffffffffffffffffffffffffffffffffff1673ffffffffffffffffffffffffffffffffffffffff163373ffffffffffffffffffffffffffffffffffffffff1614611ee457600080fd5b80600160006101000a81548173ffffffffffffffffffffffffffffffffffffffff021916908373ffffffffffffffffffffffffffffffffffffffff16021790555050565b60058181548110611f3557fe5b9060005260206000209060050201600091509050806000018054600181600116156101000203166002900480601f016020809104026020016040519081016040528092919081815260200182805460018160011615610100020316600290048015611fe15780601f10611fb657610100808354040283529160200191611fe1565b820191906000526020600020905b815481529060010190602001808311611fc457829003601f168201915b5050505050908060010154908060020154908060030154908060040160009054906101000a900460ff16905085565b60045481565b600061205883836040518060400160405280601e81526020017f536166654d6174683a207375627472616374696f6e206f766572666c6f770000815250612060565b905092915050565b600083831115829061210d576040517f08c379a00000000000000000000000000000000000000000000000000000000081526004018080602001828103825283818151815260200191508051906020019080838360005b838110156120d25780820151818401526020810190506120b7565b50505050905090810190601f1680156120ff5780820380516001836020036101000a031916815260200191505b509250505060405180910390fd5b5060008385039050809150509392505050565b6040518060a0016040528060608152602001600081526020016000815260200160008152602001600060ff1681525090565b6040518060c00160405280600073ffffffffffffffffffffffffffffffffffffffff16815260200160008152602001600081526020016000815260200160008152602001600081525090565b828054600181600116156101000203166002900490600052602060002090601f016020900481019282601f106121df57805160ff191683800117855561220d565b8280016001018555821561220d579182015b8281111561220c5782518255916020019190600101906121f1565b5b50905061221a919061221e565b5090565b5b8082111561223757600081600090555060010161221f565b509056fea2646970667358221220317c24b0aaa1fdeb495f85697697ee5edd73c883a309542b47369d26ae0df79a64736f6c634300060c0033",
  "immutableReferences": {},
  "source": "// SPDX-License-Identifier: MIT\r\npragma solidity ^0.6.0;\r\n\r\nimport '@openzeppelin/contracts/math/SafeMath.sol';\r\n\r\ninterface USDC{\r\n\r\n    function totalSupply() external view  returns (uint256);\r\n    \r\n    function balanceOf(address tokenOwner) external view returns (uint);\r\n\r\n    function transfer(address receiver, uint numTokens) external returns (bool);\r\n\r\n    function approve(address delegate, uint numTokens) external returns (bool);\r\n\r\n    function allowance(address owner, address delegate) external view returns (uint);\r\n    \r\n    function transferFrom(address owner, address buyer, uint numTokens) external returns (bool);\r\n    \r\n    function mint(address account, uint256 amount) external;\r\n    \r\n    function _burn(address account, uint256 amount) external;\r\n    \r\n    function burn(uint256 amount) external;\r\n}\r\n\r\ninterface RoyaleToken{\r\n\r\n    function totalSupply() external view returns (uint256);\r\n    \r\n    function balanceOf(address tokenOwner) external view returns (uint);\r\n\r\n    function transfer(address receiver, uint numTokens) external returns (bool);\r\n\r\n    function approve(address delegate, uint numTokens) external returns (bool);\r\n\r\n    function allowance(address owner, address delegate) external view returns (uint);\r\n    \r\n    function transferFrom(address owner, address buyer, uint numTokens) external returns (bool);\r\n}\r\n\r\n\r\ncontract StakingLots {\r\n    using SafeMath for uint256;\r\n    \r\n \r\n    struct StakeOption {\r\n        string  stakeName;\r\n        uint256 stakeID;\r\n        uint256 interestPercentage; // in 1000 basis points\r\n        uint256 penaltyPercentage;  // in 1000 basis points\r\n        uint8 durationDays; // in Days\r\n    }\r\n    \r\n    struct StakedData {\r\n        address staker;\r\n        uint256 stakeID;\r\n        uint256 stakedAmount;\r\n        uint256 startTimeStamp;\r\n        uint256 initialStakedAmount;\r\n        uint256 lastWithdrawTimestamp;\r\n    }\r\n    \r\n    address public owner;\r\n\r\n    RoyaleToken roya;\r\n    USDC usdc;\r\n        \r\n    uint256 public  depositedStakesCount=0;\r\n    \r\n    uint256 public stakeOptionsCount=0;\r\n    \r\n    StakeOption[] public stakeOptions;\r\n\r\n    mapping(address => StakedData[]) public stakes;\r\n\r\n    modifier onlyOwner {\r\n      require(msg.sender == owner);\r\n      _;\r\n    }\r\n    \r\n    constructor(RoyaleToken _roya, USDC _usdc) public{\r\n          owner= msg.sender;\r\n\r\n          roya = _roya;\r\n          usdc = _usdc;\r\n\r\n          StakeOption memory king = StakeOption(\"King\",0,10000,5000,3);\r\n          StakeOption memory queen = StakeOption(\"Queen\",1,5000,2000,2);\r\n          StakeOption memory royaleFlush = StakeOption(\"Flush\",2,2000,1000,1);\r\n\r\n          stakeOptions.push(king);\r\n          stakeOptions.push(queen);\r\n          stakeOptions.push(royaleFlush);\r\n          \r\n          stakeOptionsCount = 3;\r\n    }\r\n\r\n    function setRoyaContractAddress(RoyaleToken _roya) public onlyOwner {\r\n         roya = _roya;\r\n    }\r\n    \r\n    function setUSDCContractAddress(USDC _usdc) public onlyOwner {\r\n         usdc = _usdc;\r\n    }\r\n    \r\n    \r\n    function addStakeOption(\r\n        string memory name, \r\n        uint256 _interestPercentage,\r\n        uint256 _penaltyPercentage,\r\n        uint8 _duration\r\n    ) public onlyOwner returns(bool) {\r\n        StakeOption memory stake = StakeOption(\r\n            name, \r\n            stakeOptionsCount, \r\n            _interestPercentage,\r\n            _penaltyPercentage,\r\n            _duration\r\n        );\r\n\r\n        stakeOptions.push(stake);\r\n        stakeOptionsCount = stakeOptionsCount + 1;\r\n        \r\n        return stakeOptions.length == stakeOptionsCount;\r\n    }\r\n\r\n    \r\n    function stakeRoya(uint256 _amount, uint256 _stakeOptionID) public returns(bool){\r\n        require(_amount>0 , \"Deposited amount can not be zero\");\r\n        require(_stakeOptionID > 0 && _stakeOptionID <= stakeOptionsCount , \"Please choose valid stake\");\r\n        require(roya.balanceOf(msg.sender)>= _amount,\"Insufficient balance\");\r\n\r\n        uint256 timestamp = block.timestamp;\r\n\r\n        StakedData memory stake = StakedData(\r\n            msg.sender,\r\n            _stakeOptionID,\r\n            _amount,\r\n            timestamp,\r\n            _amount,\r\n            timestamp\r\n        );\r\n\r\n        bool result = roya.transferFrom(\r\n            msg.sender, \r\n            address(this), \r\n            _amount\r\n        );\r\n        \r\n        stakes[msg.sender].push(stake);\r\n        depositedStakesCount++;\r\n\r\n        return result;\r\n    }\r\n    \r\n    function getStakesCount(address staker) public view returns(uint256){\r\n        return stakes[staker].length;\r\n    }\r\n    \r\n    function getAccumulatedRewards(\r\n        address staker, \r\n        uint256 stakeIndex\r\n    ) public view returns(uint256) {\r\n        StakeOption memory stakeOption = stakeOptions[stakes[staker][stakeIndex].stakeID];\r\n        uint256 currentDuration = (block.timestamp - stakes[staker][stakeIndex].lastWithdrawTimestamp) / 86400;\r\n        uint256 totalDuration = (block.timestamp - stakes[staker][stakeIndex].startTimeStamp) / 86400;\r\n        if(totalDuration > stakeOption.durationDays){\r\n            currentDuration = currentDuration - (totalDuration - stakeOption.durationDays);\r\n        }\r\n        uint256 interest = stakes[staker][stakeIndex].stakedAmount * stakeOption.interestPercentage * currentDuration / 365000;\r\n        return interest;\r\n    }\r\n    \r\n    function claimRewards(\r\n        address staker, \r\n        uint256 stakeIndex\r\n    ) public returns(bool) {\r\n        uint256 rewards = getAccumulatedRewards(staker, stakeIndex);\r\n        usdc.transfer(staker,rewards);\r\n        stakes[staker][stakeIndex].lastWithdrawTimestamp = block.timestamp;\r\n    }\r\n   \r\n    \r\n    function withdrawStakedRoya(uint256 _stakeIndex) public {\r\n        uint256 _amount = stakes[msg.sender][_stakeIndex].stakedAmount;\r\n\r\n        uint256 currentDuration = (block.timestamp - stakes[msg.sender][_stakeIndex].startTimeStamp) / 86400;\r\n        require(currentDuration >= stakeOptions[stakes[msg.sender][_stakeIndex].stakeID].durationDays,\"Stake duration not completed\");\r\n        \r\n        uint256 rewards = getAccumulatedRewards(msg.sender, _stakeIndex);\r\n\r\n        usdc.transfer(msg.sender,rewards);\r\n        roya.transfer(msg.sender,_amount);\r\n        \r\n        for (uint i = _stakeIndex; i<stakes[msg.sender].length-1; i++){\r\n            stakes[msg.sender][i] = stakes[msg.sender][i+1];\r\n        }\r\n        delete stakes[msg.sender][stakes[msg.sender].length-1];\r\n        stakes[msg.sender].pop();\r\n    }    \r\n    \r\n    \r\n    function withdrawStakedRoyaWithPenalty(\r\n        uint256 _amount,\r\n        uint256 _stakeIndex\r\n    ) public {\r\n        require(stakes[msg.sender][_stakeIndex].stakedAmount >= _amount,\"Not enough balance\");\r\n\r\n        uint256 currentDuration = (block.timestamp - stakes[msg.sender][_stakeIndex].startTimeStamp) / 86400;\r\n        require(currentDuration >= stakeOptions[stakes[msg.sender][_stakeIndex].stakeID].durationDays,\"Stake duration not completed\");\r\n                \r\n        uint256 rewards = getAccumulatedRewards(msg.sender, _stakeIndex);\r\n        uint256 penalty = _amount * stakeOptions[stakes[msg.sender][_stakeIndex].stakeID].penaltyPercentage / 1000;\r\n        \r\n        usdc.transfer(msg.sender,rewards);\r\n        roya.transfer(msg.sender,_amount.sub(penalty));\r\n        roya.transfer(owner,penalty);\r\n        \r\n        stakes[msg.sender][_stakeIndex].lastWithdrawTimestamp = block.timestamp;\r\n        stakes[msg.sender][_stakeIndex].stakedAmount.sub(_amount);\r\n    }    \r\n}\r\n    ",
  "sourcePath": "C:/Users/MayankVats/Desktop/WORK/blockchain/Royale/rlp/contracts/StakingLots.sol",
  "compiler": {
    "name": "solc",
    "version": "0.6.12+commit.27d51765.Emscripten.clang"
  },
  "schemaVersion": "3.3.2",
  "updatedAt": "2021-01-08T10:10:10.671Z",
  "devdoc": {
    "kind": "dev",
    "methods": {},
    "version": 1
  },
  "userdoc": {
    "kind": "user",
    "methods": {},
    "version": 1
  }
}